{"abi":[{"type":"constructor","inputs":[{"name":"owner","type":"address","internalType":"address"}],"stateMutability":"nonpayable"},{"type":"function","name":"clearLogs","inputs":[],"outputs":[],"stateMutability":"nonpayable"},{"type":"function","name":"eventLogs","inputs":[{"name":"","type":"uint256","internalType":"uint256"}],"outputs":[{"name":"eventType","type":"string","internalType":"string"},{"name":"message","type":"string","internalType":"string"},{"name":"indexedAddress","type":"address","internalType":"address"},{"name":"data","type":"bytes","internalType":"bytes"},{"name":"timestamp","type":"uint256","internalType":"uint256"},{"name":"logIndex","type":"uint256","internalType":"uint256"}],"stateMutability":"view"},{"type":"function","name":"eventTypeCounters","inputs":[{"name":"","type":"string","internalType":"string"}],"outputs":[{"name":"","type":"uint256","internalType":"uint256"}],"stateMutability":"view"},{"type":"function","name":"getEventLogCount","inputs":[],"outputs":[{"name":"","type":"uint256","internalType":"uint256"}],"stateMutability":"view"},{"type":"function","name":"getEventTypeCount","inputs":[{"name":"eventType","type":"string","internalType":"string"}],"outputs":[{"name":"","type":"uint256","internalType":"uint256"}],"stateMutability":"view"},{"type":"function","name":"getRecentLogs","inputs":[{"name":"count","type":"uint256","internalType":"uint256"}],"outputs":[{"name":"","type":"tuple[]","internalType":"struct EventLogger.EventLog[]","components":[{"name":"eventType","type":"string","internalType":"string"},{"name":"message","type":"string","internalType":"string"},{"name":"indexedAddress","type":"address","internalType":"address"},{"name":"data","type":"bytes","internalType":"bytes"},{"name":"timestamp","type":"uint256","internalType":"uint256"},{"name":"logIndex","type":"uint256","internalType":"uint256"}]}],"stateMutability":"view"},{"type":"function","name":"isLoggingEnabled","inputs":[],"outputs":[{"name":"","type":"bool","internalType":"bool"}],"stateMutability":"view"},{"type":"function","name":"logEvent","inputs":[{"name":"eventType","type":"string","internalType":"string"},{"name":"message","type":"string","internalType":"string"},{"name":"indexedAddress","type":"address","internalType":"address"},{"name":"data","type":"bytes","internalType":"bytes"}],"outputs":[],"stateMutability":"nonpayable"},{"type":"function","name":"loggingEnabled","inputs":[],"outputs":[{"name":"","type":"bool","internalType":"bool"}],"stateMutability":"view"},{"type":"function","name":"owner","inputs":[],"outputs":[{"name":"","type":"address","internalType":"address"}],"stateMutability":"view"},{"type":"function","name":"renounceOwnership","inputs":[],"outputs":[],"stateMutability":"nonpayable"},{"type":"function","name":"toggleLogging","inputs":[],"outputs":[],"stateMutability":"nonpayable"},{"type":"function","name":"transferOwnership","inputs":[{"name":"newOwner","type":"address","internalType":"address"}],"outputs":[],"stateMutability":"nonpayable"},{"type":"event","name":"EventLogged","inputs":[{"name":"eventType","type":"string","indexed":true,"internalType":"string"},{"name":"message","type":"string","indexed":true,"internalType":"string"},{"name":"indexedAddress","type":"address","indexed":true,"internalType":"address"},{"name":"timestamp","type":"uint256","indexed":false,"internalType":"uint256"}],"anonymous":false},{"type":"event","name":"LoggingToggled","inputs":[{"name":"enabled","type":"bool","indexed":true,"internalType":"bool"},{"name":"timestamp","type":"uint256","indexed":true,"internalType":"uint256"}],"anonymous":false},{"type":"event","name":"LogsCleared","inputs":[{"name":"timestamp","type":"uint256","indexed":true,"internalType":"uint256"}],"anonymous":false},{"type":"event","name":"OwnershipTransferred","inputs":[{"name":"previousOwner","type":"address","indexed":true,"internalType":"address"},{"name":"newOwner","type":"address","indexed":true,"internalType":"address"}],"anonymous":false},{"type":"error","name":"InvalidAddress","inputs":[]},{"type":"error","name":"InvalidData","inputs":[]},{"type":"error","name":"InvalidEventType","inputs":[]},{"type":"error","name":"InvalidMessage","inputs":[]},{"type":"error","name":"LoggingDisabled","inputs":[]},{"type":"error","name":"OwnableInvalidOwner","inputs":[{"name":"owner","type":"address","internalType":"address"}]},{"type":"error","name":"OwnableUnauthorizedAccount","inputs":[{"name":"account","type":"address","internalType":"address"}]}],"bytecode":{"object":"0x608060405234801561000f575f80fd5b5060405161129638038061129683398101604081905261002e916100cd565b806001600160a01b03811661005c57604051631e4fbdf760e01b81525f600482015260240160405180910390fd5b6100658161007e565b50505f805460ff60a01b1916600160a01b1790556100fa565b5f80546001600160a01b038381166001600160a01b0319831681178455604051919092169283917f8be0079c531659141344cd1fd0a4f28419497f9722a3daafe3b4186f6b6457e09190a35050565b5f602082840312156100dd575f80fd5b81516001600160a01b03811681146100f3575f80fd5b9392505050565b61118f806101075f395ff3fe608060405234801561000f575f80fd5b50600436106100cb575f3560e01c80638da5cb5b11610088578063c44e370211610063578063c44e3702146101ad578063cf03d449146101c0578063e52e64f9146101c8578063f2fde38b146101e8575f80fd5b80638da5cb5b1461016e57806391849f56146101885780639486baae146101a5575f80fd5b80631869b904146100cf57806329580216146100fd57806339da8bd114610112578063532bdeaa1461011a5780636ce73bd71461013b578063715018a614610166575b5f80fd5b6100e26100dd366004610c0d565b6101fb565b6040516100f496959493929190610c67565b60405180910390f35b61011061010b366004610d24565b6103e3565b005b610110610482565b61012d610128366004610dca565b6104e0565b6040519081526020016100f4565b61012d610149366004610e1d565b805160208183018101805160028252928201919093012091525481565b61011061050b565b5f546040516001600160a01b0390911681526020016100f4565b5f54600160a01b900460ff165b60405190151581526020016100f4565b61011061051e565b5f5461019590600160a01b900460ff1681565b60015461012d565b6101db6101d6366004610c0d565b61055d565b6040516100f49190610ec8565b6101106101f6366004610f93565b61081b565b6001818154811061020a575f80fd5b905f5260205f2090600602015f91509050805f01805461022990610fb3565b80601f016020809104026020016040519081016040528092919081815260200182805461025590610fb3565b80156102a05780601f10610277576101008083540402835291602001916102a0565b820191905f5260205f20905b81548152906001019060200180831161028357829003601f168201915b5050505050908060010180546102b590610fb3565b80601f01602080910402602001604051908101604052809291908181526020018280546102e190610fb3565b801561032c5780601f106103035761010080835404028352916020019161032c565b820191905f5260205f20905b81548152906001019060200180831161030f57829003601f168201915b505050600284015460038501805494956001600160a01b0390921694919350915061035690610fb3565b80601f016020809104026020016040519081016040528092919081815260200182805461038290610fb3565b80156103cd5780601f106103a4576101008083540402835291602001916103cd565b820191905f5260205f20905b8154815290600101906020018083116103b057829003601f168201915b5050505050908060040154908060050154905086565b5f54600160a01b900460ff1661040c5760405163964eaab160e01b815260040160405180910390fd5b5f86900361042d57604051631746482760e11b815260040160405180910390fd5b5f84900361044e57604051636eca2e4b60e01b815260040160405180910390fd5b5f61045e8888888888888861085d565b905061046b818989610946565b6104788888888888610a26565b5050505050505050565b61048a610a99565b5f805460ff600160a01b808304821615810260ff60a01b19909316929092178084556040514294939091049091161515917f7e72be08c5d7fedb8b8edc38134beede4d894e7a9f9dbc05c2a03787ca67b1ae91a3565b5f600283836040516104f3929190610feb565b90815260200160405180910390205490505b92915050565b610513610a99565b61051c5f610ac5565b565b610526610a99565b61053160015f610b14565b60405142907f33556c359615cf33bdee927e907941d8d51ed49cbb20de4d9575e5756743b9c5905f90a2565b6001546060905f8184116105715783610573565b815b90505f8167ffffffffffffffff81111561058f5761058f610e09565b6040519080825280602002602001820160405280156105c857816020015b6105b5610b32565b8152602001906001900390816105ad5790505b5090505f5b82811015610812576001816105e2828761100e565b6105ec919061100e565b815481106105fc576105fc611021565b905f5260205f2090600602016040518060c00160405290815f8201805461062290610fb3565b80601f016020809104026020016040519081016040528092919081815260200182805461064e90610fb3565b80156106995780601f1061067057610100808354040283529160200191610699565b820191905f5260205f20905b81548152906001019060200180831161067c57829003601f168201915b505050505081526020016001820180546106b290610fb3565b80601f01602080910402602001604051908101604052809291908181526020018280546106de90610fb3565b80156107295780601f1061070057610100808354040283529160200191610729565b820191905f5260205f20905b81548152906001019060200180831161070c57829003601f168201915b505050918352505060028201546001600160a01b0316602082015260038201805460409092019161075990610fb3565b80601f016020809104026020016040519081016040528092919081815260200182805461078590610fb3565b80156107d05780601f106107a7576101008083540402835291602001916107d0565b820191905f5260205f20905b8154815290600101906020018083116107b357829003601f168201915b50505050508152602001600482015481526020016005820154815250508282815181106107ff576107ff611021565b60209081029190910101526001016105cd565b50949350505050565b610823610a99565b6001600160a01b03811661085157604051631e4fbdf760e01b81525f60048201526024015b60405180910390fd5b61085a81610ac5565b50565b610865610b32565b6040518060c0016040528089898080601f0160208091040260200160405190810160405280939291908181526020018383808284375f92019190915250505090825250604080516020601f8a01819004810282018101909252888152918101919089908990819084018382808284375f920191909152505050908252506001600160a01b03861660208083019190915260408051601f870183900483028101830182528681529201919086908690819084018382808284375f9201919091525050509082525042602082015260015460409091015298975050505050505050565b6001805480820182555f91909152835184916006027fb10e2d527612073b26eecdfd717e6a320cf44b4afac2b0732d9fcbe2b7fa0cf60190819061098a9082611081565b506020820151600182019061099f9082611081565b5060408201516002820180546001600160a01b0319166001600160a01b03909216919091179055606082015160038201906109da9082611081565b506080820151816004015560a08201518160050155505060028282604051610a03929190610feb565b90815260200160405180910390205f8154610a1d90611141565b90915550505050565b806001600160a01b03168383604051610a40929190610feb565b60405180910390208686604051610a58929190610feb565b604051908190038120428252907f961cadbec37b66d865fdb778cee321f651c4faf369ef3016aaf703989997bd8c9060200160405180910390a45050505050565b5f546001600160a01b0316331461051c5760405163118cdaa760e01b8152336004820152602401610848565b5f80546001600160a01b038381166001600160a01b0319831681178455604051919092169283917f8be0079c531659141344cd1fd0a4f28419497f9722a3daafe3b4186f6b6457e09190a35050565b5080545f8255600602905f5260205f209081019061085a9190610b6e565b6040518060c0016040528060608152602001606081526020015f6001600160a01b03168152602001606081526020015f81526020015f81525090565b80821115610bc3575f610b818282610bc7565b610b8e600183015f610bc7565b6002820180546001600160a01b0319169055610bad600383015f610bc7565b505f600482018190556005820155600601610b6e565b5090565b508054610bd390610fb3565b5f825580601f10610be2575050565b601f0160209004905f5260205f209081019061085a91905b80821115610bc3575f8155600101610bfa565b5f60208284031215610c1d575f80fd5b5035919050565b5f81518084525f5b81811015610c4857602081850181015186830182015201610c2c565b505f602082860101526020601f19601f83011685010191505092915050565b60c081525f610c7960c0830189610c24565b8281036020840152610c8b8189610c24565b6001600160a01b038816604085015283810360608501529050610cae8187610c24565b6080840195909552505060a00152949350505050565b5f8083601f840112610cd4575f80fd5b50813567ffffffffffffffff811115610ceb575f80fd5b602083019150836020828501011115610d02575f80fd5b9250929050565b80356001600160a01b0381168114610d1f575f80fd5b919050565b5f805f805f805f6080888a031215610d3a575f80fd5b873567ffffffffffffffff80821115610d51575f80fd5b610d5d8b838c01610cc4565b909950975060208a0135915080821115610d75575f80fd5b610d818b838c01610cc4565b9097509550859150610d9560408b01610d09565b945060608a0135915080821115610daa575f80fd5b50610db78a828b01610cc4565b989b979a50959850939692959293505050565b5f8060208385031215610ddb575f80fd5b823567ffffffffffffffff811115610df1575f80fd5b610dfd85828601610cc4565b90969095509350505050565b634e487b7160e01b5f52604160045260245ffd5b5f60208284031215610e2d575f80fd5b813567ffffffffffffffff80821115610e44575f80fd5b818401915084601f830112610e57575f80fd5b813581811115610e6957610e69610e09565b604051601f8201601f19908116603f01168101908382118183101715610e9157610e91610e09565b81604052828152876020848701011115610ea9575f80fd5b826020860160208301375f928101602001929092525095945050505050565b5f60208083018184528085518083526040925060408601915060408160051b8701018488015f5b83811015610f8557603f19898403018552815160c08151818652610f1582870182610c24565b915050888201518582038a870152610f2d8282610c24565b838a01516001600160a01b0316878b0152606080850151888303828a01529193509150610f5a8382610c24565b6080858101519089015260a09485015194909701939093525050509386019390860190600101610eef565b509098975050505050505050565b5f60208284031215610fa3575f80fd5b610fac82610d09565b9392505050565b600181811c90821680610fc757607f821691505b602082108103610fe557634e487b7160e01b5f52602260045260245ffd5b50919050565b818382375f9101908152919050565b634e487b7160e01b5f52601160045260245ffd5b8181038181111561050557610505610ffa565b634e487b7160e01b5f52603260045260245ffd5b601f82111561107c57805f5260205f20601f840160051c8101602085101561105a5750805b601f840160051c820191505b81811015611079575f8155600101611066565b50505b505050565b815167ffffffffffffffff81111561109b5761109b610e09565b6110af816110a98454610fb3565b84611035565b602080601f8311600181146110e2575f84156110cb5750858301515b5f19600386901b1c1916600185901b178555611139565b5f85815260208120601f198616915b82811015611110578886015182559484019460019091019084016110f1565b508582101561112d57878501515f19600388901b60f8161c191681555b505060018460011b0185555b505050505050565b5f6001820161115257611152610ffa565b506001019056fea264697066735822122046f22b7f3c9d7ec1a47887590638c3785163c5465aacdaf2e67ea216bddbea1664736f6c63430008160033","linkReferences":{}},"methodIdentifiers":{"clearLogs()":"9486baae","eventLogs(uint256)":"1869b904","eventTypeCounters(string)":"6ce73bd7","getEventLogCount()":"cf03d449","getEventTypeCount(string)":"532bdeaa","getRecentLogs(uint256)":"e52e64f9","isLoggingEnabled()":"91849f56","logEvent(string,string,address,bytes)":"29580216","loggingEnabled()":"c44e3702","owner()":"8da5cb5b","renounceOwnership()":"715018a6","toggleLogging()":"39da8bd1","transferOwnership(address)":"f2fde38b"},"storageLayout":{"storage":[{"astId":63803,"contract":"contracts/shared/utils/EventLogger.sol:EventLogger","label":"_owner","offset":0,"slot":"0","type":"t_address"},{"astId":20567,"contract":"contracts/shared/utils/EventLogger.sol:EventLogger","label":"loggingEnabled","offset":20,"slot":"0","type":"t_bool"},{"astId":20572,"contract":"contracts/shared/utils/EventLogger.sol:EventLogger","label":"eventLogs","offset":0,"slot":"1","type":"t_array(t_struct(EventLog)20564_storage)dyn_storage"},{"astId":20577,"contract":"contracts/shared/utils/EventLogger.sol:EventLogger","label":"eventTypeCounters","offset":0,"slot":"2","type":"t_mapping(t_string_memory_ptr,t_uint256)"}],"types":{"t_address":{"encoding":"inplace","label":"address","numberOfBytes":"20"},"t_array(t_struct(EventLog)20564_storage)dyn_storage":{"encoding":"dynamic_array","label":"struct EventLogger.EventLog[]","numberOfBytes":"32","base":"t_struct(EventLog)20564_storage"},"t_bool":{"encoding":"inplace","label":"bool","numberOfBytes":"1"},"t_bytes_storage":{"encoding":"bytes","label":"bytes","numberOfBytes":"32"},"t_mapping(t_string_memory_ptr,t_uint256)":{"encoding":"mapping","key":"t_string_memory_ptr","label":"mapping(string => uint256)","numberOfBytes":"32","value":"t_uint256"},"t_string_memory_ptr":{"encoding":"bytes","label":"string","numberOfBytes":"32"},"t_string_storage":{"encoding":"bytes","label":"string","numberOfBytes":"32"},"t_struct(EventLog)20564_storage":{"encoding":"inplace","label":"struct EventLogger.EventLog","numberOfBytes":"192","members":[{"astId":20553,"contract":"contracts/shared/utils/EventLogger.sol:EventLogger","label":"eventType","offset":0,"slot":"0","type":"t_string_storage"},{"astId":20555,"contract":"contracts/shared/utils/EventLogger.sol:EventLogger","label":"message","offset":0,"slot":"1","type":"t_string_storage"},{"astId":20557,"contract":"contracts/shared/utils/EventLogger.sol:EventLogger","label":"indexedAddress","offset":0,"slot":"2","type":"t_address"},{"astId":20559,"contract":"contracts/shared/utils/EventLogger.sol:EventLogger","label":"data","offset":0,"slot":"3","type":"t_bytes_storage"},{"astId":20561,"contract":"contracts/shared/utils/EventLogger.sol:EventLogger","label":"timestamp","offset":0,"slot":"4","type":"t_uint256"},{"astId":20563,"contract":"contracts/shared/utils/EventLogger.sol:EventLogger","label":"logIndex","offset":0,"slot":"5","type":"t_uint256"}]},"t_uint256":{"encoding":"inplace","label":"uint256","numberOfBytes":"32"}}},"id":46}