{"abi":[{"type":"constructor","inputs":[],"stateMutability":"nonpayable"},{"type":"function","name":"getMigrationContract","inputs":[{"name":"migrationNumber","type":"uint256","internalType":"uint256"}],"outputs":[{"name":"","type":"address","internalType":"address"}],"stateMutability":"view"},{"type":"function","name":"getMigrationStats","inputs":[],"outputs":[{"name":"lastCompleted","type":"uint256","internalType":"uint256"},{"name":"totalMigrations","type":"uint256","internalType":"uint256"},{"name":"hasActiveMigration","type":"bool","internalType":"bool"}],"stateMutability":"view"},{"type":"function","name":"isMigrationContract","inputs":[{"name":"","type":"address","internalType":"address"}],"outputs":[{"name":"","type":"bool","internalType":"bool"}],"stateMutability":"view"},{"type":"function","name":"isMigrationContractAddress","inputs":[{"name":"contractAddress","type":"address","internalType":"address"}],"outputs":[{"name":"","type":"bool","internalType":"bool"}],"stateMutability":"view"},{"type":"function","name":"last_completed_migration","inputs":[],"outputs":[{"name":"","type":"uint256","internalType":"uint256"}],"stateMutability":"view"},{"type":"function","name":"migrationContracts","inputs":[{"name":"","type":"uint256","internalType":"uint256"}],"outputs":[{"name":"","type":"address","internalType":"address"}],"stateMutability":"view"},{"type":"function","name":"owner","inputs":[],"outputs":[{"name":"","type":"address","internalType":"address"}],"stateMutability":"view"},{"type":"function","name":"renounceOwnership","inputs":[],"outputs":[],"stateMutability":"nonpayable"},{"type":"function","name":"setCompleted","inputs":[{"name":"completed","type":"uint256","internalType":"uint256"}],"outputs":[],"stateMutability":"nonpayable"},{"type":"function","name":"transferOwnership","inputs":[{"name":"newOwner","type":"address","internalType":"address"}],"outputs":[],"stateMutability":"nonpayable"},{"type":"function","name":"upgrade","inputs":[{"name":"new_address","type":"address","internalType":"address"}],"outputs":[],"stateMutability":"nonpayable"},{"type":"event","name":"MigrationCompleted","inputs":[{"name":"migrationNumber","type":"uint256","indexed":true,"internalType":"uint256"},{"name":"contractAddress","type":"address","indexed":true,"internalType":"address"},{"name":"timestamp","type":"uint256","indexed":false,"internalType":"uint256"}],"anonymous":false},{"type":"event","name":"MigrationContractRegistered","inputs":[{"name":"contractAddress","type":"address","indexed":true,"internalType":"address"},{"name":"migrationNumber","type":"uint256","indexed":true,"internalType":"uint256"},{"name":"timestamp","type":"uint256","indexed":false,"internalType":"uint256"}],"anonymous":false},{"type":"event","name":"OwnershipTransferred","inputs":[{"name":"previousOwner","type":"address","indexed":true,"internalType":"address"},{"name":"newOwner","type":"address","indexed":true,"internalType":"address"}],"anonymous":false},{"type":"error","name":"OwnableInvalidOwner","inputs":[{"name":"owner","type":"address","internalType":"address"}]},{"type":"error","name":"OwnableUnauthorizedAccount","inputs":[{"name":"account","type":"address","internalType":"address"}]}],"bytecode":{"object":"0x6080806040523461007c573315610067575f8054336001600160a01b03198216811783556040519290916001600160a01b0316907f8be0079c531659141344cd1fd0a4f28419497f9722a3daafe3b4186f6b6457e09080a35f6001556105a790816100818239f35b631e4fbdf760e01b81525f6004820152602490fd5b5f80fdfe604060808152600480361015610013575f80fd5b5f905f3560e01c80630900f0101461033b5780632eec985514610258578063445df0ac1461031c5780634e027c5514610224578063715018a6146102c05780638da5cb5b14610298578063902a101a1461025857806396b2aa6714610224578063d1d7422a146101f7578063f2fde38b1461015e5763fdacd57614610096575f80fd5b3461015a57602036600319011261015a578035906100be60018060a01b038454163314610509565b6001548211156100fa57507f584a8cf4978b9dcf77b720addce50ee1d2b0d5f28b04fab25477b94381c76792602083948360015551428152a380f35b608490602085519162461bcd60e51b8352820152603460248201527f4d6967726174696f6e206e756d626572206d7573742062652067726561746572604482015273081d1a185b881b185cdd0818dbdb5c1b195d195960621b6064820152fd5b5080fd5b5082346101f35760203660031901126101f3576001600160a01b038235818116939192908490036101ef57610191610546565b83156101d95750505f54826bffffffffffffffffffffffff60a01b8216175f55167f8be0079c531659141344cd1fd0a4f28419497f9722a3daafe3b4186f6b6457e05f80a380f35b51631e4fbdf760e01b8152908101849052602490fd5b8480fd5b8280fd5b82843461015a578160031936011261015a5760609060015490805191808352806020840152151590820152f35b508290346101f35760203660031901126101f35735825260026020908152918190205490516001600160a01b039091168152f35b508290346101f35760203660031901126101f357356001600160a01b038116908190036101f357818360ff92602095526003855220541690519015158152f35b82843461015a578160031936011261015a57905490516001600160a01b039091168152602090f35b82346103195780600319360112610319576102d9610546565b5f80546001600160a01b0319811682556001600160a01b03167f8be0079c531659141344cd1fd0a4f28419497f9722a3daafe3b4186f6b6457e08280a380f35b80fd5b82843461015a578160031936011261015a576020906001549051908152f35b509134610470576020806003193601126104705783356001600160a01b03818116929183900361047057610373905f54163314610509565b81156104c757815f526003815260ff835f20541661047457600154823b1561047057835190637ed66abb60e11b8252868201525f8160248183875af1801561046657610437575b506001549260018401809411610424578385526002825280852080546001600160a01b0319168417905582855260038252808520805460ff19166001179055514281527fd75c530c076adf41c4c2dbf0e6559a946b365fc069956d244387c6b18a46d3e39190a380f35b634e487b7160e01b855260118652602485fd5b90935067ffffffffffffffff81116104535782525f925f6103ba565b604185634e487b7160e01b5f525260245ffd5b84513d5f823e3d90fd5b5f80fd5b8460849184519162461bcd60e51b8352820152602860248201527f436f6e747261637420616c72656164792072656769737465726564206173206d60448201526734b3b930ba34b7b760c11b6064820152fd5b8460649184519162461bcd60e51b8352820152601860248201527f496e76616c696420636f6e7472616374206164647265737300000000000000006044820152fd5b1561051057565b60405162461bcd60e51b815260206004820152600e60248201526d139bdd08185d5d1a1bdc9a5e995960921b6044820152606490fd5b5f546001600160a01b0316330361055957565b60405163118cdaa760e01b8152336004820152602490fdfea264697066735822122078a97e589ef6ff3befb9d916e7acdeac35ae1f7db10385b82fbdf1764230fac364736f6c63430008160033","linkReferences":{}},"methodIdentifiers":{"getMigrationContract(uint256)":"96b2aa67","getMigrationStats()":"d1d7422a","isMigrationContract(address)":"902a101a","isMigrationContractAddress(address)":"2eec9855","last_completed_migration()":"445df0ac","migrationContracts(uint256)":"4e027c55","owner()":"8da5cb5b","renounceOwnership()":"715018a6","setCompleted(uint256)":"fdacd576","transferOwnership(address)":"f2fde38b","upgrade(address)":"0900f010"},"id":0}