{"abi":[{"type":"constructor","inputs":[],"stateMutability":"nonpayable"},{"type":"fallback","stateMutability":"payable"},{"type":"receive","stateMutability":"payable"},{"type":"function","name":"changeOwner","inputs":[{"name":"newOwner","type":"address","internalType":"address"}],"outputs":[],"stateMutability":"nonpayable"},{"type":"function","name":"getBalance","inputs":[],"outputs":[{"name":"","type":"uint256","internalType":"uint256"}],"stateMutability":"view"},{"type":"function","name":"owner","inputs":[],"outputs":[{"name":"","type":"address","internalType":"address"}],"stateMutability":"view"},{"type":"function","name":"pause","inputs":[],"outputs":[],"stateMutability":"nonpayable"},{"type":"function","name":"paused","inputs":[],"outputs":[{"name":"","type":"bool","internalType":"bool"}],"stateMutability":"view"},{"type":"function","name":"unpause","inputs":[],"outputs":[],"stateMutability":"nonpayable"},{"type":"function","name":"withdrawAmount","inputs":[{"name":"amount","type":"uint256","internalType":"uint256"}],"outputs":[],"stateMutability":"nonpayable"},{"type":"function","name":"withdrawFunds","inputs":[],"outputs":[],"stateMutability":"nonpayable"},{"type":"event","name":"CommissionReceived","inputs":[{"name":"amount","type":"uint256","indexed":false,"internalType":"uint256"},{"name":"time","type":"uint256","indexed":false,"internalType":"uint256"}],"anonymous":false},{"type":"event","name":"FundsWithdrawn","inputs":[{"name":"to","type":"address","indexed":false,"internalType":"address"},{"name":"amount","type":"uint256","indexed":false,"internalType":"uint256"},{"name":"timestamp","type":"uint256","indexed":false,"internalType":"uint256"}],"anonymous":false},{"type":"event","name":"OwnerChanged","inputs":[{"name":"oldOwner","type":"address","indexed":true,"internalType":"address"},{"name":"newOwner","type":"address","indexed":true,"internalType":"address"}],"anonymous":false},{"type":"event","name":"Paused","inputs":[{"name":"account","type":"address","indexed":true,"internalType":"address"}],"anonymous":false},{"type":"event","name":"Unpaused","inputs":[{"name":"account","type":"address","indexed":true,"internalType":"address"}],"anonymous":false}],"bytecode":{"object":"0x60808060405234610027575f80546001600160a01b031916331790556106b1908161002c8239f35b5f80fdfe6040608081526004908136101561002b575b5050361561002357610021610643565b005b610021610643565b5f3560e01c80630562b9f7146103ae57806312065fe01461039457806324600fc31461028f5780633f4ba83a146102395780635c975abb146102145780638456cb59146101b55780638da5cb5b1461018e5763a6f9dae103610011573461018a57602036600319011261018a576001600160a01b038235818116939084900361018a575f54918216926100bf8433146104d3565b8415610147578385146101045750506001600160a01b03191682175f9081557fb532073b38c83145e3e5135377a08bf9aab55bc0fd7c1179cd4fb995d2a5159c9080a3005b906020606492519162461bcd60e51b8352820152601b60248201527f4e6577206f776e6572206d75737420626520646966666572656e7400000000006044820152fd5b906020606492519162461bcd60e51b8352820152602060248201527f4e6577206f776e65722063616e6e6f74206265207a65726f20616464726573736044820152fd5b5f80fd5b503461018a575f36600319011261018a575f5490516001600160a01b039091168152602090f35b3461018a575f36600319011261018a575f546101db336001600160a01b038316146104d3565b60ff60a81b1916600160a81b175f90815533907f62e78cea01bee320cd4e420270b5ea74000d11b0c9f74754ebdbfc544b05a2589080a2005b503461018a575f36600319011261018a5760209060ff5f5460a81c1690519015158152f35b3461018a575f36600319011261018a575f5461025f336001600160a01b038316146104d3565b60ff60a81b19165f55337f5db9ee0a495bf2e6ff9c91a7834c1ba4fdd244a5e8aa4e537bd38aeae4b073aa5f80a2005b503461018a575f36600319011261018a575f546001600160a01b03808216939192916102bc3386146104d3565b6102cc60ff8560a01c1615610529565b60ff60a01b19938416600160a01b175f8190556102ef9060a81c60ff1615610566565b4790811561035a57506103345f808080857ffbc3a599b784fe88772fc5abcc07223f64ca0b13acc341f4fb1e46bef0510eb498999a5af161032e6105a7565b50610605565b5f5493519184166001600160a01b031682526020820152426040820152606090a1165f55005b606490602085519162461bcd60e51b835282015260146024820152734e6f2066756e647320746f20776974686472617760601b6044820152fd5b503461018a575f36600319011261018a5751478152602090f35b503461018a57602036600319011261018a575f546001600160a01b03808216939192918035906103df3387146104d3565b6103ef60ff8660a01c1615610529565b60ff60a01b19948516600160a01b175f8190556104129060a81c60ff1615610566565b81156104905747821161045657506103345f808080857ffbc3a599b784fe88772fc5abcc07223f64ca0b13acc341f4fb1e46bef0510eb498999a5af161032e6105a7565b606490602085519162461bcd60e51b83528201526014602482015273496e73756666696369656e742062616c616e636560601b6044820152fd5b606490602085519162461bcd60e51b8352820152601d60248201527f416d6f756e74206d7573742062652067726561746572207468616e20300000006044820152fd5b156104da57565b60405162461bcd60e51b815260206004820152602160248201527f4f6e6c79206f776e65722063616e2063616c6c20746869732066756e6374696f6044820152603760f91b6064820152608490fd5b1561053057565b60405162461bcd60e51b815260206004820152600e60248201526d1499595b9d1c985b9d0818d85b1b60921b6044820152606490fd5b1561056d57565b60405162461bcd60e51b815260206004820152601260248201527110dbdb9d1c9858dd081a5cc81c185d5cd95960721b6044820152606490fd5b3d156106005767ffffffffffffffff903d8281116105ec5760405192601f8201601f19908116603f01168401908111848210176105ec5760405282523d5f602084013e565b634e487b7160e01b5f52604160045260245ffd5b606090565b1561060c57565b60405162461bcd60e51b815260206004820152600f60248201526e151c985b9cd9995c8819985a5b1959608a1b6044820152606490fd5b3461064a57565b7fb109ee7310ed99dd4798608081f858dfb1ff5dcc4cc82072cfa90a7b49543f1560408051348152426020820152a156fea26469706673582212201ae689c5815dc7011e5bd869f3413b4e3b4b263f0b5abd1318d488b5ea75af5b64736f6c63430008160033","linkReferences":{}},"methodIdentifiers":{"changeOwner(address)":"a6f9dae1","getBalance()":"12065fe0","owner()":"8da5cb5b","pause()":"8456cb59","paused()":"5c975abb","unpause()":"3f4ba83a","withdrawAmount(uint256)":"0562b9f7","withdrawFunds()":"24600fc3"},"id":8}