{"abi":[{"type":"constructor","inputs":[],"stateMutability":"nonpayable"},{"type":"function","name":"completeMigration","inputs":[],"outputs":[],"stateMutability":"nonpayable"},{"type":"function","name":"createMigrationPlan","inputs":[{"name":"fromVersion","type":"uint256","internalType":"uint256"},{"name":"toVersion","type":"uint256","internalType":"uint256"},{"name":"operations","type":"string[]","internalType":"string[]"},{"name":"isReversible","type":"bool","internalType":"bool"},{"name":"estimatedGas","type":"uint256","internalType":"uint256"}],"outputs":[],"stateMutability":"nonpayable"},{"type":"function","name":"currentMigrationVersion","inputs":[],"outputs":[{"name":"","type":"uint256","internalType":"uint256"}],"stateMutability":"view"},{"type":"function","name":"failMigration","inputs":[{"name":"reason","type":"string","internalType":"string"}],"outputs":[],"stateMutability":"nonpayable"},{"type":"function","name":"getMigrationPlan","inputs":[{"name":"version","type":"uint256","internalType":"uint256"}],"outputs":[{"name":"exists","type":"bool","internalType":"bool"},{"name":"fromVersion","type":"uint256","internalType":"uint256"},{"name":"toVersion","type":"uint256","internalType":"uint256"},{"name":"operations","type":"string[]","internalType":"string[]"},{"name":"isReversible","type":"bool","internalType":"bool"},{"name":"estimatedGas","type":"uint256","internalType":"uint256"}],"stateMutability":"view"},{"type":"function","name":"getMigrationStatus","inputs":[],"outputs":[{"name":"inProgress","type":"bool","internalType":"bool"},{"name":"currentVersion","type":"uint256","internalType":"uint256"},{"name":"targetVersion","type":"uint256","internalType":"uint256"},{"name":"estimatedGas","type":"uint256","internalType":"uint256"}],"stateMutability":"view"},{"type":"function","name":"isMigrationInProgress","inputs":[],"outputs":[{"name":"","type":"bool","internalType":"bool"}],"stateMutability":"view"},{"type":"function","name":"migrateAnalyticsData","inputs":[],"outputs":[],"stateMutability":"nonpayable"},{"type":"function","name":"migrateGameData","inputs":[{"name":"gameId","type":"uint256","internalType":"uint256"}],"outputs":[],"stateMutability":"nonpayable"},{"type":"function","name":"migrateTreasuryData","inputs":[{"name":"treasuryName","type":"string","internalType":"string"}],"outputs":[],"stateMutability":"nonpayable"},{"type":"function","name":"migrationPlans","inputs":[{"name":"","type":"uint256","internalType":"uint256"}],"outputs":[{"name":"exists","type":"bool","internalType":"bool"},{"name":"fromVersion","type":"uint256","internalType":"uint256"},{"name":"toVersion","type":"uint256","internalType":"uint256"},{"name":"isReversible","type":"bool","internalType":"bool"},{"name":"estimatedGas","type":"uint256","internalType":"uint256"}],"stateMutability":"view"},{"type":"function","name":"owner","inputs":[],"outputs":[{"name":"","type":"address","internalType":"address"}],"stateMutability":"view"},{"type":"function","name":"renounceOwnership","inputs":[],"outputs":[],"stateMutability":"nonpayable"},{"type":"function","name":"rollbackMigration","inputs":[{"name":"targetVersion","type":"uint256","internalType":"uint256"}],"outputs":[],"stateMutability":"nonpayable"},{"type":"function","name":"startMigration","inputs":[{"name":"targetVersion","type":"uint256","internalType":"uint256"}],"outputs":[],"stateMutability":"nonpayable"},{"type":"function","name":"transferOwnership","inputs":[{"name":"newOwner","type":"address","internalType":"address"}],"outputs":[],"stateMutability":"nonpayable"},{"type":"event","name":"MigrationCompleted","inputs":[{"name":"version","type":"uint256","indexed":false,"internalType":"uint256"},{"name":"recordsMigrated","type":"uint256","indexed":false,"internalType":"uint256"},{"name":"timestamp","type":"uint256","indexed":false,"internalType":"uint256"}],"anonymous":false},{"type":"event","name":"MigrationFailed","inputs":[{"name":"version","type":"uint256","indexed":false,"internalType":"uint256"},{"name":"reason","type":"string","indexed":false,"internalType":"string"},{"name":"timestamp","type":"uint256","indexed":false,"internalType":"uint256"}],"anonymous":false},{"type":"event","name":"MigrationStarted","inputs":[{"name":"fromVersion","type":"uint256","indexed":false,"internalType":"uint256"},{"name":"toVersion","type":"uint256","indexed":false,"internalType":"uint256"},{"name":"timestamp","type":"uint256","indexed":false,"internalType":"uint256"}],"anonymous":false},{"type":"event","name":"OwnershipTransferred","inputs":[{"name":"previousOwner","type":"address","indexed":true,"internalType":"address"},{"name":"newOwner","type":"address","indexed":true,"internalType":"address"}],"anonymous":false},{"type":"event","name":"RollbackCompleted","inputs":[{"name":"version","type":"uint256","indexed":false,"internalType":"uint256"},{"name":"timestamp","type":"uint256","indexed":false,"internalType":"uint256"}],"anonymous":false},{"type":"error","name":"OwnableInvalidOwner","inputs":[{"name":"owner","type":"address","internalType":"address"}]},{"type":"error","name":"OwnableUnauthorizedAccount","inputs":[{"name":"account","type":"address","internalType":"address"}]}],"bytecode":{"object":"0x60808060405234610078573315610063575f8054336001600160a01b03198216811783556040519290916001600160a01b0316907f8be0079c531659141344cd1fd0a4f28419497f9722a3daafe3b4186f6b6457e09080a36111ec908161007d8239f35b631e4fbdf760e01b81525f6004820152602490fd5b5f80fdfe604060808152600480361015610013575f80fd5b5f3560e01c806311f4eee314610e6f5780632a82669d14610d265780634886f62c14610c515780635a7499cd14610bf5578063620e457314610b5657806368bda7e114610ab9578063715018a614610a625780638c25f09314610a3d5780638da5cb5b14610a16578063a415c02c146109b0578063b50e043a146105d7578063ca595cca146105b9578063dfda1ff114610493578063e9487d54146102fc578063f2fde38b1461026c5763ffefcd21146100cb575f80fd5b34610268575f366003190112610268576100e361118b565b6100f360ff5f5460a01c16611047565b5f5b7f588251c211afc5e129362241640344aecbbb6b8c08b4906c2cd81f276a1dca1880548083101561026657610129836110b5565b60018060a01b03809254600392831b1c165f5260207f588251c211afc5e129362241640344aecbbb6b8c08b4906c2cd81f276a1dca148152875f2054159081610237575b50610185575b5050505061018090611093565b6100f5565b5f199280840190811161022457906101a06101cd93926110b5565b9054911b1c166101af856110b5565b90919060018060a01b038084549260031b9316831b921b1916179055565b81548015610211579161018093916102089301906102026101ed836110b5565b81549060018060a01b039060031b1b19169055565b55611131565b905f8080610173565b603185634e487b7160e01b5f525260245ffd5b601187634e487b7160e01b5f525260245ffd5b7f588251c211afc5e129362241640344aecbbb6b8c08b4906c2cd81f276a1dca16915052865f2054155f61016d565b005b5f80fd5b509034610268576020366003190112610268576001600160a01b038235818116939192908490036102685761029f61118b565b83156102e65750505f54826bffffffffffffffffffffffff60a01b8216175f55167f8be0079c531659141344cd1fd0a4f28419497f9722a3daafe3b4186f6b6457e05f80a3005b905f6024925191631e4fbdf760e01b8352820152fd5b5090346102685760203660031901126102685781355f526002602052805f209160ff83541691600184015492600285015491600560ff6003880195880154169601549284549161034b83610fe9565b9261035882519485610f5d565b808452602084019081975f5260205f20915f905b8282106103f1575050505080519660c088019415158852602088015286015260c060608601525180915260e084019060e08160051b86010193915f905b8282106103c6575050505082931515608084015260a08301520390f35b909192946020806103e360019360df198b82030186528951611022565b9701920192019092916103a9565b84515f85546103ff8161113d565b80845290600181169081156104705750600114610439575b506001928261042b85946020940382610f5d565b81520194019101909261036c565b5f878152602081209092505b81831061045a57505081016020016001610417565b6001816020925483868801015201920191610445565b60ff191660208581019190915291151560051b8401909101915060019050610417565b5090346102685760203660031901126102685781356104b061118b565b5f5460ff8160a01c1661057657815f52600260205260ff835f205416156105335760ff60a01b1916600160a01b175f90815560018281558282526002602090815291849020015492519283528201524260408201527f4a2509dd6221c4bb96153fc6464a918439eec9362a9f163a1d8c5861108f2768915080606081015b0390a1005b825162461bcd60e51b8152602081860152601860248201527f4d6967726174696f6e20706c616e206e6f7420666f756e6400000000000000006044820152606490fd5b825162461bcd60e51b8152602081860152601d60248201527f4d6967726174696f6e20616c726561647920696e2070726f67726573730000006044820152606490fd5b8234610268575f366003190112610268576020906001549051908152f35b50346102685760a0366003190112610268578035906024918235926044359067ffffffffffffffff90818311610268573660238401121561026857828501359261062084610fe9565b61062c89519182610f5d565b8481526020918282018460059760051b8301019136831161026857858101915b83831061098a5750505050606435958615158097036102685761066d61118b565b888110156109505781511561090e5789519960c08b018b8110878211176108fc57916106e4828d98979695948d945260a06001998a815287810194855282810195865260608101968752608081019c8d52019c8d60843590525f52600286525f209c5115158d9060ff801983541691151516179055565b518b8701555160028b0155518051936003808c01926801000000000000000087116108ea578490845488865580891061086e575b505f948552858520949691015b878710610752578d60058e61074c8f8f5115159085019060ff801983541691151516179055565b51910155005b805180519085821161085c578b928b92899261076e8a5461113d565b95601f96878111610826575b5050839582116001146107ba57849582915f926107af575b50505f1982891b1c191690841b1788555b01950196019593610725565b015190505f80610792565b94601f198216908a5f52845f20915f5b81811061080457509086978488959493106107ed575b505050811b0188556107a3565b01515f19838b1b60f8161c191690555f80806107e0565b9497939686929691938786015181550195019301928b94918f969397946107ca565b61084c918c5f52865f209089808701821c830193898810610853575b01901c0190611175565b8e5f61077a565b93508293610842565b8360418f634e487b7160e01b5f52525ffd5b855f528989845f2092830192015b82811061088a575050610718565b90919293508b61089a825461113d565b806108ad575b505001908987939261087c565b601f8082116001146108c7575050505f81555b8b5f6108a0565b5f926108e1918585528c85209301901c8201858301611175565b818355556108c0565b8560418c634e487b7160e01b5f52525ffd5b8560418b634e487b7160e01b5f52525ffd5b895162461bcd60e51b81528089018490526017818601527f4e6f206f7065726174696f6e73207370656369666965640000000000000000006044820152606490fd5b895162461bcd60e51b81528089018490526015818601527424b73b30b634b2103b32b939b4b7b71037b93232b960591b6044820152606490fd5b82358881116102685786916109a583928a3691870101610f93565b81520192019161064c565b8234610268575f3660031901126102685760809060ff5f5460a01c169060015490825f14610a0f5781905b8315610a0857825f5260026020526005815f200154925b8151941515855260208501528301526060820152f35b5f926109f2565b5f906109db565b8234610268575f366003190112610268575f5490516001600160a01b039091168152602090f35b8234610268575f3660031901126102685760209060ff5f5460a01c1690519015158152f35b34610268575f36600319011261026857610a7a61118b565b5f80546001600160a01b0319811682556001600160a01b03167f8be0079c531659141344cd1fd0a4f28419497f9722a3daafe3b4186f6b6457e08280a3005b5090346102685760203660031901126102685781359067ffffffffffffffff8211610268576020610af1610b1a948294369101610f93565b91610afa61118b565b610b0a60ff5f5460a01c16611047565b5193828580945193849201611001565b81017ff7a9062d04ea8d0705dde5e1a327b309bcebc1d15f53388d8da603a362b43cda81520301902060018154910180548210610b5357005b55005b50903461026857602036600319011261026857813567ffffffffffffffff8111610268577f1e5deb5c7ab9e7cfbd1ecc8f964b9b9f66aee5269cdec60d8cbdce5ee949dd6d92610ba891369101610f93565b90610bb161118b565b5f54610bc260ff8260a01c16611047565b60ff60a01b19165f5560015490610bea81519384938452606060208501526060840190611022565b9042908301520390a1005b50346102685760203660031901126102685760a09181355f526002602052805f2060ff81541692600182015492600560ff6002850154938501541693015493815195151586526020860152840152151560608301526080820152f35b509034610268575f36600319011261026857610c6b61118b565b5f54610c7c60ff8260a01c16611047565b7f54a93883e668f845121f9ed2904459121a66c9b3035aae515f9eb649cbd75b2354907f588251c211afc5e129362241640344aecbbb6b8c08b4906c2cd81f276a1dca18548201809211610d135760ff60a01b19165f55600154915191825260208201524260408201527fcdf3dbcff779ee82c69de3a32c6ddbf910d87b5c1f6eb262f78c1f49fb0aa9209150806060810161052e565b601184634e487b7160e01b5f525260245ffd5b50903461026857602036600319011261026857610d4161118b565b610d5160ff5f5460a01c16611047565b81355f527f54a93883e668f845121f9ed2904459121a66c9b3035aae515f9eb649cbd75b1c6020525f2090600782019182549060ff8216936003926003861015610e5c57600593949515610e4c575b505001905f5b82548082101561026657610dba828561111c565b90546001600160a01b0391851b1c811615610de0575b5050610ddb90611093565b610da6565b5f19918083019081116102245790610dfb610e0c928761111c565b905490861b1c166101af848761111c565b83548015610e395791610e3291610ddb9301610e2b6101ed828861111c565b8555611131565b905f610dd0565b603186634e487b7160e01b5f525260245ffd5b60ff191660011790555f80610da0565b602185634e487b7160e01b5f525260245ffd5b509034610268576020366003190112610268578135610e8c61118b565b60ff5f5460a01c16610f2257805f52600260205260ff83835f2001541615610edf577fd8b3253f6d09eb14ef2e16026abb411617e176d52227d7fa500e734bbefd035c92508151908152426020820152a1005b815162461bcd60e51b8152602081850152601860248201527f4d6967726174696f6e206e6f742072657665727369626c6500000000000000006044820152606490fd5b815162461bcd60e51b815260208185015260156024820152744d6967726174696f6e20696e2070726f677265737360581b6044820152606490fd5b90601f8019910116810190811067ffffffffffffffff821117610f7f57604052565b634e487b7160e01b5f52604160045260245ffd5b81601f820112156102685780359067ffffffffffffffff8211610f7f5760405192610fc8601f8401601f191660200185610f5d565b8284526020838301011161026857815f926020809301838601378301015290565b67ffffffffffffffff8111610f7f5760051b60200190565b5f5b8381106110125750505f910152565b8181015183820152602001611003565b9060209161103b81518092818552858086019101611001565b601f01601f1916010190565b1561104e57565b60405162461bcd60e51b815260206004820152601860248201527f4e6f206d6967726174696f6e20696e2070726f677265737300000000000000006044820152606490fd5b5f1981146110a15760010190565b634e487b7160e01b5f52601160045260245ffd5b7f588251c211afc5e129362241640344aecbbb6b8c08b4906c2cd81f276a1dca188054821015611108575f527fd966807309eee0142cd88bdbda1174c4aac3e7839836028da1920b00e7ac083d01905f90565b634e487b7160e01b5f52603260045260245ffd5b8054821015611108575f5260205f2001905f90565b80156110a1575f190190565b90600182811c9216801561116b575b602083101461115757565b634e487b7160e01b5f52602260045260245ffd5b91607f169161114c565b818110611180575050565b5f8155600101611175565b5f546001600160a01b0316330361119e57565b60405163118cdaa760e01b8152336004820152602490fdfea2646970667358221220d4d80f32fb25e5aa2ba1be9c45da1c81e774c8b2bcdf8b38c45285dd06ce10ea64736f6c63430008160033","linkReferences":{}},"methodIdentifiers":{"completeMigration()":"4886f62c","createMigrationPlan(uint256,uint256,string[],bool,uint256)":"b50e043a","currentMigrationVersion()":"ca595cca","failMigration(string)":"620e4573","getMigrationPlan(uint256)":"e9487d54","getMigrationStatus()":"a415c02c","isMigrationInProgress()":"8c25f093","migrateAnalyticsData()":"ffefcd21","migrateGameData(uint256)":"2a82669d","migrateTreasuryData(string)":"68bda7e1","migrationPlans(uint256)":"5a7499cd","owner()":"8da5cb5b","renounceOwnership()":"715018a6","rollbackMigration(uint256)":"11f4eee3","startMigration(uint256)":"dfda1ff1","transferOwnership(address)":"f2fde38b"},"id":22}