{"abi":[{"type":"constructor","inputs":[],"stateMutability":"nonpayable"},{"type":"function","name":"getMigrationContract","inputs":[{"name":"migrationNumber","type":"uint256","internalType":"uint256"}],"outputs":[{"name":"","type":"address","internalType":"address"}],"stateMutability":"view"},{"type":"function","name":"getMigrationStats","inputs":[],"outputs":[{"name":"lastCompleted","type":"uint256","internalType":"uint256"},{"name":"totalMigrations","type":"uint256","internalType":"uint256"},{"name":"hasActiveMigration","type":"bool","internalType":"bool"}],"stateMutability":"view"},{"type":"function","name":"isMigrationContract","inputs":[{"name":"","type":"address","internalType":"address"}],"outputs":[{"name":"","type":"bool","internalType":"bool"}],"stateMutability":"view"},{"type":"function","name":"isMigrationContractAddress","inputs":[{"name":"contractAddress","type":"address","internalType":"address"}],"outputs":[{"name":"","type":"bool","internalType":"bool"}],"stateMutability":"view"},{"type":"function","name":"lastCompletedMigration","inputs":[],"outputs":[{"name":"","type":"uint256","internalType":"uint256"}],"stateMutability":"view"},{"type":"function","name":"migrationContracts","inputs":[{"name":"","type":"uint256","internalType":"uint256"}],"outputs":[{"name":"","type":"address","internalType":"address"}],"stateMutability":"view"},{"type":"function","name":"owner","inputs":[],"outputs":[{"name":"","type":"address","internalType":"address"}],"stateMutability":"view"},{"type":"function","name":"renounceOwnership","inputs":[],"outputs":[],"stateMutability":"nonpayable"},{"type":"function","name":"setCompleted","inputs":[{"name":"completed","type":"uint256","internalType":"uint256"}],"outputs":[],"stateMutability":"nonpayable"},{"type":"function","name":"transferOwnership","inputs":[{"name":"newOwner","type":"address","internalType":"address"}],"outputs":[],"stateMutability":"nonpayable"},{"type":"function","name":"upgrade","inputs":[{"name":"newAddress","type":"address","internalType":"address"}],"outputs":[],"stateMutability":"nonpayable"},{"type":"event","name":"MigrationCompleted","inputs":[{"name":"migrationNumber","type":"uint256","indexed":true,"internalType":"uint256"},{"name":"contractAddress","type":"address","indexed":true,"internalType":"address"},{"name":"timestamp","type":"uint256","indexed":true,"internalType":"uint256"}],"anonymous":false},{"type":"event","name":"MigrationContractRegistered","inputs":[{"name":"contractAddress","type":"address","indexed":true,"internalType":"address"},{"name":"migrationNumber","type":"uint256","indexed":true,"internalType":"uint256"},{"name":"timestamp","type":"uint256","indexed":true,"internalType":"uint256"}],"anonymous":false},{"type":"event","name":"OwnershipTransferred","inputs":[{"name":"previousOwner","type":"address","indexed":true,"internalType":"address"},{"name":"newOwner","type":"address","indexed":true,"internalType":"address"}],"anonymous":false},{"type":"error","name":"ContractAlreadyRegistered","inputs":[]},{"type":"error","name":"InvalidContractAddress","inputs":[]},{"type":"error","name":"InvalidMigrationNumber","inputs":[]},{"type":"error","name":"NotAuthorized","inputs":[]},{"type":"error","name":"OwnableInvalidOwner","inputs":[{"name":"owner","type":"address","internalType":"address"}]},{"type":"error","name":"OwnableUnauthorizedAccount","inputs":[{"name":"account","type":"address","internalType":"address"}]}],"bytecode":{"object":"0x608060405234801561000f575f80fd5b50338061003557604051631e4fbdf760e01b81525f600482015260240160405180910390fd5b61003e81610048565b505f600155610097565b5f80546001600160a01b038381166001600160a01b0319831681178455604051919092169283917f8be0079c531659141344cd1fd0a4f28419497f9722a3daafe3b4186f6b6457e09190a35050565b610566806100a45f395ff3fe608060405234801561000f575f80fd5b50600436106100a6575f3560e01c8063902a101a1161006e578063902a101a1461015757806396b2aa6714610179578063d1d7422a146101a1578063f2fde38b146101c1578063fbdbad3c146101d4578063fdacd576146101eb575f80fd5b80630900f010146100aa5780632eec9855146100bf5780634e027c55146100ff578063715018a61461013f5780638da5cb5b14610147575b5f80fd5b6100bd6100b83660046104c7565b6101fe565b005b6100ea6100cd3660046104c7565b6001600160a01b03165f9081526003602052604090205460ff1690565b60405190151581526020015b60405180910390f35b61012761010d3660046104f4565b60026020525f90815260409020546001600160a01b031681565b6040516001600160a01b0390911681526020016100f6565b6100bd61036a565b5f546001600160a01b0316610127565b6100ea6101653660046104c7565b60036020525f908152604090205460ff1681565b6101276101873660046104f4565b5f908152600260205260409020546001600160a01b031690565b6001546040805182815260208101839052911515908201526060016100f6565b6100bd6101cf3660046104c7565b61037d565b6101dd60015481565b6040519081526020016100f6565b6100bd6101f93660046104f4565b6103bf565b5f546001600160a01b031633146102285760405163ea8e4eb560e01b815260040160405180910390fd5b6001600160a01b03811661024f5760405163a710429d60e01b815260040160405180910390fd5b6001600160a01b0381165f9081526003602052604090205460ff1615610288576040516370bc3e8560e01b815260040160405180910390fd5b600154604051637ed66abb60e11b815282916001600160a01b0383169163fdacd576916102bb9160040190815260200190565b5f604051808303815f87803b1580156102d2575f80fd5b505af11580156102e4573d5f803e3d5ffd5b505050505f60015460016102f8919061050b565b5f81815260026020908152604080832080546001600160a01b0319166001600160a01b0389169081179091558084526003909252808320805460ff1916600117905551929350429284927fd75c530c076adf41c4c2dbf0e6559a946b365fc069956d244387c6b18a46d3e391a4505050565b61037261044c565b61037b5f610478565b565b61038561044c565b6001600160a01b0381166103b357604051631e4fbdf760e01b81525f60048201526024015b60405180910390fd5b6103bc81610478565b50565b5f546001600160a01b031633146103e95760405163ea8e4eb560e01b815260040160405180910390fd5b600180546103f69161050b565b81101561041657604051634ecc058760e01b815260040160405180910390fd5b600181905560405142905f9083907f584a8cf4978b9dcf77b720addce50ee1d2b0d5f28b04fab25477b94381c76792908390a450565b5f546001600160a01b0316331461037b5760405163118cdaa760e01b81523360048201526024016103aa565b5f80546001600160a01b038381166001600160a01b0319831681178455604051919092169283917f8be0079c531659141344cd1fd0a4f28419497f9722a3daafe3b4186f6b6457e09190a35050565b5f602082840312156104d7575f80fd5b81356001600160a01b03811681146104ed575f80fd5b9392505050565b5f60208284031215610504575f80fd5b5035919050565b8082018082111561052a57634e487b7160e01b5f52601160045260245ffd5b9291505056fea2646970667358221220c10cb4cdf0bfed14e84993f82f2e5018a0454f5c921f24447cb14d9af393406f64736f6c63430008160033","linkReferences":{}},"methodIdentifiers":{"getMigrationContract(uint256)":"96b2aa67","getMigrationStats()":"d1d7422a","isMigrationContract(address)":"902a101a","isMigrationContractAddress(address)":"2eec9855","lastCompletedMigration()":"fbdbad3c","migrationContracts(uint256)":"4e027c55","owner()":"8da5cb5b","renounceOwnership()":"715018a6","setCompleted(uint256)":"fdacd576","transferOwnership(address)":"f2fde38b","upgrade(address)":"0900f010"},"storageLayout":{"storage":[{"astId":63803,"contract":"contracts/deployment/Migrations.sol:Migrations","label":"_owner","offset":0,"slot":"0","type":"t_address"},{"astId":17,"contract":"contracts/deployment/Migrations.sol:Migrations","label":"lastCompletedMigration","offset":0,"slot":"1","type":"t_uint256"},{"astId":22,"contract":"contracts/deployment/Migrations.sol:Migrations","label":"migrationContracts","offset":0,"slot":"2","type":"t_mapping(t_uint256,t_address)"},{"astId":27,"contract":"contracts/deployment/Migrations.sol:Migrations","label":"isMigrationContract","offset":0,"slot":"3","type":"t_mapping(t_address,t_bool)"}],"types":{"t_address":{"encoding":"inplace","label":"address","numberOfBytes":"20"},"t_bool":{"encoding":"inplace","label":"bool","numberOfBytes":"1"},"t_mapping(t_address,t_bool)":{"encoding":"mapping","key":"t_address","label":"mapping(address => bool)","numberOfBytes":"32","value":"t_bool"},"t_mapping(t_uint256,t_address)":{"encoding":"mapping","key":"t_uint256","label":"mapping(uint256 => address)","numberOfBytes":"32","value":"t_address"},"t_uint256":{"encoding":"inplace","label":"uint256","numberOfBytes":"32"}}},"id":0}