{"abi":[{"type":"constructor","inputs":[],"stateMutability":"nonpayable"},{"type":"function","name":"allContracts","inputs":[{"name":"","type":"uint256","internalType":"uint256"}],"outputs":[{"name":"","type":"address","internalType":"address"}],"stateMutability":"view"},{"type":"function","name":"emergencyPause","inputs":[],"outputs":[],"stateMutability":"nonpayable"},{"type":"function","name":"emergencyPaused","inputs":[],"outputs":[{"name":"","type":"bool","internalType":"bool"}],"stateMutability":"view"},{"type":"function","name":"emergencyResume","inputs":[],"outputs":[],"stateMutability":"nonpayable"},{"type":"function","name":"getAllContracts","inputs":[],"outputs":[{"name":"","type":"address[]","internalType":"address[]"}],"stateMutability":"view"},{"type":"function","name":"initialize","inputs":[{"name":"owner","type":"address","internalType":"address"}],"outputs":[],"stateMutability":"nonpayable"},{"type":"function","name":"isEmergencyPaused","inputs":[],"outputs":[{"name":"","type":"bool","internalType":"bool"}],"stateMutability":"view"},{"type":"function","name":"owner","inputs":[],"outputs":[{"name":"","type":"address","internalType":"address"}],"stateMutability":"view"},{"type":"function","name":"registerContract","inputs":[{"name":"contractAddress","type":"address","internalType":"address"}],"outputs":[],"stateMutability":"nonpayable"},{"type":"function","name":"registeredContracts","inputs":[{"name":"","type":"address","internalType":"address"}],"outputs":[{"name":"","type":"bool","internalType":"bool"}],"stateMutability":"view"},{"type":"function","name":"renounceOwnership","inputs":[],"outputs":[],"stateMutability":"nonpayable"},{"type":"function","name":"transferOwnership","inputs":[{"name":"newOwner","type":"address","internalType":"address"}],"outputs":[],"stateMutability":"nonpayable"},{"type":"function","name":"unregisterContract","inputs":[{"name":"contractAddress","type":"address","internalType":"address"}],"outputs":[],"stateMutability":"nonpayable"},{"type":"event","name":"ContractRegistered","inputs":[{"name":"contractAddress","type":"address","indexed":true,"internalType":"address"},{"name":"timestamp","type":"uint256","indexed":false,"internalType":"uint256"}],"anonymous":false},{"type":"event","name":"ContractUnregistered","inputs":[{"name":"contractAddress","type":"address","indexed":true,"internalType":"address"},{"name":"timestamp","type":"uint256","indexed":false,"internalType":"uint256"}],"anonymous":false},{"type":"event","name":"EmergencyPaused","inputs":[{"name":"by","type":"address","indexed":true,"internalType":"address"},{"name":"timestamp","type":"uint256","indexed":false,"internalType":"uint256"}],"anonymous":false},{"type":"event","name":"EmergencyResumed","inputs":[{"name":"by","type":"address","indexed":true,"internalType":"address"},{"name":"timestamp","type":"uint256","indexed":false,"internalType":"uint256"}],"anonymous":false},{"type":"event","name":"Initialized","inputs":[{"name":"version","type":"uint64","indexed":false,"internalType":"uint64"}],"anonymous":false},{"type":"event","name":"OwnershipTransferred","inputs":[{"name":"previousOwner","type":"address","indexed":true,"internalType":"address"},{"name":"newOwner","type":"address","indexed":true,"internalType":"address"}],"anonymous":false},{"type":"error","name":"InvalidInitialization","inputs":[]},{"type":"error","name":"NotInitializing","inputs":[]},{"type":"error","name":"OwnableInvalidOwner","inputs":[{"name":"owner","type":"address","internalType":"address"}]},{"type":"error","name":"OwnableUnauthorizedAccount","inputs":[{"name":"account","type":"address","internalType":"address"}]}],"bytecode":{"object":"0x608080604052346100b8577ff0c57e16840df040f15088dc2f81fe391c3923bec73e23a9662efc9c229c6a009081549060ff8260401c166100a957506001600160401b036002600160401b031982821601610064575b60405161087d90816100bd8239f35b6001600160401b031990911681179091556040519081527fc7f505b2f371ae2175ee4913f4499e1f2633a7b5936321eed1cdaeb6115181d290602090a15f8080610055565b63f92ee8a960e01b8152600490fd5b5f80fdfe6080604081815260049182361015610015575f80fd5b5f3560e01c90816318d3ce961461061b5750806322a5dde4146104c257806327c830a9146104a0578063290d10c4146104a057806351858e2714610450578063715018a6146103e95780638da5cb5b146103b557806393c87f0314610368578063a06617cd14610328578063c4d66de8146101ea578063e54e26b9146101aa578063f2fde38b146101745763fac2c621146100ae575f80fd5b346101705760203660031901126101705781356001600160a01b0381169290839003610170576100dc6107ae565b825f52600160205260ff825f2054161561012e575060207ff81795170e73e8e66918dc4d29bab37e0003bf5de37763a66c401d20486c46e691835f5260018252805f2060ff19815416905551428152a2005b6020606492519162461bcd60e51b8352820152601760248201527f436f6e7472616374206e6f7420726567697374657265640000000000000000006044820152fd5b5f80fd5b823461017057602036600319011261017057356001600160a01b0381168103610170576101a8906101a36107ae565b61073d565b005b509034610170576020366003190112610170573590600254821015610170576101d46020926106f4565b905491519160018060a01b039160031b1c168152f35b509034610170576020366003190112610170578035906001600160a01b0382168203610170577ff0c57e16840df040f15088dc2f81fe391c3923bec73e23a9662efc9c229c6a0091825460ff81861c16159267ffffffffffffffff821680159081610320575b6001149081610316575b15908161030d575b506102ff575067ffffffffffffffff19811660011784556102959190836102e0575b5061028d6107e6565b6101a36107e6565b60ff195f54165f556102a357005b805468ff00000000000000001916905551600181527fc7f505b2f371ae2175ee4913f4499e1f2633a7b5936321eed1cdaeb6115181d290602090a1005b68ffffffffffffffffff1916680100000000000000011784555f610284565b855163f92ee8a960e01b8152fd5b9050155f610262565b303b15915061025a565b859150610250565b50903461017057602036600319011261017057356001600160a01b0381169190829003610170576020915f526001825260ff815f20541690519015158152f35b5034610170575f366003190112610170576103816107ae565b60ff195f54165f55514281527fe0dc8967738d1ca725802874d41e2ab2405df0e2eb3c61069d26d2782660d59460203392a2005b5034610170575f366003190112610170575f805160206108288339815191525490516001600160a01b039091168152602090f35b34610170575f366003190112610170576104016107ae565b5f8051602061082883398151915280546001600160a01b031981169091555f906001600160a01b03167f8be0079c531659141344cd1fd0a4f28419497f9722a3daafe3b4186f6b6457e08280a3005b5034610170575f366003190112610170576104696107ae565b600160ff195f5416175f55514281527f2e31b3b12b9bb0e82c32f27df5f234fabc95a374f54fd287a7132878d5dc9fc360203392a2005b5034610170575f3660031901126101705760209060ff5f541690519015158152f35b5034610170576020806003193601126101705782356001600160a01b038181169391849003610170576104f36107ae565b83156105d857835f526001835260ff825f20541661059557835f5260018352815f20600160ff19825416179055600254946801000000000000000086101561058257506105688560017f41af697536e017085ac02cc37449b0a4b25d3e5bcd47eeb25b57a23d69c7eeec9697016002556106f4565b819291549060031b9187831b921b191617905551428152a2005b604190634e487b7160e01b5f525260245ffd5b815162461bcd60e51b8152808601849052601b60248201527f436f6e747261637420616c7265616479207265676973746572656400000000006044820152606490fd5b815162461bcd60e51b8152808601849052601860248201527f496e76616c696420636f6e7472616374206164647265737300000000000000006044820152606490fd5b905034610170575f3660031901126101705760025491828252602090818301809460025f527f405787fa12a823e0f2b7631cc41b3ba8828b3321ca811111fa75cd3aa3bb5ace905f5b858282106106d75750505050839003601f01601f191683019467ffffffffffffffff86118487101761058257508481528185529151818501819052849392840192915f5b8281106106b757505050500390f35b83516001600160a01b0316855286955093810193928101926001016106a8565b83546001600160a01b031685529093019260019283019201610664565b6002548110156107295760025f527f405787fa12a823e0f2b7631cc41b3ba8828b3321ca811111fa75cd3aa3bb5ace01905f90565b634e487b7160e01b5f52603260045260245ffd5b6001600160a01b03908116908115610796575f8051602061082883398151915280546001600160a01b031981168417909155167f8be0079c531659141344cd1fd0a4f28419497f9722a3daafe3b4186f6b6457e05f80a3565b604051631e4fbdf760e01b81525f6004820152602490fd5b5f80516020610828833981519152546001600160a01b031633036107ce57565b60405163118cdaa760e01b8152336004820152602490fd5b60ff7ff0c57e16840df040f15088dc2f81fe391c3923bec73e23a9662efc9c229c6a005460401c161561081557565b604051631afcd79f60e31b8152600490fdfe9016d09d72d40fdae2fd8ceac6b6234c7706214fd39c1cd1e609a0528c199300a26469706673582212203dd4f633eee93dd07558bf1cda1f6c17d2c8b41c3f8d78c0e8f88dc26c3c1b6364736f6c63430008160033","linkReferences":{}},"methodIdentifiers":{"allContracts(uint256)":"e54e26b9","emergencyPause()":"51858e27","emergencyPaused()":"27c830a9","emergencyResume()":"93c87f03","getAllContracts()":"18d3ce96","initialize(address)":"c4d66de8","isEmergencyPaused()":"290d10c4","owner()":"8da5cb5b","registerContract(address)":"22a5dde4","registeredContracts(address)":"a06617cd","renounceOwnership()":"715018a6","transferOwnership(address)":"f2fde38b","unregisterContract(address)":"fac2c621"},"id":37}