{"abi":[{"type":"constructor","inputs":[],"stateMutability":"nonpayable"},{"type":"function","name":"contractAddresses","inputs":[{"name":"","type":"string","internalType":"string"}],"outputs":[{"name":"","type":"address","internalType":"address"}],"stateMutability":"view"},{"type":"function","name":"gameConfigs","inputs":[{"name":"","type":"uint8","internalType":"uint8"}],"outputs":[{"name":"ticketPrice","type":"uint256","internalType":"uint256"},{"name":"gameDuration","type":"uint256","internalType":"uint256"},{"name":"fee","type":"uint8","internalType":"uint8"},{"name":"maxTicketsPerPlayer","type":"uint256","internalType":"uint256"},{"name":"isActive","type":"bool","internalType":"bool"}],"stateMutability":"view"},{"type":"function","name":"getContractAddress","inputs":[{"name":"contractName","type":"string","internalType":"string"}],"outputs":[{"name":"","type":"address","internalType":"address"}],"stateMutability":"view"},{"type":"function","name":"getGameConfig","inputs":[{"name":"gameType","type":"uint8","internalType":"uint8"}],"outputs":[{"name":"","type":"tuple","internalType":"struct ConfigManager.GameConfig","components":[{"name":"ticketPrice","type":"uint256","internalType":"uint256"},{"name":"gameDuration","type":"uint256","internalType":"uint256"},{"name":"fee","type":"uint8","internalType":"uint8"},{"name":"maxTicketsPerPlayer","type":"uint256","internalType":"uint256"},{"name":"isActive","type":"bool","internalType":"bool"}]}],"stateMutability":"view"},{"type":"function","name":"getSystemParam","inputs":[{"name":"param","type":"string","internalType":"string"}],"outputs":[{"name":"","type":"uint256","internalType":"uint256"}],"stateMutability":"view"},{"type":"function","name":"initialize","inputs":[{"name":"owner","type":"address","internalType":"address"}],"outputs":[],"stateMutability":"nonpayable"},{"type":"function","name":"owner","inputs":[],"outputs":[{"name":"","type":"address","internalType":"address"}],"stateMutability":"view"},{"type":"function","name":"renounceOwnership","inputs":[],"outputs":[],"stateMutability":"nonpayable"},{"type":"function","name":"setGameActive","inputs":[{"name":"gameType","type":"uint8","internalType":"uint8"},{"name":"isActive","type":"bool","internalType":"bool"}],"outputs":[],"stateMutability":"nonpayable"},{"type":"function","name":"systemParams","inputs":[{"name":"","type":"string","internalType":"string"}],"outputs":[{"name":"","type":"uint256","internalType":"uint256"}],"stateMutability":"view"},{"type":"function","name":"transferOwnership","inputs":[{"name":"newOwner","type":"address","internalType":"address"}],"outputs":[],"stateMutability":"nonpayable"},{"type":"function","name":"updateContractAddress","inputs":[{"name":"contractName","type":"string","internalType":"string"},{"name":"newAddress","type":"address","internalType":"address"}],"outputs":[],"stateMutability":"nonpayable"},{"type":"function","name":"updateGameConfig","inputs":[{"name":"gameType","type":"uint8","internalType":"uint8"},{"name":"ticketPrice","type":"uint256","internalType":"uint256"},{"name":"gameDuration","type":"uint256","internalType":"uint256"},{"name":"fee","type":"uint8","internalType":"uint8"},{"name":"maxTicketsPerPlayer","type":"uint256","internalType":"uint256"}],"outputs":[],"stateMutability":"nonpayable"},{"type":"function","name":"updateSystemParam","inputs":[{"name":"param","type":"string","internalType":"string"},{"name":"value","type":"uint256","internalType":"uint256"}],"outputs":[],"stateMutability":"nonpayable"},{"type":"event","name":"ContractAddressUpdated","inputs":[{"name":"contractName","type":"string","indexed":false,"internalType":"string"},{"name":"oldAddress","type":"address","indexed":false,"internalType":"address"},{"name":"newAddress","type":"address","indexed":false,"internalType":"address"}],"anonymous":false},{"type":"event","name":"GameConfigUpdated","inputs":[{"name":"gameType","type":"uint8","indexed":false,"internalType":"uint8"},{"name":"ticketPrice","type":"uint256","indexed":false,"internalType":"uint256"},{"name":"gameDuration","type":"uint256","indexed":false,"internalType":"uint256"},{"name":"fee","type":"uint8","indexed":false,"internalType":"uint8"},{"name":"maxTickets","type":"uint256","indexed":false,"internalType":"uint256"}],"anonymous":false},{"type":"event","name":"Initialized","inputs":[{"name":"version","type":"uint64","indexed":false,"internalType":"uint64"}],"anonymous":false},{"type":"event","name":"OwnershipTransferred","inputs":[{"name":"previousOwner","type":"address","indexed":true,"internalType":"address"},{"name":"newOwner","type":"address","indexed":true,"internalType":"address"}],"anonymous":false},{"type":"event","name":"SystemParamUpdated","inputs":[{"name":"param","type":"string","indexed":false,"internalType":"string"},{"name":"oldValue","type":"uint256","indexed":false,"internalType":"uint256"},{"name":"newValue","type":"uint256","indexed":false,"internalType":"uint256"}],"anonymous":false},{"type":"error","name":"InvalidInitialization","inputs":[]},{"type":"error","name":"NotInitializing","inputs":[]},{"type":"error","name":"OwnableInvalidOwner","inputs":[{"name":"owner","type":"address","internalType":"address"}]},{"type":"error","name":"OwnableUnauthorizedAccount","inputs":[{"name":"account","type":"address","internalType":"address"}]}],"bytecode":{"object":"0x608080604052346100b8577ff0c57e16840df040f15088dc2f81fe391c3923bec73e23a9662efc9c229c6a009081549060ff8260401c166100a957506001600160401b036002600160401b031982821601610064575b604051610da290816100bd8239f35b6001600160401b031990911681179091556040519081527fc7f505b2f371ae2175ee4913f4499e1f2633a7b5936321eed1cdaeb6115181d290602090a15f8080610055565b63f92ee8a960e01b8152600490fd5b5f80fdfe604060808152600480361015610013575f80fd5b5f3560e01c91826304433bbc1461014057826338aed2f714610a3257826342479133146109d15782636c79a2521461090c578263715018a6146108a5578263791c1dcd146107f557826379b9d40a146104e15782638da5cb5b146104ae578263ba8b2dae1461045f578263c4d66de8146101a5578263e697308e146100e7578263ee67cc2a14610140578263f1116cca146100e757505063f2fde38b146100b8575f80fd5b346100e35760203660031901126100e3576100e16100d4610bf6565b6100dc610cd3565b610c62565b005b5f80fd5b346100e35760203660031901126100e357813567ffffffffffffffff81116100e357602061011c819461012e93369101610b94565b81845193828580945193849201610c1c565b81016001815203019020549051908152f35b346100e35760203660031901126100e357813567ffffffffffffffff81116100e35760209261017191369101610b94565b8261018483519283815193849201610c1c565b6002908201908152819003830190205490516001600160a01b039091168152f35b90346100e357602090816003193601126100e3576101c1610bf6565b927ff0c57e16840df040f15088dc2f81fe391c3923bec73e23a9662efc9c229c6a009384549260ff84841c16159167ffffffffffffffff851694851580610458575b6001809714908161044e575b159081610445575b506104355767ffffffffffffffff1981168617885561033d929161024c9185610416575b50610244610d0b565b6100dc610d0b565b610254610b60565b9066470de4df82000082526102c8878301926201518084528287820194600a8652606083016064815260808401918b8352835f525f8d528a5f2094518555518b85015560ff600285019751169660ff19978882541617905551600384015551151591019060ff801983541691151516179055565b6102d0610b60565b91670de0b6b3a764000083528783019062093a808252868401600a815260608501916032835260808601938a855260055f525f8c52895f2096518755518a87015560ff600287019251169082541617905551600384015551151591019060ff801983541691151516179055565b662386f26fc10000602e83516d6d696e5469636b6574507269636560901b815285600e8201522055678ac7230489e80000602e83516d6d61785469636b6574507269636560901b815285600e8201522055610e10602f83516e36b4b723b0b6b2a23ab930ba34b7b760891b815285600f820152205562278d00602f83516e36b0bc23b0b6b2a23ab930ba34b7b760891b815285600f82015220556103dd57005b7fc7f505b2f371ae2175ee4913f4499e1f2633a7b5936321eed1cdaeb6115181d29368ff000000000000000019815416905551908152a1005b68ffffffffffffffffff1916680100000000000000011789558961023b565b845163f92ee8a960e01b81528390fd5b90501589610217565b303b15915061020f565b5083610203565b346100e357806003193601126100e357610477610c0c565b916024359182151583036100e35760ff6100e194610493610cd3565b165f525f6020525f20019060ff801983541691151516179055565b346100e3575f3660031901126100e3575f80516020610d4d8339815191525490516001600160a01b039091168152602090f35b90346100e35760a03660031901126100e3576104fb610c0c565b91602492833591604492833592606480359560ff87168097036100e35760843598610524610cd3565b602e86516d6d696e5469636b6574507269636560901b81526001600e820152205485106107bf57602e86516d6d61785469636b6574507269636560901b81526001600e8201522054851161078857602f86516e36b4b723b0b6b2a23ab930ba34b7b760891b81526001600f8201522054871061074957602f86516e36b0bc23b0b6b2a23ab930ba34b7b760891b81526001600f8201522054871161071157601488116106e3578915610698577f472540d227604dccc13d495ee0bfb40bd16149c10bd46107b6c2a1f0d5ed773460a08a8c8b8b8b8b61067e60ff8d1696875f525f60205260ff81855f200154169061061a610b60565b918483526020830187815286840189815260608501918b83526080860193151584528c5f525f602052885f209551865551600186015560ff6002860191511660ff1982541617905551600384015551151591019060ff801983541691151516179055565b8151958652602086015284015260608301526080820152a1005b6084927f4d6178207469636b657473206d7573742062652067726561746572207468616e8a93602261020360f41b9460208b519762461bcd60e51b8952880152860152840152820152fd5b8891600c6b08ccaca40e8dede40d0d2ced60a31b92602089519562461bcd60e51b8752860152840152820152fd5b889160167547616d65206475726174696f6e20746f6f206c6f6e6760501b92602089519562461bcd60e51b8752860152840152820152fd5b889160177f47616d65206475726174696f6e20746f6f2073686f727400000000000000000092602089519562461bcd60e51b8752860152840152820152fd5b88916015740a8d2c6d6cae840e0e4d2c6ca40e8dede40d0d2ced605b1b92602089519562461bcd60e51b8752860152840152820152fd5b88916014735469636b657420707269636520746f6f206c6f7760601b92602089519562461bcd60e51b8752860152840152820152fd5b90346100e35760203660031901126100e35760a09160ff610814610c0c565b5f608061081f610b60565b82815282602082015282868201528260608201520152165f525f602052805f20610847610b60565b9160ff825494858552600184015460208601908152608083806002880154169386890194855260038801549760608a019889520154169601951515865283519687525160208701525116908401525160608301525115156080820152f35b346100e3575f3660031901126100e3576108bd610cd3565b5f80516020610d4d83398151915280546001600160a01b031981169091555f906001600160a01b03167f8be0079c531659141344cd1fd0a4f28419497f9722a3daafe3b4186f6b6457e08280a3005b90346100e357816003193601126100e35780359167ffffffffffffffff83116100e3576109606109c3927fffcd48d4ea4c63155714a7b8b61fe13d783d9f2bfe93527b264052cc9dcf639494369101610b94565b9060243561096c610cd3565b815191816109a560208651958181818a019861098981838c610c1c565b8101600181520301902054958451809381928a51928391610c1c565b81016001815203019020558051948594606086526060860190610c3d565b9260208501528301520390a1005b90346100e35760203660031901126100e35760a09160ff6109f0610c0c565b165f525f602052805f2080549260018201549260ff80600285015416926003850154940154169381519586526020860152840152606083015215156080820152f35b90346100e357816003193601126100e357803567ffffffffffffffff81116100e357610a619036908301610b94565b906001600160a01b039060243582811691908290036100e357610a82610cd3565b8115610b1d577fa90fb318cef160851f542872dfce25dadafdfde152ba8cc05e3f0b882842e53c6109c385858589610ae960208251948651958281818a0198610acc81838c610c1c565b810160028152030190205416948351809381928951928391610c1c565b81016002815203019020826bffffffffffffffffffffffff60a01b8254161790558051948594606086526060860190610c3d565b606490602086519162461bcd60e51b8352820152601860248201527f496e76616c696420636f6e7472616374206164647265737300000000000000006044820152fd5b6040519060a0820182811067ffffffffffffffff821117610b8057604052565b634e487b7160e01b5f52604160045260245ffd5b81601f820112156100e35780359067ffffffffffffffff92838311610b805760405193601f8401601f19908116603f0116850190811185821017610b8057604052828452602083830101116100e357815f926020809301838601378301015290565b600435906001600160a01b03821682036100e357565b6004359060ff821682036100e357565b5f5b838110610c2d5750505f910152565b8181015183820152602001610c1e565b90602091610c5681518092818552858086019101610c1c565b601f01601f1916010190565b6001600160a01b03908116908115610cbb575f80516020610d4d83398151915280546001600160a01b031981168417909155167f8be0079c531659141344cd1fd0a4f28419497f9722a3daafe3b4186f6b6457e05f80a3565b604051631e4fbdf760e01b81525f6004820152602490fd5b5f80516020610d4d833981519152546001600160a01b03163303610cf357565b60405163118cdaa760e01b8152336004820152602490fd5b60ff7ff0c57e16840df040f15088dc2f81fe391c3923bec73e23a9662efc9c229c6a005460401c1615610d3a57565b604051631afcd79f60e31b8152600490fdfe9016d09d72d40fdae2fd8ceac6b6234c7706214fd39c1cd1e609a0528c199300a26469706673582212208c3c0d53d27855dca19a7e443cf8bdff463405096c507d7336c4d81236b1415564736f6c63430008160033","linkReferences":{}},"methodIdentifiers":{"contractAddresses(string)":"ee67cc2a","gameConfigs(uint8)":"42479133","getContractAddress(string)":"04433bbc","getGameConfig(uint8)":"791c1dcd","getSystemParam(string)":"f1116cca","initialize(address)":"c4d66de8","owner()":"8da5cb5b","renounceOwnership()":"715018a6","setGameActive(uint8,bool)":"ba8b2dae","systemParams(string)":"e697308e","transferOwnership(address)":"f2fde38b","updateContractAddress(string,address)":"38aed2f7","updateGameConfig(uint8,uint256,uint256,uint8,uint256)":"79b9d40a","updateSystemParam(string,uint256)":"6c79a252"},"id":12}