{"abi":[{"type":"constructor","inputs":[{"name":"owner","type":"address","internalType":"address"}],"stateMutability":"nonpayable"},{"type":"function","name":"addGame","inputs":[{"name":"game","type":"address","internalType":"address"}],"outputs":[],"stateMutability":"nonpayable"},{"type":"function","name":"addPartner","inputs":[{"name":"partner","type":"address","internalType":"address"},{"name":"percent","type":"uint8","internalType":"uint8"}],"outputs":[],"stateMutability":"nonpayable"},{"type":"function","name":"addReferral","inputs":[{"name":"partner","type":"address","internalType":"address"},{"name":"referral","type":"address","internalType":"address"}],"outputs":[],"stateMutability":"nonpayable"},{"type":"function","name":"addSalesPartner","inputs":[{"name":"partner","type":"address","internalType":"address"},{"name":"salesAddress","type":"address","internalType":"address"},{"name":"percent","type":"uint8","internalType":"uint8"}],"outputs":[],"stateMutability":"nonpayable"},{"type":"function","name":"getPartnerByReferral","inputs":[{"name":"player","type":"address","internalType":"address"}],"outputs":[{"name":"","type":"address","internalType":"address"}],"stateMutability":"view"},{"type":"function","name":"getPartnerPercent","inputs":[{"name":"partner","type":"address","internalType":"address"}],"outputs":[{"name":"","type":"uint8","internalType":"uint8"}],"stateMutability":"view"},{"type":"function","name":"getPartnerPercentByReferral","inputs":[{"name":"referral","type":"address","internalType":"address"}],"outputs":[{"name":"","type":"uint8","internalType":"uint8"}],"stateMutability":"view"},{"type":"function","name":"getPartnerStats","inputs":[{"name":"partner","type":"address","internalType":"address"}],"outputs":[{"name":"percent","type":"uint8","internalType":"uint8"},{"name":"_salesPartner","type":"address","internalType":"address"},{"name":"salesPercent","type":"uint8","internalType":"uint8"},{"name":"isActive","type":"bool","internalType":"bool"}],"stateMutability":"view"},{"type":"function","name":"getReferralCount","inputs":[{"name":"_partner","type":"address","internalType":"address"}],"outputs":[{"name":"","type":"uint256","internalType":"uint256"}],"stateMutability":"view"},{"type":"function","name":"getSalesPartner","inputs":[{"name":"partner","type":"address","internalType":"address"}],"outputs":[{"name":"","type":"address","internalType":"address"}],"stateMutability":"view"},{"type":"function","name":"getSalesPartnerPercent","inputs":[{"name":"partner","type":"address","internalType":"address"}],"outputs":[{"name":"","type":"uint8","internalType":"uint8"}],"stateMutability":"view"},{"type":"function","name":"isAllowedGame","inputs":[{"name":"game","type":"address","internalType":"address"}],"outputs":[{"name":"","type":"bool","internalType":"bool"}],"stateMutability":"view"},{"type":"function","name":"isPartner","inputs":[{"name":"partner","type":"address","internalType":"address"}],"outputs":[{"name":"","type":"bool","internalType":"bool"}],"stateMutability":"view"},{"type":"function","name":"processReferralSystem","inputs":[{"name":"_salesPartner","type":"address","internalType":"address"},{"name":"referral","type":"address","internalType":"address"}],"outputs":[],"stateMutability":"nonpayable"},{"type":"function","name":"removeGame","inputs":[{"name":"game","type":"address","internalType":"address"}],"outputs":[],"stateMutability":"nonpayable"},{"type":"function","name":"removePartner","inputs":[{"name":"partner","type":"address","internalType":"address"}],"outputs":[],"stateMutability":"nonpayable"},{"type":"event","name":"GameRemoved","inputs":[{"name":"_game","type":"address","indexed":false,"internalType":"address"},{"name":"_time","type":"uint256","indexed":false,"internalType":"uint256"}],"anonymous":false},{"type":"event","name":"NewGame","inputs":[{"name":"_game","type":"address","indexed":false,"internalType":"address"},{"name":"_time","type":"uint256","indexed":false,"internalType":"uint256"}],"anonymous":false},{"type":"event","name":"NewPartner","inputs":[{"name":"_address","type":"address","indexed":true,"internalType":"address"},{"name":"_percent","type":"uint256","indexed":false,"internalType":"uint256"},{"name":"_time","type":"uint256","indexed":false,"internalType":"uint256"}],"anonymous":false},{"type":"event","name":"NewReferral","inputs":[{"name":"_partner","type":"address","indexed":true,"internalType":"address"},{"name":"_referral","type":"address","indexed":true,"internalType":"address"},{"name":"_time","type":"uint256","indexed":false,"internalType":"uint256"}],"anonymous":false},{"type":"event","name":"NewSalesPartner","inputs":[{"name":"_partnerAddress","type":"address","indexed":true,"internalType":"address"},{"name":"_salesPartnerAddress","type":"address","indexed":true,"internalType":"address"},{"name":"_percent","type":"uint256","indexed":false,"internalType":"uint256"},{"name":"_time","type":"uint256","indexed":false,"internalType":"uint256"}],"anonymous":false},{"type":"event","name":"PartnerRemoved","inputs":[{"name":"_address","type":"address","indexed":true,"internalType":"address"},{"name":"_time","type":"uint256","indexed":false,"internalType":"uint256"}],"anonymous":false}],"bytecode":{"object":"0x6080346100be57601f610e8738819003918201601f19168301916001600160401b038311848410176100c2578084926020946040528339810103126100be57516001600160a01b038116908190036100be578015610079575f80546001600160a01b031916919091179055604051610db090816100d78239f35b60405162461bcd60e51b815260206004820152601560248201527f496e76616c6964206f776e6572206164647265737300000000000000000000006044820152606490fd5b5f80fd5b634e487b7160e01b5f52604160045260245ffdfe608060409080825260049081361015610016575f80fd5b5f3560e01c908163068593cc14610b24575080630b5c3f87146109d757806324acbd69146109b35780633622cc761461097a57806339b66128146108425780634357f5151461061357806347c7cae8146105d75780634b8030951461057a5780635431581e146105215780638c0f9aac146104e5578063afb26159146104ac578063b6b6691e1461045b578063bce2466914610354578063d72d04db14610225578063e09f4559146101de5763ea3c281a146100d0575f80fd5b346101da576020806003193601126101da576024926100ed610b71565b5f54825163babcc53960e01b81523386820152956001600160a01b03929185918891829086165afa9586156101d0577f0769c1cb59569060880f8b51ce9e5b2727d9e2607ed4d6c1e876f3ed6dfeb2f49596610150915f916101a3575b50610c70565b169361015d851515610ceb565b845f526002835261017560ff835f2054161515610bdd565b5f85815260028452828120805460ff1916905590835281902080546001600160a01b031916905551428152a2005b6101c39150863d88116101c9575b6101bb8183610c22565b810190610c58565b5f61014a565b503d6101b1565b83513d5f823e3d90fd5b5f80fd5b82346101da5760203660031901126101da5760209060ff61021d610200610b71565b6001600160a01b03165f9081526002602052604090205460ff1690565b915191168152f35b50346101da576020806003193601126101da57610240610b71565b5f54845163babcc53960e01b815233818601529193916001600160a01b039184908290602490829086165afa801561034a57610282915f916103335750610c70565b831690610290821515610d37565b815f526003835260ff855f2054166102f9575f82815260038452859020805460ff1916600117905584516001600160a01b03851681524260208201527f0988a2b4a2d4dab5e137b0af44eed4118da87a6117a6753902e827e5291c3b929080604081015b0390a1005b845162461bcd60e51b8152908101839052601460248201527311d85b5948185b1c9958591e48185b1b1bddd95960621b6044820152606490fd5b6101c39150853d87116101c9576101bb8183610c22565b86513d5f823e3d90fd5b50346101da576020806003193601126101da5761036f610b71565b5f54845163babcc53960e01b815233818601529193916001600160a01b039184908290602490829086165afa801561034a576103b1915f916103335750610c70565b8316906103bf821515610d37565b815f526003835260ff855f20541615610425575f82815260038452859020805460ff1916905584516001600160a01b03851681524260208201527f7be093eafca8f0273060fce432cbbebd38966975c70aee9533a8d23c930940d89080604081016102f4565b845162461bcd60e51b8152908101839052601060248201526f11d85b59481b9bdd08185b1b1bddd95960821b6044820152606490fd5b82346101da5760203660031901126101da5760209060ff61021d6001600160a01b0380610486610b71565b165f5260018552835f20541660018060a01b03165f52600260205260ff60405f20541690565b82346101da5760203660031901126101da576020906001600160a01b03806104d2610b71565b165f5260018352815f2054169051908152f35b82346101da5760203660031901126101da576020906001600160a01b0361050a610b71565b165f526002825260ff815f20541615159051908152f35b5090346101da5760203660031901126101da576080916001600160a01b039081610549610b71565b165f52602052815f2054169060026020525f60ff828220541691805193838552602085015283015215156060820152f35b82346101da57806003193601126101da57610593610b71565b5061059c610b87565b90514281526001600160a01b039091169033907f2badb93d2d97580c2ec4837fe6e58d4b60635d482a410c898f374a96eb6aa81e90602090a3005b82346101da5760203660031901126101da576020906001600160a01b036105fc610b71565b165f526003825260ff815f20541690519015158152f35b5090346101da5760603660031901126101da5761062e610b71565b91610637610b87565b916044359160ff8316948584036101da5760018060a01b0395865f5416918451809363babcc53960e01b8252338683015281602460209687935afa90811561034a579161068e8a939284935f9161082b5750610c70565b83151580610820575b6106a090610cad565b169687151580610815575b6106b490610b9d565b1696875f5260058352845f20875f52835260ff855f2054166107d357865f52838352845f2054165f5260058252835f20865f52825260ff845f205416610788579161078393917f343f3a944c0041fb63bc26442ae08cda50bbcb21f3dd9dc0d586858fdf2641579593875f526002825261073560ff855f2054161515610bdd565b5f898152600583528481208982528352848120805460ff191690921790915591905281902080546001600160a01b031916871790555160ff9190911681524260208201529081906040820190565b0390a3005b50608492519162461bcd60e51b8352820152602160248201527f506172746e657220616c7265616479206861732073616c657320706172746e656044820152603960f91b6064820152fd5b5050606492519162461bcd60e51b8352820152601c60248201527f53616c657320706172746e657220616c726561647920657869737473000000006044820152fd5b5080821615156106ab565b506064841115610697565b6101c39150873d89116101c9576101bb8183610c22565b5090346101da57806003193601126101da5761085c610b71565b906024359160ff8316908184036101da575f54835163babcc53960e01b815233878201526020926001600160a01b039290919084908290602490829087165afa90811561034a57906108b4915f916103335750610c70565b8315158061096f575b6108c690610cad565b16946108d3861515610ceb565b855f526002825260ff845f20541661093557505f8581526002909152829020805460ff19169190911790555160ff9190911681524260208201527f0ae0b2bb6002511474117d7446d14f4728e677c08a6166bb3bddfc1ad0aa39a390604090a2005b60649184519162461bcd60e51b83528201526016602482015275506172746e657220616c72656164792065786973747360501b6044820152fd5b5060648411156108bd565b5090346101da5760203660031901126101da576020916001600160a01b0390816109a2610b71565b165f528352815f2054169051908152f35b82346101da5760203660031901126101da576020906109d0610b71565b50515f8152f35b5090346101da57806003193601126101da576109f1610b71565b916109fa610b87565b91335f526020916003835260ff825f20541615610aed576001600160a01b0394851693859085151580610ae2575b610a3190610b9d565b855f5260028552610a4960ff855f2054161515610bdd565b1694855f5260018452825f205416610aa157505f8481526001835281902080546001600160a01b03191684179055514281527f2badb93d2d97580c2ec4837fe6e58d4b60635d482a410c898f374a96eb6aa81e9190a3005b82606492519162461bcd60e51b8352820152601760248201527f526566657272616c20616c7265616479206578697374730000000000000000006044820152fd5b508082161515610a28565b82606492519162461bcd60e51b835282015260136024820152724e6f7420616e20616c6c6f7765642067616d6560681b6044820152fd5b919050346101da5760203660031901126101da5760209260ff916001600160a01b0380610b4f610b71565b1691825f528652825f2054165f5260058552815f20905f5284525f2054168152f35b600435906001600160a01b03821682036101da57565b602435906001600160a01b03821682036101da57565b15610ba457565b60405162461bcd60e51b8152602060048201526011602482015270496e76616c69642061646472657373657360781b6044820152606490fd5b15610be457565b60405162461bcd60e51b815260206004820152601660248201527514185c9d1b995c88191bd95cc81b9bdd08195e1a5cdd60521b6044820152606490fd5b90601f8019910116810190811067ffffffffffffffff821117610c4457604052565b634e487b7160e01b5f52604160045260245ffd5b908160209103126101da575180151581036101da5790565b15610c7757565b60405162461bcd60e51b815260206004820152600e60248201526d139bdd08185d5d1a1bdc9a5e995960921b6044820152606490fd5b15610cb457565b60405162461bcd60e51b815260206004820152600f60248201526e125b9d985b1a59081c195c98d95b9d608a1b6044820152606490fd5b15610cf257565b60405162461bcd60e51b815260206004820152601760248201527f496e76616c696420706172746e657220616464726573730000000000000000006044820152606490fd5b15610d3e57565b60405162461bcd60e51b8152602060048201526014602482015273496e76616c69642067616d65206164647265737360601b6044820152606490fdfea26469706673582212200ae51fc2dcc27f1622b9568c07d32436d3decfce518316cbcbb1419ac40d006564736f6c63430008160033","linkReferences":{}},"methodIdentifiers":{"addGame(address)":"d72d04db","addPartner(address,uint8)":"39b66128","addReferral(address,address)":"0b5c3f87","addSalesPartner(address,address,uint8)":"4357f515","getPartnerByReferral(address)":"afb26159","getPartnerPercent(address)":"e09f4559","getPartnerPercentByReferral(address)":"b6b6691e","getPartnerStats(address)":"5431581e","getReferralCount(address)":"24acbd69","getSalesPartner(address)":"3622cc76","getSalesPartnerPercent(address)":"068593cc","isAllowedGame(address)":"47c7cae8","isPartner(address)":"8c0f9aac","processReferralSystem(address,address)":"4b803095","removeGame(address)":"bce24669","removePartner(address)":"ea3c281a"},"id":13}