{"abi":[{"type":"constructor","inputs":[{"name":"owner","type":"address","internalType":"address"}],"stateMutability":"nonpayable"},{"type":"function","name":"addGame","inputs":[{"name":"game","type":"address","internalType":"address"}],"outputs":[],"stateMutability":"nonpayable"},{"type":"function","name":"addPartner","inputs":[{"name":"partner","type":"address","internalType":"address"},{"name":"percent","type":"uint8","internalType":"uint8"}],"outputs":[],"stateMutability":"nonpayable"},{"type":"function","name":"addReferral","inputs":[{"name":"partner","type":"address","internalType":"address"},{"name":"referral","type":"address","internalType":"address"}],"outputs":[],"stateMutability":"nonpayable"},{"type":"function","name":"addSalesPartner","inputs":[{"name":"partner","type":"address","internalType":"address"},{"name":"salesAddress","type":"address","internalType":"address"},{"name":"percent","type":"uint8","internalType":"uint8"}],"outputs":[],"stateMutability":"nonpayable"},{"type":"function","name":"getPartnerByReferral","inputs":[{"name":"player","type":"address","internalType":"address"}],"outputs":[{"name":"","type":"address","internalType":"address"}],"stateMutability":"view"},{"type":"function","name":"getPartnerPercent","inputs":[{"name":"partner","type":"address","internalType":"address"}],"outputs":[{"name":"","type":"uint8","internalType":"uint8"}],"stateMutability":"view"},{"type":"function","name":"getPartnerPercentByReferral","inputs":[{"name":"referral","type":"address","internalType":"address"}],"outputs":[{"name":"","type":"uint8","internalType":"uint8"}],"stateMutability":"view"},{"type":"function","name":"getPartnerStats","inputs":[{"name":"partner","type":"address","internalType":"address"}],"outputs":[{"name":"percent","type":"uint8","internalType":"uint8"},{"name":"salesPartner","type":"address","internalType":"address"},{"name":"salesPercent","type":"uint8","internalType":"uint8"},{"name":"isActive","type":"bool","internalType":"bool"}],"stateMutability":"view"},{"type":"function","name":"getReferralCount","inputs":[{"name":"partner","type":"address","internalType":"address"}],"outputs":[{"name":"","type":"uint256","internalType":"uint256"}],"stateMutability":"view"},{"type":"function","name":"getSalesPartner","inputs":[{"name":"partner","type":"address","internalType":"address"}],"outputs":[{"name":"","type":"address","internalType":"address"}],"stateMutability":"view"},{"type":"function","name":"getSalesPartnerPercent","inputs":[{"name":"partner","type":"address","internalType":"address"}],"outputs":[{"name":"","type":"uint8","internalType":"uint8"}],"stateMutability":"view"},{"type":"function","name":"isAllowedGame","inputs":[{"name":"game","type":"address","internalType":"address"}],"outputs":[{"name":"","type":"bool","internalType":"bool"}],"stateMutability":"view"},{"type":"function","name":"isPartner","inputs":[{"name":"partner","type":"address","internalType":"address"}],"outputs":[{"name":"","type":"bool","internalType":"bool"}],"stateMutability":"view"},{"type":"function","name":"removeGame","inputs":[{"name":"game","type":"address","internalType":"address"}],"outputs":[],"stateMutability":"nonpayable"},{"type":"function","name":"removePartner","inputs":[{"name":"partner","type":"address","internalType":"address"}],"outputs":[],"stateMutability":"nonpayable"},{"type":"event","name":"GameRemoved","inputs":[{"name":"_game","type":"address","indexed":false,"internalType":"address"},{"name":"_time","type":"uint256","indexed":false,"internalType":"uint256"}],"anonymous":false},{"type":"event","name":"NewGame","inputs":[{"name":"_game","type":"address","indexed":false,"internalType":"address"},{"name":"_time","type":"uint256","indexed":false,"internalType":"uint256"}],"anonymous":false},{"type":"event","name":"NewPartner","inputs":[{"name":"_address","type":"address","indexed":true,"internalType":"address"},{"name":"_percent","type":"uint256","indexed":false,"internalType":"uint256"},{"name":"_time","type":"uint256","indexed":false,"internalType":"uint256"}],"anonymous":false},{"type":"event","name":"NewReferral","inputs":[{"name":"_partner","type":"address","indexed":true,"internalType":"address"},{"name":"_referral","type":"address","indexed":true,"internalType":"address"},{"name":"_time","type":"uint256","indexed":false,"internalType":"uint256"}],"anonymous":false},{"type":"event","name":"NewSalesPartner","inputs":[{"name":"_partnerAddress","type":"address","indexed":true,"internalType":"address"},{"name":"_salesPartnerAddress","type":"address","indexed":true,"internalType":"address"},{"name":"_percent","type":"uint256","indexed":false,"internalType":"uint256"},{"name":"_time","type":"uint256","indexed":false,"internalType":"uint256"}],"anonymous":false},{"type":"event","name":"PartnerRemoved","inputs":[{"name":"_address","type":"address","indexed":true,"internalType":"address"},{"name":"_time","type":"uint256","indexed":false,"internalType":"uint256"}],"anonymous":false}],"bytecode":{"object":"0x6080346100be57601f610e1f38819003918201601f19168301916001600160401b038311848410176100c2578084926020946040528339810103126100be57516001600160a01b038116908190036100be578015610079575f80546001600160a01b031916919091179055604051610d4890816100d78239f35b60405162461bcd60e51b815260206004820152601560248201527f496e76616c6964206f776e6572206164647265737300000000000000000000006044820152606490fd5b5f80fd5b634e487b7160e01b5f52604160045260245ffdfe608060409080825260049081361015610016575f80fd5b5f3560e01c908163068593cc14610abc575080630b5c3f871461096f57806324acbd691461094b5780633622cc761461091257806339b66128146107da5780634357f515146105ab57806347c7cae81461056f5780635431581e146105165780638c0f9aac146104da578063afb26159146104a1578063b6b6691e14610450578063bce2466914610349578063d72d04db1461021a578063e09f4559146101d35763ea3c281a146100c5575f80fd5b346101cf576020806003193601126101cf576024926100e2610b09565b5f54825163babcc53960e01b81523386820152956001600160a01b03929185918891829086165afa9586156101c5577f0769c1cb59569060880f8b51ce9e5b2727d9e2607ed4d6c1e876f3ed6dfeb2f49596610145915f91610198575b50610c08565b1693610152851515610c83565b845f526002835261016a60ff835f2054161515610b75565b5f85815260028452828120805460ff1916905590835281902080546001600160a01b031916905551428152a2005b6101b89150863d88116101be575b6101b08183610bba565b810190610bf0565b5f61013f565b503d6101a6565b83513d5f823e3d90fd5b5f80fd5b82346101cf5760203660031901126101cf5760209060ff6102126101f5610b09565b6001600160a01b03165f9081526002602052604090205460ff1690565b915191168152f35b50346101cf576020806003193601126101cf57610235610b09565b5f54845163babcc53960e01b815233818601529193916001600160a01b039184908290602490829086165afa801561033f57610277915f916103285750610c08565b831690610285821515610ccf565b815f526003835260ff855f2054166102ee575f82815260038452859020805460ff1916600117905584516001600160a01b03851681524260208201527f0988a2b4a2d4dab5e137b0af44eed4118da87a6117a6753902e827e5291c3b929080604081015b0390a1005b845162461bcd60e51b8152908101839052601460248201527311d85b5948185b1c9958591e48185b1b1bddd95960621b6044820152606490fd5b6101b89150853d87116101be576101b08183610bba565b86513d5f823e3d90fd5b50346101cf576020806003193601126101cf57610364610b09565b5f54845163babcc53960e01b815233818601529193916001600160a01b039184908290602490829086165afa801561033f576103a6915f916103285750610c08565b8316906103b4821515610ccf565b815f526003835260ff855f2054161561041a575f82815260038452859020805460ff1916905584516001600160a01b03851681524260208201527f7be093eafca8f0273060fce432cbbebd38966975c70aee9533a8d23c930940d89080604081016102e9565b845162461bcd60e51b8152908101839052601060248201526f11d85b59481b9bdd08185b1b1bddd95960821b6044820152606490fd5b82346101cf5760203660031901126101cf5760209060ff6102126001600160a01b038061047b610b09565b165f5260018552835f20541660018060a01b03165f52600260205260ff60405f20541690565b82346101cf5760203660031901126101cf576020906001600160a01b03806104c7610b09565b165f5260018352815f2054169051908152f35b82346101cf5760203660031901126101cf576020906001600160a01b036104ff610b09565b165f526002825260ff815f20541615159051908152f35b5090346101cf5760203660031901126101cf576080916001600160a01b03908161053e610b09565b165f52602052815f2054169060026020525f60ff828220541691805193838552602085015283015215156060820152f35b82346101cf5760203660031901126101cf576020906001600160a01b03610594610b09565b165f526003825260ff815f20541690519015158152f35b5090346101cf5760603660031901126101cf576105c6610b09565b916105cf610b1f565b916044359160ff8316948584036101cf5760018060a01b0395865f5416918451809363babcc53960e01b8252338683015281602460209687935afa90811561033f57916106268a939284935f916107c35750610c08565b831515806107b8575b61063890610c45565b1696871515806107ad575b61064c90610b35565b1696875f5260058352845f20875f52835260ff855f20541661076b57865f52838352845f2054165f5260058252835f20865f52825260ff845f205416610720579161071b93917f343f3a944c0041fb63bc26442ae08cda50bbcb21f3dd9dc0d586858fdf2641579593875f52600282526106cd60ff855f2054161515610b75565b5f898152600583528481208982528352848120805460ff191690921790915591905281902080546001600160a01b031916871790555160ff9190911681524260208201529081906040820190565b0390a3005b50608492519162461bcd60e51b8352820152602160248201527f506172746e657220616c7265616479206861732073616c657320706172746e656044820152603960f91b6064820152fd5b5050606492519162461bcd60e51b8352820152601c60248201527f53616c657320706172746e657220616c726561647920657869737473000000006044820152fd5b508082161515610643565b50606484111561062f565b6101b89150873d89116101be576101b08183610bba565b5090346101cf57806003193601126101cf576107f4610b09565b906024359160ff8316908184036101cf575f54835163babcc53960e01b815233878201526020926001600160a01b039290919084908290602490829087165afa90811561033f579061084c915f916103285750610c08565b83151580610907575b61085e90610c45565b169461086b861515610c83565b855f526002825260ff845f2054166108cd57505f8581526002909152829020805460ff19169190911790555160ff9190911681524260208201527f0ae0b2bb6002511474117d7446d14f4728e677c08a6166bb3bddfc1ad0aa39a390604090a2005b60649184519162461bcd60e51b83528201526016602482015275506172746e657220616c72656164792065786973747360501b6044820152fd5b506064841115610855565b5090346101cf5760203660031901126101cf576020916001600160a01b03908161093a610b09565b165f528352815f2054169051908152f35b82346101cf5760203660031901126101cf57602090610968610b09565b50515f8152f35b5090346101cf57806003193601126101cf57610989610b09565b91610992610b1f565b91335f526020916003835260ff825f20541615610a85576001600160a01b0394851693859085151580610a7a575b6109c990610b35565b855f52600285526109e160ff855f2054161515610b75565b1694855f5260018452825f205416610a3957505f8481526001835281902080546001600160a01b03191684179055514281527f2badb93d2d97580c2ec4837fe6e58d4b60635d482a410c898f374a96eb6aa81e9190a3005b82606492519162461bcd60e51b8352820152601760248201527f526566657272616c20616c7265616479206578697374730000000000000000006044820152fd5b5080821615156109c0565b82606492519162461bcd60e51b835282015260136024820152724e6f7420616e20616c6c6f7765642067616d6560681b6044820152fd5b919050346101cf5760203660031901126101cf5760209260ff916001600160a01b0380610ae7610b09565b1691825f528652825f2054165f5260058552815f20905f5284525f2054168152f35b600435906001600160a01b03821682036101cf57565b602435906001600160a01b03821682036101cf57565b15610b3c57565b60405162461bcd60e51b8152602060048201526011602482015270496e76616c69642061646472657373657360781b6044820152606490fd5b15610b7c57565b60405162461bcd60e51b815260206004820152601660248201527514185c9d1b995c88191bd95cc81b9bdd08195e1a5cdd60521b6044820152606490fd5b90601f8019910116810190811067ffffffffffffffff821117610bdc57604052565b634e487b7160e01b5f52604160045260245ffd5b908160209103126101cf575180151581036101cf5790565b15610c0f57565b60405162461bcd60e51b815260206004820152600e60248201526d139bdd08185d5d1a1bdc9a5e995960921b6044820152606490fd5b15610c4c57565b60405162461bcd60e51b815260206004820152600f60248201526e125b9d985b1a59081c195c98d95b9d608a1b6044820152606490fd5b15610c8a57565b60405162461bcd60e51b815260206004820152601760248201527f496e76616c696420706172746e657220616464726573730000000000000000006044820152606490fd5b15610cd657565b60405162461bcd60e51b8152602060048201526014602482015273496e76616c69642067616d65206164647265737360601b6044820152606490fdfea2646970667358221220799c1ba867b6af35e7196f67e03577f335e0b390ad0213d05f8d07031644b3d364736f6c63430008160033","linkReferences":{}},"methodIdentifiers":{"addGame(address)":"d72d04db","addPartner(address,uint8)":"39b66128","addReferral(address,address)":"0b5c3f87","addSalesPartner(address,address,uint8)":"4357f515","getPartnerByReferral(address)":"afb26159","getPartnerPercent(address)":"e09f4559","getPartnerPercentByReferral(address)":"b6b6691e","getPartnerStats(address)":"5431581e","getReferralCount(address)":"24acbd69","getSalesPartner(address)":"3622cc76","getSalesPartnerPercent(address)":"068593cc","isAllowedGame(address)":"47c7cae8","isPartner(address)":"8c0f9aac","removeGame(address)":"bce24669","removePartner(address)":"ea3c281a"},"id":7}