{"abi":[{"type":"constructor","inputs":[],"stateMutability":"nonpayable"},{"type":"function","name":"changeOwner","inputs":[{"name":"newOwner","type":"address","internalType":"address"}],"outputs":[],"stateMutability":"nonpayable"},{"type":"function","name":"getContractBalance","inputs":[],"outputs":[{"name":"","type":"uint256","internalType":"uint256"}],"stateMutability":"view"},{"type":"function","name":"getReferralRewardPercent","inputs":[],"outputs":[{"name":"","type":"uint256","internalType":"uint256"}],"stateMutability":"view"},{"type":"function","name":"getReferralStats","inputs":[{"name":"referrer","type":"address","internalType":"address"}],"outputs":[{"name":"totalReferrals","type":"uint256","internalType":"uint256"},{"name":"totalRewards","type":"uint256","internalType":"uint256"},{"name":"lastRewardTime","type":"uint256","internalType":"uint256"}],"stateMutability":"view"},{"type":"function","name":"owner","inputs":[],"outputs":[{"name":"","type":"address","internalType":"address"}],"stateMutability":"view"},{"type":"function","name":"processReferralReward","inputs":[{"name":"referrer","type":"address","internalType":"address"},{"name":"ticketAmount","type":"uint256","internalType":"uint256"}],"outputs":[{"name":"","type":"uint256","internalType":"uint256"}],"stateMutability":"payable"},{"type":"function","name":"referralRewardPercent","inputs":[],"outputs":[{"name":"","type":"uint256","internalType":"uint256"}],"stateMutability":"view"},{"type":"function","name":"referralStats","inputs":[{"name":"","type":"address","internalType":"address"}],"outputs":[{"name":"totalReferrals","type":"uint256","internalType":"uint256"},{"name":"totalRewards","type":"uint256","internalType":"uint256"},{"name":"lastRewardTime","type":"uint256","internalType":"uint256"}],"stateMutability":"view"},{"type":"function","name":"setReferralRewardPercent","inputs":[{"name":"newPercent","type":"uint256","internalType":"uint256"}],"outputs":[],"stateMutability":"nonpayable"},{"type":"function","name":"withdrawContractBalance","inputs":[],"outputs":[],"stateMutability":"nonpayable"},{"type":"event","name":"OwnerChanged","inputs":[{"name":"oldOwner","type":"address","indexed":true,"internalType":"address"},{"name":"newOwner","type":"address","indexed":true,"internalType":"address"}],"anonymous":false},{"type":"event","name":"ReferralRewardPaid","inputs":[{"name":"referrer","type":"address","indexed":true,"internalType":"address"},{"name":"player","type":"address","indexed":true,"internalType":"address"},{"name":"amount","type":"uint256","indexed":false,"internalType":"uint256"},{"name":"timestamp","type":"uint256","indexed":false,"internalType":"uint256"}],"anonymous":false},{"type":"event","name":"ReferralRewardPercentUpdated","inputs":[{"name":"oldPercent","type":"uint256","indexed":false,"internalType":"uint256"},{"name":"newPercent","type":"uint256","indexed":false,"internalType":"uint256"},{"name":"timestamp","type":"uint256","indexed":false,"internalType":"uint256"}],"anonymous":false},{"type":"event","name":"ReferralStatsUpdated","inputs":[{"name":"referrer","type":"address","indexed":true,"internalType":"address"},{"name":"totalReferrals","type":"uint256","indexed":false,"internalType":"uint256"},{"name":"totalRewards","type":"uint256","indexed":false,"internalType":"uint256"},{"name":"timestamp","type":"uint256","indexed":false,"internalType":"uint256"}],"anonymous":false}],"bytecode":{"object":"0x6080806040523461002c5760025f81905580546001600160a01b031916331790556106d390816100318239f35b5f80fdfe608060409080825260049081361015610016575f80fd5b5f3560e01c9081630ad92949146105ba5750806321bade13146104a757806328d2a7a3146105055780633a0e3409146104a75780636f9fb98a1461048d5780638da5cb5b146104655780639270fe0c14610448578063a6f9dae114610390578063bfab3db9146102d65763da46bdad1461008e575f80fd5b816003193601126102d2576100a16105d3565b602492906001600160a01b0316833581156102905733821461025657801561021c575f548082029182040361020a576064900492836100e5575b6020848451908152f35b5f80808087865af16100f561063f565b50156101c857815f526001602052825f2080545f1981146101b6576001019586825560018201908154938785018095116101a55750509160209691817fafd240cc0418ba6aa18fbaddf31a9871be1a25dd3385bd538594b8f9cc2179d9945560024291015584518681524288820152847fe679beb5d98a54fda65331587d36d13358e8bf295be15e932c482164f8fde95e873393a384519182526020820152426040820152606090a25f806100db565b601190634e487b7160e01b5f52525ffd5b86601184634e487b7160e01b5f52525ffd5b606490601f86602086519362461bcd60e51b85528401528201527f526566657272616c20726577617264207472616e73666572206661696c6564006044820152fd5b84601185634e487b7160e01b5f52525ffd5b825162461bcd60e51b815260208186015260158187015274125b9d985b1a59081d1a58dad95d08185b5bdd5b9d605a1b6044820152606490fd5b825162461bcd60e51b81526020818601526015818701527421b0b73737ba103932b332b9103cb7bab939b2b63360591b6044820152606490fd5b825162461bcd60e51b81526020818601526018818701527f496e76616c6964207265666572726572206164647265737300000000000000006044820152606490fd5b5f80fd5b50346102d2575f3660031901126102d2576002546001600160a01b03166102fe3382146105e9565b47908115610354575f80809381935af161031661063f565b501561031e57005b6020606492519162461bcd60e51b8352820152601160248201527015da5d1a191c985dd85b0819985a5b1959607a1b6044820152fd5b835162461bcd60e51b815260208185015260166024820152754e6f2062616c616e636520746f20776974686472617760501b6044820152606490fd5b50346102d25760203660031901126102d2576103aa6105d3565b6002546001600160a01b038082169391926103c63386146105e9565b169384156104055750506001600160a01b03191682176002557fb532073b38c83145e3e5135377a08bf9aab55bc0fd7c1179cd4fb995d2a5159c5f80a3005b906020606492519162461bcd60e51b8352820152601960248201527f496e76616c6964206e6577206f776e65722061646472657373000000000000006044820152fd5b82346102d2575f3660031901126102d2576020905f549051908152f35b82346102d2575f3660031901126102d25760025490516001600160a01b039091168152602090f35b82346102d2575f3660031901126102d25751478152602090f35b82346102d25760203660031901126102d2576001600160a01b036104c96105d3565b165f526001602052805f2090610501825491600260018501549401549051938493846040919493926060820195825260208201520152565b0390f35b5090346102d25760203660031901126102d257813561052f60018060a01b036002541633146105e9565b60148111610577575f805490829055915191825260208201524260408201527f48c6c8a2f50d3336c9cb894511a760391eefe5ce94e5018bf4340e4a62cede349150606090a1005b815162461bcd60e51b8152602081850181905260248201527f5265776172642070657263656e742063616e6e6f7420657863656564203230256044820152606490fd5b346102d2575f3660031901126102d2576020905f548152f35b600435906001600160a01b03821682036102d257565b156105f057565b60405162461bcd60e51b815260206004820152602160248201527f4f6e6c79206f776e65722063616e2063616c6c20746869732066756e6374696f6044820152603760f91b6064820152608490fd5b3d156106985767ffffffffffffffff903d8281116106845760405192601f8201601f19908116603f01168401908111848210176106845760405282523d5f602084013e565b634e487b7160e01b5f52604160045260245ffd5b60609056fea264697066735822122053e3738e3aa272053c325099aa02a1e7176f21c07b63308d6a86271c42796a3a64736f6c63430008160033","linkReferences":{}},"methodIdentifiers":{"changeOwner(address)":"a6f9dae1","getContractBalance()":"6f9fb98a","getReferralRewardPercent()":"9270fe0c","getReferralStats(address)":"21bade13","owner()":"8da5cb5b","processReferralReward(address,uint256)":"da46bdad","referralRewardPercent()":"0ad92949","referralStats(address)":"3a0e3409","setReferralRewardPercent(uint256)":"28d2a7a3","withdrawContractBalance()":"bfab3db9"},"id":12}