{"abi":[{"type":"function","name":"isAllowed","inputs":[{"name":"","type":"address","internalType":"address"}],"outputs":[{"name":"","type":"bool","internalType":"bool"}],"stateMutability":"view"}],"bytecode":{"object":"0x60808060405234601457608590816100198239f35b5f80fdfe60808060405260043610156011575f80fd5b5f3560e01c63babcc539146023575f80fd5b34604b576020366003190112604b576004356001600160a01b03811603604b57805f60209252f35b5f80fdfea2646970667358221220d1fc5b4dbd167faec9f668cf58edb1950495ed049868bd3b00425ab1067211b164736f6c63430008160033","linkReferences":{}},"methodIdentifiers":{"isAllowed(address)":"babcc539"},"id":7}