{"abi":[{"type":"function","name":"isAllowed","inputs":[{"name":"","type":"address","internalType":"address"}],"outputs":[{"name":"","type":"bool","internalType":"bool"}],"stateMutability":"view"}],"bytecode":{"object":"0x60808060405234601457608590816100198239f35b5f80fdfe60808060405260043610156011575f80fd5b5f3560e01c63babcc539146023575f80fd5b34604b576020366003190112604b576004356001600160a01b03811603604b57805f60209252f35b5f80fdfea264697066735822122042225c084f71f0a89c1ba05ea9ee13eb0daec77565f24f1e5ab65d5680aca78164736f6c63430008160033","linkReferences":{}},"methodIdentifiers":{"isAllowed(address)":"babcc539"},"id":13}