{"abi":[{"type":"constructor","inputs":[],"stateMutability":"nonpayable"},{"type":"function","name":"allTokens","inputs":[{"name":"","type":"uint256","internalType":"uint256"}],"outputs":[{"name":"","type":"address","internalType":"address"}],"stateMutability":"view"},{"type":"function","name":"deactivateToken","inputs":[{"name":"tokenAddress","type":"address","internalType":"address"}],"outputs":[],"stateMutability":"nonpayable"},{"type":"function","name":"getActiveTokenCount","inputs":[],"outputs":[{"name":"","type":"uint256","internalType":"uint256"}],"stateMutability":"view"},{"type":"function","name":"getActiveTokens","inputs":[],"outputs":[{"name":"","type":"address[]","internalType":"address[]"}],"stateMutability":"view"},{"type":"function","name":"getAllTokens","inputs":[],"outputs":[{"name":"","type":"address[]","internalType":"address[]"}],"stateMutability":"view"},{"type":"function","name":"getTokenByName","inputs":[{"name":"name","type":"string","internalType":"string"}],"outputs":[{"name":"","type":"address","internalType":"address"}],"stateMutability":"view"},{"type":"function","name":"getTokenInfo","inputs":[{"name":"tokenAddress","type":"address","internalType":"address"}],"outputs":[{"name":"","type":"tuple","internalType":"struct TokenRegistry.TokenInfo","components":[{"name":"tokenAddress","type":"address","internalType":"address"},{"name":"name","type":"string","internalType":"string"},{"name":"symbol","type":"string","internalType":"string"},{"name":"decimals","type":"uint8","internalType":"uint8"},{"name":"totalSupply","type":"uint256","internalType":"uint256"},{"name":"isActive","type":"bool","internalType":"bool"},{"name":"createdAt","type":"uint256","internalType":"uint256"}]}],"stateMutability":"view"},{"type":"function","name":"initialize","inputs":[{"name":"owner","type":"address","internalType":"address"}],"outputs":[],"stateMutability":"nonpayable"},{"type":"function","name":"isTokenRegistered","inputs":[{"name":"tokenAddress","type":"address","internalType":"address"}],"outputs":[{"name":"","type":"bool","internalType":"bool"}],"stateMutability":"view"},{"type":"function","name":"owner","inputs":[],"outputs":[{"name":"","type":"address","internalType":"address"}],"stateMutability":"view"},{"type":"function","name":"reactivateToken","inputs":[{"name":"tokenAddress","type":"address","internalType":"address"}],"outputs":[],"stateMutability":"nonpayable"},{"type":"function","name":"registerToken","inputs":[{"name":"tokenAddress","type":"address","internalType":"address"},{"name":"name","type":"string","internalType":"string"},{"name":"symbol","type":"string","internalType":"string"},{"name":"decimals","type":"uint8","internalType":"uint8"},{"name":"totalSupply","type":"uint256","internalType":"uint256"}],"outputs":[],"stateMutability":"nonpayable"},{"type":"function","name":"renounceOwnership","inputs":[],"outputs":[],"stateMutability":"nonpayable"},{"type":"function","name":"tokenByName","inputs":[{"name":"","type":"string","internalType":"string"}],"outputs":[{"name":"","type":"address","internalType":"address"}],"stateMutability":"view"},{"type":"function","name":"tokens","inputs":[{"name":"","type":"address","internalType":"address"}],"outputs":[{"name":"tokenAddress","type":"address","internalType":"address"},{"name":"name","type":"string","internalType":"string"},{"name":"symbol","type":"string","internalType":"string"},{"name":"decimals","type":"uint8","internalType":"uint8"},{"name":"totalSupply","type":"uint256","internalType":"uint256"},{"name":"isActive","type":"bool","internalType":"bool"},{"name":"createdAt","type":"uint256","internalType":"uint256"}],"stateMutability":"view"},{"type":"function","name":"transferOwnership","inputs":[{"name":"newOwner","type":"address","internalType":"address"}],"outputs":[],"stateMutability":"nonpayable"},{"type":"event","name":"Initialized","inputs":[{"name":"version","type":"uint64","indexed":false,"internalType":"uint64"}],"anonymous":false},{"type":"event","name":"OwnershipTransferred","inputs":[{"name":"previousOwner","type":"address","indexed":true,"internalType":"address"},{"name":"newOwner","type":"address","indexed":true,"internalType":"address"}],"anonymous":false},{"type":"event","name":"TokenDeactivated","inputs":[{"name":"tokenAddress","type":"address","indexed":true,"internalType":"address"},{"name":"timestamp","type":"uint256","indexed":false,"internalType":"uint256"}],"anonymous":false},{"type":"event","name":"TokenReactivated","inputs":[{"name":"tokenAddress","type":"address","indexed":true,"internalType":"address"},{"name":"timestamp","type":"uint256","indexed":false,"internalType":"uint256"}],"anonymous":false},{"type":"event","name":"TokenRegistered","inputs":[{"name":"tokenAddress","type":"address","indexed":true,"internalType":"address"},{"name":"name","type":"string","indexed":false,"internalType":"string"},{"name":"symbol","type":"string","indexed":false,"internalType":"string"},{"name":"timestamp","type":"uint256","indexed":false,"internalType":"uint256"}],"anonymous":false},{"type":"error","name":"InvalidInitialization","inputs":[]},{"type":"error","name":"NotInitializing","inputs":[]},{"type":"error","name":"OwnableInvalidOwner","inputs":[{"name":"owner","type":"address","internalType":"address"}]},{"type":"error","name":"OwnableUnauthorizedAccount","inputs":[{"name":"account","type":"address","internalType":"address"}]}],"bytecode":{"object":"0x608080604052346100b8577ff0c57e16840df040f15088dc2f81fe391c3923bec73e23a9662efc9c229c6a009081549060ff8260401c166100a957506001600160401b036002600160401b031982821601610064575b60405161144390816100bd8239f35b6001600160401b031990911681179091556040519081527fc7f505b2f371ae2175ee4913f4499e1f2633a7b5936321eed1cdaeb6115181d290602090a15f8080610055565b63f92ee8a960e01b8152600490fd5b5f80fdfe60806040526004361015610011575f80fd5b5f3560e01c80630d31916f1461010f5780631f69565f1461010a57806326aa101f146101055780632a5c792a146101005780635f5817e3146100fb578063634282af146100f657806368173bcf146100f1578063715018a6146100ec5780637b6e7975146100d35780638da5cb5b146100e757806393d85727146100e2578063c4d66de8146100dd578063e4860339146100d8578063e73fc0c3146100d3578063f2fde38b146100ce5763f7134fe9146100c9575f80fd5b610c79565b610c4e565b610888565b610bd8565b610984565b61090c565b6108d8565b61073f565b610654565b61060d565b6104e9565b61046f565b6103f1565b6102fe565b61012e565b600435906001600160a01b038216820361012a57565b5f80fd5b3461012a57602036600319011261012a57610147610114565b61014f611337565b6001600160a01b038181165f8181526020819052604090205490929116156102085760056101c7826101ae6101a96101a58561019d6101d59860018060a01b03165f525f60205260405f2090565b015460ff1690565b1590565b610e07565b6001600160a01b03165f90815260208190526040902090565b01805460ff19166001179055565b6040514281527f1aa1170ea4b15a4775f2463a63b0ec2636d4d088abf68c24eb588bcbc66d82259080602081015b0390a2005b60405162461bcd60e51b8152602060048201526014602482015273151bdad95b881b9bdd081c9959da5cdd195c995960621b6044820152606490fd5b5f5b8381106102555750505f910152565b8181015183820152602001610246565b9060209161027e81518092818552858086019101610244565b601f01601f1916010190565b6020815260018060a01b03825116602082015260e060c06102d36102bd6020860151846040870152610100860190610265565b6040860151858203601f19016060870152610265565b9360ff6060820151166080850152608081015160a085015260a0810151151582850152015191015290565b3461012a57602036600319011261012a576103ed61031a610114565b6040905f60c0835161032b816107ba565b828152606060208201526060858201528260608201528260808201528260a0820152015260018060a01b03165f525f602052805f2090600681519261036f846107ba565b80546001600160a01b0316845261038860018201610ae5565b602085015261039960028201610ae5565b838501526103b86103ae600383015460ff1690565b60ff166060860152565b600481015460808501526103dc6103d3600583015460ff1690565b151560a0860152565b015460c0830152519182918261028a565b0390f35b3461012a57602036600319011261012a5760206001600160a01b0380610415610114565b165f525f825260405f2054161515604051908152f35b60209060206040818301928281528551809452019301915f5b828110610452575050505090565b83516001600160a01b031685529381019392810192600101610444565b3461012a575f36600319011261012a57604051806002549182815260208091019260025f525f805160206113ae833981519152915f905b8282106104c9576103ed856104bd818903826107db565b6040519182918261042b565b83546001600160a01b0316865294850194600193840193909101906104a6565b3461012a575f36600319011261012a576002805461050681610e4a565b9061051460405192836107db565b808252601f1961052382610e4a565b013660208401375f905f5b81811061054657828452604051806103ed868261042b565b5f8590525f805160206113ae8339815191528101546105749060059061019d906001600160a01b03166101ae565b610581575b60010161052e565b916105ca6001916105c56105ac610597876105e6565b905460039190911b1c6001600160a01b031690565b6105b68389610e62565b6001600160a01b039091169052565b610e76565b929050610579565b634e487b7160e01b5f52603260045260245ffd5b6002548110156106085760025f525f805160206113ae83398151915201905f90565b6105d2565b3461012a57602036600319011261012a5760043560025481101561012a5760025f525f805160206113ae83398151915201546040516001600160a01b039091168152602090f35b3461012a57602036600319011261012a5761066d610114565b610675611337565b60018060a01b03811690815f525f60205260ff600560405f20015416156106e9576001600160a01b03165f908152602081905260409020600501805460ff191690556040514281527f4e8cb9d338f8f3f74070570a38c7e0baf6918c6ab3b7134929669af8b352dcca908060208101610203565b60405162461bcd60e51b815260206004820152602860248201527f546f6b656e206e6f742072656769737465726564206f7220616c726561647920604482015267696e61637469766560c01b6064820152608490fd5b3461012a575f36600319011261012a57610757611337565b5f805160206113ce83398151915280546001600160a01b031981169091555f906001600160a01b03167f8be0079c531659141344cd1fd0a4f28419497f9722a3daafe3b4186f6b6457e08280a3005b634e487b7160e01b5f52604160045260245ffd5b60e0810190811067ffffffffffffffff8211176107d657604052565b6107a6565b90601f8019910116810190811067ffffffffffffffff8211176107d657604052565b6040519061080a826107ba565b565b81601f8201121561012a5780359067ffffffffffffffff82116107d65760405192610841601f8401601f1916602001856107db565b8284526020838301011161012a57815f926020809301838601378301015290565b602061087b918160405193828580945193849201610244565b8101600181520301902090565b3461012a57602036600319011261012a5760043567ffffffffffffffff811161012a576020906001600160a01b03906108ce906108c990369060040161080c565b610862565b5416604051908152f35b3461012a575f36600319011261012a575f805160206113ce833981519152546040516001600160a01b039091168152602090f35b3461012a575f36600319011261012a575f80600254905b81811061093557604051838152602090f35b5f805160206113ae8339815191528101546001600160a01b03165f9081526020819052604090206005015460ff16610970575b600101610923565b9161097c600191610e76565b929050610968565b3461012a57602036600319011261012a5761099d610114565b5f805160206113ee833981519152549067ffffffffffffffff60ff8360401c1615921680159081610aa5575b6001149081610a9b575b159081610a92575b50610a80575f805160206113ee833981519152805467ffffffffffffffff19166001179055610a0e9082610a5c5761136f565b610a1457005b5f805160206113ee833981519152805460ff60401b19169055604051600181527fc7f505b2f371ae2175ee4913f4499e1f2633a7b5936321eed1cdaeb6115181d290602090a1005b5f805160206113ee833981519152805460ff60401b1916600160401b17905561136f565b60405163f92ee8a960e01b8152600490fd5b9050155f6109db565b303b1591506109d3565b8391506109c9565b90600182811c92168015610adb575b6020831014610ac757565b634e487b7160e01b5f52602260045260245ffd5b91607f1691610abc565b9060405191825f8254610af781610aad565b908184526020946001916001811690815f14610b635750600114610b25575b50505061080a925003836107db565b5f90815285812095935091905b818310610b4b57505061080a93508201015f8080610b16565b85548884018501529485019487945091830191610b32565b9250505061080a94925060ff191682840152151560051b8201015f8080610b16565b9397969592610bc190610bb360c0979460ff9460018060a01b0316885260e0602089015260e0880190610265565b908682036040880152610265565b971660608401526080830152151560a08201520152565b3461012a57602036600319011261012a576001600160a01b0380610bfa610114565b165f525f60205260405f20908154166103ed610c1860018401610ae5565b92610c2560028201610ae5565b9060ff600382015416600482015490600660ff6005850154169301549360405197889788610b85565b3461012a57602036600319011261012a57610c77610c6a610114565b610c72611337565b610e98565b005b3461012a5760a036600319011261012a57610c92610114565b67ffffffffffffffff9060243582811161012a57610cb490369060040161080c565b9160443590811161012a57610ccd90369060040161080c565b916064359260ff8416840361012a57610df67f9b7431b775784a020ca3764d33088001f0f8e6451062804eb413b18f7933419893610d09611337565b6001600160a01b03811695610dc590610d23881515610f09565b610d2f86511515610f4d565b610d3b85511515610f99565b610d64610d5f6101a5600561019d8760018060a01b03165f525f60205260405f2090565b610fe5565b610d94610d6f6107fd565b6001600160a01b038516815291876020840152866040840152606083019060ff169052565b6084356080820152600160a08201524260c08201526001600160a01b0383165f908152602081905260409020611150565b610df181610dd286610862565b80546001600160a01b0319166001600160a01b03909216919091179055565b6112b9565b610203604051928392429184611309565b15610e0e57565b60405162461bcd60e51b8152602060048201526014602482015273546f6b656e20616c72656164792061637469766560601b6044820152606490fd5b67ffffffffffffffff81116107d65760051b60200190565b80518210156106085760209160051b010190565b5f198114610e845760010190565b634e487b7160e01b5f52601160045260245ffd5b6001600160a01b03908116908115610ef1575f805160206113ce83398151915280546001600160a01b031981168417909155167f8be0079c531659141344cd1fd0a4f28419497f9722a3daafe3b4186f6b6457e05f80a3565b604051631e4fbdf760e01b81525f6004820152602490fd5b15610f1057565b60405162461bcd60e51b8152602060048201526015602482015274496e76616c696420746f6b656e206164647265737360581b6044820152606490fd5b15610f5457565b60405162461bcd60e51b815260206004820152601a60248201527f546f6b656e206e616d652063616e6e6f7420626520656d7074790000000000006044820152606490fd5b15610fa057565b60405162461bcd60e51b815260206004820152601c60248201527f546f6b656e2073796d626f6c2063616e6e6f7420626520656d707479000000006044820152606490fd5b15610fec57565b60405162461bcd60e51b815260206004820152601860248201527f546f6b656e20616c7265616479207265676973746572656400000000000000006044820152606490fd5b601f821161103e57505050565b5f5260205f20906020601f840160051c83019310611076575b601f0160051c01905b81811061106b575050565b5f8155600101611060565b9091508190611057565b919091825167ffffffffffffffff81116107d6576110a8816110a28454610aad565b84611031565b602080601f83116001146110e9575081906110da9394955f926110de575b50508160011b915f199060031b1c19161790565b9055565b015190505f806110c6565b90601f198316956110fd855f5260205f2090565b925f905b88821061113857505083600195969710611120575b505050811b019055565b01515f1960f88460031b161c191690555f8080611116565b80600185968294968601518155019501930190611101565b815181546001600160a01b0319166001600160a01b03919091161781559060018083019060208084015180519267ffffffffffffffff84116107d6576111a08461119a8754610aad565b87611031565b602092601f8511600114611245575050826006959360c095936111d7935f926110de5750508160011b915f199060031b1c19161790565b90555b6111eb604082015160028601611080565b61120f6111fc606083015160ff1690565b600386019060ff1660ff19825416179055565b6080810151600485015561123e61122960a0830151151590565b600586019060ff801983541691151516179055565b0151910155565b929190601f1985169061125b875f5260205f2090565b945f915b8383106112a2575050509260019285926006989660c098961061128a575b505050811b0190556111da565b01515f1960f88460031b161c191690555f808061127d565b84860151875595860195948101949181019161125f565b600254600160401b8110156107d65760018101806002558110156106085760025f525f805160206113ae8339815191520180546001600160a01b0319166001600160a01b03909216919091179055565b93929161133290611324604093606088526060880190610265565b908682036020880152610265565b930152565b5f805160206113ce833981519152546001600160a01b0316330361135757565b60405163118cdaa760e01b8152336004820152602490fd5b61080a9061137b61137f565b610c725b60ff5f805160206113ee8339815191525460401c161561139b57565b604051631afcd79f60e31b8152600490fdfe405787fa12a823e0f2b7631cc41b3ba8828b3321ca811111fa75cd3aa3bb5ace9016d09d72d40fdae2fd8ceac6b6234c7706214fd39c1cd1e609a0528c199300f0c57e16840df040f15088dc2f81fe391c3923bec73e23a9662efc9c229c6a00a2646970667358221220fe64820114abad2978f2074129784a94ea6da535427df8c4264b5b8b31d5026264736f6c63430008160033","linkReferences":{}},"methodIdentifiers":{"allTokens(uint256)":"634282af","deactivateToken(address)":"68173bcf","getActiveTokenCount()":"93d85727","getActiveTokens()":"5f5817e3","getAllTokens()":"2a5c792a","getTokenByName(string)":"e73fc0c3","getTokenInfo(address)":"1f69565f","initialize(address)":"c4d66de8","isTokenRegistered(address)":"26aa101f","owner()":"8da5cb5b","reactivateToken(address)":"0d31916f","registerToken(address,string,string,uint8,uint256)":"f7134fe9","renounceOwnership()":"715018a6","tokenByName(string)":"7b6e7975","tokens(address)":"e4860339","transferOwnership(address)":"f2fde38b"},"id":6}