{"abi":[{"type":"constructor","inputs":[],"stateMutability":"nonpayable"},{"type":"function","name":"activateSystem","inputs":[],"outputs":[],"stateMutability":"nonpayable"},{"type":"function","name":"analyticsEngine","inputs":[],"outputs":[{"name":"","type":"address","internalType":"contract IAnalyticsEngine"}],"stateMutability":"view"},{"type":"function","name":"blacklistAddress","inputs":[{"name":"target","type":"address","internalType":"address"}],"outputs":[],"stateMutability":"nonpayable"},{"type":"function","name":"circuitBreaker","inputs":[],"outputs":[{"name":"","type":"address","internalType":"contract ICircuitBreaker"}],"stateMutability":"view"},{"type":"function","name":"configManager","inputs":[],"outputs":[{"name":"","type":"address","internalType":"contract IConfigManager"}],"stateMutability":"view"},{"type":"function","name":"createAlert","inputs":[{"name":"message","type":"string","internalType":"string"},{"name":"severity","type":"uint256","internalType":"uint256"}],"outputs":[],"stateMutability":"nonpayable"},{"type":"function","name":"createCircuit","inputs":[{"name":"circuitName","type":"string","internalType":"string"},{"name":"threshold","type":"uint256","internalType":"uint256"},{"name":"timeout","type":"uint256","internalType":"uint256"}],"outputs":[],"stateMutability":"nonpayable"},{"type":"function","name":"deactivateSystem","inputs":[],"outputs":[],"stateMutability":"nonpayable"},{"type":"function","name":"emergencyManager","inputs":[],"outputs":[{"name":"","type":"address","internalType":"contract IEmergencyManager"}],"stateMutability":"view"},{"type":"function","name":"emergencyPause","inputs":[],"outputs":[],"stateMutability":"nonpayable"},{"type":"function","name":"emergencyResume","inputs":[],"outputs":[],"stateMutability":"nonpayable"},{"type":"function","name":"eventLogger","inputs":[],"outputs":[{"name":"","type":"address","internalType":"contract IEventLogger"}],"stateMutability":"view"},{"type":"function","name":"getSystemStats","inputs":[],"outputs":[{"name":"isSystemActive","type":"bool","internalType":"bool"},{"name":"isEmergencyPaused","type":"bool","internalType":"bool"},{"name":"lastCheck","type":"uint256","internalType":"uint256"},{"name":"totalContracts","type":"uint256","internalType":"uint256"},{"name":"isSecurityHealthy","type":"bool","internalType":"bool"},{"name":"isMonitoringHealthy","type":"bool","internalType":"bool"},{"name":"isAnalyticsHealthy","type":"bool","internalType":"bool"},{"name":"isRateLimiterHealthy","type":"bool","internalType":"bool"},{"name":"isCircuitBreakerHealthy","type":"bool","internalType":"bool"}],"stateMutability":"view"},{"type":"function","name":"initialize","inputs":[{"name":"owner","type":"address","internalType":"address"},{"name":"_emergencyManager","type":"address","internalType":"address"},{"name":"_configManager","type":"address","internalType":"address"},{"name":"_securityUtils","type":"address","internalType":"address"},{"name":"_monitoringSystem","type":"address","internalType":"address"},{"name":"_eventLogger","type":"address","internalType":"address"},{"name":"_analyticsEngine","type":"address","internalType":"address"},{"name":"_rateLimiter","type":"address","internalType":"address"},{"name":"_circuitBreaker","type":"address","internalType":"address"},{"name":"_treasuryManager","type":"address","internalType":"address"}],"outputs":[],"stateMutability":"nonpayable"},{"type":"function","name":"lastSystemCheck","inputs":[],"outputs":[{"name":"","type":"uint256","internalType":"uint256"}],"stateMutability":"view"},{"type":"function","name":"logEvent","inputs":[{"name":"eventType","type":"string","internalType":"string"},{"name":"message","type":"string","internalType":"string"},{"name":"indexedAddress","type":"address","internalType":"address"},{"name":"data","type":"bytes","internalType":"bytes"}],"outputs":[],"stateMutability":"nonpayable"},{"type":"function","name":"monitoringSystem","inputs":[],"outputs":[{"name":"","type":"address","internalType":"contract IMonitoringSystem"}],"stateMutability":"view"},{"type":"function","name":"owner","inputs":[],"outputs":[{"name":"","type":"address","internalType":"address"}],"stateMutability":"view"},{"type":"function","name":"performSystemCheck","inputs":[],"outputs":[{"name":"","type":"bool","internalType":"bool"}],"stateMutability":"nonpayable"},{"type":"function","name":"rateLimiter","inputs":[],"outputs":[{"name":"","type":"address","internalType":"contract IRateLimiter"}],"stateMutability":"view"},{"type":"function","name":"recordCircuitFailure","inputs":[{"name":"circuitName","type":"string","internalType":"string"}],"outputs":[],"stateMutability":"nonpayable"},{"type":"function","name":"recordCircuitSuccess","inputs":[{"name":"circuitName","type":"string","internalType":"string"}],"outputs":[],"stateMutability":"nonpayable"},{"type":"function","name":"renounceOwnership","inputs":[],"outputs":[],"stateMutability":"nonpayable"},{"type":"function","name":"resolveAlert","inputs":[{"name":"alertId","type":"uint256","internalType":"uint256"}],"outputs":[],"stateMutability":"nonpayable"},{"type":"function","name":"securityUtils","inputs":[],"outputs":[{"name":"","type":"address","internalType":"contract ISecurityUtils"}],"stateMutability":"view"},{"type":"function","name":"setFunctionRateLimit","inputs":[{"name":"functionName","type":"string","internalType":"string"},{"name":"maxRequests","type":"uint256","internalType":"uint256"},{"name":"timeWindow","type":"uint256","internalType":"uint256"}],"outputs":[],"stateMutability":"nonpayable"},{"type":"function","name":"setUserRateLimit","inputs":[{"name":"user","type":"address","internalType":"address"},{"name":"maxRequests","type":"uint256","internalType":"uint256"},{"name":"timeWindow","type":"uint256","internalType":"uint256"}],"outputs":[],"stateMutability":"nonpayable"},{"type":"function","name":"systemActive","inputs":[],"outputs":[{"name":"","type":"bool","internalType":"bool"}],"stateMutability":"view"},{"type":"function","name":"toggleLogging","inputs":[],"outputs":[],"stateMutability":"nonpayable"},{"type":"function","name":"transferOwnership","inputs":[{"name":"newOwner","type":"address","internalType":"address"}],"outputs":[],"stateMutability":"nonpayable"},{"type":"function","name":"treasuryManager","inputs":[],"outputs":[{"name":"","type":"address","internalType":"contract ITreasuryManager"}],"stateMutability":"view"},{"type":"function","name":"triggerSecurityAlert","inputs":[{"name":"user","type":"address","internalType":"address"},{"name":"reason","type":"string","internalType":"string"}],"outputs":[],"stateMutability":"nonpayable"},{"type":"function","name":"updateGameAnalytics","inputs":[{"name":"gameType","type":"uint8","internalType":"uint8"},{"name":"totalGames","type":"uint256","internalType":"uint256"},{"name":"totalPlayers","type":"uint256","internalType":"uint256"},{"name":"totalVolume","type":"uint256","internalType":"uint256"},{"name":"averageTicketPrice","type":"uint256","internalType":"uint256"},{"name":"totalWinnings","type":"uint256","internalType":"uint256"}],"outputs":[],"stateMutability":"nonpayable"},{"type":"function","name":"updateGameConfig","inputs":[{"name":"gameType","type":"uint8","internalType":"uint8"},{"name":"ticketPrice","type":"uint256","internalType":"uint256"},{"name":"gameDuration","type":"uint256","internalType":"uint256"},{"name":"fee","type":"uint8","internalType":"uint8"},{"name":"maxTicketsPerPlayer","type":"uint256","internalType":"uint256"}],"outputs":[],"stateMutability":"nonpayable"},{"type":"function","name":"updateRateLimits","inputs":[{"name":"newMinInterval","type":"uint256","internalType":"uint256"},{"name":"newMaxInteractions","type":"uint256","internalType":"uint256"}],"outputs":[],"stateMutability":"nonpayable"},{"type":"function","name":"updateSystemAnalytics","inputs":[{"name":"totalUsers","type":"uint256","internalType":"uint256"},{"name":"totalVolume","type":"uint256","internalType":"uint256"},{"name":"totalTransactions","type":"uint256","internalType":"uint256"},{"name":"activeGames","type":"uint256","internalType":"uint256"},{"name":"totalWinnings","type":"uint256","internalType":"uint256"},{"name":"systemFees","type":"uint256","internalType":"uint256"}],"outputs":[],"stateMutability":"nonpayable"},{"type":"function","name":"updateSystemMetrics","inputs":[{"name":"transactions","type":"uint256","internalType":"uint256"},{"name":"volume","type":"uint256","internalType":"uint256"},{"name":"users","type":"uint256","internalType":"uint256"}],"outputs":[],"stateMutability":"nonpayable"},{"type":"function","name":"updateUserAnalytics","inputs":[{"name":"user","type":"address","internalType":"address"},{"name":"transactions","type":"uint256","internalType":"uint256"},{"name":"volume","type":"uint256","internalType":"uint256"},{"name":"gamesPlayed","type":"uint256","internalType":"uint256"},{"name":"winnings","type":"uint256","internalType":"uint256"},{"name":"referralEarnings","type":"uint256","internalType":"uint256"}],"outputs":[],"stateMutability":"nonpayable"},{"type":"function","name":"whitelistAddress","inputs":[{"name":"target","type":"address","internalType":"address"}],"outputs":[],"stateMutability":"nonpayable"},{"type":"event","name":"AnalyticsUpdated","inputs":[{"name":"user","type":"address","indexed":true,"internalType":"address"},{"name":"volume","type":"uint256","indexed":false,"internalType":"uint256"},{"name":"timestamp","type":"uint256","indexed":false,"internalType":"uint256"}],"anonymous":false},{"type":"event","name":"CircuitBreakerTriggered","inputs":[{"name":"circuitName","type":"string","indexed":true,"internalType":"string"},{"name":"timestamp","type":"uint256","indexed":false,"internalType":"uint256"}],"anonymous":false},{"type":"event","name":"ContractAddressUpdated","inputs":[{"name":"contractName","type":"string","indexed":false,"internalType":"string"},{"name":"oldAddress","type":"address","indexed":false,"internalType":"address"},{"name":"newAddress","type":"address","indexed":false,"internalType":"address"}],"anonymous":false},{"type":"event","name":"Initialized","inputs":[{"name":"version","type":"uint64","indexed":false,"internalType":"uint64"}],"anonymous":false},{"type":"event","name":"OwnershipTransferred","inputs":[{"name":"previousOwner","type":"address","indexed":true,"internalType":"address"},{"name":"newOwner","type":"address","indexed":true,"internalType":"address"}],"anonymous":false},{"type":"event","name":"RateLimitExceeded","inputs":[{"name":"user","type":"address","indexed":true,"internalType":"address"},{"name":"functionName","type":"string","indexed":true,"internalType":"string"},{"name":"timestamp","type":"uint256","indexed":false,"internalType":"uint256"}],"anonymous":false},{"type":"event","name":"SecurityAlertTriggered","inputs":[{"name":"user","type":"address","indexed":true,"internalType":"address"},{"name":"reason","type":"string","indexed":false,"internalType":"string"},{"name":"timestamp","type":"uint256","indexed":false,"internalType":"uint256"}],"anonymous":false},{"type":"event","name":"SystemActivated","inputs":[{"name":"timestamp","type":"uint256","indexed":false,"internalType":"uint256"}],"anonymous":false},{"type":"event","name":"SystemCheckPerformed","inputs":[{"name":"timestamp","type":"uint256","indexed":false,"internalType":"uint256"},{"name":"isHealthy","type":"bool","indexed":false,"internalType":"bool"}],"anonymous":false},{"type":"event","name":"SystemDeactivated","inputs":[{"name":"timestamp","type":"uint256","indexed":false,"internalType":"uint256"}],"anonymous":false},{"type":"event","name":"SystemInitialized","inputs":[{"name":"emergencyManager","type":"address","indexed":true,"internalType":"address"},{"name":"configManager","type":"address","indexed":true,"internalType":"address"},{"name":"securityUtils","type":"address","indexed":false,"internalType":"address"},{"name":"monitoringSystem","type":"address","indexed":false,"internalType":"address"},{"name":"eventLogger","type":"address","indexed":false,"internalType":"address"},{"name":"analyticsEngine","type":"address","indexed":false,"internalType":"address"},{"name":"rateLimiter","type":"address","indexed":false,"internalType":"address"},{"name":"circuitBreaker","type":"address","indexed":false,"internalType":"address"},{"name":"treasuryManager","type":"address","indexed":false,"internalType":"address"},{"name":"timestamp","type":"uint256","indexed":false,"internalType":"uint256"}],"anonymous":false},{"type":"error","name":"InvalidInitialization","inputs":[]},{"type":"error","name":"NotInitializing","inputs":[]},{"type":"error","name":"OwnableInvalidOwner","inputs":[{"name":"owner","type":"address","internalType":"address"}]},{"type":"error","name":"OwnableUnauthorizedAccount","inputs":[{"name":"account","type":"address","internalType":"address"}]}],"bytecode":{"object":"0x608060405234801562000010575f80fd5b506200001b62000021565b620000d5565b7ff0c57e16840df040f15088dc2f81fe391c3923bec73e23a9662efc9c229c6a00805468010000000000000000900460ff1615620000725760405163f92ee8a960e01b815260040160405180910390fd5b80546001600160401b0390811614620000d25780546001600160401b0319166001600160401b0390811782556040519081527fc7f505b2f371ae2175ee4913f4499e1f2633a7b5936321eed1cdaeb6115181d29060200160405180910390a15b50565b61264a80620000e35f395ff3fe608060405234801561000f575f80fd5b5060043610610234575f3560e01c80637f60bcb011610135578063ca0ab075116100b4578063e24dc40911610079578063e24dc40914610504578063e37c983c14610517578063e3eba0731461052a578063f2fde38b1461053d578063f3290d7514610550575f80fd5b8063ca0ab07514610463578063d1ce59a714610476578063d2c18f59146104cc578063d4170139146104de578063d8649dfd146104f1575f80fd5b80639e608c5a116100fa5780639e608c5a1461040f578063abce6f8e14610417578063aca78bc81461042a578063c144f3fc1461043d578063c306b37814610450575f80fd5b80637f60bcb0146103a95780638232d019146103bc5780638da5cb5b146103c45780638f0591d3146103f457806393c87f0314610407575f80fd5b80633431d5c9116101c157806351858e271161018657806351858e271461035c57806353d4fe33146103645780636ea0272514610377578063715018a61461038e57806379b9d40a14610396575f80fd5b80633431d5c91461030757806339da8bd11461031b5780633cea70d91461032357806341566585146103365780634c41291014610349575f80fd5b80631b7bd2b8116102075780631b7bd2b8146102a857806329580216146102bb57806329991184146102ce5780632c92d2db146102e15780632e0e053f146102f4575f80fd5b8063016b04151461023857806307d64b86146102685780630decca1a1461027d57806316efd94114610295575b5f80fd5b60025461024b906001600160a01b031681565b6040516001600160a01b0390911681526020015b60405180910390f35b61027b610276366004611d95565b610563565b005b6102856105d1565b604051901515815260200161025f565b60075461024b906001600160a01b031681565b61027b6102b6366004611df3565b61093c565b61027b6102c9366004611e25565b610984565b60045461024b906001600160a01b031681565b61027b6102ef366004611ecf565b6109f4565b61027b610302366004611ef8565b610a3b565b60085461028590600160a01b900460ff1681565b61027b610aa0565b60085461024b906001600160a01b031681565b61027b610344366004611f0f565b610b01565b61027b610357366004611f2a565b610b3b565b61027b610beb565b60065461024b906001600160a01b031681565b61038060095481565b60405190815260200161025f565b61027b610c32565b61027b6103a4366004611f79565b610c45565b60055461024b906001600160a01b031681565b61027b610ccc565b7f9016d09d72d40fdae2fd8ceac6b6234c7706214fd39c1cd1e609a0528c199300546001600160a01b031661024b565b61027b610402366004611fc3565b610d17565b61027b610d84565b61027b610dcb565b60035461024b906001600160a01b031681565b61027b610438366004611d95565b610e18565b61027b61044b366004611fe3565b610e54565b61027b61045e366004612030565b610f02565b60015461024b906001600160a01b031681565b61047e61154e565b604080519915158a5297151560208a01529688019590955260608701939093529015156080860152151560a0850152151560c0840152151560e083015215156101008201526101200161025f565b5f5461024b906001600160a01b031681565b61027b6104ec3660046120fa565b611905565b61027b6104ff366004612139565b611992565b61027b610512366004611f2a565b6119cc565b61027b61052536600461217b565b611a04565b61027b6105383660046121c1565b611a62565b61027b61054b366004611f0f565b611b32565b61027b61055e366004611f0f565b611b6f565b61056b611ba9565b6006546040516303eb25c360e11b81526001600160a01b03909116906307d64b869061059f9086908690869060040161222e565b5f604051808303815f87803b1580156105b6575f80fd5b505af11580156105c8573d5f803e3d5ffd5b50505050505050565b5f6105da611ba9565b5f5460408051630a43443160e21b815290516001926001600160a01b03169163290d10c49160048083019260209291908290030181865afa92505050801561063f575060408051601f3d908101601f1916820190925261063c91810190612261565b60015b61064a57505f610656565b8015610654575f91505b505b600154604051637888b66560e11b815260206004820152600e60248201526d6d696e5469636b6574507269636560901b60448201526001600160a01b039091169063f1116cca90606401602060405180830381865afa9250505080156106d9575060408051601f3d908101601f191682019092526106d69181019061227a565b60015b6106e457505f6106e6565b505b60035f9054906101000a90046001600160a01b03166001600160a01b031663cbfe399a6040518163ffffffff1660e01b81526004016020604051808303815f875af1925050508015610755575060408051601f3d908101601f1916820190925261075291810190612261565b60015b61076057505f61076b565b80610769575f91505b505b60055f9054906101000a90046001600160a01b03166001600160a01b031663ca5cd1626040518163ffffffff1660e01b815260040160a060405180830381865afa9250505080156107d9575060408051601f3d908101601f191682019092526107d691810190612291565b60015b6107e457505f6107ea565b50505050505b60065460408051639f427bd960e01b81525f60048201819052602482019290925260448101919091526001600160a01b0390911690639f427bd99060640161018060405180830381865afa925050508015610862575060408051601f3d908101601f1916820190925261085f918101906122d4565b60015b61086d57505f61087a565b5050505050505050505050505b60075460405163ad00229560e01b8152602060048201525f60248201526001600160a01b039091169063ad0022959060440160c060405180830381865afa9250505080156108e5575060408051601f3d908101601f191682019092526108e29181019061236a565b60015b6108f057505f6108f7565b5050505050505b4260098190556040805191825282151560208301527f65e598f4174b3dfc487b841b4ccc91f4943bb2c4be074eb7ae5084fcdeb64fcb910160405180910390a1905090565b610944611ba9565b60065460405163036f7a5760e31b81526001600160a01b038581166004830152602482018590526044820184905290911690631b7bd2b89060640161059f565b61098c611ba9565b600480546040516314ac010b60e11b81526001600160a01b03909116916329580216916109c1918891889188918891016123c5565b5f604051808303815f87803b1580156109d8575f80fd5b505af11580156109ea573d5f803e3d5ffd5b5050505050505050565b6109fc611ba9565b600354604051633c047e1360e01b81526004810185905260248101849052604481018390526001600160a01b0390911690633c047e139060640161059f565b610a43611ba9565b600354604051632e0e053f60e01b8152600481018390526001600160a01b0390911690632e0e053f906024015b5f604051808303815f87803b158015610a87575f80fd5b505af1158015610a99573d5f803e3d5ffd5b5050505050565b610aa8611ba9565b60048054604080516339da8bd160e01b815290516001600160a01b03909216926339da8bd192828201925f929082900301818387803b158015610ae9575f80fd5b505af1158015610afb573d5f803e3d5ffd5b50505050565b610b09611ba9565b600254604051634156658560e01b81526001600160a01b03838116600483015290911690634156658590602401610a70565b610b43611ba9565b60075460405163eb4f879560e01b81526001600160a01b039091169063eb4f879590610b73908490600401612417565b5f604051808303815f87803b158015610b8a575f80fd5b505af1158015610b9c573d5f803e3d5ffd5b5050505080604051610bae9190612429565b604051908190038120428252907f9a67283e259b60ad992613fe36fe808ce9a65fc69b7893a856fbe5f926f251849060200160405180910390a250565b610bf3611ba9565b5f8054604080516351858e2760e01b815290516001600160a01b03909216926351858e279260048084019382900301818387803b158015610ae9575f80fd5b610c3a611ba9565b610c435f611c04565b565b610c4d611ba9565b600154604051633cdcea0560e11b815260ff8088166004830152602482018790526044820186905284166064820152608481018390526001600160a01b03909116906379b9d40a9060a4015f604051808303815f87803b158015610caf575f80fd5b505af1158015610cc1573d5f803e3d5ffd5b505050505050505050565b610cd4611ba9565b6008805460ff60a01b191690556040514281527fe6dc88d2eb2083a6abc7af46ab65aefee04707bc7c523c8e0e069db83e1ef357906020015b60405180910390a1565b610d1f611ba9565b600254604051638f0591d360e01b815260048101849052602481018390526001600160a01b0390911690638f0591d3906044015b5f604051808303815f87803b158015610d6a575f80fd5b505af1158015610d7c573d5f803e3d5ffd5b505050505050565b610d8c611ba9565b5f8054604080516393c87f0360e01b815290516001600160a01b03909216926393c87f039260048084019382900301818387803b158015610ae9575f80fd5b610dd3611ba9565b6008805460ff60a01b1916600160a01b1790556040517f92cda91bf19e66302d312b84686994308bea9ec8a3dc14597a913fec2cc7eba990610d0d9042815260200190565b610e20611ba9565b600754604051631594f17960e31b81526001600160a01b039091169063aca78bc89061059f9086908690869060040161222e565b610e5c611ba9565b600254604051630749f6e160e21b81526001600160a01b0390911690631d27db8490610e8e9085908590600401612444565b5f604051808303815f87803b158015610ea5575f80fd5b505af1158015610eb7573d5f803e3d5ffd5b50505050816001600160a01b03167f737371d2e1651f7fd9c9d28d6dee5d4f43cb53472bf025f25fbce725e50bc51a8242604051610ef6929190612467565b60405180910390a25050565b7ff0c57e16840df040f15088dc2f81fe391c3923bec73e23a9662efc9c229c6a008054600160401b810460ff16159067ffffffffffffffff165f81158015610f475750825b90505f8267ffffffffffffffff166001148015610f635750303b155b905081158015610f71575080155b15610f8f5760405163f92ee8a960e01b815260040160405180910390fd5b845467ffffffffffffffff191660011785558315610fb957845460ff60401b1916600160401b1785555b610fc28f611c74565b6001600160a01b038e166110275760405162461bcd60e51b815260206004820152602160248201527f496e76616c696420656d657267656e6379206d616e61676572206164647265736044820152607360f81b60648201526084015b60405180910390fd5b6001600160a01b038d1661107d5760405162461bcd60e51b815260206004820152601e60248201527f496e76616c696420636f6e666967206d616e6167657220616464726573730000604482015260640161101e565b6001600160a01b038c166110d35760405162461bcd60e51b815260206004820152601e60248201527f496e76616c6964207365637572697479207574696c7320616464726573730000604482015260640161101e565b6001600160a01b038b166111335760405162461bcd60e51b815260206004820152602160248201527f496e76616c6964206d6f6e69746f72696e672073797374656d206164647265736044820152607360f81b606482015260840161101e565b6001600160a01b038a166111895760405162461bcd60e51b815260206004820152601c60248201527f496e76616c6964206576656e74206c6f67676572206164647265737300000000604482015260640161101e565b6001600160a01b0389166111df5760405162461bcd60e51b815260206004820181905260248201527f496e76616c696420616e616c797469637320656e67696e652061646472657373604482015260640161101e565b6001600160a01b0388166112355760405162461bcd60e51b815260206004820152601c60248201527f496e76616c69642072617465206c696d69746572206164647265737300000000604482015260640161101e565b6001600160a01b03871661128b5760405162461bcd60e51b815260206004820152601f60248201527f496e76616c6964206369726375697420627265616b6572206164647265737300604482015260640161101e565b6001600160a01b0386166112e15760405162461bcd60e51b815260206004820181905260248201527f496e76616c6964207472656173757279206d616e616765722061646472657373604482015260640161101e565b8d5f806101000a8154816001600160a01b0302191690836001600160a01b031602179055508c60015f6101000a8154816001600160a01b0302191690836001600160a01b031602179055508b60025f6101000a8154816001600160a01b0302191690836001600160a01b031602179055508a60035f6101000a8154816001600160a01b0302191690836001600160a01b031602179055508960045f6101000a8154816001600160a01b0302191690836001600160a01b031602179055508860055f6101000a8154816001600160a01b0302191690836001600160a01b031602179055508760065f6101000a8154816001600160a01b0302191690836001600160a01b031602179055508660075f6101000a8154816001600160a01b0302191690836001600160a01b031602179055508560085f6101000a8154816001600160a01b0302191690836001600160a01b031602179055506001600860146101000a81548160ff021916908315150217905550426009819055508c6001600160a01b03168e6001600160a01b03167f37e430d5c9b7c78ce4e3b6ce70516cc14677812974e21c91df4714b3d8b9d63a8e8e8e8e8e8e8e426040516114ef9897969594939291906001600160a01b0398891681529688166020880152948716604087015292861660608601529085166080850152841660a084015290921660c082015260e08101919091526101000190565b60405180910390a3831561153d57845460ff60401b19168555604051600181527fc7f505b2f371ae2175ee4913f4499e1f2633a7b5936321eed1cdaeb6115181d29060200160405180910390a15b505050505050505050505050505050565b600254604051632721b01d60e11b81525f60048201819052918291829182918291829182918291829160019182918291829182916001600160a01b0390911690634e43603a90602401608060405180830381865afa9250505080156115d0575060408051601f3d908101601f191682019092526115cd91810190612488565b60015b6115dc575f94506115e1565b505050505b60035f9054906101000a90046001600160a01b03166001600160a01b031663d1ce59a76040518163ffffffff1660e01b815260040161010060405180830381865afa925050508015611650575060408051601f3d908101601f1916820190925261164d918101906124cb565b60015b61165c575f9350611661565b505050505b60055f9054906101000a90046001600160a01b03166001600160a01b031663ca5cd1626040518163ffffffff1660e01b815260040160a060405180830381865afa9250505080156116cf575060408051601f3d908101601f191682019092526116cc91810190612291565b60015b6116db575f92506116e1565b50505050505b60065460408051639f427bd960e01b81525f60048201819052602482019290925260448101919091526001600160a01b0390911690639f427bd99060640161018060405180830381865afa925050508015611759575060408051601f3d908101601f19168201909252611756918101906122d4565b60015b611765575f9150611772565b5050505050505050505050505b60075460405163ad00229560e01b8152602060048201525f60248201526001600160a01b039091169063ad0022959060440160c060405180830381865afa9250505080156117dd575060408051601f3d908101601f191682019092526117da9181019061236a565b60015b6117e857505f6117ef565b5050505050505b600860149054906101000a900460ff165f8054906101000a90046001600160a01b03166001600160a01b031663290d10c46040518163ffffffff1660e01b8152600401602060405180830381865afa15801561184d573d5f803e3d5ffd5b505050506040513d601f19601f820116820180604052508101906118719190612261565b6009545f805460408051630c69e74b60e11b815290516001600160a01b03909216926318d3ce96926004808401938290030181865afa1580156118b6573d5f803e3d5ffd5b505050506040513d5f823e601f3d908101601f191682016040526118dd9190810190612567565b5188888888889d509d509d509d509d509d509d509d509d505050505050909192939495969798565b61190d611ba9565b60055460405163d417013960e01b8152600481018890526024810187905260448101869052606481018590526084810184905260a481018390526001600160a01b039091169063d41701399060c4015b5f604051808303815f87803b158015611974575f80fd5b505af1158015611986573d5f803e3d5ffd5b50505050505050505050565b61199a611ba9565b60035460405163d8649dfd60e01b81526001600160a01b039091169063d8649dfd90610d539085908590600401612467565b6119d4611ba9565b600754604051634f52315f60e11b81526001600160a01b0390911690639ea462be90610a70908490600401612417565b611a0c611ba9565b6005546040516338df260f60e21b815260ff881660048201526024810187905260448101869052606481018590526084810184905260a481018390526001600160a01b039091169063e37c983c9060c40161195d565b611a6a611ba9565b60055460405163e3eba07360e01b81526001600160a01b0388811660048301526024820188905260448201879052606482018690526084820185905260a482018490529091169063e3eba0739060c4015f604051808303815f87803b158015611ad1575f80fd5b505af1158015611ae3573d5f803e3d5ffd5b5050604080518781524260208201526001600160a01b038a1693507f80141e7674a4ea3634db4298d3cd9a66cc27a817058095a988b8ebbb2f938c9392500160405180910390a2505050505050565b611b3a611ba9565b6001600160a01b038116611b6357604051631e4fbdf760e01b81525f600482015260240161101e565b611b6c81611c04565b50565b611b77611ba9565b60025460405163f3290d7560e01b81526001600160a01b0383811660048301529091169063f3290d7590602401610a70565b33611bdb7f9016d09d72d40fdae2fd8ceac6b6234c7706214fd39c1cd1e609a0528c199300546001600160a01b031690565b6001600160a01b031614610c435760405163118cdaa760e01b815233600482015260240161101e565b7f9016d09d72d40fdae2fd8ceac6b6234c7706214fd39c1cd1e609a0528c19930080546001600160a01b031981166001600160a01b03848116918217845560405192169182907f8be0079c531659141344cd1fd0a4f28419497f9722a3daafe3b4186f6b6457e0905f90a3505050565b611c7c611c85565b611b6c81611cce565b7ff0c57e16840df040f15088dc2f81fe391c3923bec73e23a9662efc9c229c6a0054600160401b900460ff16610c4357604051631afcd79f60e31b815260040160405180910390fd5b611b3a611c85565b634e487b7160e01b5f52604160045260245ffd5b604051601f8201601f1916810167ffffffffffffffff81118282101715611d1357611d13611cd6565b604052919050565b5f67ffffffffffffffff831115611d3457611d34611cd6565b611d47601f8401601f1916602001611cea565b9050828152838383011115611d5a575f80fd5b828260208301375f602084830101529392505050565b5f82601f830112611d7f575f80fd5b611d8e83833560208501611d1b565b9392505050565b5f805f60608486031215611da7575f80fd5b833567ffffffffffffffff811115611dbd575f80fd5b611dc986828701611d70565b9660208601359650604090950135949350505050565b6001600160a01b0381168114611b6c575f80fd5b5f805f60608486031215611e05575f80fd5b8335611e1081611ddf565b95602085013595506040909401359392505050565b5f805f8060808587031215611e38575f80fd5b843567ffffffffffffffff80821115611e4f575f80fd5b611e5b88838901611d70565b95506020870135915080821115611e70575f80fd5b611e7c88838901611d70565b945060408701359150611e8e82611ddf565b90925060608601359080821115611ea3575f80fd5b508501601f81018713611eb4575f80fd5b611ec387823560208401611d1b565b91505092959194509250565b5f805f60608486031215611ee1575f80fd5b505081359360208301359350604090920135919050565b5f60208284031215611f08575f80fd5b5035919050565b5f60208284031215611f1f575f80fd5b8135611d8e81611ddf565b5f60208284031215611f3a575f80fd5b813567ffffffffffffffff811115611f50575f80fd5b611f5c84828501611d70565b949350505050565b803560ff81168114611f74575f80fd5b919050565b5f805f805f60a08688031215611f8d575f80fd5b611f9686611f64565b94506020860135935060408601359250611fb260608701611f64565b949793965091946080013592915050565b5f8060408385031215611fd4575f80fd5b50508035926020909101359150565b5f8060408385031215611ff4575f80fd5b8235611fff81611ddf565b9150602083013567ffffffffffffffff81111561201a575f80fd5b61202685828601611d70565b9150509250929050565b5f805f805f805f805f806101408b8d03121561204a575f80fd5b8a3561205581611ddf565b995060208b013561206581611ddf565b985060408b013561207581611ddf565b975060608b013561208581611ddf565b965060808b013561209581611ddf565b955060a08b01356120a581611ddf565b945060c08b01356120b581611ddf565b935060e08b01356120c581611ddf565b92506101008b01356120d681611ddf565b91506101208b01356120e781611ddf565b809150509295989b9194979a5092959850565b5f805f805f8060c0878903121561210f575f80fd5b505084359660208601359650604086013595606081013595506080810135945060a0013592509050565b5f806040838503121561214a575f80fd5b823567ffffffffffffffff811115612160575f80fd5b61216c85828601611d70565b95602094909401359450505050565b5f805f805f8060c08789031215612190575f80fd5b61219987611f64565b9860208801359850604088013597606081013597506080810135965060a00135945092505050565b5f805f805f8060c087890312156121d6575f80fd5b863561219981611ddf565b5f5b838110156121fb5781810151838201526020016121e3565b50505f910152565b5f815180845261221a8160208601602086016121e1565b601f01601f19169290920160200192915050565b606081525f6122406060830186612203565b60208301949094525060400152919050565b80518015158114611f74575f80fd5b5f60208284031215612271575f80fd5b611d8e82612252565b5f6020828403121561228a575f80fd5b5051919050565b5f805f805f60a086880312156122a5575f80fd5b6122ae86612252565b602087015160408801516060890151608090990151929a91995097965090945092505050565b5f805f805f805f805f805f806101808d8f0312156122f0575f80fd5b6122f98d612252565b9b5060208d01519a5060408d0151995060608d0151985061231c60808e01612252565b975060a08d0151965060c08d0151955060e08d015194506123406101008e01612252565b93506101208d015192506101408d015191506101608d015190509295989b509295989b509295989b565b5f805f805f8060c0878903121561237f575f80fd5b86516003811061238d575f80fd5b80965050602087015194506040870151935060608701519250608087015191506123b960a08801612252565b90509295509295509295565b608081525f6123d76080830187612203565b82810360208401526123e98187612203565b6001600160a01b03861660408501528381036060850152905061240c8185612203565b979650505050505050565b602081525f611d8e6020830184612203565b5f825161243a8184602087016121e1565b9190910192915050565b6001600160a01b03831681526040602082018190525f90611f5c90830184612203565b604081525f6124796040830185612203565b90508260208301529392505050565b5f805f806080858703121561249b575f80fd5b6124a485612252565b935060208501519250604085015191506124c060608601612252565b905092959194509250565b5f805f808486036101008112156124e0575f80fd5b60a08112156124ed575f80fd5b5060405160a0810181811067ffffffffffffffff8211171561251157612511611cd6565b80604052508551815260208601516020820152604086015160408201526060860151606082015261254460808701612252565b608082015260a086015160c087015160e090970151919890975090945092505050565b5f6020808385031215612578575f80fd5b825167ffffffffffffffff8082111561258f575f80fd5b818501915085601f8301126125a2575f80fd5b8151818111156125b4576125b4611cd6565b8060051b91506125c5848301611cea565b81815291830184019184810190888411156125de575f80fd5b938501935b8385101561260857845192506125f883611ddf565b82825293850193908501906125e3565b9897505050505050505056fea2646970667358221220ab7b804e7aaf7a2dbaa5969228279330f15e336a22cd321f7c5eeb4926e40e4164736f6c63430008160033","linkReferences":{}},"methodIdentifiers":{"activateSystem()":"9e608c5a","analyticsEngine()":"7f60bcb0","blacklistAddress(address)":"f3290d75","circuitBreaker()":"16efd941","configManager()":"ca0ab075","createAlert(string,uint256)":"d8649dfd","createCircuit(string,uint256,uint256)":"aca78bc8","deactivateSystem()":"8232d019","emergencyManager()":"d2c18f59","emergencyPause()":"51858e27","emergencyResume()":"93c87f03","eventLogger()":"29991184","getSystemStats()":"d1ce59a7","initialize(address,address,address,address,address,address,address,address,address,address)":"c306b378","lastSystemCheck()":"6ea02725","logEvent(string,string,address,bytes)":"29580216","monitoringSystem()":"abce6f8e","owner()":"8da5cb5b","performSystemCheck()":"0decca1a","rateLimiter()":"53d4fe33","recordCircuitFailure(string)":"4c412910","recordCircuitSuccess(string)":"e24dc409","renounceOwnership()":"715018a6","resolveAlert(uint256)":"2e0e053f","securityUtils()":"016b0415","setFunctionRateLimit(string,uint256,uint256)":"07d64b86","setUserRateLimit(address,uint256,uint256)":"1b7bd2b8","systemActive()":"3431d5c9","toggleLogging()":"39da8bd1","transferOwnership(address)":"f2fde38b","treasuryManager()":"3cea70d9","triggerSecurityAlert(address,string)":"c144f3fc","updateGameAnalytics(uint8,uint256,uint256,uint256,uint256,uint256)":"e37c983c","updateGameConfig(uint8,uint256,uint256,uint8,uint256)":"79b9d40a","updateRateLimits(uint256,uint256)":"8f0591d3","updateSystemAnalytics(uint256,uint256,uint256,uint256,uint256,uint256)":"d4170139","updateSystemMetrics(uint256,uint256,uint256)":"2c92d2db","updateUserAnalytics(address,uint256,uint256,uint256,uint256,uint256)":"e3eba073","whitelistAddress(address)":"41566585"},"storageLayout":{"storage":[{"astId":12086,"contract":"contracts/modules/treasury/SystemManager.sol:SystemManager","label":"emergencyManager","offset":0,"slot":"0","type":"t_contract(IEmergencyManager)15392"},{"astId":12089,"contract":"contracts/modules/treasury/SystemManager.sol:SystemManager","label":"configManager","offset":0,"slot":"1","type":"t_contract(IConfigManager)15076"},{"astId":12092,"contract":"contracts/modules/treasury/SystemManager.sol:SystemManager","label":"securityUtils","offset":0,"slot":"2","type":"t_contract(ISecurityUtils)15845"},{"astId":12095,"contract":"contracts/modules/treasury/SystemManager.sol:SystemManager","label":"monitoringSystem","offset":0,"slot":"3","type":"t_contract(IMonitoringSystem)15665"},{"astId":12098,"contract":"contracts/modules/treasury/SystemManager.sol:SystemManager","label":"eventLogger","offset":0,"slot":"4","type":"t_contract(IEventLogger)15418"},{"astId":12101,"contract":"contracts/modules/treasury/SystemManager.sol:SystemManager","label":"analyticsEngine","offset":0,"slot":"5","type":"t_contract(IAnalyticsEngine)14664"},{"astId":12104,"contract":"contracts/modules/treasury/SystemManager.sol:SystemManager","label":"rateLimiter","offset":0,"slot":"6","type":"t_contract(IRateLimiter)15791"},{"astId":12107,"contract":"contracts/modules/treasury/SystemManager.sol:SystemManager","label":"circuitBreaker","offset":0,"slot":"7","type":"t_contract(ICircuitBreaker)15006"},{"astId":12110,"contract":"contracts/modules/treasury/SystemManager.sol:SystemManager","label":"treasuryManager","offset":0,"slot":"8","type":"t_contract(ITreasuryManager)16084"},{"astId":12112,"contract":"contracts/modules/treasury/SystemManager.sol:SystemManager","label":"systemActive","offset":20,"slot":"8","type":"t_bool"},{"astId":12114,"contract":"contracts/modules/treasury/SystemManager.sol:SystemManager","label":"lastSystemCheck","offset":0,"slot":"9","type":"t_uint256"}],"types":{"t_bool":{"encoding":"inplace","label":"bool","numberOfBytes":"1"},"t_contract(IAnalyticsEngine)14664":{"encoding":"inplace","label":"contract IAnalyticsEngine","numberOfBytes":"20"},"t_contract(ICircuitBreaker)15006":{"encoding":"inplace","label":"contract ICircuitBreaker","numberOfBytes":"20"},"t_contract(IConfigManager)15076":{"encoding":"inplace","label":"contract IConfigManager","numberOfBytes":"20"},"t_contract(IEmergencyManager)15392":{"encoding":"inplace","label":"contract IEmergencyManager","numberOfBytes":"20"},"t_contract(IEventLogger)15418":{"encoding":"inplace","label":"contract IEventLogger","numberOfBytes":"20"},"t_contract(IMonitoringSystem)15665":{"encoding":"inplace","label":"contract IMonitoringSystem","numberOfBytes":"20"},"t_contract(IRateLimiter)15791":{"encoding":"inplace","label":"contract IRateLimiter","numberOfBytes":"20"},"t_contract(ISecurityUtils)15845":{"encoding":"inplace","label":"contract ISecurityUtils","numberOfBytes":"20"},"t_contract(ITreasuryManager)16084":{"encoding":"inplace","label":"contract ITreasuryManager","numberOfBytes":"20"},"t_uint256":{"encoding":"inplace","label":"uint256","numberOfBytes":"32"}}},"id":15}