{"abi":[{"type":"constructor","inputs":[],"stateMutability":"nonpayable"},{"type":"function","name":"allPlayers","inputs":[{"name":"","type":"uint256","internalType":"uint256"}],"outputs":[{"name":"","type":"address","internalType":"address"}],"stateMutability":"view"},{"type":"function","name":"gameWinners","inputs":[{"name":"","type":"uint256","internalType":"uint256"}],"outputs":[{"name":"","type":"address","internalType":"address"}],"stateMutability":"view"},{"type":"function","name":"getBatchWinnerStats","inputs":[{"name":"players","type":"address[]","internalType":"address[]"}],"outputs":[{"name":"winnerCounts","type":"uint256[]","internalType":"uint256[]"},{"name":"totalWinningsArray","type":"uint256[]","internalType":"uint256[]"}],"stateMutability":"view"},{"type":"function","name":"getGameWinner","inputs":[{"name":"game","type":"uint256","internalType":"uint256"}],"outputs":[{"name":"","type":"address","internalType":"address"}],"stateMutability":"view"},{"type":"function","name":"getPlayerStats","inputs":[{"name":"player","type":"address","internalType":"address"}],"outputs":[{"name":"wins","type":"uint256","internalType":"uint256"},{"name":"totalWon","type":"uint256","internalType":"uint256"},{"name":"hasWon","type":"bool","internalType":"bool"}],"stateMutability":"view"},{"type":"function","name":"getTopPlayerAnalysis","inputs":[{"name":"count","type":"uint256","internalType":"uint256"}],"outputs":[{"name":"players","type":"address[]","internalType":"address[]"},{"name":"scores","type":"uint256[]","internalType":"uint256[]"},{"name":"winRates","type":"uint256[]","internalType":"uint256[]"}],"stateMutability":"view"},{"type":"function","name":"getTopPlayers","inputs":[{"name":"count","type":"uint256","internalType":"uint256"}],"outputs":[{"name":"topPlayers","type":"address[]","internalType":"address[]"},{"name":"scores","type":"uint256[]","internalType":"uint256[]"}],"stateMutability":"view"},{"type":"function","name":"getTopWinners","inputs":[{"name":"count","type":"uint256","internalType":"uint256"}],"outputs":[{"name":"topWinners","type":"address[]","internalType":"address[]"}],"stateMutability":"view"},{"type":"function","name":"getTotalWinnings","inputs":[{"name":"player","type":"address","internalType":"address"}],"outputs":[{"name":"","type":"uint256","internalType":"uint256"}],"stateMutability":"view"},{"type":"function","name":"getWinnerCount","inputs":[{"name":"player","type":"address","internalType":"address"}],"outputs":[{"name":"","type":"uint256","internalType":"uint256"}],"stateMutability":"view"},{"type":"function","name":"newWinner","inputs":[{"name":"winner","type":"address","internalType":"address"},{"name":"game","type":"uint256","internalType":"uint256"},{"name":"players","type":"uint256","internalType":"uint256"},{"name":"amount","type":"uint256","internalType":"uint256"},{"name":"gameType","type":"uint8","internalType":"uint8"},{"name":"winnerIndex","type":"uint256","internalType":"uint256"}],"outputs":[],"stateMutability":"nonpayable"},{"type":"function","name":"owner","inputs":[],"outputs":[{"name":"","type":"address","internalType":"address"}],"stateMutability":"view"},{"type":"function","name":"playerScores","inputs":[{"name":"","type":"address","internalType":"address"}],"outputs":[{"name":"","type":"uint256","internalType":"uint256"}],"stateMutability":"view"},{"type":"function","name":"renounceOwnership","inputs":[],"outputs":[],"stateMutability":"nonpayable"},{"type":"function","name":"totalWinnings","inputs":[{"name":"","type":"address","internalType":"address"}],"outputs":[{"name":"","type":"uint256","internalType":"uint256"}],"stateMutability":"view"},{"type":"function","name":"transferOwnership","inputs":[{"name":"newOwner","type":"address","internalType":"address"}],"outputs":[],"stateMutability":"nonpayable"},{"type":"function","name":"winnerCount","inputs":[{"name":"","type":"address","internalType":"address"}],"outputs":[{"name":"","type":"uint256","internalType":"uint256"}],"stateMutability":"view"},{"type":"event","name":"OwnershipTransferred","inputs":[{"name":"previousOwner","type":"address","indexed":true,"internalType":"address"},{"name":"newOwner","type":"address","indexed":true,"internalType":"address"}],"anonymous":false},{"type":"event","name":"Winner","inputs":[{"name":"winner","type":"address","indexed":true,"internalType":"address"},{"name":"game","type":"uint256","indexed":false,"internalType":"uint256"},{"name":"players","type":"uint256","indexed":false,"internalType":"uint256"},{"name":"amount","type":"uint256","indexed":false,"internalType":"uint256"},{"name":"gameType","type":"uint8","indexed":false,"internalType":"uint8"},{"name":"winnerIndex","type":"uint256","indexed":false,"internalType":"uint256"},{"name":"timestamp","type":"uint256","indexed":false,"internalType":"uint256"}],"anonymous":false},{"type":"error","name":"OwnableInvalidOwner","inputs":[{"name":"owner","type":"address","internalType":"address"}]},{"type":"error","name":"OwnableUnauthorizedAccount","inputs":[{"name":"account","type":"address","internalType":"address"}]}],"bytecode":{"object":"0x60808060405234610078573315610063575f8054336001600160a01b03198216811783556040519290916001600160a01b0316907f8be0079c531659141344cd1fd0a4f28419497f9722a3daafe3b4186f6b6457e09080a3610b97908161007d8239f35b631e4fbdf760e01b81525f6004820152602490fd5b5f80fdfe60406080815260049081361015610014575f80fd5b5f3560e01c80630544ce5e146107c557806306525fa91461061157806324c0cd0f146105665780633e68aa3a146104b85780634a7033fe146103865780634fd66eae1461032f57806362550ae1146102f8578063715018a6146102a15780637bdd449c146102725780637eb4892b146102145780638b8840e0146101965780638da5cb5b1461024b578063b963b29214610214578063ba3c0067146101cd578063cacc0efb14610196578063f2fde38b146101095763fac20ab8146100d7575f80fd5b3461010557602036600319011261010557602091355f526002825260018060a01b03815f2054169051908152f35b5f80fd5b5090346101055760203660031901126101055761012461084c565b9061012d610b36565b6001600160a01b039182169283156101805750505f54826bffffffffffffffffffffffff60a01b8216175f55167f8be0079c531659141344cd1fd0a4f28419497f9722a3daafe3b4186f6b6457e05f80a3005b905f6024925191631e4fbdf760e01b8352820152fd5b5034610105576020366003190112610105576020906001600160a01b036101bb61084c565b165f5260038252805f20549051908152f35b5034610105576020366003190112610105576101ec610210923561098e565b6102028394929451948486958652850190610862565b90838203602085015261089e565b0390f35b5034610105576020366003190112610105576020906001600160a01b0361023961084c565b165f5260018252805f20549051908152f35b5034610105575f366003190112610105575f5490516001600160a01b039091168152602090f35b503461010557602036600319011261010557602091355f526002825260018060a01b03815f2054169051908152f35b34610105575f366003190112610105576102b9610b36565b5f80546001600160a01b0319811682556001600160a01b03167f8be0079c531659141344cd1fd0a4f28419497f9722a3daafe3b4186f6b6457e08280a3005b5034610105576020366003190112610105576020906001600160a01b0361031d61084c565b165f5260058252805f20549051908152f35b5034610105576020366003190112610105576060906001600160a01b0361035461084c565b165f526001602052805f2054906003602052805f2054906001602052805f205415159181519384526020840152820152f35b50903461010557602090816003193601126101055780359067ffffffffffffffff8211610105573660238301121561010557810135906103cd6103c88361090b565b6108d1565b9160248484838152019160051b8301019136831161010557602401905b828210610499575050506103fd90610a2f565b906104088251610952565b906104138351610952565b915f5b8451811015610472576001906001600160a01b0380610435838961097a565b51165f52828552875f205461044a838661097a565b52610455828861097a565b51165f5260038452865f205461046b828761097a565b5201610416565b5084610210838561048c845195858796875286019061089e565b918483039085015261089e565b81356001600160a01b03811681036101055781529084019084016103ea565b50903461010557602080600319360112610105578135916104d883610952565b915f9154935f5b8581108061055d575b15610548576104f681610803565b905460039190911b1c6001600160a01b03165f8181526001855288902054610528575b5061052390610923565b6104df565b846105419161053b61052394978961097a565b52610923565b9390610519565b86516020808252819061021090820188610862565b508184106104e8565b5090346101055760209060206003193601126101055735906105878261098e565b909261059281610952565b925f5b8281106105ca576105bc86610210898861048c898351968796606088526060880190610862565b90868203602088015261089e565b6001906001600160a01b03806105e0838a61097a565b51166105ee575b5001610595565b6105f8828961097a565b51165f528183525f61060a828861097a565b525f6105e7565b50346101055760c03660031901126101055761062b61084c565b60243591606435906084359260ff84168094036101055760018060a01b0380911695865f526001906001602052835f206106658154610923565b9055865f526002602052835f20886bffffffffffffffffffffffff60a01b825416179055875f526003916003602052845f206106a2878254610945565b90555f908254935f5b85811061079b575b50505015610722575b877f51effcd7e36ccc5d3b80d9870636d68981a8dd166ce30508ea679452c55716c360c089898989865f526005602052805f206106fa838254610945565b905580519384526044356020850152830152606082015260a43560808201524260a0820152a2005b68010000000000000000821015610788579161076b827f51effcd7e36ccc5d3b80d9870636d68981a8dd166ce30508ea679452c55716c3989694600160c0999795019055610803565b819291549060031b918a831b921b191617905591938193956106bc565b604190634e487b7160e01b5f525260245ffd5b8b876107a683610803565b905490851b1c16146107b95782016106ab565b505090505f80806106b3565b50346101055760203660031901126101055781359154821015610105576107ed602092610803565b905491519160018060a01b039160031b1c168152f35b6004548110156108385760045f527f8a35acfbc15ff81a39ae7d344fd709f28e8600b4aa8c65c6b64bfe7fe36bd19b01905f90565b634e487b7160e01b5f52603260045260245ffd5b600435906001600160a01b038216820361010557565b9081518082526020808093019301915f5b828110610881575050505090565b83516001600160a01b031685529381019392810192600101610873565b9081518082526020808093019301915f5b8281106108bd575050505090565b8351855293810193928101926001016108af565b6040519190601f01601f1916820167ffffffffffffffff8111838210176108f757604052565b634e487b7160e01b5f52604160045260245ffd5b67ffffffffffffffff81116108f75760051b60200190565b5f1981146109315760010190565b634e487b7160e01b5f52601160045260245ffd5b9190820180921161093157565b9061095f6103c88361090b565b8281528092610970601f199161090b565b0190602036910137565b80518210156108385760209160051b010190565b600454905f61099c82610952565b936109a683610952565b925f5b85811080610a26575b15610a1e576109c081610803565b905460039190911b1c6001600160a01b03165f8181526005602052604090205490816109f7575b50506109f290610923565b6109a9565b94610a16916109f29396610a0b838c61097a565b5261053b828961097a565b93905f6109e7565b505092505090565b508184106109b2565b805160019081811115610b3157610a4590610952565b915f9081835b610a93575b5050610a5b81610952565b925f5b828110610a6c575050505090565b83906001600160a01b03610a80828561097a565b5116610a8c828861097a565b5201610a5e565b8151811015610b2c579083915f805b858110610ae7575b5015610aba575b82019091610a4b565b928290610adf906001600160a01b03610ad3878661097a565b511661053b828a61097a565b939050610ab1565b929391929091906001600160a01b0380610b01868861097a565b511690610b0e838b61097a565b511614610b2057019085939291610aa2565b5080939291505f610aaa565b610a50565b505090565b5f546001600160a01b03163303610b4957565b60405163118cdaa760e01b8152336004820152602490fdfea264697066735822122001abe7d1f27041a9c86d4e9aa08386e3e20527a367f7c6751deb96565ecab3e764736f6c63430008160033","linkReferences":{}},"methodIdentifiers":{"allPlayers(uint256)":"0544ce5e","gameWinners(uint256)":"7bdd449c","getBatchWinnerStats(address[])":"4a7033fe","getGameWinner(uint256)":"fac20ab8","getPlayerStats(address)":"4fd66eae","getTopPlayerAnalysis(uint256)":"24c0cd0f","getTopPlayers(uint256)":"ba3c0067","getTopWinners(uint256)":"3e68aa3a","getTotalWinnings(address)":"cacc0efb","getWinnerCount(address)":"b963b292","newWinner(address,uint256,uint256,uint256,uint8,uint256)":"06525fa9","owner()":"8da5cb5b","playerScores(address)":"62550ae1","renounceOwnership()":"715018a6","totalWinnings(address)":"8b8840e0","transferOwnership(address)":"f2fde38b","winnerCount(address)":"7eb4892b"},"id":4}