{"abi":[{"type":"function","name":"gameWinners","inputs":[{"name":"","type":"uint256","internalType":"uint256"}],"outputs":[{"name":"","type":"address","internalType":"address"}],"stateMutability":"view"},{"type":"function","name":"getGameWinner","inputs":[{"name":"game","type":"uint256","internalType":"uint256"}],"outputs":[{"name":"","type":"address","internalType":"address"}],"stateMutability":"view"},{"type":"function","name":"getPlayerStats","inputs":[{"name":"player","type":"address","internalType":"address"}],"outputs":[{"name":"wins","type":"uint256","internalType":"uint256"},{"name":"totalWon","type":"uint256","internalType":"uint256"},{"name":"hasWon","type":"bool","internalType":"bool"}],"stateMutability":"view"},{"type":"function","name":"getTopWinners","inputs":[{"name":"count","type":"uint256","internalType":"uint256"}],"outputs":[{"name":"","type":"address[]","internalType":"address[]"}],"stateMutability":"view"},{"type":"function","name":"getTotalWinnings","inputs":[{"name":"player","type":"address","internalType":"address"}],"outputs":[{"name":"","type":"uint256","internalType":"uint256"}],"stateMutability":"view"},{"type":"function","name":"getWinnerCount","inputs":[{"name":"player","type":"address","internalType":"address"}],"outputs":[{"name":"","type":"uint256","internalType":"uint256"}],"stateMutability":"view"},{"type":"function","name":"newWinner","inputs":[{"name":"winner","type":"address","internalType":"address"},{"name":"game","type":"uint256","internalType":"uint256"},{"name":"players","type":"uint256","internalType":"uint256"},{"name":"amount","type":"uint256","internalType":"uint256"},{"name":"gameType","type":"uint8","internalType":"uint8"},{"name":"winnerIndex","type":"uint256","internalType":"uint256"}],"outputs":[],"stateMutability":"nonpayable"},{"type":"function","name":"totalWinnings","inputs":[{"name":"","type":"address","internalType":"address"}],"outputs":[{"name":"","type":"uint256","internalType":"uint256"}],"stateMutability":"view"},{"type":"function","name":"winnerCount","inputs":[{"name":"","type":"address","internalType":"address"}],"outputs":[{"name":"","type":"uint256","internalType":"uint256"}],"stateMutability":"view"},{"type":"event","name":"Winner","inputs":[{"name":"winner","type":"address","indexed":true,"internalType":"address"},{"name":"game","type":"uint256","indexed":false,"internalType":"uint256"},{"name":"players","type":"uint256","indexed":false,"internalType":"uint256"},{"name":"amount","type":"uint256","indexed":false,"internalType":"uint256"},{"name":"gameType","type":"uint8","indexed":false,"internalType":"uint8"},{"name":"winnerIndex","type":"uint256","indexed":false,"internalType":"uint256"},{"name":"timestamp","type":"uint256","indexed":false,"internalType":"uint256"}],"anonymous":false}],"bytecode":{"object":"0x6080806040523461001657610448908161001b8239f35b5f80fdfe60406080815260049081361015610014575f80fd5b5f3560e01c806306525fa9146102c45780633e68aa3a146101a25780634fd66eae1461014d5780637bdd449c1461011e5780637eb4892b146100e85780638b8840e0146100b1578063b963b292146100e8578063cacc0efb146100b15763fac20ab81461007f575f80fd5b346100ad5760203660031901126100ad57602091355f526001825260018060a01b03815f2054169051908152f35b5f80fd5b50346100ad5760203660031901126100ad576020906001600160a01b036100d66103ae565b165f5260028252805f20549051908152f35b50346100ad5760203660031901126100ad576020906001600160a01b0361010d6103ae565b165f525f8252805f20549051908152f35b50346100ad5760203660031901126100ad57602091355f526001825260018060a01b03815f2054169051908152f35b50346100ad5760203660031901126100ad576060906001600160a01b036101726103ae565b165f525f602052805f2054906002602052805f2054905f602052805f205415159181519384526020840152820152f35b5090346100ad576020806003193601126100ad5781601f9235906101c5826103e6565b9185519285199586910116830183811067ffffffffffffffff8211176102b15786528083526101f3816103e6565b83850195013686375f955f5b828110806102a8575b1561025e57828810610223575b61021e906103c4565b6101ff565b96845181101561024b57610243815f8861021e9460051b890101526103c4565b979050610215565b603284634e487b7160e01b5f525260245ffd5b508390868682519384938285019183865251809252840192915f5b82811061028857505050500390f35b83516001600160a01b031685528695509381019392810192600101610279565b50828810610208565b604183634e487b7160e01b5f525260245ffd5b50346100ad5760c03660031901126100ad576102de6103ae565b60243591606435906084359260ff84168094036100ad5760018060a01b031694855f525f602052815f2061031281546103c4565b9055845f526001602052815f20866bffffffffffffffffffffffff60a01b825416179055855f526002602052815f2080549184830180931161039b57505580519384526044356020850152830152606082015260a43560808201524260a08201527f51effcd7e36ccc5d3b80d9870636d68981a8dd166ce30508ea679452c55716c39060c090a2005b601190634e487b7160e01b5f525260245ffd5b600435906001600160a01b03821682036100ad57565b5f1981146103d25760010190565b634e487b7160e01b5f52601160045260245ffd5b67ffffffffffffffff81116103fe5760051b60200190565b634e487b7160e01b5f52604160045260245ffdfea2646970667358221220d6e015f98d9ea84a51da69c6b9921a83266428077720a687dc5398bfb88d422c64736f6c63430008160033","linkReferences":{}},"methodIdentifiers":{"gameWinners(uint256)":"7bdd449c","getGameWinner(uint256)":"fac20ab8","getPlayerStats(address)":"4fd66eae","getTopWinners(uint256)":"3e68aa3a","getTotalWinnings(address)":"cacc0efb","getWinnerCount(address)":"b963b292","newWinner(address,uint256,uint256,uint256,uint8,uint256)":"06525fa9","totalWinnings(address)":"8b8840e0","winnerCount(address)":"7eb4892b"},"id":2}