{"abi":[{"type":"constructor","inputs":[],"stateMutability":"nonpayable"},{"type":"function","name":"allPlayers","inputs":[{"name":"","type":"uint256","internalType":"uint256"}],"outputs":[{"name":"","type":"address","internalType":"address"}],"stateMutability":"view"},{"type":"function","name":"gameWinners","inputs":[{"name":"","type":"uint256","internalType":"uint256"}],"outputs":[{"name":"","type":"address","internalType":"address"}],"stateMutability":"view"},{"type":"function","name":"getGameWinner","inputs":[{"name":"game","type":"uint256","internalType":"uint256"}],"outputs":[{"name":"","type":"address","internalType":"address"}],"stateMutability":"view"},{"type":"function","name":"getPlayerStats","inputs":[{"name":"player","type":"address","internalType":"address"}],"outputs":[{"name":"wins","type":"uint256","internalType":"uint256"},{"name":"totalWon","type":"uint256","internalType":"uint256"},{"name":"hasWon","type":"bool","internalType":"bool"}],"stateMutability":"view"},{"type":"function","name":"getTopPlayers","inputs":[{"name":"count","type":"uint256","internalType":"uint256"}],"outputs":[{"name":"","type":"address[]","internalType":"address[]"},{"name":"","type":"uint256[]","internalType":"uint256[]"}],"stateMutability":"view"},{"type":"function","name":"getTopWinners","inputs":[{"name":"count","type":"uint256","internalType":"uint256"}],"outputs":[{"name":"","type":"address[]","internalType":"address[]"}],"stateMutability":"view"},{"type":"function","name":"getTotalWinnings","inputs":[{"name":"player","type":"address","internalType":"address"}],"outputs":[{"name":"","type":"uint256","internalType":"uint256"}],"stateMutability":"view"},{"type":"function","name":"getWinnerCount","inputs":[{"name":"player","type":"address","internalType":"address"}],"outputs":[{"name":"","type":"uint256","internalType":"uint256"}],"stateMutability":"view"},{"type":"function","name":"newWinner","inputs":[{"name":"winner","type":"address","internalType":"address"},{"name":"game","type":"uint256","internalType":"uint256"},{"name":"players","type":"uint256","internalType":"uint256"},{"name":"amount","type":"uint256","internalType":"uint256"},{"name":"gameType","type":"uint8","internalType":"uint8"},{"name":"winnerIndex","type":"uint256","internalType":"uint256"}],"outputs":[],"stateMutability":"nonpayable"},{"type":"function","name":"owner","inputs":[],"outputs":[{"name":"","type":"address","internalType":"address"}],"stateMutability":"view"},{"type":"function","name":"playerScores","inputs":[{"name":"","type":"address","internalType":"address"}],"outputs":[{"name":"","type":"uint256","internalType":"uint256"}],"stateMutability":"view"},{"type":"function","name":"renounceOwnership","inputs":[],"outputs":[],"stateMutability":"nonpayable"},{"type":"function","name":"totalWinnings","inputs":[{"name":"","type":"address","internalType":"address"}],"outputs":[{"name":"","type":"uint256","internalType":"uint256"}],"stateMutability":"view"},{"type":"function","name":"transferOwnership","inputs":[{"name":"newOwner","type":"address","internalType":"address"}],"outputs":[],"stateMutability":"nonpayable"},{"type":"function","name":"winnerCount","inputs":[{"name":"","type":"address","internalType":"address"}],"outputs":[{"name":"","type":"uint256","internalType":"uint256"}],"stateMutability":"view"},{"type":"event","name":"OwnershipTransferred","inputs":[{"name":"previousOwner","type":"address","indexed":true,"internalType":"address"},{"name":"newOwner","type":"address","indexed":true,"internalType":"address"}],"anonymous":false},{"type":"event","name":"Winner","inputs":[{"name":"winner","type":"address","indexed":true,"internalType":"address"},{"name":"game","type":"uint256","indexed":false,"internalType":"uint256"},{"name":"players","type":"uint256","indexed":false,"internalType":"uint256"},{"name":"amount","type":"uint256","indexed":false,"internalType":"uint256"},{"name":"gameType","type":"uint8","indexed":false,"internalType":"uint8"},{"name":"winnerIndex","type":"uint256","indexed":false,"internalType":"uint256"},{"name":"timestamp","type":"uint256","indexed":false,"internalType":"uint256"}],"anonymous":false},{"type":"error","name":"OwnableInvalidOwner","inputs":[{"name":"owner","type":"address","internalType":"address"}]},{"type":"error","name":"OwnableUnauthorizedAccount","inputs":[{"name":"account","type":"address","internalType":"address"}]}],"bytecode":{"object":"0x60808060405234610078573315610063575f8054336001600160a01b03198216811783556040519290916001600160a01b0316907f8be0079c531659141344cd1fd0a4f28419497f9722a3daafe3b4186f6b6457e09080a361087a908161007d8239f35b631e4fbdf760e01b81525f6004820152602490fd5b5f80fdfe60406080815260049081361015610014575f80fd5b5f3560e01c80630544ce5e1461068357806306525fa9146104cf5780633e68aa3a1461044e5780634fd66eae146103f757806362550ae1146103c0578063715018a6146103695780637bdd449c1461033a5780637eb4892b146102dc5780638b8840e0146101805780638da5cb5b14610313578063b963b292146102dc578063ba3c0067146101b7578063cacc0efb14610180578063f2fde38b146100f35763fac20ab8146100c1575f80fd5b346100ef5760203660031901126100ef57602091355f526002825260018060a01b03815f2054169051908152f35b5f80fd5b5090346100ef5760203660031901126100ef5761010e61070a565b90610117610819565b6001600160a01b0391821692831561016a5750505f54826bffffffffffffffffffffffff60a01b8216175f55167f8be0079c531659141344cd1fd0a4f28419497f9722a3daafe3b4186f6b6457e05f80a3005b905f6024925191631e4fbdf760e01b8352820152fd5b50346100ef5760203660031901126100ef576020906001600160a01b036101a561070a565b165f5260038252805f20549051908152f35b5090346100ef57602090816003193601126100ef5780359054915f906101dc836107dd565b906101ee6101e9856107c5565b61078b565b938085526101fb816107c5565b8583019190601f19013683375f5b878110806102d3575b1561028257610220816106c1565b905460039190911b1c6001600160a01b03165f818152600586528a9020549081610255575b50506102509061075c565b610209565b9661027a916102509398610269838a610805565b52610274828b610805565b5261075c565b95905f610245565b848984868a8161029b8551968688978852870190610720565b918583038287015251918281520192915f5b8281106102bc57505050500390f35b8351855286955093810193928101926001016102ad565b50818610610212565b50346100ef5760203660031901126100ef576020906001600160a01b0361030161070a565b165f5260018252805f20549051908152f35b50346100ef575f3660031901126100ef575f5490516001600160a01b039091168152602090f35b50346100ef5760203660031901126100ef57602091355f526002825260018060a01b03815f2054169051908152f35b346100ef575f3660031901126100ef57610381610819565b5f80546001600160a01b0319811682556001600160a01b03167f8be0079c531659141344cd1fd0a4f28419497f9722a3daafe3b4186f6b6457e08280a3005b50346100ef5760203660031901126100ef576020906001600160a01b036103e561070a565b165f5260058252805f20549051908152f35b50346100ef5760203660031901126100ef576060906001600160a01b0361041c61070a565b165f526001602052805f2054906003602052805f2054906001602052805f205415159181519384526020840152820152f35b5090346100ef5760203660031901126100ef573561046b816107dd565b5f805b838110806104c6575b156104ad57838210610492575b61048d9061075c565b61046e565b906104a5815f61027461048d9487610805565b919050610484565b8451602080825281906104c290820186610720565b0390f35b50838210610477565b50346100ef5760c03660031901126100ef576104e961070a565b60243591606435906084359260ff84168094036100ef5760018060a01b0380911695865f526001906001602052835f20610523815461075c565b9055865f526002602052835f20886bffffffffffffffffffffffff60a01b825416179055875f526003916003602052845f2061056087825461077e565b90555f908254935f5b858110610659575b505050156105e0575b877f51effcd7e36ccc5d3b80d9870636d68981a8dd166ce30508ea679452c55716c360c089898989865f526005602052805f206105b883825461077e565b905580519384526044356020850152830152606082015260a43560808201524260a0820152a2005b680100000000000000008210156106465791610629827f51effcd7e36ccc5d3b80d9870636d68981a8dd166ce30508ea679452c55716c3989694600160c09997950190556106c1565b819291549060031b918a831b921b1916179055919381939561057a565b604190634e487b7160e01b5f525260245ffd5b8b87610664836106c1565b905490851b1c1614610677578201610569565b505090505f8080610571565b50346100ef5760203660031901126100ef57813591548210156100ef576106ab6020926106c1565b905491519160018060a01b039160031b1c168152f35b6004548110156106f65760045f527f8a35acfbc15ff81a39ae7d344fd709f28e8600b4aa8c65c6b64bfe7fe36bd19b01905f90565b634e487b7160e01b5f52603260045260245ffd5b600435906001600160a01b03821682036100ef57565b9081518082526020808093019301915f5b82811061073f575050505090565b83516001600160a01b031685529381019392810192600101610731565b5f19811461076a5760010190565b634e487b7160e01b5f52601160045260245ffd5b9190820180921161076a57565b6040519190601f01601f1916820167ffffffffffffffff8111838210176107b157604052565b634e487b7160e01b5f52604160045260245ffd5b67ffffffffffffffff81116107b15760051b60200190565b906107ea6101e9836107c5565b82815280926107fb601f19916107c5565b0190602036910137565b80518210156106f65760209160051b010190565b5f546001600160a01b0316330361082c57565b60405163118cdaa760e01b8152336004820152602490fdfea264697066735822122045de022c9691f8f9b17a7d146557ba19a9500c8665f6ec24eadbc6b66cf6c8bf64736f6c63430008160033","linkReferences":{}},"methodIdentifiers":{"allPlayers(uint256)":"0544ce5e","gameWinners(uint256)":"7bdd449c","getGameWinner(uint256)":"fac20ab8","getPlayerStats(address)":"4fd66eae","getTopPlayers(uint256)":"ba3c0067","getTopWinners(uint256)":"3e68aa3a","getTotalWinnings(address)":"cacc0efb","getWinnerCount(address)":"b963b292","newWinner(address,uint256,uint256,uint256,uint8,uint256)":"06525fa9","owner()":"8da5cb5b","playerScores(address)":"62550ae1","renounceOwnership()":"715018a6","totalWinnings(address)":"8b8840e0","transferOwnership(address)":"f2fde38b","winnerCount(address)":"7eb4892b"},"id":4}