{"abi":[{"type":"constructor","inputs":[{"name":"owner","type":"address","internalType":"address"}],"stateMutability":"nonpayable"},{"type":"function","name":"ANALYTICS_ENGINE","inputs":[],"outputs":[{"name":"","type":"string","internalType":"string"}],"stateMutability":"view"},{"type":"function","name":"CONFIG_MANAGER","inputs":[],"outputs":[{"name":"","type":"string","internalType":"string"}],"stateMutability":"view"},{"type":"function","name":"CRYPTOLOTTO_REFERRAL","inputs":[],"outputs":[{"name":"","type":"string","internalType":"string"}],"stateMutability":"view"},{"type":"function","name":"EMERGENCY_MANAGER","inputs":[],"outputs":[{"name":"","type":"string","internalType":"string"}],"stateMutability":"view"},{"type":"function","name":"EVENT_LOGGER","inputs":[],"outputs":[{"name":"","type":"string","internalType":"string"}],"stateMutability":"view"},{"type":"function","name":"FUNDS_DISTRIBUTOR","inputs":[],"outputs":[{"name":"","type":"string","internalType":"string"}],"stateMutability":"view"},{"type":"function","name":"GAME_FACTORY","inputs":[],"outputs":[{"name":"","type":"string","internalType":"string"}],"stateMutability":"view"},{"type":"function","name":"MIGRATIONS","inputs":[],"outputs":[{"name":"","type":"string","internalType":"string"}],"stateMutability":"view"},{"type":"function","name":"MONITORING_SYSTEM","inputs":[],"outputs":[{"name":"","type":"string","internalType":"string"}],"stateMutability":"view"},{"type":"function","name":"STATS_AGGREGATOR","inputs":[],"outputs":[{"name":"","type":"string","internalType":"string"}],"stateMutability":"view"},{"type":"function","name":"SYSTEM_MANAGER","inputs":[],"outputs":[{"name":"","type":"string","internalType":"string"}],"stateMutability":"view"},{"type":"function","name":"TREASURY_MANAGER","inputs":[],"outputs":[{"name":"","type":"string","internalType":"string"}],"stateMutability":"view"},{"type":"function","name":"contractNames","inputs":[{"name":"","type":"uint256","internalType":"uint256"}],"outputs":[{"name":"","type":"string","internalType":"string"}],"stateMutability":"view"},{"type":"function","name":"contracts","inputs":[{"name":"","type":"string","internalType":"string"}],"outputs":[{"name":"","type":"address","internalType":"address"}],"stateMutability":"view"},{"type":"function","name":"getAllContractNames","inputs":[],"outputs":[{"name":"","type":"string[]","internalType":"string[]"}],"stateMutability":"view"},{"type":"function","name":"getContract","inputs":[{"name":"name","type":"string","internalType":"string"}],"outputs":[{"name":"","type":"address","internalType":"address"}],"stateMutability":"view"},{"type":"function","name":"getContractCount","inputs":[],"outputs":[{"name":"treasuryManagerCount","type":"uint256","internalType":"uint256"},{"name":"fundsDistributorCount","type":"uint256","internalType":"uint256"},{"name":"referralCount","type":"uint256","internalType":"uint256"},{"name":"statsAggregatorCount","type":"uint256","internalType":"uint256"},{"name":"analyticsEngineCount","type":"uint256","internalType":"uint256"},{"name":"monitoringSystemCount","type":"uint256","internalType":"uint256"},{"name":"emergencyManagerCount","type":"uint256","internalType":"uint256"},{"name":"configManagerCount","type":"uint256","internalType":"uint256"},{"name":"systemManagerCount","type":"uint256","internalType":"uint256"},{"name":"eventLoggerCount","type":"uint256","internalType":"uint256"},{"name":"migrationsCount","type":"uint256","internalType":"uint256"},{"name":"gameFactoryCount","type":"uint256","internalType":"uint256"}],"stateMutability":"view"},{"type":"function","name":"getContractName","inputs":[{"name":"contractAddress","type":"address","internalType":"address"}],"outputs":[{"name":"","type":"string","internalType":"string"}],"stateMutability":"view"},{"type":"function","name":"getContracts","inputs":[{"name":"names","type":"string[]","internalType":"string[]"}],"outputs":[{"name":"","type":"address[]","internalType":"address[]"}],"stateMutability":"view"},{"type":"function","name":"isRegistered","inputs":[{"name":"name","type":"string","internalType":"string"}],"outputs":[{"name":"","type":"bool","internalType":"bool"}],"stateMutability":"view"},{"type":"function","name":"owner","inputs":[],"outputs":[{"name":"","type":"address","internalType":"address"}],"stateMutability":"view"},{"type":"function","name":"registerBatchContracts","inputs":[{"name":"names","type":"string[]","internalType":"string[]"},{"name":"addresses","type":"address[]","internalType":"address[]"}],"outputs":[],"stateMutability":"nonpayable"},{"type":"function","name":"registerContract","inputs":[{"name":"name","type":"string","internalType":"string"},{"name":"contractAddress","type":"address","internalType":"address"}],"outputs":[],"stateMutability":"nonpayable"},{"type":"function","name":"removeContract","inputs":[{"name":"name","type":"string","internalType":"string"}],"outputs":[],"stateMutability":"nonpayable"},{"type":"function","name":"renounceOwnership","inputs":[],"outputs":[],"stateMutability":"nonpayable"},{"type":"function","name":"transferOwnership","inputs":[{"name":"newOwner","type":"address","internalType":"address"}],"outputs":[],"stateMutability":"nonpayable"},{"type":"function","name":"updateContract","inputs":[{"name":"name","type":"string","internalType":"string"},{"name":"newAddress","type":"address","internalType":"address"}],"outputs":[],"stateMutability":"nonpayable"},{"type":"event","name":"BatchContractsRegistered","inputs":[{"name":"names","type":"string[]","indexed":true,"internalType":"string[]"},{"name":"addresses","type":"address[]","indexed":true,"internalType":"address[]"}],"anonymous":false},{"type":"event","name":"ContractRegistered","inputs":[{"name":"name","type":"string","indexed":true,"internalType":"string"},{"name":"contractAddress","type":"address","indexed":true,"internalType":"address"}],"anonymous":false},{"type":"event","name":"ContractRemoved","inputs":[{"name":"name","type":"string","indexed":true,"internalType":"string"},{"name":"contractAddress","type":"address","indexed":true,"internalType":"address"}],"anonymous":false},{"type":"event","name":"ContractUpdated","inputs":[{"name":"name","type":"string","indexed":true,"internalType":"string"},{"name":"oldAddress","type":"address","indexed":true,"internalType":"address"},{"name":"newAddress","type":"address","indexed":true,"internalType":"address"}],"anonymous":false},{"type":"event","name":"OwnershipTransferred","inputs":[{"name":"previousOwner","type":"address","indexed":true,"internalType":"address"},{"name":"newOwner","type":"address","indexed":true,"internalType":"address"}],"anonymous":false},{"type":"error","name":"ArraysLengthMismatch","inputs":[]},{"type":"error","name":"ContractAlreadyRegistered","inputs":[]},{"type":"error","name":"ContractNotRegistered","inputs":[]},{"type":"error","name":"EmptyAddressArray","inputs":[]},{"type":"error","name":"EmptyNameArray","inputs":[]},{"type":"error","name":"InvalidContractAddress","inputs":[]},{"type":"error","name":"InvalidContractName","inputs":[]},{"type":"error","name":"OwnableInvalidOwner","inputs":[{"name":"owner","type":"address","internalType":"address"}]},{"type":"error","name":"OwnableUnauthorizedAccount","inputs":[{"name":"account","type":"address","internalType":"address"}]}],"bytecode":{"object":"0x608060405234801562000010575f80fd5b5060405162002141380380620021418339810160408190526200003391620000c4565b806001600160a01b0381166200006257604051631e4fbdf760e01b81525f600482015260240160405180910390fd5b6200006d8162000075565b5050620000f3565b5f80546001600160a01b038381166001600160a01b0319831681178455604051919092169283917f8be0079c531659141344cd1fd0a4f28419497f9722a3daafe3b4186f6b6457e09190a35050565b5f60208284031215620000d5575f80fd5b81516001600160a01b0381168114620000ec575f80fd5b9392505050565b61204080620001015f395ff3fe608060405234801561000f575f80fd5b50600436106101a1575f3560e01c8063715018a6116100f3578063c822d7f011610093578063f277508f1161006e578063f277508f14610516578063f299ad4414610545578063f2fde38b14610558578063fec61f061461056b575f80fd5b8063c822d7f0146104b3578063d7a9b816146104d6578063e0c0ed51146104eb575f80fd5b80638c5b8385116100ce5780638c5b8385146103fb5780638da5cb5b1461042f5780639399869d1461043f57806397623b58146104a0575f80fd5b8063715018a6146103c05780637f3c2c28146103c85780638abf6435146103db575f80fd5b8063358177731161015e5780634a842a7e116101395780634a842a7e14610325578063697a60b3146103555780636d64c83f14610368578063712016b314610395575f80fd5b806335817773146102be57806338b61877146102e95780633ca6bb9214610312575f80fd5b8063014476b4146101a557806307d9855b146101ea5780630d191d5e146102195780631062d87e1461024c578063162cd262146102615780632a7efb5e1461028e575b5f80fd5b6101d46040518060400160405280601081526020016f414e414c59544943535f454e47494e4560801b81525081565b6040516101e191906119a3565b60405180910390f35b6101d46040518060400160405280601081526020016f29aa20aa29afa0a3a3a922a3a0aa27a960811b81525081565b6101d46040518060400160405280601481526020017310d496541513d313d51513d7d49151915494905360621b81525081565b61025f61025a366004611a03565b61059b565b005b6101d46040518060400160405280600e81526020016d29aca9aa22a6afa6a0a720a3a2a960911b81525081565b6101d460405180604001604052806011815260200170232aa72229afa224a9aa2924a12aaa27a960791b81525081565b6102d16102cc366004611aa6565b610844565b6040516001600160a01b0390911681526020016101e1565b6101d46040518060400160405280600a8152602001694d4947524154494f4e5360b01b81525081565b6101d4610320366004611ae4565b6108cb565b6101d4604051806040016040528060118152602001704d4f4e49544f52494e475f53595354454d60781b81525081565b61025f610363366004611b16565b610971565b6101d46040518060400160405280600e81526020016d21a7a72324a3afa6a0a720a3a2a960911b81525081565b6101d46040518060400160405280600c81526020016b47414d455f464143544f525960a01b81525081565b61025f610aa7565b61025f6103d6366004611b16565b610aba565b6103ee6103e9366004611b65565b610c2a565b6040516101e19190611b97565b6102d1610409366004611bf7565b80516020818301810180516001825292820191909301209152546001600160a01b031681565b5f546001600160a01b03166102d1565b610447610d07565b604080519c8d5260208d019b909b52998b019890985260608a0196909652608089019490945260a088019290925260c087015260e0860152610100850152610120840152610140830152610160820152610180016101e1565b61025f6104ae366004611aa6565b611419565b6104c66104c1366004611aa6565b61151b565b60405190151581526020016101e1565b6104de61155b565b6040516101e19190611ca1565b6101d46040518060400160405280600c81526020016b22ab22a72a2fa627a3a3a2a960a11b81525081565b6101d46040518060400160405280601081526020016f2a2922a0a9aaa92cafa6a0a720a3a2a960811b81525081565b6101d4610553366004611d03565b61177c565b61025f610566366004611d03565b6118a3565b6101d46040518060400160405280601181526020017022a6a2a923a2a721acafa6a0a720a3a2a960791b81525081565b6105a36118e5565b5f8390036105c45760405163825b781f60e01b815260040160405180910390fd5b5f8190036105e4576040516207250560eb1b815260040160405180910390fd5b828114610604576040516307e11acb60e51b815260040160405180910390fd5b5f5b838110156107e6575f83838381811061062157610621611d1c565b90506020020160208101906106369190611d03565b6001600160a01b03160361065d5760405163a710429d60e01b815260040160405180910390fd5b84848281811061066f5761066f611d1c565b90506020028101906106819190611d30565b90505f036106a257604051634186483f60e11b815260040160405180910390fd5b5f60018686848181106106b7576106b7611d1c565b90506020028101906106c99190611d30565b6040516106d7929190611d72565b908152604051908190036020019020546001600160a01b03161461070e576040516370bc3e8560e01b815260040160405180910390fd5b82828281811061072057610720611d1c565b90506020020160208101906107359190611d03565b600186868481811061074957610749611d1c565b905060200281019061075b9190611d30565b604051610769929190611d72565b90815260405190819003602001902080546001600160a01b03929092166001600160a01b031990921691909117905560028585838181106107ac576107ac611d1c565b90506020028101906107be9190611d30565b82546001810184555f9384526020909320909201916107dd9183611e05565b50600101610606565b5081816040516107f7929190611ebe565b6040518091039020848460405161080f929190611efd565b604051908190038120907f657d81ea436064f2bf9724fb15d0b5dca58795554e19885553434af3c432087e905f90a350505050565b5f806001600160a01b031660018484604051610861929190611d72565b908152604051908190036020019020546001600160a01b03160361089857604051639ada36a160e01b815260040160405180910390fd5b600183836040516108aa929190611d72565b908152604051908190036020019020546001600160a01b0316905092915050565b600281815481106108da575f80fd5b905f5260205f20015f9150905080546108f290611d81565b80601f016020809104026020016040519081016040528092919081815260200182805461091e90611d81565b80156109695780601f1061094057610100808354040283529160200191610969565b820191905f5260205f20905b81548152906001019060200180831161094c57829003601f168201915b505050505081565b6109796118e5565b6001600160a01b0381166109a05760405163a710429d60e01b815260040160405180910390fd5b5f6001600160a01b0316600184846040516109bc929190611d72565b908152604051908190036020019020546001600160a01b0316036109f357604051639ada36a160e01b815260040160405180910390fd5b5f60018484604051610a06929190611d72565b908152604051908190036020018120546001600160a01b031691508290600190610a339087908790611d72565b90815260405190819003602001812080546001600160a01b039384166001600160a01b031990911617905583821691831690610a729087908790611d72565b604051908190038120907f508230d9e989b49c651e1c7be29de727f16d9c1027f7660466911e442c3121fb905f90a450505050565b610aaf6118e5565b610ab85f611911565b565b610ac26118e5565b6001600160a01b038116610ae95760405163a710429d60e01b815260040160405180910390fd5b5f829003610b0a57604051634186483f60e11b815260040160405180910390fd5b5f6001600160a01b031660018484604051610b26929190611d72565b908152604051908190036020019020546001600160a01b031614610b5d576040516370bc3e8560e01b815260040160405180910390fd5b8060018484604051610b70929190611d72565b90815260405190819003602001902080546001600160a01b03929092166001600160a01b0319909216919091179055600280546001810182555f919091527f405787fa12a823e0f2b7631cc41b3ba8828b3321ca811111fa75cd3aa3bb5ace01610bdb838583611e05565b50806001600160a01b03168383604051610bf6929190611d72565b604051908190038120907f2a88e68a891ddb61f7aebfdeefd9fb74964fcd5371b692ea59cca73fc58f4805905f90a3505050565b60605f826001600160401b03811115610c4557610c45611be3565b604051908082528060200260200182016040528015610c6e578160200160208202803683370190505b5090505f5b83811015610cff576001858583818110610c8f57610c8f611d1c565b9050602002810190610ca19190611d30565b604051610caf929190611d72565b9081526040519081900360200190205482516001600160a01b0390911690839083908110610cdf57610cdf611d1c565b6001600160a01b0390921660209283029190910190910152600101610c73565b509392505050565b5f805f805f805f805f805f805f5b60025481101561140a575f6001600160a01b0316600160028381548110610d3e57610d3e611d1c565b905f5260205f2001604051610d539190611fdb565b908152604051908190036020019020546001600160a01b0316146114025760408051808201909152601081526f2a2922a0a9aaa92cafa6a0a720a3a2a960811b602090910152600280547ffb33b7fa49278e0b9e45aa996caa7eae999f04705ef455a86b73159c5d256fa0919083908110610dd057610dd0611d1c565b905f5260205f2001604051610de59190611fdb565b604051809103902003610dfe57610dfb8d611fe6565b9c505b604080518082019091526011815270232aa72229afa224a9aa2924a12aaa27a960791b602090910152600280547fdc8776753d18de41c6d9f362e18e7dee59981073db85490f6cd2cd992220bc12919083908110610e5e57610e5e611d1c565b905f5260205f2001604051610e739190611fdb565b604051809103902003610e8c57610e898c611fe6565b9b505b60408051808201909152601481527310d496541513d313d51513d7d49151915494905360621b602090910152600280547fc1a5f0c2edd04b0ec8657c66a39854fd4a64a7e2eadd59ca5af342b145edb8a1919083908110610eef57610eef611d1c565b905f5260205f2001604051610f049190611fdb565b604051809103902003610f1d57610f1a8b611fe6565b9a505b60408051808201909152601081526f29aa20aa29afa0a3a3a922a3a0aa27a960811b602090910152600280547f8ac8e8978cf2a55b7b84b78ad45bfcff786dea7b4c9cb3798a3251b5e16c5e9f919083908110610f7c57610f7c611d1c565b905f5260205f2001604051610f919190611fdb565b604051809103902003610faa57610fa78a611fe6565b99505b60408051808201909152601081526f414e414c59544943535f454e47494e4560801b602090910152600280547f481425d32703d60d8fa6d6150f33dc54d8d64bc57a3a9eb5c5e42992c5a42c1991908390811061100957611009611d1c565b905f5260205f200160405161101e9190611fdb565b6040518091039020036110375761103489611fe6565b98505b6040805180820190915260118152704d4f4e49544f52494e475f53595354454d60781b602090910152600280547fd80665a03022dd40b8740764f80fef17e7259eae46e795da80a75ffd2badb5e891908390811061109757611097611d1c565b905f5260205f20016040516110ac9190611fdb565b6040518091039020036110c5576110c288611fe6565b97505b60408051808201909152601181527022a6a2a923a2a721acafa6a0a720a3a2a960791b602090910152600280547fd45f7ccff42f059d4e47c3f027c444272257266f7e88b981e142f0aa38fbfd7891908390811061112557611125611d1c565b905f5260205f200160405161113a9190611fdb565b6040518091039020036111535761115087611fe6565b96505b60408051808201909152600e81526d21a7a72324a3afa6a0a720a3a2a960911b602090910152600280547fd354ecc0f0fb6dfdd92b26b442c487000ab265e49cad04b6c89fccb75db3a1759190839081106111b0576111b0611d1c565b905f5260205f20016040516111c59190611fdb565b6040518091039020036111de576111db86611fe6565b95505b60408051808201909152600e81526d29aca9aa22a6afa6a0a720a3a2a960911b602090910152600280547fde2a54dbc98f42d71638bd0cf14ce1a804d00b39c97daee88f40ad498404e23191908390811061123b5761123b611d1c565b905f5260205f20016040516112509190611fdb565b6040518091039020036112695761126685611fe6565b94505b60408051808201909152600c81526b22ab22a72a2fa627a3a3a2a960a11b602090910152600280547f84ad1a58292685d7799a388b7bc62a0f80c5a7aa400ed501a4a936b6011ea7389190839081106112c4576112c4611d1c565b905f5260205f20016040516112d99190611fdb565b6040518091039020036112f2576112ef84611fe6565b93505b60408051808201909152600a8152694d4947524154494f4e5360b01b602090910152600280547f60cac23d32d9bbdd35dc2d2915df1a942af34b47e26987f303ecc579d6556f0e91908390811061134b5761134b611d1c565b905f5260205f20016040516113609190611fdb565b6040518091039020036113795761137683611fe6565b92505b60408051808201909152600c81526b47414d455f464143544f525960a01b602090910152600280547f7e1e2de4fcf19641545eff14bdef5f2c81f6dad4b1226c4ca6f5e13b67463e659190839081106113d4576113d4611d1c565b905f5260205f20016040516113e99190611fdb565b604051809103902003611402576113ff82611fe6565b91505b600101610d15565b50909192939495969798999a9b565b6114216118e5565b5f6001600160a01b03166001838360405161143d929190611d72565b908152604051908190036020019020546001600160a01b03160361147457604051639ada36a160e01b815260040160405180910390fd5b5f60018383604051611487929190611d72565b908152604051908190036020018120546001600160a01b031691506001906114b29085908590611d72565b90815260405190819003602001812080546001600160a01b03191690556001600160a01b038216906114e79085908590611d72565b604051908190038120907f7ad6d7c73213a93d033801d72c729d90fb72104796b75ad799858b26f2b9872f905f90a3505050565b5f806001600160a01b031660018484604051611538929190611d72565b908152604051908190036020019020546001600160a01b03161415905092915050565b6002546060905f906001600160401b0381111561157a5761157a611be3565b6040519080825280602002602001820160405280156115ad57816020015b60608152602001906001900390816115985790505b5090505f805b6002548110156116e3575f6001600160a01b03166001600283815481106115dc576115dc611d1c565b905f5260205f20016040516115f19190611fdb565b908152604051908190036020019020546001600160a01b0316146116db576002818154811061162257611622611d1c565b905f5260205f2001805461163590611d81565b80601f016020809104026020016040519081016040528092919081815260200182805461166190611d81565b80156116ac5780601f10611683576101008083540402835291602001916116ac565b820191905f5260205f20905b81548152906001019060200180831161168f57829003601f168201915b50505050508383815181106116c3576116c3611d1c565b6020026020010181905250816116d890611fe6565b91505b6001016115b3565b505f816001600160401b038111156116fd576116fd611be3565b60405190808252806020026020018201604052801561173057816020015b606081526020019060019003908161171b5790505b5090505f5b82811015610cff5783818151811061174f5761174f611d1c565b602002602001015182828151811061176957611769611d1c565b6020908102919091010152600101611735565b60605f5b60025481101561188e57826001600160a01b03166001600283815481106117a9576117a9611d1c565b905f5260205f20016040516117be9190611fdb565b908152604051908190036020019020546001600160a01b03160361188657600281815481106117ef576117ef611d1c565b905f5260205f2001805461180290611d81565b80601f016020809104026020016040519081016040528092919081815260200182805461182e90611d81565b80156118795780601f1061185057610100808354040283529160200191611879565b820191905f5260205f20905b81548152906001019060200180831161185c57829003601f168201915b5050505050915050919050565b600101611780565b505060408051602081019091525f8152919050565b6118ab6118e5565b6001600160a01b0381166118d957604051631e4fbdf760e01b81525f60048201526024015b60405180910390fd5b6118e281611911565b50565b5f546001600160a01b03163314610ab85760405163118cdaa760e01b81523360048201526024016118d0565b5f80546001600160a01b038381166001600160a01b0319831681178455604051919092169283917f8be0079c531659141344cd1fd0a4f28419497f9722a3daafe3b4186f6b6457e09190a35050565b5f81518084525f5b8181101561198457602081850181015186830182015201611968565b505f602082860101526020601f19601f83011685010191505092915050565b602081525f6119b56020830184611960565b9392505050565b5f8083601f8401126119cc575f80fd5b5081356001600160401b038111156119e2575f80fd5b6020830191508360208260051b85010111156119fc575f80fd5b9250929050565b5f805f8060408587031215611a16575f80fd5b84356001600160401b0380821115611a2c575f80fd5b611a38888389016119bc565b90965094506020870135915080821115611a50575f80fd5b50611a5d878288016119bc565b95989497509550505050565b5f8083601f840112611a79575f80fd5b5081356001600160401b03811115611a8f575f80fd5b6020830191508360208285010111156119fc575f80fd5b5f8060208385031215611ab7575f80fd5b82356001600160401b03811115611acc575f80fd5b611ad885828601611a69565b90969095509350505050565b5f60208284031215611af4575f80fd5b5035919050565b80356001600160a01b0381168114611b11575f80fd5b919050565b5f805f60408486031215611b28575f80fd5b83356001600160401b03811115611b3d575f80fd5b611b4986828701611a69565b9094509250611b5c905060208501611afb565b90509250925092565b5f8060208385031215611b76575f80fd5b82356001600160401b03811115611b8b575f80fd5b611ad8858286016119bc565b602080825282518282018190525f9190848201906040850190845b81811015611bd75783516001600160a01b031683529284019291840191600101611bb2565b50909695505050505050565b634e487b7160e01b5f52604160045260245ffd5b5f60208284031215611c07575f80fd5b81356001600160401b0380821115611c1d575f80fd5b818401915084601f830112611c30575f80fd5b813581811115611c4257611c42611be3565b604051601f8201601f19908116603f01168101908382118183101715611c6a57611c6a611be3565b81604052828152876020848701011115611c82575f80fd5b826020860160208301375f928101602001929092525095945050505050565b5f60208083016020845280855180835260408601915060408160051b8701019250602087015f5b82811015611cf657603f19888603018452611ce4858351611960565b94509285019290850190600101611cc8565b5092979650505050505050565b5f60208284031215611d13575f80fd5b6119b582611afb565b634e487b7160e01b5f52603260045260245ffd5b5f808335601e19843603018112611d45575f80fd5b8301803591506001600160401b03821115611d5e575f80fd5b6020019150368190038213156119fc575f80fd5b818382375f9101908152919050565b600181811c90821680611d9557607f821691505b602082108103611db357634e487b7160e01b5f52602260045260245ffd5b50919050565b601f821115611e0057805f5260205f20601f840160051c81016020851015611dde5750805b601f840160051c820191505b81811015611dfd575f8155600101611dea565b50505b505050565b6001600160401b03831115611e1c57611e1c611be3565b611e3083611e2a8354611d81565b83611db9565b5f601f841160018114611e61575f8515611e4a5750838201355b5f19600387901b1c1916600186901b178355611dfd565b5f83815260208120601f198716915b82811015611e905786850135825560209485019460019092019101611e70565b5086821015611eac575f1960f88860031b161c19848701351681555b505060018560011b0183555050505050565b5f8184825b85811015611ef2576001600160a01b03611edc83611afb565b1683526020928301929190910190600101611ec3565b509095945050505050565b5f8184825b85811015611ef2578135601e19883603018112611f1d575f80fd5b870160208181019135906001600160401b03821115611f3a575f80fd5b813603831315611f48575f80fd5b818387375f86830152601f909101601f191690940193929092019150600101611f02565b5f8154611f7881611d81565b60018281168015611f905760018114611fa557611fd1565b60ff1984168752821515830287019450611fd1565b855f526020805f205f5b85811015611fc85781548a820152908401908201611faf565b50505082870194505b5050505092915050565b5f6119b58284611f6c565b5f6001820161200357634e487b7160e01b5f52601160045260245ffd5b506001019056fea2646970667358221220335b5a2e04102f036446dd9cae71eb08565e2ab9204ac2f80e49acc6bbb856da64736f6c63430008160033","linkReferences":{}},"methodIdentifiers":{"ANALYTICS_ENGINE()":"014476b4","CONFIG_MANAGER()":"6d64c83f","CRYPTOLOTTO_REFERRAL()":"0d191d5e","EMERGENCY_MANAGER()":"fec61f06","EVENT_LOGGER()":"e0c0ed51","FUNDS_DISTRIBUTOR()":"2a7efb5e","GAME_FACTORY()":"712016b3","MIGRATIONS()":"38b61877","MONITORING_SYSTEM()":"4a842a7e","STATS_AGGREGATOR()":"07d9855b","SYSTEM_MANAGER()":"162cd262","TREASURY_MANAGER()":"f277508f","contractNames(uint256)":"3ca6bb92","contracts(string)":"8c5b8385","getAllContractNames()":"d7a9b816","getContract(string)":"35817773","getContractCount()":"9399869d","getContractName(address)":"f299ad44","getContracts(string[])":"8abf6435","isRegistered(string)":"c822d7f0","owner()":"8da5cb5b","registerBatchContracts(string[],address[])":"1062d87e","registerContract(string,address)":"7f3c2c28","removeContract(string)":"97623b58","renounceOwnership()":"715018a6","transferOwnership(address)":"f2fde38b","updateContract(string,address)":"697a60b3"},"storageLayout":{"storage":[{"astId":63803,"contract":"contracts/shared/utils/ContractRegistry.sol:ContractRegistry","label":"_owner","offset":0,"slot":"0","type":"t_address"},{"astId":19717,"contract":"contracts/shared/utils/ContractRegistry.sol:ContractRegistry","label":"contracts","offset":0,"slot":"1","type":"t_mapping(t_string_memory_ptr,t_address)"},{"astId":19721,"contract":"contracts/shared/utils/ContractRegistry.sol:ContractRegistry","label":"contractNames","offset":0,"slot":"2","type":"t_array(t_string_storage)dyn_storage"}],"types":{"t_address":{"encoding":"inplace","label":"address","numberOfBytes":"20"},"t_array(t_string_storage)dyn_storage":{"encoding":"dynamic_array","label":"string[]","numberOfBytes":"32","base":"t_string_storage"},"t_mapping(t_string_memory_ptr,t_address)":{"encoding":"mapping","key":"t_string_memory_ptr","label":"mapping(string => address)","numberOfBytes":"32","value":"t_address"},"t_string_memory_ptr":{"encoding":"bytes","label":"string","numberOfBytes":"32"},"t_string_storage":{"encoding":"bytes","label":"string","numberOfBytes":"32"}}},"id":45}