{"abi":[{"type":"constructor","inputs":[],"stateMutability":"nonpayable"},{"type":"function","name":"isAllowed","inputs":[{"name":"caller","type":"address","internalType":"address"}],"outputs":[{"name":"","type":"bool","internalType":"bool"}],"stateMutability":"view"},{"type":"function","name":"owner","inputs":[],"outputs":[{"name":"","type":"address","internalType":"address"}],"stateMutability":"view"},{"type":"function","name":"renounceOwnership","inputs":[],"outputs":[],"stateMutability":"nonpayable"},{"type":"function","name":"transferOwnership","inputs":[{"name":"newOwner","type":"address","internalType":"address"}],"outputs":[],"stateMutability":"nonpayable"},{"type":"event","name":"OwnershipTransferred","inputs":[{"name":"previousOwner","type":"address","indexed":true,"internalType":"address"},{"name":"newOwner","type":"address","indexed":true,"internalType":"address"}],"anonymous":false},{"type":"error","name":"OwnableInvalidOwner","inputs":[{"name":"owner","type":"address","internalType":"address"}]},{"type":"error","name":"OwnableUnauthorizedAccount","inputs":[{"name":"account","type":"address","internalType":"address"}]}],"bytecode":{"object":"0x60808060405234610078573315610063575f8054336001600160a01b03198216811783556040519290916001600160a01b0316907f8be0079c531659141344cd1fd0a4f28419497f9722a3daafe3b4186f6b6457e09080a36101ea908161007d8239f35b631e4fbdf760e01b81525f6004820152602490fd5b5f80fdfe60806040526004361015610011575f80fd5b5f3560e01c8063715018a6146101325780638da5cb5b1461010b578063babcc539146100d55763f2fde38b14610045575f80fd5b346100d15760203660031901126100d1576004356001600160a01b03818116918290036100d157610074610189565b81156100b9575f54826bffffffffffffffffffffffff60a01b8216175f55167f8be0079c531659141344cd1fd0a4f28419497f9722a3daafe3b4186f6b6457e05f80a3005b604051631e4fbdf760e01b81525f6004820152602490fd5b5f80fd5b346100d15760203660031901126100d1576001600160a01b03600435818116908190036100d1576020915f541614604051908152f35b346100d1575f3660031901126100d1575f546040516001600160a01b039091168152602090f35b346100d1575f3660031901126100d15761014a610189565b5f80546001600160a01b0319811682556001600160a01b03167f8be0079c531659141344cd1fd0a4f28419497f9722a3daafe3b4186f6b6457e08280a3005b5f546001600160a01b0316330361019c57565b60405163118cdaa760e01b8152336004820152602490fdfea2646970667358221220dde0bbe7d327490ec7065bb629b2c7730717b7a6b4c41728ba9faf3a61c3a57264736f6c63430008160033","linkReferences":{}},"methodIdentifiers":{"isAllowed(address)":"babcc539","owner()":"8da5cb5b","renounceOwnership()":"715018a6","transferOwnership(address)":"f2fde38b"},"id":5}