{"abi":[{"type":"constructor","inputs":[],"stateMutability":"nonpayable"},{"type":"function","name":"addOperator","inputs":[{"name":"operator","type":"address","internalType":"address"}],"outputs":[],"stateMutability":"nonpayable"},{"type":"function","name":"authorizedOperators","inputs":[{"name":"","type":"address","internalType":"address"}],"outputs":[{"name":"","type":"bool","internalType":"bool"}],"stateMutability":"view"},{"type":"function","name":"checkPermissions","inputs":[{"name":"caller","type":"address","internalType":"address"}],"outputs":[{"name":"isOwner","type":"bool","internalType":"bool"},{"name":"isOperator","type":"bool","internalType":"bool"},{"name":"isAuthorized","type":"bool","internalType":"bool"},{"name":"canPause","type":"bool","internalType":"bool"}],"stateMutability":"view"},{"type":"function","name":"emergencyPause","inputs":[],"outputs":[],"stateMutability":"nonpayable"},{"type":"function","name":"emergencyPaused","inputs":[],"outputs":[{"name":"","type":"bool","internalType":"bool"}],"stateMutability":"view"},{"type":"function","name":"emergencyResume","inputs":[],"outputs":[],"stateMutability":"nonpayable"},{"type":"function","name":"getContractStatus","inputs":[],"outputs":[{"name":"currentOwner","type":"address","internalType":"address"},{"name":"isEmergencyPaused","type":"bool","internalType":"bool"},{"name":"lastActivity","type":"uint256","internalType":"uint256"},{"name":"operatorCount","type":"uint256","internalType":"uint256"}],"stateMutability":"view"},{"type":"function","name":"getOperators","inputs":[{"name":"","type":"uint256","internalType":"uint256"},{"name":"","type":"uint256","internalType":"uint256"}],"outputs":[{"name":"operators","type":"address[]","internalType":"address[]"},{"name":"totalCount","type":"uint256","internalType":"uint256"}],"stateMutability":"pure"},{"type":"function","name":"isAllowed","inputs":[{"name":"caller","type":"address","internalType":"address"}],"outputs":[{"name":"","type":"bool","internalType":"bool"}],"stateMutability":"view"},{"type":"function","name":"lastActivityTime","inputs":[],"outputs":[{"name":"","type":"uint256","internalType":"uint256"}],"stateMutability":"view"},{"type":"function","name":"owner","inputs":[],"outputs":[{"name":"","type":"address","internalType":"address"}],"stateMutability":"view"},{"type":"function","name":"removeOperator","inputs":[{"name":"operator","type":"address","internalType":"address"}],"outputs":[],"stateMutability":"nonpayable"},{"type":"function","name":"renounceOwnership","inputs":[],"outputs":[],"stateMutability":"nonpayable"},{"type":"function","name":"transferOwnership","inputs":[{"name":"newOwner","type":"address","internalType":"address"}],"outputs":[],"stateMutability":"nonpayable"},{"type":"event","name":"ActivityRecorded","inputs":[{"name":"caller","type":"address","indexed":true,"internalType":"address"},{"name":"action","type":"string","indexed":false,"internalType":"string"},{"name":"timestamp","type":"uint256","indexed":false,"internalType":"uint256"}],"anonymous":false},{"type":"event","name":"EmergencyPaused","inputs":[{"name":"by","type":"address","indexed":true,"internalType":"address"},{"name":"timestamp","type":"uint256","indexed":false,"internalType":"uint256"}],"anonymous":false},{"type":"event","name":"EmergencyResumed","inputs":[{"name":"by","type":"address","indexed":true,"internalType":"address"},{"name":"timestamp","type":"uint256","indexed":false,"internalType":"uint256"}],"anonymous":false},{"type":"event","name":"OperatorAdded","inputs":[{"name":"operator","type":"address","indexed":true,"internalType":"address"},{"name":"timestamp","type":"uint256","indexed":false,"internalType":"uint256"}],"anonymous":false},{"type":"event","name":"OperatorRemoved","inputs":[{"name":"operator","type":"address","indexed":true,"internalType":"address"},{"name":"timestamp","type":"uint256","indexed":false,"internalType":"uint256"}],"anonymous":false},{"type":"event","name":"OwnershipTransferred","inputs":[{"name":"previousOwner","type":"address","indexed":true,"internalType":"address"},{"name":"newOwner","type":"address","indexed":true,"internalType":"address"}],"anonymous":false},{"type":"error","name":"OwnableInvalidOwner","inputs":[{"name":"owner","type":"address","internalType":"address"}]},{"type":"error","name":"OwnableUnauthorizedAccount","inputs":[{"name":"account","type":"address","internalType":"address"}]}],"bytecode":{"object":"0x6080806040523461007c573315610067575f8054336001600160a01b03198216811783556040519290916001600160a01b0316907f8be0079c531659141344cd1fd0a4f28419497f9722a3daafe3b4186f6b6457e09080a342600355610ab290816100818239f35b631e4fbdf760e01b81525f6004820152602490fd5b5f80fdfe6080604081815260049182361015610015575f80fd5b5f3560e01c908163181d989b146109c05750806322da10b01461095657806327c830a91461093357806351858e271461085b578063715018a6146108045780638da5cb5b146107dd57806393c87f03146107075780639870d7fe14610531578063ac8a584a146103ed578063babcc53914610394578063c032846b14610353578063d9747fa314610335578063ea4dd2b91461029e5763f2fde38b146100b9575f80fd5b3461029a5760208060031936011261029a5782356001600160a01b038181169182900361029a576100e8610a31565b8115610259575f549081169485831461020c57508190610106610a31565b6bffffffffffffffffffffffff60a01b16175f55837f8be0079c531659141344cd1fd0a4f28419497f9722a3daafe3b4186f6b6457e05f80a36101476109fd565b601181527007472616e736665724f776e65727368697607c1b828201524260035582518381528151918285830152835f5b8481106101f757505050805f6060845f80516020610a5d8339815191529401015242848201526060813394601f80199101168101030190a2825f5260018152815f209182549260ff84166101c857005b7f2360404a74478febece1a14f11275f22ada88d19ef96f7d785913010bfff44799360ff1916905551428152a2005b81818401015160608286010152018490610178565b845162461bcd60e51b8152908101849052602160248201527f4e6577206f776e65722063616e6e6f742062652063757272656e74206f776e656044820152603960f91b6064820152608490fd5b606485848087519262461bcd60e51b845283015260248201527f4e6577206f776e65722063616e6e6f74206265207a65726f20616464726573736044820152fd5b5f80fd5b50903461029a578160031936011261029a5781519160208084019284841067ffffffffffffffff85111761032257508282949392525f83528351938493818501918552518091526060840192915f5b82811061030257505050505f60208301520390f35b83516001600160a01b0316855286955093810193928101926001016102ed565b604190634e487b7160e01b5f525260245ffd5b503461029a575f36600319011261029a576020906003549051908152f35b503461029a575f36600319011261029a5760809060018060a01b035f54169060ff6002541690600354918151938452151560208401528201525f6060820152f35b50903461029a57602036600319011261029a576001600160a01b03919035828116919082900361029a576020925f541682149182156103d7575b50519015158152f35b5f908152600184528181205460ff1692506103ce565b503461029a576020918260031936011261029a5780356001600160a01b038116919082900361029a5761041e610a31565b815f526001845260ff835f205416156104ee5750805f5260018352815f2060ff1981541690557f2360404a74478febece1a14f11275f22ada88d19ef96f7d785913010bfff4479838351428152a26104746109fd565b600e81526d3932b6b7bb32a7b832b930ba37b960911b8382015242600355815190828252805180938301525f5b8381106104da57835f80516020610a5d83398151915284875f6060858401015242908201526060813394601f80199101168101030190a2005b8181018501518382016060015284016104a1565b825162461bcd60e51b8152908101849052601760248201527f4f70657261746f7220646f6573206e6f742065786973740000000000000000006044820152606490fd5b503461029a576020918260031936011261029a5780356001600160a01b038116919082900361029a57610562610a31565b81156106c45730821461068157815f526001845260ff835f20541661063e5750805f5260018352815f20600160ff198254161790557fcbcb793495a5fd793da61a1d62ab99b58925f94b0a61beeec3ea7d7d6c4f2594838351428152a26105c76109fd565b600b81526a30b23227b832b930ba37b960a91b8382015242600355815190828252805180938301525f5b83811061062a57835f80516020610a5d83398151915284875f6060858401015242908201526060813394601f80199101168101030190a2005b8181018501518382016060015284016105f1565b825162461bcd60e51b8152908101849052601760248201527f4f70657261746f7220616c7265616479206578697374730000000000000000006044820152606490fd5b825162461bcd60e51b8152908101849052601b60248201527f43616e6e6f74206164642073656c66206173206f70657261746f7200000000006044820152606490fd5b825162461bcd60e51b8152908101849052601860248201527f496e76616c6964206f70657261746f72206164647265737300000000000000006044820152606490fd5b503461029a575f36600319011261029a57610720610a31565b60ff19600254166002558051904282526020917fe0dc8967738d1ca725802874d41e2ab2405df0e2eb3c61069d26d2782660d59460203392a26107616109fd565b600f81526e656d657267656e6379526573756d6560881b602082015242600355815190828252805180938301525f5b8381106107c957835f80516020610a5d833981519152845f606084830101524260208201526060813394601f80199101168101030190a2005b818101850151838201606001528401610790565b503461029a575f36600319011261029a575f5490516001600160a01b039091168152602090f35b3461029a575f36600319011261029a5761081c610a31565b5f80546001600160a01b0319811682556001600160a01b03167f8be0079c531659141344cd1fd0a4f28419497f9722a3daafe3b4186f6b6457e08280a3005b503461029a575f36600319011261029a57610874610a31565b600160ff1960025416176002558051904282526020917f2e31b3b12b9bb0e82c32f27df5f234fabc95a374f54fd287a7132878d5dc9fc360203392a26108b86109fd565b600e81526d656d657267656e6379506175736560901b602082015242600355815190828252805180938301525f5b83811061091f57835f80516020610a5d833981519152845f606084830101524260208201526060813394601f80199101168101030190a2005b8181018501518382016060015284016108e6565b503461029a575f36600319011261029a5760209060ff6002541690519015158152f35b50903461029a57602036600319011261029a576001600160a01b039190358281169081900361029a576080925f54168114905f52600160205260ff825f205416918182156109b9575b815193838552151560208501521515908301526060820152f35b508261099f565b9050823461029a57602036600319011261029a57356001600160a01b0381169081900361029a5760209260ff915f52600184525f20541615158152f35b604051906040820182811067ffffffffffffffff821117610a1d57604052565b634e487b7160e01b5f52604160045260245ffd5b5f546001600160a01b03163303610a4457565b60405163118cdaa760e01b8152336004820152602490fdfe3c709c6a5520828465054b30f10f24b9e4b911d3d25626cb358d3a698473eb4ea2646970667358221220efad3f198291f97ca780be8fb54d1569c633c69f8046f81c941de41ff53e49ec64736f6c63430008160033","linkReferences":{}},"methodIdentifiers":{"addOperator(address)":"9870d7fe","authorizedOperators(address)":"181d989b","checkPermissions(address)":"22da10b0","emergencyPause()":"51858e27","emergencyPaused()":"27c830a9","emergencyResume()":"93c87f03","getContractStatus()":"c032846b","getOperators(uint256,uint256)":"ea4dd2b9","isAllowed(address)":"babcc539","lastActivityTime()":"d9747fa3","owner()":"8da5cb5b","removeOperator(address)":"ac8a584a","renounceOwnership()":"715018a6","transferOwnership(address)":"f2fde38b"},"id":8}