{"abi":[{"type":"constructor","inputs":[],"stateMutability":"nonpayable"},{"type":"function","name":"accessPermissions","inputs":[{"name":"","type":"address","internalType":"address"},{"name":"","type":"uint256","internalType":"uint256"}],"outputs":[{"name":"","type":"string","internalType":"string"}],"stateMutability":"view"},{"type":"function","name":"authorizedAccess","inputs":[{"name":"","type":"address","internalType":"address"}],"outputs":[{"name":"","type":"bool","internalType":"bool"}],"stateMutability":"view"},{"type":"function","name":"cleanupOldData","inputs":[{"name":"daysOld","type":"uint256","internalType":"uint256"}],"outputs":[],"stateMutability":"nonpayable"},{"type":"function","name":"currentVersion","inputs":[],"outputs":[{"name":"","type":"uint256","internalType":"uint256"}],"stateMutability":"view"},{"type":"function","name":"getAnalyticsStats","inputs":[],"outputs":[{"name":"totalUsers","type":"uint256","internalType":"uint256"},{"name":"totalWinners","type":"uint256","internalType":"uint256"},{"name":"totalVolume","type":"uint256","internalType":"uint256"}],"stateMutability":"view"},{"type":"function","name":"getGameStats","inputs":[],"outputs":[{"name":"totalGames","type":"uint256","internalType":"uint256"},{"name":"totalJackpot","type":"uint256","internalType":"uint256"},{"name":"totalPlayers","type":"uint256","internalType":"uint256"},{"name":"isActive","type":"bool","internalType":"bool"}],"stateMutability":"view"},{"type":"function","name":"getStorageHealth","inputs":[],"outputs":[{"name":"isInitialized","type":"bool","internalType":"bool"},{"name":"version","type":"uint256","internalType":"uint256"},{"name":"totalSlots","type":"uint256","internalType":"uint256"},{"name":"usedSlots","type":"uint256","internalType":"uint256"}],"stateMutability":"view"},{"type":"function","name":"getTreasuryStats","inputs":[],"outputs":[{"name":"totalDeposits","type":"uint256","internalType":"uint256"},{"name":"totalWithdrawals","type":"uint256","internalType":"uint256"},{"name":"totalFees","type":"uint256","internalType":"uint256"}],"stateMutability":"view"},{"type":"function","name":"grantAccess","inputs":[{"name":"user","type":"address","internalType":"address"},{"name":"permissions","type":"string[]","internalType":"string[]"}],"outputs":[],"stateMutability":"nonpayable"},{"type":"function","name":"hasPermission","inputs":[{"name":"user","type":"address","internalType":"address"},{"name":"permission","type":"string","internalType":"string"}],"outputs":[{"name":"","type":"bool","internalType":"bool"}],"stateMutability":"view"},{"type":"function","name":"initializeStorage","inputs":[],"outputs":[],"stateMutability":"nonpayable"},{"type":"function","name":"migrateStorage","inputs":[{"name":"newVersion","type":"uint256","internalType":"uint256"}],"outputs":[],"stateMutability":"nonpayable"},{"type":"function","name":"optimizeGameStorage","inputs":[{"name":"gameId","type":"uint256","internalType":"uint256"}],"outputs":[],"stateMutability":"nonpayable"},{"type":"function","name":"optimizeUserStorage","inputs":[{"name":"user","type":"address","internalType":"address"}],"outputs":[],"stateMutability":"nonpayable"},{"type":"function","name":"owner","inputs":[],"outputs":[{"name":"","type":"address","internalType":"address"}],"stateMutability":"view"},{"type":"function","name":"renounceOwnership","inputs":[],"outputs":[],"stateMutability":"nonpayable"},{"type":"function","name":"revokeAccess","inputs":[{"name":"user","type":"address","internalType":"address"}],"outputs":[],"stateMutability":"nonpayable"},{"type":"function","name":"supportedVersions","inputs":[{"name":"","type":"uint256","internalType":"uint256"}],"outputs":[{"name":"","type":"bool","internalType":"bool"}],"stateMutability":"view"},{"type":"function","name":"transferOwnership","inputs":[{"name":"newOwner","type":"address","internalType":"address"}],"outputs":[],"stateMutability":"nonpayable"},{"type":"event","name":"OwnershipTransferred","inputs":[{"name":"previousOwner","type":"address","indexed":true,"internalType":"address"},{"name":"newOwner","type":"address","indexed":true,"internalType":"address"}],"anonymous":false},{"type":"event","name":"StorageInitialized","inputs":[{"name":"version","type":"uint256","indexed":false,"internalType":"uint256"},{"name":"timestamp","type":"uint256","indexed":false,"internalType":"uint256"}],"anonymous":false},{"type":"event","name":"StorageMigrated","inputs":[{"name":"fromVersion","type":"uint256","indexed":false,"internalType":"uint256"},{"name":"toVersion","type":"uint256","indexed":false,"internalType":"uint256"},{"name":"timestamp","type":"uint256","indexed":false,"internalType":"uint256"}],"anonymous":false},{"type":"event","name":"StorageOptimized","inputs":[{"name":"operation","type":"string","indexed":false,"internalType":"string"},{"name":"gasSaved","type":"uint256","indexed":false,"internalType":"uint256"},{"name":"timestamp","type":"uint256","indexed":false,"internalType":"uint256"}],"anonymous":false},{"type":"error","name":"OwnableInvalidOwner","inputs":[{"name":"owner","type":"address","internalType":"address"}]},{"type":"error","name":"OwnableUnauthorizedAccount","inputs":[{"name":"account","type":"address","internalType":"address"}]}],"bytecode":{"object":"0x608080604052346100c35733156100ae575f8054336001600160a01b03198216811783556040519290916001600160a01b0316907f8be0079c531659141344cd1fd0a4f28419497f9722a3daafe3b4186f6b6457e09080a360018080557fe90b7bceb6e7df5418fb78d8ee546e97c83a08bbccc01a0644d599ccd2a7c2e0805460ff199081168317909155335f9081526003602052604090208054909116909117905561120790816100c88239f35b631e4fbdf760e01b81525f6004820152602490fd5b5f80fdfe60406080815260049081361015610014575f80fd5b5f3560e01c80630c832bc814610cac5780631aff30dd14610bf35780631c9f7fb914610abb578063715018a614610a645780637d62218414610a3857806385e685311461097e57806389b3af29146109305780638da5cb5b146109095780639d888e86146108eb578063bacad58214610897578063c6c1bb731461085b578063c8692e3f146107cd578063ca5cd16214610755578063d3859c9214610681578063d501817a146105cc578063de722294146104e0578063eb07ac061461042c578063f2fde38b1461039f5763f9ce73a7146100ed575f80fd5b3461039b578060031936011261039b57610105610e82565b602480359167ffffffffffffffff9485841161039b573660238501121561039b57838101359561013487611027565b9161014187519384610e98565b87835260209384840196878760059b60051b8301019136831161039b57888101915b83831061037557505050506101766111a6565b60018060a01b03165f5260039060038552875f20976001988960ff198254161790558186525f209351966801000000000000000088116103635784548886558089106102ef575b5095935f52845f20935f965b8888106101d257005b80518051908682116102dd578c928c928a926101ee8b54610f4d565b95601f968781116102a7575b50508395821160011461023a57849582915f9261022f575b50505f19828a1b1c191690841b1789555b019601970196946101c9565b015190505f80610212565b94601f198216908b5f52845f20915f5b818110610284575090869784889594931061026d575b505050811b018955610223565b01515f19838c1b60f8161c191690555f8080610260565b9497939686929691938786015181550195019301928f95929693918d959261024a565b6102cd918d5f52865f209089808701821c8301938988106102d4575b01901c01906110b0565b8f5f6101fa565b935082936102c3565b83604186634e487b7160e01b5f52525ffd5b855f528989885f2092830192015b82811061030b5750506101bd565b8c6103168254610f4d565b80610326575b5050018a906102fd565b601f808211600114610340575050505f81555b8c5f61031c565b5f9261035a918585528d85209301901c82018583016110b0565b81835555610339565b86604183634e487b7160e01b5f52525ffd5b823587811161039b57899161039083928d3691870101610ece565b815201920191610163565b5f80fd5b50903461039b57602036600319011261039b576103ba610e82565b906103c36111a6565b6001600160a01b039182169283156104165750505f54826bffffffffffffffffffffffff60a01b8216175f55167f8be0079c531659141344cd1fd0a4f28419497f9722a3daafe3b4186f6b6457e05f80a3005b905f6024925191631e4fbdf760e01b8352820152fd5b50903461039b57602036600319011261039b576104476111a6565b601e813511156104ac577fff57e5bbfd439c023214ffac7e619756a14073e65f351961c947e91c5f5e9ab060a08380519060608252601060608301526f06f6c645f646174615f636c65616e75760841b608083015261271060208301524290820152a1005b6020606492519162461bcd60e51b8352820152600f60248201526e4d696e696d756d203330206461797360881b6044820152fd5b50903461039b57602036600319011261039b5780356104fd6111a6565b805f52600260205260ff835f2054161561059357600154918282111561055e57506001819055915190815260208101919091524260408201527fe92e848e65b7470549ed3502963b33c3fcd04d8b1f13225b76f299eb7e9662fc90606090a1005b606490602085519162461bcd60e51b8352820152600f60248201526e24b73b30b634b2103b32b939b4b7b760891b6044820152fd5b506020606492519162461bcd60e51b835282015260136024820152722ab739bab83837b93a32b2103b32b939b4b7b760691b6044820152fd5b503461039b578060031936011261039b576105e5610e82565b6001600160a01b03165f90815260208381529082902080549193916024359081101561039b5761061491610f24565b91909161066f575061062590610f85565b918151928391602083528151918260208501525f5b8381106106595750505f83830185015250601f01601f19168101030190f35b818101830151878201870152869450820161063a565b5f90634e487b7160e01b82525260245ffd5b503461039b57602036600319011261039b5760a07fff57e5bbfd439c023214ffac7e619756a14073e65f351961c947e91c5f5e9ab0916106bf610e82565b6106d86106d36106cd61103f565b336110c6565b611074565b600180841b03165f527f588251c211afc5e129362241640344aecbbb6b8c08b4906c2cd81f276a1dca0f6020526003815f200180541561074c575b508051906060825260116060830152700757365725f646174615f636c65616e757607c1b6080830152610bb860208301524290820152a1005b42905583610713565b503461039b575f36600319011261039b576060907f588251c211afc5e129362241640344aecbbb6b8c08b4906c2cd81f276a1dca1854906201518042045f527f588251c211afc5e129362241640344aecbbb6b8c08b4906c2cd81f276a1dca11602052805f20549080519283525f6020840152820152f35b503461039b575f36600319011261039b577ff7a9062d04ea8d0705dde5e1a327b309bcebc1d15f53388d8da603a362b43cdf547ff7a9062d04ea8d0705dde5e1a327b309bcebc1d15f53388d8da603a362b43ce0547ff7a9062d04ea8d0705dde5e1a327b309bcebc1d15f53388d8da603a362b43ce154925191825260208201526040810191909152606090f35b503461039b57602036600319011261039b576020906001600160a01b03610880610e82565b165f526003825260ff815f20541690519015158152f35b503461039b575f36600319011261039b5760809060067f54a93883e668f845121f9ed2904459121a66c9b3035aae515f9eb649cbd75b1f541515916001548151938452602084015282015260066060820152f35b503461039b575f36600319011261039b576020906001549051908152f35b503461039b575f36600319011261039b575f5490516001600160a01b039091168152602090f35b503461039b578060031936011261039b57610949610e82565b916024359267ffffffffffffffff841161039b5761096f61097592602095369101610ece565b906110c6565b90519015158152f35b503461039b57602091602060031936011261039b5761099b610e82565b6109a36111a6565b60018060a01b03165f526003602052815f2060ff1981541690556020525f208054905f8155816109cf57005b5f5260205f20908101905b8181106109e357005b806109f060019254610f4d565b806109fd575b50016109da565b601f908181118414610a155750505f81555b5f6109f6565b610a2f5f92848452878420920160051c82018583016110b0565b81835555610a0f565b503461039b57602036600319011261039b57602091355f526002825260ff815f20541690519015158152f35b3461039b575f36600319011261039b57610a7c6111a6565b5f80546001600160a01b0319811682556001600160a01b03167f8be0079c531659141344cd1fd0a4f28419497f9722a3daafe3b4186f6b6457e08280a3005b50903461039b575f36600319011261039b57610ad56111a6565b7f54a93883e668f845121f9ed2904459121a66c9b3035aae515f9eb649cbd75b1f908154610bb0577f8c0bde852ac581ca2ceb7edb318cc3ee7c2d4a71236ef964199504c54d645e6f83662386f26fc100008455620151807f54a93883e668f845121f9ed2904459121a66c9b3035aae515f9eb649cbd75b205560647f54a93883e668f845121f9ed2904459121a66c9b3035aae515f9eb649cbd75b21557f54a93883e668f845121f9ed2904459121a66c9b3035aae515f9eb649cbd75b22600160ff198254161790556001548151908152426020820152a1005b606490602084519162461bcd60e51b8352820152601b60248201527f53746f7261676520616c726561647920696e697469616c697a656400000000006044820152fd5b503461039b575f36600319011261039b576080907f54a93883e668f845121f9ed2904459121a66c9b3035aae515f9eb649cbd75b2354907f54a93883e668f845121f9ed2904459121a66c9b3035aae515f9eb649cbd75b2454907f54a93883e668f845121f9ed2904459121a66c9b3035aae515f9eb649cbd75b25549060ff7f54a93883e668f845121f9ed2904459121a66c9b3035aae515f9eb649cbd75b225416928151948552602085015283015215156060820152f35b50903461039b57602036600319011261039b57610ccd6106d36106cd61103f565b80355f527f54a93883e668f845121f9ed2904459121a66c9b3035aae515f9eb649cbd75b1c6020526005825f20018054915f5b838110610d68577fff57e5bbfd439c023214ffac7e619756a14073e65f351961c947e91c5f5e9ab060a08680519060608252601660608301527519d85b5957d91d5c1b1a58d85d1957dc995b5bdd985b60521b608083015261138860208301524290820152a1005b6001808201808311610dce575b858110610d86575050600101610d00565b610d908386610f24565b90546003916001600160a01b0391829081610dab878c610f24565b905490871b1c1692851b1c1614610de1575b50505f198114610dce578101610d75565b601184634e487b7160e01b5f525260245ffd5b9196915f19808401848111610e6f57610dfb83918a610f24565b905490851b1c16610e0c8a8a610f24565b848293925491871b92831b921b191617905587548015610e5c5791610e4f9391610e5595930191610e3d838b610f24565b81939154921b1b191690558755611186565b95611186565b5f80610dbd565b603188634e487b7160e01b5f525260245ffd5b601188634e487b7160e01b5f525260245ffd5b600435906001600160a01b038216820361039b57565b90601f8019910116810190811067ffffffffffffffff821117610eba57604052565b634e487b7160e01b5f52604160045260245ffd5b81601f8201121561039b5780359067ffffffffffffffff8211610eba5760405192610f03601f8401601f191660200185610e98565b8284526020838301011161039b57815f926020809301838601378301015290565b8054821015610f39575f5260205f2001905f90565b634e487b7160e01b5f52603260045260245ffd5b90600182811c92168015610f7b575b6020831014610f6757565b634e487b7160e01b5f52602260045260245ffd5b91607f1691610f5c565b9060405191825f8254610f9781610f4d565b908184526020946001916001811690815f146110055750600114610fc7575b505050610fc592500383610e98565b565b5f90815285812095935091905b818310610fed575050610fc593508201015f8080610fb6565b85548884018501529485019487945091830191610fd4565b92505050610fc594925060ff191682840152151560051b8201015f8080610fb6565b67ffffffffffffffff8111610eba5760051b60200190565b604051906040820182811067ffffffffffffffff821117610eba5760405260088252674f5054494d495a4560c01b6020830152565b1561107b57565b60405162461bcd60e51b815260206004820152600d60248201526c2737903832b936b4b9b9b4b7b760991b6044820152606490fd5b8181106110bb575050565b5f81556001016110b0565b60018060a01b03165f5260206003815260ff60405f20541615611180576004815260405f209182546110f781611027565b936111056040519586610e98565b8185525f908152838120848087015b8484106111625750505050505f928051935b8481106111365750505050505f90565b838160051b830101518481519101208351858501201461115857600101611126565b5050505050600190565b600191829161117085610f85565b8152019201920191908590611114565b50505f90565b8015611192575f190190565b634e487b7160e01b5f52601160045260245ffd5b5f546001600160a01b031633036111b957565b60405163118cdaa760e01b8152336004820152602490fdfea26469706673582212200cde7155ebd51447bba5f8c532ad29fb5ed8637e1f1acd1587942dad82d138fb64736f6c63430008160033","linkReferences":{}},"methodIdentifiers":{"accessPermissions(address,uint256)":"d501817a","authorizedAccess(address)":"c6c1bb73","cleanupOldData(uint256)":"eb07ac06","currentVersion()":"9d888e86","getAnalyticsStats()":"ca5cd162","getGameStats()":"1aff30dd","getStorageHealth()":"bacad582","getTreasuryStats()":"c8692e3f","grantAccess(address,string[])":"f9ce73a7","hasPermission(address,string)":"89b3af29","initializeStorage()":"1c9f7fb9","migrateStorage(uint256)":"de722294","optimizeGameStorage(uint256)":"0c832bc8","optimizeUserStorage(address)":"d3859c92","owner()":"8da5cb5b","renounceOwnership()":"715018a6","revokeAccess(address)":"85e68531","supportedVersions(uint256)":"7d622184","transferOwnership(address)":"f2fde38b"},"id":21}