{"abi":[{"type":"function","name":"ANALYTICS_STORAGE_SLOT","inputs":[],"outputs":[{"name":"","type":"bytes32","internalType":"bytes32"}],"stateMutability":"view"},{"type":"function","name":"CONFIG_STORAGE_SLOT","inputs":[],"outputs":[{"name":"","type":"bytes32","internalType":"bytes32"}],"stateMutability":"view"},{"type":"function","name":"GAME_STORAGE_SLOT","inputs":[],"outputs":[{"name":"","type":"bytes32","internalType":"bytes32"}],"stateMutability":"view"},{"type":"function","name":"REFERRAL_STORAGE_SLOT","inputs":[],"outputs":[{"name":"","type":"bytes32","internalType":"bytes32"}],"stateMutability":"view"},{"type":"function","name":"SECURITY_STORAGE_SLOT","inputs":[],"outputs":[{"name":"","type":"bytes32","internalType":"bytes32"}],"stateMutability":"view"},{"type":"function","name":"TREASURY_STORAGE_SLOT","inputs":[],"outputs":[{"name":"","type":"bytes32","internalType":"bytes32"}],"stateMutability":"view"}],"bytecode":{"object":"0x60808060405234610016576101f3908161001b8239f35b5f80fdfe60806040908082526004361015610014575f80fd5b5f3560e01c9081634d7578ee14610185575080635ec423931461014b5780636712d22214610111578063703d1dab146100d7578063a9737f3a1461009d5763ffde885914610060575f80fd5b34610099575f36600319011261009957602090517f54a93883e668f845121f9ed2904459121a66c9b3035aae515f9eb649cbd75b1c8152f35b5f80fd5b5034610099575f36600319011261009957602090517fff36bbe4fcbb8b56cd9067a8aae6bd667fe81c194d2155762f4530c98625e46d8152f35b5034610099575f36600319011261009957602090517f0504359d2a7818f5457fc89f095b177d7a343e546844cde896347126af569b2e8152f35b5034610099575f36600319011261009957602090517f9256fd3ccd893a87aff6752b3b35ff5a222a56080d66dc2cfa500dc1da7aa2e88152f35b5034610099575f36600319011261009957602090517ff7a9062d04ea8d0705dde5e1a327b309bcebc1d15f53388d8da603a362b43cda8152f35b34610099575f36600319011261009957807f588251c211afc5e129362241640344aecbbb6b8c08b4906c2cd81f276a1dca0f60209252f3fea2646970667358221220b2e18f6e4c2677aba2d5e41d821c10e9e9ec82facdd7dcb4de3ddee6a2abaf4164736f6c63430008160033","linkReferences":{}},"methodIdentifiers":{"ANALYTICS_STORAGE_SLOT()":"4d7578ee","CONFIG_STORAGE_SLOT()":"703d1dab","GAME_STORAGE_SLOT()":"ffde8859","REFERRAL_STORAGE_SLOT()":"a9737f3a","SECURITY_STORAGE_SLOT()":"6712d222","TREASURY_STORAGE_SLOT()":"5ec42393"},"id":20}