{"abi":[{"type":"constructor","inputs":[],"stateMutability":"nonpayable"},{"type":"fallback","stateMutability":"payable"},{"type":"receive","stateMutability":"payable"},{"type":"function","name":"AD_GAME_DURATION","inputs":[],"outputs":[{"name":"","type":"uint256","internalType":"uint256"}],"stateMutability":"view"},{"type":"function","name":"AD_LOTTERY_FEE","inputs":[],"outputs":[{"name":"","type":"uint256","internalType":"uint256"}],"stateMutability":"view"},{"type":"function","name":"AD_LOTTERY_FEE_MAX","inputs":[],"outputs":[{"name":"","type":"uint256","internalType":"uint256"}],"stateMutability":"view"},{"type":"function","name":"AD_LOTTERY_FEE_PERCENT","inputs":[],"outputs":[{"name":"","type":"uint256","internalType":"uint256"}],"stateMutability":"view"},{"type":"function","name":"AD_LOTTERY_PRIZE","inputs":[],"outputs":[{"name":"","type":"uint256","internalType":"uint256"}],"stateMutability":"view"},{"type":"function","name":"AD_MAX_TICKETS","inputs":[],"outputs":[{"name":"","type":"uint256","internalType":"uint256"}],"stateMutability":"view"},{"type":"function","name":"AD_TICKET_PRICE","inputs":[],"outputs":[{"name":"","type":"uint256","internalType":"uint256"}],"stateMutability":"view"},{"type":"function","name":"DEVELOPER_FEE_PERCENT","inputs":[],"outputs":[{"name":"","type":"uint256","internalType":"uint256"}],"stateMutability":"view"},{"type":"function","name":"MAX_BLOCK_DELAY","inputs":[],"outputs":[{"name":"","type":"uint256","internalType":"uint256"}],"stateMutability":"view"},{"type":"function","name":"MIN_BLOCK_DELAY","inputs":[],"outputs":[{"name":"","type":"uint256","internalType":"uint256"}],"stateMutability":"view"},{"type":"function","name":"PURCHASE_COOLDOWN","inputs":[],"outputs":[{"name":"","type":"uint256","internalType":"uint256"}],"stateMutability":"view"},{"type":"function","name":"REFERRAL_FEE_PERCENT","inputs":[],"outputs":[{"name":"","type":"uint256","internalType":"uint256"}],"stateMutability":"view"},{"type":"function","name":"TOTAL_FEE_PERCENT","inputs":[],"outputs":[{"name":"","type":"uint256","internalType":"uint256"}],"stateMutability":"view"},{"type":"function","name":"UPGRADE_INTERFACE_VERSION","inputs":[],"outputs":[{"name":"","type":"string","internalType":"string"}],"stateMutability":"view"},{"type":"function","name":"adLotteryFee","inputs":[],"outputs":[{"name":"","type":"uint256","internalType":"uint256"}],"stateMutability":"view"},{"type":"function","name":"adToken","inputs":[],"outputs":[{"name":"","type":"address","internalType":"contract IAdToken"}],"stateMutability":"view"},{"type":"function","name":"autoEndGame","inputs":[],"outputs":[],"stateMutability":"nonpayable"},{"type":"function","name":"buyAdTicket","inputs":[{"name":"ticketCount","type":"uint256","internalType":"uint256"}],"outputs":[],"stateMutability":"nonpayable"},{"type":"function","name":"buyAdTicketBatch","inputs":[{"name":"ticketCounts","type":"uint256[]","internalType":"uint256[]"}],"outputs":[],"stateMutability":"nonpayable"},{"type":"function","name":"buyTicket","inputs":[{"name":"referrer","type":"address","internalType":"address"},{"name":"ticketCount","type":"uint256","internalType":"uint256"}],"outputs":[],"stateMutability":"payable"},{"type":"function","name":"changeGameDuration","inputs":[{"name":"duration","type":"uint256","internalType":"uint256"}],"outputs":[],"stateMutability":"nonpayable"},{"type":"function","name":"changeMaxTicketsPerPlayer","inputs":[{"name":"maxTickets","type":"uint256","internalType":"uint256"}],"outputs":[],"stateMutability":"nonpayable"},{"type":"function","name":"changeTicketPrice","inputs":[{"name":"price","type":"uint256","internalType":"uint256"}],"outputs":[],"stateMutability":"nonpayable"},{"type":"function","name":"checkAndEndGame","inputs":[],"outputs":[],"stateMutability":"nonpayable"},{"type":"function","name":"emergencyPause","inputs":[{"name":"reason","type":"string","internalType":"string"}],"outputs":[],"stateMutability":"nonpayable"},{"type":"function","name":"emergencyResume","inputs":[],"outputs":[],"stateMutability":"nonpayable"},{"type":"function","name":"getAdLotteryFeeInfo","inputs":[],"outputs":[{"name":"currentFee","type":"uint256","internalType":"uint256"},{"name":"maxFee","type":"uint256","internalType":"uint256"},{"name":"totalCollected","type":"uint256","internalType":"uint256"}],"stateMutability":"view"},{"type":"function","name":"getAdLotteryGameHistory","inputs":[{"name":"gameId","type":"uint256","internalType":"uint256"}],"outputs":[{"name":"gameNumber","type":"uint256","internalType":"uint256"},{"name":"jackpot","type":"uint256","internalType":"uint256"},{"name":"playerCount","type":"uint256","internalType":"uint256"},{"name":"endTime","type":"uint256","internalType":"uint256"},{"name":"gameState","type":"uint8","internalType":"enum StorageLayout.GameState"}],"stateMutability":"view"},{"type":"function","name":"getAdLotteryGameStatus","inputs":[],"outputs":[{"name":"isActive","type":"bool","internalType":"bool"},{"name":"currentGameId","type":"uint256","internalType":"uint256"},{"name":"playerCount","type":"uint256","internalType":"uint256"},{"name":"jackpot","type":"uint256","internalType":"uint256"},{"name":"remainingTime","type":"uint256","internalType":"uint256"}],"stateMutability":"view"},{"type":"function","name":"getAdLotteryInfo","inputs":[],"outputs":[{"name":"currentGameId","type":"uint256","internalType":"uint256"},{"name":"ticketPrice","type":"uint256","internalType":"uint256"},{"name":"gameDuration","type":"uint256","internalType":"uint256"},{"name":"maxTickets","type":"uint256","internalType":"uint256"},{"name":"adLotteryFeePercent","type":"uint256","internalType":"uint256"},{"name":"adTokenBalance","type":"uint256","internalType":"uint256"},{"name":"isActive","type":"bool","internalType":"bool"}],"stateMutability":"view"},{"type":"function","name":"getAdLotteryStats","inputs":[],"outputs":[{"name":"totalTickets","type":"uint256","internalType":"uint256"},{"name":"totalBurnedTokens","type":"uint256","internalType":"uint256"},{"name":"totalPrizes","type":"uint256","internalType":"uint256"},{"name":"activeGames","type":"uint256","internalType":"uint256"}],"stateMutability":"view"},{"type":"function","name":"getAdTokenBalance","inputs":[],"outputs":[{"name":"","type":"uint256","internalType":"uint256"}],"stateMutability":"view"},{"type":"function","name":"getAdTokenBurnedAmount","inputs":[],"outputs":[{"name":"","type":"uint256","internalType":"uint256"}],"stateMutability":"view"},{"type":"function","name":"getAdTokenTotalSupply","inputs":[],"outputs":[{"name":"","type":"uint256","internalType":"uint256"}],"stateMutability":"view"},{"type":"function","name":"getCompleteGameStatus","inputs":[],"outputs":[{"name":"isActive","type":"bool","internalType":"bool"},{"name":"currentGameId","type":"uint256","internalType":"uint256"},{"name":"playerCount","type":"uint256","internalType":"uint256"},{"name":"jackpot","type":"uint256","internalType":"uint256"},{"name":"remainingTime","type":"uint256","internalType":"uint256"},{"name":"gameState","type":"uint8","internalType":"enum StorageLayout.GameState"}],"stateMutability":"view"},{"type":"function","name":"getContractBalance","inputs":[],"outputs":[{"name":"","type":"uint256","internalType":"uint256"}],"stateMutability":"view"},{"type":"function","name":"getContractHealth","inputs":[],"outputs":[{"name":"isInitialized","type":"bool","internalType":"bool"},{"name":"contractBalance","type":"uint256","internalType":"uint256"},{"name":"totalGames","type":"uint256","internalType":"uint256"},{"name":"totalPlayers","type":"uint256","internalType":"uint256"},{"name":"totalJackpot","type":"uint256","internalType":"uint256"}],"stateMutability":"view"},{"type":"function","name":"getCurrentGameInfo","inputs":[],"outputs":[{"name":"gameNumber","type":"uint256","internalType":"uint256"},{"name":"startTime","type":"uint256","internalType":"uint256"},{"name":"endTime","type":"uint256","internalType":"uint256"},{"name":"jackpot","type":"uint256","internalType":"uint256"},{"name":"playerCount","type":"uint256","internalType":"uint256"},{"name":"state","type":"uint8","internalType":"enum StorageLayout.GameState"}],"stateMutability":"view"},{"type":"function","name":"getDetailedAdLotteryStats","inputs":[],"outputs":[{"name":"totalGames","type":"uint256","internalType":"uint256"},{"name":"totalPlayers","type":"uint256","internalType":"uint256"},{"name":"totalBurnedTokens","type":"uint256","internalType":"uint256"},{"name":"averageTicketsPerGame","type":"uint256","internalType":"uint256"},{"name":"successRate","type":"uint256","internalType":"uint256"}],"stateMutability":"view"},{"type":"function","name":"getDetailedGameStats","inputs":[],"outputs":[{"name":"totalGames","type":"uint256","internalType":"uint256"},{"name":"totalPlayers","type":"uint256","internalType":"uint256"},{"name":"totalJackpot","type":"uint256","internalType":"uint256"},{"name":"averageTicketsPerGame","type":"uint256","internalType":"uint256"},{"name":"successRate","type":"uint256","internalType":"uint256"}],"stateMutability":"view"},{"type":"function","name":"getGameConfig","inputs":[],"outputs":[{"name":"ticketPrice","type":"uint256","internalType":"uint256"},{"name":"gameDuration","type":"uint256","internalType":"uint256"},{"name":"maxTicketsPerPlayer","type":"uint256","internalType":"uint256"},{"name":"isActive","type":"bool","internalType":"bool"}],"stateMutability":"view"},{"type":"function","name":"getGameInfo","inputs":[],"outputs":[{"name":"currentGameNumber","type":"uint256","internalType":"uint256"},{"name":"startTime","type":"uint256","internalType":"uint256"},{"name":"duration","type":"uint256","internalType":"uint256"},{"name":"remainingTime","type":"uint256","internalType":"uint256"},{"name":"timeExpired","type":"bool","internalType":"bool"},{"name":"playerCount","type":"uint256","internalType":"uint256"},{"name":"currentJackpot","type":"uint256","internalType":"uint256"}],"stateMutability":"view"},{"type":"function","name":"getPlayerAnalytics","inputs":[{"name":"player","type":"address","internalType":"address"}],"outputs":[{"name":"totalTicketsPurchased","type":"uint256","internalType":"uint256"},{"name":"gamesParticipated","type":"uint256","internalType":"uint256"},{"name":"lastActivityTime","type":"uint256","internalType":"uint256"},{"name":"averageTicketsPerGame","type":"uint256","internalType":"uint256"}],"stateMutability":"view"},{"type":"function","name":"getPlayerInfo","inputs":[{"name":"player","type":"address","internalType":"address"}],"outputs":[{"name":"ticketsInCurrentGame","type":"uint256","internalType":"uint256"},{"name":"isInCurrentGame","type":"bool","internalType":"bool"}],"stateMutability":"view"},{"type":"function","name":"getRemainingGameTime","inputs":[],"outputs":[{"name":"","type":"uint256","internalType":"uint256"}],"stateMutability":"view"},{"type":"function","name":"initialize","inputs":[{"name":"owner","type":"address","internalType":"address"},{"name":"","type":"address","internalType":"address"},{"name":"","type":"address","internalType":"address"},{"name":"","type":"address","internalType":"address"},{"name":"","type":"address","internalType":"address"},{"name":"_treasuryName","type":"string","internalType":"string"}],"outputs":[],"stateMutability":"nonpayable"},{"type":"function","name":"isGameTimeExpired","inputs":[],"outputs":[{"name":"","type":"bool","internalType":"bool"}],"stateMutability":"view"},{"type":"function","name":"lastPurchaseTime","inputs":[{"name":"","type":"address","internalType":"address"}],"outputs":[{"name":"","type":"uint256","internalType":"uint256"}],"stateMutability":"view"},{"type":"function","name":"ownable","inputs":[],"outputs":[{"name":"","type":"address","internalType":"contract IOwnable"}],"stateMutability":"view"},{"type":"function","name":"owner","inputs":[],"outputs":[{"name":"","type":"address","internalType":"address"}],"stateMutability":"view"},{"type":"function","name":"proxiableUUID","inputs":[],"outputs":[{"name":"","type":"bytes32","internalType":"bytes32"}],"stateMutability":"view"},{"type":"function","name":"registry","inputs":[],"outputs":[{"name":"","type":"address","internalType":"contract ContractRegistry"}],"stateMutability":"view"},{"type":"function","name":"renounceOwnership","inputs":[],"outputs":[],"stateMutability":"nonpayable"},{"type":"function","name":"resetPlayerCooldown","inputs":[{"name":"player","type":"address","internalType":"address"}],"outputs":[],"stateMutability":"nonpayable"},{"type":"function","name":"setAdLotteryFee","inputs":[{"name":"newFee","type":"uint256","internalType":"uint256"}],"outputs":[],"stateMutability":"nonpayable"},{"type":"function","name":"setAdToken","inputs":[{"name":"adTokenAddress","type":"address","internalType":"address"}],"outputs":[],"stateMutability":"nonpayable"},{"type":"function","name":"setPurchaseCooldown","inputs":[{"name":"newCooldown","type":"uint256","internalType":"uint256"}],"outputs":[],"stateMutability":"nonpayable"},{"type":"function","name":"setRegistry","inputs":[{"name":"_registry","type":"address","internalType":"address"}],"outputs":[],"stateMutability":"nonpayable"},{"type":"function","name":"setTestMode","inputs":[{"name":"enabled","type":"bool","internalType":"bool"}],"outputs":[],"stateMutability":"nonpayable"},{"type":"function","name":"setTreasuryName","inputs":[{"name":"_treasuryName","type":"string","internalType":"string"}],"outputs":[],"stateMutability":"nonpayable"},{"type":"function","name":"testMode","inputs":[],"outputs":[{"name":"","type":"bool","internalType":"bool"}],"stateMutability":"view"},{"type":"function","name":"transferOwnership","inputs":[{"name":"newOwner","type":"address","internalType":"address"}],"outputs":[],"stateMutability":"nonpayable"},{"type":"function","name":"treasuryName","inputs":[],"outputs":[{"name":"","type":"string","internalType":"string"}],"stateMutability":"view"},{"type":"function","name":"upgradeToAndCall","inputs":[{"name":"newImplementation","type":"address","internalType":"address"},{"name":"data","type":"bytes","internalType":"bytes"}],"outputs":[],"stateMutability":"payable"},{"type":"function","name":"withdrawAdTokens","inputs":[{"name":"amount","type":"uint256","internalType":"uint256"}],"outputs":[],"stateMutability":"nonpayable"},{"type":"event","name":"AdLotteryFeeCollected","inputs":[{"name":"amount","type":"uint256","indexed":false,"internalType":"uint256"},{"name":"timestamp","type":"uint256","indexed":false,"internalType":"uint256"}],"anonymous":false},{"type":"event","name":"AdLotteryFeeUpdated","inputs":[{"name":"oldFee","type":"uint256","indexed":true,"internalType":"uint256"},{"name":"newFee","type":"uint256","indexed":true,"internalType":"uint256"},{"name":"timestamp","type":"uint256","indexed":false,"internalType":"uint256"}],"anonymous":false},{"type":"event","name":"AdLotteryPerformanceMetrics","inputs":[{"name":"gameNumber","type":"uint256","indexed":true,"internalType":"uint256"},{"name":"gasUsed","type":"uint256","indexed":false,"internalType":"uint256"},{"name":"playerCount","type":"uint256","indexed":false,"internalType":"uint256"},{"name":"jackpot","type":"uint256","indexed":false,"internalType":"uint256"},{"name":"timestamp","type":"uint256","indexed":false,"internalType":"uint256"}],"anonymous":false},{"type":"event","name":"AdLotterySecurityEvent","inputs":[{"name":"player","type":"address","indexed":true,"internalType":"address"},{"name":"eventType","type":"string","indexed":false,"internalType":"string"},{"name":"timestamp","type":"uint256","indexed":false,"internalType":"uint256"}],"anonymous":false},{"type":"event","name":"AdLotteryWinnerSelected","inputs":[{"name":"winner","type":"address","indexed":true,"internalType":"address"},{"name":"gameNumber","type":"uint256","indexed":true,"internalType":"uint256"},{"name":"prizeAmount","type":"uint256","indexed":false,"internalType":"uint256"},{"name":"timestamp","type":"uint256","indexed":false,"internalType":"uint256"}],"anonymous":false},{"type":"event","name":"AdTicketPurchased","inputs":[{"name":"player","type":"address","indexed":true,"internalType":"address"},{"name":"gameNumber","type":"uint256","indexed":true,"internalType":"uint256"},{"name":"ticketCount","type":"uint256","indexed":false,"internalType":"uint256"},{"name":"adTokensUsed","type":"uint256","indexed":false,"internalType":"uint256"},{"name":"timestamp","type":"uint256","indexed":false,"internalType":"uint256"}],"anonymous":false},{"type":"event","name":"ContractNotFound","inputs":[{"name":"contractName","type":"string","indexed":false,"internalType":"string"},{"name":"timestamp","type":"uint256","indexed":false,"internalType":"uint256"}],"anonymous":false},{"type":"event","name":"DeveloperFeeSent","inputs":[{"name":"distributor","type":"address","indexed":true,"internalType":"address"},{"name":"amount","type":"uint256","indexed":false,"internalType":"uint256"},{"name":"timestamp","type":"uint256","indexed":false,"internalType":"uint256"}],"anonymous":false},{"type":"event","name":"DistributorError","inputs":[{"name":"operation","type":"string","indexed":false,"internalType":"string"},{"name":"reason","type":"string","indexed":false,"internalType":"string"},{"name":"timestamp","type":"uint256","indexed":false,"internalType":"uint256"}],"anonymous":false},{"type":"event","name":"EmergencyPaused","inputs":[{"name":"by","type":"address","indexed":true,"internalType":"address"},{"name":"reason","type":"string","indexed":false,"internalType":"string"},{"name":"timestamp","type":"uint256","indexed":false,"internalType":"uint256"}],"anonymous":false},{"type":"event","name":"EmergencyResumed","inputs":[{"name":"by","type":"address","indexed":true,"internalType":"address"},{"name":"timestamp","type":"uint256","indexed":false,"internalType":"uint256"}],"anonymous":false},{"type":"event","name":"FeeDistributed","inputs":[{"name":"referralFee","type":"uint256","indexed":false,"internalType":"uint256"},{"name":"adLotteryFee","type":"uint256","indexed":false,"internalType":"uint256"},{"name":"developerFee","type":"uint256","indexed":false,"internalType":"uint256"},{"name":"timestamp","type":"uint256","indexed":false,"internalType":"uint256"}],"anonymous":false},{"type":"event","name":"GameDurationUpdated","inputs":[{"name":"oldValue","type":"uint256","indexed":false,"internalType":"uint256"},{"name":"newValue","type":"uint256","indexed":false,"internalType":"uint256"},{"name":"timestamp","type":"uint256","indexed":false,"internalType":"uint256"}],"anonymous":false},{"type":"event","name":"GameEnded","inputs":[{"name":"gameNumber","type":"uint256","indexed":true,"internalType":"uint256"},{"name":"totalPlayers","type":"uint256","indexed":false,"internalType":"uint256"},{"name":"totalJackpot","type":"uint256","indexed":false,"internalType":"uint256"},{"name":"timestamp","type":"uint256","indexed":false,"internalType":"uint256"}],"anonymous":false},{"type":"event","name":"GamePerformanceMetrics","inputs":[{"name":"gameNumber","type":"uint256","indexed":true,"internalType":"uint256"},{"name":"gasUsed","type":"uint256","indexed":false,"internalType":"uint256"},{"name":"playerCount","type":"uint256","indexed":false,"internalType":"uint256"},{"name":"jackpot","type":"uint256","indexed":false,"internalType":"uint256"},{"name":"timestamp","type":"uint256","indexed":false,"internalType":"uint256"}],"anonymous":false},{"type":"event","name":"GameSecurityEvent","inputs":[{"name":"player","type":"address","indexed":true,"internalType":"address"},{"name":"eventType","type":"string","indexed":false,"internalType":"string"},{"name":"timestamp","type":"uint256","indexed":false,"internalType":"uint256"}],"anonymous":false},{"type":"event","name":"GameStateChanged","inputs":[{"name":"gameNumber","type":"uint256","indexed":false,"internalType":"uint256"},{"name":"state","type":"uint8","indexed":false,"internalType":"enum StorageLayout.GameState"},{"name":"timestamp","type":"uint256","indexed":false,"internalType":"uint256"}],"anonymous":false},{"type":"event","name":"Initialized","inputs":[{"name":"version","type":"uint64","indexed":false,"internalType":"uint64"}],"anonymous":false},{"type":"event","name":"JackpotDistributed","inputs":[{"name":"winner","type":"address","indexed":true,"internalType":"address"},{"name":"amount","type":"uint256","indexed":false,"internalType":"uint256"},{"name":"gameNumber","type":"uint256","indexed":true,"internalType":"uint256"},{"name":"timestamp","type":"uint256","indexed":false,"internalType":"uint256"}],"anonymous":false},{"type":"event","name":"MaxTicketsPerPlayerUpdated","inputs":[{"name":"oldValue","type":"uint256","indexed":false,"internalType":"uint256"},{"name":"newValue","type":"uint256","indexed":false,"internalType":"uint256"},{"name":"timestamp","type":"uint256","indexed":false,"internalType":"uint256"}],"anonymous":false},{"type":"event","name":"OwnershipTransferred","inputs":[{"name":"previousOwner","type":"address","indexed":true,"internalType":"address"},{"name":"newOwner","type":"address","indexed":true,"internalType":"address"}],"anonymous":false},{"type":"event","name":"ReferralError","inputs":[{"name":"operation","type":"string","indexed":false,"internalType":"string"},{"name":"reason","type":"string","indexed":false,"internalType":"string"},{"name":"timestamp","type":"uint256","indexed":false,"internalType":"uint256"}],"anonymous":false},{"type":"event","name":"RegistryError","inputs":[{"name":"operation","type":"string","indexed":false,"internalType":"string"},{"name":"contractName","type":"string","indexed":false,"internalType":"string"},{"name":"timestamp","type":"uint256","indexed":false,"internalType":"uint256"}],"anonymous":false},{"type":"event","name":"StatsError","inputs":[{"name":"operation","type":"string","indexed":false,"internalType":"string"},{"name":"reason","type":"string","indexed":false,"internalType":"string"},{"name":"timestamp","type":"uint256","indexed":false,"internalType":"uint256"}],"anonymous":false},{"type":"event","name":"TicketPriceChanged","inputs":[{"name":"oldPrice","type":"uint256","indexed":false,"internalType":"uint256"},{"name":"newPrice","type":"uint256","indexed":false,"internalType":"uint256"},{"name":"timestamp","type":"uint256","indexed":false,"internalType":"uint256"}],"anonymous":false},{"type":"event","name":"TicketPurchased","inputs":[{"name":"player","type":"address","indexed":true,"internalType":"address"},{"name":"gameNumber","type":"uint256","indexed":true,"internalType":"uint256"},{"name":"ticketIndex","type":"uint256","indexed":false,"internalType":"uint256"},{"name":"timestamp","type":"uint256","indexed":false,"internalType":"uint256"}],"anonymous":false},{"type":"event","name":"TreasuryFundsDeposited","inputs":[{"name":"amount","type":"uint256","indexed":false,"internalType":"uint256"},{"name":"timestamp","type":"uint256","indexed":false,"internalType":"uint256"}],"anonymous":false},{"type":"event","name":"TreasuryFundsWithdrawn","inputs":[{"name":"winner","type":"address","indexed":false,"internalType":"address"},{"name":"amount","type":"uint256","indexed":false,"internalType":"uint256"},{"name":"timestamp","type":"uint256","indexed":false,"internalType":"uint256"}],"anonymous":false},{"type":"event","name":"TreasuryOperationFailed","inputs":[{"name":"operation","type":"string","indexed":false,"internalType":"string"},{"name":"timestamp","type":"uint256","indexed":false,"internalType":"uint256"}],"anonymous":false},{"type":"event","name":"TreasuryTransferFailed","inputs":[{"name":"from","type":"address","indexed":false,"internalType":"address"},{"name":"amount","type":"uint256","indexed":false,"internalType":"uint256"},{"name":"reason","type":"string","indexed":false,"internalType":"string"},{"name":"timestamp","type":"uint256","indexed":false,"internalType":"uint256"}],"anonymous":false},{"type":"event","name":"Upgraded","inputs":[{"name":"implementation","type":"address","indexed":true,"internalType":"address"}],"anonymous":false},{"type":"event","name":"WinnerSelected","inputs":[{"name":"winner","type":"address","indexed":true,"internalType":"address"},{"name":"gameNumber","type":"uint256","indexed":true,"internalType":"uint256"},{"name":"jackpot","type":"uint256","indexed":false,"internalType":"uint256"},{"name":"playerCount","type":"uint256","indexed":false,"internalType":"uint256"},{"name":"timestamp","type":"uint256","indexed":false,"internalType":"uint256"}],"anonymous":false},{"type":"error","name":"AddressEmptyCode","inputs":[{"name":"target","type":"address","internalType":"address"}]},{"type":"error","name":"ERC1967InvalidImplementation","inputs":[{"name":"implementation","type":"address","internalType":"address"}]},{"type":"error","name":"ERC1967NonPayable","inputs":[]},{"type":"error","name":"ExceedsMaxTickets","inputs":[]},{"type":"error","name":"FailedCall","inputs":[]},{"type":"error","name":"GameNotActive","inputs":[]},{"type":"error","name":"GameNotInActiveState","inputs":[]},{"type":"error","name":"IncorrectAmount","inputs":[]},{"type":"error","name":"InvalidInitialization","inputs":[]},{"type":"error","name":"InvalidRange","inputs":[]},{"type":"error","name":"InvalidTicketCount","inputs":[]},{"type":"error","name":"NoPlayersInGame","inputs":[]},{"type":"error","name":"NotInitializing","inputs":[]},{"type":"error","name":"OwnableInvalidOwner","inputs":[{"name":"owner","type":"address","internalType":"address"}]},{"type":"error","name":"OwnableUnauthorizedAccount","inputs":[{"name":"account","type":"address","internalType":"address"}]},{"type":"error","name":"ReentrancyGuardReentrantCall","inputs":[]},{"type":"error","name":"ReferralProcessingFailed","inputs":[]},{"type":"error","name":"StatsUpdateFailed","inputs":[]},{"type":"error","name":"UUPSUnauthorizedCallContext","inputs":[]},{"type":"error","name":"UUPSUnsupportedProxiableUUID","inputs":[{"name":"slot","type":"bytes32","internalType":"bytes32"}]}],"bytecode":{"object":"0x60a08060405234620000e05730608052600360045560ff19600654166006557ff0c57e16840df040f15088dc2f81fe391c3923bec73e23a9662efc9c229c6a009081549060ff8260401c16620000d157506001600160401b036002600160401b0319828216016200008b575b604051614e9a9081620000e582396080518181816123cc01526124810152f35b6001600160401b031990911681179091556040519081527fc7f505b2f371ae2175ee4913f4499e1f2633a7b5936321eed1cdaeb6115181d290602090a15f80806200006b565b63f92ee8a960e01b8152600490fd5b5f80fdfe608060409080825260048036101561002d575b505050361561002557610023613dd0565b005b610023613dd0565b5f925f3560e01c9283630141fc07146134c757508263074fbe76146134045782630a040bf3146133e35782630bdc103a14612fe25782630dac143714612f4d578263117559e714612f315782631357a99114612d7a57826314dd2cd114612d5e578263154b415014612bc75782631746bd1b14612b335782631ff1292f14612a96578263227a14c114612a5e57826322f19172146129f0578263328a994e146127cc5782633deeac70146127255782633fead80d14612709578263447b5727146126ec5782634630a0ee146126455782634bc2178f146103385782634f1ef2861461243057826352d1902d146123b857826353b7acdf146122e257826359328401146122345782635d130ec614611f745782636244480114611f5757826365dbb77e14611e8457826366a5ef2f1461198757826367898fdd146118d85782636b8cd144146117675782636f9fb98a1461174c578263715018a6146116e357826374baa13114611656578263750741111461155f578263774b1b051461153657826377a22219146115135782637b103999146114eb5782638069a2d3146113c35782638b235f19146113105782638da5cb5b146112db5782639025ceab1461121957826390272c19146111fb5782639191f02c146111b057826393c87f031461112f578263a05a1150146110a1578263a645e84014611057578263a91ee0dc14610fcd578263a9f776841461033d578263ad3cb1cc14610f88578263b366623b14610e90578263b38854be14610e67578263b640355614610e49578263bf77e7c814610e23578263c037cc6c14610d8e578263c3da0cf314610d72578263c59ff8f614610d56578263cd9ea34214610d32578263cf5b4fd514610c7b578263d076d1d6146106e3578263d5a83a4e14610660578263e443d355146105ca578263e7178dce1461045e578263ec36a40e146103425750508063eed113691461033d578063f028dbd1146103385763f2fde38b14610309578080610012565b346103355760203660031901126103355761033261032561359e565b61032d61457b565b613d5f565b80f35b80fd5b6135ec565b613753565b83903461045a578160031936011261045a575f80516020614e05833981519152548015610453575f19810190811161044057915b835460035483516370a0823160e01b81523096810196909652602090869060249082906001600160a01b03165afa91821561043557916103fc575b60e094506201518060ff5f80516020614d858339815191525416938051958652670de0b6b3a7640000602087015285015260646060850152608084015260a0830152151560c0820152f35b90506020843d60201161042d575b816104176020938361364b565b810103126104295760e09351906103b1565b5f80fd5b3d915061040a565b8351903d90823e3d90fd5b634e487b7160e01b835260118452602483fd5b5081610376565b5080fd5b83903461045a578160031936011261045a575f80516020614e0583398151915254905f80516020614de583398151915254927f54a93883e668f845121f9ed2904459121a66c9b3035aae515f9eb649cbd75b2454831515805f146105c4576104dd6104d75f80516020614d258339815191525487613913565b836139cf565b925b8091815b8781106105665750156105575760648202918083046064149015171561054457508461054095969750610515916139cf565b925b51958695869192608093969594919660a084019784526020840152604083015260608201520152565b0390f35b634e487b7160e01b815260118852602490fd5b90506105409495965092610517565b8083525f80516020614d6583398151915260205260ff600788852001541660038110156105b15760021461059d575b6001016104e3565b926105a96001916139ed565b939050610595565b634e487b7160e01b845260218b52602484fd5b826104df565b91503461065c57602036600319011261065c578035916105e861457b565b600a83116106215760207f3252786c593b7c9cc1843860b9468e2e062fddd05f07b6f1f63cf9cd8ba239c491848454945551428152a380f35b906020606492519162461bcd60e51b835282015260156024820152744665652063616e6e6f74206578636565642031302560581b6044820152fd5b8280fd5b8334610335578060031936011261033557545f80516020614e05833981519152545f80516020614de5833981519152547f54a93883e668f845121f9ed2904459121a66c9b3035aae515f9eb649cbd75b245493516001600160a01b039093161515835247602084015260408301919091526060820152608081019190915260a090f35b833461033557602090816003193601126103355767ffffffffffffffff90843582811161045a573660238201121561045a5780860135906024938211610c69578160051b8651926107368783018561364b565b8352848684019183010191368311610c655785879101915b838310610c555750505050610761614192565b805115610c25576107733315156137e7565b6003546001600160a01b039081169590949061079087151561382c565b5f80516020614d85833981519152916107ac60ff84541661386b565b60ff6006541615610bec575b849692859386985b86518a101561088a576107de6107d68b89613d08565b511515613d1c565b6064806107eb8c8a613d08565b51116108555750610807906108008b89613d08565b51906138ba565b946108128a88613d08565b5190670de0b6b3a7640000918281029281840414901517156108435760019161083a916138ba565b990198946107c0565b634e487b7160e01b895260118d528989fd5b855162461bcd60e51b8152808e018690526013818c01527245786365656473206d6178207469636b65747360681b6044820152fd5b5083516370a0823160e01b815233818d01528b9593949391908b86828c81845afa918215610be257879185918c94610bab575b506108cd826108ff951015613926565b87516323b872dd60e01b815233818c01908152306020820152604081019390935293849283918e918391606090910190565b03925af1908115610ba1579061091c918a91610b74575b50613983565b6003541690813b15610b7057879189839286519485938492630852cd8d60e31b84528b8401525af18015610b6657908791610b4e575b505060ff61096d91338852600585524284892055541661386b565b5f80516020614e0583398151915280549092908015610b47575f198101908111610b23575b86525f80516020614d65833981519152908181528287209360ff6007860154166003811015610b355715610afb575b50505060ff600783015416936003851015610ae957956001966109e688899714613b44565b86975b610a0b575b866109f7614943565b60015f80516020614e258339815191525580f35b8051881015610ae457610a1e8882613d08565b518015610a2b8115613d1c565b610a57610a4183610a3b336135b4565b546138ba565b5f80516020614e458339815191525410156141c1565b610a618233614873565b855491670de0b6b3a76400009182820292828404141715610ad2579188999a917fdaf41064209c1a84a56f52155925c6c47795c4a8937c6c132be1a341c300b28c610ac78b95895191829133954291846040919493926060820195825260208201520152565b0390a30197966109e9565b634e487b7160e01b8a5260118852848afd5b6109ee565b634e487b7160e01b8652602184528686fd5b9091929350610b086144a7565b545f198101908111610b2357865252808420908680806109c1565b634e487b7160e01b8752601185528787fd5b634e487b7160e01b8952602187528989fd5b5085610992565b610b5790613607565b610b62578588610952565b8580fd5b83513d89823e3d90fd5b8780fd5b610b949150873d8911610b9a575b610b8c818361364b565b81019061396b565b8b610916565b503d610b82565b85513d8b823e3d90fd5b935091905082813d8311610bdb575b610bc4818361364b565b8101031261042957905190869084906108cd6108bd565b503d610bba565b86513d8c823e3d90fd5b3385526005815281852054603c8101809111610c1357610c0e904210156138c7565b6107b8565b634e487b7160e01b865260118a528686fd5b845162461bcd60e51b8152808701859052600b818501526a08adae0e8f240c4c2e8c6d60ab1b6044820152606490fd5b823581529181019187910161074e565b8480fd5b5050634e487b7160e01b815260418552fd5b91503461065c57602036600319011261065c5780359067ffffffffffffffff8211610d2e57610cd1610d1e917fcc1b3dd39eb52913e9d184dde2ed4916801bdc2f5d6a119f2a946416893481d193369101613735565b610cd961457b565b610cfa60018060a01b035f80516020614d45833981519152541633146139fb565b5f80516020614d85833981519152805460ff191690558351848152938401906136f7565b914260208201528033930390a280f35b8380fd5b83903461045a578160031936011261045a5760209060ff6006541690519015158152f35b83903461045a578160031936011261045a576020905160648152f35b83903461045a578160031936011261045a5760209051603c8152f35b83903461045a578160031936011261045a5760035481516370a0823160e01b81523094810194909452602090849060249082906001600160a01b03165afa918215610e185791610de3575b6020925051908152f35b90506020823d602011610e10575b81610dfe6020938361364b565b81010312610429576020915190610dd9565b3d9150610df1565b9051903d90823e3d90fd5b83903461045a578160031936011261045a57602090610e40613cd8565b90519015158152f35b91503461065c578260031936011261065c5760209250549051908152f35b83903461045a578160031936011261045a5760025490516001600160a01b039091168152602090f35b91503461065c578260031936011261065c5760035482516318160ddd60e01b8152602093916001600160a01b03169084818581855afa908115610f7e5785908792610f50575b5083516370a0823160e01b815230868201529192829060249082905afa9586156104355795610f1f575b50610f0f606095600a9261376e565b9254938251948552840152820152f35b94508385813d8311610f49575b610f36818361364b565b8101031261042957935193610f0f610f00565b503d610f2c565b809250813d8311610f77575b610f66818361364b565b810103126104295751846024610ed6565b503d610f5c565b83513d88823e3d90fd5b83903461045a578160031936011261045a57805161054091610fa98261362f565b60058252640352e302e360dc1b6020830152519182916020835260208301906136f7565b91503461065c57602036600319011261065c57610fe861359e565b610ff061457b565b6001600160a01b031691821561101457505081546001600160a01b03191617815580f35b906020606492519162461bcd60e51b8352820152601860248201527f496e76616c6964207265676973747279206164647265737300000000000000006044820152fd5b83903461045a578160031936011261045a5760c09061109f611077613b82565b94969093819392935197885260208801528601526060850152608084015260a083019061357d565bf35b83903461045a57602036600319011261045a576105406110bf61359e565b916110c9836135b4565b546001600160a01b03909316845260056020528084205483156111275760ff60015b1694851561112157506110fe85856139cf565b915b51948594859094939260609260808301968352602083015260408201520152565b91611100565b60ff856110eb565b83903461045a578160031936011261045a5761114961457b565b61116a60018060a01b035f80516020614d45833981519152541633146139fb565b5f80516020614d85833981519152600160ff19825416179055514281527fe0dc8967738d1ca725802874d41e2ab2405df0e2eb3c61069d26d2782660d59460203392a280f35b83903461045a578160031936011261045a5760035481516318160ddd60e01b81529360209185919082906001600160a01b03165afa918215610e185791610de3576020925051908152f35b83903461045a578160031936011261045a5760209051620151808152f35b91503461065c578260031936011261065c575f80516020614e05833981519152549081156112cf575f1982019182116112bc57508161054091935b8481525f80516020614d65833981519152602052209160ff5f80516020614d858339815191525416926003600582015491015490611290613ae9565b9251958695869192608093969594919660a0840197151584526020840152604083015260608201520152565b634e487b7160e01b845260119052602483fd5b50506105408183611254565b83903461045a578160031936011261045a575f80516020614d458339815191525490516001600160a01b039091168152602090f35b9091503461065c578260031936011261065c575f80516020614e058339815191525480156113bc575f1981019081116113a9575b83525f80516020614d6583398151915260205282209060ff60078301541690600382101561139657506001149081611387575b5061137f5780f35b610332614218565b6002915001544210155f611377565b634e487b7160e01b845260219052602483fd5b634e487b7160e01b845260118352602484fd5b5082611344565b91503461065c57602036600319011261065c576113de61359e565b916113e761457b565b6001600160a01b0383169283156114a857308414611465573b156114225750506bffffffffffffffffffffffff60a01b600354161760035580f35b906020606492519162461bcd60e51b8352820152601c60248201527f416420546f6b656e206164647265737320686173206e6f20636f6465000000006044820152fd5b815162461bcd60e51b8152602081850152601b60248201527f43616e6e6f74207365742073656c6620617320416420546f6b656e00000000006044820152606490fd5b815162461bcd60e51b8152602081850152601860248201527f496e76616c696420416420546f6b656e206164647265737300000000000000006044820152606490fd5b83903461045a578160031936011261045a57905490516001600160a01b039091168152602090f35b83903461045a578160031936011261045a576020905167016345785d8a00008152f35b83903461045a578160031936011261045a5760035490516001600160a01b039091168152602090f35b833461033557806003193601126103355760035482516318160ddd60e01b81526020946001600160a01b03909216929185828281875afa91821561164c57908691849361161b575b5060248651809681936370a0823160e01b835230908301525afa91821561161057916115df575b6115d8925061376e565b9051908152f35b90508382813d8311611609575b6115f6818361364b565b81010312610429576115d89151906115ce565b503d6115ec565b8451903d90823e3d90fd5b8281939294503d8311611645575b611633818361364b565b810103126104295785905191876115a7565b503d611629565b85513d85823e3d90fd5b9091503461065c57602036600319011261065c5781359161167561457b565b610e1083116116ad57507f3252786c593b7c9cc1843860b9468e2e062fddd05f07b6f1f63cf9cd8ba239c46020603c9251428152a380f35b6020606492519162461bcd60e51b83528201526011602482015270436f6f6c646f776e20746f6f206c6f6e6760781b6044820152fd5b83346103355780600319360112610335576116fc61457b565b5f80516020614d4583398151915280546001600160a01b031981169091555f906001600160a01b03167f8be0079c531659141344cd1fd0a4f28419497f9722a3daafe3b4186f6b6457e08280a380f35b83903461045a578160031936011261045a5751478152602090f35b5082346103355760208060031936011261045a5767ffffffffffffffff8335818111610d2e5761179a9036908601613735565b936117a361457b565b6117af85511515613aa5565b84519182116118c557506001916117c683546136bf565b601f8111611873575b50602090601f831160011461180a57508394829394926117ff575b50505f19600383901b1c191690821b17905580f35b0151905084806117ea565b838552601f198316955f80516020614dc5833981519152929186905b88821061185c5750508385969710611844575b505050811b01905580f35b01515f1960f88460031b161c19169055848080611839565b808785968294968601518155019501930190611826565b8385525f80516020614dc5833981519152601f840160051c810191602085106118bb575b601f0160051c019084905b8281106118b05750506117cf565b8681550184906118a2565b9091508190611897565b634e487b7160e01b845260419052602483fd5b83823461045a57602036600319011261045a576118f361359e565b906118fc61457b565b6001600160a01b03821690811561194b5750928293610332935260056020528381812055519061192b8261362f565b600e82526d10dbdbdb191bdddb8814995cd95d60921b60208301526145b3565b606490602086519162461bcd60e51b83528201526016602482015275496e76616c696420706c61796572206164647265737360501b6044820152fd5b8091925060031936011261065c5761199d61359e565b9060248035926119ab614192565b6119c560ff5f80516020614d85833981519152541661386b565b6119d084151561378f565b5f80516020614d25833981519152906119ea858354613913565b3403611e4a575f80516020614e0583398151915280549096908015611e43575f198101908111611e31575b88525f80516020614d65833981519152602094818652868a209460ff6007870154169260039384811015611de85715611dfa575b60ff6007880154169a848c1015611de8576001809c1480611dda575b611dad575b60ff60078901541685811015611d9b578c611a859114613b44565b548015611d94575f198101908111611d82575b8c528752878b2090611ac88a611aad336135b4565b54611ac381611abc84826138ba565b1015614604565b6138ba565b611ad1336135b4565b5583611ae4336006850160058601614a1d565b611ce6575b611af7611b0192548c613913565b92019182546138ba565b9055611b0c3461478f565b600a340290341591348104600a14831715611cd45760649004611b86575b505050505084865b858110611b4d5787825f80516020614e258339815191525580f35b8254855182815242868201527f96541f70da731142b18e96f1def4d2a7733deb7d784723106d52c1d906d4c67a873392a3018590611b32565b348a1b348104600214831715611cd45760649004928034029034820414831715611cd457606490049360053402923484046005141715611cc357507f5b3735d487e9342fbcf11df79c2146f60ffabadb4d2e31ced107fe4346cd21ef9460649092049392611c46929091506001600160a01b0381168015159081611cb8575b5080611caf575b611c9e575b5082151580611c61575b5083611c53575b87519384934292859094939260609260808301968352602083015260408201520152565b0390a15f80808080611b2a565b611c5c84614bd8565b611c22565b611c6c575b5f611c1b565b7f6eac9fa4c5b54637971e9ed2cb39933d7d2d10c9438ff8ccf4e61a4e6c5cfa1b888051858152428a820152a1611c66565b611ca9903390614a93565b5f611c11565b50811515611c0c565b90503314155f611c05565b634e487b7160e01b8c52601190528afd5b50634e487b7160e01b8b52601184528afd5b505f80516020614de58339815191528054908c8201808311611d705782611d0e911015614648565b868401918d8354908101808211611d5c57611d349291611d2f91101561468d565b6139ed565b90558054908c8201809211611d4a575583611ae9565b634e487b7160e01b8e5260118752848efd5b5050634e487b7160e01b8f5260118852858ffd5b634e487b7160e01b8f5260118852858ffd5b634e487b7160e01b8d5260118652838dfd5b508b611a98565b634e487b7160e01b8e5260218752848efd5b9650611db7614218565b611dbf6144a7565b86545f198101908111611d82578c52808852888c2096611a6a565b506002880154421015611a65565b634e487b7160e01b8d5260218652838dfd5b9550611e046144a7565b89545f198101908111611e1f578b52858752878b2095611a49565b634e487b7160e01b8c5260118552828cfd5b634e487b7160e01b8952601182528489fd5b5087611a15565b835162461bcd60e51b815260208188015260158185015274125b98dbdc9c9958dd08185b5bdd5b9d081cd95b9d605a1b6044820152606490fd5b9091503461065c57602036600319011261065c57600254815163babcc53960e01b81523381850152923590602090849060249082906001600160a01b03165afa928315611f4d577fa1ee125423b04152b9dd94722cb954282038d2a7eedd7d25614dde62761f9bfd93611efe918691611f2e575b506139fb565b5f80516020614da58339815191528054908290559151918252602082015242604082015280606081015b0390a180f35b611f47915060203d602011610b9a57610b8c818361364b565b5f611ef8565b82513d86823e3d90fd5b83903461045a578160031936011261045a576020906115d8613ae9565b91503461065c5760c036600319011261065c57611f8f61359e565b906001600160a01b0390602435828116036104295760443582811603610429576064358281160361042957608435828116036104295767ffffffffffffffff9060a43582811161223057611fe69036908301613735565b937ff0c57e16840df040f15088dc2f81fe391c3923bec73e23a9662efc9c229c6a009485549460ff86891c161594861695861580612229575b6001809814908161221f575b159081612216575b50612206576120999261207c670de0b6b3a764000096959361208993898b67ffffffffffffffff198316178d556121e7575b50841615159161207483613a61565b511515613aa5565b6120846149dc565b613a61565b6120916149dc565b61032d6149dc565b6120a16149dc565b6120a96149dc565b6120b16149dc565b835f80516020614e2583398151915255306bffffffffffffffffffffffff60a01b60025416176002555f80516020614d2583398151915290815415612160575b5055620151805f80516020614da58339815191525560645f80516020614e458339815191525561211f578380f35b7fc7f505b2f371ae2175ee4913f4499e1f2633a7b5936321eed1cdaeb6115181d29260209268ff000000000000000019815416905551908152a15f80808380f35b662386f26fc100008255620151805f80516020614da58339815191525560645f80516020614e4583398151915255600760ff19915f80516020614d8583398151915287848254161790558980525f80516020614d6583398151915260205289898120918183558189840155816002840155816003840155820155019081541690555f6120f1565b68ffffffffffffffffff191668010000000000000001178b555f612065565b885163f92ee8a960e01b81528590fd5b9050155f612033565b303b15915061202b565b508561201f565b8680fd5b83346103355760203660031901126103355761224e61359e565b5f80516020614e058339815191525482525f80516020614d658339815191526020528282206005018054906001600160a01b0383811691855b8481106122aa575b878761229a886135b4565b5490825191825215156020820152f35b83836122b68385613a38565b90549060031b1c16146122cb57600101612287565b5050505050905061229a600191908480808061228f565b8334610335578060031936011261033557815191828260019360015494612308866136bf565b91828552602096876001821691825f14612391575050600114612348575b505050610540929161233991038561364b565b519282849384528301906136f7565b9190869350600183525f80516020614dc58339815191525b8284106123795750505082010181612339610540612326565b8054848a018601528895508794909301928101612360565b60ff19168782015293151560051b8601909301935084925061233991506105409050612326565b8334610335578060031936011261033557507f00000000000000000000000000000000000000000000000000000000000000006001600160a01b0316300361242357602090517f360894a13ba1a3210667c828492db98dca3e2076cc3735a920a3ca505d382bbc8152f35b5163703e46dd60e11b8152fd5b8091925060031936011261065c5761244661359e565b9060243567ffffffffffffffff8111610c655736602382011215610c65576124779036906024818701359101613689565b6001600160a01b037f00000000000000000000000000000000000000000000000000000000000000008116308114908115612617575b50612607576124ba61457b565b83169282516352d1902d60e01b81526020818781885afa8791816125d3575b506124f5578351634c9c8ce360e01b8152808701869052602490fd5b84879487927f360894a13ba1a3210667c828492db98dca3e2076cc3735a920a3ca505d382bbc908181036125bd5750843b156125a75780546001600160a01b03191683179055518592917fbc7cd75a20ee27fd9adebab32041f755214dbc6bffa90cc0225b39da2e5c2d3b8480a284511561258c5750508083602061258895519101845af4612582614ba9565b91614cc1565b5080f35b92509250503461259b57505080f35b63b398979f60e01b8152fd5b5051634c9c8ce360e01b81529182015260249150fd5b84602491845191632a87526960e21b8352820152fd5b9091506020813d6020116125ff575b816125ef6020938361364b565b81010312610b705751905f6124d9565b3d91506125e2565b825163703e46dd60e11b81528590fd5b9050817f360894a13ba1a3210667c828492db98dca3e2076cc3735a920a3ca505d382bbc541614155f6124ad565b9091503461065c57602036600319011261065c57600254815163babcc53960e01b81523381850152923590602090849060249082906001600160a01b03165afa928315611f4d577fdcefbf936a5a84ea694d7c34335e03240bee5f52df414c3b11bc2d6cfd9f3245936126be918691611f2e57506139fb565b5f80516020614d25833981519152805490829055915191825260208201524260408201528060608101611f28565b83903461045a578160031936011261045a57602090516101008152f35b83903461045a578160031936011261045a576020905160028152f35b9091503461065c57602036600319011261065c57600254815163babcc53960e01b81523381850152923590602090849060249082906001600160a01b03165afa928315611f4d577f3d7512e44b1904130b04bae66810a9802a47b92035f7277362af508d6463cd289361279e918691611f2e57506139fb565b5f80516020614e45833981519152805490829055915191825260208201524260408201528060608101611f28565b91503461065c5760209081600319360112610d2e578035906127ec61457b565b81156129ad5760035484516370a0823160e01b8082523084830152926001600160a01b0390921691908581602481865afa9081156129a3578891612976575b5084116129425790869291865192835230818401528583602481855afa928315612938578693869186916128ff575b506044929161286a911015613926565b8751948593849263a9059cbb60e01b845233908401528760248401525af19081156128f557916128c67f5cb16b96eae9e7321a2374725d21b09b310eac87d65cbdc13555123ecc31b49b95926060959488916128d85750613983565b8151923384528301524290820152a180f35b6128ef9150853d8711610b9a57610b8c818361364b565b5f610916565b84513d87823e3d90fd5b955050509183813d8311612931575b612918818361364b565b810103126104295791518692859290918590604461285a565b503d61290e565b87513d86823e3d90fd5b855162461bcd60e51b8152908101859052600e60248201526d125b9d985b1a5908185b5bdd5b9d60921b6044820152606490fd5b90508581813d831161299c575b61298d818361364b565b8101031261042957515f61282b565b503d612983565b87513d8a823e3d90fd5b835162461bcd60e51b8152908101839052601d60248201527f416d6f756e74206d7573742062652067726561746572207468616e20300000006044820152606490fd5b83903461045a578160031936011261045a576080905f80516020614d2583398151915254905f80516020614da583398151915254905f80516020614e45833981519152549060ff5f80516020614d858339815191525416928151948552602085015283015215156060820152f35b83903461045a57602036600319011261045a5760209181906001600160a01b03612a8661359e565b1681526005845220549051908152f35b91503461065c57602036600319011261065c57359081151591828103610d2e5761033292612ac261457b565b60ff8019600654169116176006555f14612b055751612ae08161362f565b601181527015195cdd08135bd91948115b98589b1959607a1b60208201525b336145b3565b51612b0f8161362f565b601281527115195cdd08135bd91948111a5cd8589b195960721b6020820152612aff565b83903461045a578160031936011261045a578060e0925f80516020614e058339815191525481525f80516020614d6583398151915260205220908154916001810154915f80516020614da583398151915254612b8d613ae9565b90612b96613cd8565b9260036005860154950154958151978852602088015286015260608501521515608084015260a083015260c0820152f35b833461033557806003193601126103355760035482516318160ddd60e01b8152602092916001600160a01b031683828781845afa90811561164c5784908492612d2e575b86516370a0823160e01b815230898201529350839060249082905afa90811561164c578391612cfd575b612c3f925061376e565b5f80516020614de5833981519152545f80516020614e05833981519152549093908015612ceb575f198101908111612cd85760ff96508392915f80516020614d65833981519152916105409695525260038583200154915b5f80516020614d8583398151915254871615612cd257506001945b519283526020830152604082015292909116606083015281906080820190565b94612cb2565b634e487b7160e01b845260118752602484fd5b505060ff945090610540929181612c97565b90508382813d8311612d27575b612d14818361364b565b8101031261042957612c3f915190612c35565b503d612d0a565b915082813d8311612d57575b612d44818361364b565b8101031261042957836024925191612c0b565b503d612d3a565b83903461045a578160031936011261045a576020905160058152f35b83346103355780600319360112610335576003805483516318160ddd60e01b81529193916020916001600160a01b03169082818881855afa9081156128f5578591612f04575b508351906370a0823160e01b82523088830152838260248181965afa908115612efa578691612ec9575b612df4925061376e565b905f80516020614e0583398151915254945f80516020614de5833981519152549686151590815f14612ec257612e2a88866139cf565b955b8394845b8a8110612e6657505050505f146105575760648202918083046064149015171561054457508461054095969750610515916139cf565b8086525f80516020614d65833981519152835260ff60078b882001541684811015612eaf57600214612e9b575b600101612e30565b95612ea76001916139ed565b969050612e93565b5050634e487b7160e01b855260218c5284fd5b8295612e2c565b90508382813d8311612ef3575b612ee0818361364b565b8101031261042957612df4915190612dea565b503d612ed6565b85513d88823e3d90fd5b90508281813d8311612f2a575b612f1b818361364b565b81010312610429575187612dc0565b503d612f11565b83903461045a578160031936011261045a576020905160018152f35b9091503461065c578260031936011261065c575f80516020614e05833981519152548015612fdb575f1981019081116113a9575b83525f80516020614d6583398151915260205282209060ff60078301541690600382101561139657506001149081612fcc575b50612fbc5780f35b612fc4614218565b6103326144a7565b6002915001544210155f612fb4565b5082612f81565b9150346104295760208060031936011261042957813590613001614192565b811592831561300f8161378f565b606484116133a1576130223315156137e7565b6003546001600160a01b03908116919061303d83151561382c565b5f80516020614d858339815191529061305960ff83541661386b565b60ff6006541615613367575b670de0b6b3a76400009788880298888a041417156133545788516370a0823160e01b815233868201526024949087818781855afa90811561334a578892918b915f91613313575b50916130bf6130ef925f95941015613926565b8c516323b872dd60e01b8152338a8201908152306020820152604081018e90529094859384928391606090910190565b03925af1908115613309579061310b915f916132f25750613983565b60035416803b15610429575f8091858b5180948193630852cd8d60e31b83528d8b8401525af180156132e8576132cb575b509061315a60ff61315f93338c5260058852428b8d2055541661386b565b61378f565b5f80516020614e05833981519152805490939080156132c4575f1981019081116132b2575b88525f80516020614d65833981519152908181528789209460ff60078701541660038110156132a05715613266575b50505060ff6007840154169160038310156132555750509161323e916131fc60017fdaf41064209c1a84a56f52155925c6c47795c4a8937c6c132be1a341c300b28c9514613b44565b61320c610a4183610a3b336135b4565b6132168233614873565b61321e614943565b549451908152602081019390935242604084015233929081906060820190565b0390a360015f80516020614e258339815191525580f35b634e487b7160e01b88526021905286fd5b90919294506132736144a7565b545f19810190811161328e57885252848620915f80806131b3565b634e487b7160e01b8952601184528489fd5b634e487b7160e01b8b5260218652848bfd5b634e487b7160e01b8952601184528289fd5b5087613184565b61315f929199506132db90613607565b5f9890915061315a61313c565b89513d5f823e3d90fd5b6128ef9150883d8a11610b9a57610b8c818361364b565b8a513d5f823e3d90fd5b938092508491503d8311613343575b61332c818361364b565b810103126104295790518791908a906130bf6130ac565b503d613322565b8b513d5f823e3d90fd5b601185634e487b7160e01b5f525260245ffd5b335f5260058652885f2054603c810180911161338e57613389904210156138c7565b613065565b601186634e487b7160e01b5f525260245ffd5b5060649185519162461bcd60e51b8352820152601c60248201527f45786365656473206d6178207469636b657473207065722067616d65000000006044820152fd5b34610429575f3660031901126104295760209051670de0b6b3a76400008152f35b34610429575f366003190112610429575f80516020614e05833981519152549182156134b9575f1983019283116134a6575061109f60c0925b805f525f80516020614d65833981519152602052825f2060ff5f80516020614d85833981519152541693600582015460038301549160ff600761347e613ae9565b95015416948151971515885260208801528601526060850152608084015260a083019061357d565b601190634e487b7160e01b5f525260245ffd5b5060c0915061109f5f61343d565b34610429576020366003190112610429578235905f80516020614e0583398151915254821015613546575060a09261109f915f525f80516020614d65833981519152602052825f208054936003820154928201549060ff600760028501549401541693815196875260208701528501526060840152608083019061357d565b62461bcd60e51b8152602084820152601360248201527211d85b5948191bd95cc81b9bdd08195e1a5cdd606a1b6044820152606490fd5b90600382101561358a5752565b634e487b7160e01b5f52602160045260245ffd5b600435906001600160a01b038216820361042957565b6001600160a01b03165f9081527f54a93883e668f845121f9ed2904459121a66c9b3035aae515f9eb649cbd75b1d6020526040902090565b34610429575f36600319011261042957602060405160038152f35b67ffffffffffffffff811161361b57604052565b634e487b7160e01b5f52604160045260245ffd5b6040810190811067ffffffffffffffff82111761361b57604052565b90601f8019910116810190811067ffffffffffffffff82111761361b57604052565b67ffffffffffffffff811161361b57601f01601f191660200190565b9291926136958261366d565b916136a3604051938461364b565b829481845281830111610429578281602093845f960137010152565b90600182811c921680156136ed575b60208310146136d957565b634e487b7160e01b5f52602260045260245ffd5b91607f16916136ce565b91908251928382525f5b848110613721575050825f602080949584010152601f8019910116010190565b602081830181015184830182015201613701565b9080601f830112156104295781602061375093359101613689565b90565b34610429575f366003190112610429576020604051600a8152f35b9190820391821161377b57565b634e487b7160e01b5f52601160045260245ffd5b1561379657565b60405162461bcd60e51b815260206004820152602360248201527f5469636b657420636f756e74206d75737420626520677265617465722074686160448201526206e20360ec1b6064820152608490fd5b156137ee57565b60405162461bcd60e51b8152602060048201526016602482015275496e76616c69642073656e646572206164647265737360501b6044820152606490fd5b1561383357565b60405162461bcd60e51b815260206004820152601060248201526f105908151bdad95b881b9bdd081cd95d60821b6044820152606490fd5b1561387257565b60405162461bcd60e51b815260206004820152601260248201527147616d65206973206e6f742061637469766560701b6044820152606490fd5b906001820180921161377b57565b9190820180921161377b57565b156138ce57565b60405162461bcd60e51b815260206004820152601960248201527f507572636861736520636f6f6c646f776e206e6f74206d6574000000000000006044820152606490fd5b8181029291811591840414171561377b57565b1561392d57565b60405162461bcd60e51b8152602060048201526016602482015275496e73756666696369656e7420414420746f6b656e7360501b6044820152606490fd5b90816020910312610429575180151581036104295790565b1561398a57565b60405162461bcd60e51b815260206004820152601860248201527f414420746f6b656e207472616e73666572206661696c656400000000000000006044820152606490fd5b81156139d9570490565b634e487b7160e01b5f52601260045260245ffd5b5f19811461377b5760010190565b15613a0257565b60405162461bcd60e51b815260206004820152600e60248201526d139bdd08185d5d1a1bdc9a5e995960921b6044820152606490fd5b8054821015613a4d575f5260205f2001905f90565b634e487b7160e01b5f52603260045260245ffd5b15613a6857565b60405162461bcd60e51b8152602060048201526015602482015274496e76616c6964206f776e6572206164647265737360581b6044820152606490fd5b15613aac57565b60405162461bcd60e51b8152602060048201526015602482015274496e76616c6964207472656173757279206e616d6560581b6044820152606490fd5b5f80516020614e05833981519152548015613b3d575f19810190811161377b575b5f525f80516020614d65833981519152602052600260405f20015480421015613b385761375090429061376e565b505f90565b505f613b0a565b15613b4b57565b60405162461bcd60e51b815260206004820152600f60248201526e47616d65206e6f742061637469766560881b6044820152606490fd5b5f80516020614e05833981519152548015613be5575f19810190811161377b575f525f80516020614d6583398151915260205260405f209081549060018301549260028101549260038201549260ff600760048501549401541691959493929190565b505f80525f80516020614d658339815191526020527f6b812a2f19fa550147a484020a12e3d9b790ae31d5224636c0e516e2a539e68b547f6b812a2f19fa550147a484020a12e3d9b790ae31d5224636c0e516e2a539e68c547f6b812a2f19fa550147a484020a12e3d9b790ae31d5224636c0e516e2a539e68d547f6b812a2f19fa550147a484020a12e3d9b790ae31d5224636c0e516e2a539e68e547f6b812a2f19fa550147a484020a12e3d9b790ae31d5224636c0e516e2a539e68f547f6b812a2f19fa550147a484020a12e3d9b790ae31d5224636c0e516e2a539e692549495939492939192909160ff90911690565b5f80516020614e05833981519152545f525f80516020614d65833981519152602052600260405f20015442101590565b8051821015613a4d5760209160051b010190565b15613d2357565b60405162461bcd60e51b8152602060048201526014602482015273125b9d985b1a59081d1a58dad95d0818dbdd5b9d60621b6044820152606490fd5b6001600160a01b03908116908115613db8575f80516020614d4583398151915280546001600160a01b031981168417909155167f8be0079c531659141344cd1fd0a4f28419497f9722a3daafe3b4186f6b6457e05f80a3565b604051631e4fbdf760e01b81525f6004820152602490fd5b613dd8614192565b613df260ff5f80516020614d85833981519152541661386b565b5f80516020614d2583398151915280549060019180800483148115171561377b573403614155575f80516020614e058339815191528054909190801561414e575f19810190811161377b575b5f525f80516020614d6583398151915291602090838252604092835f209460ff600787015416926003938481101561358a5715614129575b60ff6007880154168481101561358a5788148061411b575b6140ee575b60ff6007880154168481101561358a5788613eae9114613b44565b5480156140e7575f19810190811161377b575b5f528352835f2090613ee8613ed5336135b4565b54613ee381611abc816138ac565b6138ac565b613ef1336135b4565b5582613f04336006850160058601614a1d565b614086575b613f18915492019182546138ba565b9055613f233461478f565b600a340290341591348104600a1483171561377b5760649004613f9c575b5050835f5b818110613f635750505050505f80516020614e2583398151915255565b8454845182815242858201527f96541f70da731142b18e96f1def4d2a7733deb7d784723106d52c1d906d4c67a863392a3018490613f46565b34861b9034820460021483171561377b57803402903482041483171561377b57606490046005340292348404600514171561377b5761403160647f5b3735d487e9342fbcf11df79c2146f60ffabadb4d2e31ced107fe4346cd21ef94049282151580614049575b508361403b575b86519384936064429304859094939260609260808301968352602083015260408201520152565b0390a15f80613f41565b61404484614bd8565b61400a565b614054575b5f614003565b7f6eac9fa4c5b54637971e9ed2cb39933d7d2d10c9438ff8ccf4e61a4e6c5cfa1b8780518581524289820152a161404e565b505f80516020614de583398151915280549088820180831161377b57826140ae911015614648565b60048401918254908a820180831161377b576140cf92611d2f91101561468d565b905580549188830180931161377b5791905582613f09565b505f613ec1565b95506140f8614218565b6141006144a7565b85545f19810190811161377b575f52808452845f2095613e93565b506002870154421015613e8e565b95506141336144a7565b85545f19810190811161377b575f52808452845f2095613e76565b505f613e3e565b60405162461bcd60e51b8152602060048201526015602482015274125b98dbdc9c9958dd08185b5bdd5b9d081cd95b9d605a1b6044820152606490fd5b5f80516020614e2583398151915260028154146141af5760029055565b604051633ee5aeb560e01b8152600490fd5b156141c857565b60405162461bcd60e51b815260206004820152602260248201527f45786365656473206d6178696d756d207469636b6574732070657220706c617960448201526132b960f11b6064820152608490fd5b5f80516020614e05833981519152805480156144a0575f19810190811161377b575b5f525f80516020614d6583398151915290602090828252604092835f209160078301600260ff19825416179055548015155f14614499575f19810190811161377b575b5f5282526005835f2001928354928315614462575f19848101919085831161377b57821561442e576001198093116143f85743019143831161377b57430143811161377b575a8451918383019442865244878501524360608501524060808401524060a08301524260c08301523360601b60e083015260f482015260f48152610120810181811067ffffffffffffffff82111761361b577f46e59b25850fb5875ea16cb7de4c6866327eef1a3f4ff23c27b3c5ad811979dd976060976002957fbc90215e53e674c730aaa25f931a3d27c8fb234665be39704719b8accdde9c4c9461436e9489525190200690613a38565b9054865460038089015460049099015488518a81526020810182905242604082015292998a96959194909387939290921b1c6001600160a01b0316907fe1e1092ba644510bf260dc4a6aafc7d680596ffe47d321cdfd3e0540b21ec5a69080606081010390a386519182526020820152426040820152606090a282519384528301524290820152a1565b835162461bcd60e51b815260048101839052600f60248201526e52616e676520746f6f206c6172676560881b6044820152606490fd5b835162461bcd60e51b815260048101839052600d60248201526c496e76616c69642072616e676560981b6044820152606490fd5b606491519062461bcd60e51b8252600482015260126024820152714e6f20706c617965727320696e2067616d6560701b6044820152fd5b505f61427d565b505f61423a565b5f80516020614e05833981519152805490815f525f80516020614d65833981519152602052600760405f208381554260018201556144f35f80516020614da583398151915254426138ba565b600282015501600160ff1982541617905561450e81546139ed565b90557f46e59b25850fb5875ea16cb7de4c6866327eef1a3f4ff23c27b3c5ad811979dd606060405183815260016020820152426040820152a15f7f96541f70da731142b18e96f1def4d2a7733deb7d784723106d52c1d906d4c67a604080516103e78152426020820152a3565b5f80516020614d45833981519152546001600160a01b0316330361459b57565b60405163118cdaa760e01b8152336004820152602490fd5b906145ed7f7a21331c8ad929cbdee3f27ecbcfcb8ff48a255fc74efabd4623294dcd4b07e4916040519182916040835260408301906136f7565b4260208301526001600160a01b03909416930390a2565b1561460b57565b60405162461bcd60e51b81526020600482015260156024820152745469636b657420636f756e74206f766572666c6f7760581b6044820152606490fd5b1561464f57565b60405162461bcd60e51b8152602060048201526016602482015275546f74616c20706c6179657273206f766572666c6f7760501b6044820152606490fd5b1561469457565b60405162461bcd60e51b8152602060048201526015602482015274506c6179657220636f756e74206f766572666c6f7760581b6044820152606490fd5b9081602091031261042957516001600160a01b03811681036104295790565b905f91600190600154614702816136bf565b808352926020916001811690811561476a5750600114614723575b50505050565b9293945060015f525f80516020614dc5833981519152925f935b85851061475757505050602092500101905f80808061471d565b805485850184015293820193810161473d565b92505050602093945060ff929192191683830152151560051b0101905f80808061471d565b806147975750565b5f546001600160a01b0390811680156147e15760206040518092633581777360e01b825282600483015281806147cf602482016146f0565b03915afa5f9181614842575b506147e6575b505050565b16806147f0575050565b803b15610429575f91829160405180948180946308638fd160e01b825260606004830152614820606483016146f0565b90336024840152604483015203925af16148375750565b61484090613607565b565b61486591925060203d60201161486c575b61485d818361364b565b8101906146d1565b905f6147db565b503d614853565b5f80516020614e0583398151915254908115614938575f19820191821161377b576148d4915b5f525f80516020614d658339815191526020526148bd60405f2093611aad836135b4565b6148c6826135b4565b556006830160058401614a1d565b6148db5750565b5f80516020614de5833981519152805491600183019081841161377b57614906846004931015614648565b01918254906001820180831161377b5761492592611d2f91101561468d565b90558054906001820180921161377b5755565b6148d491505f614899565b5f80516020614e058339815191525480156149d5575f19810190811161377b575b5f525f80516020614d65833981519152602052600360405f200180549067016345785d8a000082019182811161377b57821061499d5755565b60405162461bcd60e51b815260206004820152601060248201526f4a61636b706f74206f766572666c6f7760801b6044820152606490fd5b505f614964565b60ff7ff0c57e16840df040f15088dc2f81fe391c3923bec73e23a9662efc9c229c6a005460401c1615614a0b57565b604051631afcd79f60e31b8152600490fd5b909160018060a01b0380911691825f528360205260ff60405f205416614a8b5780546801000000000000000081101561361b57614a5f91600182018155613a38565b819291549060031b9184831b921b19161790555f5260205260405f20600160ff19825416179055600190565b505050505f90565b6001600160a01b03919082169081151590839082614b9c575b5050614ab6575050565b815f54169182156147e1576040518093633581777360e01b82528160646020968793846004830152601360248301527210dc9e5c1d1bdb1bdd1d1bd49959995c9c985b606a1b60448301525afa5f9181614b7d575b50614b165750505050565b169081614b24575b8061471d565b5f9160448492604051948593849263da46bdad60e01b845260048401528160248401525af1614b54575b80614b1e565b813d8311614b76575b614b67818361364b565b81010312610429575f80614b4e565b503d614b5d565b614b95919250853d871161486c5761485d818361364b565b905f614b0b565b168214159050825f614aac565b3d15614bd3573d90614bba8261366d565b91614bc8604051938461364b565b82523d5f602084013e565b606090565b80614be05750565b5f546001600160a01b0390811680156147e157602060649160405192838092633581777360e01b8252846004830152601060248301526f233ab73239a234b9ba3934b13aba37b960811b60448301525afa5f9181614ca0575b50614c4357505050565b169081614c4e575050565b5f80808084865af1614c5e614ba9565b5015614c965760407f495c3002bc7d0caa928355d3d9493820bf3dd5b333363c341a09948e12a1db0e918151908152426020820152a2565b614840915061478f565b614cba91925060203d60201161486c5761485d818361364b565b905f614c39565b90614ce85750805115614cd657602081519101fd5b60405163d6bda27560e01b8152600490fd5b81511580614d1b575b614cf9575090565b604051639996b31560e01b81526001600160a01b039091166004820152602490fd5b50803b15614cf156fe54a93883e668f845121f9ed2904459121a66c9b3035aae515f9eb649cbd75b1f9016d09d72d40fdae2fd8ceac6b6234c7706214fd39c1cd1e609a0528c19930054a93883e668f845121f9ed2904459121a66c9b3035aae515f9eb649cbd75b1c54a93883e668f845121f9ed2904459121a66c9b3035aae515f9eb649cbd75b2254a93883e668f845121f9ed2904459121a66c9b3035aae515f9eb649cbd75b20b10e2d527612073b26eecdfd717e6a320cf44b4afac2b0732d9fcbe2b7fa0cf654a93883e668f845121f9ed2904459121a66c9b3035aae515f9eb649cbd75b2554a93883e668f845121f9ed2904459121a66c9b3035aae515f9eb649cbd75b239b779b17422d0df92223018b32b4d1fa46e071723d6817e2486d003becc55f0054a93883e668f845121f9ed2904459121a66c9b3035aae515f9eb649cbd75b21a264697066735822122044fa3138d7f43ded72b0cddc6cef96882672d5eeb8c67100d15b799498a4954364736f6c63430008160033","linkReferences":{}},"methodIdentifiers":{"AD_GAME_DURATION()":"90272c19","AD_LOTTERY_FEE()":"f028dbd1","AD_LOTTERY_FEE_MAX()":"eed11369","AD_LOTTERY_FEE_PERCENT()":"4bc2178f","AD_LOTTERY_PRIZE()":"77a22219","AD_MAX_TICKETS()":"c59ff8f6","AD_TICKET_PRICE()":"0a040bf3","DEVELOPER_FEE_PERCENT()":"14dd2cd1","MAX_BLOCK_DELAY()":"447b5727","MIN_BLOCK_DELAY()":"117559e7","PURCHASE_COOLDOWN()":"c3da0cf3","REFERRAL_FEE_PERCENT()":"3fead80d","TOTAL_FEE_PERCENT()":"a9f77684","UPGRADE_INTERFACE_VERSION()":"ad3cb1cc","adLotteryFee()":"b6403556","adToken()":"774b1b05","autoEndGame()":"0dac1437","buyAdTicket(uint256)":"0bdc103a","buyAdTicketBatch(uint256[])":"d076d1d6","buyTicket(address,uint256)":"66a5ef2f","changeGameDuration(uint256)":"65dbb77e","changeMaxTicketsPerPlayer(uint256)":"3deeac70","changeTicketPrice(uint256)":"4630a0ee","checkAndEndGame()":"8b235f19","emergencyPause(string)":"cf5b4fd5","emergencyResume()":"93c87f03","getAdLotteryFeeInfo()":"b366623b","getAdLotteryGameHistory(uint256)":"0141fc07","getAdLotteryGameStatus()":"9025ceab","getAdLotteryInfo()":"ec36a40e","getAdLotteryStats()":"154b4150","getAdTokenBalance()":"c037cc6c","getAdTokenBurnedAmount()":"75074111","getAdTokenTotalSupply()":"9191f02c","getCompleteGameStatus()":"074fbe76","getContractBalance()":"6f9fb98a","getContractHealth()":"d5a83a4e","getCurrentGameInfo()":"a645e840","getDetailedAdLotteryStats()":"1357a991","getDetailedGameStats()":"e7178dce","getGameConfig()":"22f19172","getGameInfo()":"1746bd1b","getPlayerAnalytics(address)":"a05a1150","getPlayerInfo(address)":"59328401","getRemainingGameTime()":"62444801","initialize(address,address,address,address,address,string)":"5d130ec6","isGameTimeExpired()":"bf77e7c8","lastPurchaseTime(address)":"227a14c1","ownable()":"b38854be","owner()":"8da5cb5b","proxiableUUID()":"52d1902d","registry()":"7b103999","renounceOwnership()":"715018a6","resetPlayerCooldown(address)":"67898fdd","setAdLotteryFee(uint256)":"e443d355","setAdToken(address)":"8069a2d3","setPurchaseCooldown(uint256)":"74baa131","setRegistry(address)":"a91ee0dc","setTestMode(bool)":"1ff1292f","setTreasuryName(string)":"6b8cd144","testMode()":"cd9ea342","transferOwnership(address)":"f2fde38b","treasuryName()":"53b7acdf","upgradeToAndCall(address,bytes)":"4f1ef286","withdrawAdTokens(uint256)":"328a994e"},"id":7}