{"abi":[{"type":"constructor","inputs":[],"stateMutability":"nonpayable"},{"type":"function","name":"ADMIN_ROLE","inputs":[],"outputs":[{"name":"","type":"bytes32","internalType":"bytes32"}],"stateMutability":"view"},{"type":"function","name":"DEFAULT_ADMIN_ROLE","inputs":[],"outputs":[{"name":"","type":"bytes32","internalType":"bytes32"}],"stateMutability":"view"},{"type":"function","name":"EMERGENCY_ROLE","inputs":[],"outputs":[{"name":"","type":"bytes32","internalType":"bytes32"}],"stateMutability":"view"},{"type":"function","name":"OPERATOR_ROLE","inputs":[],"outputs":[{"name":"","type":"bytes32","internalType":"bytes32"}],"stateMutability":"view"},{"type":"function","name":"UPGRADER_ROLE","inputs":[],"outputs":[{"name":"","type":"bytes32","internalType":"bytes32"}],"stateMutability":"view"},{"type":"function","name":"emergencyPause","inputs":[],"outputs":[],"stateMutability":"nonpayable"},{"type":"function","name":"emergencyResume","inputs":[],"outputs":[],"stateMutability":"nonpayable"},{"type":"function","name":"getRoleAdmin","inputs":[{"name":"role","type":"bytes32","internalType":"bytes32"}],"outputs":[{"name":"","type":"bytes32","internalType":"bytes32"}],"stateMutability":"view"},{"type":"function","name":"getUserRoles","inputs":[{"name":"user","type":"address","internalType":"address"}],"outputs":[{"name":"","type":"bytes32[]","internalType":"bytes32[]"}],"stateMutability":"view"},{"type":"function","name":"grantRole","inputs":[{"name":"role","type":"bytes32","internalType":"bytes32"},{"name":"account","type":"address","internalType":"address"}],"outputs":[],"stateMutability":"nonpayable"},{"type":"function","name":"hasRole","inputs":[{"name":"role","type":"bytes32","internalType":"bytes32"},{"name":"account","type":"address","internalType":"address"}],"outputs":[{"name":"","type":"bool","internalType":"bool"}],"stateMutability":"view"},{"type":"function","name":"paused","inputs":[],"outputs":[{"name":"","type":"bool","internalType":"bool"}],"stateMutability":"view"},{"type":"function","name":"renounceRole","inputs":[{"name":"role","type":"bytes32","internalType":"bytes32"},{"name":"callerConfirmation","type":"address","internalType":"address"}],"outputs":[],"stateMutability":"nonpayable"},{"type":"function","name":"revokeRole","inputs":[{"name":"role","type":"bytes32","internalType":"bytes32"},{"name":"account","type":"address","internalType":"address"}],"outputs":[],"stateMutability":"nonpayable"},{"type":"function","name":"roleMembers","inputs":[{"name":"","type":"bytes32","internalType":"bytes32"},{"name":"","type":"address","internalType":"address"}],"outputs":[{"name":"","type":"bool","internalType":"bool"}],"stateMutability":"view"},{"type":"function","name":"supportsInterface","inputs":[{"name":"interfaceId","type":"bytes4","internalType":"bytes4"}],"outputs":[{"name":"","type":"bool","internalType":"bool"}],"stateMutability":"view"},{"type":"function","name":"userRoles","inputs":[{"name":"","type":"address","internalType":"address"},{"name":"","type":"uint256","internalType":"uint256"}],"outputs":[{"name":"","type":"bytes32","internalType":"bytes32"}],"stateMutability":"view"},{"type":"event","name":"EmergencyPaused","inputs":[{"name":"by","type":"address","indexed":true,"internalType":"address"},{"name":"timestamp","type":"uint256","indexed":false,"internalType":"uint256"}],"anonymous":false},{"type":"event","name":"EmergencyResumed","inputs":[{"name":"by","type":"address","indexed":true,"internalType":"address"},{"name":"timestamp","type":"uint256","indexed":false,"internalType":"uint256"}],"anonymous":false},{"type":"event","name":"Paused","inputs":[{"name":"account","type":"address","indexed":false,"internalType":"address"}],"anonymous":false},{"type":"event","name":"RoleAdminChanged","inputs":[{"name":"role","type":"bytes32","indexed":true,"internalType":"bytes32"},{"name":"previousAdminRole","type":"bytes32","indexed":true,"internalType":"bytes32"},{"name":"newAdminRole","type":"bytes32","indexed":true,"internalType":"bytes32"}],"anonymous":false},{"type":"event","name":"RoleGranted","inputs":[{"name":"role","type":"bytes32","indexed":true,"internalType":"bytes32"},{"name":"account","type":"address","indexed":true,"internalType":"address"},{"name":"sender","type":"address","indexed":true,"internalType":"address"}],"anonymous":false},{"type":"event","name":"RoleRevoked","inputs":[{"name":"role","type":"bytes32","indexed":true,"internalType":"bytes32"},{"name":"account","type":"address","indexed":true,"internalType":"address"},{"name":"sender","type":"address","indexed":true,"internalType":"address"}],"anonymous":false},{"type":"event","name":"Unpaused","inputs":[{"name":"account","type":"address","indexed":false,"internalType":"address"}],"anonymous":false},{"type":"error","name":"AccessControlBadConfirmation","inputs":[]},{"type":"error","name":"AccessControlUnauthorizedAccount","inputs":[{"name":"account","type":"address","internalType":"address"},{"name":"neededRole","type":"bytes32","internalType":"bytes32"}]},{"type":"error","name":"EnforcedPause","inputs":[]},{"type":"error","name":"ExpectedPause","inputs":[]}],"bytecode":{"object":"0x608060405234801561000f575f80fd5b5061001a5f336100cc565b506100457fa49807205ce4d355092ef5a8a18f56e8913cf4a201fbe287825b095693c21775336100cc565b506100707f97667070c54ef182b0f5858b034beac1b6f3089aa2d3188bb1e8929f4fa9b929336100cc565b5061009b7fbf233dd2aafeb4d50879c4aa5c81e96d92f6e6945c906a58f9f2d1c1631b4b26336100cc565b506100c67f189ab7a9244df0848122154315af71fe140f3db0fe014031783b0946b8c9d2e3336100cc565b50610177565b5f8281526002602090815260408083206001600160a01b038516845290915281205460ff1661016e575f838152602081815260408083206001600160a01b03861684529091529020805460ff191660011790556101263390565b6001600160a01b0316826001600160a01b0316847f2f8788117e7eff1d82e926ec794901d17c78024a50270940304540a733656f0d60405160405180910390a4506001610171565b505f5b92915050565b610aa7806101845f395ff3fe608060405234801561000f575f80fd5b5060043610610106575f3560e01c806351858e271161009e57806393c87f031161006e57806393c87f031461025e578063a217fddf14610266578063d547741f1461026d578063f5b541a614610280578063f72c0d8b146102a7575f80fd5b806351858e27146102115780635c975abb1461021957806375b238fc1461022457806391d148541461024b575f80fd5b8063248a9ca3116100d9578063248a9ca31461019a5780632f2ff15d146101bc57806336568abe146101d157806341c3a92b146101e4575f80fd5b806301ffc9a71461010a57806306a36aee146101325780630dbb49291461015257806320df435914610173575b5f80fd5b61011d61011836600461091c565b6102ce565b60405190151581526020015b60405180910390f35b610145610140366004610965565b610304565b604051610129919061097e565b6101656101603660046109c1565b61036d565b604051908152602001610129565b6101657fbf233dd2aafeb4d50879c4aa5c81e96d92f6e6945c906a58f9f2d1c1631b4b2681565b6101656101a83660046109e9565b5f9081526020819052604090206001015490565b6101cf6101ca366004610a00565b610398565b005b6101cf6101df366004610a00565b610434565b61011d6101f2366004610a00565b600260209081525f928352604080842090915290825290205460ff1681565b6101cf61046c565b60015460ff1661011d565b6101657fa49807205ce4d355092ef5a8a18f56e8913cf4a201fbe287825b095693c2177581565b61011d610259366004610a00565b6104d7565b6101cf610501565b6101655f81565b6101cf61027b366004610a00565b610565565b6101657f97667070c54ef182b0f5858b034beac1b6f3089aa2d3188bb1e8929f4fa9b92981565b6101657f189ab7a9244df0848122154315af71fe140f3db0fe014031783b0946b8c9d2e381565b5f6001600160e01b03198216637965db0b60e01b14806102fe57506301ffc9a760e01b6001600160e01b03198316145b92915050565b6001600160a01b0381165f9081526003602090815260409182902080548351818402810184019094528084526060939283018282801561036157602002820191905f5260205f20905b81548152602001906001019080831161034d575b50505050509050919050565b6003602052815f5260405f208181548110610386575f80fd5b905f5260205f20015f91509150505481565b5f828152602081905260409020600101546103b2816105f8565b6103bc8383610605565b5f8381526002602090815260408083206001600160a01b038616808552908352818420805460ff191660019081179091556003845282852080549182018155855292842090920186905551339286917f2f8788117e7eff1d82e926ec794901d17c78024a50270940304540a733656f0d9190a4505050565b6001600160a01b038116331461045d5760405163334bd91960e11b815260040160405180910390fd5b610467828261062f565b505050565b7fbf233dd2aafeb4d50879c4aa5c81e96d92f6e6945c906a58f9f2d1c1631b4b26610496816105f8565b61049e61069f565b60405142815233907f2e31b3b12b9bb0e82c32f27df5f234fabc95a374f54fd287a7132878d5dc9fc3906020015b60405180910390a250565b5f9182526002602090815260408084206001600160a01b0393909316845291905290205460ff1690565b7fbf233dd2aafeb4d50879c4aa5c81e96d92f6e6945c906a58f9f2d1c1631b4b2661052b816105f8565b6105336106f3565b60405142815233907fe0dc8967738d1ca725802874d41e2ab2405df0e2eb3c61069d26d2782660d594906020016104cc565b5f8281526020819052604090206001015461057f816105f8565b610589838361072c565b5f8381526002602090815260408083206001600160a01b03861684529091529020805460ff191690556105bc8284610750565b60405133906001600160a01b0384169085907ff6391f5c32d9c69d2a47ea670b442974b53935d1edc7fd64eb21e047a839171b905f90a4505050565b610602813361080a565b50565b5f8281526020819052604090206001015461061f816105f8565b610629838361084b565b50505050565b5f61063a83836104d7565b15610698575f838152602081815260408083206001600160a01b0386168085529252808320805460ff1916905551339286917ff6391f5c32d9c69d2a47ea670b442974b53935d1edc7fd64eb21e047a839171b9190a45060016102fe565b505f6102fe565b6106a76108d3565b6001805460ff1916811790557f62e78cea01bee320cd4e420270b5ea74000d11b0c9f74754ebdbfc544b05a258335b6040516001600160a01b03909116815260200160405180910390a1565b6106fb6108f9565b6001805460ff191690557f5db9ee0a495bf2e6ff9c91a7834c1ba4fdd244a5e8aa4e537bd38aeae4b073aa336106d6565b5f82815260208190526040902060010154610746816105f8565b610629838361062f565b6001600160a01b0382165f908152600360205260408120905b8154811015610629578282828154811061078557610785610a2a565b905f5260205f2001540361080257815482906107a390600190610a3e565b815481106107b3576107b3610a2a565b905f5260205f2001548282815481106107ce576107ce610a2a565b905f5260205f200181905550818054806107ea576107ea610a5d565b600190038181905f5260205f20015f90559055610629565b600101610769565b61081482826104d7565b6108475760405163e2517d3f60e01b81526001600160a01b03821660048201526024810183905260440160405180910390fd5b5050565b5f61085683836104d7565b610698575f838152602081815260408083206001600160a01b03861684529091529020805460ff1916600117905561088b3390565b6001600160a01b0316826001600160a01b0316847f2f8788117e7eff1d82e926ec794901d17c78024a50270940304540a733656f0d60405160405180910390a45060016102fe565b60015460ff16156108f75760405163d93c066560e01b815260040160405180910390fd5b565b60015460ff166108f757604051638dfc202b60e01b815260040160405180910390fd5b5f6020828403121561092c575f80fd5b81356001600160e01b031981168114610943575f80fd5b9392505050565b80356001600160a01b0381168114610960575f80fd5b919050565b5f60208284031215610975575f80fd5b6109438261094a565b602080825282518282018190525f9190848201906040850190845b818110156109b557835183529284019291840191600101610999565b50909695505050505050565b5f80604083850312156109d2575f80fd5b6109db8361094a565b946020939093013593505050565b5f602082840312156109f9575f80fd5b5035919050565b5f8060408385031215610a11575f80fd5b82359150610a216020840161094a565b90509250929050565b634e487b7160e01b5f52603260045260245ffd5b818103818111156102fe57634e487b7160e01b5f52601160045260245ffd5b634e487b7160e01b5f52603160045260245ffdfea26469706673582212200a45648c5038085db88dc8fb369e398d97a050222153247bc8a7ce414836163e64736f6c63430008160033","linkReferences":{}},"methodIdentifiers":{"ADMIN_ROLE()":"75b238fc","DEFAULT_ADMIN_ROLE()":"a217fddf","EMERGENCY_ROLE()":"20df4359","OPERATOR_ROLE()":"f5b541a6","UPGRADER_ROLE()":"f72c0d8b","emergencyPause()":"51858e27","emergencyResume()":"93c87f03","getRoleAdmin(bytes32)":"248a9ca3","getUserRoles(address)":"06a36aee","grantRole(bytes32,address)":"2f2ff15d","hasRole(bytes32,address)":"91d14854","paused()":"5c975abb","renounceRole(bytes32,address)":"36568abe","revokeRole(bytes32,address)":"d547741f","roleMembers(bytes32,address)":"41c3a92b","supportsInterface(bytes4)":"01ffc9a7","userRoles(address,uint256)":"0dbb4929"},"storageLayout":{"storage":[{"astId":63442,"contract":"contracts/shared/utils/AccessControl.sol:AdvancedAccessControl","label":"_roles","offset":0,"slot":"0","type":"t_mapping(t_bytes32,t_struct(RoleData)63437_storage)"},{"astId":65474,"contract":"contracts/shared/utils/AccessControl.sol:AdvancedAccessControl","label":"_paused","offset":0,"slot":"1","type":"t_bool"},{"astId":18250,"contract":"contracts/shared/utils/AccessControl.sol:AdvancedAccessControl","label":"roleMembers","offset":0,"slot":"2","type":"t_mapping(t_bytes32,t_mapping(t_address,t_bool))"},{"astId":18255,"contract":"contracts/shared/utils/AccessControl.sol:AdvancedAccessControl","label":"userRoles","offset":0,"slot":"3","type":"t_mapping(t_address,t_array(t_bytes32)dyn_storage)"}],"types":{"t_address":{"encoding":"inplace","label":"address","numberOfBytes":"20"},"t_array(t_bytes32)dyn_storage":{"encoding":"dynamic_array","label":"bytes32[]","numberOfBytes":"32","base":"t_bytes32"},"t_bool":{"encoding":"inplace","label":"bool","numberOfBytes":"1"},"t_bytes32":{"encoding":"inplace","label":"bytes32","numberOfBytes":"32"},"t_mapping(t_address,t_array(t_bytes32)dyn_storage)":{"encoding":"mapping","key":"t_address","label":"mapping(address => bytes32[])","numberOfBytes":"32","value":"t_array(t_bytes32)dyn_storage"},"t_mapping(t_address,t_bool)":{"encoding":"mapping","key":"t_address","label":"mapping(address => bool)","numberOfBytes":"32","value":"t_bool"},"t_mapping(t_bytes32,t_mapping(t_address,t_bool))":{"encoding":"mapping","key":"t_bytes32","label":"mapping(bytes32 => mapping(address => bool))","numberOfBytes":"32","value":"t_mapping(t_address,t_bool)"},"t_mapping(t_bytes32,t_struct(RoleData)63437_storage)":{"encoding":"mapping","key":"t_bytes32","label":"mapping(bytes32 => struct AccessControl.RoleData)","numberOfBytes":"32","value":"t_struct(RoleData)63437_storage"},"t_struct(RoleData)63437_storage":{"encoding":"inplace","label":"struct AccessControl.RoleData","numberOfBytes":"64","members":[{"astId":63434,"contract":"contracts/shared/utils/AccessControl.sol:AdvancedAccessControl","label":"hasRole","offset":0,"slot":"0","type":"t_mapping(t_address,t_bool)"},{"astId":63436,"contract":"contracts/shared/utils/AccessControl.sol:AdvancedAccessControl","label":"adminRole","offset":0,"slot":"1","type":"t_bytes32"}]}}},"id":43}