{"abi":[{"type":"constructor","inputs":[],"stateMutability":"nonpayable"},{"type":"function","name":"alertCount","inputs":[],"outputs":[{"name":"","type":"uint256","internalType":"uint256"}],"stateMutability":"view"},{"type":"function","name":"alerts","inputs":[{"name":"","type":"uint256","internalType":"uint256"}],"outputs":[{"name":"message","type":"string","internalType":"string"},{"name":"severity","type":"uint256","internalType":"uint256"},{"name":"timestamp","type":"uint256","internalType":"uint256"},{"name":"isResolved","type":"bool","internalType":"bool"}],"stateMutability":"view"},{"type":"function","name":"contractLastCheck","inputs":[{"name":"","type":"address","internalType":"address"}],"outputs":[{"name":"","type":"uint256","internalType":"uint256"}],"stateMutability":"view"},{"type":"function","name":"createAlert","inputs":[{"name":"message","type":"string","internalType":"string"},{"name":"severity","type":"uint256","internalType":"uint256"}],"outputs":[],"stateMutability":"nonpayable"},{"type":"function","name":"currentMetrics","inputs":[],"outputs":[{"name":"totalTransactions","type":"uint256","internalType":"uint256"},{"name":"totalVolume","type":"uint256","internalType":"uint256"},{"name":"activeUsers","type":"uint256","internalType":"uint256"},{"name":"lastUpdate","type":"uint256","internalType":"uint256"},{"name":"isHealthy","type":"bool","internalType":"bool"}],"stateMutability":"view"},{"type":"function","name":"getActiveAlerts","inputs":[],"outputs":[{"name":"activeAlerts","type":"uint256[]","internalType":"uint256[]"}],"stateMutability":"view"},{"type":"function","name":"getAlert","inputs":[{"name":"alertId","type":"uint256","internalType":"uint256"}],"outputs":[{"name":"","type":"tuple","internalType":"struct MonitoringSystem.Alert","components":[{"name":"message","type":"string","internalType":"string"},{"name":"severity","type":"uint256","internalType":"uint256"},{"name":"timestamp","type":"uint256","internalType":"uint256"},{"name":"isResolved","type":"bool","internalType":"bool"}]}],"stateMutability":"view"},{"type":"function","name":"getSystemStats","inputs":[],"outputs":[{"name":"metrics","type":"tuple","internalType":"struct MonitoringSystem.SystemMetrics","components":[{"name":"totalTransactions","type":"uint256","internalType":"uint256"},{"name":"totalVolume","type":"uint256","internalType":"uint256"},{"name":"activeUsers","type":"uint256","internalType":"uint256"},{"name":"lastUpdate","type":"uint256","internalType":"uint256"},{"name":"isHealthy","type":"bool","internalType":"bool"}]},{"name":"totalAlerts","type":"uint256","internalType":"uint256"},{"name":"activeAlerts","type":"uint256","internalType":"uint256"},{"name":"contractCount","type":"uint256","internalType":"uint256"}],"stateMutability":"view"},{"type":"function","name":"healthCheckInterval","inputs":[],"outputs":[{"name":"","type":"uint256","internalType":"uint256"}],"stateMutability":"view"},{"type":"function","name":"initialize","inputs":[{"name":"owner","type":"address","internalType":"address"}],"outputs":[],"stateMutability":"nonpayable"},{"type":"function","name":"maxResponseTime","inputs":[],"outputs":[{"name":"","type":"uint256","internalType":"uint256"}],"stateMutability":"view"},{"type":"function","name":"minTransactionThreshold","inputs":[],"outputs":[{"name":"","type":"uint256","internalType":"uint256"}],"stateMutability":"view"},{"type":"function","name":"monitoredContracts","inputs":[{"name":"","type":"address","internalType":"address"}],"outputs":[{"name":"","type":"bool","internalType":"bool"}],"stateMutability":"view"},{"type":"function","name":"owner","inputs":[],"outputs":[{"name":"","type":"address","internalType":"address"}],"stateMutability":"view"},{"type":"function","name":"performHealthCheck","inputs":[],"outputs":[{"name":"","type":"bool","internalType":"bool"}],"stateMutability":"nonpayable"},{"type":"function","name":"registerContract","inputs":[{"name":"contractAddress","type":"address","internalType":"address"}],"outputs":[],"stateMutability":"nonpayable"},{"type":"function","name":"renounceOwnership","inputs":[],"outputs":[],"stateMutability":"nonpayable"},{"type":"function","name":"resolveAlert","inputs":[{"name":"alertId","type":"uint256","internalType":"uint256"}],"outputs":[],"stateMutability":"nonpayable"},{"type":"function","name":"transferOwnership","inputs":[{"name":"newOwner","type":"address","internalType":"address"}],"outputs":[],"stateMutability":"nonpayable"},{"type":"function","name":"unregisterContract","inputs":[{"name":"contractAddress","type":"address","internalType":"address"}],"outputs":[],"stateMutability":"nonpayable"},{"type":"function","name":"updateMetrics","inputs":[{"name":"transactions","type":"uint256","internalType":"uint256"},{"name":"volume","type":"uint256","internalType":"uint256"},{"name":"users","type":"uint256","internalType":"uint256"}],"outputs":[],"stateMutability":"nonpayable"},{"type":"function","name":"updateThresholds","inputs":[{"name":"newMinTransactions","type":"uint256","internalType":"uint256"},{"name":"newMaxResponseTime","type":"uint256","internalType":"uint256"},{"name":"newHealthCheckInterval","type":"uint256","internalType":"uint256"}],"outputs":[],"stateMutability":"nonpayable"},{"type":"event","name":"AlertCreated","inputs":[{"name":"alertId","type":"uint256","indexed":true,"internalType":"uint256"},{"name":"message","type":"string","indexed":false,"internalType":"string"},{"name":"severity","type":"uint256","indexed":true,"internalType":"uint256"},{"name":"timestamp","type":"uint256","indexed":true,"internalType":"uint256"}],"anonymous":false},{"type":"event","name":"AlertResolved","inputs":[{"name":"alertId","type":"uint256","indexed":true,"internalType":"uint256"},{"name":"timestamp","type":"uint256","indexed":true,"internalType":"uint256"}],"anonymous":false},{"type":"event","name":"ContractRegistered","inputs":[{"name":"contractAddress","type":"address","indexed":true,"internalType":"address"},{"name":"timestamp","type":"uint256","indexed":true,"internalType":"uint256"}],"anonymous":false},{"type":"event","name":"ContractUnregistered","inputs":[{"name":"contractAddress","type":"address","indexed":true,"internalType":"address"},{"name":"timestamp","type":"uint256","indexed":true,"internalType":"uint256"}],"anonymous":false},{"type":"event","name":"HealthCheckPerformed","inputs":[{"name":"isHealthy","type":"bool","indexed":true,"internalType":"bool"},{"name":"timestamp","type":"uint256","indexed":true,"internalType":"uint256"}],"anonymous":false},{"type":"event","name":"Initialized","inputs":[{"name":"version","type":"uint64","indexed":false,"internalType":"uint64"}],"anonymous":false},{"type":"event","name":"MetricsUpdated","inputs":[{"name":"totalTransactions","type":"uint256","indexed":true,"internalType":"uint256"},{"name":"totalVolume","type":"uint256","indexed":true,"internalType":"uint256"},{"name":"activeUsers","type":"uint256","indexed":true,"internalType":"uint256"},{"name":"timestamp","type":"uint256","indexed":false,"internalType":"uint256"}],"anonymous":false},{"type":"event","name":"MonitoringConfigUpdated","inputs":[{"name":"parameter","type":"string","indexed":false,"internalType":"string"},{"name":"oldValue","type":"uint256","indexed":true,"internalType":"uint256"},{"name":"newValue","type":"uint256","indexed":true,"internalType":"uint256"},{"name":"timestamp","type":"uint256","indexed":true,"internalType":"uint256"}],"anonymous":false},{"type":"event","name":"OwnershipTransferred","inputs":[{"name":"previousOwner","type":"address","indexed":true,"internalType":"address"},{"name":"newOwner","type":"address","indexed":true,"internalType":"address"}],"anonymous":false},{"type":"event","name":"PerformanceThresholdExceeded","inputs":[{"name":"metric","type":"string","indexed":true,"internalType":"string"},{"name":"currentValue","type":"uint256","indexed":true,"internalType":"uint256"},{"name":"threshold","type":"uint256","indexed":true,"internalType":"uint256"},{"name":"timestamp","type":"uint256","indexed":false,"internalType":"uint256"}],"anonymous":false},{"type":"event","name":"SecurityEvent","inputs":[{"name":"contractAddress","type":"address","indexed":true,"internalType":"address"},{"name":"eventType","type":"string","indexed":false,"internalType":"string"},{"name":"details","type":"string","indexed":false,"internalType":"string"},{"name":"timestamp","type":"uint256","indexed":true,"internalType":"uint256"}],"anonymous":false},{"type":"event","name":"SystemAlert","inputs":[{"name":"alertType","type":"string","indexed":true,"internalType":"string"},{"name":"message","type":"string","indexed":false,"internalType":"string"},{"name":"severity","type":"uint256","indexed":true,"internalType":"uint256"},{"name":"timestamp","type":"uint256","indexed":true,"internalType":"uint256"}],"anonymous":false},{"type":"error","name":"AlertAlreadyResolved","inputs":[]},{"type":"error","name":"ContractAlreadyRegistered","inputs":[]},{"type":"error","name":"ContractNotRegistered","inputs":[]},{"type":"error","name":"InvalidAlertId","inputs":[]},{"type":"error","name":"InvalidContractAddress","inputs":[]},{"type":"error","name":"InvalidInitialization","inputs":[]},{"type":"error","name":"InvalidSeverityLevel","inputs":[]},{"type":"error","name":"NotInitializing","inputs":[]},{"type":"error","name":"OwnableInvalidOwner","inputs":[{"name":"owner","type":"address","internalType":"address"}]},{"type":"error","name":"OwnableUnauthorizedAccount","inputs":[{"name":"account","type":"address","internalType":"address"}]}],"bytecode":{"object":"0x6080604052600a60095561012c600a55610e10600b55348015610020575f80fd5b5061002961002e565b6100e0565b7ff0c57e16840df040f15088dc2f81fe391c3923bec73e23a9662efc9c229c6a00805468010000000000000000900460ff161561007e5760405163f92ee8a960e01b815260040160405180910390fd5b80546001600160401b03908116146100dd5780546001600160401b0319166001600160401b0390811782556040519081527fc7f505b2f371ae2175ee4913f4499e1f2633a7b5936321eed1cdaeb6115181d29060200160405180910390a15b50565b611268806100ed5f395ff3fe608060405234801561000f575f80fd5b506004361061013d575f3560e01c8063a07faf5e116100b4578063d1ce59a711610079578063d1ce59a7146102ea578063d8649dfd14610343578063f2fde38b14610356578063fa2956dc14610369578063fac2c6211461037e578063fd19e10c14610391575f80fd5b8063a07faf5e1461024e578063ab44649114610294578063c4d66de81461029d578063c7ca0c1e146102b0578063cbfe399a146102e2575f80fd5b80633c047e13116101055780633c047e13146101c757806361022a30146101da578063715018a6146101e357806385081886146101eb5780638da5cb5b1461020b5780639102c8cf14610245575f80fd5b806308ee0ec014610141578063171d073a1461015d57806318cce2fc1461018057806322a5dde41461019f5780632e0e053f146101b4575b5f80fd5b61014a600a5481565b6040519081526020015b60405180910390f35b61017061016b366004610e4d565b6103a4565b6040516101549493929190610ea7565b61014a61018e366004610ed7565b60086020525f908152604090205481565b6101b26101ad366004610ed7565b610456565b005b6101b26101c2366004610e4d565b61051b565b6101b26101d5366004610f04565b6105c8565b61014a600b5481565b6101b2610639565b6101fe6101f9366004610e4d565b61064c565b6040516101549190610f2d565b7f9016d09d72d40fdae2fd8ceac6b6234c7706214fd39c1cd1e609a0528c199300546040516001600160a01b039091168152602001610154565b61014a60095481565b5f5460015460025460035460045461026a949392919060ff1685565b6040805195865260208601949094529284019190915260608301521515608082015260a001610154565b61014a60065481565b6101b26102ab366004610ed7565b610772565b6102d26102be366004610ed7565b60076020525f908152604090205460ff1681565b6040519015158152602001610154565b6102d26108b7565b6102f261090c565b60408051855181526020808701519082015285820151918101919091526060808601519082015260809485015115159481019490945260a084019290925260c083015260e082015261010001610154565b6101b2610351366004610f88565b6109cb565b6101b2610364366004610ed7565b610ac2565b610371610b04565b6040516101549190611037565b6101b261038c366004610ed7565b610c0d565b6101b261039f366004610f04565b610ca4565b60056020525f90815260409020805481906103be9061107a565b80601f01602080910402602001604051908101604052809291908181526020018280546103ea9061107a565b80156104355780601f1061040c57610100808354040283529160200191610435565b820191905f5260205f20905b81548152906001019060200180831161041857829003601f168201915b50505050600183015460028401546003909401549293909290915060ff1684565b61045e610cba565b6001600160a01b0381166104855760405163a710429d60e01b815260040160405180910390fd5b6001600160a01b0381165f9081526007602052604090205460ff16156104be576040516370bc3e8560e01b815260040160405180910390fd5b6001600160a01b0381165f818152600760209081526040808320805460ff191660011790556008909152808220429081905590519092917f41af697536e017085ac02cc37449b0a4b25d3e5bcd47eeb25b57a23d69c7eeec91a350565b610523610cba565b801580610531575060065481115b1561054e57604051621958a760e01b815260040160405180910390fd5b5f8181526005602052604090206003015460ff161561058057604051635adf35d760e11b815260040160405180910390fd5b5f81815260056020526040808220600301805460ff1916600117905551429183917fcebd814edd0d4ddc1bc2dddfb3a937bf821cd9862db8b34e51894bf4232c87429190a350565b6105d0610cba565b5f83905560018290556002819055426003556105ea610d15565b6004805460ff19169115159190911790556040514281528190839085907f56d8f7dc7f4e1d9960c9a876b8fe805810b535361b52ba0e6c1b6b6529f2bcc89060200160405180910390a4505050565b610641610cba565b61064a5f610d5c565b565b6106766040518060800160405280606081526020015f81526020015f81526020015f151581525090565b811580610684575060065482115b156106a157604051621958a760e01b815260040160405180910390fd5b5f82815260056020526040908190208151608081019092528054829082906106c89061107a565b80601f01602080910402602001604051908101604052809291908181526020018280546106f49061107a565b801561073f5780601f106107165761010080835404028352916020019161073f565b820191905f5260205f20905b81548152906001019060200180831161072257829003601f168201915b5050509183525050600182015460208201526002820154604082015260039091015460ff16151560609091015292915050565b5f61077b610dcc565b805490915060ff600160401b820416159067ffffffffffffffff165f811580156107a25750825b90505f8267ffffffffffffffff1660011480156107be5750303b155b9050811580156107cc575080155b156107ea5760405163f92ee8a960e01b815260040160405180910390fd5b845467ffffffffffffffff19166001178555831561081457845460ff60401b1916600160401b1785555b61081d86610df6565b6040805160a0810182525f808252602082018190529181018290524260608201819052600160809092018290528280558282556002929092556003919091556004805460ff1916909117905583156108af57845460ff60401b19168555604051600181527fc7f505b2f371ae2175ee4913f4499e1f2633a7b5936321eed1cdaeb6115181d29060200160405180910390a15b505050505050565b5f6108c0610cba565b5f6108c9610d15565b6004805460ff191682151590811790915560405191925042917fc463f23a2b9d4b671e9c1e80123ce0a1b044ccf294a00502ac01dabc47456833905f90a3905090565b61093b6040518060a001604052805f81526020015f81526020015f81526020015f81526020015f151581525090565b5f80808060015b6006546109509060016110c6565b811015610983575f8181526005602052604090206003015460ff1661097b57610978826110d9565b91505b600101610942565b506006546040805160a0810182525f80548252600154602083015260025492820192909252600354606082015260045460ff1615156080820152979196509194509092509050565b6109d3610cba565b60018110806109e25750600481115b15610a00576040516318d9a39160e21b815260040160405180910390fd5b60065f8154610a0e906110d9565b9091555060408051608081018252838152602080820184905242828401525f60608301819052600654815260059091529190912081518190610a50908261113d565b506020820151600182015560408083015160028301556060909201516003909101805460ff19169115159190911790556006549051429183917f1c3177129ad5fab1e71ae10d77e982546eb6c6032d1678f90d071d32a177d06690610ab69087906111f9565b60405180910390a45050565b610aca610cba565b6001600160a01b038116610af857604051631e4fbdf760e01b81525f60048201526024015b60405180910390fd5b610b0181610d5c565b50565b60605f60015b600654610b189060016110c6565b811015610b4b575f8181526005602052604090206003015460ff16610b4357610b40826110d9565b91505b600101610b0a565b508067ffffffffffffffff811115610b6557610b65610f74565b604051908082528060200260200182016040528015610b8e578160200160208202803683370190505b5091505f60015b600654610ba39060016110c6565b81108015610bb057508282105b15610c07575f8181526005602052604090206003015460ff16610bf75780848381518110610be057610be061120b565b6020908102919091010152610bf4826110d9565b91505b610c00816110d9565b9050610b95565b50505090565b610c15610cba565b6001600160a01b0381165f9081526007602052604090205460ff16610c4d57604051639ada36a160e01b815260040160405180910390fd5b6001600160a01b0381165f818152600760209081526040808320805460ff191690556008909152808220829055514292917ff81795170e73e8e66918dc4d29bab37e0003bf5de37763a66c401d20486c46e691a350565b610cac610cba565b600992909255600a55600b55565b33610cec7f9016d09d72d40fdae2fd8ceac6b6234c7706214fd39c1cd1e609a0528c199300546001600160a01b031690565b6001600160a01b03161461064a5760405163118cdaa760e01b8152336004820152602401610aef565b5f80600b546001610d2691906110c6565b600354610d33904261121f565b1090505f6001600954610d46919061121f565b5f54119050818015610d555750805b9250505090565b7f9016d09d72d40fdae2fd8ceac6b6234c7706214fd39c1cd1e609a0528c19930080546001600160a01b031981166001600160a01b03848116918217845560405192169182907f8be0079c531659141344cd1fd0a4f28419497f9722a3daafe3b4186f6b6457e0905f90a3505050565b5f807ff0c57e16840df040f15088dc2f81fe391c3923bec73e23a9662efc9c229c6a005b92915050565b610dfe610e07565b610b0181610e2c565b610e0f610e34565b61064a57604051631afcd79f60e31b815260040160405180910390fd5b610aca610e07565b5f610e3d610dcc565b54600160401b900460ff16919050565b5f60208284031215610e5d575f80fd5b5035919050565b5f81518084525f5b81811015610e8857602081850181015186830182015201610e6c565b505f602082860101526020601f19601f83011685010191505092915050565b608081525f610eb96080830187610e64565b60208301959095525060408101929092521515606090910152919050565b5f60208284031215610ee7575f80fd5b81356001600160a01b0381168114610efd575f80fd5b9392505050565b5f805f60608486031215610f16575f80fd5b505081359360208301359350604090920135919050565b602081525f825160806020840152610f4860a0840182610e64565b905060208401516040840152604084015160608401526060840151151560808401528091505092915050565b634e487b7160e01b5f52604160045260245ffd5b5f8060408385031215610f99575f80fd5b823567ffffffffffffffff80821115610fb0575f80fd5b818501915085601f830112610fc3575f80fd5b813581811115610fd557610fd5610f74565b604051601f8201601f19908116603f01168101908382118183101715610ffd57610ffd610f74565b81604052828152886020848701011115611015575f80fd5b826020860160208301375f602093820184015298969091013596505050505050565b602080825282518282018190525f9190848201906040850190845b8181101561106e57835183529284019291840191600101611052565b50909695505050505050565b600181811c9082168061108e57607f821691505b6020821081036110ac57634e487b7160e01b5f52602260045260245ffd5b50919050565b634e487b7160e01b5f52601160045260245ffd5b80820180821115610df057610df06110b2565b5f600182016110ea576110ea6110b2565b5060010190565b601f82111561113857805f5260205f20601f840160051c810160208510156111165750805b601f840160051c820191505b81811015611135575f8155600101611122565b50505b505050565b815167ffffffffffffffff81111561115757611157610f74565b61116b81611165845461107a565b846110f1565b602080601f83116001811461119e575f84156111875750858301515b5f19600386901b1c1916600185901b1785556108af565b5f85815260208120601f198616915b828110156111cc578886015182559484019460019091019084016111ad565b50858210156111e957878501515f19600388901b60f8161c191681555b5050505050600190811b01905550565b602081525f610efd6020830184610e64565b634e487b7160e01b5f52603260045260245ffd5b81810381811115610df057610df06110b256fea264697066735822122066c057d4a9708c7c5e609f218f8423b5c71494d5929548131496bfdec90278e964736f6c63430008160033","linkReferences":{}},"methodIdentifiers":{"alertCount()":"ab446491","alerts(uint256)":"171d073a","contractLastCheck(address)":"18cce2fc","createAlert(string,uint256)":"d8649dfd","currentMetrics()":"a07faf5e","getActiveAlerts()":"fa2956dc","getAlert(uint256)":"85081886","getSystemStats()":"d1ce59a7","healthCheckInterval()":"61022a30","initialize(address)":"c4d66de8","maxResponseTime()":"08ee0ec0","minTransactionThreshold()":"9102c8cf","monitoredContracts(address)":"c7ca0c1e","owner()":"8da5cb5b","performHealthCheck()":"cbfe399a","registerContract(address)":"22a5dde4","renounceOwnership()":"715018a6","resolveAlert(uint256)":"2e0e053f","transferOwnership(address)":"f2fde38b","unregisterContract(address)":"fac2c621","updateMetrics(uint256,uint256,uint256)":"3c047e13","updateThresholds(uint256,uint256,uint256)":"fd19e10c"},"storageLayout":{"storage":[{"astId":1822,"contract":"contracts/modules/analytics/MonitoringSystem.sol:MonitoringSystem","label":"currentMetrics","offset":0,"slot":"0","type":"t_struct(SystemMetrics)1808_storage"},{"astId":1828,"contract":"contracts/modules/analytics/MonitoringSystem.sol:MonitoringSystem","label":"alerts","offset":0,"slot":"5","type":"t_mapping(t_uint256,t_struct(Alert)1818_storage)"},{"astId":1831,"contract":"contracts/modules/analytics/MonitoringSystem.sol:MonitoringSystem","label":"alertCount","offset":0,"slot":"6","type":"t_uint256"},{"astId":1836,"contract":"contracts/modules/analytics/MonitoringSystem.sol:MonitoringSystem","label":"monitoredContracts","offset":0,"slot":"7","type":"t_mapping(t_address,t_bool)"},{"astId":1841,"contract":"contracts/modules/analytics/MonitoringSystem.sol:MonitoringSystem","label":"contractLastCheck","offset":0,"slot":"8","type":"t_mapping(t_address,t_uint256)"},{"astId":1845,"contract":"contracts/modules/analytics/MonitoringSystem.sol:MonitoringSystem","label":"minTransactionThreshold","offset":0,"slot":"9","type":"t_uint256"},{"astId":1849,"contract":"contracts/modules/analytics/MonitoringSystem.sol:MonitoringSystem","label":"maxResponseTime","offset":0,"slot":"10","type":"t_uint256"},{"astId":1853,"contract":"contracts/modules/analytics/MonitoringSystem.sol:MonitoringSystem","label":"healthCheckInterval","offset":0,"slot":"11","type":"t_uint256"}],"types":{"t_address":{"encoding":"inplace","label":"address","numberOfBytes":"20"},"t_bool":{"encoding":"inplace","label":"bool","numberOfBytes":"1"},"t_mapping(t_address,t_bool)":{"encoding":"mapping","key":"t_address","label":"mapping(address => bool)","numberOfBytes":"32","value":"t_bool"},"t_mapping(t_address,t_uint256)":{"encoding":"mapping","key":"t_address","label":"mapping(address => uint256)","numberOfBytes":"32","value":"t_uint256"},"t_mapping(t_uint256,t_struct(Alert)1818_storage)":{"encoding":"mapping","key":"t_uint256","label":"mapping(uint256 => struct MonitoringSystem.Alert)","numberOfBytes":"32","value":"t_struct(Alert)1818_storage"},"t_string_storage":{"encoding":"bytes","label":"string","numberOfBytes":"32"},"t_struct(Alert)1818_storage":{"encoding":"inplace","label":"struct MonitoringSystem.Alert","numberOfBytes":"128","members":[{"astId":1811,"contract":"contracts/modules/analytics/MonitoringSystem.sol:MonitoringSystem","label":"message","offset":0,"slot":"0","type":"t_string_storage"},{"astId":1813,"contract":"contracts/modules/analytics/MonitoringSystem.sol:MonitoringSystem","label":"severity","offset":0,"slot":"1","type":"t_uint256"},{"astId":1815,"contract":"contracts/modules/analytics/MonitoringSystem.sol:MonitoringSystem","label":"timestamp","offset":0,"slot":"2","type":"t_uint256"},{"astId":1817,"contract":"contracts/modules/analytics/MonitoringSystem.sol:MonitoringSystem","label":"isResolved","offset":0,"slot":"3","type":"t_bool"}]},"t_struct(SystemMetrics)1808_storage":{"encoding":"inplace","label":"struct MonitoringSystem.SystemMetrics","numberOfBytes":"160","members":[{"astId":1799,"contract":"contracts/modules/analytics/MonitoringSystem.sol:MonitoringSystem","label":"totalTransactions","offset":0,"slot":"0","type":"t_uint256"},{"astId":1801,"contract":"contracts/modules/analytics/MonitoringSystem.sol:MonitoringSystem","label":"totalVolume","offset":0,"slot":"1","type":"t_uint256"},{"astId":1803,"contract":"contracts/modules/analytics/MonitoringSystem.sol:MonitoringSystem","label":"activeUsers","offset":0,"slot":"2","type":"t_uint256"},{"astId":1805,"contract":"contracts/modules/analytics/MonitoringSystem.sol:MonitoringSystem","label":"lastUpdate","offset":0,"slot":"3","type":"t_uint256"},{"astId":1807,"contract":"contracts/modules/analytics/MonitoringSystem.sol:MonitoringSystem","label":"isHealthy","offset":0,"slot":"4","type":"t_bool"}]},"t_uint256":{"encoding":"inplace","label":"uint256","numberOfBytes":"32"}}},"id":3}