{"abi":[{"type":"constructor","inputs":[],"stateMutability":"nonpayable"},{"type":"function","name":"alertCount","inputs":[],"outputs":[{"name":"","type":"uint256","internalType":"uint256"}],"stateMutability":"view"},{"type":"function","name":"alerts","inputs":[{"name":"","type":"uint256","internalType":"uint256"}],"outputs":[{"name":"message","type":"string","internalType":"string"},{"name":"severity","type":"uint256","internalType":"uint256"},{"name":"timestamp","type":"uint256","internalType":"uint256"},{"name":"isResolved","type":"bool","internalType":"bool"}],"stateMutability":"view"},{"type":"function","name":"contractLastCheck","inputs":[{"name":"","type":"address","internalType":"address"}],"outputs":[{"name":"","type":"uint256","internalType":"uint256"}],"stateMutability":"view"},{"type":"function","name":"createAlert","inputs":[{"name":"message","type":"string","internalType":"string"},{"name":"severity","type":"uint256","internalType":"uint256"}],"outputs":[],"stateMutability":"nonpayable"},{"type":"function","name":"currentMetrics","inputs":[],"outputs":[{"name":"totalTransactions","type":"uint256","internalType":"uint256"},{"name":"totalVolume","type":"uint256","internalType":"uint256"},{"name":"activeUsers","type":"uint256","internalType":"uint256"},{"name":"lastUpdate","type":"uint256","internalType":"uint256"},{"name":"isHealthy","type":"bool","internalType":"bool"}],"stateMutability":"view"},{"type":"function","name":"getActiveAlerts","inputs":[],"outputs":[{"name":"activeAlerts","type":"uint256[]","internalType":"uint256[]"}],"stateMutability":"view"},{"type":"function","name":"getAlert","inputs":[{"name":"alertId","type":"uint256","internalType":"uint256"}],"outputs":[{"name":"","type":"tuple","internalType":"struct MonitoringSystem.Alert","components":[{"name":"message","type":"string","internalType":"string"},{"name":"severity","type":"uint256","internalType":"uint256"},{"name":"timestamp","type":"uint256","internalType":"uint256"},{"name":"isResolved","type":"bool","internalType":"bool"}]}],"stateMutability":"view"},{"type":"function","name":"getSystemStats","inputs":[],"outputs":[{"name":"metrics","type":"tuple","internalType":"struct MonitoringSystem.SystemMetrics","components":[{"name":"totalTransactions","type":"uint256","internalType":"uint256"},{"name":"totalVolume","type":"uint256","internalType":"uint256"},{"name":"activeUsers","type":"uint256","internalType":"uint256"},{"name":"lastUpdate","type":"uint256","internalType":"uint256"},{"name":"isHealthy","type":"bool","internalType":"bool"}]},{"name":"totalAlerts","type":"uint256","internalType":"uint256"},{"name":"activeAlerts","type":"uint256","internalType":"uint256"},{"name":"contractCount","type":"uint256","internalType":"uint256"}],"stateMutability":"view"},{"type":"function","name":"healthCheckInterval","inputs":[],"outputs":[{"name":"","type":"uint256","internalType":"uint256"}],"stateMutability":"view"},{"type":"function","name":"initialize","inputs":[{"name":"owner","type":"address","internalType":"address"}],"outputs":[],"stateMutability":"nonpayable"},{"type":"function","name":"maxResponseTime","inputs":[],"outputs":[{"name":"","type":"uint256","internalType":"uint256"}],"stateMutability":"view"},{"type":"function","name":"minTransactionThreshold","inputs":[],"outputs":[{"name":"","type":"uint256","internalType":"uint256"}],"stateMutability":"view"},{"type":"function","name":"monitoredContracts","inputs":[{"name":"","type":"address","internalType":"address"}],"outputs":[{"name":"","type":"bool","internalType":"bool"}],"stateMutability":"view"},{"type":"function","name":"owner","inputs":[],"outputs":[{"name":"","type":"address","internalType":"address"}],"stateMutability":"view"},{"type":"function","name":"performHealthCheck","inputs":[],"outputs":[{"name":"","type":"bool","internalType":"bool"}],"stateMutability":"nonpayable"},{"type":"function","name":"registerContract","inputs":[{"name":"contractAddress","type":"address","internalType":"address"}],"outputs":[],"stateMutability":"nonpayable"},{"type":"function","name":"renounceOwnership","inputs":[],"outputs":[],"stateMutability":"nonpayable"},{"type":"function","name":"resolveAlert","inputs":[{"name":"alertId","type":"uint256","internalType":"uint256"}],"outputs":[],"stateMutability":"nonpayable"},{"type":"function","name":"transferOwnership","inputs":[{"name":"newOwner","type":"address","internalType":"address"}],"outputs":[],"stateMutability":"nonpayable"},{"type":"function","name":"unregisterContract","inputs":[{"name":"contractAddress","type":"address","internalType":"address"}],"outputs":[],"stateMutability":"nonpayable"},{"type":"function","name":"updateMetrics","inputs":[{"name":"transactions","type":"uint256","internalType":"uint256"},{"name":"volume","type":"uint256","internalType":"uint256"},{"name":"users","type":"uint256","internalType":"uint256"}],"outputs":[],"stateMutability":"nonpayable"},{"type":"function","name":"updateThresholds","inputs":[{"name":"newMinTransactions","type":"uint256","internalType":"uint256"},{"name":"newMaxResponseTime","type":"uint256","internalType":"uint256"},{"name":"newHealthCheckInterval","type":"uint256","internalType":"uint256"}],"outputs":[],"stateMutability":"nonpayable"},{"type":"event","name":"AlertCreated","inputs":[{"name":"alertId","type":"uint256","indexed":true,"internalType":"uint256"},{"name":"message","type":"string","indexed":false,"internalType":"string"},{"name":"severity","type":"uint256","indexed":false,"internalType":"uint256"},{"name":"timestamp","type":"uint256","indexed":false,"internalType":"uint256"}],"anonymous":false},{"type":"event","name":"AlertResolved","inputs":[{"name":"alertId","type":"uint256","indexed":true,"internalType":"uint256"},{"name":"timestamp","type":"uint256","indexed":false,"internalType":"uint256"}],"anonymous":false},{"type":"event","name":"ContractRegistered","inputs":[{"name":"contractAddress","type":"address","indexed":true,"internalType":"address"},{"name":"timestamp","type":"uint256","indexed":false,"internalType":"uint256"}],"anonymous":false},{"type":"event","name":"ContractUnregistered","inputs":[{"name":"contractAddress","type":"address","indexed":true,"internalType":"address"},{"name":"timestamp","type":"uint256","indexed":false,"internalType":"uint256"}],"anonymous":false},{"type":"event","name":"HealthCheckPerformed","inputs":[{"name":"isHealthy","type":"bool","indexed":false,"internalType":"bool"},{"name":"timestamp","type":"uint256","indexed":false,"internalType":"uint256"}],"anonymous":false},{"type":"event","name":"Initialized","inputs":[{"name":"version","type":"uint64","indexed":false,"internalType":"uint64"}],"anonymous":false},{"type":"event","name":"MetricsUpdated","inputs":[{"name":"totalTransactions","type":"uint256","indexed":false,"internalType":"uint256"},{"name":"totalVolume","type":"uint256","indexed":false,"internalType":"uint256"},{"name":"activeUsers","type":"uint256","indexed":false,"internalType":"uint256"},{"name":"timestamp","type":"uint256","indexed":false,"internalType":"uint256"}],"anonymous":false},{"type":"event","name":"MonitoringConfigUpdated","inputs":[{"name":"parameter","type":"string","indexed":false,"internalType":"string"},{"name":"oldValue","type":"uint256","indexed":false,"internalType":"uint256"},{"name":"newValue","type":"uint256","indexed":false,"internalType":"uint256"},{"name":"timestamp","type":"uint256","indexed":false,"internalType":"uint256"}],"anonymous":false},{"type":"event","name":"OwnershipTransferred","inputs":[{"name":"previousOwner","type":"address","indexed":true,"internalType":"address"},{"name":"newOwner","type":"address","indexed":true,"internalType":"address"}],"anonymous":false},{"type":"event","name":"PerformanceThresholdExceeded","inputs":[{"name":"metric","type":"string","indexed":true,"internalType":"string"},{"name":"currentValue","type":"uint256","indexed":false,"internalType":"uint256"},{"name":"threshold","type":"uint256","indexed":false,"internalType":"uint256"},{"name":"timestamp","type":"uint256","indexed":false,"internalType":"uint256"}],"anonymous":false},{"type":"event","name":"SecurityEvent","inputs":[{"name":"contractAddress","type":"address","indexed":true,"internalType":"address"},{"name":"eventType","type":"string","indexed":false,"internalType":"string"},{"name":"details","type":"string","indexed":false,"internalType":"string"},{"name":"timestamp","type":"uint256","indexed":false,"internalType":"uint256"}],"anonymous":false},{"type":"event","name":"SystemAlert","inputs":[{"name":"alertType","type":"string","indexed":true,"internalType":"string"},{"name":"message","type":"string","indexed":false,"internalType":"string"},{"name":"severity","type":"uint256","indexed":false,"internalType":"uint256"},{"name":"timestamp","type":"uint256","indexed":false,"internalType":"uint256"}],"anonymous":false},{"type":"error","name":"InvalidInitialization","inputs":[]},{"type":"error","name":"NotInitializing","inputs":[]},{"type":"error","name":"OwnableInvalidOwner","inputs":[{"name":"owner","type":"address","internalType":"address"}]},{"type":"error","name":"OwnableUnauthorizedAccount","inputs":[{"name":"account","type":"address","internalType":"address"}]}],"bytecode":{"object":"0x608080604052346100c957600a60095561012c600a55610e10600b557ff0c57e16840df040f15088dc2f81fe391c3923bec73e23a9662efc9c229c6a009081549060ff8260401c166100ba57506001600160401b036002600160401b031982821601610075575b6040516111fa90816100ce8239f35b6001600160401b031990911681179091556040519081527fc7f505b2f371ae2175ee4913f4499e1f2633a7b5936321eed1cdaeb6115181d290602090a15f8080610066565b63f92ee8a960e01b8152600490fd5b5f80fdfe60806040818152600480361015610014575f80fd5b5f3560e01c92836308ee0ec014610e6157508263171d073a14610dfb57826318cce2fc14610dc257826322a5dde414610cb05782632e0e053f14610be05782633c047e1314610b6657826361022a3014610b48578263715018a614610ae15782638508188614610a125782638da5cb5b146109de5782639102c8cf146109c0578263a07faf5e1461097e578263ab44649114610960578263c4d66de8146107ef578263c7ca0c1e146107b1578263cbfe399a1461074b578263d1ce59a714610652578263d8649dfd14610383578263f2fde38b1461034e578263fa2956dc14610201578263fac2c6211461013857505063fd19e10c14610112575f80fd5b346101345761012036611001565b91610129611105565b600955600a55600b55005b5f80fd5b34610134576020806003193601126101345781356001600160a01b038116929083900361013457610167611105565b825f526007825260ff845f205416156101c0575081927ff81795170e73e8e66918dc4d29bab37e0003bf5de37763a66c401d20486c46e6925f5260078252805f2060ff198154169055600882525f8181205551428152a2005b60649184519162461bcd60e51b8352820152601760248201527f436f6e7472616374206e6f7420726567697374657265640000000000000000006044820152fd5b9034610134575f366003190112610134575f91600191600654925b83811115610313575061022e846110ed565b9061023b81519283610eff565b848252610247856110ed565b6020939083850190601f19013682375f9660015b878111158061030a575b156102cc57805f52600580885260ff6003875f2001541615610291575b5061028c9061105a565b61025b565b86999199518210156102b957818a8961028c946102b2941b8a01015261105a565b9890610282565b603285634e487b7160e01b5f525260245ffd5b8451878152865181890181905281908188019086908b5f5b8281106102f357505050500390f35b8351855286955093810193928101926001016102e4565b50818910610265565b805f52600560205260ff6003835f2001541615610339575b6103349061105a565b61021c565b936103466103349161105a565b94905061032b565b3461013457602036600319011261013457356001600160a01b0381168103610134576103819061037c611105565b61107c565b005b903461013457806003193601126101345781359067ffffffffffffffff908183116101345736602384011215610134576024918484013581811161064057602093601f19918451966103dc8785601f8501160189610eff565b8188523683838301011161013457815f9284899301838b013788010152803596610404611105565b6001908189101580610636575b156105fb5761042160065461105a565b948560065586519461043286610eb3565b898652888601928b84528887019542875260608801985f8a525f5260058b52895f2097519182519485116105ea57505061046c8754610e7b565b601f81116105a4575b508991601f841160011461051a575092826105019a989693600396937f1c3177129ad5fab1e71ae10d77e982546eb6c6032d1678f90d071d32a177d0669d9b99965f9261050f575b50505f1982881b1c191690831b1784555b5190830155516002820155019051151560ff80198354169116179055600654958151948594606086526060860190610fc3565b9284015242908301520390a2005b015190508e806104bd565b5f8881528b81209392918516905b81811061058f57509386937f1c3177129ad5fab1e71ae10d77e982546eb6c6032d1678f90d071d32a177d0669d9b99969360039893836105019f9d9b9810610578575b505050811b0184556104ce565b01515f19838a1b60f8161c191690558e808061056b565b82840151855593870193928c01928c01610528565b875f528a5f20601f850160051c8101918c86106105e0575b601f0160051c019086905b8281106105d5575050610475565b5f81550186906105c7565b90915081906105bc565b604190634e487b7160e01b5f52525ffd5b855162461bcd60e51b815290810187905260168184015275125b9d985b1a59081cd95d995c9a5d1e481b195d995b60521b6044820152606490fd5b5080891115610411565b83604187634e487b7160e01b5f52525ffd5b9034610134575f3660031901126101345780519161066f83610ee3565b5f83525f6080602094826020820152828582015282606082015201525f90600190600654915b82811115610711575061010094508351906106af82610ee3565b5f54948583526001546020840190815260025490828501918252608060ff600354956060880196875254169501941515855282519788525160208801525190860152516060850152511515608084015260a083015260c08201525f60e0820152f35b805f526005865260ff6003865f2001541615610736575b6107319061105a565b610695565b926107436107319161105a565b939050610728565b34610134575f36600319011261013457602091610766611105565b61076e61113d565b15159160ff1981541660ff84161790557fc463f23a2b9d4b671e9c1e80123ce0a1b044ccf294a00502ac01dabc474568338180518481524286820152a151908152f35b3461013457602036600319011261013457356001600160a01b0381169190829003610134576020915f526007825260ff815f20541690519015158152f35b34610134576020366003190112610134578035906001600160a01b0382168203610134577ff0c57e16840df040f15088dc2f81fe391c3923bec73e23a9662efc9c229c6a009182549160ff83861c16159167ffffffffffffffff841693841580610959575b6001809614908161094f575b159081610946575b506109365767ffffffffffffffff19811685178655610899919084610917575b50610891611163565b61037c611163565b82608086516108a781610ee3565b5f81525f60208201525f8882015242606082015201525f80555f83555f600255426003558260ff198254161790556108db57005b7fc7f505b2f371ae2175ee4913f4499e1f2633a7b5936321eed1cdaeb6115181d29260209268ff000000000000000019815416905551908152a1005b68ffffffffffffffffff19166801000000000000000117865587610888565b865163f92ee8a960e01b81528390fd5b90501588610868565b303b159150610860565b5083610854565b5034610134575f366003190112610134576020906006549051908152f35b34610134575f3660031901126101345760a0915f5491600154916002549060ff6003549354169381519586526020860152840152606083015215156080820152f35b5034610134575f366003190112610134576020906009549051908152f35b5034610134575f366003190112610134575f805160206111a58339815191525490516001600160a01b039091168152602090f35b9034610134576020908160031936011261013457608092355f60608351610a3881610eb3565b81815282868201528285820152015280151580610ad5575b610a599061101b565b5f5260058252805f2091815192610a6f84610eb3565b610a7881610f21565b8452600181015492828501938452610abd60ff6003600285015494848901958652015416936060870194151585528251978897828952519188015260a0870190610fc3565b93519085015251606084015251151560808301520390f35b50600654811115610a50565b34610134575f36600319011261013457610af9611105565b5f805160206111a583398151915280546001600160a01b031981169091555f906001600160a01b03167f8be0079c531659141344cd1fd0a4f28419497f9722a3daafe3b4186f6b6457e08280a3005b5034610134575f36600319011261013457602090600b549051908152f35b9034610134577f56d8f7dc7f4e1d9960c9a876b8fe805810b535361b52ba0e6c1b6b6529f2bcc891608091610b9a36611001565b929193610ba5611105565b845f55816001558360025542600355610bbc61113d565b151560ff8019835416911617905581519384526020840152820152426060820152a1005b903461013457602036600319011261013457813591610bfd611105565b82151580610ca4575b610c0f9061101b565b825f52600560205260ff6003835f20015416610c69575060207fcebd814edd0d4ddc1bc2dddfb3a937bf821cd9862db8b34e51894bf4232c874291835f52600582526003815f2001600160ff1982541617905551428152a2005b6020606492519162461bcd60e51b83528201526016602482015275105b195c9d08185b1c9958591e481c995cdbdb1d995960521b6044820152fd5b50600654831115610c06565b34610134576020806003193601126101345781356001600160a01b038116929083900361013457610cdf611105565b8215610d8157825f526007825260ff845f205416610d40575081927f41af697536e017085ac02cc37449b0a4b25d3e5bcd47eeb25b57a23d69c7eeec925f5260078252805f20600160ff198254161790556008825242815f205551428152a2005b60649184519162461bcd60e51b8352820152601b60248201527f436f6e747261637420616c7265616479207265676973746572656400000000006044820152fd5b60649184519162461bcd60e51b8352820152601860248201527f496e76616c696420636f6e7472616374206164647265737300000000000000006044820152fd5b3461013457602036600319011261013457356001600160a01b0381169190829003610134576020915f5260088252805f20549051908152f35b903461013457602036600319011261013457610e4d91355f526005602052805f20610e2581610f21565b9160018201549160ff6003600283015492015416918051958695608087526080870190610fc3565b936020860152840152151560608301520390f35b34610134575f36600319011261013457602090600a548152f35b90600182811c92168015610ea9575b6020831014610e9557565b634e487b7160e01b5f52602260045260245ffd5b91607f1691610e8a565b6080810190811067ffffffffffffffff821117610ecf57604052565b634e487b7160e01b5f52604160045260245ffd5b60a0810190811067ffffffffffffffff821117610ecf57604052565b90601f8019910116810190811067ffffffffffffffff821117610ecf57604052565b9060405191825f8254610f3381610e7b565b908184526020946001916001811690815f14610fa15750600114610f63575b505050610f6192500383610eff565b565b5f90815285812095935091905b818310610f89575050610f6193508201015f8080610f52565b85548884018501529485019487945091830191610f70565b92505050610f6194925060ff191682840152151560051b8201015f8080610f52565b91908251928382525f5b848110610fed575050825f602080949584010152601f8019910116010190565b602081830181015184830182015201610fcd565b606090600319011261013457600435906024359060443590565b1561102257565b60405162461bcd60e51b815260206004820152601060248201526f125b9d985b1a5908185b195c9d08125160821b6044820152606490fd5b5f1981146110685760010190565b634e487b7160e01b5f52601160045260245ffd5b6001600160a01b039081169081156110d5575f805160206111a583398151915280546001600160a01b031981168417909155167f8be0079c531659141344cd1fd0a4f28419497f9722a3daafe3b4186f6b6457e05f80a3565b604051631e4fbdf760e01b81525f6004820152602490fd5b67ffffffffffffffff8111610ecf5760051b60200190565b5f805160206111a5833981519152546001600160a01b0316330361112557565b60405163118cdaa760e01b8152336004820152602490fd5b600354420342811161106857600b5410155f5460095411158161115e575090565b905090565b60ff7ff0c57e16840df040f15088dc2f81fe391c3923bec73e23a9662efc9c229c6a005460401c161561119257565b604051631afcd79f60e31b8152600490fdfe9016d09d72d40fdae2fd8ceac6b6234c7706214fd39c1cd1e609a0528c199300a264697066735822122019e00897c853f17d0f46704c8977f45aceb39d08f1bbe6b7f897992a7695445864736f6c63430008160033","linkReferences":{}},"methodIdentifiers":{"alertCount()":"ab446491","alerts(uint256)":"171d073a","contractLastCheck(address)":"18cce2fc","createAlert(string,uint256)":"d8649dfd","currentMetrics()":"a07faf5e","getActiveAlerts()":"fa2956dc","getAlert(uint256)":"85081886","getSystemStats()":"d1ce59a7","healthCheckInterval()":"61022a30","initialize(address)":"c4d66de8","maxResponseTime()":"08ee0ec0","minTransactionThreshold()":"9102c8cf","monitoredContracts(address)":"c7ca0c1e","owner()":"8da5cb5b","performHealthCheck()":"cbfe399a","registerContract(address)":"22a5dde4","renounceOwnership()":"715018a6","resolveAlert(uint256)":"2e0e053f","transferOwnership(address)":"f2fde38b","unregisterContract(address)":"fac2c621","updateMetrics(uint256,uint256,uint256)":"3c047e13","updateThresholds(uint256,uint256,uint256)":"fd19e10c"},"id":3}