{"abi":[{"type":"constructor","inputs":[],"stateMutability":"nonpayable"},{"type":"function","name":"analyticsEnabled","inputs":[],"outputs":[{"name":"","type":"bool","internalType":"bool"}],"stateMutability":"view"},{"type":"function","name":"analyzeUserActivity","inputs":[{"name":"users","type":"address[]","internalType":"address[]"}],"outputs":[{"name":"activeUsers","type":"uint256","internalType":"uint256"},{"name":"totalVolume","type":"uint256","internalType":"uint256"}],"stateMutability":"view"},{"type":"function","name":"analyzeUserActivityByPeriod","inputs":[{"name":"users","type":"address[]","internalType":"address[]"},{"name":"dayCount","type":"uint256","internalType":"uint256"}],"outputs":[{"name":"activeUsers","type":"uint256","internalType":"uint256"},{"name":"totalVolume","type":"uint256","internalType":"uint256"}],"stateMutability":"view"},{"type":"function","name":"compareGameTypes","inputs":[{"name":"gameTypes","type":"uint8[]","internalType":"uint8[]"}],"outputs":[{"name":"volumes","type":"uint256[]","internalType":"uint256[]"},{"name":"players","type":"uint256[]","internalType":"uint256[]"}],"stateMutability":"view"},{"type":"function","name":"dailyTransactions","inputs":[{"name":"","type":"uint256","internalType":"uint256"}],"outputs":[{"name":"","type":"uint256","internalType":"uint256"}],"stateMutability":"view"},{"type":"function","name":"dailyUsers","inputs":[{"name":"","type":"uint256","internalType":"uint256"}],"outputs":[{"name":"","type":"uint256","internalType":"uint256"}],"stateMutability":"view"},{"type":"function","name":"dailyVolume","inputs":[{"name":"","type":"uint256","internalType":"uint256"}],"outputs":[{"name":"","type":"uint256","internalType":"uint256"}],"stateMutability":"view"},{"type":"function","name":"gameAnalytics","inputs":[{"name":"","type":"uint8","internalType":"uint8"}],"outputs":[{"name":"totalGames","type":"uint256","internalType":"uint256"},{"name":"totalPlayers","type":"uint256","internalType":"uint256"},{"name":"totalVolume","type":"uint256","internalType":"uint256"},{"name":"averageTicketPrice","type":"uint256","internalType":"uint256"},{"name":"totalWinnings","type":"uint256","internalType":"uint256"},{"name":"lastGameTime","type":"uint256","internalType":"uint256"}],"stateMutability":"view"},{"type":"function","name":"getAnalyticsStats","inputs":[],"outputs":[{"name":"enabled","type":"bool","internalType":"bool"},{"name":"updateTime","type":"uint256","internalType":"uint256"},{"name":"totalUsers","type":"uint256","internalType":"uint256"},{"name":"totalVolume","type":"uint256","internalType":"uint256"},{"name":"totalTransactions","type":"uint256","internalType":"uint256"}],"stateMutability":"view"},{"type":"function","name":"getDailyStats","inputs":[{"name":"day","type":"uint256","internalType":"uint256"}],"outputs":[{"name":"volume","type":"uint256","internalType":"uint256"},{"name":"transactions","type":"uint256","internalType":"uint256"},{"name":"users","type":"uint256","internalType":"uint256"}],"stateMutability":"view"},{"type":"function","name":"getGameAnalytics","inputs":[{"name":"gameType","type":"uint8","internalType":"uint8"}],"outputs":[{"name":"","type":"tuple","internalType":"struct AnalyticsEngine.GameAnalytics","components":[{"name":"totalGames","type":"uint256","internalType":"uint256"},{"name":"totalPlayers","type":"uint256","internalType":"uint256"},{"name":"totalVolume","type":"uint256","internalType":"uint256"},{"name":"averageTicketPrice","type":"uint256","internalType":"uint256"},{"name":"totalWinnings","type":"uint256","internalType":"uint256"},{"name":"lastGameTime","type":"uint256","internalType":"uint256"}]}],"stateMutability":"view"},{"type":"function","name":"getPeriodStats","inputs":[{"name":"startDay","type":"uint256","internalType":"uint256"},{"name":"endDay","type":"uint256","internalType":"uint256"}],"outputs":[{"name":"totalVolume","type":"uint256","internalType":"uint256"},{"name":"totalTransactions","type":"uint256","internalType":"uint256"},{"name":"totalUsers","type":"uint256","internalType":"uint256"}],"stateMutability":"view"},{"type":"function","name":"getSystemAnalytics","inputs":[],"outputs":[{"name":"","type":"tuple","internalType":"struct AnalyticsEngine.SystemAnalytics","components":[{"name":"totalUsers","type":"uint256","internalType":"uint256"},{"name":"totalVolume","type":"uint256","internalType":"uint256"},{"name":"totalTransactions","type":"uint256","internalType":"uint256"},{"name":"activeGames","type":"uint256","internalType":"uint256"},{"name":"totalWinnings","type":"uint256","internalType":"uint256"},{"name":"systemFees","type":"uint256","internalType":"uint256"}]}],"stateMutability":"view"},{"type":"function","name":"getTopUsers","inputs":[{"name":"","type":"uint256","internalType":"uint256"}],"outputs":[{"name":"","type":"address[]","internalType":"address[]"}],"stateMutability":"pure"},{"type":"function","name":"getUserAnalytics","inputs":[{"name":"user","type":"address","internalType":"address"}],"outputs":[{"name":"","type":"tuple","internalType":"struct AnalyticsEngine.UserAnalytics","components":[{"name":"totalTransactions","type":"uint256","internalType":"uint256"},{"name":"totalVolume","type":"uint256","internalType":"uint256"},{"name":"lastActivity","type":"uint256","internalType":"uint256"},{"name":"gamesPlayed","type":"uint256","internalType":"uint256"},{"name":"totalWinnings","type":"uint256","internalType":"uint256"},{"name":"referralEarnings","type":"uint256","internalType":"uint256"}]}],"stateMutability":"view"},{"type":"function","name":"initialize","inputs":[{"name":"owner","type":"address","internalType":"address"}],"outputs":[],"stateMutability":"nonpayable"},{"type":"function","name":"lastUpdateTime","inputs":[],"outputs":[{"name":"","type":"uint256","internalType":"uint256"}],"stateMutability":"view"},{"type":"function","name":"owner","inputs":[],"outputs":[{"name":"","type":"address","internalType":"address"}],"stateMutability":"view"},{"type":"function","name":"renounceOwnership","inputs":[],"outputs":[],"stateMutability":"nonpayable"},{"type":"function","name":"systemAnalytics","inputs":[],"outputs":[{"name":"totalUsers","type":"uint256","internalType":"uint256"},{"name":"totalVolume","type":"uint256","internalType":"uint256"},{"name":"totalTransactions","type":"uint256","internalType":"uint256"},{"name":"activeGames","type":"uint256","internalType":"uint256"},{"name":"totalWinnings","type":"uint256","internalType":"uint256"},{"name":"systemFees","type":"uint256","internalType":"uint256"}],"stateMutability":"view"},{"type":"function","name":"toggleAnalytics","inputs":[],"outputs":[],"stateMutability":"nonpayable"},{"type":"function","name":"transferOwnership","inputs":[{"name":"newOwner","type":"address","internalType":"address"}],"outputs":[],"stateMutability":"nonpayable"},{"type":"function","name":"updateDailyStats","inputs":[{"name":"day","type":"uint256","internalType":"uint256"},{"name":"volume","type":"uint256","internalType":"uint256"},{"name":"transactions","type":"uint256","internalType":"uint256"},{"name":"users","type":"uint256","internalType":"uint256"}],"outputs":[],"stateMutability":"nonpayable"},{"type":"function","name":"updateGameAnalytics","inputs":[{"name":"gameType","type":"uint8","internalType":"uint8"},{"name":"totalGames","type":"uint256","internalType":"uint256"},{"name":"totalPlayers","type":"uint256","internalType":"uint256"},{"name":"totalVolume","type":"uint256","internalType":"uint256"},{"name":"averageTicketPrice","type":"uint256","internalType":"uint256"},{"name":"totalWinnings","type":"uint256","internalType":"uint256"}],"outputs":[],"stateMutability":"nonpayable"},{"type":"function","name":"updateSystemAnalytics","inputs":[{"name":"totalUsers","type":"uint256","internalType":"uint256"},{"name":"totalVolume","type":"uint256","internalType":"uint256"},{"name":"totalTransactions","type":"uint256","internalType":"uint256"},{"name":"activeGames","type":"uint256","internalType":"uint256"},{"name":"totalWinnings","type":"uint256","internalType":"uint256"},{"name":"systemFees","type":"uint256","internalType":"uint256"}],"outputs":[],"stateMutability":"nonpayable"},{"type":"function","name":"updateUserAnalytics","inputs":[{"name":"user","type":"address","internalType":"address"},{"name":"transactions","type":"uint256","internalType":"uint256"},{"name":"volume","type":"uint256","internalType":"uint256"},{"name":"gamesPlayed","type":"uint256","internalType":"uint256"},{"name":"winnings","type":"uint256","internalType":"uint256"},{"name":"referralEarnings","type":"uint256","internalType":"uint256"}],"outputs":[],"stateMutability":"nonpayable"},{"type":"function","name":"userAnalytics","inputs":[{"name":"","type":"address","internalType":"address"}],"outputs":[{"name":"totalTransactions","type":"uint256","internalType":"uint256"},{"name":"totalVolume","type":"uint256","internalType":"uint256"},{"name":"lastActivity","type":"uint256","internalType":"uint256"},{"name":"gamesPlayed","type":"uint256","internalType":"uint256"},{"name":"totalWinnings","type":"uint256","internalType":"uint256"},{"name":"referralEarnings","type":"uint256","internalType":"uint256"}],"stateMutability":"view"},{"type":"event","name":"AnalyticsToggled","inputs":[{"name":"enabled","type":"bool","indexed":true,"internalType":"bool"},{"name":"timestamp","type":"uint256","indexed":true,"internalType":"uint256"}],"anonymous":false},{"type":"event","name":"GameAnalyticsCompleted","inputs":[{"name":"gameNumber","type":"uint256","indexed":true,"internalType":"uint256"},{"name":"playerCount","type":"uint256","indexed":true,"internalType":"uint256"},{"name":"jackpot","type":"uint256","indexed":true,"internalType":"uint256"},{"name":"winner","type":"address","indexed":false,"internalType":"address"},{"name":"timestamp","type":"uint256","indexed":false,"internalType":"uint256"}],"anonymous":false},{"type":"event","name":"GameAnalyticsUpdated","inputs":[{"name":"gameType","type":"uint8","indexed":true,"internalType":"uint8"},{"name":"games","type":"uint256","indexed":true,"internalType":"uint256"},{"name":"players","type":"uint256","indexed":true,"internalType":"uint256"},{"name":"volume","type":"uint256","indexed":false,"internalType":"uint256"},{"name":"timestamp","type":"uint256","indexed":false,"internalType":"uint256"}],"anonymous":false},{"type":"event","name":"Initialized","inputs":[{"name":"version","type":"uint64","indexed":false,"internalType":"uint64"}],"anonymous":false},{"type":"event","name":"OwnershipTransferred","inputs":[{"name":"previousOwner","type":"address","indexed":true,"internalType":"address"},{"name":"newOwner","type":"address","indexed":true,"internalType":"address"}],"anonymous":false},{"type":"event","name":"PerformanceMetricsUpdated","inputs":[{"name":"avgGameDuration","type":"uint256","indexed":true,"internalType":"uint256"},{"name":"avgPlayersPerGame","type":"uint256","indexed":true,"internalType":"uint256"},{"name":"avgJackpot","type":"uint256","indexed":true,"internalType":"uint256"},{"name":"timestamp","type":"uint256","indexed":false,"internalType":"uint256"}],"anonymous":false},{"type":"event","name":"PlayerAnalyticsUpdated","inputs":[{"name":"player","type":"address","indexed":true,"internalType":"address"},{"name":"gamesPlayed","type":"uint256","indexed":true,"internalType":"uint256"},{"name":"totalSpent","type":"uint256","indexed":true,"internalType":"uint256"},{"name":"totalWon","type":"uint256","indexed":false,"internalType":"uint256"},{"name":"timestamp","type":"uint256","indexed":false,"internalType":"uint256"}],"anonymous":false},{"type":"event","name":"RevenueAnalyticsUpdated","inputs":[{"name":"dailyRevenue","type":"uint256","indexed":true,"internalType":"uint256"},{"name":"weeklyRevenue","type":"uint256","indexed":true,"internalType":"uint256"},{"name":"monthlyRevenue","type":"uint256","indexed":true,"internalType":"uint256"},{"name":"timestamp","type":"uint256","indexed":false,"internalType":"uint256"}],"anonymous":false},{"type":"event","name":"SystemAnalyticsUpdated","inputs":[{"name":"totalGames","type":"uint256","indexed":true,"internalType":"uint256"},{"name":"totalPlayers","type":"uint256","indexed":true,"internalType":"uint256"},{"name":"totalVolume","type":"uint256","indexed":true,"internalType":"uint256"},{"name":"timestamp","type":"uint256","indexed":false,"internalType":"uint256"}],"anonymous":false},{"type":"event","name":"UserAnalyticsUpdated","inputs":[{"name":"user","type":"address","indexed":true,"internalType":"address"},{"name":"transactions","type":"uint256","indexed":true,"internalType":"uint256"},{"name":"volume","type":"uint256","indexed":true,"internalType":"uint256"},{"name":"timestamp","type":"uint256","indexed":false,"internalType":"uint256"}],"anonymous":false},{"type":"error","name":"AnalyticsDisabled","inputs":[]},{"type":"error","name":"InvalidGameType","inputs":[]},{"type":"error","name":"InvalidInitialization","inputs":[]},{"type":"error","name":"InvalidUser","inputs":[]},{"type":"error","name":"NotInitializing","inputs":[]},{"type":"error","name":"OwnableInvalidOwner","inputs":[{"name":"owner","type":"address","internalType":"address"}]},{"type":"error","name":"OwnableUnauthorizedAccount","inputs":[{"name":"account","type":"address","internalType":"address"}]}],"bytecode":{"object":"0x608060405234801561000f575f80fd5b5061001861001d565b6100cf565b7ff0c57e16840df040f15088dc2f81fe391c3923bec73e23a9662efc9c229c6a00805468010000000000000000900460ff161561006d5760405163f92ee8a960e01b815260040160405180910390fd5b80546001600160401b03908116146100cc5780546001600160401b0319166001600160401b0390811782556040519081527fc7f505b2f371ae2175ee4913f4499e1f2633a7b5936321eed1cdaeb6115181d29060200160405180910390a15b50565b6114ff806100dc5f395ff3fe608060405234801561000f575f80fd5b50600436106101a1575f3560e01c8063c4d66de8116100f3578063de75aa6c11610093578063e37c983c1161006e578063e37c983c146104e6578063e3eba073146104f9578063f2fde38b1461050c578063f8a0ed971461051f575f80fd5b8063de75aa6c14610465578063e282556a14610492578063e2f800d7146104b0575f80fd5b8063ca5cd162116100ce578063ca5cd162146103e1578063d3dfeb721461041e578063d41701391461043f578063d84d100f14610452575f80fd5b8063c4d66de814610383578063c800adaf14610396578063c8f33c91146103d8575f80fd5b80636287bba21161015e5780638da5cb5b116101395780638da5cb5b146102f8578063943ca3b9146103325780639da29c8914610351578063a0eeb1f614610370575f80fd5b80636287bba2146102af578063715018a6146102dd5780638598bcc4146102e5575f80fd5b806320ee87be146101a557806325db122d146101c35780632a082d9e146101cd578063419176f4146101fa57806357c34e6c1461021757806358a6a0ab1461023f575b5f80fd5b6101ad610532565b6040516101ba919061110d565b60405180910390f35b6101cb6105a2565b005b6101ec6101db366004611150565b60096020525f908152604090205481565b6040519081526020016101ba565b600b546102079060ff1681565b60405190151581526020016101ba565b61022a6102253660046111a8565b6105f1565b604080519283526020830191909152016101ba565b61028261024d366004611205565b600160208190525f91825260409091208054918101546002820154600383015460048401546005909401549293919290919086565b604080519687526020870195909552938501929092526060840152608083015260a082015260c0016101ba565b6102c26102bd366004611225565b6106d1565b604080519384526020840192909252908201526060016101ba565b6101cb610748565b6101ad6102f336600461125b565b61075b565b7f9016d09d72d40fdae2fd8ceac6b6234c7706214fd39c1cd1e609a0528c199300546040516001600160a01b0390911681526020016101ba565b6101ec610340366004611150565b60086020525f908152604090205481565b6101ec61035f366004611150565b600a6020525f908152604090205481565b6101ad61037e366004611205565b6107ed565b6101cb61039136600461125b565b61087a565b6102826103a436600461125b565b5f60208190529081526040902080546001820154600283015460038401546004850154600590950154939492939192909186565b6101ec600c5481565b600b54600c546002546003546004546040805160ff909616151586526020860194909452928401919091526060830152608082015260a0016101ba565b61043161042c366004611274565b610984565b6040516101ba9291906112ed565b6101cb61044d36600461131a565b610ab2565b61022a610460366004611274565b610b42565b610485610473366004611150565b50604080515f81526020810190915290565b6040516101ba9190611359565b60025460035460045460055460065460075461028295949392919086565b6102c26104be366004611150565b5f818152600860209081526040808320546009835281842054600a9093529220549193909250565b6101cb6104f43660046113a5565b610c14565b6101cb6105073660046113eb565b610cbe565b6101cb61051a36600461125b565b610d5b565b6101cb61052d366004611409565b610d9d565b6105656040518060c001604052805f81526020015f81526020015f81526020015f81526020015f81526020015f81525090565b506040805160c08101825260025481526003546020820152600454918101919091526005546060820152600654608082015260075460a082015290565b6105aa610df1565b600b805460ff19811660ff9182161590811790925560405142929091161515907f09d1c9384415e386213a3cd28388d41ead9705f357db16999969a35e31c5695e905f90a3565b5f805f61062f8686808060200260200160405190810160405280939291908181526020018383602002808284375f92019190915250610e4c92505050565b90505f61063f856201518061144c565b6106499042611463565b90505f5b82518110156106c6575f805f85848151811061066b5761066b611476565b60200260200101516001600160a01b03166001600160a01b031681526020019081526020015f20905082816002015411156106ac576106a98661148a565b95505b60018101546106bb90866114a2565b94505060010161064d565b505050935093915050565b5f8080845b6106e18560016114a2565b811015610740575f8181526008602052604090205461070090856114a2565b5f8281526009602052604090205490945061071b90846114a2565b5f828152600a602052604090205490935061073690836114a2565b91506001016106d6565b509250925092565b610750610df1565b6107595f61101c565b565b61078e6040518060c001604052805f81526020015f81526020015f81526020015f81526020015f81526020015f81525090565b506001600160a01b03165f9081526020818152604091829020825160c08101845281548152600182015492810192909252600281015492820192909252600382015460608201526004820154608082015260059091015460a082015290565b6108206040518060c001604052805f81526020015f81526020015f81526020015f81526020015f81526020015f81525090565b5060ff165f90815260016020818152604092839020835160c081018552815481529281015491830191909152600281015492820192909252600382015460608201526004820154608082015260059091015460a082015290565b5f61088361108c565b805490915060ff600160401b820416159067ffffffffffffffff165f811580156108aa5750825b90505f8267ffffffffffffffff1660011480156108c65750303b155b9050811580156108d4575080155b156108f25760405163f92ee8a960e01b815260040160405180910390fd5b845467ffffffffffffffff19166001178555831561091c57845460ff60401b1916600160401b1785555b610925866110b6565b600b805460ff1916600117905542600c55831561097c57845460ff60401b19168555604051600181527fc7f505b2f371ae2175ee4913f4499e1f2633a7b5936321eed1cdaeb6115181d29060200160405180910390a15b505050505050565b6060808267ffffffffffffffff8111156109a0576109a06114b5565b6040519080825280602002602001820160405280156109c9578160200160208202803683370190505b5091508267ffffffffffffffff8111156109e5576109e56114b5565b604051908082528060200260200182016040528015610a0e578160200160208202803683370190505b5090505f5b83811015610aa9575f60015f878785818110610a3157610a31611476565b9050602002016020810190610a469190611205565b60ff1660ff1681526020019081526020015f2090508060020154848381518110610a7257610a72611476565b6020026020010181815250508060010154838381518110610a9557610a95611476565b602090810291909101015250600101610a13565b505b9250929050565b610aba610df1565b600b5460ff16610add57604051630e5970dd60e41b815260040160405180910390fd5b60028690556003859055600484905560058390556006829055600781905542600c8190556040519081528490869088907f6778b0d37cf00c4f81c79d0550aacb52c4694fcddcae6ca994d61f34ca8997629060200160405180910390a4505050505050565b5f805f610b808585808060200260200160405190810160405280939291908181526020018383602002808284375f92019190915250610e4c92505050565b90505f5b8151811015610c0b575f805f848481518110610ba257610ba2611476565b60200260200101516001600160a01b03166001600160a01b031681526020019081526020015f2090506201518042610bda9190611463565b81600201541115610bf157610bee8561148a565b94505b6001810154610c0090856114a2565b935050600101610b84565b50509250929050565b610c1c610df1565b600b5460ff16610c3f57604051630e5970dd60e41b815260040160405180910390fd5b60ff86165f8181526001602081815260409283902089815591820188905560028201879055600382018690556004820185905542600583018190558351888152918201529092879289927f7a424c001e07bd614139962d08b4dcc090725ecb89a92b87e44499a377d8a74391015b60405180910390a450505050505050565b610cc6610df1565b600b5460ff16610ce957604051630e5970dd60e41b815260040160405180910390fd5b6001600160a01b0386165f8181526020818152604091829020888155600181018890554260028201819055600382018890556004820187905560058201869055925192835292879289927fff1b6a1421fe6dba13c7752e3154e6c16ff4c06fcafde01c0d2cb3f83ac2b2299101610cad565b610d63610df1565b6001600160a01b038116610d9157604051631e4fbdf760e01b81525f60048201526024015b60405180910390fd5b610d9a8161101c565b50565b610da5610df1565b600b5460ff16610dc857604051630e5970dd60e41b815260040160405180910390fd5b5f938452600860209081526040808620949094556009815283852092909255600a909152912055565b33610e237f9016d09d72d40fdae2fd8ceac6b6234c7706214fd39c1cd1e609a0528c199300546001600160a01b031690565b6001600160a01b0316146107595760405163118cdaa760e01b8152336004820152602401610d88565b60606001825111610e5b575090565b5f825167ffffffffffffffff811115610e7657610e766114b5565b604051908082528060200260200182016040528015610e9f578160200160208202803683370190505b5090505f805b8451811015610f76575f805b83811015610f1557848181518110610ecb57610ecb611476565b60200260200101516001600160a01b0316878481518110610eee57610eee611476565b60200260200101516001600160a01b031603610f0d5760019150610f15565b600101610eb1565b5080610f6d57858281518110610f2d57610f2d611476565b6020026020010151848481518110610f4757610f47611476565b6001600160a01b039092166020928302919091019091015282610f698161148a565b9350505b50600101610ea5565b505f8167ffffffffffffffff811115610f9157610f916114b5565b604051908082528060200260200182016040528015610fba578160200160208202803683370190505b5090505f5b8281101561101357838181518110610fd957610fd9611476565b6020026020010151828281518110610ff357610ff3611476565b6001600160a01b0390921660209283029190910190910152600101610fbf565b50949350505050565b7f9016d09d72d40fdae2fd8ceac6b6234c7706214fd39c1cd1e609a0528c19930080546001600160a01b031981166001600160a01b03848116918217845560405192169182907f8be0079c531659141344cd1fd0a4f28419497f9722a3daafe3b4186f6b6457e0905f90a3505050565b5f807ff0c57e16840df040f15088dc2f81fe391c3923bec73e23a9662efc9c229c6a005b92915050565b6110be6110c7565b610d9a816110ec565b6110cf6110f4565b61075957604051631afcd79f60e31b815260040160405180910390fd5b610d636110c7565b5f6110fd61108c565b54600160401b900460ff16919050565b60c081016110b08284805182526020810151602083015260408101516040830152606081015160608301526080810151608083015260a081015160a08301525050565b5f60208284031215611160575f80fd5b5035919050565b5f8083601f840112611177575f80fd5b50813567ffffffffffffffff81111561118e575f80fd5b6020830191508360208260051b8501011115610aab575f80fd5b5f805f604084860312156111ba575f80fd5b833567ffffffffffffffff8111156111d0575f80fd5b6111dc86828701611167565b909790965060209590950135949350505050565b803560ff81168114611200575f80fd5b919050565b5f60208284031215611215575f80fd5b61121e826111f0565b9392505050565b5f8060408385031215611236575f80fd5b50508035926020909101359150565b80356001600160a01b0381168114611200575f80fd5b5f6020828403121561126b575f80fd5b61121e82611245565b5f8060208385031215611285575f80fd5b823567ffffffffffffffff81111561129b575f80fd5b6112a785828601611167565b90969095509350505050565b5f815180845260208085019450602084015f5b838110156112e2578151875295820195908201906001016112c6565b509495945050505050565b604081525f6112ff60408301856112b3565b828103602084015261131181856112b3565b95945050505050565b5f805f805f8060c0878903121561132f575f80fd5b505084359660208601359650604086013595606081013595506080810135945060a0013592509050565b602080825282518282018190525f9190848201906040850190845b818110156113995783516001600160a01b031683529284019291840191600101611374565b50909695505050505050565b5f805f805f8060c087890312156113ba575f80fd5b6113c3876111f0565b9860208801359850604088013597606081013597506080810135965060a00135945092505050565b5f805f805f8060c08789031215611400575f80fd5b6113c387611245565b5f805f806080858703121561141c575f80fd5b5050823594602084013594506040840135936060013592509050565b634e487b7160e01b5f52601160045260245ffd5b80820281158282048414176110b0576110b0611438565b818103818111156110b0576110b0611438565b634e487b7160e01b5f52603260045260245ffd5b5f6001820161149b5761149b611438565b5060010190565b808201808211156110b0576110b0611438565b634e487b7160e01b5f52604160045260245ffdfea2646970667358221220cf98cdff1f1256118de7f29d64abf74d3df9943dea7a2a0628be4a74d799299864736f6c63430008160033","linkReferences":{}},"methodIdentifiers":{"analyticsEnabled()":"419176f4","analyzeUserActivity(address[])":"d84d100f","analyzeUserActivityByPeriod(address[],uint256)":"57c34e6c","compareGameTypes(uint8[])":"d3dfeb72","dailyTransactions(uint256)":"2a082d9e","dailyUsers(uint256)":"9da29c89","dailyVolume(uint256)":"943ca3b9","gameAnalytics(uint8)":"58a6a0ab","getAnalyticsStats()":"ca5cd162","getDailyStats(uint256)":"e2f800d7","getGameAnalytics(uint8)":"a0eeb1f6","getPeriodStats(uint256,uint256)":"6287bba2","getSystemAnalytics()":"20ee87be","getTopUsers(uint256)":"de75aa6c","getUserAnalytics(address)":"8598bcc4","initialize(address)":"c4d66de8","lastUpdateTime()":"c8f33c91","owner()":"8da5cb5b","renounceOwnership()":"715018a6","systemAnalytics()":"e282556a","toggleAnalytics()":"25db122d","transferOwnership(address)":"f2fde38b","updateDailyStats(uint256,uint256,uint256,uint256)":"f8a0ed97","updateGameAnalytics(uint8,uint256,uint256,uint256,uint256,uint256)":"e37c983c","updateSystemAnalytics(uint256,uint256,uint256,uint256,uint256,uint256)":"d4170139","updateUserAnalytics(address,uint256,uint256,uint256,uint256,uint256)":"e3eba073","userAnalytics(address)":"c800adaf"},"storageLayout":{"storage":[{"astId":966,"contract":"contracts/modules/analytics/AnalyticsEngine.sol:AnalyticsEngine","label":"userAnalytics","offset":0,"slot":"0","type":"t_mapping(t_address,t_struct(UserAnalytics)934_storage)"},{"astId":972,"contract":"contracts/modules/analytics/AnalyticsEngine.sol:AnalyticsEngine","label":"gameAnalytics","offset":0,"slot":"1","type":"t_mapping(t_uint8,t_struct(GameAnalytics)947_storage)"},{"astId":976,"contract":"contracts/modules/analytics/AnalyticsEngine.sol:AnalyticsEngine","label":"systemAnalytics","offset":0,"slot":"2","type":"t_struct(SystemAnalytics)960_storage"},{"astId":981,"contract":"contracts/modules/analytics/AnalyticsEngine.sol:AnalyticsEngine","label":"dailyVolume","offset":0,"slot":"8","type":"t_mapping(t_uint256,t_uint256)"},{"astId":986,"contract":"contracts/modules/analytics/AnalyticsEngine.sol:AnalyticsEngine","label":"dailyTransactions","offset":0,"slot":"9","type":"t_mapping(t_uint256,t_uint256)"},{"astId":991,"contract":"contracts/modules/analytics/AnalyticsEngine.sol:AnalyticsEngine","label":"dailyUsers","offset":0,"slot":"10","type":"t_mapping(t_uint256,t_uint256)"},{"astId":994,"contract":"contracts/modules/analytics/AnalyticsEngine.sol:AnalyticsEngine","label":"analyticsEnabled","offset":0,"slot":"11","type":"t_bool"},{"astId":997,"contract":"contracts/modules/analytics/AnalyticsEngine.sol:AnalyticsEngine","label":"lastUpdateTime","offset":0,"slot":"12","type":"t_uint256"}],"types":{"t_address":{"encoding":"inplace","label":"address","numberOfBytes":"20"},"t_bool":{"encoding":"inplace","label":"bool","numberOfBytes":"1"},"t_mapping(t_address,t_struct(UserAnalytics)934_storage)":{"encoding":"mapping","key":"t_address","label":"mapping(address => struct AnalyticsEngine.UserAnalytics)","numberOfBytes":"32","value":"t_struct(UserAnalytics)934_storage"},"t_mapping(t_uint256,t_uint256)":{"encoding":"mapping","key":"t_uint256","label":"mapping(uint256 => uint256)","numberOfBytes":"32","value":"t_uint256"},"t_mapping(t_uint8,t_struct(GameAnalytics)947_storage)":{"encoding":"mapping","key":"t_uint8","label":"mapping(uint8 => struct AnalyticsEngine.GameAnalytics)","numberOfBytes":"32","value":"t_struct(GameAnalytics)947_storage"},"t_struct(GameAnalytics)947_storage":{"encoding":"inplace","label":"struct AnalyticsEngine.GameAnalytics","numberOfBytes":"192","members":[{"astId":936,"contract":"contracts/modules/analytics/AnalyticsEngine.sol:AnalyticsEngine","label":"totalGames","offset":0,"slot":"0","type":"t_uint256"},{"astId":938,"contract":"contracts/modules/analytics/AnalyticsEngine.sol:AnalyticsEngine","label":"totalPlayers","offset":0,"slot":"1","type":"t_uint256"},{"astId":940,"contract":"contracts/modules/analytics/AnalyticsEngine.sol:AnalyticsEngine","label":"totalVolume","offset":0,"slot":"2","type":"t_uint256"},{"astId":942,"contract":"contracts/modules/analytics/AnalyticsEngine.sol:AnalyticsEngine","label":"averageTicketPrice","offset":0,"slot":"3","type":"t_uint256"},{"astId":944,"contract":"contracts/modules/analytics/AnalyticsEngine.sol:AnalyticsEngine","label":"totalWinnings","offset":0,"slot":"4","type":"t_uint256"},{"astId":946,"contract":"contracts/modules/analytics/AnalyticsEngine.sol:AnalyticsEngine","label":"lastGameTime","offset":0,"slot":"5","type":"t_uint256"}]},"t_struct(SystemAnalytics)960_storage":{"encoding":"inplace","label":"struct AnalyticsEngine.SystemAnalytics","numberOfBytes":"192","members":[{"astId":949,"contract":"contracts/modules/analytics/AnalyticsEngine.sol:AnalyticsEngine","label":"totalUsers","offset":0,"slot":"0","type":"t_uint256"},{"astId":951,"contract":"contracts/modules/analytics/AnalyticsEngine.sol:AnalyticsEngine","label":"totalVolume","offset":0,"slot":"1","type":"t_uint256"},{"astId":953,"contract":"contracts/modules/analytics/AnalyticsEngine.sol:AnalyticsEngine","label":"totalTransactions","offset":0,"slot":"2","type":"t_uint256"},{"astId":955,"contract":"contracts/modules/analytics/AnalyticsEngine.sol:AnalyticsEngine","label":"activeGames","offset":0,"slot":"3","type":"t_uint256"},{"astId":957,"contract":"contracts/modules/analytics/AnalyticsEngine.sol:AnalyticsEngine","label":"totalWinnings","offset":0,"slot":"4","type":"t_uint256"},{"astId":959,"contract":"contracts/modules/analytics/AnalyticsEngine.sol:AnalyticsEngine","label":"systemFees","offset":0,"slot":"5","type":"t_uint256"}]},"t_struct(UserAnalytics)934_storage":{"encoding":"inplace","label":"struct AnalyticsEngine.UserAnalytics","numberOfBytes":"192","members":[{"astId":923,"contract":"contracts/modules/analytics/AnalyticsEngine.sol:AnalyticsEngine","label":"totalTransactions","offset":0,"slot":"0","type":"t_uint256"},{"astId":925,"contract":"contracts/modules/analytics/AnalyticsEngine.sol:AnalyticsEngine","label":"totalVolume","offset":0,"slot":"1","type":"t_uint256"},{"astId":927,"contract":"contracts/modules/analytics/AnalyticsEngine.sol:AnalyticsEngine","label":"lastActivity","offset":0,"slot":"2","type":"t_uint256"},{"astId":929,"contract":"contracts/modules/analytics/AnalyticsEngine.sol:AnalyticsEngine","label":"gamesPlayed","offset":0,"slot":"3","type":"t_uint256"},{"astId":931,"contract":"contracts/modules/analytics/AnalyticsEngine.sol:AnalyticsEngine","label":"totalWinnings","offset":0,"slot":"4","type":"t_uint256"},{"astId":933,"contract":"contracts/modules/analytics/AnalyticsEngine.sol:AnalyticsEngine","label":"referralEarnings","offset":0,"slot":"5","type":"t_uint256"}]},"t_uint256":{"encoding":"inplace","label":"uint256","numberOfBytes":"32"},"t_uint8":{"encoding":"inplace","label":"uint8","numberOfBytes":"1"}}},"id":2}