{"abi":[{"type":"constructor","inputs":[],"stateMutability":"nonpayable"},{"type":"function","name":"checkRateLimit","inputs":[{"name":"user","type":"address","internalType":"address"},{"name":"functionName","type":"string","internalType":"string"}],"outputs":[{"name":"","type":"bool","internalType":"bool"}],"stateMutability":"nonpayable"},{"type":"function","name":"defaultMaxRequests","inputs":[],"outputs":[{"name":"","type":"uint256","internalType":"uint256"}],"stateMutability":"view"},{"type":"function","name":"defaultTimeWindow","inputs":[],"outputs":[{"name":"","type":"uint256","internalType":"uint256"}],"stateMutability":"view"},{"type":"function","name":"disableFunctionRateLimit","inputs":[{"name":"functionName","type":"string","internalType":"string"}],"outputs":[],"stateMutability":"nonpayable"},{"type":"function","name":"disableUserFunctionRateLimit","inputs":[{"name":"user","type":"address","internalType":"address"},{"name":"functionName","type":"string","internalType":"string"}],"outputs":[],"stateMutability":"nonpayable"},{"type":"function","name":"disableUserRateLimit","inputs":[{"name":"user","type":"address","internalType":"address"}],"outputs":[],"stateMutability":"nonpayable"},{"type":"function","name":"functionRateLimits","inputs":[{"name":"","type":"string","internalType":"string"}],"outputs":[{"name":"maxRequests","type":"uint256","internalType":"uint256"},{"name":"timeWindow","type":"uint256","internalType":"uint256"},{"name":"currentRequests","type":"uint256","internalType":"uint256"},{"name":"windowStart","type":"uint256","internalType":"uint256"},{"name":"isActive","type":"bool","internalType":"bool"}],"stateMutability":"view"},{"type":"function","name":"getRateLimitInfo","inputs":[{"name":"user","type":"address","internalType":"address"},{"name":"functionName","type":"string","internalType":"string"}],"outputs":[{"name":"userLimitActive","type":"bool","internalType":"bool"},{"name":"userCurrentRequests","type":"uint256","internalType":"uint256"},{"name":"userMaxRequests","type":"uint256","internalType":"uint256"},{"name":"userTimeWindow","type":"uint256","internalType":"uint256"},{"name":"functionLimitActive","type":"bool","internalType":"bool"},{"name":"functionCurrentRequests","type":"uint256","internalType":"uint256"},{"name":"functionMaxRequests","type":"uint256","internalType":"uint256"},{"name":"functionTimeWindow","type":"uint256","internalType":"uint256"},{"name":"userFunctionLimitActive","type":"bool","internalType":"bool"},{"name":"userFunctionCurrentRequests","type":"uint256","internalType":"uint256"},{"name":"userFunctionMaxRequests","type":"uint256","internalType":"uint256"},{"name":"userFunctionTimeWindow","type":"uint256","internalType":"uint256"}],"stateMutability":"view"},{"type":"function","name":"initialize","inputs":[{"name":"owner","type":"address","internalType":"address"}],"outputs":[],"stateMutability":"nonpayable"},{"type":"function","name":"owner","inputs":[],"outputs":[{"name":"","type":"address","internalType":"address"}],"stateMutability":"view"},{"type":"function","name":"rateLimitingEnabled","inputs":[],"outputs":[{"name":"","type":"bool","internalType":"bool"}],"stateMutability":"view"},{"type":"function","name":"renounceOwnership","inputs":[],"outputs":[],"stateMutability":"nonpayable"},{"type":"function","name":"setFunctionRateLimit","inputs":[{"name":"functionName","type":"string","internalType":"string"},{"name":"maxRequests","type":"uint256","internalType":"uint256"},{"name":"timeWindow","type":"uint256","internalType":"uint256"}],"outputs":[],"stateMutability":"nonpayable"},{"type":"function","name":"setUserFunctionRateLimit","inputs":[{"name":"user","type":"address","internalType":"address"},{"name":"functionName","type":"string","internalType":"string"},{"name":"maxRequests","type":"uint256","internalType":"uint256"},{"name":"timeWindow","type":"uint256","internalType":"uint256"}],"outputs":[],"stateMutability":"nonpayable"},{"type":"function","name":"setUserRateLimit","inputs":[{"name":"user","type":"address","internalType":"address"},{"name":"maxRequests","type":"uint256","internalType":"uint256"},{"name":"timeWindow","type":"uint256","internalType":"uint256"}],"outputs":[],"stateMutability":"nonpayable"},{"type":"function","name":"toggleRateLimiting","inputs":[],"outputs":[],"stateMutability":"nonpayable"},{"type":"function","name":"transferOwnership","inputs":[{"name":"newOwner","type":"address","internalType":"address"}],"outputs":[],"stateMutability":"nonpayable"},{"type":"function","name":"updateDefaultSettings","inputs":[{"name":"newMaxRequests","type":"uint256","internalType":"uint256"},{"name":"newTimeWindow","type":"uint256","internalType":"uint256"}],"outputs":[],"stateMutability":"nonpayable"},{"type":"function","name":"userFunctionRateLimits","inputs":[{"name":"","type":"address","internalType":"address"},{"name":"","type":"string","internalType":"string"}],"outputs":[{"name":"maxRequests","type":"uint256","internalType":"uint256"},{"name":"timeWindow","type":"uint256","internalType":"uint256"},{"name":"currentRequests","type":"uint256","internalType":"uint256"},{"name":"windowStart","type":"uint256","internalType":"uint256"},{"name":"isActive","type":"bool","internalType":"bool"}],"stateMutability":"view"},{"type":"function","name":"userRateLimits","inputs":[{"name":"","type":"address","internalType":"address"}],"outputs":[{"name":"maxRequests","type":"uint256","internalType":"uint256"},{"name":"timeWindow","type":"uint256","internalType":"uint256"},{"name":"currentRequests","type":"uint256","internalType":"uint256"},{"name":"windowStart","type":"uint256","internalType":"uint256"},{"name":"isActive","type":"bool","internalType":"bool"}],"stateMutability":"view"},{"type":"event","name":"Initialized","inputs":[{"name":"version","type":"uint64","indexed":false,"internalType":"uint64"}],"anonymous":false},{"type":"event","name":"OwnershipTransferred","inputs":[{"name":"previousOwner","type":"address","indexed":true,"internalType":"address"},{"name":"newOwner","type":"address","indexed":true,"internalType":"address"}],"anonymous":false},{"type":"event","name":"RateLimitCreated","inputs":[{"name":"user","type":"address","indexed":true,"internalType":"address"},{"name":"functionName","type":"string","indexed":true,"internalType":"string"},{"name":"maxRequests","type":"uint256","indexed":false,"internalType":"uint256"},{"name":"timeWindow","type":"uint256","indexed":false,"internalType":"uint256"},{"name":"timestamp","type":"uint256","indexed":false,"internalType":"uint256"}],"anonymous":false},{"type":"event","name":"RateLimitExceeded","inputs":[{"name":"user","type":"address","indexed":true,"internalType":"address"},{"name":"functionName","type":"string","indexed":true,"internalType":"string"},{"name":"timestamp","type":"uint256","indexed":false,"internalType":"uint256"}],"anonymous":false},{"type":"event","name":"RateLimitUpdated","inputs":[{"name":"user","type":"address","indexed":true,"internalType":"address"},{"name":"functionName","type":"string","indexed":true,"internalType":"string"},{"name":"oldMax","type":"uint256","indexed":false,"internalType":"uint256"},{"name":"newMax","type":"uint256","indexed":false,"internalType":"uint256"},{"name":"timestamp","type":"uint256","indexed":false,"internalType":"uint256"}],"anonymous":false},{"type":"event","name":"RateLimitingToggled","inputs":[{"name":"enabled","type":"bool","indexed":false,"internalType":"bool"},{"name":"timestamp","type":"uint256","indexed":false,"internalType":"uint256"}],"anonymous":false},{"type":"error","name":"InvalidInitialization","inputs":[]},{"type":"error","name":"NotInitializing","inputs":[]},{"type":"error","name":"OwnableInvalidOwner","inputs":[{"name":"owner","type":"address","internalType":"address"}]},{"type":"error","name":"OwnableUnauthorizedAccount","inputs":[{"name":"account","type":"address","internalType":"address"}]}],"bytecode":{"object":"0x608080604052346100c3576064600455610e106005557ff0c57e16840df040f15088dc2f81fe391c3923bec73e23a9662efc9c229c6a009081549060ff8260401c166100b457506001600160401b036002600160401b03198282160161006f575b604051610f3390816100c88239f35b6001600160401b031990911681179091556040519081527fc7f505b2f371ae2175ee4913f4499e1f2633a7b5936321eed1cdaeb6115181d290602090a15f8080610060565b63f92ee8a960e01b8152600490fd5b5f80fdfe604060808152600480361015610013575f80fd5b5f3560e01c91826307d64b8614610ab75782631864b21a14610a265782631b7bd2b8146109175782631f1ea46c146107ea578263246bb5a514610774578263499d3c54146107595782634dbb15e4146106fb578263715018a61461069457826379ac3a6514610654578263831b61c9146105f957826384409670146105d75782638da5cb5b146105a45782639f427bd9146104cb578263abc65f5914610367578263b6c80faa14610328578263c4d66de8146101f0578263d0e64d07146101d3578263d8106e0a1461019a578263e8c6e4741461012957505063f2fde38b146100fa575f80fd5b3461012557602036600319011261012557610123610116610c83565b61011e610dfc565b610d8b565b005b5f80fd5b34610125576020366003190112610125576001600160a01b0361014a610c83565b165f908152602081815290829020805460018201546002830154600384015496909301549451918252928101929092526040820152606081019290925260ff161515608082015260a090f35b0390f35b3461012557366003190112610125578035602435916101b7610dfc565b6101c2821515610cdc565b6101cd831515610d34565b55600555005b34610125575f366003190112610125576020906005549051908152f35b90346101255760203660031901126101255761020a610c83565b907ff0c57e16840df040f15088dc2f81fe391c3923bec73e23a9662efc9c229c6a0091825460ff81861c16159267ffffffffffffffff821680159081610320575b6001149081610316575b15908161030d575b506102ff575067ffffffffffffffff19811660011784556102909190836102e0575b50610288610e9c565b61011e610e9c565b600160ff1960035416176003556102a357005b805468ff00000000000000001916905551600181527fc7f505b2f371ae2175ee4913f4499e1f2633a7b5936321eed1cdaeb6115181d290602090a1005b68ffffffffffffffffff1916680100000000000000011784558561027f565b855163f92ee8a960e01b8152fd5b9050158761025d565b303b159150610255565b85915061024b565b3461012557602036600319011261012557610341610c83565b610349610dfc565b6001600160a01b03165f90815260208190522001805460ff19169055005b346101255761037536610c99565b919060ff60035416156104885760209360019160018060a01b031691825f525f8652835f2060ff8382015416610478575b50835186816103b58189610c3d565b600181520301902060ff838201541661045b575b5090825f526002865260ff6103e0855f2087610c66565b918201541661043e575b501592836103fc575b50505190158152f35b61040b90835191828092610c3d565b039020907fe3299a8704a0b867a0c47eb1e70f94a0d83aa10f51255e059b9239432928eeca858451428152a383806103f3565b8161044b575b50856103ea565b6104559150610e34565b85610444565b81610468575b50866103c9565b6104729150610e34565b86610461565b6104829150610e34565b866103a6565b815162461bcd60e51b8152602081860152601960248201527f52617465206c696d6974696e672069732064697361626c6564000000000000006044820152606490fd5b903461012557610180916104de36610c99565b9060018060a01b031691825f525f60205261051e815f209282516020816105058185610c3d565b6001815203019020945f526002602052825f2090610c66565b9160ff8582015416946002820154946001835493015460ff838301541660028301549160ff6001855495015495890154169560028901549760018a549a01549a81519c15158d5260208d01528b015260608a01521515608089015260a088015260c087015260e08601521515610100850152610120840152610140830152610160820152f35b34610125575f366003190112610125575f80516020610ede8339815191525490516001600160a01b039091168152602090f35b34610125575f3660031901126101255760209060ff6003541690519015158152f35b3461012557602036600319011261012557813567ffffffffffffffff8111610125576106419161062e60209236908601610bdb565b90610637610dfc565b5192838092610c3d565b600181520301902001805460ff19169055005b34610125576106899061066636610c99565b9190610670610dfc565b6001600160a01b03165f90815260026020522090610c66565b01805460ff19169055005b34610125575f366003190112610125576106ac610dfc565b5f80516020610ede83398151915280546001600160a01b031981169091555f906001600160a01b03167f8be0079c531659141344cd1fd0a4f28419497f9722a3daafe3b4186f6b6457e08280a3005b34610125575f366003190112610125577f9803d73da696e537f95d852db94c1529f9efb78e705c87500a979fc4b535251e90610735610dfc565b60035460ff8082161516809160ff19161760035581519015158152426020820152a1005b34610125575f36600319011261012557602091549051908152f35b34610125576101966107a561078836610c99565b6001600160a01b039091165f908152600260205284902090610c66565b80546001820154600283015460038401549690930154945191825260208201526040810191909152606081019390935260ff90911615156080830152819060a0820190565b903461012557608036600319011261012557610804610c83565b6024359067ffffffffffffffff82116101255783926109126108f361084d7f6e80061b019a272cef2f977ce057da19276adaccdcf45c52db3006556a85463b9536908501610bdb565b6108e86044359560643595610860610dfc565b61086b881515610cdc565b610876871515610d34565b61087e610ba7565b91888352602083018881528b84015f815260608501914283526108bc60808701946001865260018060a01b03169e8f5f5260026020525f2089610c66565b9551865551600186015551600285015551600384015551151591019060ff801983541691151516179055565b875191828092610c3d565b0390209551928352602083019190915242604083015281906060820190565b0390a3005b34610125576060366003190112610125577f6e80061b019a272cef2f977ce057da19276adaccdcf45c52db3006556a85463b610912610954610c83565b92602435906109e860443596610968610dfc565b610973841515610cdc565b61097e881515610d34565b610986610ba7565b9084825260208201978989528483015f8152606084019042825260808501926001845260018060a01b03169a8b5f525f602052875f209551865551600186015551600285015551600384015551151591019060ff801983541691151516179055565b5190815260208101949094524260408501527fc5d2460186f7233c927e7db2dcc703c0e500b653ca82273b7bfad8045d85a470939081906060820190565b3461012557602036600319011261012557813567ffffffffffffffff811161012557610a686020610a5d6101969336908701610bdb565b845192838092610c3d565b60018152030190209182549260018101549460ff60028301549160038401549301541692519586958693909594919260809360a086019786526020860152604085015260608401521515910152565b903461012557606036600319011261012557803567ffffffffffffffff8111610125575f91610b0a7f6e80061b019a272cef2f977ce057da19276adaccdcf45c52db3006556a85463b9236908301610bdb565b906109126108f3602435936108e860443594610b24610dfc565b610b2f871515610cdc565b610b3a861515610d34565b610b42610ba7565b908782528a602083018881528184018c8152606085019142835260808601936001855251602081610b73818c610c3d565b60018152030190209551865551600186015551600285015551600384015551151591019060ff801983541691151516179055565b6040519060a0820182811067ffffffffffffffff821117610bc757604052565b634e487b7160e01b5f52604160045260245ffd5b81601f820112156101255780359067ffffffffffffffff92838311610bc75760405193601f8401601f19908116603f0116850190811185821017610bc7576040528284526020838301011161012557815f926020809301838601378301015290565b908151915f5b838110610c53575050015f815290565b8060208092840101518185015201610c43565b602090610c799260405193848093610c3d565b9081520301902090565b600435906001600160a01b038216820361012557565b906040600319830112610125576004356001600160a01b038116810361012557916024359067ffffffffffffffff821161012557610cd991600401610bdb565b90565b15610ce357565b60405162461bcd60e51b815260206004820152602360248201527f4d6178207265717565737473206d75737420626520677265617465722074686160448201526206e20360ec1b6064820152608490fd5b15610d3b57565b60405162461bcd60e51b815260206004820152602260248201527f54696d652077696e646f77206d7573742062652067726561746572207468616e604482015261020360f41b6064820152608490fd5b6001600160a01b03908116908115610de4575f80516020610ede83398151915280546001600160a01b031981168417909155167f8be0079c531659141344cd1fd0a4f28419497f9722a3daafe3b4186f6b6457e05f80a3565b604051631e4fbdf760e01b81525f6004820152602490fd5b5f80516020610ede833981519152546001600160a01b03163303610e1c57565b60405163118cdaa760e01b8152336004820152602490fd5b60038101805460018301548101809111610e7257421015610e8c5750600281019081549054811015610e86575f198114610e72576001019055600190565b634e487b7160e01b5f52601160045260245ffd5b50505f90565b9060026001910155429055600190565b60ff7ff0c57e16840df040f15088dc2f81fe391c3923bec73e23a9662efc9c229c6a005460401c1615610ecb57565b604051631afcd79f60e31b8152600490fdfe9016d09d72d40fdae2fd8ceac6b6234c7706214fd39c1cd1e609a0528c199300a2646970667358221220125fcd1b1f07887e3d62e92212781a41dce368d3ab4989914af2b1bd92e1f6cc64736f6c63430008160033","linkReferences":{}},"methodIdentifiers":{"checkRateLimit(address,string)":"abc65f59","defaultMaxRequests()":"499d3c54","defaultTimeWindow()":"d0e64d07","disableFunctionRateLimit(string)":"831b61c9","disableUserFunctionRateLimit(address,string)":"79ac3a65","disableUserRateLimit(address)":"b6c80faa","functionRateLimits(string)":"1864b21a","getRateLimitInfo(address,string)":"9f427bd9","initialize(address)":"c4d66de8","owner()":"8da5cb5b","rateLimitingEnabled()":"84409670","renounceOwnership()":"715018a6","setFunctionRateLimit(string,uint256,uint256)":"07d64b86","setUserFunctionRateLimit(address,string,uint256,uint256)":"1f1ea46c","setUserRateLimit(address,uint256,uint256)":"1b7bd2b8","toggleRateLimiting()":"4dbb15e4","transferOwnership(address)":"f2fde38b","updateDefaultSettings(uint256,uint256)":"d8106e0a","userFunctionRateLimits(address,string)":"246bb5a5","userRateLimits(address)":"e8c6e474"},"id":47}