{"abi":[{"type":"constructor","inputs":[],"stateMutability":"nonpayable"},{"type":"function","name":"ADMIN_ROLE","inputs":[],"outputs":[{"name":"","type":"bytes32","internalType":"bytes32"}],"stateMutability":"view"},{"type":"function","name":"DEFAULT_ADMIN_ROLE","inputs":[],"outputs":[{"name":"","type":"bytes32","internalType":"bytes32"}],"stateMutability":"view"},{"type":"function","name":"EMERGENCY_ROLE","inputs":[],"outputs":[{"name":"","type":"bytes32","internalType":"bytes32"}],"stateMutability":"view"},{"type":"function","name":"OPERATOR_ROLE","inputs":[],"outputs":[{"name":"","type":"bytes32","internalType":"bytes32"}],"stateMutability":"view"},{"type":"function","name":"UPGRADER_ROLE","inputs":[],"outputs":[{"name":"","type":"bytes32","internalType":"bytes32"}],"stateMutability":"view"},{"type":"function","name":"emergencyPause","inputs":[],"outputs":[],"stateMutability":"nonpayable"},{"type":"function","name":"emergencyResume","inputs":[],"outputs":[],"stateMutability":"nonpayable"},{"type":"function","name":"getRoleAdmin","inputs":[{"name":"role","type":"bytes32","internalType":"bytes32"}],"outputs":[{"name":"","type":"bytes32","internalType":"bytes32"}],"stateMutability":"view"},{"type":"function","name":"getUserRoles","inputs":[{"name":"user","type":"address","internalType":"address"}],"outputs":[{"name":"","type":"bytes32[]","internalType":"bytes32[]"}],"stateMutability":"view"},{"type":"function","name":"grantRole","inputs":[{"name":"role","type":"bytes32","internalType":"bytes32"},{"name":"account","type":"address","internalType":"address"}],"outputs":[],"stateMutability":"nonpayable"},{"type":"function","name":"hasRole","inputs":[{"name":"role","type":"bytes32","internalType":"bytes32"},{"name":"account","type":"address","internalType":"address"}],"outputs":[{"name":"","type":"bool","internalType":"bool"}],"stateMutability":"view"},{"type":"function","name":"paused","inputs":[],"outputs":[{"name":"","type":"bool","internalType":"bool"}],"stateMutability":"view"},{"type":"function","name":"renounceRole","inputs":[{"name":"role","type":"bytes32","internalType":"bytes32"},{"name":"callerConfirmation","type":"address","internalType":"address"}],"outputs":[],"stateMutability":"nonpayable"},{"type":"function","name":"revokeRole","inputs":[{"name":"role","type":"bytes32","internalType":"bytes32"},{"name":"account","type":"address","internalType":"address"}],"outputs":[],"stateMutability":"nonpayable"},{"type":"function","name":"roleMembers","inputs":[{"name":"","type":"bytes32","internalType":"bytes32"},{"name":"","type":"address","internalType":"address"}],"outputs":[{"name":"","type":"bool","internalType":"bool"}],"stateMutability":"view"},{"type":"function","name":"supportsInterface","inputs":[{"name":"interfaceId","type":"bytes4","internalType":"bytes4"}],"outputs":[{"name":"","type":"bool","internalType":"bool"}],"stateMutability":"view"},{"type":"function","name":"userRoles","inputs":[{"name":"","type":"address","internalType":"address"},{"name":"","type":"uint256","internalType":"uint256"}],"outputs":[{"name":"","type":"bytes32","internalType":"bytes32"}],"stateMutability":"view"},{"type":"event","name":"EmergencyPaused","inputs":[{"name":"by","type":"address","indexed":true,"internalType":"address"},{"name":"timestamp","type":"uint256","indexed":false,"internalType":"uint256"}],"anonymous":false},{"type":"event","name":"EmergencyResumed","inputs":[{"name":"by","type":"address","indexed":true,"internalType":"address"},{"name":"timestamp","type":"uint256","indexed":false,"internalType":"uint256"}],"anonymous":false},{"type":"event","name":"Paused","inputs":[{"name":"account","type":"address","indexed":false,"internalType":"address"}],"anonymous":false},{"type":"event","name":"RoleAdminChanged","inputs":[{"name":"role","type":"bytes32","indexed":true,"internalType":"bytes32"},{"name":"previousAdminRole","type":"bytes32","indexed":true,"internalType":"bytes32"},{"name":"newAdminRole","type":"bytes32","indexed":true,"internalType":"bytes32"}],"anonymous":false},{"type":"event","name":"RoleGranted","inputs":[{"name":"role","type":"bytes32","indexed":true,"internalType":"bytes32"},{"name":"account","type":"address","indexed":true,"internalType":"address"},{"name":"sender","type":"address","indexed":true,"internalType":"address"}],"anonymous":false},{"type":"event","name":"RoleRevoked","inputs":[{"name":"role","type":"bytes32","indexed":true,"internalType":"bytes32"},{"name":"account","type":"address","indexed":true,"internalType":"address"},{"name":"sender","type":"address","indexed":true,"internalType":"address"}],"anonymous":false},{"type":"event","name":"Unpaused","inputs":[{"name":"account","type":"address","indexed":false,"internalType":"address"}],"anonymous":false},{"type":"error","name":"AccessControlBadConfirmation","inputs":[]},{"type":"error","name":"AccessControlUnauthorizedAccount","inputs":[{"name":"account","type":"address","internalType":"address"},{"name":"neededRole","type":"bytes32","internalType":"bytes32"}]},{"type":"error","name":"EnforcedPause","inputs":[]},{"type":"error","name":"ExpectedPause","inputs":[]}],"bytecode":{"object":"0x60806040523461004a576100123361004e565b5061001c336100e0565b506100263361017e565b5061003033610216565b5061003a336102ae565b506040516109cc90816103478239f35b5f80fd5b6001600160a01b03165f8181527fac33ff75c19e70fe83507db0d683fd3465c996598dc972688b7ace676c89077b602052604090205460ff166100db575f8181527fad3228b676f7d3cd4284a5443f17f1962b36e491b30a40b2405849e597ba5fb560205260408120805460ff191660011790553391905f80516020610d138339815191528180a4600190565b505f90565b6001600160a01b03165f8181527fe5ebfa64fca8d502a8e50c1edffd2c31ef4dad5b396e65d9f397fb028f74abc560205260409020547fa49807205ce4d355092ef5a8a18f56e8913cf4a201fbe287825b095693c21775919060ff1661017857815f525f60205260405f20815f5260205260405f20600160ff1982541617905533915f80516020610d138339815191525f80a4600190565b50505f90565b6001600160a01b03165f8181527f6bc781d8c7f9885ebbb3cefbc18932c491038e2ae5c5b56447891e0bd98ea16360205260409020547f97667070c54ef182b0f5858b034beac1b6f3089aa2d3188bb1e8929f4fa9b929919060ff1661017857815f525f60205260405f20815f5260205260405f20600160ff1982541617905533915f80516020610d138339815191525f80a4600190565b6001600160a01b03165f8181527f28c9ec68e4eea38d712bc1c550e52514f6bac036cf8b0f0ed19d6ac21930dd8c60205260409020547fbf233dd2aafeb4d50879c4aa5c81e96d92f6e6945c906a58f9f2d1c1631b4b26919060ff1661017857815f525f60205260405f20815f5260205260405f20600160ff1982541617905533915f80516020610d138339815191525f80a4600190565b6001600160a01b03165f8181527f5482ce787c10f743b3012848791e6ccbba62695e9c5f15725fc4588abbd7478660205260409020547f189ab7a9244df0848122154315af71fe140f3db0fe014031783b0946b8c9d2e3919060ff1661017857815f525f60205260405f20815f5260205260405f20600160ff1982541617905533915f80516020610d138339815191525f80a460019056fe6080604090808252600480361015610015575f80fd5b5f3560e01c91826301ffc9a7146107645750816306a36aee146106a05781630dbb49291461064957816320df43591461060f578163248a9ca3146105e65781632f2ff15d146104fc57816336568abe146104b657816341c3a92b1461038357816351858e27146104245781635c975abb1461040157816375b238fc146103c757816391d148541461038357816393c87f03146102f1578163a217fddf146102d7578163d547741f1461015257508063f5b541a6146101185763f72c0d8b146100db575f80fd5b34610114575f36600319011261011457602090517f189ab7a9244df0848122154315af71fe140f3db0fe014031783b0946b8c9d2e38152f35b5f80fd5b5034610114575f36600319011261011457602090517f97667070c54ef182b0f5858b034beac1b6f3089aa2d3188bb1e8929f4fa9b9298152f35b90503461011457816003193601126101145780359161016f6107cc565b91835f525f6020526001906101896001845f200154610884565b845f525f60205261019f6001845f200154610884565b6101a984866108a6565b505f858152600260209081528482206001600160a01b03909616808352958152848220805460ff191690556003908190529381209190835b61020f575b3386887ff6391f5c32d9c69d2a47ea670b442974b53935d1edc7fd64eb21e047a839171b5f80a4005b8254808210156102d1578761022483866107e2565b905490881b1c1461023857508301836101e1565b9293505f19928381019081116102be579061026661025961027e93876107e2565b905490881b1c91866107e2565b90919082549060031b91821b915f19901b1916179055565b82549081156102ab575081019261029584846107e2565b81939154921b1b19169055555f808080806101e6565b603190634e487b7160e01b5f525260245ffd5b601183634e487b7160e01b5f525260245ffd5b506101e6565b8234610114575f36600319011261011457602090515f8152f35b905034610114575f3660031901126101145761030b61080b565b6001549060ff821615610375575060ff19166001557f5db9ee0a495bf2e6ff9c91a7834c1ba4fdd244a5e8aa4e537bd38aeae4b073aa60208251338152a1514281527fe0dc8967738d1ca725802874d41e2ab2405df0e2eb3c61069d26d2782660d59460203392a2005b8251638dfc202b60e01b8152fd5b823461011457806003193601126101145760209161039f6107cc565b90355f5260028352815f209060018060a01b03165f52825260ff815f20541690519015158152f35b8234610114575f36600319011261011457602090517fa49807205ce4d355092ef5a8a18f56e8913cf4a201fbe287825b095693c217758152f35b8234610114575f3660031901126101145760209060ff6001541690519015158152f35b8234610114575f3660031901126101145761043d61080b565b60015460ff81166104a85760019060ff1916176001557f62e78cea01bee320cd4e420270b5ea74000d11b0c9f74754ebdbfc544b05a25860208251338152a1514281527f2e31b3b12b9bb0e82c32f27df5f234fabc95a374f54fd287a7132878d5dc9fc360203392a2005b505163d93c066560e01b8152fd5b82346101145780600319360112610114576104cf6107cc565b90336001600160a01b038316036104ed57506104eb91356108a6565b005b5163334bd91960e11b81529050fd5b82346101145780600319360112610114578135916105186107cc565b91835f525f60205261052f6001825f200154610884565b835f525f6020526105456001825f200154610884565b61054f838561091f565b505f848152600260209081528282206001600160a01b03909516808352948152828220805460ff191660011790556003905220805491680100000000000000008310156105d3575061026682859260016105ab950181556107e2565b33917f2f8788117e7eff1d82e926ec794901d17c78024a50270940304540a733656f0d5f80a4005b604190634e487b7160e01b5f525260245ffd5b823461011457602036600319011261011457602091355f525f82526001815f2001549051908152f35b8234610114575f36600319011261011457602090517fbf233dd2aafeb4d50879c4aa5c81e96d92f6e6945c906a58f9f2d1c1631b4b268152f35b82346101145780600319360112610114576106626107b6565b6001600160a01b03165f9081526003602052819020805460243592919083101561011457602092610692916107e2565b90549060031b1c9051908152f35b82346101145760209081600319360112610114576001600160a01b036106c46107b6565b165f5260038252805f20918151918282855491828152019081955f52835f20905f5b858282106107505750505050839003601f01601f191683019467ffffffffffffffff8611848710176105d357508481528185529151818501819052849392840192915f5b82811061073957505050500390f35b83518552869550938101939281019260010161072a565b8354855290930192600192830192016106e6565b903461011457602036600319011261011457359063ffffffff60e01b821680920361011457602091637965db0b60e01b81149081156107a5575b5015158152f35b6301ffc9a760e01b1490508361079e565b600435906001600160a01b038216820361011457565b602435906001600160a01b038216820361011457565b80548210156107f7575f5260205f2001905f90565b634e487b7160e01b5f52603260045260245ffd5b335f9081527f28c9ec68e4eea38d712bc1c550e52514f6bac036cf8b0f0ed19d6ac21930dd8c60205260409020547fbf233dd2aafeb4d50879c4aa5c81e96d92f6e6945c906a58f9f2d1c1631b4b269060ff16156108665750565b6044906040519063e2517d3f60e01b82523360048301526024820152fd5b805f52600260205260405f20335f5260205260ff60405f205416156108665750565b90815f52600260205260405f209060018060a01b031690815f5260205260ff60405f2054165f1461091957815f525f60205260405f20815f5260205260405f2060ff19815416905533917ff6391f5c32d9c69d2a47ea670b442974b53935d1edc7fd64eb21e047a839171b5f80a4600190565b50505f90565b90815f52600260205260405f209060018060a01b031690815f5260205260ff60405f205416155f1461091957815f525f60205260405f20815f5260205260405f20600160ff1982541617905533917f2f8788117e7eff1d82e926ec794901d17c78024a50270940304540a733656f0d5f80a460019056fea264697066735822122000b37212bf02732376e68f86088c789fa7ff9710e9a70daf8acad3e09f187ad464736f6c634300081600332f8788117e7eff1d82e926ec794901d17c78024a50270940304540a733656f0d","linkReferences":{}},"methodIdentifiers":{"ADMIN_ROLE()":"75b238fc","DEFAULT_ADMIN_ROLE()":"a217fddf","EMERGENCY_ROLE()":"20df4359","OPERATOR_ROLE()":"f5b541a6","UPGRADER_ROLE()":"f72c0d8b","emergencyPause()":"51858e27","emergencyResume()":"93c87f03","getRoleAdmin(bytes32)":"248a9ca3","getUserRoles(address)":"06a36aee","grantRole(bytes32,address)":"2f2ff15d","hasRole(bytes32,address)":"91d14854","paused()":"5c975abb","renounceRole(bytes32,address)":"36568abe","revokeRole(bytes32,address)":"d547741f","roleMembers(bytes32,address)":"41c3a92b","supportsInterface(bytes4)":"01ffc9a7","userRoles(address,uint256)":"0dbb4929"},"id":43}