{"abi":[{"type":"constructor","inputs":[],"stateMutability":"nonpayable"},{"type":"fallback","stateMutability":"payable"},{"type":"receive","stateMutability":"payable"},{"type":"function","name":"TREASURY_NAME","inputs":[],"outputs":[{"name":"","type":"string","internalType":"string"}],"stateMutability":"view"},{"type":"function","name":"UPGRADE_INTERFACE_VERSION","inputs":[],"outputs":[{"name":"","type":"string","internalType":"string"}],"stateMutability":"view"},{"type":"function","name":"allTimeJackpot","inputs":[],"outputs":[{"name":"","type":"uint256","internalType":"uint256"}],"stateMutability":"view"},{"type":"function","name":"allTimePlayers","inputs":[],"outputs":[{"name":"","type":"uint256","internalType":"uint256"}],"stateMutability":"view"},{"type":"function","name":"buyTicket","inputs":[{"name":"partner","type":"address","internalType":"address"},{"name":"ticketCount","type":"uint256","internalType":"uint256"}],"outputs":[],"stateMutability":"payable"},{"type":"function","name":"buyTicket","inputs":[{"name":"partner","type":"address","internalType":"address"}],"outputs":[],"stateMutability":"payable"},{"type":"function","name":"canStartNewGame","inputs":[],"outputs":[{"name":"","type":"bool","internalType":"bool"}],"stateMutability":"view"},{"type":"function","name":"changeTicketPrice","inputs":[{"name":"price","type":"uint256","internalType":"uint256"}],"outputs":[],"stateMutability":"nonpayable"},{"type":"function","name":"checkAndEndGame","inputs":[],"outputs":[],"stateMutability":"nonpayable"},{"type":"function","name":"currentGame","inputs":[],"outputs":[{"name":"gameNumber","type":"uint256","internalType":"uint256"},{"name":"startTime","type":"uint256","internalType":"uint256"},{"name":"endTime","type":"uint256","internalType":"uint256"},{"name":"jackpot","type":"uint256","internalType":"uint256"},{"name":"playerCount","type":"uint256","internalType":"uint256"},{"name":"state","type":"uint8","internalType":"enum BaseGame.GameState"}],"stateMutability":"view"},{"type":"function","name":"emergencyPause","inputs":[],"outputs":[],"stateMutability":"nonpayable"},{"type":"function","name":"emergencyResume","inputs":[],"outputs":[],"stateMutability":"nonpayable"},{"type":"function","name":"emergencyWithdraw","inputs":[],"outputs":[],"stateMutability":"nonpayable"},{"type":"function","name":"fee","inputs":[],"outputs":[{"name":"","type":"uint8","internalType":"uint8"}],"stateMutability":"view"},{"type":"function","name":"fundsDistributor","inputs":[],"outputs":[{"name":"","type":"address","internalType":"address"}],"stateMutability":"view"},{"type":"function","name":"gType","inputs":[],"outputs":[{"name":"","type":"uint8","internalType":"uint8"}],"stateMutability":"view"},{"type":"function","name":"gameDuration","inputs":[],"outputs":[{"name":"","type":"uint256","internalType":"uint256"}],"stateMutability":"view"},{"type":"function","name":"getContractBalance","inputs":[],"outputs":[{"name":"","type":"uint256","internalType":"uint256"}],"stateMutability":"view"},{"type":"function","name":"getCurrentGameInfo","inputs":[],"outputs":[{"name":"gameNumber","type":"uint256","internalType":"uint256"},{"name":"startTime","type":"uint256","internalType":"uint256"},{"name":"endTime","type":"uint256","internalType":"uint256"},{"name":"jackpot","type":"uint256","internalType":"uint256"},{"name":"playerCount","type":"uint256","internalType":"uint256"},{"name":"state","type":"uint8","internalType":"enum BaseGame.GameState"}],"stateMutability":"view"},{"type":"function","name":"getCurrentGamePlayers","inputs":[],"outputs":[{"name":"","type":"address[]","internalType":"address[]"}],"stateMutability":"view"},{"type":"function","name":"getCurrentGameState","inputs":[],"outputs":[{"name":"","type":"uint8","internalType":"enum BaseGame.GameState"}],"stateMutability":"view"},{"type":"function","name":"getCurrentGameTicketCount","inputs":[],"outputs":[{"name":"","type":"uint256","internalType":"uint256"}],"stateMutability":"view"},{"type":"function","name":"getGameInfo","inputs":[],"outputs":[{"name":"currentGameNumber","type":"uint256","internalType":"uint256"},{"name":"startTime","type":"uint256","internalType":"uint256"},{"name":"duration","type":"uint256","internalType":"uint256"},{"name":"remainingTime","type":"uint256","internalType":"uint256"},{"name":"timeExpired","type":"bool","internalType":"bool"},{"name":"playerCount","type":"uint256","internalType":"uint256"},{"name":"currentJackpot","type":"uint256","internalType":"uint256"}],"stateMutability":"view"},{"type":"function","name":"getGameJackpot","inputs":[{"name":"playedGame","type":"uint256","internalType":"uint256"}],"outputs":[{"name":"","type":"uint256","internalType":"uint256"}],"stateMutability":"view"},{"type":"function","name":"getPlayedGameJackpot","inputs":[],"outputs":[{"name":"","type":"uint256","internalType":"uint256"}],"stateMutability":"view"},{"type":"function","name":"getPlayedGamePlayers","inputs":[],"outputs":[{"name":"","type":"uint256","internalType":"uint256"}],"stateMutability":"view"},{"type":"function","name":"getPlayerTicketCount","inputs":[{"name":"player","type":"address","internalType":"address"}],"outputs":[{"name":"","type":"uint256","internalType":"uint256"}],"stateMutability":"view"},{"type":"function","name":"getPlayersInGame","inputs":[{"name":"playedGame","type":"uint256","internalType":"uint256"}],"outputs":[{"name":"","type":"uint256","internalType":"uint256"}],"stateMutability":"view"},{"type":"function","name":"getRemainingGameTime","inputs":[],"outputs":[{"name":"","type":"uint256","internalType":"uint256"}],"stateMutability":"view"},{"type":"function","name":"getTreasuryBalanceInfo","inputs":[],"outputs":[{"name":"totalBalance","type":"uint256","internalType":"uint256"},{"name":"reservedBalance","type":"uint256","internalType":"uint256"},{"name":"availableBalance","type":"uint256","internalType":"uint256"},{"name":"lastUpdate","type":"uint256","internalType":"uint256"},{"name":"isActive","type":"bool","internalType":"bool"}],"stateMutability":"view"},{"type":"function","name":"getTreasuryInfo","inputs":[],"outputs":[{"name":"treasuryManagerAddress","type":"address","internalType":"address"},{"name":"treasuryName","type":"string","internalType":"string"}],"stateMutability":"view"},{"type":"function","name":"initialize","inputs":[{"name":"owner","type":"address","internalType":"address"},{"name":"ownableContract","type":"address","internalType":"address"},{"name":"distributor","type":"address","internalType":"address"},{"name":"statsA","type":"address","internalType":"address"},{"name":"referralSystem","type":"address","internalType":"address"},{"name":"_treasuryManager","type":"address","internalType":"address"}],"outputs":[],"stateMutability":"nonpayable"},{"type":"function","name":"isActive","inputs":[],"outputs":[{"name":"","type":"bool","internalType":"bool"}],"stateMutability":"view"},{"type":"function","name":"isGameTimeExpired","inputs":[],"outputs":[{"name":"","type":"bool","internalType":"bool"}],"stateMutability":"view"},{"type":"function","name":"maxTicketsPerPlayer","inputs":[],"outputs":[{"name":"","type":"uint256","internalType":"uint256"}],"stateMutability":"view"},{"type":"function","name":"newPrice","inputs":[],"outputs":[{"name":"","type":"uint256","internalType":"uint256"}],"stateMutability":"view"},{"type":"function","name":"nextGameStartTime","inputs":[],"outputs":[{"name":"","type":"uint256","internalType":"uint256"}],"stateMutability":"view"},{"type":"function","name":"ownable","inputs":[],"outputs":[{"name":"","type":"address","internalType":"contract IOwnable"}],"stateMutability":"view"},{"type":"function","name":"owner","inputs":[],"outputs":[{"name":"","type":"address","internalType":"address"}],"stateMutability":"view"},{"type":"function","name":"paidToPartners","inputs":[],"outputs":[{"name":"","type":"uint256","internalType":"uint256"}],"stateMutability":"view"},{"type":"function","name":"playerTicketCount","inputs":[{"name":"","type":"address","internalType":"address"}],"outputs":[{"name":"","type":"uint256","internalType":"uint256"}],"stateMutability":"view"},{"type":"function","name":"proxiableUUID","inputs":[],"outputs":[{"name":"","type":"bytes32","internalType":"bytes32"}],"stateMutability":"view"},{"type":"function","name":"randomNumber","inputs":[{"name":"min","type":"uint256","internalType":"uint256"},{"name":"max","type":"uint256","internalType":"uint256"},{"name":"time","type":"uint256","internalType":"uint256"},{"name":"difficulty","type":"uint256","internalType":"uint256"},{"name":"number","type":"uint256","internalType":"uint256"},{"name":"bHash","type":"bytes32","internalType":"bytes32"}],"outputs":[{"name":"","type":"uint256","internalType":"uint256"}],"stateMutability":"pure"},{"type":"function","name":"referralInstance","inputs":[],"outputs":[{"name":"","type":"address","internalType":"contract ICryptolottoReferral"}],"stateMutability":"view"},{"type":"function","name":"renounceOwnership","inputs":[],"outputs":[],"stateMutability":"nonpayable"},{"type":"function","name":"setFee","inputs":[{"name":"newFee","type":"uint8","internalType":"uint8"}],"outputs":[],"stateMutability":"nonpayable"},{"type":"function","name":"setMaxTicketsPerPlayer","inputs":[{"name":"maxTickets","type":"uint256","internalType":"uint256"}],"outputs":[],"stateMutability":"nonpayable"},{"type":"function","name":"setReferralInstance","inputs":[{"name":"newReferralInstance","type":"address","internalType":"address"}],"outputs":[],"stateMutability":"nonpayable"},{"type":"function","name":"setTicketPrice","inputs":[{"name":"newTicketPrice","type":"uint256","internalType":"uint256"}],"outputs":[],"stateMutability":"nonpayable"},{"type":"function","name":"setTreasuryManager","inputs":[{"name":"newTreasuryManager","type":"address","internalType":"address"}],"outputs":[],"stateMutability":"nonpayable"},{"type":"function","name":"stats","inputs":[],"outputs":[{"name":"","type":"address","internalType":"contract ICryptolottoStatsAggregator"}],"stateMutability":"view"},{"type":"function","name":"ticketPrice","inputs":[],"outputs":[{"name":"","type":"uint256","internalType":"uint256"}],"stateMutability":"view"},{"type":"function","name":"toggleGame","inputs":[],"outputs":[],"stateMutability":"nonpayable"},{"type":"function","name":"toogleActive","inputs":[],"outputs":[],"stateMutability":"nonpayable"},{"type":"function","name":"toogleStatus","inputs":[],"outputs":[{"name":"","type":"bool","internalType":"bool"}],"stateMutability":"view"},{"type":"function","name":"transferOwnership","inputs":[{"name":"newOwner","type":"address","internalType":"address"}],"outputs":[],"stateMutability":"nonpayable"},{"type":"function","name":"treasuryManager","inputs":[],"outputs":[{"name":"","type":"address","internalType":"contract ITreasuryManager"}],"stateMutability":"view"},{"type":"function","name":"treasuryName","inputs":[],"outputs":[{"name":"","type":"string","internalType":"string"}],"stateMutability":"view"},{"type":"function","name":"upgradeToAndCall","inputs":[{"name":"newImplementation","type":"address","internalType":"address"},{"name":"data","type":"bytes","internalType":"bytes"}],"outputs":[],"stateMutability":"payable"},{"type":"event","name":"GameEnded","inputs":[{"name":"gameNumber","type":"uint256","indexed":true,"internalType":"uint256"},{"name":"timestamp","type":"uint256","indexed":false,"internalType":"uint256"}],"anonymous":false},{"type":"event","name":"GameStarted","inputs":[{"name":"gameNumber","type":"uint256","indexed":true,"internalType":"uint256"},{"name":"timestamp","type":"uint256","indexed":false,"internalType":"uint256"}],"anonymous":false},{"type":"event","name":"GameStateChanged","inputs":[{"name":"gameNumber","type":"uint256","indexed":true,"internalType":"uint256"},{"name":"state","type":"uint8","indexed":false,"internalType":"enum BaseGame.GameState"},{"name":"timestamp","type":"uint256","indexed":false,"internalType":"uint256"}],"anonymous":false},{"type":"event","name":"GameStatusChanged","inputs":[{"name":"_isActive","type":"bool","indexed":false,"internalType":"bool"},{"name":"_time","type":"uint256","indexed":false,"internalType":"uint256"}],"anonymous":false},{"type":"event","name":"Initialized","inputs":[{"name":"version","type":"uint64","indexed":false,"internalType":"uint64"}],"anonymous":false},{"type":"event","name":"MaxTicketsPerPlayerUpdated","inputs":[{"name":"maxTickets","type":"uint256","indexed":false,"internalType":"uint256"},{"name":"timestamp","type":"uint256","indexed":false,"internalType":"uint256"}],"anonymous":false},{"type":"event","name":"OwnershipTransferred","inputs":[{"name":"previousOwner","type":"address","indexed":true,"internalType":"address"},{"name":"newOwner","type":"address","indexed":true,"internalType":"address"}],"anonymous":false},{"type":"event","name":"PartnerPaid","inputs":[{"name":"_partner","type":"address","indexed":true,"internalType":"address"},{"name":"_referral","type":"address","indexed":false,"internalType":"address"},{"name":"_amount","type":"uint256","indexed":false,"internalType":"uint256"},{"name":"_time","type":"uint256","indexed":false,"internalType":"uint256"}],"anonymous":false},{"type":"event","name":"SalesPartnerPaid","inputs":[{"name":"_salesPartner","type":"address","indexed":true,"internalType":"address"},{"name":"_partner","type":"address","indexed":false,"internalType":"address"},{"name":"_amount","type":"uint256","indexed":false,"internalType":"uint256"},{"name":"_time","type":"uint256","indexed":false,"internalType":"uint256"}],"anonymous":false},{"type":"event","name":"TicketPriceChanged","inputs":[{"name":"oldPrice","type":"uint256","indexed":false,"internalType":"uint256"},{"name":"newPrice","type":"uint256","indexed":false,"internalType":"uint256"},{"name":"timestamp","type":"uint256","indexed":false,"internalType":"uint256"}],"anonymous":false},{"type":"event","name":"TicketPurchased","inputs":[{"name":"player","type":"address","indexed":true,"internalType":"address"},{"name":"gameNumber","type":"uint256","indexed":true,"internalType":"uint256"},{"name":"ticketCount","type":"uint256","indexed":false,"internalType":"uint256"},{"name":"totalAmount","type":"uint256","indexed":false,"internalType":"uint256"}],"anonymous":false},{"type":"event","name":"TreasuryFundsDeposited","inputs":[{"name":"amount","type":"uint256","indexed":false,"internalType":"uint256"},{"name":"timestamp","type":"uint256","indexed":false,"internalType":"uint256"}],"anonymous":false},{"type":"event","name":"TreasuryFundsWithdrawn","inputs":[{"name":"recipient","type":"address","indexed":true,"internalType":"address"},{"name":"amount","type":"uint256","indexed":false,"internalType":"uint256"},{"name":"timestamp","type":"uint256","indexed":false,"internalType":"uint256"}],"anonymous":false},{"type":"event","name":"TreasuryManagerUpdated","inputs":[{"name":"oldManager","type":"address","indexed":true,"internalType":"address"},{"name":"newManager","type":"address","indexed":true,"internalType":"address"},{"name":"_time","type":"uint256","indexed":false,"internalType":"uint256"}],"anonymous":false},{"type":"event","name":"TreasuryOperationFailed","inputs":[{"name":"operation","type":"string","indexed":false,"internalType":"string"},{"name":"timestamp","type":"uint256","indexed":false,"internalType":"uint256"}],"anonymous":false},{"type":"event","name":"Upgraded","inputs":[{"name":"implementation","type":"address","indexed":true,"internalType":"address"}],"anonymous":false},{"type":"event","name":"WinnerSelected","inputs":[{"name":"winner","type":"address","indexed":true,"internalType":"address"},{"name":"gameNumber","type":"uint256","indexed":true,"internalType":"uint256"},{"name":"jackpot","type":"uint256","indexed":false,"internalType":"uint256"},{"name":"timestamp","type":"uint256","indexed":false,"internalType":"uint256"}],"anonymous":false},{"type":"error","name":"AddressEmptyCode","inputs":[{"name":"target","type":"address","internalType":"address"}]},{"type":"error","name":"ERC1967InvalidImplementation","inputs":[{"name":"implementation","type":"address","internalType":"address"}]},{"type":"error","name":"ERC1967NonPayable","inputs":[]},{"type":"error","name":"FailedCall","inputs":[]},{"type":"error","name":"InvalidInitialization","inputs":[]},{"type":"error","name":"NotInitializing","inputs":[]},{"type":"error","name":"OwnableInvalidOwner","inputs":[{"name":"owner","type":"address","internalType":"address"}]},{"type":"error","name":"OwnableUnauthorizedAccount","inputs":[{"name":"account","type":"address","internalType":"address"}]},{"type":"error","name":"ReentrancyGuardReentrantCall","inputs":[]},{"type":"error","name":"UUPSUnauthorizedCallContext","inputs":[]},{"type":"error","name":"UUPSUnsupportedProxiableUUID","inputs":[{"name":"slot","type":"bytes32","internalType":"bytes32"}]}],"bytecode":{"object":"0x60a08060405234620000d157306080527ff0c57e16840df040f15088dc2f81fe391c3923bec73e23a9662efc9c229c6a009081549060ff8260401c16620000c257506001600160401b036002600160401b0319828216016200007c575b6040516139b29081620000d68239608051818181611df30152611f770152f35b6001600160401b031990911681179091556040519081527fc7f505b2f371ae2175ee4913f4499e1f2633a7b5936321eed1cdaeb6115181d290602090a15f80806200005c565b63f92ee8a960e01b8152600490fd5b5f80fdfe6080806040526004361015610028575b5036156100205761001e612a0b565b005b61001e612a0b565b5f905f3560e01c908163077e829d14612613575080630d8c1a62146125535780631209b1f614612536578063159816501461247757806316521a2b146124595780631746bd1b146124015780631a89a43b1461238e57806322f3e2d41461236c5780632ef5c7841461234f57806337a783611461226b5780633cea70d9146122435780634630a0ee1461214057806347ddf87e146121235780634f1ef28614611efc57806350e1a19b14611ecd57806351858e2714611e7a57806351df9db914611e5d57806352d1902d14611de157806353b7acdf14611d0357806360b663bb14611ccc5780636244480114611caa578063650b147d14611c8d57806366a5ef2f146117865780636f9fb98a1461176a578063715018a61461170157806374796cc2146116e257806374cb55fb146116b95780637d96ea961461169b5780637fd60e421461167057806385b75b1e1461164a5780638897c1f41461155c5780638b235f19146115255780638da5cb5b146114f057806393c87f0314611497578063a46d11dc14611477578063a5f8cdbb14610e3d578063a645e84014610e05578063a7ea9a6014610de0578063ad3cb1cc14610d9a578063b38854be14610d71578063bf77e7c814610d50578063c293947114610d0a578063c3a151de14610cec578063c6ab848a14610cc3578063c758f2f214610c4a578063cb122a0914610bc3578063cc2a9a5b1461068b578063cee3b9b914610652578063cf4e593a14610634578063d0b2dab514610616578063d1c45f3814610580578063d80528ae14610557578063db2e21bc1461048f578063ddca3f431461046c578063e1f0c3761461044e578063ea135ad71461039b578063f2fde38b1461036e578063f83fd805146103465763fe47a9f20361000f5734610343576020366003190112610343576102d261262d565b6102da612e43565b6001600160a01b031680156102ff576001600160601b0360a01b601654161760165580f35b606460405162461bcd60e51b815260206004820152602060248201527f496e76616c6964207472656173757279206d616e6167657220616464726573736044820152fd5b80fd5b5034610343578060031936011261034357602060ff600e541661036c60405180926127c8565bf35b50346103435760203660031901126103435761039861038b61262d565b610393612e43565b61299a565b80f35b50346103435780600319360112610343576040518091600f549081835260208093018092600f83525f8051602061395d83398151915290835b81811061043157505050846103ea9103856126db565b60405193838594850191818652518092526040850193925b82811061041157505050500390f35b83516001600160a01b031685528695509381019392810192600101610402565b82546001600160a01b0316845292860192600192830192016103d4565b50346103435780600319360112610343576020600154604051908152f35b503461034357806003193601126103435760ff6020915460081c16604051908152f35b50346103435780600319360112610343576104a8612e43565b47801561051b575f8051602061391d8339815191525482918291829182916001600160a01b03165af16104d961296b565b50156104e25780f35b60405162461bcd60e51b815260206004820152601160248201527015da5d1a191c985dd85b0819985a5b1959607a1b6044820152606490fd5b60405162461bcd60e51b81526020600482015260146024820152734e6f2066756e647320746f20776974686472617760601b6044820152606490fd5b50346103435780600319360112610343576013546040516001600160a01b039091168152602090f35b50346103435760203660031901126103435761059a61262d565b6105a2612e43565b6001600160a01b031680156105c7576001600160601b0360a01b601454161760145580f35b60405162461bcd60e51b815260206004820152602160248201527f496e76616c696420726566657272616c20696e7374616e6365206164647265736044820152607360f81b6064820152608490fd5b50346103435780600319360112610343576020601054604051908152f35b50346103435780600319360112610343576020600c54604051908152f35b5034610343576020366003190112610343576020906040906001600160a01b0361067a61262d565b168152601183522054604051908152f35b50346103435760c0366003190112610343576106a561262d565b906001600160a01b0360248035828116939290849003610bbf5760443591818316809303610bbf5760643593828516809503610bbf5760843593838516809503610bbf5760a435848116809103610bbf577ff0c57e16840df040f15088dc2f81fe391c3923bec73e23a9662efc9c229c6a009788549660ff8860401c16159867ffffffffffffffff988981169c8d1580610bb8575b60019e8f149081610bae575b159081610ba5575b50610b935767ffffffffffffffff1982168e178d55610786918c610b74575b50610776613479565b61077e613479565b610393613479565b61078e613479565b610796613479565b61079e613479565b8b5f8051602061393d83398151915255610a0561ffff1987541617865562093a808c55670de0b6b3a7640000600255600a60045560ff19948c8660085416176008556001600160601b0360a01b93846012541617601255836015541617601555826013541617601355816014541617601455610818612719565b805190888211610b6157819061082f601754612790565b601f8111610b08575b50602090601f8311600114610a80578792610a75575b50505f19600383901b1c1916908b1b176017555b8115610a3157601654161760165561087b885442612900565b9160405192610889846126bf565b81845260c060405161089a8161266b565b8b81524260208201528260408201528360608201528360808201528b60a0820152019384528960095542600a55600b5580600c558080600d55610a1e57508790600e541617600e5551908151938411610a0b57600160401b8411610a0b5750602090600f5484600f558085106109e8575b500190600f5f52855f5b8481106109c657508585600b54601055600954807fa2dfaa3573b86004ec9d4d4abe5068d942579c59da4da8cd0d9e45e71a393bc16020604051428152a27f46e59b25850fb5875ea16cb7de4c6866327eef1a3f4ff23c27b3c5ad811979dd60408051868152426020820152a261098857005b805468ff0000000000000000191690556040519081527fc7f505b2f371ae2175ee4913f4499e1f2633a7b5936321eed1cdaeb6115181d290602090a1005b602083855116940193815f8051602061395d8339815191520155018690610915565b610a0590855f8051602061395d8339815191529182019101612931565b5f61090b565b634e487b7160e01b5f9081526041600452fd5b634e487b7160e01b815260216004528390fd5b60405162461bcd60e51b815260206004820152601c818701527f5472656173757279206d616e61676572206973207265717569726564000000006044820152606490fd5b015190505f8061084e565b601788528d93507fc624b66cc0138b8fabc209247f72d758e1cf3343756d543badbf24212bed8c159190601f198416895b818110610ae657508411610ace575b505050811b01601755610862565b01515f1960f88460031b161c191690555f8080610ac0565b93839596602092939491839286015181550195019301908f9594939291610ab1565b610b5190601789527fc624b66cc0138b8fabc209247f72d758e1cf3343756d543badbf24212bed8c15601f850160051c81019160208610610b57575b601f0160051c0190612931565b5f610838565b9091508190610b44565b634e487b7160e01b865260416004528686fd5b68ffffffffffffffffff191668010000000000000001178d555f61076d565b60405163f92ee8a960e01b8152600490fd5b9050155f61074e565b303b159150610746565b508b61073a565b5f80fd5b50346103435760203660031901126103435760043560ff8116808203610c4657601490610bee612e43565b11610c095761ff0082549160081b169061ff00191617815580f35b60405162461bcd60e51b81526020600482015260156024820152744665652063616e6e6f74206578636565642032302560581b6044820152606490fd5b8280fd5b503461034357602036600319011261034357600435610c67612e43565b8015610c735760045580f35b60405162461bcd60e51b815260206004820152602260248201527f4d6178207469636b657473206d7573742062652067726561746572207468616e604482015261020360f41b6064820152608490fd5b50346103435780600319360112610343576014546040516001600160a01b039091168152602090f35b50346103435780600319360112610343576020600f54604051908152f35b50346103435780600319360112610343576016546001600160a01b0316610d2f612719565b90610d4c6040519283928352604060208401526040830190612752565b0390f35b50346103435780600319360112610343576020600b54421015604051908152f35b50346103435780600319360112610343576012546040516001600160a01b039091168152602090f35b5034610343578060031936011261034357610d4c604051610dba816126a3565b60058152640352e302e360dc1b6020820152604051918291602083526020830190612752565b50346103435780600319360112610343576020610dfb61290d565b6040519015158152f35b5034610343578060031936011261034357600954600a5490610d4c600b54600c54600d549060ff600e541692604051968796876127d5565b50602036600319011261034357610e5261262d565b60025f8051602061393d83398151915254146114655760025f8051602061393d8339815191525560ff600854161561142b5733156113ed576001600160a01b038116331461139c57600990600b5442101580611391575b611382575b60ff6005830154166003908181101561135c57600103611370575b60ff6005840154168181101561135c5760010361132557610eeb600254612947565b34036112e757600683015484805b8281106112a85750610f0a906128f2565b600454106112585760165485906001600160a01b0316610f28612719565b90803b15610c46576040516308638fd160e01b81529183918391829084908290610f59903490339060048501612e7b565b03925af1801561115657611240575b5050818401610f78348254612900565b90557fbec1a08e6dcd95f4cbb560bf9010af9efaf4b5b424d78d43652646cdc7726ec860408051348152426020820152a160048401610fb781546128f2565b9055600190855b81811061120b575b50506111b1575b50825b6001811061106957505080546006909101545f1981019190821190835b6001811061100a578460015f8051602061393d8339815191525580f35b8261105557808261101d60019387612900565b6040519081524260208201527f96541f70da731142b18e96f1def4d2a7733deb7d784723106d52c1d906d4c67a60403392a301610fed565b634e487b7160e01b85526011600452602485fd5b60145460405163afb2615960e01b815233600482015285916001600160a01b031690602081602481855afa9081156111a6578391611177575b506001600160a01b03851615801590611165575b6110c6575b505050600101610fd0565b6001600160a01b0316156110fc575b505060019081600f54116110ee575b9050835f806110bb565b6110f7336134ba565b6110e4565b803b1561116157604051630b5c3f8760e01b81526001600160a01b03851660048201523360248201529082908290604490829084905af1801561115657156110d55761114790612643565b61115257835f6110d5565b8380fd5b6040513d84823e3d90fd5b5080fd5b506001600160a01b03811615156110b6565b611199915060203d60201161119f575b61119181836126db565b8101906131ae565b5f6110a2565b503d611187565b6040513d85823e3d90fd5b6006830154600160401b8110156111f7578060016111d89201600686015560068501612886565b81929154911b9033821b9160018060a01b03901b19161790555f610fcd565b634e487b7160e01b85526041600452602485fd5b6112188160068801612886565b905490851b1c6001600160a01b0316331461123557600101610fbe565b505050835f80610fc6565b61124990612643565b61125457845f610f68565b8480fd5b60405162461bcd60e51b815260206004820152602260248201527f45786365656473206d6178696d756d207469636b6574732070657220706c617960448201526132b960f11b6064820152608490fd5b6112b58160068801612886565b905490851b1c6001600160a01b031633146112d3575b600101610ef9565b906112df60019161289b565b9190506112cb565b60405162461bcd60e51b8152602060048201526016602482015275496e636f7272656374207469636b657420707269636560501b6044820152606490fd5b60405162461bcd60e51b815260206004820152600f60248201526e47616d65206e6f742061637469766560881b6044820152606490fd5b634e487b7160e01b85526021600452602485fd5b915061137a612f4a565b600991610ec9565b9061138b612ea7565b90610eae565b50600f541515610ea9565b60405162461bcd60e51b8152602060048201526024808201527f506172746e65722063616e6e6f74206265207468652073616d65206173207365604482015263373232b960e11b6064820152608490fd5b60405162461bcd60e51b8152602060048201526016602482015275496e76616c69642073656e646572206164647265737360501b6044820152606490fd5b60405162461bcd60e51b815260206004820152601260248201527147616d65206973206e6f742061637469766560701b6044820152606490fd5b604051633ee5aeb560e01b8152600490fd5b503461034357806003193601126103435760ff6020915416604051908152f35b50346103435780600319360112610343576114b0612e43565b600160ff1960085416176008557fab902d5e35692da6951814ae9cd62a7d029bf24a75023ad2a3cc2e83f6437b116040805160018152426020820152a180f35b50346103435780600319360112610343575f8051602061391d833981519152546040516001600160a01b039091168152602090f35b5034610343578060031936011261034357600b5442101580611551575b6115495780f35b610398612ea7565b50600f541515611542565b50346103435760c03660031901126103435761157960043561289b565b61158460243561289b565b90600a604051602081019060443582526064356040820152608435606082015260a4356080820152608081526115b981612687565b519020066001810180911161162657816115fa6115ff9260405160208101918252602081526115e7816126a3565b5190206115f48684612900565b906128d4565b6128a9565b91808311611642575b5080821061163a575b50801561162657602090604051905f19018152f35b634e487b7160e01b5f52601160045260245ffd5b905081611611565b915082611608565b5034610343578060031936011261034357602060ff60085460081c166040519015158152f35b5034610343578060031936011261034357611689612e43565b61010061ff0019600854161760085580f35b50346103435780600319360112610343576020600454604051908152f35b50346103435780600319360112610343576015546040516001600160a01b039091168152602090f35b5034610343576020366003190112610343576020600f54604051908152f35b503461034357806003193601126103435761171a612e43565b5f8051602061391d83398151915280546001600160a01b031981169091555f906001600160a01b03167f8be0079c531659141344cd1fd0a4f28419497f9722a3daafe3b4186f6b6457e08280a380f35b5034610343578060031936011261034357602047604051908152f35b506040366003190112610bbf5761179b61262d565b60025f8051602061393d83398151915254146114655760025f8051602061393d8339815191525560ff600854161561142b5760243515611c3c576103e860243511611bec5733156113ed576001600160a01b038116331461139c57600990600b5442101580611be1575b611bd2575b60ff60058301541660039081811015611bac57600103611bc0575b60ff60058401541681811015611bac576001036113255761184a602435600254612958565b34036112e75760068301545f805b828110611b6d575061186d9060243590612900565b60045410611258576016546001600160a01b0316611889612719565b90803b15610bbf576040516308638fd160e01b8152915f9183918290849082906118ba903490339060048501612e7b565b03925af18015611b6257611b4f575b508184016118d8348254612900565b90557fbec1a08e6dcd95f4cbb560bf9010af9efaf4b5b424d78d43652646cdc7726ec860408051348152426020820152a16004840161191a6024358254612900565b9055600190855b818110611b1a575b5050611ad4575b50825b60243581106119ba57505080546006909101545f1981019190821190835b602435811061196f578460015f8051602061393d8339815191525580f35b8261105557808261198260019387612900565b6040519081524260208201527f96541f70da731142b18e96f1def4d2a7733deb7d784723106d52c1d906d4c67a60403392a301611951565b60145460405163afb2615960e01b815233600482015285916001600160a01b031690602081602481855afa9081156111a6578391611ab5575b506001600160a01b03851615801590611aa3575b611a17575b505050600101611933565b6001600160a01b031615611a4d575b505060019081600f5411611a3f575b9050835f80611a0c565b611a48336134ba565b611a35565b803b1561116157604051630b5c3f8760e01b81526001600160a01b03851660048201523360248201529082908290604490829084905af180156111565715611a2657611a9890612643565b61115257835f611a26565b506001600160a01b0381161515611a07565b611ace915060203d60201161119f5761119181836126db565b5f6119f3565b6006830154600160401b8110156111f757806001611afb9201600686015560068501612886565b81929154911b9033821b9160018060a01b03901b19161790555f611930565b611b278160068801612886565b905490851b1c6001600160a01b03163314611b4457600101611921565b505050835f80611929565b611b5a919550612643565b5f935f6118c9565b6040513d5f823e3d90fd5b611b7a8160068801612886565b905490851b1c6001600160a01b03163314611b98575b600101611858565b90611ba460019161289b565b919050611b90565b634e487b7160e01b5f52602160045260245ffd5b9150611bca612f4a565b600991611825565b90611bdb612ea7565b9061180a565b50600f541515611805565b60405162461bcd60e51b815260206004820152602260248201527f5469636b657420636f756e742065786365656473206d6178696d756d206c696d6044820152611a5d60f21b6064820152608490fd5b60405162461bcd60e51b815260206004820152602360248201527f5469636b657420636f756e74206d75737420626520677265617465722074686160448201526206e20360ec1b6064820152608490fd5b34610bbf575f366003190112610bbf576020600754604051908152f35b34610bbf575f366003190112610bbf576020611cc46128b6565b604051908152f35b34610bbf575f366003190112610bbf57600954600a5490610d4c600b54600c54600d549060ff600e541692604051968796876127d5565b34610bbf575f366003190112610bbf576040516017545f82611d2483612790565b91828252602093600190856001821691825f14611dc1575050600114611d66575b50611d52925003836126db565b610d4c604051928284938452830190612752565b84915060175f527fc624b66cc0138b8fabc209247f72d758e1cf3343756d543badbf24212bed8c15905f915b858310611da9575050611d52935082010185611d45565b80548389018501528794508693909201918101611d92565b60ff191685820152611d5295151560051b8501019250879150611d459050565b34610bbf575f366003190112610bbf577f00000000000000000000000000000000000000000000000000000000000000006001600160a01b03163003611e4b5760206040517f360894a13ba1a3210667c828492db98dca3e2076cc3735a920a3ca505d382bbc8152f35b60405163703e46dd60e11b8152600490fd5b34610bbf575f366003190112610bbf576020600354604051908152f35b34610bbf575f366003190112610bbf57611e92612e43565b60ff19600854166008557fab902d5e35692da6951814ae9cd62a7d029bf24a75023ad2a3cc2e83f6437b11604080515f8152426020820152a1005b34610bbf575f366003190112610bbf57610d4c611ee8612719565b604051918291602083526020830190612752565b6040366003190112610bbf57611f1061262d565b602490813567ffffffffffffffff8111610bbf5736602382011215610bbf57806004013591611f3e836126fd565b611f4b60405191826126db565b8381526020938482019336878383010111610bbf57815f92888893018737830101526001600160a01b037f000000000000000000000000000000000000000000000000000000000000000081163081149081156120f5575b50611e4b57611fb0612e43565b6040516352d1902d60e01b8152908316948082600481895afa9182915f936120c5575b5050611ff157604051634c9c8ce360e01b8152600481018690528690fd5b8490867f360894a13ba1a3210667c828492db98dca3e2076cc3735a920a3ca505d382bbc918281036120b05750843b1561209a575080546001600160a01b03191682179055604051907fbc7cd75a20ee27fd9adebab32041f755214dbc6bffa90cc0225b39da2e5c2d3b5f80a281511561208057505f61001e9381925190845af461207a61296b565b916137c1565b925050503461208b57005b63b398979f60e01b8152600490fd5b604051634c9c8ce360e01b815260048101849052fd5b60405190632a87526960e21b82526004820152fd5b9080929350813d83116120ee575b6120dd81836126db565b81010312610bbf5751908780611fd3565b503d6120d3565b9050817f360894a13ba1a3210667c828492db98dca3e2076cc3735a920a3ca505d382bbc5416141587611fa3565b34610bbf575f366003190112610bbf576020600554604051908152f35b34610bbf576020366003190112610bbf576024600435602060018060a01b03601254166040519384809263babcc53960e01b82523360048301525afa918215611b62575f926121e4575b506121b57fdcefbf936a5a84ea694d7c34335e03240bee5f52df414c3b11bc2d6cfd9f324592612813565b60025490806003556121df6040519283924291846040919493926060820195825260208201520152565b0390a1005b91506020823d60201161223b575b816121ff602093836126db565b81010312610bbf576121b56122347fdcefbf936a5a84ea694d7c34335e03240bee5f52df414c3b11bc2d6cfd9f324593612806565b925061218a565b3d91506121f2565b34610bbf575f366003190112610bbf576016546040516001600160a01b039091168152602090f35b34610bbf575f366003190112610bbf576016546122ba9060a0906001600160a01b0316612296612719565b90604051808095819463162ae29f60e11b8352602060048401526024830190612752565b03915afa8015611b62575f905f805f915f936122f3575b60a0955060405194855260208501526040840152606083015215156080820152f35b505050505060a0813d60a011612347575b8161231160a093836126db565b81010312610bbf578060a091519060208101519160408201519161233c608060608301519201612806565b9193929091926122d1565b3d9150612304565b34610bbf575f366003190112610bbf576020600654604051908152f35b34610bbf575f366003190112610bbf57602060ff600854166040519015158152f35b34610bbf576020366003190112610bbf576123a761262d565b600f545f916001600160a01b0390811690835b8381106123cc57602085604051908152f35b82826123d783612850565b90549060031b1c16146123ed575b6001016123ba565b936123f960019161289b565b9490506123e5565b34610bbf575f366003190112610bbf5760e0600954600a546001546124246128b6565b600b5442101590600f5492600c5494604051968752602087015260408601526060850152608084015260a083015260c0820152f35b34610bbf576020366003190112610bbf576020600c54604051908152f35b34610bbf576020366003190112610bbf57600435612493612e43565b80156124e5577fdcefbf936a5a84ea694d7c34335e03240bee5f52df414c3b11bc2d6cfd9f32459060025490806003556121df6040519283924291846040919493926060820195825260208201520152565b60405162461bcd60e51b815260206004820152602360248201527f5469636b6574207072696365206d75737420626520677265617465722074686160448201526206e20360ec1b6064820152608490fd5b34610bbf575f366003190112610bbf576020600254604051908152f35b34610bbf575f366003190112610bbf5760125460405163babcc53960e01b815233600482015290602090829060249082906001600160a01b03165afa8015611b62575f906125d8575b6125a69150612813565b6008805460ff81166125c05750805460ff19166001179055005b61ff0019811690821c60ff1615821b61ff0016179055005b506020813d60201161260b575b816125f2602093836126db565b81010312610bbf576126066125a691612806565b61259c565b3d91506125e5565b34610bbf575f366003190112610bbf57602090600d548152f35b600435906001600160a01b0382168203610bbf57565b67ffffffffffffffff811161265757604052565b634e487b7160e01b5f52604160045260245ffd5b60e0810190811067ffffffffffffffff82111761265757604052565b60a0810190811067ffffffffffffffff82111761265757604052565b6040810190811067ffffffffffffffff82111761265757604052565b6020810190811067ffffffffffffffff82111761265757604052565b90601f8019910116810190811067ffffffffffffffff82111761265757604052565b67ffffffffffffffff811161265757601f01601f191660200190565b60405190612726826126a3565b601982527f756e697175655f746573745f6c6f74746572795f3764617973000000000000006020830152565b91908251928382525f5b84811061277c575050825f602080949584010152601f8019910116010190565b60208183018101518483018201520161275c565b90600182811c921680156127be575b60208310146127aa57565b634e487b7160e01b5f52602260045260245ffd5b91607f169161279f565b906003821015611bac5752565b919360a093612804969298979560c08501998552602085015260408401526060830152608082015201906127c8565b565b51908115158203610bbf57565b1561281a57565b60405162461bcd60e51b815260206004820152600e60248201526d139bdd08185d5d1a1bdc9a5e995960921b6044820152606490fd5b600f5481101561287257600f5f525f8051602061395d83398151915201905f90565b634e487b7160e01b5f52603260045260245ffd5b8054821015612872575f5260205f2001905f90565b5f1981146116265760010190565b9190820391821161162657565b600b54804210156128cf576128cc9042906128a9565b90565b505f90565b81156128de570690565b634e487b7160e01b5f52601260045260245ffd5b906001820180921161162657565b9190820180921161162657565b6010544210158061291b5790565b5060ff600e54166003811015611bac5760021490565b81811061293c575050565b5f8155600101612931565b908115600183800414171561162657565b8181029291811591840414171561162657565b3d15612995573d9061297c826126fd565b9161298a60405193846126db565b82523d5f602084013e565b606090565b6001600160a01b039081169081156129f3575f8051602061391d83398151915280546001600160a01b031981168417909155167f8be0079c531659141344cd1fd0a4f28419497f9722a3daafe3b4186f6b6457e05f80a3565b604051631e4fbdf760e01b81525f6004820152602490fd5b5f5f8051602061393d8339815191526002815414611465576002815560ff600854161561142b5733156113ed576009600b5442101580612e38575b612e2b575b60ff60058201541692600380851015611bac576001809503612e19575b60ff60058401541681811015611bac57850361132557612a89600254612947565b34036112e7575f906006840193845492875f5b858110612de1575050612aae906128f2565b90600491825410612d92576016546001600160a01b0390811693612ad0612719565b94803b15610bbf575f612aff819260409889519485809481936308638fd160e01b83528c349133918501612e7b565b03925af18015612d8857612d75575b50808301612b1d348254612900565b90558451953487527fbec1a08e6dcd95f4cbb560bf9010af9efaf4b5b424d78d43652646cdc7726ec886602098426020820152a1848401612b5e81546128f2565b90558a908b895b858c848310612d47575b5050505050612cff575b50855b898110612c005750505493809554915f198301928311965b898110612ba657505050505050505055565b87612bed578087612bb88c9387612900565b875190815242898201527f96541f70da731142b18e96f1def4d2a7733deb7d784723106d52c1d906d4c67a883392a301612b94565b634e487b7160e01b835260118252602483fd5b8160145416855163afb2615960e01b8152338682015260249088818381865afa908115612cf5578d9493929186918c91612cd8575b5016158015612c48575b50505001612b7c565b612c6f575b505081600f5411612c61575b5f8080612c3f565b612c6a336134ba565b612c59565b90809293503b15612cd45788916044839289519485938492630b5c3f8760e01b8452828c85015233908401525af18015612cca578b9291899115612c4d57612cb991929350612643565b612cc6578990875f612c4d565b8680fd5b86513d8a823e3d90fd5b8880fd5b612cef91508b3d8d1161119f5761119181836126db565b5f612c35565b88513d8c823e3d90fd5b8754600160401b811015612d3457808b612d1c92018a5589612886565b81929154911b908333831b921b19161790555f612b79565b634e487b7160e01b885260418552602488fd5b82612d5191612886565b905490871b1c163314612d6657018c90612b65565b50505050865f8b81858c612b6f565b612d80919750612643565b5f955f612b0e565b86513d5f823e3d90fd5b60405162461bcd60e51b8152602081840152602260248201527f45786365656473206d6178696d756d207469636b6574732070657220706c617960448201526132b960f11b6064820152608490fd5b612deb8189612886565b905490861b1c6001600160a01b03163314612e09575b018890612a9c565b91612e139061289b565b91612e01565b9150612e23612f4a565b600991612a68565b612e33612ea7565b612a4b565b50600f541515612a46565b5f8051602061391d833981519152546001600160a01b03163303612e6357565b60405163118cdaa760e01b8152336004820152602490fd5b612e9360409295949395606083526060830190612752565b6001600160a01b0390951660208201520152565b600b544210612f0d57600260ff19600e541617600e556009547f46e59b25850fb5875ea16cb7de4c6866327eef1a3f4ff23c27b3c5ad811979dd6040805160028152426020820152a2600d54612f00575b612804612f4a565b612f086131cd565b612ef8565b60405162461bcd60e51b815260206004820152601560248201527411d85b59481d1a5b59481b9bdd08195e1c1a5c9959605a1b6044820152606490fd5b612f5261290d565b8015613198575b8015613180575b8015613176575b1561313157600d54613124575b60035480613117575b5060085460ff8160081c16613100575b5060095460019081810180911161162657612fa9825442612900565b604091825191612fb8836126bf565b5f83526020918360c08651612fcc8161266b565b83815242602082015284888201525f60608201525f60808201528860a0820152015260095542600a55600b555f600c555f600d558360ff19600e541617600e5581519167ffffffffffffffff831161265757600160401b831161265757602090600f5484600f558085106130dd575b500190600f5f52845f5b8481106130b55750505050507f46e59b25850fb5875ea16cb7de4c6866327eef1a3f4ff23c27b3c5ad811979dd90600b5460105560095492837fa2dfaa3573b86004ec9d4d4abe5068d942579c59da4da8cd0d9e45e71a393bc160208451428152a28151908152426020820152a2565b83516001600160a01b03165f8051602061395d83398151915282015592820192869101613045565b6130fa90855f8051602061395d8339815191529182019101612931565b5f61303b565b60ff80821615169061ffff1916176008555f612f8d565b6002555f6003555f612f7d565b61312c6131cd565b612f74565b60405162461bcd60e51b815260206004820152601960248201527f43616e6e6f74207374617274206e65772067616d6520796574000000000000006044820152606490fd5b5060095415612f67565b5060ff600e54166003811015611bac57600214612f60565b5060ff600e54166003811015611bac5715612f59565b90816020910312610bbf57516001600160a01b0381168103610bbf5790565b600f54600c549060018082036132f0575081600f541561287257600f5f525f8051602061395d8339815191525461320d91906001600160a01b0316613726565b5f915b61321983612850565b919060018060a01b03928391549060031b1c16915f600755601354166009549060ff5f541690803b15610bbf575f928360c492604051998a9586946306525fa960e01b86528a600487015260248601528a6044860152886064860152608485015260a48401525af1918215611b62576132dc946132d1936132e1575b50600954907f6e8dc1353ef256756a04b2d5c32fe12fa8d3a9633f52056cda478393a1b8c76560408051858152426020820152a3600554612900565b600555600654612900565b600655565b6132ea90612643565b5f613295565b5f1982810191838311611626578143019243841161162657613313600a9161289b565b9360405160208101914283524460408301524360608301524060808201526080815261333e81612687565b51902006818101809111611626576040516020810191825260208152613363816126a3565b51902083820180831161162657613379916128d4565b9282840193841161162657808411613471575b50808310613469575b508115611626575f8080809361340e9501966133c560646133bd60ff855460081c1684612958565b0480926128a9565b9586916133eb6133d48b612850565b90546001600160a01b03959160031b1c8516613726565b613405836133f88c612850565b90549060031b1c166134ba565b600754906128a9565b9060155416617530f161341f61296b565b506132105760405162461bcd60e51b815260206004820152601960248201527f46756e647320646973747269627574696f6e206661696c6564000000000000006044820152606490fd5b91505f613395565b92505f61338c565b60ff7ff0c57e16840df040f15088dc2f81fe391c3923bec73e23a9662efc9c229c6a005460401c16156134a857565b604051631afcd79f60e31b8152600490fd5b6014546040805163afb2615960e01b81526001600160a01b03808516600483015291949360209391929184908490602490829086165afa928315612d88575f93613707575b508183169081613513575b50505050509050565b61351c84613824565b80613528575b5061350a565b5f80808084875af161353861296b565b50156136c35782918161356e7f20e787dfda3ac1418c7882f60c18b94d602d3dd46995ea36ede0ae9938ae097593600754612900565b60075589516001600160a01b039290921682526020820152426040820152606090a283826014541691602488518094819362e9096960e11b835260048301525afa908115612d88575f916136a6575b501691826135ce575b808080613522565b6135d7826138ce565b90816135e4575b506135c6565b5f80808085885af16135f461296b565b501561366357506136567f74997e3673bd75508ed1fc7dbeb55d4888716d846e7f0b3fde9fd85824b0f6e293949561362e83600754612900565b600755516001600160a01b039093168352602083019190915242604083015281906060820190565b0390a2805f8080806135de565b60649086519062461bcd60e51b82526004820152601d60248201527f53616c657320706172746e6572207472616e73666572206661696c65640000006044820152fd5b6136bd9150843d861161119f5761119181836126db565b5f6135bd565b875162461bcd60e51b815260048101879052601760248201527f506172746e6572207472616e73666572206661696c65640000000000000000006044820152606490fd5b61371f919350843d861161119f5761119181836126db565b915f6134ff565b6016546001600160a01b03908116919061373e612719565b92803b15610bbf57845f91848361376c976040519889958694859363783b811560e11b855260048501612e7b565b03925af1918215611b62577f5cb16b96eae9e7321a2374725d21b09b310eac87d65cbdc13555123ecc31b49b936040936137b2575b5082519485524260208601521692a2565b6137bb90612643565b5f6137a1565b906137e857508051156137d657602081519101fd5b60405163d6bda27560e01b8152600490fd5b8151158061381b575b6137f9575090565b604051639996b31560e01b81526001600160a01b039091166004820152602490fd5b50803b156137f1565b60145460405163e09f455960e01b81526001600160a01b0392831660048201529160209183916024918391165afa908115611b62575f91613873575b5080156128cf5760ff6128cc91166138a5565b90506020813d60201161389d575b8161388e602093836126db565b81010312610bbf57515f613860565b3d9150613881565b6138ca60649160ff836138c1600254835f5460081c1690612958565b04911690612958565b0490565b6014546040516301a164f360e21b81526001600160a01b0392831660048201529160209183916024918391165afa908115611b62575f91613873575080156128cf5760ff6128cc91166138a556fe9016d09d72d40fdae2fd8ceac6b6234c7706214fd39c1cd1e609a0528c1993009b779b17422d0df92223018b32b4d1fa46e071723d6817e2486d003becc55f008d1108e10bcb7c27dddfc02ed9d693a074039d026cf4ea4240b40f7d581ac802a264697066735822122068a018b3e00b1ae6aa6b677b96abc43c450f8419e433089f9867b7cf42bc452464736f6c63430008160033","linkReferences":{}},"methodIdentifiers":{"TREASURY_NAME()":"50e1a19b","UPGRADE_INTERFACE_VERSION()":"ad3cb1cc","allTimeJackpot()":"47ddf87e","allTimePlayers()":"2ef5c784","buyTicket(address)":"a5f8cdbb","buyTicket(address,uint256)":"66a5ef2f","canStartNewGame()":"a7ea9a60","changeTicketPrice(uint256)":"4630a0ee","checkAndEndGame()":"8b235f19","currentGame()":"60b663bb","emergencyPause()":"51858e27","emergencyResume()":"93c87f03","emergencyWithdraw()":"db2e21bc","fee()":"ddca3f43","fundsDistributor()":"74cb55fb","gType()":"a46d11dc","gameDuration()":"e1f0c376","getContractBalance()":"6f9fb98a","getCurrentGameInfo()":"a645e840","getCurrentGamePlayers()":"ea135ad7","getCurrentGameState()":"f83fd805","getCurrentGameTicketCount()":"077e829d","getGameInfo()":"1746bd1b","getGameJackpot(uint256)":"16521a2b","getPlayedGameJackpot()":"cf4e593a","getPlayedGamePlayers()":"c3a151de","getPlayerTicketCount(address)":"1a89a43b","getPlayersInGame(uint256)":"74796cc2","getRemainingGameTime()":"62444801","getTreasuryBalanceInfo()":"37a78361","getTreasuryInfo()":"c2939471","initialize(address,address,address,address,address,address)":"cc2a9a5b","isActive()":"22f3e2d4","isGameTimeExpired()":"bf77e7c8","maxTicketsPerPlayer()":"7d96ea96","newPrice()":"51df9db9","nextGameStartTime()":"d0b2dab5","ownable()":"b38854be","owner()":"8da5cb5b","paidToPartners()":"650b147d","playerTicketCount(address)":"cee3b9b9","proxiableUUID()":"52d1902d","randomNumber(uint256,uint256,uint256,uint256,uint256,bytes32)":"8897c1f4","referralInstance()":"c6ab848a","renounceOwnership()":"715018a6","setFee(uint8)":"cb122a09","setMaxTicketsPerPlayer(uint256)":"c758f2f2","setReferralInstance(address)":"d1c45f38","setTicketPrice(uint256)":"15981650","setTreasuryManager(address)":"fe47a9f2","stats()":"d80528ae","ticketPrice()":"1209b1f6","toggleGame()":"7fd60e42","toogleActive()":"0d8c1a62","toogleStatus()":"85b75b1e","transferOwnership(address)":"f2fde38b","treasuryManager()":"3cea70d9","treasuryName()":"53b7acdf","upgradeToAndCall(address,bytes)":"4f1ef286"},"id":7}