{"abi":[{"type":"constructor","inputs":[],"stateMutability":"nonpayable"},{"type":"fallback","stateMutability":"payable"},{"type":"receive","stateMutability":"payable"},{"type":"function","name":"changeOwner","inputs":[{"name":"newOwner","type":"address","internalType":"address"}],"outputs":[],"stateMutability":"nonpayable"},{"type":"function","name":"getBalance","inputs":[],"outputs":[{"name":"","type":"uint256","internalType":"uint256"}],"stateMutability":"view"},{"type":"function","name":"owner","inputs":[],"outputs":[{"name":"","type":"address","internalType":"address"}],"stateMutability":"view"},{"type":"function","name":"pause","inputs":[],"outputs":[],"stateMutability":"nonpayable"},{"type":"function","name":"paused","inputs":[],"outputs":[{"name":"","type":"bool","internalType":"bool"}],"stateMutability":"view"},{"type":"function","name":"unpause","inputs":[],"outputs":[],"stateMutability":"nonpayable"},{"type":"function","name":"withdrawAmount","inputs":[{"name":"amount","type":"uint256","internalType":"uint256"}],"outputs":[],"stateMutability":"nonpayable"},{"type":"function","name":"withdrawFunds","inputs":[],"outputs":[],"stateMutability":"nonpayable"},{"type":"event","name":"CommissionReceived","inputs":[{"name":"amount","type":"uint256","indexed":false,"internalType":"uint256"},{"name":"time","type":"uint256","indexed":false,"internalType":"uint256"}],"anonymous":false},{"type":"event","name":"FundsWithdrawn","inputs":[{"name":"to","type":"address","indexed":false,"internalType":"address"},{"name":"amount","type":"uint256","indexed":false,"internalType":"uint256"},{"name":"timestamp","type":"uint256","indexed":false,"internalType":"uint256"}],"anonymous":false},{"type":"event","name":"OwnerChanged","inputs":[{"name":"oldOwner","type":"address","indexed":true,"internalType":"address"},{"name":"newOwner","type":"address","indexed":true,"internalType":"address"}],"anonymous":false},{"type":"event","name":"Paused","inputs":[{"name":"account","type":"address","indexed":true,"internalType":"address"}],"anonymous":false},{"type":"event","name":"Unpaused","inputs":[{"name":"account","type":"address","indexed":true,"internalType":"address"}],"anonymous":false}],"bytecode":{"object":"0x608060405234801561000f575f80fd5b505f80546001600160a01b0319163317905561081e8061002e5f395ff3fe60806040526004361061007e575f3560e01c80635c975abb1161004d5780635c975abb146101665780638456cb59146101955780638da5cb5b146101a9578063a6f9dae1146101df576100c5565b80630562b9f71461010057806312065fe01461011f57806324600fc31461013e5780633f4ba83a14610152576100c5565b366100c55734156100c357604080513481524260208201527fb109ee7310ed99dd4798608081f858dfb1ff5dcc4cc82072cfa90a7b49543f1591015b60405180910390a15b005b34156100c357604080513481524260208201527fb109ee7310ed99dd4798608081f858dfb1ff5dcc4cc82072cfa90a7b49543f1591016100ba565b34801561010b575f80fd5b506100c361011a366004610763565b6101fe565b34801561012a575f80fd5b506040514781526020015b60405180910390f35b348015610149575f80fd5b506100c361045c565b34801561015d575f80fd5b506100c3610574565b348015610171575f80fd5b505f5461018590600160a81b900460ff1681565b6040519015158152602001610135565b3480156101a0575f80fd5b506100c36105d3565b3480156101b4575f80fd5b505f546101c7906001600160a01b031681565b6040516001600160a01b039091168152602001610135565b3480156101ea575f80fd5b506100c36101f936600461077a565b610638565b5f546001600160a01b031633146102305760405162461bcd60e51b8152600401610227906107a7565b60405180910390fd5b5f54600160a01b900460ff161561027a5760405162461bcd60e51b815260206004820152600e60248201526d1499595b9d1c985b9d0818d85b1b60921b6044820152606401610227565b5f805460ff60a01b1916600160a01b1790819055600160a81b900460ff16156102da5760405162461bcd60e51b815260206004820152601260248201527110dbdb9d1c9858dd081a5cc81c185d5cd95960721b6044820152606401610227565b5f81116103295760405162461bcd60e51b815260206004820152601d60248201527f416d6f756e74206d7573742062652067726561746572207468616e20300000006044820152606401610227565b478111156103705760405162461bcd60e51b8152602060048201526014602482015273496e73756666696369656e742062616c616e636560601b6044820152606401610227565b5f80546040516001600160a01b039091169083908381818185875af1925050503d805f81146103ba576040519150601f19603f3d011682016040523d82523d5f602084013e6103bf565b606091505b50509050806104025760405162461bcd60e51b815260206004820152600f60248201526e151c985b9cd9995c8819985a5b1959608a1b6044820152606401610227565b5f54604080516001600160a01b039092168252602082018490524282820152517ffbc3a599b784fe88772fc5abcc07223f64ca0b13acc341f4fb1e46bef0510eb49181900360600190a150505f805460ff60a01b19169055565b5f546001600160a01b031633146104855760405162461bcd60e51b8152600401610227906107a7565b5f54600160a01b900460ff16156104cf5760405162461bcd60e51b815260206004820152600e60248201526d1499595b9d1c985b9d0818d85b1b60921b6044820152606401610227565b5f805460ff60a01b1916600160a01b1790819055600160a81b900460ff161561052f5760405162461bcd60e51b815260206004820152601260248201527110dbdb9d1c9858dd081a5cc81c185d5cd95960721b6044820152606401610227565b47806103705760405162461bcd60e51b81526020600482015260146024820152734e6f2066756e647320746f20776974686472617760601b6044820152606401610227565b5f546001600160a01b0316331461059d5760405162461bcd60e51b8152600401610227906107a7565b5f805460ff60a81b1916815560405133917f5db9ee0a495bf2e6ff9c91a7834c1ba4fdd244a5e8aa4e537bd38aeae4b073aa91a2565b5f546001600160a01b031633146105fc5760405162461bcd60e51b8152600401610227906107a7565b5f805460ff60a81b1916600160a81b17815560405133917f62e78cea01bee320cd4e420270b5ea74000d11b0c9f74754ebdbfc544b05a25891a2565b5f546001600160a01b031633146106615760405162461bcd60e51b8152600401610227906107a7565b6001600160a01b0381166106b75760405162461bcd60e51b815260206004820181905260248201527f4e6577206f776e65722063616e6e6f74206265207a65726f20616464726573736044820152606401610227565b5f546001600160a01b03908116908216036107145760405162461bcd60e51b815260206004820152601b60248201527f4e6577206f776e6572206d75737420626520646966666572656e7400000000006044820152606401610227565b5f80546001600160a01b038381166001600160a01b0319831681178455604051919092169283917fb532073b38c83145e3e5135377a08bf9aab55bc0fd7c1179cd4fb995d2a5159c9190a35050565b5f60208284031215610773575f80fd5b5035919050565b5f6020828403121561078a575f80fd5b81356001600160a01b03811681146107a0575f80fd5b9392505050565b60208082526021908201527f4f6e6c79206f776e65722063616e2063616c6c20746869732066756e6374696f6040820152603760f91b60608201526080019056fea2646970667358221220a1637adb38bf387f6845117394fd00e382b788ed5253e8f57d4a601c2aff3d3a64736f6c63430008160033","linkReferences":{}},"methodIdentifiers":{"changeOwner(address)":"a6f9dae1","getBalance()":"12065fe0","owner()":"8da5cb5b","pause()":"8456cb59","paused()":"5c975abb","unpause()":"3f4ba83a","withdrawAmount(uint256)":"0562b9f7","withdrawFunds()":"24600fc3"},"storageLayout":{"storage":[{"astId":11747,"contract":"contracts/modules/treasury/FundsDistributor.sol:FundsDistributor","label":"owner","offset":0,"slot":"0","type":"t_address"},{"astId":11749,"contract":"contracts/modules/treasury/FundsDistributor.sol:FundsDistributor","label":"_locked","offset":20,"slot":"0","type":"t_bool"},{"astId":11775,"contract":"contracts/modules/treasury/FundsDistributor.sol:FundsDistributor","label":"paused","offset":21,"slot":"0","type":"t_bool"}],"types":{"t_address":{"encoding":"inplace","label":"address","numberOfBytes":"20"},"t_bool":{"encoding":"inplace","label":"bool","numberOfBytes":"1"}}},"id":14}