{"abi":[{"type":"constructor","inputs":[],"stateMutability":"nonpayable"},{"type":"function","name":"analyticsEnabled","inputs":[],"outputs":[{"name":"","type":"bool","internalType":"bool"}],"stateMutability":"view"},{"type":"function","name":"analyzeUserActivity","inputs":[{"name":"users","type":"address[]","internalType":"address[]"}],"outputs":[{"name":"activeUsers","type":"uint256","internalType":"uint256"},{"name":"totalVolume","type":"uint256","internalType":"uint256"}],"stateMutability":"view"},{"type":"function","name":"analyzeUserActivityByPeriod","inputs":[{"name":"users","type":"address[]","internalType":"address[]"},{"name":"dayCount","type":"uint256","internalType":"uint256"}],"outputs":[{"name":"activeUsers","type":"uint256","internalType":"uint256"},{"name":"totalVolume","type":"uint256","internalType":"uint256"}],"stateMutability":"view"},{"type":"function","name":"compareGameTypes","inputs":[{"name":"gameTypes","type":"uint8[]","internalType":"uint8[]"}],"outputs":[{"name":"volumes","type":"uint256[]","internalType":"uint256[]"},{"name":"players","type":"uint256[]","internalType":"uint256[]"}],"stateMutability":"view"},{"type":"function","name":"dailyTransactions","inputs":[{"name":"","type":"uint256","internalType":"uint256"}],"outputs":[{"name":"","type":"uint256","internalType":"uint256"}],"stateMutability":"view"},{"type":"function","name":"dailyUsers","inputs":[{"name":"","type":"uint256","internalType":"uint256"}],"outputs":[{"name":"","type":"uint256","internalType":"uint256"}],"stateMutability":"view"},{"type":"function","name":"dailyVolume","inputs":[{"name":"","type":"uint256","internalType":"uint256"}],"outputs":[{"name":"","type":"uint256","internalType":"uint256"}],"stateMutability":"view"},{"type":"function","name":"gameAnalytics","inputs":[{"name":"","type":"uint8","internalType":"uint8"}],"outputs":[{"name":"totalGames","type":"uint256","internalType":"uint256"},{"name":"totalPlayers","type":"uint256","internalType":"uint256"},{"name":"totalVolume","type":"uint256","internalType":"uint256"},{"name":"averageTicketPrice","type":"uint256","internalType":"uint256"},{"name":"totalWinnings","type":"uint256","internalType":"uint256"},{"name":"lastGameTime","type":"uint256","internalType":"uint256"}],"stateMutability":"view"},{"type":"function","name":"getAnalyticsStats","inputs":[],"outputs":[{"name":"enabled","type":"bool","internalType":"bool"},{"name":"updateTime","type":"uint256","internalType":"uint256"},{"name":"totalUsers","type":"uint256","internalType":"uint256"},{"name":"totalVolume","type":"uint256","internalType":"uint256"},{"name":"totalTransactions","type":"uint256","internalType":"uint256"}],"stateMutability":"view"},{"type":"function","name":"getDailyStats","inputs":[{"name":"day","type":"uint256","internalType":"uint256"}],"outputs":[{"name":"volume","type":"uint256","internalType":"uint256"},{"name":"transactions","type":"uint256","internalType":"uint256"},{"name":"users","type":"uint256","internalType":"uint256"}],"stateMutability":"view"},{"type":"function","name":"getGameAnalytics","inputs":[{"name":"gameType","type":"uint8","internalType":"uint8"}],"outputs":[{"name":"","type":"tuple","internalType":"struct AnalyticsEngine.GameAnalytics","components":[{"name":"totalGames","type":"uint256","internalType":"uint256"},{"name":"totalPlayers","type":"uint256","internalType":"uint256"},{"name":"totalVolume","type":"uint256","internalType":"uint256"},{"name":"averageTicketPrice","type":"uint256","internalType":"uint256"},{"name":"totalWinnings","type":"uint256","internalType":"uint256"},{"name":"lastGameTime","type":"uint256","internalType":"uint256"}]}],"stateMutability":"view"},{"type":"function","name":"getPeriodStats","inputs":[{"name":"startDay","type":"uint256","internalType":"uint256"},{"name":"endDay","type":"uint256","internalType":"uint256"}],"outputs":[{"name":"totalVolume","type":"uint256","internalType":"uint256"},{"name":"totalTransactions","type":"uint256","internalType":"uint256"},{"name":"totalUsers","type":"uint256","internalType":"uint256"}],"stateMutability":"view"},{"type":"function","name":"getSystemAnalytics","inputs":[],"outputs":[{"name":"","type":"tuple","internalType":"struct AnalyticsEngine.SystemAnalytics","components":[{"name":"totalUsers","type":"uint256","internalType":"uint256"},{"name":"totalVolume","type":"uint256","internalType":"uint256"},{"name":"totalTransactions","type":"uint256","internalType":"uint256"},{"name":"activeGames","type":"uint256","internalType":"uint256"},{"name":"totalWinnings","type":"uint256","internalType":"uint256"},{"name":"systemFees","type":"uint256","internalType":"uint256"}]}],"stateMutability":"view"},{"type":"function","name":"getTopUsers","inputs":[{"name":"","type":"uint256","internalType":"uint256"}],"outputs":[{"name":"","type":"address[]","internalType":"address[]"}],"stateMutability":"pure"},{"type":"function","name":"getUserAnalytics","inputs":[{"name":"user","type":"address","internalType":"address"}],"outputs":[{"name":"","type":"tuple","internalType":"struct AnalyticsEngine.UserAnalytics","components":[{"name":"totalTransactions","type":"uint256","internalType":"uint256"},{"name":"totalVolume","type":"uint256","internalType":"uint256"},{"name":"lastActivity","type":"uint256","internalType":"uint256"},{"name":"gamesPlayed","type":"uint256","internalType":"uint256"},{"name":"totalWinnings","type":"uint256","internalType":"uint256"},{"name":"referralEarnings","type":"uint256","internalType":"uint256"}]}],"stateMutability":"view"},{"type":"function","name":"initialize","inputs":[{"name":"owner","type":"address","internalType":"address"}],"outputs":[],"stateMutability":"nonpayable"},{"type":"function","name":"lastUpdateTime","inputs":[],"outputs":[{"name":"","type":"uint256","internalType":"uint256"}],"stateMutability":"view"},{"type":"function","name":"owner","inputs":[],"outputs":[{"name":"","type":"address","internalType":"address"}],"stateMutability":"view"},{"type":"function","name":"renounceOwnership","inputs":[],"outputs":[],"stateMutability":"nonpayable"},{"type":"function","name":"systemAnalytics","inputs":[],"outputs":[{"name":"totalUsers","type":"uint256","internalType":"uint256"},{"name":"totalVolume","type":"uint256","internalType":"uint256"},{"name":"totalTransactions","type":"uint256","internalType":"uint256"},{"name":"activeGames","type":"uint256","internalType":"uint256"},{"name":"totalWinnings","type":"uint256","internalType":"uint256"},{"name":"systemFees","type":"uint256","internalType":"uint256"}],"stateMutability":"view"},{"type":"function","name":"toggleAnalytics","inputs":[],"outputs":[],"stateMutability":"nonpayable"},{"type":"function","name":"transferOwnership","inputs":[{"name":"newOwner","type":"address","internalType":"address"}],"outputs":[],"stateMutability":"nonpayable"},{"type":"function","name":"updateDailyStats","inputs":[{"name":"day","type":"uint256","internalType":"uint256"},{"name":"volume","type":"uint256","internalType":"uint256"},{"name":"transactions","type":"uint256","internalType":"uint256"},{"name":"users","type":"uint256","internalType":"uint256"}],"outputs":[],"stateMutability":"nonpayable"},{"type":"function","name":"updateGameAnalytics","inputs":[{"name":"gameType","type":"uint8","internalType":"uint8"},{"name":"totalGames","type":"uint256","internalType":"uint256"},{"name":"totalPlayers","type":"uint256","internalType":"uint256"},{"name":"totalVolume","type":"uint256","internalType":"uint256"},{"name":"averageTicketPrice","type":"uint256","internalType":"uint256"},{"name":"totalWinnings","type":"uint256","internalType":"uint256"}],"outputs":[],"stateMutability":"nonpayable"},{"type":"function","name":"updateSystemAnalytics","inputs":[{"name":"totalUsers","type":"uint256","internalType":"uint256"},{"name":"totalVolume","type":"uint256","internalType":"uint256"},{"name":"totalTransactions","type":"uint256","internalType":"uint256"},{"name":"activeGames","type":"uint256","internalType":"uint256"},{"name":"totalWinnings","type":"uint256","internalType":"uint256"},{"name":"systemFees","type":"uint256","internalType":"uint256"}],"outputs":[],"stateMutability":"nonpayable"},{"type":"function","name":"updateUserAnalytics","inputs":[{"name":"user","type":"address","internalType":"address"},{"name":"transactions","type":"uint256","internalType":"uint256"},{"name":"volume","type":"uint256","internalType":"uint256"},{"name":"gamesPlayed","type":"uint256","internalType":"uint256"},{"name":"winnings","type":"uint256","internalType":"uint256"},{"name":"referralEarnings","type":"uint256","internalType":"uint256"}],"outputs":[],"stateMutability":"nonpayable"},{"type":"function","name":"userAnalytics","inputs":[{"name":"","type":"address","internalType":"address"}],"outputs":[{"name":"totalTransactions","type":"uint256","internalType":"uint256"},{"name":"totalVolume","type":"uint256","internalType":"uint256"},{"name":"lastActivity","type":"uint256","internalType":"uint256"},{"name":"gamesPlayed","type":"uint256","internalType":"uint256"},{"name":"totalWinnings","type":"uint256","internalType":"uint256"},{"name":"referralEarnings","type":"uint256","internalType":"uint256"}],"stateMutability":"view"},{"type":"event","name":"AnalyticsToggled","inputs":[{"name":"enabled","type":"bool","indexed":false,"internalType":"bool"},{"name":"timestamp","type":"uint256","indexed":false,"internalType":"uint256"}],"anonymous":false},{"type":"event","name":"GameAnalyticsCompleted","inputs":[{"name":"gameNumber","type":"uint256","indexed":true,"internalType":"uint256"},{"name":"playerCount","type":"uint256","indexed":false,"internalType":"uint256"},{"name":"jackpot","type":"uint256","indexed":false,"internalType":"uint256"},{"name":"winner","type":"address","indexed":false,"internalType":"address"},{"name":"timestamp","type":"uint256","indexed":false,"internalType":"uint256"}],"anonymous":false},{"type":"event","name":"GameAnalyticsUpdated","inputs":[{"name":"gameType","type":"uint8","indexed":true,"internalType":"uint8"},{"name":"games","type":"uint256","indexed":false,"internalType":"uint256"},{"name":"players","type":"uint256","indexed":false,"internalType":"uint256"},{"name":"volume","type":"uint256","indexed":false,"internalType":"uint256"},{"name":"timestamp","type":"uint256","indexed":false,"internalType":"uint256"}],"anonymous":false},{"type":"event","name":"Initialized","inputs":[{"name":"version","type":"uint64","indexed":false,"internalType":"uint64"}],"anonymous":false},{"type":"event","name":"OwnershipTransferred","inputs":[{"name":"previousOwner","type":"address","indexed":true,"internalType":"address"},{"name":"newOwner","type":"address","indexed":true,"internalType":"address"}],"anonymous":false},{"type":"event","name":"PerformanceMetricsUpdated","inputs":[{"name":"avgGameDuration","type":"uint256","indexed":false,"internalType":"uint256"},{"name":"avgPlayersPerGame","type":"uint256","indexed":false,"internalType":"uint256"},{"name":"avgJackpot","type":"uint256","indexed":false,"internalType":"uint256"},{"name":"timestamp","type":"uint256","indexed":false,"internalType":"uint256"}],"anonymous":false},{"type":"event","name":"PlayerAnalyticsUpdated","inputs":[{"name":"player","type":"address","indexed":true,"internalType":"address"},{"name":"gamesPlayed","type":"uint256","indexed":false,"internalType":"uint256"},{"name":"totalSpent","type":"uint256","indexed":false,"internalType":"uint256"},{"name":"totalWon","type":"uint256","indexed":false,"internalType":"uint256"},{"name":"timestamp","type":"uint256","indexed":false,"internalType":"uint256"}],"anonymous":false},{"type":"event","name":"RevenueAnalyticsUpdated","inputs":[{"name":"dailyRevenue","type":"uint256","indexed":false,"internalType":"uint256"},{"name":"weeklyRevenue","type":"uint256","indexed":false,"internalType":"uint256"},{"name":"monthlyRevenue","type":"uint256","indexed":false,"internalType":"uint256"},{"name":"timestamp","type":"uint256","indexed":false,"internalType":"uint256"}],"anonymous":false},{"type":"event","name":"SystemAnalyticsUpdated","inputs":[{"name":"totalGames","type":"uint256","indexed":false,"internalType":"uint256"},{"name":"totalPlayers","type":"uint256","indexed":false,"internalType":"uint256"},{"name":"totalVolume","type":"uint256","indexed":false,"internalType":"uint256"},{"name":"timestamp","type":"uint256","indexed":false,"internalType":"uint256"}],"anonymous":false},{"type":"event","name":"UserAnalyticsUpdated","inputs":[{"name":"user","type":"address","indexed":true,"internalType":"address"},{"name":"transactions","type":"uint256","indexed":false,"internalType":"uint256"},{"name":"volume","type":"uint256","indexed":false,"internalType":"uint256"},{"name":"timestamp","type":"uint256","indexed":false,"internalType":"uint256"}],"anonymous":false},{"type":"error","name":"InvalidInitialization","inputs":[]},{"type":"error","name":"NotInitializing","inputs":[]},{"type":"error","name":"OwnableInvalidOwner","inputs":[{"name":"owner","type":"address","internalType":"address"}]},{"type":"error","name":"OwnableUnauthorizedAccount","inputs":[{"name":"account","type":"address","internalType":"address"}]}],"bytecode":{"object":"0x608080604052346100b8577ff0c57e16840df040f15088dc2f81fe391c3923bec73e23a9662efc9c229c6a009081549060ff8260401c166100a957506001600160401b036002600160401b031982821601610064575b6040516112a690816100bd8239f35b6001600160401b031990911681179091556040519081527fc7f505b2f371ae2175ee4913f4499e1f2633a7b5936321eed1cdaeb6115181d290602090a15f8080610055565b63f92ee8a960e01b8152600490fd5b5f80fdfe604060808152600480361015610013575f80fd5b5f3560e01c806320ee87be14610d6b57806325db122d14610d0c5780632a082d9e14610ce4578063419176f414610cc157806357c34e6c14610bc457806358a6a0ab14610b4e5780636287bba214610ab4578063715018a614610a4d5780638598bcc414610a0b5780638da5cb5b146109d7578063943ca3b9146109af5780639da29c8914610987578063a0eeb1f61461090c578063c4d66de8146107d0578063c800adaf14610755578063c8f33c9114610737578063ca5cd162146106f3578063d3dfeb72146105e8578063d417013914610549578063d84d100f14610469578063de75aa6c146103da578063e282556a1461038b578063e2f800d714610337578063e37c983c1461027f578063e3eba073146101c5578063f2fde38b1461019a5763f8a0ed9714610144575f80fd5b346101965760803660031901126101965761015d6110ca565b61016b60ff600b5416611015565b355f526008602052602435815f20556009602052604435815f2055600a602052606435905f20555f80f35b5f80fd5b34610196576020366003190112610196576101c36101b6610e6a565b6101be6110ca565b611059565b005b5090346101965760c0366003190112610196577fff1b6a1421fe6dba13c7752e3154e6c16ff4c06fcafde01c0d2cb3f83ac2b22990610202610e6a565b61027a60243592604435926102156110ca565b61022360ff600b5416611015565b60018060a01b031695865f525f602052815f2090858255846001830155426002830155606435600383015560843590820155600560a435910155519283924291846040919493926060820195825260208201520152565b0390a2005b5090346101965760c0366003190112610196577f7a424c001e07bd614139962d08b4dcc090725ecb89a92b87e44499a377d8a743906102bc610ee6565b9061027a6024356044359260ff606435956102d56110ca565b6102e282600b5416611015565b1696875f526001602052815f2090838255856001830155866002830155608435600383015560a43590820155600542910155519384934292859094939260609260808301968352602083015260408201520152565b503461019657602036600319011261019657355f526008602052805f20546009602052610387825f205492600a602052805f20549051938493846040919493926060820195825260208201520152565b0390f35b509034610196575f3660031901126101965760025460035492546005546006546007549451938452602084019590955260408301919091526060820152608081019290925260a082015260c090f35b503461019657602080600319360112610196578251908082019282841067ffffffffffffffff85111761045657508284939294525f845282519384938285019183865251809252840192915f5b82811061043657505050500390f35b83516001600160a01b031685528695509381019392810192600101610427565b604190634e487b7160e01b5f525260245ffd5b50903461019657602091602060031936011261019657803567ffffffffffffffff8111610196579061049f849236908301610e80565b915f906104ac5f94611102565b935f956201517f19420192428411925b875189101561053a576001600160a01b036104d78a8a610f96565b51165f525f8252825f208460028201549061052757861061050b575b6001918261050392015490610fe0565b9801976104bc565b956001918261051c61050393610fbe565b9892505091506104f3565b601189634e487b7160e01b5f525260245ffd5b85915082519182526020820152f35b50346101965760c0366003190112610196577f6778b0d37cf00c4f81c79d0550aacb52c4694fcddcae6ca994d61f34ca899762916105e382356024359260443580956105936110ca565b6105a160ff600b5416611015565b83600255856003555560643560055560843560065560a43560075542600c55519384934292859094939260609260808301968352602083015260408201520152565b0390a1005b503461019657602091826003193601126101965781359167ffffffffffffffff83116101965736602384011215610196578201359161062e61062984610e52565b610e2c565b9260248585838152019160051b8301019136831161019657602401905b8282106106da5750505061065f8251610fed565b9261066a8351610fed565b915f5b84518110156106b3578060ff61068560019388610f96565b51165f5281808552835f20600281015461069f848b610f96565b5201546106ac8287610f96565b520161066d565b509250610387916106cd8451958587968752860190610ef6565b9184830390850152610ef6565b813560ff8116810361019657815290850190850161064b565b5034610196575f3660031901126101965760a09160ff600b541691600c54916002549060035492549381519515158652602086015284015260608301526080820152f35b8234610196575f36600319011261019657602090600c549051908152f35b509034610196576020366003190112610196576001600160a01b03610778610e6a565b165f525f602052610387815f2091825492600181015494600282015460056003840154928401549301549351968796879260a094919796959260c0850198855260208501526040840152606083015260808201520152565b5034610196576020366003190112610196576107ea610e6a565b907ff0c57e16840df040f15088dc2f81fe391c3923bec73e23a9662efc9c229c6a0091825460ff81861c16159267ffffffffffffffff821680159081610904575b60011490816108fa575b1590816108f1575b506108e3575067ffffffffffffffff19811660011784556108709190836108c4575b5061086861120f565b6101be61120f565b600160ff19600b541617600b5542600c5561088757005b805468ff00000000000000001916905551600181527fc7f505b2f371ae2175ee4913f4499e1f2633a7b5936321eed1cdaeb6115181d290602090a1005b68ffffffffffffffffff1916680100000000000000011784555f61085f565b855163f92ee8a960e01b8152fd5b9050155f61083d565b303b159150610835565b85915061082b565b82346101965760203660031901126101965760c09060ff61092b610ee6565b610933610f29565b50165f52600160205261098561094a825f20610f55565b9151809260a0809180518452602081015160208501526040810151604085015260608101516060850152608081015160808501520151910152565bf35b50903461019657602036600319011261019657602091355f52600a8252805f20549051908152f35b50903461019657602036600319011261019657602091355f5260088252805f20549051908152f35b8234610196575f366003190112610196575f805160206112518339815191525490516001600160a01b039091168152602090f35b82346101965760203660031901126101965760c090610a28610e6a565b610a30610f29565b5060018060a01b03165f525f60205261098561094a825f20610f55565b34610196575f36600319011261019657610a656110ca565b5f8051602061125183398151915280546001600160a01b031981169091555f906001600160a01b03167f8be0079c531659141344cd1fd0a4f28419497f9722a3daafe3b4186f6b6457e08280a3005b509034610196578060031936011261019657602435915f915f935f92355b81811115610af55750505191825260208201929092526040810191909152606090f35b91909492610b3d610b4391845f52600a610b2e610b1c60209960088b52875f205490610fe0565b97875f5260098a52865f205490610fe0565b97865f5252835f205490610fe0565b92610fbe565b949091929394610ad2565b5090346101965760203660031901126101965760ff610b6b610ee6565b165f526001602052610387815f2091825492600181015494600282015460056003840154928401549301549351968796879260a094919796959260c0850198855260208501526040840152606083015260808201520152565b5034610196578160031936011261019657803567ffffffffffffffff811161019657610bf39036908301610e80565b602435915f93610c035f93611102565b936201518090818102918183041490151715610cae57420391428311610c9b57505f925b8451841015610c8d576001600160a01b03610c428587610f96565b51165f525f602052815f2083600282015411610c71575b60019182610c6992015490610fe0565b930192610c27565b9560019182610c82610c6993610fbe565b989250509150610c59565b859082519182526020820152f35b601190634e487b7160e01b5f525260245ffd5b601183634e487b7160e01b5f525260245ffd5b8234610196575f3660031901126101965760209060ff600b541690519015158152f35b50903461019657602036600319011261019657602091355f5260098252805f20549051908152f35b8234610196575f366003190112610196577f09d1c9384415e386213a3cd28388d41ead9705f357db16999969a35e31c5695e90610d476110ca565b600b5460ff8082161516809160ff191617600b5581519015158152426020820152a1005b5034610196575f3660031901126101965761098560c092610d8a610f29565b50610d93610df8565b926002548452600354602085015254818401526005546060840152600654608084015260075460a084015251809260a0809180518452602081015160208501526040810151604085015260608101516060850152608081015160808501520151910152565b6040519060c0820182811067ffffffffffffffff821117610e1857604052565b634e487b7160e01b5f52604160045260245ffd5b6040519190601f01601f1916820167ffffffffffffffff811183821017610e1857604052565b67ffffffffffffffff8111610e185760051b60200190565b600435906001600160a01b038216820361019657565b9080601f83011215610196576020908235610e9d61062982610e52565b9360208086848152019260051b82010192831161019657602001905b828210610ec7575050505090565b81356001600160a01b0381168103610196578152908301908301610eb9565b6004359060ff8216820361019657565b9081518082526020808093019301915f5b828110610f15575050505090565b835185529381019392810192600101610f07565b610f31610df8565b905f82525f60208301525f60408301525f60608301525f60808301525f60a0830152565b906005610f60610df8565b928054845260018101546020850152600281015460408501526003810154606085015260048101546080850152015460a0830152565b8051821015610faa5760209160051b010190565b634e487b7160e01b5f52603260045260245ffd5b5f198114610fcc5760010190565b634e487b7160e01b5f52601160045260245ffd5b91908201809211610fcc57565b90610ffa61062983610e52565b828152809261100b601f1991610e52565b0190602036910137565b1561101c57565b60405162461bcd60e51b8152602060048201526015602482015274105b985b1e5d1a58dcc81a5cc8191a5cd8589b1959605a1b6044820152606490fd5b6001600160a01b039081169081156110b2575f8051602061125183398151915280546001600160a01b031981168417909155167f8be0079c531659141344cd1fd0a4f28419497f9722a3daafe3b4186f6b6457e05f80a3565b604051631e4fbdf760e01b81525f6004820152602490fd5b5f80516020611251833981519152546001600160a01b031633036110ea57565b60405163118cdaa760e01b8152336004820152602490fd5b80516001908181111561120a5761111890610fed565b915f9081835b611166575b505061112e81610fed565b925f5b82811061113f575050505090565b83906001600160a01b036111538285610f96565b511661115f8288610f96565b5201611131565b8151811015611205579083915f805b8581106111c0575b501561118d575b8201909161111e565b9282906111b8906001600160a01b036111a68786610f96565b51166111b2828a610f96565b52610fbe565b939050611184565b929391929091906001600160a01b03806111da8688610f96565b5116906111e7838b610f96565b5116146111f957019085939291611175565b5080939291505f61117d565b611123565b505090565b60ff7ff0c57e16840df040f15088dc2f81fe391c3923bec73e23a9662efc9c229c6a005460401c161561123e57565b604051631afcd79f60e31b8152600490fdfe9016d09d72d40fdae2fd8ceac6b6234c7706214fd39c1cd1e609a0528c199300a26469706673582212205df8842ec9bbbcdbeb61ce1cb44f33f5ba8cfbb17c951e0a53c1f7fb31d6e6fe64736f6c63430008160033","linkReferences":{}},"methodIdentifiers":{"analyticsEnabled()":"419176f4","analyzeUserActivity(address[])":"d84d100f","analyzeUserActivityByPeriod(address[],uint256)":"57c34e6c","compareGameTypes(uint8[])":"d3dfeb72","dailyTransactions(uint256)":"2a082d9e","dailyUsers(uint256)":"9da29c89","dailyVolume(uint256)":"943ca3b9","gameAnalytics(uint8)":"58a6a0ab","getAnalyticsStats()":"ca5cd162","getDailyStats(uint256)":"e2f800d7","getGameAnalytics(uint8)":"a0eeb1f6","getPeriodStats(uint256,uint256)":"6287bba2","getSystemAnalytics()":"20ee87be","getTopUsers(uint256)":"de75aa6c","getUserAnalytics(address)":"8598bcc4","initialize(address)":"c4d66de8","lastUpdateTime()":"c8f33c91","owner()":"8da5cb5b","renounceOwnership()":"715018a6","systemAnalytics()":"e282556a","toggleAnalytics()":"25db122d","transferOwnership(address)":"f2fde38b","updateDailyStats(uint256,uint256,uint256,uint256)":"f8a0ed97","updateGameAnalytics(uint8,uint256,uint256,uint256,uint256,uint256)":"e37c983c","updateSystemAnalytics(uint256,uint256,uint256,uint256,uint256,uint256)":"d4170139","updateUserAnalytics(address,uint256,uint256,uint256,uint256,uint256)":"e3eba073","userAnalytics(address)":"c800adaf"},"id":0}