{"abi":[{"type":"constructor","inputs":[],"stateMutability":"nonpayable"},{"type":"function","name":"analyticsEnabled","inputs":[],"outputs":[{"name":"","type":"bool","internalType":"bool"}],"stateMutability":"view"},{"type":"function","name":"dailyTransactions","inputs":[{"name":"","type":"uint256","internalType":"uint256"}],"outputs":[{"name":"","type":"uint256","internalType":"uint256"}],"stateMutability":"view"},{"type":"function","name":"dailyUsers","inputs":[{"name":"","type":"uint256","internalType":"uint256"}],"outputs":[{"name":"","type":"uint256","internalType":"uint256"}],"stateMutability":"view"},{"type":"function","name":"dailyVolume","inputs":[{"name":"","type":"uint256","internalType":"uint256"}],"outputs":[{"name":"","type":"uint256","internalType":"uint256"}],"stateMutability":"view"},{"type":"function","name":"gameAnalytics","inputs":[{"name":"","type":"uint8","internalType":"uint8"}],"outputs":[{"name":"totalGames","type":"uint256","internalType":"uint256"},{"name":"totalPlayers","type":"uint256","internalType":"uint256"},{"name":"totalVolume","type":"uint256","internalType":"uint256"},{"name":"averageTicketPrice","type":"uint256","internalType":"uint256"},{"name":"totalWinnings","type":"uint256","internalType":"uint256"},{"name":"lastGameTime","type":"uint256","internalType":"uint256"}],"stateMutability":"view"},{"type":"function","name":"getAnalyticsStats","inputs":[],"outputs":[{"name":"analyticsEnabled","type":"bool","internalType":"bool"},{"name":"lastUpdateTime","type":"uint256","internalType":"uint256"},{"name":"totalUsers","type":"uint256","internalType":"uint256"},{"name":"totalVolume","type":"uint256","internalType":"uint256"},{"name":"totalTransactions","type":"uint256","internalType":"uint256"}],"stateMutability":"view"},{"type":"function","name":"getDailyStats","inputs":[{"name":"day","type":"uint256","internalType":"uint256"}],"outputs":[{"name":"volume","type":"uint256","internalType":"uint256"},{"name":"transactions","type":"uint256","internalType":"uint256"},{"name":"users","type":"uint256","internalType":"uint256"}],"stateMutability":"view"},{"type":"function","name":"getGameAnalytics","inputs":[{"name":"gameType","type":"uint8","internalType":"uint8"}],"outputs":[{"name":"","type":"tuple","internalType":"struct AnalyticsEngine.GameAnalytics","components":[{"name":"totalGames","type":"uint256","internalType":"uint256"},{"name":"totalPlayers","type":"uint256","internalType":"uint256"},{"name":"totalVolume","type":"uint256","internalType":"uint256"},{"name":"averageTicketPrice","type":"uint256","internalType":"uint256"},{"name":"totalWinnings","type":"uint256","internalType":"uint256"},{"name":"lastGameTime","type":"uint256","internalType":"uint256"}]}],"stateMutability":"view"},{"type":"function","name":"getPeriodStats","inputs":[{"name":"startDay","type":"uint256","internalType":"uint256"},{"name":"endDay","type":"uint256","internalType":"uint256"}],"outputs":[{"name":"totalVolume","type":"uint256","internalType":"uint256"},{"name":"totalTransactions","type":"uint256","internalType":"uint256"},{"name":"totalUsers","type":"uint256","internalType":"uint256"}],"stateMutability":"view"},{"type":"function","name":"getSystemAnalytics","inputs":[],"outputs":[{"name":"","type":"tuple","internalType":"struct AnalyticsEngine.SystemAnalytics","components":[{"name":"totalUsers","type":"uint256","internalType":"uint256"},{"name":"totalVolume","type":"uint256","internalType":"uint256"},{"name":"totalTransactions","type":"uint256","internalType":"uint256"},{"name":"activeGames","type":"uint256","internalType":"uint256"},{"name":"totalWinnings","type":"uint256","internalType":"uint256"},{"name":"systemFees","type":"uint256","internalType":"uint256"}]}],"stateMutability":"view"},{"type":"function","name":"getTopUsers","inputs":[{"name":"count","type":"uint256","internalType":"uint256"}],"outputs":[{"name":"","type":"address[]","internalType":"address[]"}],"stateMutability":"view"},{"type":"function","name":"getUserAnalytics","inputs":[{"name":"user","type":"address","internalType":"address"}],"outputs":[{"name":"","type":"tuple","internalType":"struct AnalyticsEngine.UserAnalytics","components":[{"name":"totalTransactions","type":"uint256","internalType":"uint256"},{"name":"totalVolume","type":"uint256","internalType":"uint256"},{"name":"lastActivity","type":"uint256","internalType":"uint256"},{"name":"gamesPlayed","type":"uint256","internalType":"uint256"},{"name":"totalWinnings","type":"uint256","internalType":"uint256"},{"name":"referralEarnings","type":"uint256","internalType":"uint256"}]}],"stateMutability":"view"},{"type":"function","name":"initialize","inputs":[{"name":"owner","type":"address","internalType":"address"}],"outputs":[],"stateMutability":"nonpayable"},{"type":"function","name":"lastUpdateTime","inputs":[],"outputs":[{"name":"","type":"uint256","internalType":"uint256"}],"stateMutability":"view"},{"type":"function","name":"owner","inputs":[],"outputs":[{"name":"","type":"address","internalType":"address"}],"stateMutability":"view"},{"type":"function","name":"renounceOwnership","inputs":[],"outputs":[],"stateMutability":"nonpayable"},{"type":"function","name":"systemAnalytics","inputs":[],"outputs":[{"name":"totalUsers","type":"uint256","internalType":"uint256"},{"name":"totalVolume","type":"uint256","internalType":"uint256"},{"name":"totalTransactions","type":"uint256","internalType":"uint256"},{"name":"activeGames","type":"uint256","internalType":"uint256"},{"name":"totalWinnings","type":"uint256","internalType":"uint256"},{"name":"systemFees","type":"uint256","internalType":"uint256"}],"stateMutability":"view"},{"type":"function","name":"toggleAnalytics","inputs":[],"outputs":[],"stateMutability":"nonpayable"},{"type":"function","name":"transferOwnership","inputs":[{"name":"newOwner","type":"address","internalType":"address"}],"outputs":[],"stateMutability":"nonpayable"},{"type":"function","name":"updateDailyStats","inputs":[{"name":"day","type":"uint256","internalType":"uint256"},{"name":"volume","type":"uint256","internalType":"uint256"},{"name":"transactions","type":"uint256","internalType":"uint256"},{"name":"users","type":"uint256","internalType":"uint256"}],"outputs":[],"stateMutability":"nonpayable"},{"type":"function","name":"updateGameAnalytics","inputs":[{"name":"gameType","type":"uint8","internalType":"uint8"},{"name":"totalGames","type":"uint256","internalType":"uint256"},{"name":"totalPlayers","type":"uint256","internalType":"uint256"},{"name":"totalVolume","type":"uint256","internalType":"uint256"},{"name":"averageTicketPrice","type":"uint256","internalType":"uint256"},{"name":"totalWinnings","type":"uint256","internalType":"uint256"}],"outputs":[],"stateMutability":"nonpayable"},{"type":"function","name":"updateSystemAnalytics","inputs":[{"name":"totalUsers","type":"uint256","internalType":"uint256"},{"name":"totalVolume","type":"uint256","internalType":"uint256"},{"name":"totalTransactions","type":"uint256","internalType":"uint256"},{"name":"activeGames","type":"uint256","internalType":"uint256"},{"name":"totalWinnings","type":"uint256","internalType":"uint256"},{"name":"systemFees","type":"uint256","internalType":"uint256"}],"outputs":[],"stateMutability":"nonpayable"},{"type":"function","name":"updateUserAnalytics","inputs":[{"name":"user","type":"address","internalType":"address"},{"name":"transactions","type":"uint256","internalType":"uint256"},{"name":"volume","type":"uint256","internalType":"uint256"},{"name":"gamesPlayed","type":"uint256","internalType":"uint256"},{"name":"winnings","type":"uint256","internalType":"uint256"},{"name":"referralEarnings","type":"uint256","internalType":"uint256"}],"outputs":[],"stateMutability":"nonpayable"},{"type":"function","name":"userAnalytics","inputs":[{"name":"","type":"address","internalType":"address"}],"outputs":[{"name":"totalTransactions","type":"uint256","internalType":"uint256"},{"name":"totalVolume","type":"uint256","internalType":"uint256"},{"name":"lastActivity","type":"uint256","internalType":"uint256"},{"name":"gamesPlayed","type":"uint256","internalType":"uint256"},{"name":"totalWinnings","type":"uint256","internalType":"uint256"},{"name":"referralEarnings","type":"uint256","internalType":"uint256"}],"stateMutability":"view"},{"type":"event","name":"AnalyticsToggled","inputs":[{"name":"enabled","type":"bool","indexed":false,"internalType":"bool"},{"name":"timestamp","type":"uint256","indexed":false,"internalType":"uint256"}],"anonymous":false},{"type":"event","name":"GameAnalyticsUpdated","inputs":[{"name":"gameType","type":"uint8","indexed":true,"internalType":"uint8"},{"name":"games","type":"uint256","indexed":false,"internalType":"uint256"},{"name":"players","type":"uint256","indexed":false,"internalType":"uint256"},{"name":"volume","type":"uint256","indexed":false,"internalType":"uint256"},{"name":"timestamp","type":"uint256","indexed":false,"internalType":"uint256"}],"anonymous":false},{"type":"event","name":"Initialized","inputs":[{"name":"version","type":"uint64","indexed":false,"internalType":"uint64"}],"anonymous":false},{"type":"event","name":"OwnershipTransferred","inputs":[{"name":"previousOwner","type":"address","indexed":true,"internalType":"address"},{"name":"newOwner","type":"address","indexed":true,"internalType":"address"}],"anonymous":false},{"type":"event","name":"SystemAnalyticsUpdated","inputs":[{"name":"totalUsers","type":"uint256","indexed":false,"internalType":"uint256"},{"name":"totalVolume","type":"uint256","indexed":false,"internalType":"uint256"},{"name":"totalTransactions","type":"uint256","indexed":false,"internalType":"uint256"},{"name":"timestamp","type":"uint256","indexed":false,"internalType":"uint256"}],"anonymous":false},{"type":"event","name":"UserAnalyticsUpdated","inputs":[{"name":"user","type":"address","indexed":true,"internalType":"address"},{"name":"transactions","type":"uint256","indexed":false,"internalType":"uint256"},{"name":"volume","type":"uint256","indexed":false,"internalType":"uint256"},{"name":"timestamp","type":"uint256","indexed":false,"internalType":"uint256"}],"anonymous":false},{"type":"error","name":"InvalidInitialization","inputs":[]},{"type":"error","name":"NotInitializing","inputs":[]},{"type":"error","name":"OwnableInvalidOwner","inputs":[{"name":"owner","type":"address","internalType":"address"}]},{"type":"error","name":"OwnableUnauthorizedAccount","inputs":[{"name":"account","type":"address","internalType":"address"}]}],"bytecode":{"object":"0x608080604052346100b8577ff0c57e16840df040f15088dc2f81fe391c3923bec73e23a9662efc9c229c6a009081549060ff8260401c166100a957506001600160401b036002600160401b031982821601610064575b604051610da590816100bd8239f35b6001600160401b031990911681179091556040519081527fc7f505b2f371ae2175ee4913f4499e1f2633a7b5936321eed1cdaeb6115181d290602090a15f8080610055565b63f92ee8a960e01b8152600490fd5b5f80fdfe604060808152600480361015610013575f80fd5b5f3560e01c806320ee87be14610a9457806325db122d14610a355780632a082d9e14610a0d578063419176f4146109ea57806358a6a0ab146109745780636287bba2146108c4578063715018a61461085d5780638598bcc41461081b5780638da5cb5b146107e7578063943ca3b9146107bf5780639da29c8914610797578063a0eeb1f61461071c578063c4d66de8146105e0578063c800adaf14610565578063c8f33c9114610547578063ca5cd1621461050d578063d41701391461046e578063de75aa6c146103b9578063e282556a1461036a578063e2f800d714610316578063e37c983c1461025e578063e3eba073146101a4578063f2fde38b146101795763f8a0ed9714610123575f80fd5b346101755760803660031901126101755761013c610cd6565b61014a60ff600b5416610c09565b355f526008602052602435815f20556009602052604435815f2055600a602052606435905f20555f80f35b5f80fd5b34610175576020366003190112610175576101a2610195610b31565b61019d610cd6565b610c65565b005b5090346101755760c0366003190112610175577fff1b6a1421fe6dba13c7752e3154e6c16ff4c06fcafde01c0d2cb3f83ac2b229906101e1610b31565b61025960243592604435926101f4610cd6565b61020260ff600b5416610c09565b60018060a01b031695865f525f602052815f2090858255846001830155426002830155606435600383015560843590820155600560a435910155519283924291846040919493926060820195825260208201520152565b0390a2005b5090346101755760c0366003190112610175577f7a424c001e07bd614139962d08b4dcc090725ecb89a92b87e44499a377d8a7439061029b610b21565b906102596024356044359260ff606435956102b4610cd6565b6102c182600b5416610c09565b1696875f526001602052815f2090838255856001830155866002830155608435600383015560a43590820155600542910155519384934292859094939260609260808301968352602083015260408201520152565b503461017557602036600319011261017557355f526008602052805f20546009602052610366825f205492600a602052805f20549051938493846040919493926060820195825260208201520152565b0390f35b509034610175575f3660031901126101755760025460035492546005546006546007549451938452602084019590955260408301919091526060820152608081019290925260a082015260c090f35b5034610175576020908160031936011261017557601f9181356103db81610c4d565b928551938519958691011684019084821067ffffffffffffffff83111761045b57509061040f918695949652808652610c4d565b8482019201368337825181815293518185018190528493840192915f5b82811061043b57505050500390f35b83516001600160a01b03168552869550938101939281019260010161042c565b604190634e487b7160e01b5f525260245ffd5b50346101755760c0366003190112610175577f6778b0d37cf00c4f81c79d0550aacb52c4694fcddcae6ca994d61f34ca8997629161050882356024359260443580956104b8610cd6565b6104c660ff600b5416610c09565b83600255856003555560643560055560843560065560a43560075542600c55519384934292859094939260609260808301968352602083015260408201520152565b0390a1005b509034610175575f3660031901126101755760a091600254906003549054918351935f85525f602086015284015260608301526080820152f35b8234610175575f36600319011261017557602090600c549051908152f35b509034610175576020366003190112610175576001600160a01b03610588610b31565b165f525f602052610366815f2091825492600181015494600282015460056003840154928401549301549351968796879260a094919796959260c0850198855260208501526040840152606083015260808201520152565b5034610175576020366003190112610175576105fa610b31565b907ff0c57e16840df040f15088dc2f81fe391c3923bec73e23a9662efc9c229c6a0091825460ff81861c16159267ffffffffffffffff821680159081610714575b600114908161070a575b159081610701575b506106f3575067ffffffffffffffff19811660011784556106809190836106d4575b50610678610d0e565b61019d610d0e565b600160ff19600b541617600b5542600c5561069757005b805468ff00000000000000001916905551600181527fc7f505b2f371ae2175ee4913f4499e1f2633a7b5936321eed1cdaeb6115181d290602090a1005b68ffffffffffffffffff1916680100000000000000011784555f61066f565b855163f92ee8a960e01b8152fd5b9050155f61064d565b303b159150610645565b85915061063b565b82346101755760203660031901126101755760c09060ff61073b610b21565b610743610b7b565b50165f52600160205261079561075a825f20610ba7565b9151809260a0809180518452602081015160208501526040810151604085015260608101516060850152608081015160808501520151910152565bf35b50903461017557602036600319011261017557602091355f52600a8252805f20549051908152f35b50903461017557602036600319011261017557602091355f5260088252805f20549051908152f35b8234610175575f366003190112610175575f80516020610d508339815191525490516001600160a01b039091168152602090f35b82346101755760203660031901126101755760c090610838610b31565b610840610b7b565b5060018060a01b03165f525f60205261079561075a825f20610ba7565b34610175575f36600319011261017557610875610cd6565b5f80516020610d5083398151915280546001600160a01b031981169091555f906001600160a01b03167f8be0079c531659141344cd1fd0a4f28419497f9722a3daafe3b4186f6b6457e08280a3005b5034610175578160031936011261017557602491602435905f925f945f938235925b818411156109065784518781526020810189905260408101879052606090f35b9091929461094e90865f99989952600a61093f61092d60209b60088d52895f205490610be8565b99895f5260098c52885f205490610be8565b99885f5252855f205490610be8565b945f198114610962576001019291906108e6565b83601183634e487b7160e01b5f52525ffd5b5090346101755760203660031901126101755760ff610991610b21565b165f526001602052610366815f2091825492600181015494600282015460056003840154928401549301549351968796879260a094919796959260c0850198855260208501526040840152606083015260808201520152565b8234610175575f3660031901126101755760209060ff600b541690519015158152f35b50903461017557602036600319011261017557602091355f5260098252805f20549051908152f35b8234610175575f366003190112610175577f09d1c9384415e386213a3cd28388d41ead9705f357db16999969a35e31c5695e90610a70610cd6565b600b5460ff8082161516809160ff191617600b5581519015158152426020820152a1005b5034610175575f3660031901126101755761079560c092610ab3610b7b565b50610abc610b47565b926002548452600354602085015254818401526005546060840152600654608084015260075460a084015251809260a0809180518452602081015160208501526040810151604085015260608101516060850152608081015160808501520151910152565b6004359060ff8216820361017557565b600435906001600160a01b038216820361017557565b6040519060c0820182811067ffffffffffffffff821117610b6757604052565b634e487b7160e01b5f52604160045260245ffd5b610b83610b47565b905f82525f60208301525f60408301525f60608301525f60808301525f60a0830152565b906005610bb2610b47565b928054845260018101546020850152600281015460408501526003810154606085015260048101546080850152015460a0830152565b91908201809211610bf557565b634e487b7160e01b5f52601160045260245ffd5b15610c1057565b60405162461bcd60e51b8152602060048201526015602482015274105b985b1e5d1a58dcc81a5cc8191a5cd8589b1959605a1b6044820152606490fd5b67ffffffffffffffff8111610b675760051b60200190565b6001600160a01b03908116908115610cbe575f80516020610d5083398151915280546001600160a01b031981168417909155167f8be0079c531659141344cd1fd0a4f28419497f9722a3daafe3b4186f6b6457e05f80a3565b604051631e4fbdf760e01b81525f6004820152602490fd5b5f80516020610d50833981519152546001600160a01b03163303610cf657565b60405163118cdaa760e01b8152336004820152602490fd5b60ff7ff0c57e16840df040f15088dc2f81fe391c3923bec73e23a9662efc9c229c6a005460401c1615610d3d57565b604051631afcd79f60e31b8152600490fdfe9016d09d72d40fdae2fd8ceac6b6234c7706214fd39c1cd1e609a0528c199300a26469706673582212201820abe545bc6ac3252f110170476f51f9c7b2d88dcaeae16121617489bafada64736f6c63430008160033","linkReferences":{}},"methodIdentifiers":{"analyticsEnabled()":"419176f4","dailyTransactions(uint256)":"2a082d9e","dailyUsers(uint256)":"9da29c89","dailyVolume(uint256)":"943ca3b9","gameAnalytics(uint8)":"58a6a0ab","getAnalyticsStats()":"ca5cd162","getDailyStats(uint256)":"e2f800d7","getGameAnalytics(uint8)":"a0eeb1f6","getPeriodStats(uint256,uint256)":"6287bba2","getSystemAnalytics()":"20ee87be","getTopUsers(uint256)":"de75aa6c","getUserAnalytics(address)":"8598bcc4","initialize(address)":"c4d66de8","lastUpdateTime()":"c8f33c91","owner()":"8da5cb5b","renounceOwnership()":"715018a6","systemAnalytics()":"e282556a","toggleAnalytics()":"25db122d","transferOwnership(address)":"f2fde38b","updateDailyStats(uint256,uint256,uint256,uint256)":"f8a0ed97","updateGameAnalytics(uint8,uint256,uint256,uint256,uint256,uint256)":"e37c983c","updateSystemAnalytics(uint256,uint256,uint256,uint256,uint256,uint256)":"d4170139","updateUserAnalytics(address,uint256,uint256,uint256,uint256,uint256)":"e3eba073","userAnalytics(address)":"c800adaf"},"id":0}