{"abi":[{"type":"constructor","inputs":[],"stateMutability":"nonpayable"},{"type":"function","name":"addressCircuits","inputs":[{"name":"","type":"address","internalType":"address"}],"outputs":[{"name":"state","type":"uint8","internalType":"enum CircuitBreaker.CircuitState"},{"name":"failureCount","type":"uint256","internalType":"uint256"},{"name":"lastFailureTime","type":"uint256","internalType":"uint256"},{"name":"threshold","type":"uint256","internalType":"uint256"},{"name":"timeout","type":"uint256","internalType":"uint256"},{"name":"isActive","type":"bool","internalType":"bool"}],"stateMutability":"view"},{"type":"function","name":"checkAddressCircuit","inputs":[{"name":"targetAddress","type":"address","internalType":"address"}],"outputs":[{"name":"","type":"bool","internalType":"bool"}],"stateMutability":"view"},{"type":"function","name":"checkCircuit","inputs":[{"name":"circuitName","type":"string","internalType":"string"}],"outputs":[{"name":"","type":"bool","internalType":"bool"}],"stateMutability":"view"},{"type":"function","name":"checkFunctionCircuit","inputs":[{"name":"functionName","type":"string","internalType":"string"}],"outputs":[{"name":"","type":"bool","internalType":"bool"}],"stateMutability":"view"},{"type":"function","name":"circuitBreakerEnabled","inputs":[],"outputs":[{"name":"","type":"bool","internalType":"bool"}],"stateMutability":"view"},{"type":"function","name":"circuits","inputs":[{"name":"","type":"string","internalType":"string"}],"outputs":[{"name":"state","type":"uint8","internalType":"enum CircuitBreaker.CircuitState"},{"name":"failureCount","type":"uint256","internalType":"uint256"},{"name":"lastFailureTime","type":"uint256","internalType":"uint256"},{"name":"threshold","type":"uint256","internalType":"uint256"},{"name":"timeout","type":"uint256","internalType":"uint256"},{"name":"isActive","type":"bool","internalType":"bool"}],"stateMutability":"view"},{"type":"function","name":"createAddressCircuit","inputs":[{"name":"targetAddress","type":"address","internalType":"address"},{"name":"threshold","type":"uint256","internalType":"uint256"},{"name":"timeout","type":"uint256","internalType":"uint256"}],"outputs":[],"stateMutability":"nonpayable"},{"type":"function","name":"createCircuit","inputs":[{"name":"circuitName","type":"string","internalType":"string"},{"name":"threshold","type":"uint256","internalType":"uint256"},{"name":"timeout","type":"uint256","internalType":"uint256"}],"outputs":[],"stateMutability":"nonpayable"},{"type":"function","name":"createFunctionCircuit","inputs":[{"name":"functionName","type":"string","internalType":"string"},{"name":"threshold","type":"uint256","internalType":"uint256"},{"name":"timeout","type":"uint256","internalType":"uint256"}],"outputs":[],"stateMutability":"nonpayable"},{"type":"function","name":"defaultThreshold","inputs":[],"outputs":[{"name":"","type":"uint256","internalType":"uint256"}],"stateMutability":"view"},{"type":"function","name":"defaultTimeout","inputs":[],"outputs":[{"name":"","type":"uint256","internalType":"uint256"}],"stateMutability":"view"},{"type":"function","name":"functionCircuits","inputs":[{"name":"","type":"string","internalType":"string"}],"outputs":[{"name":"state","type":"uint8","internalType":"enum CircuitBreaker.CircuitState"},{"name":"failureCount","type":"uint256","internalType":"uint256"},{"name":"lastFailureTime","type":"uint256","internalType":"uint256"},{"name":"threshold","type":"uint256","internalType":"uint256"},{"name":"timeout","type":"uint256","internalType":"uint256"},{"name":"isActive","type":"bool","internalType":"bool"}],"stateMutability":"view"},{"type":"function","name":"getCircuitInfo","inputs":[{"name":"circuitName","type":"string","internalType":"string"}],"outputs":[{"name":"state","type":"uint8","internalType":"enum CircuitBreaker.CircuitState"},{"name":"failureCount","type":"uint256","internalType":"uint256"},{"name":"lastFailureTime","type":"uint256","internalType":"uint256"},{"name":"threshold","type":"uint256","internalType":"uint256"},{"name":"timeout","type":"uint256","internalType":"uint256"},{"name":"isActive","type":"bool","internalType":"bool"}],"stateMutability":"view"},{"type":"function","name":"initialize","inputs":[{"name":"owner","type":"address","internalType":"address"}],"outputs":[],"stateMutability":"nonpayable"},{"type":"function","name":"owner","inputs":[],"outputs":[{"name":"","type":"address","internalType":"address"}],"stateMutability":"view"},{"type":"function","name":"recordAddressFailure","inputs":[{"name":"targetAddress","type":"address","internalType":"address"}],"outputs":[],"stateMutability":"nonpayable"},{"type":"function","name":"recordAddressSuccess","inputs":[{"name":"targetAddress","type":"address","internalType":"address"}],"outputs":[],"stateMutability":"nonpayable"},{"type":"function","name":"recordFailure","inputs":[{"name":"circuitName","type":"string","internalType":"string"}],"outputs":[],"stateMutability":"nonpayable"},{"type":"function","name":"recordFunctionFailure","inputs":[{"name":"functionName","type":"string","internalType":"string"}],"outputs":[],"stateMutability":"nonpayable"},{"type":"function","name":"recordFunctionSuccess","inputs":[{"name":"functionName","type":"string","internalType":"string"}],"outputs":[],"stateMutability":"nonpayable"},{"type":"function","name":"recordSuccess","inputs":[{"name":"circuitName","type":"string","internalType":"string"}],"outputs":[],"stateMutability":"nonpayable"},{"type":"function","name":"renounceOwnership","inputs":[],"outputs":[],"stateMutability":"nonpayable"},{"type":"function","name":"toggleCircuitBreaker","inputs":[],"outputs":[],"stateMutability":"nonpayable"},{"type":"function","name":"transferOwnership","inputs":[{"name":"newOwner","type":"address","internalType":"address"}],"outputs":[],"stateMutability":"nonpayable"},{"type":"event","name":"CircuitBreakerToggled","inputs":[{"name":"enabled","type":"bool","indexed":false,"internalType":"bool"},{"name":"timestamp","type":"uint256","indexed":false,"internalType":"uint256"}],"anonymous":false},{"type":"event","name":"CircuitClosed","inputs":[{"name":"circuitName","type":"string","indexed":true,"internalType":"string"},{"name":"timestamp","type":"uint256","indexed":false,"internalType":"uint256"}],"anonymous":false},{"type":"event","name":"CircuitCreated","inputs":[{"name":"circuitName","type":"string","indexed":true,"internalType":"string"},{"name":"threshold","type":"uint256","indexed":false,"internalType":"uint256"},{"name":"timeout","type":"uint256","indexed":false,"internalType":"uint256"},{"name":"timestamp","type":"uint256","indexed":false,"internalType":"uint256"}],"anonymous":false},{"type":"event","name":"CircuitHalfOpened","inputs":[{"name":"circuitName","type":"string","indexed":true,"internalType":"string"},{"name":"timestamp","type":"uint256","indexed":false,"internalType":"uint256"}],"anonymous":false},{"type":"event","name":"CircuitOpened","inputs":[{"name":"circuitName","type":"string","indexed":true,"internalType":"string"},{"name":"failureCount","type":"uint256","indexed":false,"internalType":"uint256"},{"name":"timestamp","type":"uint256","indexed":false,"internalType":"uint256"}],"anonymous":false},{"type":"event","name":"Initialized","inputs":[{"name":"version","type":"uint64","indexed":false,"internalType":"uint64"}],"anonymous":false},{"type":"event","name":"OwnershipTransferred","inputs":[{"name":"previousOwner","type":"address","indexed":true,"internalType":"address"},{"name":"newOwner","type":"address","indexed":true,"internalType":"address"}],"anonymous":false},{"type":"error","name":"InvalidInitialization","inputs":[]},{"type":"error","name":"NotInitializing","inputs":[]},{"type":"error","name":"OwnableInvalidOwner","inputs":[{"name":"owner","type":"address","internalType":"address"}]},{"type":"error","name":"OwnableUnauthorizedAccount","inputs":[{"name":"account","type":"address","internalType":"address"}]}],"bytecode":{"object":"0x608080604052346100c357600560045561012c6005557ff0c57e16840df040f15088dc2f81fe391c3923bec73e23a9662efc9c229c6a009081549060ff8260401c166100b457506001600160401b036002600160401b03198282160161006f575b6040516111cf90816100c88239f35b6001600160401b031990911681179091556040519081527fc7f505b2f371ae2175ee4913f4499e1f2633a7b5936321eed1cdaeb6115181d290602090a15f8080610060565b63f92ee8a960e01b8152600490fd5b5f80fdfe60406080815260049081361015610014575f80fd5b5f3560e01c806301fa46ad1461095757806309f3f5661461093957806346f4a367146108ff578063479bbce01461085c57806347cfbddf1461082e578063524c88ad146107ef57806353f10a4b146107d35780635a0411f014610794578063715018a61461072d57806375786b53146106cf5780638da5cb5b1461069b5780639205f9be146106725780639ea2cd38146104a95780639ea462be14610633578063ab9068fa14610610578063aca78bc814610515578063ad002295146104a9578063c4d66de814610371578063d317b50a14610295578063d5eb63cc14610236578063df7dd48b1461020d578063eb4f8795146101ce578063f2fde38b146101a35763f768ffd914610124575f80fd5b3461019f57602036600319011261019f5781356001600160401b03811161019f57610165602061015a61019b93369087016109db565b845192838092610a9c565b60028152030190209160ff83541692600181015494600282015460ff600560038501549385015494015416935196879687610a52565b0390f35b5f80fd5b3461019f57602036600319011261019f576101cc6101bf610a3c565b6101c7611100565b611051565b005b823461019f57602036600319011261019f5780356001600160401b03811161019f576101cc91610200913691016109db565b610208611100565b61101e565b3461019f57602036600319011261019f576101cc610229610a3c565b610231611100565b610f01565b503461019f575f36600319011261019f577f6b45c574a531f8f04b78493fc4ae5463dbe22922b2dea39ae53a3cdb01310a7390610271611100565b60035460ff8082161516809160ff19161760035581519015158152426020820152a1005b503461019f576102a436610ac5565b906102b0939293611100565b6102bb811515610b78565b6102c6821515610bc3565b8251936102d285610991565b5f8552602085015f81526103096020868801935f8552606089019586526080890196875260a0890197600189525192838092610a9c565b60028152030190209551600381101561035e57916101cc979391610331600597969489610c0f565b516001880155516002870155516003860155519084015551151591019060ff801983541691151516179055565b602188634e487b7160e01b5f525260245ffd5b50903461019f57602036600319011261019f5761038c610a3c565b907ff0c57e16840df040f15088dc2f81fe391c3923bec73e23a9662efc9c229c6a0091825460ff81861c1615926001600160401b038216801590816104a1575b6001149081610497575b15908161048e575b50610480575067ffffffffffffffff1981166001178455610411919083610461575b50610409611138565b6101c7611138565b600160ff19600354161760035561042457005b805468ff00000000000000001916905551600181527fc7f505b2f371ae2175ee4913f4499e1f2633a7b5936321eed1cdaeb6115181d290602090a1005b68ffffffffffffffffff1916680100000000000000011784555f610400565b855163f92ee8a960e01b8152fd5b9050155f6103de565b303b1591506103d6565b8591506103cc565b503461019f57602036600319011261019f5781356001600160401b03811161019f576104e0602061015a61019b93369087016109db565b5f8152030190209160ff83541692600181015494600282015460ff600560038501549385015494015416935196879687610a52565b50903461019f5761052536610ac5565b93919092610531611100565b61053c841515610b78565b610547851515610bc3565b82519061055382610991565b5f825260208201905f82528483015f815260608401878152608085019189835260a086019460018652885160208161058b818c610a9c565b5f815203019020965160038110156105fd57946105dc9488946005946105e799946103317f88fc19b19668a44f9e5a799bdf14b069a5cf3abfda96a414dbcb3ef49e5651469f9d9a60609f9d610c0f565b825191828092610a9c565b03902094815192835260208301524290820152a2005b602186634e487b7160e01b5f525260245ffd5b503461019f575f36600319011261019f5760209060ff6003541690519015158152f35b823461019f57602036600319011261019f5780356001600160401b03811161019f576101cc91610665913691016109db565b61066d611100565b610ea7565b3461019f57602036600319011261019f576101cc61068e610a3c565b610696611100565b610e04565b503461019f575f36600319011261019f575f8051602061117a8339815191525490516001600160a01b039091168152602090f35b503461019f57602036600319011261019f576001600160a01b036106f1610a3c565b165f52600160205261019b815f209160ff83541692600181015494600282015460ff600560038501549385015494015416935196879687610a52565b3461019f575f36600319011261019f57610745611100565b5f8051602061117a83398151915280546001600160a01b031981169091555f906001600160a01b03167f8be0079c531659141344cd1fd0a4f28419497f9722a3daafe3b4186f6b6457e08280a3005b823461019f57602036600319011261019f5780356001600160401b03811161019f576101cc916107c6913691016109db565b6107ce611100565b610d66565b503461019f575f36600319011261019f57602091549051908152f35b823461019f57602036600319011261019f5780356001600160401b03811161019f576101cc91610821913691016109db565b610829611100565b610c5e565b503461019f57602036600319011261019f5760209061085361084e610a3c565b610c27565b90519015158152f35b503461019f57606036600319011261019f57610876610a3c565b604435602435610884611100565b61088f811515610b78565b61089a821515610bc3565b8351936108a685610991565b5f8552602085015f8152818601915f8352606087019384526080870194855260a08701956001875260018060a01b03165f5260016020525f209551600381101561035e57916101cc979391610331600597969489610c0f565b503461019f57602036600319011261019f578135916001600160401b03831161019f57610934610853916020943691016109db565b610b3e565b503461019f575f36600319011261019f576020906005549051908152f35b503461019f57602036600319011261019f578135916001600160401b03831161019f5761098c610853916020943691016109db565b610afa565b60c081019081106001600160401b038211176109ac57604052565b634e487b7160e01b5f52604160045260245ffd5b604081019081106001600160401b038211176109ac57604052565b81601f8201121561019f578035906001600160401b03928383116109ac5760405193601f8401601f19908116603f01168501908111858210176109ac576040528284526020838301011161019f57815f926020809301838601378301015290565b600435906001600160a01b038216820361019f57565b949196959293909360c08601976003861015610a885760a095875260208701526040860152606085015260808401521515910152565b634e487b7160e01b5f52602160045260245ffd5b908151915f5b838110610ab2575050015f815290565b8060208092840101518185015201610aa2565b606060031982011261019f57600435906001600160401b03821161019f57610aef916004016109db565b906024359060443590565b60ff6003541615610b38576020610b179160405192838092610a9c565b600281520301902060ff60058201541615610b3857610b35906110c2565b90565b50600190565b60ff6003541615610b38576020610b5b9160405192838092610a9c565b5f81520301902060ff60058201541615610b3857610b35906110c2565b15610b7f57565b606460405162461bcd60e51b815260206004820152602060248201527f5468726573686f6c64206d7573742062652067726561746572207468616e20306044820152fd5b15610bca57565b60405162461bcd60e51b815260206004820152601e60248201527f54696d656f7574206d7573742062652067726561746572207468616e203000006044820152606490fd5b906003811015610a885760ff80198354169116179055565b60ff6003541615610b38576001600160a01b03165f908152600160205260409020600581015460ff1615610b3857610b35906110c2565b604051602081610c6e8185610a9c565b60028152030190209060ff60058301541615610d405781549160ff83166003811015610a885760018103610ce85750610cb99250600260ff1982541617905560405191828092610a9c565b0390207f8db3226ad2e639c2ff85479b05ddf003ac2261d34fd3e52330186a2be965c99d6020604051428152a2565b600214610cf5575b505050565b60015f91610d119460ff19168155015560405191828092610a9c565b0390207f210c3bac76a74d68e076423236dbdb9662f240dca541b1ce5621bb3106a8cff86020604051428152a2565b5050565b5f198114610d525760010190565b634e487b7160e01b5f52601160045260245ffd5b604051602081610d768185610a9c565b600281520301902060ff60058201541615610d40576001810191610d9a8354610d44565b8093554260028301556003820154831015610db457505050565b610df26040917fd502d38fd53ba07b4543cf7b8516a0c93e9aa924f06515491a9a149008f11e1693600160ff19825416179055825191828092610a9c565b039020928151908152426020820152a2565b6001600160a01b0381165f908152600160205260409020600581015460ff1615610d40576001810191610e378354610d44565b8093554260028301556003820154831015610e5157505050565b610df26040917fd502d38fd53ba07b4543cf7b8516a0c93e9aa924f06515491a9a149008f11e1693600160ff198254161790558251906001600160601b03199060601b166020820152601481526105dc816109c0565b604051602081610eb78185610a9c565b5f8152030190209060ff60058301541615610d405781549160ff83166003811015610a885760018103610ce85750610cb99250600260ff1982541617905560405191828092610a9c565b60018060a01b0381165f526001602052604090815f2060ff60058201541615610cf057805460ff81166003811015610a885760018103610fa8575050610f9d7f8db3226ad2e639c2ff85479b05ddf003ac2261d34fd3e52330186a2be965c99d92602092600260ff198254161790558451906001600160601b03199060601b168382015260148152610f92816109c0565b845191828092610a9c565b0390209251428152a2565b600214610fb6575b50505050565b7f210c3bac76a74d68e076423236dbdb9662f240dca541b1ce5621bb3106a8cff8925f600160209461100c9460ff1916815501558451906001600160601b03199060601b168382015260148152610f92816109c0565b0390209251428152a25f808080610fb0565b60405160208161102e8185610a9c565b5f81520301902060ff60058201541615610d40576001810191610d9a8354610d44565b6001600160a01b039081169081156110aa575f8051602061117a83398151915280546001600160a01b031981168417909155167f8be0079c531659141344cd1fd0a4f28419497f9722a3daafe3b4186f6b6457e05f80a3565b604051631e4fbdf760e01b81525f6004820152602490fd5b60ff8154166003811015610a88576001146110dd5750600190565b600460028201549101548101809111610d52574210156110fb575f90565b600190565b5f8051602061117a833981519152546001600160a01b0316330361112057565b60405163118cdaa760e01b8152336004820152602490fd5b60ff7ff0c57e16840df040f15088dc2f81fe391c3923bec73e23a9662efc9c229c6a005460401c161561116757565b604051631afcd79f60e31b8152600490fdfe9016d09d72d40fdae2fd8ceac6b6234c7706214fd39c1cd1e609a0528c199300a2646970667358221220a8ae34c2cf1d768ce8e1c533b0a2a9d1417d39ef1da6453afe837d7eebd274bd64736f6c63430008160033","linkReferences":{}},"methodIdentifiers":{"addressCircuits(address)":"75786b53","checkAddressCircuit(address)":"47cfbddf","checkCircuit(string)":"46f4a367","checkFunctionCircuit(string)":"01fa46ad","circuitBreakerEnabled()":"ab9068fa","circuits(string)":"9ea2cd38","createAddressCircuit(address,uint256,uint256)":"479bbce0","createCircuit(string,uint256,uint256)":"aca78bc8","createFunctionCircuit(string,uint256,uint256)":"d317b50a","defaultThreshold()":"53f10a4b","defaultTimeout()":"09f3f566","functionCircuits(string)":"f768ffd9","getCircuitInfo(string)":"ad002295","initialize(address)":"c4d66de8","owner()":"8da5cb5b","recordAddressFailure(address)":"9205f9be","recordAddressSuccess(address)":"df7dd48b","recordFailure(string)":"eb4f8795","recordFunctionFailure(string)":"5a0411f0","recordFunctionSuccess(string)":"524c88ad","recordSuccess(string)":"9ea462be","renounceOwnership()":"715018a6","toggleCircuitBreaker()":"d5eb63cc","transferOwnership(address)":"f2fde38b"},"id":44}