{"abi":[{"type":"constructor","inputs":[],"stateMutability":"nonpayable"},{"type":"function","name":"contractAddresses","inputs":[{"name":"","type":"string","internalType":"string"}],"outputs":[{"name":"","type":"address","internalType":"address"}],"stateMutability":"view"},{"type":"function","name":"gameConfigs","inputs":[{"name":"","type":"uint8","internalType":"uint8"}],"outputs":[{"name":"ticketPrice","type":"uint256","internalType":"uint256"},{"name":"gameDuration","type":"uint256","internalType":"uint256"},{"name":"fee","type":"uint8","internalType":"uint8"},{"name":"maxTicketsPerPlayer","type":"uint256","internalType":"uint256"},{"name":"isActive","type":"bool","internalType":"bool"}],"stateMutability":"view"},{"type":"function","name":"getContractAddress","inputs":[{"name":"contractName","type":"string","internalType":"string"}],"outputs":[{"name":"","type":"address","internalType":"address"}],"stateMutability":"view"},{"type":"function","name":"getGameConfig","inputs":[{"name":"gameType","type":"uint8","internalType":"uint8"}],"outputs":[{"name":"","type":"tuple","internalType":"struct ConfigManager.GameConfig","components":[{"name":"ticketPrice","type":"uint256","internalType":"uint256"},{"name":"gameDuration","type":"uint256","internalType":"uint256"},{"name":"fee","type":"uint8","internalType":"uint8"},{"name":"maxTicketsPerPlayer","type":"uint256","internalType":"uint256"},{"name":"isActive","type":"bool","internalType":"bool"}]}],"stateMutability":"view"},{"type":"function","name":"getSystemParam","inputs":[{"name":"param","type":"string","internalType":"string"}],"outputs":[{"name":"","type":"uint256","internalType":"uint256"}],"stateMutability":"view"},{"type":"function","name":"initialize","inputs":[{"name":"owner","type":"address","internalType":"address"}],"outputs":[],"stateMutability":"nonpayable"},{"type":"function","name":"owner","inputs":[],"outputs":[{"name":"","type":"address","internalType":"address"}],"stateMutability":"view"},{"type":"function","name":"renounceOwnership","inputs":[],"outputs":[],"stateMutability":"nonpayable"},{"type":"function","name":"setGameActive","inputs":[{"name":"gameType","type":"uint8","internalType":"uint8"},{"name":"isActive","type":"bool","internalType":"bool"}],"outputs":[],"stateMutability":"nonpayable"},{"type":"function","name":"systemParams","inputs":[{"name":"","type":"string","internalType":"string"}],"outputs":[{"name":"","type":"uint256","internalType":"uint256"}],"stateMutability":"view"},{"type":"function","name":"transferOwnership","inputs":[{"name":"newOwner","type":"address","internalType":"address"}],"outputs":[],"stateMutability":"nonpayable"},{"type":"function","name":"updateContractAddress","inputs":[{"name":"contractName","type":"string","internalType":"string"},{"name":"newAddress","type":"address","internalType":"address"}],"outputs":[],"stateMutability":"nonpayable"},{"type":"function","name":"updateGameConfig","inputs":[{"name":"gameType","type":"uint8","internalType":"uint8"},{"name":"ticketPrice","type":"uint256","internalType":"uint256"},{"name":"gameDuration","type":"uint256","internalType":"uint256"},{"name":"fee","type":"uint8","internalType":"uint8"},{"name":"maxTicketsPerPlayer","type":"uint256","internalType":"uint256"}],"outputs":[],"stateMutability":"nonpayable"},{"type":"function","name":"updateSystemParam","inputs":[{"name":"param","type":"string","internalType":"string"},{"name":"value","type":"uint256","internalType":"uint256"}],"outputs":[],"stateMutability":"nonpayable"},{"type":"event","name":"ContractAddressUpdated","inputs":[{"name":"contractName","type":"string","indexed":false,"internalType":"string"},{"name":"oldAddress","type":"address","indexed":false,"internalType":"address"},{"name":"newAddress","type":"address","indexed":false,"internalType":"address"}],"anonymous":false},{"type":"event","name":"GameConfigUpdated","inputs":[{"name":"gameType","type":"uint8","indexed":false,"internalType":"uint8"},{"name":"ticketPrice","type":"uint256","indexed":false,"internalType":"uint256"},{"name":"gameDuration","type":"uint256","indexed":false,"internalType":"uint256"},{"name":"fee","type":"uint8","indexed":false,"internalType":"uint8"},{"name":"maxTickets","type":"uint256","indexed":false,"internalType":"uint256"}],"anonymous":false},{"type":"event","name":"Initialized","inputs":[{"name":"version","type":"uint64","indexed":false,"internalType":"uint64"}],"anonymous":false},{"type":"event","name":"OwnershipTransferred","inputs":[{"name":"previousOwner","type":"address","indexed":true,"internalType":"address"},{"name":"newOwner","type":"address","indexed":true,"internalType":"address"}],"anonymous":false},{"type":"event","name":"SystemParamUpdated","inputs":[{"name":"param","type":"string","indexed":false,"internalType":"string"},{"name":"oldValue","type":"uint256","indexed":false,"internalType":"uint256"},{"name":"newValue","type":"uint256","indexed":false,"internalType":"uint256"}],"anonymous":false},{"type":"error","name":"InvalidInitialization","inputs":[]},{"type":"error","name":"NotInitializing","inputs":[]},{"type":"error","name":"OwnableInvalidOwner","inputs":[{"name":"owner","type":"address","internalType":"address"}]},{"type":"error","name":"OwnableUnauthorizedAccount","inputs":[{"name":"account","type":"address","internalType":"address"}]}],"bytecode":{"object":"0x608060405234801561000f575f80fd5b5061001861001d565b6100cf565b7ff0c57e16840df040f15088dc2f81fe391c3923bec73e23a9662efc9c229c6a00805468010000000000000000900460ff161561006d5760405163f92ee8a960e01b815260040160405180910390fd5b80546001600160401b03908116146100cc5780546001600160401b0319166001600160401b0390811782556040519081527fc7f505b2f371ae2175ee4913f4499e1f2633a7b5936321eed1cdaeb6115181d29060200160405180910390a15b50565b6111b9806100dc5f395ff3fe608060405234801561000f575f80fd5b50600436106100e5575f3560e01c80638da5cb5b11610088578063e697308e11610063578063e697308e1461027e578063ee67cc2a146102b7578063f1116cca146102eb578063f2fde38b146102fe575f80fd5b80638da5cb5b14610228578063ba8b2dae14610258578063c4d66de81461026b575f80fd5b80636c79a252116100c35780636c79a252146101a1578063715018a6146101b4578063791c1dcd146101bc57806379b9d40a14610215575f80fd5b806304433bbc146100e957806338aed2f714610119578063424791331461012e575b5f80fd5b6100fc6100f7366004610f17565b610311565b6040516001600160a01b0390911681526020015b60405180910390f35b61012c610127366004610f6c565b610341565b005b61016f61013c366004610fc7565b5f60208190529081526040902080546001820154600283015460038401546004909401549293919260ff91821692911685565b60408051958652602086019490945260ff9092169284019290925260608301919091521515608082015260a001610110565b61012c6101af366004610fe7565b61044e565b61012c6104ce565b6101cf6101ca366004610fc7565b6104e1565b60405161011091905f60a082019050825182526020830151602083015260ff60408401511660408301526060830151606083015260808301511515608083015292915050565b61012c610223366004611029565b61056b565b7f9016d09d72d40fdae2fd8ceac6b6234c7706214fd39c1cd1e609a0528c199300546001600160a01b03166100fc565b61012c610266366004611073565b6108d7565b61012c6102793660046110ac565b610906565b6102a961028c366004610f17565b805160208183018101805160018252928201919093012091525481565b604051908152602001610110565b6100fc6102c5366004610f17565b80516020818301810180516002825292820191909301209152546001600160a01b031681565b6102a96102f9366004610f17565b610ce9565b61012c61030c3660046110ac565b610d10565b5f60028260405161032291906110e7565b908152604051908190036020019020546001600160a01b031692915050565b610349610d4d565b6001600160a01b0381166103a45760405162461bcd60e51b815260206004820152601860248201527f496e76616c696420636f6e74726163742061646472657373000000000000000060448201526064015b60405180910390fd5b5f6002836040516103b591906110e7565b908152604051908190036020018120546001600160a01b0316915082906002906103e09086906110e7565b90815260405190819003602001812080546001600160a01b03939093166001600160a01b0319909316929092179091557fa90fb318cef160851f542872dfce25dadafdfde152ba8cc05e3f0b882842e53c906104419085908490869061112d565b60405180910390a1505050565b610456610d4d565b5f60018360405161046791906110e7565b90815260200160405180910390205490508160018460405161048991906110e7565b9081526020016040518091039020819055507fffcd48d4ea4c63155714a7b8b61fe13d783d9f2bfe93527b264052cc9dcf63948382846040516104419392919061115f565b6104d6610d4d565b6104df5f610da8565b565b6105136040518060a001604052805f81526020015f81526020015f60ff1681526020015f81526020015f151581525090565b5060ff9081165f9081526020818152604091829020825160a081018452815481526001820154928101929092526002810154841692820192909252600382015460608201526004909101549091161515608082015290565b610573610d4d565b6040516d6d696e5469636b6574507269636560901b8152600190600e019081526020016040518091039020548410156105e55760405162461bcd60e51b81526020600482015260146024820152735469636b657420707269636520746f6f206c6f7760601b604482015260640161039b565b6040516d6d61785469636b6574507269636560901b8152600190600e019081526020016040518091039020548411156106585760405162461bcd60e51b81526020600482015260156024820152740a8d2c6d6cae840e0e4d2c6ca40e8dede40d0d2ced605b1b604482015260640161039b565b6040516e36b4b723b0b6b2a23ab930ba34b7b760891b8152600190600f019081526020016040518091039020548310156106d45760405162461bcd60e51b815260206004820152601760248201527f47616d65206475726174696f6e20746f6f2073686f7274000000000000000000604482015260640161039b565b6040516e36b0bc23b0b6b2a23ab930ba34b7b760891b8152600190600f019081526020016040518091039020548311156107495760405162461bcd60e51b815260206004820152601660248201527547616d65206475726174696f6e20746f6f206c6f6e6760501b604482015260640161039b565b60148260ff16111561078c5760405162461bcd60e51b815260206004820152600c60248201526b08ccaca40e8dede40d0d2ced60a31b604482015260640161039b565b5f81116107e65760405162461bcd60e51b815260206004820152602260248201527f4d6178207469636b657473206d7573742062652067726561746572207468616e604482015261020360f41b606482015260840161039b565b6040805160a081018252858152602080820186815260ff808716848601908152606085018781528b83165f818152808752888120600481018054808816151560808c0190815294845292909852975188559451600188015591516002870180549190941660ff199182161790935551600390950194909455925115159216919091179055517f472540d227604dccc13d495ee0bfb40bd16149c10bd46107b6c2a1f0d5ed7734906108c8908790879087908790879060ff9586168152602081019490945260408401929092529092166060820152608081019190915260a00190565b60405180910390a15050505050565b6108df610d4d565b60ff919091165f908152602081905260409020600401805460ff1916911515919091179055565b7ff0c57e16840df040f15088dc2f81fe391c3923bec73e23a9662efc9c229c6a008054600160401b810460ff16159067ffffffffffffffff165f8115801561094b5750825b90505f8267ffffffffffffffff1660011480156109675750303b155b905081158015610975575080155b156109935760405163f92ee8a960e01b815260040160405180910390fd5b845467ffffffffffffffff1916600117855583156109bd57845460ff60401b1916600160401b1785555b6109c686610e18565b6040805160a0808201835266470de4df8200008252620151806020808401918252600a8486018181526064606080880191825260016080808a0182815260045f9081528089529a517f52d75039926638d3c558b2bdefb945d5be8dae29dedd1c313212a4d472d9fde55597517f52d75039926638d3c558b2bdefb945d5be8dae29dedd1c313212a4d472d9fde65593517f52d75039926638d3c558b2bdefb945d5be8dae29dedd1c313212a4d472d9fde7805460ff1990811660ff9384161790915593517f52d75039926638d3c558b2bdefb945d5be8dae29dedd1c313212a4d472d9fde85596517f52d75039926638d3c558b2bdefb945d5be8dae29dedd1c313212a4d472d9fde98054851691151591909117905589519788018a52670de0b6b3a7640000885262093a80888701908152888b01958652603292890192835293880181815260058a529890955295517f2b232c97452f0950c94e2539fdc7e69d21166113cf7a9bcb99b220a3fe5d720a5590517f2b232c97452f0950c94e2539fdc7e69d21166113cf7a9bcb99b220a3fe5d720b5590517f2b232c97452f0950c94e2539fdc7e69d21166113cf7a9bcb99b220a3fe5d720c80548316919094161790925591517f2b232c97452f0950c94e2539fdc7e69d21166113cf7a9bcb99b220a3fe5d720d5591517f2b232c97452f0950c94e2539fdc7e69d21166113cf7a9bcb99b220a3fe5d720e80549093169015151790915581516d6d696e5469636b6574507269636560901b8152600e808201839052835191829003602e9081018320662386f26fc1000090556d6d61785469636b6574507269636560901b8352908201839052835191829003018120678ac7230489e8000090556e36b4b723b0b6b2a23ab930ba34b7b760891b8152600f808201839052835191829003602f9081018320610e1090556e36b0bc23b0b6b2a23ab930ba34b7b760891b83529082019290925291519182900301902062278d0090558315610ce157845460ff60401b19168555604051600181527fc7f505b2f371ae2175ee4913f4499e1f2633a7b5936321eed1cdaeb6115181d29060200160405180910390a15b505050505050565b5f600182604051610cfa91906110e7565b9081526020016040518091039020549050919050565b610d18610d4d565b6001600160a01b038116610d4157604051631e4fbdf760e01b81525f600482015260240161039b565b610d4a81610da8565b50565b33610d7f7f9016d09d72d40fdae2fd8ceac6b6234c7706214fd39c1cd1e609a0528c199300546001600160a01b031690565b6001600160a01b0316146104df5760405163118cdaa760e01b815233600482015260240161039b565b7f9016d09d72d40fdae2fd8ceac6b6234c7706214fd39c1cd1e609a0528c19930080546001600160a01b031981166001600160a01b03848116918217845560405192169182907f8be0079c531659141344cd1fd0a4f28419497f9722a3daafe3b4186f6b6457e0905f90a3505050565b610e20610e29565b610d4a81610e72565b7ff0c57e16840df040f15088dc2f81fe391c3923bec73e23a9662efc9c229c6a0054600160401b900460ff166104df57604051631afcd79f60e31b815260040160405180910390fd5b610d18610e29565b634e487b7160e01b5f52604160045260245ffd5b5f82601f830112610e9d575f80fd5b813567ffffffffffffffff80821115610eb857610eb8610e7a565b604051601f8301601f19908116603f01168101908282118183101715610ee057610ee0610e7a565b81604052838152866020858801011115610ef8575f80fd5b836020870160208301375f602085830101528094505050505092915050565b5f60208284031215610f27575f80fd5b813567ffffffffffffffff811115610f3d575f80fd5b610f4984828501610e8e565b949350505050565b80356001600160a01b0381168114610f67575f80fd5b919050565b5f8060408385031215610f7d575f80fd5b823567ffffffffffffffff811115610f93575f80fd5b610f9f85828601610e8e565b925050610fae60208401610f51565b90509250929050565b803560ff81168114610f67575f80fd5b5f60208284031215610fd7575f80fd5b610fe082610fb7565b9392505050565b5f8060408385031215610ff8575f80fd5b823567ffffffffffffffff81111561100e575f80fd5b61101a85828601610e8e565b95602094909401359450505050565b5f805f805f60a0868803121561103d575f80fd5b61104686610fb7565b9450602086013593506040860135925061106260608701610fb7565b949793965091946080013592915050565b5f8060408385031215611084575f80fd5b61108d83610fb7565b9150602083013580151581146110a1575f80fd5b809150509250929050565b5f602082840312156110bc575f80fd5b610fe082610f51565b5f5b838110156110df5781810151838201526020016110c7565b50505f910152565b5f82516110f88184602087016110c5565b9190910192915050565b5f81518084526111198160208601602086016110c5565b601f01601f19169290920160200192915050565b606081525f61113f6060830186611102565b6001600160a01b0394851660208401529290931660409091015292915050565b606081525f6111716060830186611102565b6020830194909452506040015291905056fea2646970667358221220417e1140356752821a208dc2abe0926bbc353277a7d7af55b20dee0d3b97a16e64736f6c63430008160033","linkReferences":{}},"methodIdentifiers":{"contractAddresses(string)":"ee67cc2a","gameConfigs(uint8)":"42479133","getContractAddress(string)":"04433bbc","getGameConfig(uint8)":"791c1dcd","getSystemParam(string)":"f1116cca","initialize(address)":"c4d66de8","owner()":"8da5cb5b","renounceOwnership()":"715018a6","setGameActive(uint8,bool)":"ba8b2dae","systemParams(string)":"e697308e","transferOwnership(address)":"f2fde38b","updateContractAddress(string,address)":"38aed2f7","updateGameConfig(uint8,uint256,uint256,uint8,uint256)":"79b9d40a","updateSystemParam(string,uint256)":"6c79a252"},"storageLayout":{"storage":[{"astId":10856,"contract":"contracts/modules/treasury/ConfigManager.sol:ConfigManager","label":"gameConfigs","offset":0,"slot":"0","type":"t_mapping(t_uint8,t_struct(GameConfig)10851_storage)"},{"astId":10860,"contract":"contracts/modules/treasury/ConfigManager.sol:ConfigManager","label":"systemParams","offset":0,"slot":"1","type":"t_mapping(t_string_memory_ptr,t_uint256)"},{"astId":10864,"contract":"contracts/modules/treasury/ConfigManager.sol:ConfigManager","label":"contractAddresses","offset":0,"slot":"2","type":"t_mapping(t_string_memory_ptr,t_address)"}],"types":{"t_address":{"encoding":"inplace","label":"address","numberOfBytes":"20"},"t_bool":{"encoding":"inplace","label":"bool","numberOfBytes":"1"},"t_mapping(t_string_memory_ptr,t_address)":{"encoding":"mapping","key":"t_string_memory_ptr","label":"mapping(string => address)","numberOfBytes":"32","value":"t_address"},"t_mapping(t_string_memory_ptr,t_uint256)":{"encoding":"mapping","key":"t_string_memory_ptr","label":"mapping(string => uint256)","numberOfBytes":"32","value":"t_uint256"},"t_mapping(t_uint8,t_struct(GameConfig)10851_storage)":{"encoding":"mapping","key":"t_uint8","label":"mapping(uint8 => struct ConfigManager.GameConfig)","numberOfBytes":"32","value":"t_struct(GameConfig)10851_storage"},"t_string_memory_ptr":{"encoding":"bytes","label":"string","numberOfBytes":"32"},"t_struct(GameConfig)10851_storage":{"encoding":"inplace","label":"struct ConfigManager.GameConfig","numberOfBytes":"160","members":[{"astId":10842,"contract":"contracts/modules/treasury/ConfigManager.sol:ConfigManager","label":"ticketPrice","offset":0,"slot":"0","type":"t_uint256"},{"astId":10844,"contract":"contracts/modules/treasury/ConfigManager.sol:ConfigManager","label":"gameDuration","offset":0,"slot":"1","type":"t_uint256"},{"astId":10846,"contract":"contracts/modules/treasury/ConfigManager.sol:ConfigManager","label":"fee","offset":0,"slot":"2","type":"t_uint8"},{"astId":10848,"contract":"contracts/modules/treasury/ConfigManager.sol:ConfigManager","label":"maxTicketsPerPlayer","offset":0,"slot":"3","type":"t_uint256"},{"astId":10850,"contract":"contracts/modules/treasury/ConfigManager.sol:ConfigManager","label":"isActive","offset":0,"slot":"4","type":"t_bool"}]},"t_uint256":{"encoding":"inplace","label":"uint256","numberOfBytes":"32"},"t_uint8":{"encoding":"inplace","label":"uint8","numberOfBytes":"1"}}},"id":11}