{"abi":[{"type":"constructor","inputs":[],"stateMutability":"nonpayable"},{"type":"fallback","stateMutability":"payable"},{"type":"receive","stateMutability":"payable"},{"type":"function","name":"allowance","inputs":[{"name":"owner","type":"address","internalType":"address"},{"name":"spender","type":"address","internalType":"address"}],"outputs":[{"name":"","type":"uint256","internalType":"uint256"}],"stateMutability":"view"},{"type":"function","name":"approve","inputs":[{"name":"spender","type":"address","internalType":"address"},{"name":"value","type":"uint256","internalType":"uint256"}],"outputs":[{"name":"","type":"bool","internalType":"bool"}],"stateMutability":"nonpayable"},{"type":"function","name":"balanceOf","inputs":[{"name":"account","type":"address","internalType":"address"}],"outputs":[{"name":"","type":"uint256","internalType":"uint256"}],"stateMutability":"view"},{"type":"function","name":"decimals","inputs":[],"outputs":[{"name":"","type":"uint8","internalType":"uint8"}],"stateMutability":"view"},{"type":"function","name":"emergencyPause","inputs":[],"outputs":[],"stateMutability":"nonpayable"},{"type":"function","name":"emergencyPaused","inputs":[],"outputs":[{"name":"","type":"bool","internalType":"bool"}],"stateMutability":"view"},{"type":"function","name":"emergencyResume","inputs":[],"outputs":[],"stateMutability":"nonpayable"},{"type":"function","name":"getContractStats","inputs":[],"outputs":[{"name":"totalSupply","type":"uint256","internalType":"uint256"},{"name":"currentBalance","type":"uint256","internalType":"uint256"},{"name":"weiToDistribute","type":"uint256","internalType":"uint256"},{"name":"totalDividends","type":"uint256","internalType":"uint256"},{"name":"period","type":"uint256","internalType":"uint256"},{"name":"lastPeriodStartDate","type":"uint256","internalType":"uint256"},{"name":"isEmergencyPaused","type":"bool","internalType":"bool"}],"stateMutability":"view"},{"type":"function","name":"getHolderInfo","inputs":[{"name":"_who","type":"address","internalType":"address"}],"outputs":[{"name":"balance","type":"uint256","internalType":"uint256"},{"name":"balanceUpdateTime","type":"uint256","internalType":"uint256"},{"name":"rewardWithdrawTime","type":"uint256","internalType":"uint256"},{"name":"totalRewardsClaimed","type":"uint256","internalType":"uint256"}],"stateMutability":"view"},{"type":"function","name":"lastPeriodStarDate","inputs":[],"outputs":[{"name":"","type":"uint256","internalType":"uint256"}],"stateMutability":"view"},{"type":"function","name":"name","inputs":[],"outputs":[{"name":"","type":"string","internalType":"string"}],"stateMutability":"view"},{"type":"function","name":"owner","inputs":[],"outputs":[{"name":"","type":"address","internalType":"address"}],"stateMutability":"view"},{"type":"function","name":"period","inputs":[],"outputs":[{"name":"","type":"uint256","internalType":"uint256"}],"stateMutability":"view"},{"type":"function","name":"renounceOwnership","inputs":[],"outputs":[],"stateMutability":"nonpayable"},{"type":"function","name":"reward","inputs":[],"outputs":[{"name":"","type":"uint256","internalType":"uint256"}],"stateMutability":"view"},{"type":"function","name":"startDividendsPeriod","inputs":[],"outputs":[],"stateMutability":"nonpayable"},{"type":"function","name":"symbol","inputs":[],"outputs":[{"name":"","type":"string","internalType":"string"}],"stateMutability":"view"},{"type":"function","name":"totalDividends","inputs":[],"outputs":[{"name":"","type":"uint256","internalType":"uint256"}],"stateMutability":"view"},{"type":"function","name":"totalSupply","inputs":[],"outputs":[{"name":"","type":"uint256","internalType":"uint256"}],"stateMutability":"view"},{"type":"function","name":"transfer","inputs":[{"name":"receiver","type":"address","internalType":"address"},{"name":"amount","type":"uint256","internalType":"uint256"}],"outputs":[{"name":"","type":"bool","internalType":"bool"}],"stateMutability":"nonpayable"},{"type":"function","name":"transferFrom","inputs":[{"name":"from","type":"address","internalType":"address"},{"name":"to","type":"address","internalType":"address"},{"name":"value","type":"uint256","internalType":"uint256"}],"outputs":[{"name":"","type":"bool","internalType":"bool"}],"stateMutability":"nonpayable"},{"type":"function","name":"transferOwnership","inputs":[{"name":"newOwner","type":"address","internalType":"address"}],"outputs":[],"stateMutability":"nonpayable"},{"type":"function","name":"updatePeriod","inputs":[{"name":"newPeriod","type":"uint256","internalType":"uint256"}],"outputs":[],"stateMutability":"nonpayable"},{"type":"function","name":"weiToDistribute","inputs":[],"outputs":[{"name":"","type":"uint256","internalType":"uint256"}],"stateMutability":"view"},{"type":"function","name":"withdrawReward","inputs":[],"outputs":[{"name":"","type":"uint256","internalType":"uint256"}],"stateMutability":"nonpayable"},{"type":"event","name":"Approval","inputs":[{"name":"owner","type":"address","indexed":true,"internalType":"address"},{"name":"spender","type":"address","indexed":true,"internalType":"address"},{"name":"value","type":"uint256","indexed":false,"internalType":"uint256"}],"anonymous":false},{"type":"event","name":"DividendsPeriodStarted","inputs":[{"name":"period","type":"uint256","indexed":false,"internalType":"uint256"},{"name":"totalDividends","type":"uint256","indexed":false,"internalType":"uint256"},{"name":"timestamp","type":"uint256","indexed":false,"internalType":"uint256"}],"anonymous":false},{"type":"event","name":"EmergencyPaused","inputs":[{"name":"by","type":"address","indexed":true,"internalType":"address"},{"name":"timestamp","type":"uint256","indexed":false,"internalType":"uint256"}],"anonymous":false},{"type":"event","name":"EmergencyResumed","inputs":[{"name":"by","type":"address","indexed":true,"internalType":"address"},{"name":"timestamp","type":"uint256","indexed":false,"internalType":"uint256"}],"anonymous":false},{"type":"event","name":"OwnershipTransferred","inputs":[{"name":"previousOwner","type":"address","indexed":true,"internalType":"address"},{"name":"newOwner","type":"address","indexed":true,"internalType":"address"}],"anonymous":false},{"type":"event","name":"PeriodUpdated","inputs":[{"name":"oldPeriod","type":"uint256","indexed":false,"internalType":"uint256"},{"name":"newPeriod","type":"uint256","indexed":false,"internalType":"uint256"},{"name":"timestamp","type":"uint256","indexed":false,"internalType":"uint256"}],"anonymous":false},{"type":"event","name":"RewardClaimed","inputs":[{"name":"holder","type":"address","indexed":true,"internalType":"address"},{"name":"amount","type":"uint256","indexed":false,"internalType":"uint256"},{"name":"timestamp","type":"uint256","indexed":false,"internalType":"uint256"}],"anonymous":false},{"type":"event","name":"Transfer","inputs":[{"name":"from","type":"address","indexed":true,"internalType":"address"},{"name":"to","type":"address","indexed":true,"internalType":"address"},{"name":"value","type":"uint256","indexed":false,"internalType":"uint256"}],"anonymous":false},{"type":"error","name":"ERC20InsufficientAllowance","inputs":[{"name":"spender","type":"address","internalType":"address"},{"name":"allowance","type":"uint256","internalType":"uint256"},{"name":"needed","type":"uint256","internalType":"uint256"}]},{"type":"error","name":"ERC20InsufficientBalance","inputs":[{"name":"sender","type":"address","internalType":"address"},{"name":"balance","type":"uint256","internalType":"uint256"},{"name":"needed","type":"uint256","internalType":"uint256"}]},{"type":"error","name":"ERC20InvalidApprover","inputs":[{"name":"approver","type":"address","internalType":"address"}]},{"type":"error","name":"ERC20InvalidReceiver","inputs":[{"name":"receiver","type":"address","internalType":"address"}]},{"type":"error","name":"ERC20InvalidSender","inputs":[{"name":"sender","type":"address","internalType":"address"}]},{"type":"error","name":"ERC20InvalidSpender","inputs":[{"name":"spender","type":"address","internalType":"address"}]},{"type":"error","name":"OwnableInvalidOwner","inputs":[{"name":"owner","type":"address","internalType":"address"}]},{"type":"error","name":"OwnableUnauthorizedAccount","inputs":[{"name":"account","type":"address","internalType":"address"}]}],"bytecode":{"object":"0x608034620003ea576040906001600160401b039080830182811182821017620002f5578352600b81526020906a43727970746f6c6f74746f60a81b8282015283519284840184811082821117620002f557855260038085526243525960e81b848601528251828111620002f5578154906001948583811c93168015620003df575b87841014620003cb578190601f9384811162000378575b50879084831160011462000315575f9262000309575b50505f1982851b1c191690851b1782555b8551928311620002f55760049586548581811c91168015620002ea575b87821014620002d7578281116200028f575b508591841160011462000228579383949184925f956200021c575b50501b925f19911b1c19161782555b3315620002065760058054336001600160a01b0319821681179092556001600160a01b03167f8be0079c531659141344cd1fd0a4f28419497f9722a3daafe3b4186f6b6457e05f80a362278d006009556002549069152d02c7e14af680000091828101809111620001f3575f917fddf252ad1be2c89b69c2b068fc378daa952ba7f163c4a11628f55a4df523b3ef9160025533835282815285832084815401905585519384523393a3600954420390428211620001e05750600a5551610eb29081620003ef8239f35b601190634e487b7160e01b5f525260245ffd5b601184634e487b7160e01b5f525260245ffd5b505f6024925191631e4fbdf760e01b8352820152fd5b015193505f8062000108565b9190601f19841692875f5284875f20945f5b89898383106200027757505050106200025d575b50505050811b01825562000117565b01519060f8845f19921b161c191690555f8080806200024e565b8686015189559097019694850194889350016200023a565b875f52865f208380870160051c820192898810620002cd575b0160051c019086905b828110620002c1575050620000ed565b5f8155018690620002b1565b92508192620002a8565b602288634e487b7160e01b5f525260245ffd5b90607f1690620000db565b634e487b7160e01b5f52604160045260245ffd5b015190505f80620000ad565b90879350601f19831691865f52895f20925f5b8b82821062000361575050841162000349575b505050811b018255620000be565b01515f1983871b60f8161c191690555f80806200033b565b8385015186558b9790950194938401930162000328565b909150845f52875f208480850160051c8201928a8610620003c1575b918991869594930160051c01915b828110620003b257505062000097565b5f8155859450899101620003a2565b9250819262000394565b634e487b7160e01b5f52602260045260245ffd5b92607f169262000080565b5f80fdfe608060409080825260049081361015610020575b505050361561001e57005b005b5f3560e01c90816306fdde03146109ba57508063082e2814146108db578063095ea7b31461083257806318160ddd14610814578063228cb733146107f857806323b872dd146106f257806327c830a9146106cf578063313ce567146106b457806351858e271461066257806354e4067a1461060957806370a08231146105d3578063715018a6146105785780638da5cb5b1461055057806393c87f031461050157806395d89b41146103fe578063997664d7146103e0578063a9059cbb1461039e578063c885bc581461036c578063cd2b5a821461034e578063da81b09b14610330578063dd62ed3e146102e7578063dfe6b5d61461029a578063e270d1df146101ee578063ef78d4fd146101d05763f2fde38b1461013f5780610013565b346101cc5760203660031901126101cc57610158610af4565b90610161610d76565b6001600160a01b039182169283156101b6575050600554826bffffffffffffffffffffffff60a01b821617600555167f8be0079c531659141344cd1fd0a4f28419497f9722a3daafe3b4186f6b6457e05f80a3005b905f6024925191631e4fbdf760e01b8352820152fd5b5f80fd5b82346101cc575f3660031901126101cc576020906009549051908152f35b5090346101cc5760203660031901126101cc57813561020b610d76565b8015610257576009805490829055915191825260208201524260408201527fde7c06487600994e2f4bf3592750288862ce94f43efbdbf7d2dcca6d682619ba915080606081015b0390a1005b815162461bcd60e51b8152602081850152601d60248201527f506572696f64206d7573742062652067726561746572207468616e20300000006044820152606490fd5b82346101cc575f3660031901126101cc5760e0906002549047905f600a549160ff600b541693815195865260208601528401525f60608401525f608084015260a0830152151560c0820152f35b82346101cc57806003193601126101cc57602090610303610af4565b61030b610b0a565b9060018060a01b038091165f5260018452825f2091165f528252805f20549051908152f35b82346101cc575f3660031901126101cc57602090600a549051908152f35b82346101cc575f3660031901126101cc576020906007549051908152f35b82346101cc575f3660031901126101cc5760209061038f60ff600b541615610b56565b610397610c42565b9051908152f35b82346101cc57806003193601126101cc576020906103d96103bd610af4565b6103c633610d3d565b6103cf81610d3d565b6024359033610da2565b5160018152f35b82346101cc575f3660031901126101cc576020906008549051908152f35b5090346101cc575f3660031901126101cc578051905f9280549060018260011c91600184169384156104f7575b60209485851081146104e4578488529081156104c25750600114610469575b610465868661045b828b0383610b20565b5191829182610aad565b0390f35b5f9081529295507f8a35acfbc15ff81a39ae7d344fd709f28e8600b4aa8c65c6b64bfe7fe36bd19b5b8284106104af57505050826104659461045b92820101945f61044a565b8054868501880152928601928101610492565b60ff191687860152505050151560051b830101925061045b826104655f61044a565b602283634e487b7160e01b5f525260245ffd5b92607f169261042b565b82346101cc575f3660031901126101cc5761051a610d76565b60ff19600b5416600b55514281527fe0dc8967738d1ca725802874d41e2ab2405df0e2eb3c61069d26d2782660d59460203392a2005b82346101cc575f3660031901126101cc5760055490516001600160a01b039091168152602090f35b346101cc575f3660031901126101cc57610590610d76565b600580546001600160a01b031981169091555f906001600160a01b03167f8be0079c531659141344cd1fd0a4f28419497f9722a3daafe3b4186f6b6457e08280a3005b82346101cc5760203660031901126101cc576020906001600160a01b036105f8610af4565b165f525f8252805f20549051908152f35b82346101cc5760203660031901126101cc576080906001600160a01b0361062e610af4565b165f526006602052805f20908154916001810154916003600283015492015492815194855260208501528301526060820152f35b82346101cc575f3660031901126101cc5761067b610d76565b600160ff19600b541617600b55514281527f2e31b3b12b9bb0e82c32f27df5f234fabc95a374f54fd287a7132878d5dc9fc360203392a2005b82346101cc575f3660031901126101cc576020905160128152f35b82346101cc575f3660031901126101cc5760209060ff600b541690519015158152f35b50346101cc5760603660031901126101cc5761070c610af4565b610714610b0a565b906044359261072282610d3d565b61072b83610d3d565b6001600160a01b0382165f81815260016020908152878220338352905286902054915f198310610764575b6020876103d9888888610da2565b8583106107cc5781156107b65733156107a057505f908152600160209081528682203383528152908690209185900390915582906103d9610756565b6024905f885191634a1406b160e11b8352820152fd5b6024905f88519163e602df0560e01b8352820152fd5b8651637dc7a0d960e11b8152339181019182526020820193909352604081018690528291506060010390fd5b82346101cc575f3660031901126101cc57602090610397610bd0565b82346101cc575f3660031901126101cc576020906002549051908152f35b5090346101cc57806003193601126101cc5761084c610af4565b6024359033156108c5576001600160a01b03169081156108af5760209350335f5260018452825f20825f52845280835f205582519081527f8c5be1e5ebec7d5bd14f71427d1e84f3dd0314c0f7b2291e5b200ac8c7c3b925843392a35160018152f35b8251634a1406b160e11b81525f81860152602490fd5b825163e602df0560e01b81525f81860152602490fd5b50346101cc575f3660031901126101cc576108fb60ff600b541615610b56565b600a546009549161090c8383610ba2565b42111561098057506102527f7ae3d0b275b6e196974dec75f511f6f3a4d7ccbcb62a6c0ff8053366c5af41e493610962846109544761094e6007548092610bc3565b90610ba2565b948560075585600855610ba2565b600a5551928352602083019190915242604083015281906060820190565b606490602085519162461bcd60e51b8352820152601460248201527314195c9a5bd9081b9bdd08195b991959081e595d60621b6044820152fd5b905082346101cc575f3660031901126101cc575f9260035460018160011c91600181168015610aa3575b6020948585108214610a905750838752908115610a705750600114610a16575b50505061045b82610465940383610b20565b60035f9081529295507fc2575a0e9e593c00f959f8c92f12db2869c3395a3b0502d05e2516446f71f85b5b828410610a5d57505050826104659461045b9282010194610a04565b8054868501880152928601928101610a41565b60ff1916868501525050151560051b830101925061045b82610465610a04565b602290634e487b7160e01b5f525260245ffd5b92607f16926109e4565b602080825282518183018190529093925f5b828110610ae057505060409293505f838284010152601f8019910116010190565b818101860151848201604001528501610abf565b600435906001600160a01b03821682036101cc57565b602435906001600160a01b03821682036101cc57565b90601f8019910116810190811067ffffffffffffffff821117610b4257604052565b634e487b7160e01b5f52604160045260245ffd5b15610b5d57565b60405162461bcd60e51b815260206004820152601c60248201527f436f6e747261637420697320656d657267656e637920706175736564000000006044820152606490fd5b91908201809211610baf57565b634e487b7160e01b5f52601160045260245ffd5b91908203918211610baf57565b335f52600660205260405f206002810154600a5480911015610c3c57600182015411610c3657505f60205260405f20545b600854818102918183041490151715610baf57600254908115610c22570490565b634e487b7160e01b5f52601260045260245ffd5b54610c01565b50505f90565b610c4a610bd0565b8015610d33575f80808084335af13d15610d38573d67ffffffffffffffff8111610b425760405190610c86601f8201601f191660200183610b20565b81525f60203d92013e5b15610d3357335f52600660205260405f2060038101610cb0838254610ba2565b9055335f525f60205260405f2054155f14610d28575060066020525f60036040822082815582600182015582600282015501555b610cf081600754610bc3565b6007556040518181524260208201527ff01da32686223933d8a18a391060918c7f11a3648639edd87ae013e2e273174360403392a290565b600242910155610ce4565b505f90565b610c90565b6001600160a01b03165f908152600660205260409020600181018054600a541015610d66575050565b4290555f60205260405f20549055565b6005546001600160a01b03163303610d8a57565b60405163118cdaa760e01b8152336004820152602490fd5b916001600160a01b03808416928315610e645716928315610e4c57825f525f60205260405f205490828210610e1a5750817fddf252ad1be2c89b69c2b068fc378daa952ba7f163c4a11628f55a4df523b3ef92602092855f525f84520360405f2055845f5260405f20818154019055604051908152a3565b60405163391434e360e21b81526001600160a01b03919091166004820152602481019190915260448101829052606490fd5b60405163ec442f0560e01b81525f6004820152602490fd5b604051634b637e8f60e11b81525f6004820152602490fdfea2646970667358221220005764259629860f6ac22427b7d90410e1095874e7cc2a92ae8c8b38c4f9f07f64736f6c63430008160033","linkReferences":{}},"methodIdentifiers":{"allowance(address,address)":"dd62ed3e","approve(address,uint256)":"095ea7b3","balanceOf(address)":"70a08231","decimals()":"313ce567","emergencyPause()":"51858e27","emergencyPaused()":"27c830a9","emergencyResume()":"93c87f03","getContractStats()":"dfe6b5d6","getHolderInfo(address)":"54e4067a","lastPeriodStarDate()":"da81b09b","name()":"06fdde03","owner()":"8da5cb5b","period()":"ef78d4fd","renounceOwnership()":"715018a6","reward()":"228cb733","startDividendsPeriod()":"082e2814","symbol()":"95d89b41","totalDividends()":"997664d7","totalSupply()":"18160ddd","transfer(address,uint256)":"a9059cbb","transferFrom(address,address,uint256)":"23b872dd","transferOwnership(address)":"f2fde38b","updatePeriod(uint256)":"e270d1df","weiToDistribute()":"cd2b5a82","withdrawReward()":"c885bc58"},"id":42}