{"abi":[{"type":"constructor","inputs":[{"name":"initialSupply","type":"uint256","internalType":"uint256"}],"stateMutability":"nonpayable"},{"type":"function","name":"adReward","inputs":[],"outputs":[{"name":"","type":"uint256","internalType":"uint256"}],"stateMutability":"view"},{"type":"function","name":"allowance","inputs":[{"name":"owner","type":"address","internalType":"address"},{"name":"spender","type":"address","internalType":"address"}],"outputs":[{"name":"","type":"uint256","internalType":"uint256"}],"stateMutability":"view"},{"type":"function","name":"approve","inputs":[{"name":"spender","type":"address","internalType":"address"},{"name":"amount","type":"uint256","internalType":"uint256"}],"outputs":[{"name":"","type":"bool","internalType":"bool"}],"stateMutability":"nonpayable"},{"type":"function","name":"balanceOf","inputs":[{"name":"account","type":"address","internalType":"address"}],"outputs":[{"name":"","type":"uint256","internalType":"uint256"}],"stateMutability":"view"},{"type":"function","name":"burn","inputs":[{"name":"amount","type":"uint256","internalType":"uint256"}],"outputs":[],"stateMutability":"nonpayable"},{"type":"function","name":"burnForLottery","inputs":[{"name":"from","type":"address","internalType":"address"},{"name":"amount","type":"uint256","internalType":"uint256"}],"outputs":[],"stateMutability":"nonpayable"},{"type":"function","name":"burnFrom","inputs":[{"name":"account","type":"address","internalType":"address"},{"name":"amount","type":"uint256","internalType":"uint256"}],"outputs":[],"stateMutability":"nonpayable"},{"type":"function","name":"burnFromAuthorized","inputs":[{"name":"burner","type":"address","internalType":"address"},{"name":"amount","type":"uint256","internalType":"uint256"}],"outputs":[],"stateMutability":"nonpayable"},{"type":"function","name":"dailyRewards","inputs":[{"name":"","type":"address","internalType":"address"}],"outputs":[{"name":"","type":"uint256","internalType":"uint256"}],"stateMutability":"view"},{"type":"function","name":"decimals","inputs":[],"outputs":[{"name":"","type":"uint8","internalType":"uint8"}],"stateMutability":"view"},{"type":"function","name":"decreaseAllowance","inputs":[{"name":"spender","type":"address","internalType":"address"},{"name":"subtractedValue","type":"uint256","internalType":"uint256"}],"outputs":[{"name":"","type":"bool","internalType":"bool"}],"stateMutability":"nonpayable"},{"type":"function","name":"emergencyPause","inputs":[],"outputs":[],"stateMutability":"nonpayable"},{"type":"function","name":"emergencyPaused","inputs":[],"outputs":[{"name":"","type":"bool","internalType":"bool"}],"stateMutability":"view"},{"type":"function","name":"emergencyResume","inputs":[],"outputs":[],"stateMutability":"nonpayable"},{"type":"function","name":"emergencyWithdraw","inputs":[{"name":"to","type":"address","internalType":"address"}],"outputs":[],"stateMutability":"nonpayable"},{"type":"function","name":"getContractStats","inputs":[],"outputs":[{"name":"totalSupplyAmount","type":"uint256","internalType":"uint256"},{"name":"totalHolders","type":"uint256","internalType":"uint256"},{"name":"totalTransfers","type":"uint256","internalType":"uint256"},{"name":"totalBurns","type":"uint256","internalType":"uint256"},{"name":"adsWatchedCount","type":"uint256","internalType":"uint256"},{"name":"rewardsEarnedAmount","type":"uint256","internalType":"uint256"}],"stateMutability":"view"},{"type":"function","name":"getUserStats","inputs":[{"name":"user","type":"address","internalType":"address"}],"outputs":[{"name":"lastWatch","type":"uint256","internalType":"uint256"},{"name":"totalWatched","type":"uint256","internalType":"uint256"},{"name":"totalEarned","type":"uint256","internalType":"uint256"},{"name":"dailyReward","type":"uint256","internalType":"uint256"},{"name":"lastReset","type":"uint256","internalType":"uint256"},{"name":"canWatchNow","type":"bool","internalType":"bool"}],"stateMutability":"view"},{"type":"function","name":"increaseAllowance","inputs":[{"name":"spender","type":"address","internalType":"address"},{"name":"addedValue","type":"uint256","internalType":"uint256"}],"outputs":[{"name":"","type":"bool","internalType":"bool"}],"stateMutability":"nonpayable"},{"type":"function","name":"isAuthorizedBurner","inputs":[{"name":"burner","type":"address","internalType":"address"}],"outputs":[{"name":"","type":"bool","internalType":"bool"}],"stateMutability":"view"},{"type":"function","name":"isHolder","inputs":[{"name":"","type":"address","internalType":"address"}],"outputs":[{"name":"","type":"bool","internalType":"bool"}],"stateMutability":"view"},{"type":"function","name":"lastAdWatchTime","inputs":[{"name":"","type":"address","internalType":"address"}],"outputs":[{"name":"","type":"uint256","internalType":"uint256"}],"stateMutability":"view"},{"type":"function","name":"lastRewardReset","inputs":[{"name":"","type":"address","internalType":"address"}],"outputs":[{"name":"","type":"uint256","internalType":"uint256"}],"stateMutability":"view"},{"type":"function","name":"maxRewardPerDay","inputs":[],"outputs":[{"name":"","type":"uint256","internalType":"uint256"}],"stateMutability":"view"},{"type":"function","name":"maxSupply","inputs":[],"outputs":[{"name":"","type":"uint256","internalType":"uint256"}],"stateMutability":"view"},{"type":"function","name":"mint","inputs":[{"name":"to","type":"address","internalType":"address"},{"name":"amount","type":"uint256","internalType":"uint256"}],"outputs":[],"stateMutability":"nonpayable"},{"type":"function","name":"mintingEnabled","inputs":[],"outputs":[{"name":"","type":"bool","internalType":"bool"}],"stateMutability":"view"},{"type":"function","name":"name","inputs":[],"outputs":[{"name":"","type":"string","internalType":"string"}],"stateMutability":"view"},{"type":"function","name":"owner","inputs":[],"outputs":[{"name":"","type":"address","internalType":"address"}],"stateMutability":"view"},{"type":"function","name":"renounceOwnership","inputs":[],"outputs":[],"stateMutability":"nonpayable"},{"type":"function","name":"setAdReward","inputs":[{"name":"newReward","type":"uint256","internalType":"uint256"}],"outputs":[],"stateMutability":"nonpayable"},{"type":"function","name":"setMaxDailyReward","inputs":[{"name":"newMax","type":"uint256","internalType":"uint256"}],"outputs":[],"stateMutability":"nonpayable"},{"type":"function","name":"setMaxSupply","inputs":[{"name":"newMaxSupply","type":"uint256","internalType":"uint256"}],"outputs":[],"stateMutability":"nonpayable"},{"type":"function","name":"setMintingEnabled","inputs":[{"name":"enabled","type":"bool","internalType":"bool"}],"outputs":[],"stateMutability":"nonpayable"},{"type":"function","name":"symbol","inputs":[],"outputs":[{"name":"","type":"string","internalType":"string"}],"stateMutability":"view"},{"type":"function","name":"totalAdsWatched","inputs":[{"name":"","type":"address","internalType":"address"}],"outputs":[{"name":"","type":"uint256","internalType":"uint256"}],"stateMutability":"view"},{"type":"function","name":"totalAdsWatchedCount","inputs":[],"outputs":[{"name":"","type":"uint256","internalType":"uint256"}],"stateMutability":"view"},{"type":"function","name":"totalBurnsCount","inputs":[],"outputs":[{"name":"","type":"uint256","internalType":"uint256"}],"stateMutability":"view"},{"type":"function","name":"totalHoldersCount","inputs":[],"outputs":[{"name":"","type":"uint256","internalType":"uint256"}],"stateMutability":"view"},{"type":"function","name":"totalRewardsEarned","inputs":[{"name":"","type":"address","internalType":"address"}],"outputs":[{"name":"","type":"uint256","internalType":"uint256"}],"stateMutability":"view"},{"type":"function","name":"totalRewardsEarnedAmount","inputs":[],"outputs":[{"name":"","type":"uint256","internalType":"uint256"}],"stateMutability":"view"},{"type":"function","name":"totalSupply","inputs":[],"outputs":[{"name":"","type":"uint256","internalType":"uint256"}],"stateMutability":"view"},{"type":"function","name":"totalTransfersCount","inputs":[],"outputs":[{"name":"","type":"uint256","internalType":"uint256"}],"stateMutability":"view"},{"type":"function","name":"transfer","inputs":[{"name":"to","type":"address","internalType":"address"},{"name":"amount","type":"uint256","internalType":"uint256"}],"outputs":[{"name":"","type":"bool","internalType":"bool"}],"stateMutability":"nonpayable"},{"type":"function","name":"transferFrom","inputs":[{"name":"from","type":"address","internalType":"address"},{"name":"to","type":"address","internalType":"address"},{"name":"amount","type":"uint256","internalType":"uint256"}],"outputs":[{"name":"","type":"bool","internalType":"bool"}],"stateMutability":"nonpayable"},{"type":"function","name":"transferOwnership","inputs":[{"name":"newOwner","type":"address","internalType":"address"}],"outputs":[],"stateMutability":"nonpayable"},{"type":"function","name":"watchAd","inputs":[{"name":"viewer","type":"address","internalType":"address"}],"outputs":[],"stateMutability":"nonpayable"},{"type":"event","name":"AdWatched","inputs":[{"name":"viewer","type":"address","indexed":true,"internalType":"address"},{"name":"reward","type":"uint256","indexed":true,"internalType":"uint256"},{"name":"timestamp","type":"uint256","indexed":true,"internalType":"uint256"}],"anonymous":false},{"type":"event","name":"Approval","inputs":[{"name":"owner","type":"address","indexed":true,"internalType":"address"},{"name":"spender","type":"address","indexed":true,"internalType":"address"},{"name":"value","type":"uint256","indexed":false,"internalType":"uint256"}],"anonymous":false},{"type":"event","name":"EmergencyPaused","inputs":[{"name":"by","type":"address","indexed":true,"internalType":"address"},{"name":"timestamp","type":"uint256","indexed":true,"internalType":"uint256"}],"anonymous":false},{"type":"event","name":"EmergencyResumed","inputs":[{"name":"by","type":"address","indexed":true,"internalType":"address"},{"name":"timestamp","type":"uint256","indexed":true,"internalType":"uint256"}],"anonymous":false},{"type":"event","name":"MaxDailyRewardUpdated","inputs":[{"name":"oldMax","type":"uint256","indexed":true,"internalType":"uint256"},{"name":"newMax","type":"uint256","indexed":true,"internalType":"uint256"},{"name":"timestamp","type":"uint256","indexed":true,"internalType":"uint256"}],"anonymous":false},{"type":"event","name":"MaxSupplyUpdated","inputs":[{"name":"oldMax","type":"uint256","indexed":true,"internalType":"uint256"},{"name":"newMax","type":"uint256","indexed":true,"internalType":"uint256"},{"name":"timestamp","type":"uint256","indexed":true,"internalType":"uint256"}],"anonymous":false},{"type":"event","name":"MintingStatusChanged","inputs":[{"name":"enabled","type":"bool","indexed":true,"internalType":"bool"},{"name":"timestamp","type":"uint256","indexed":true,"internalType":"uint256"}],"anonymous":false},{"type":"event","name":"OwnershipTransferred","inputs":[{"name":"previousOwner","type":"address","indexed":true,"internalType":"address"},{"name":"newOwner","type":"address","indexed":true,"internalType":"address"}],"anonymous":false},{"type":"event","name":"RewardUpdated","inputs":[{"name":"newReward","type":"uint256","indexed":true,"internalType":"uint256"},{"name":"timestamp","type":"uint256","indexed":true,"internalType":"uint256"}],"anonymous":false},{"type":"event","name":"TokensMinted","inputs":[{"name":"to","type":"address","indexed":true,"internalType":"address"},{"name":"amount","type":"uint256","indexed":true,"internalType":"uint256"},{"name":"timestamp","type":"uint256","indexed":true,"internalType":"uint256"}],"anonymous":false},{"type":"event","name":"Transfer","inputs":[{"name":"from","type":"address","indexed":true,"internalType":"address"},{"name":"to","type":"address","indexed":true,"internalType":"address"},{"name":"value","type":"uint256","indexed":false,"internalType":"uint256"}],"anonymous":false},{"type":"error","name":"CannotWatchForContract","inputs":[]},{"type":"error","name":"ContractEmergencyPaused","inputs":[]},{"type":"error","name":"DailyRewardLimitExceeded","inputs":[]},{"type":"error","name":"InsufficientBalanceForBurn","inputs":[]},{"type":"error","name":"InsufficientTokensForReward","inputs":[]},{"type":"error","name":"InvalidBurnAmount","inputs":[]},{"type":"error","name":"InvalidBurnerAddress","inputs":[]},{"type":"error","name":"InvalidViewerAddress","inputs":[]},{"type":"error","name":"MaxDailyRewardTooLow","inputs":[]},{"type":"error","name":"MaxSupplyExceeded","inputs":[]},{"type":"error","name":"MintingDisabled","inputs":[]},{"type":"error","name":"MustWaitBetweenAds","inputs":[]},{"type":"error","name":"OnlyAuthorizedBurner","inputs":[]},{"type":"error","name":"RewardTooLow","inputs":[]},{"type":"error","name":"TransferNotAllowed","inputs":[]}],"bytecode":{"object":"0x6080604052670de0b6b3a764000060065568056bc75e2d63100000600b55600e805460ff191660011790556000600f553480156200003c57600080fd5b506040516200213d3803806200213d8339810160408190526200005f916200029c565b6040518060400160405280600781526020016620b22a37b5b2b760c91b81525060405180604001604052806002815260200161105160f21b8152508160039081620000ab91906200035a565b506004620000ba82826200035a565b505050620000d7620000d16200010a60201b60201c565b6200010e565b620000e3338262000160565b50336000908152601560205260409020805460ff191660019081179091556014556200044e565b3390565b600580546001600160a01b038381166001600160a01b0319831681179093556040519116919082907f8be0079c531659141344cd1fd0a4f28419497f9722a3daafe3b4186f6b6457e090600090a35050565b6001600160a01b038216620001bb5760405162461bcd60e51b815260206004820152601f60248201527f45524332303a206d696e7420746f20746865207a65726f206164647265737300604482015260640160405180910390fd5b620001c96000838362000234565b8060026000828254620001dd919062000426565b90915550506001600160a01b038216600081815260208181526040808320805486019055518481527fddf252ad1be2c89b69c2b068fc378daa952ba7f163c4a11628f55a4df523b3ef910160405180910390a35050565b600a5460ff16156200025957604051638cd22d1960e01b815260040160405180910390fd5b6001600160a01b0383161580156200027857506001600160a01b038216155b156200029757604051638cd22d1960e01b815260040160405180910390fd5b505050565b600060208284031215620002af57600080fd5b5051919050565b634e487b7160e01b600052604160045260246000fd5b600181811c90821680620002e157607f821691505b6020821081036200030257634e487b7160e01b600052602260045260246000fd5b50919050565b601f8211156200029757600081815260208120601f850160051c81016020861015620003315750805b601f850160051c820191505b8181101562000352578281556001016200033d565b505050505050565b81516001600160401b03811115620003765762000376620002b6565b6200038e81620003878454620002cc565b8462000308565b602080601f831160018114620003c65760008415620003ad5750858301515b600019600386901b1c1916600185901b17855562000352565b600085815260208120601f198616915b82811015620003f757888601518255948401946001909101908401620003d6565b5085821015620004165787850151600019600388901b60f8161c191681555b5050505050600190811b01905550565b808201808211156200044857634e487b7160e01b600052601160045260246000fd5b92915050565b611cdf806200045e6000396000f3fe608060405234801561001057600080fd5b506004361061028a5760003560e01c8063827c8aaf1161015c578063a9059cbb116100ce578063dd62ed3e11610087578063dd62ed3e146105b2578063dfe6b5d6146105c5578063e4f24cb0146105fa578063f2fde38b1461061a578063fade13c81461062d578063ff45f3f81461063657600080fd5b8063a9059cbb14610541578063aff2b17a14610554578063b7f72b0314610574578063cf033cf61461057d578063d4d7b19a14610586578063d5abeb01146105a957600080fd5b80639107cd4b116101205780639107cd4b146104de57806393c87f03146104fe57806395d89b41146105065780639fd6db121461050e578063a1d5320c1461051b578063a457c2d71461052e57600080fd5b8063827c8aaf1461047e57806382bf48521461049e57806383c4da3d146104a757806385834dc5146104ba5780638da5cb5b146104c357600080fd5b806342966c68116102005780636ee30fd9116101b95780636ee30fd9146104015780636f8b44b0146104145780636ff1c9bc1461042757806370a082311461043a578063715018a61461046357806379cc67901461046b57600080fd5b806342966c681461035e5780634e43603a146103715780634ea3871a146103b357806351858e27146103c657806358e63d6f146103ce5780636b63c56a146103e157600080fd5b806327c830a91161025257806327c830a914610308578063303554d614610315578063313ce5671461031e578063395093511461032d57806340c10f191461034057806341db357e1461035557600080fd5b806306fdde031461028f578063095ea7b3146102ad57806318160ddd146102d057806320c02918146102e257806323b872dd146102f5575b600080fd5b610297610649565b6040516102a49190611a9b565b60405180910390f35b6102c06102bb366004611b05565b6106db565b60405190151581526020016102a4565b6002545b6040519081526020016102a4565b6102c06102f0366004611b2f565b6106f5565b6102c0610303366004611b4a565b610724565b600a546102c09060ff1681565b6102d460135481565b604051601281526020016102a4565b6102c061033b366004611b05565b6107e2565b61035361034e366004611b05565b610804565b005b6102d460145481565b61035361036c366004611b86565b610959565b61038461037f366004611b2f565b610966565b6040805196875260208701959095529385019290925260608401526080830152151560a082015260c0016102a4565b6103536103c1366004611b9f565b610a0d565b610353610a55565b6103536103dc366004611b2f565b610a99565b6102d46103ef366004611b2f565b60086020526000908152604090205481565b61035361040f366004611b86565b610dc9565b610353610422366004611b86565b610e2d565b610353610435366004611b2f565b610e70565b6102d4610448366004611b2f565b6001600160a01b031660009081526020819052604090205490565b610353610f11565b610353610479366004611b05565b610f25565b6102d461048c366004611b2f565b600c6020526000908152604090205481565b6102d4600b5481565b6103536104b5366004611b05565b610f3a565b6102d460125481565b6005546040516001600160a01b0390911681526020016102a4565b6102d46104ec366004611b2f565b60076020526000908152604090205481565b6103536110c1565b610297611102565b600e546102c09060ff1681565b610353610529366004611b86565b611111565b6102c061053c366004611b05565b61116f565b6102c061054f366004611b05565b6111fa565b6102d4610562366004611b2f565b600d6020526000908152604090205481565b6102d460115481565b6102d460105481565b6102c0610594366004611b2f565b60156020526000908152604090205460ff1681565b6102d4600f5481565b6102d46105c0366004611bc1565b6112b6565b6105cd6112e1565b604080519687526020870195909552938501929092526060840152608083015260a082015260c0016102a4565b6102d4610608366004611b2f565b60096020526000908152604090205481565b610353610628366004611b2f565b611315565b6102d460065481565b610353610644366004611b05565b61138b565b60606003805461065890611bf4565b80601f016020809104026020016040519081016040528092919081815260200182805461068490611bf4565b80156106d15780601f106106a6576101008083540402835291602001916106d1565b820191906000526020600020905b8154815290600101906020018083116106b457829003601f168201915b5050505050905090565b6000336106e98185856113ba565b60019150505b92915050565b60006107096005546001600160a01b031690565b6001600160a01b0316826001600160a01b0316149050919050565b600a5460009060ff161561074b57604051638cd22d1960e01b815260040160405180910390fd5b6001600160a01b03831660009081526015602052604090205460ff161580156107745750600082115b156107b1576001600160a01b0383166000908152601560205260408120805460ff19166001179055601480549091906107ac90611c44565b909155505b60006107be8585856114df565b905080156107da576010600081546107d590611c44565b909155505b949350505050565b6000336106e98185856107f583836112b6565b6107ff9190611c5d565b6113ba565b61080c6114f8565b600e5460ff1661082f5760405163af79b43760e01b815260040160405180910390fd5b6001600160a01b03821661085657604051636da39c5360e01b815260040160405180910390fd5b80600003610877576040516302075cc160e41b815260040160405180910390fd5b6000600f5411801561089d5750600f548161089160025490565b61089b9190611c5d565b115b156108bb57604051638a164f6360e01b815260040160405180910390fd5b6108c58282611552565b6001600160a01b03821660009081526015602052604090205460ff1661091d576001600160a01b0382166000908152601560205260408120805460ff191660011790556014805490919061091890611c44565b909155505b4281836001600160a01b03167f2e8ac5177a616f2aec08c3048f5021e4e9743ece034e8d83ba5caf76688bb47560405160405180910390a45050565b610963338261161d565b50565b6001600160a01b0381166000908152600760205260408120548190819081908190819015806109b957506001600160a01b0387166000908152600760205260409020546109b590610e10611c5d565b4210155b6001600160a01b039790971660009081526007602090815260408083205460088352818420546009845282852054600c855283862054600d9095529290942054909b939a9199509197509095509350915050565b610a156114f8565b600e805460ff19168215159081179091556040514291907fd1ce4979e21771498dea8a5ec5418a87d0eb15b841bc6894e3d36fa0b02826a890600090a350565b610a5d6114f8565b600a805460ff19166001179055604051429033907f2e31b3b12b9bb0e82c32f27df5f234fabc95a374f54fd287a7132878d5dc9fc390600090a3565b600a5460ff1615610abd576040516359a3343160e11b815260040160405180910390fd5b6001600160a01b038116610ae457604051636da39c5360e01b815260040160405180910390fd5b306001600160a01b03821603610b0d5760405163416ad33560e11b815260040160405180910390fd5b600e5460ff16610b305760405163af79b43760e01b815260040160405180910390fd5b6001600160a01b03811660009081526007602052604090205415801590610b7a57506001600160a01b038116600090815260076020526040902054610b7790610e10611c5d565b42105b15610b9857604051633f51d57760e21b815260040160405180910390fd5b610ba181611758565b600b546006546001600160a01b0383166000908152600c6020526040902054610bca9190611c5d565b1115610be95760405163bcb0602f60e01b815260040160405180910390fd5b6000600f54118015610c0b5750600f54600654600254610c099190611c5d565b115b15610c2957604051638a164f6360e01b815260040160405180910390fd5b610c3581600654611552565b6001600160a01b0381166000908152600760209081526040808320429055600890915281208054909190610c6890611c44565b909155506006546001600160a01b03821660009081526009602052604081208054909190610c97908490611c5d565b90915550506006546001600160a01b0382166000908152600c602052604081208054909190610cc7908490611c5d565b909155505060128054600090610cdc90611c44565b9091555060065460138054600090610cf5908490611c5d565b90915550506001600160a01b03811660009081526015602052604090205460ff16610d52576001600160a01b0381166000908152601560205260408120805460ff1916600117905560148054909190610d4d90611c44565b909155505b42600654826001600160a01b03167f57557adf09426f9adea087dd152a12b45ffbf1d16730e77f2ca4c955cbc497e460405160405180910390a442600654826001600160a01b03167f2e8ac5177a616f2aec08c3048f5021e4e9743ece034e8d83ba5caf76688bb47560405160405180910390a450565b610dd16114f8565b80600003610df2576040516343d2af6560e01b815260040160405180910390fd5b600b8054908290556040514290839083907fecbf215b72dbc1c04771b7d9f89c84eccfaf225d7c221f6a5da583a6714d9fcb90600090a45050565b610e356114f8565b600f8054908290556040514290839083907f708949a737b310dd5b3a011a4f5b1985f9ee4c69334aaa1613866e6f16f0334a90600090a45050565b610e786114f8565b600a5460ff1615610e9c576040516359a3343160e11b815260040160405180910390fd5b6001600160a01b038116610ec35760405163e46aa32560e01b815260040160405180910390fd5b306001600160a01b03821603610eec57604051638cd22d1960e01b815260040160405180910390fd5b306000908152602081905260409020548015610f0d57610f0d3083836117b6565b5050565b610f196114f8565b610f236000611967565b565b610f308233836119b9565b610f0d828261161d565b6005546001600160a01b03163314801590610f5b5750610f59336106f5565b155b15610f795760405163381e520f60e01b815260040160405180910390fd5b6001600160a01b038216610fa05760405163e46aa32560e01b815260040160405180910390fd5b306001600160a01b03831603610fc957604051638cd22d1960e01b815260040160405180910390fd5b80600003610fea576040516302075cc160e41b815260040160405180910390fd5b8061100a836001600160a01b031660009081526020819052604090205490565b101561102957604051637ad786d960e01b815260040160405180910390fd5b611033828261161d565b60116000815461104290611c44565b909155506001600160a01b03821660009081526020819052604090205415801561108457506001600160a01b03821660009081526015602052604090205460ff165b15610f0d576001600160a01b0382166000908152601560205260408120805460ff19169055601480549091906110b990611c70565b909155505050565b6110c96114f8565b600a805460ff19169055604051429033907fe0dc8967738d1ca725802874d41e2ab2405df0e2eb3c61069d26d2782660d59490600090a3565b60606004805461065890611bf4565b6111196114f8565b8060000361113a5760405163256eeaad60e01b815260040160405180910390fd5b6006819055604051429082907f3efe2b1ade87153c913a322f09a35c930d7fd699770b8d7cdd294e1debf6e9e490600090a350565b6000338161117d82866112b6565b9050838110156111e25760405162461bcd60e51b815260206004820152602560248201527f45524332303a2064656372656173656420616c6c6f77616e63652062656c6f77604482015264207a65726f60d81b60648201526084015b60405180910390fd5b6111ef82868684036113ba565b506001949350505050565b600a5460009060ff161561122157604051638cd22d1960e01b815260040160405180910390fd5b6001600160a01b03831660009081526015602052604090205460ff1615801561124a5750600082115b15611287576001600160a01b0383166000908152601560205260408120805460ff191660011790556014805490919061128290611c44565b909155505b60006112938484611a2d565b905080156112af576010600081546112aa90611c44565b909155505b9392505050565b6001600160a01b03918216600090815260016020908152604080832093909416825291909152205490565b6000806000806000806112f360025490565b601454601054601154601254601354949b939a50919850965094509092509050565b61131d6114f8565b6001600160a01b0381166113825760405162461bcd60e51b815260206004820152602660248201527f4f776e61626c653a206e6577206f776e657220697320746865207a65726f206160448201526564647265737360d01b60648201526084016111d9565b61096381611967565b6113936114f8565b6001600160a01b038216610fc95760405163e46aa32560e01b815260040160405180910390fd5b6001600160a01b03831661141c5760405162461bcd60e51b8152602060048201526024808201527f45524332303a20617070726f76652066726f6d20746865207a65726f206164646044820152637265737360e01b60648201526084016111d9565b6001600160a01b03821661147d5760405162461bcd60e51b815260206004820152602260248201527f45524332303a20617070726f766520746f20746865207a65726f206164647265604482015261737360f01b60648201526084016111d9565b6001600160a01b0383811660008181526001602090815260408083209487168084529482529182902085905590518481527f8c5be1e5ebec7d5bd14f71427d1e84f3dd0314c0f7b2291e5b200ac8c7c3b92591015b60405180910390a3505050565b6000336114ed8582856119b9565b6111ef8585856117b6565b6005546001600160a01b03163314610f235760405162461bcd60e51b815260206004820181905260248201527f4f776e61626c653a2063616c6c6572206973206e6f7420746865206f776e657260448201526064016111d9565b6001600160a01b0382166115a85760405162461bcd60e51b815260206004820152601f60248201527f45524332303a206d696e7420746f20746865207a65726f20616464726573730060448201526064016111d9565b6115b460008383611a3b565b80600260008282546115c69190611c5d565b90915550506001600160a01b038216600081815260208181526040808320805486019055518481527fddf252ad1be2c89b69c2b068fc378daa952ba7f163c4a11628f55a4df523b3ef910160405180910390a35050565b6001600160a01b03821661167d5760405162461bcd60e51b815260206004820152602160248201527f45524332303a206275726e2066726f6d20746865207a65726f206164647265736044820152607360f81b60648201526084016111d9565b61168982600083611a3b565b6001600160a01b038216600090815260208190526040902054818110156116fd5760405162461bcd60e51b815260206004820152602260248201527f45524332303a206275726e20616d6f756e7420657863656564732062616c616e604482015261636560f01b60648201526084016111d9565b6001600160a01b0383166000818152602081815260408083208686039055600280548790039055518581529192917fddf252ad1be2c89b69c2b068fc378daa952ba7f163c4a11628f55a4df523b3ef91016114d2565b505050565b6001600160a01b0381166000908152600d60205260408120549061177f6201518042611c87565b905080821015611753576001600160a01b0383166000908152600c60209081526040808320839055600d9091529020819055505050565b6001600160a01b03831661181a5760405162461bcd60e51b815260206004820152602560248201527f45524332303a207472616e736665722066726f6d20746865207a65726f206164604482015264647265737360d81b60648201526084016111d9565b6001600160a01b03821661187c5760405162461bcd60e51b815260206004820152602360248201527f45524332303a207472616e7366657220746f20746865207a65726f206164647260448201526265737360e81b60648201526084016111d9565b611887838383611a3b565b6001600160a01b038316600090815260208190526040902054818110156118ff5760405162461bcd60e51b815260206004820152602660248201527f45524332303a207472616e7366657220616d6f756e7420657863656564732062604482015265616c616e636560d01b60648201526084016111d9565b6001600160a01b03848116600081815260208181526040808320878703905593871680835291849020805487019055925185815290927fddf252ad1be2c89b69c2b068fc378daa952ba7f163c4a11628f55a4df523b3ef910160405180910390a35b50505050565b600580546001600160a01b038381166001600160a01b0319831681179093556040519116919082907f8be0079c531659141344cd1fd0a4f28419497f9722a3daafe3b4186f6b6457e090600090a35050565b60006119c584846112b6565b905060001981146119615781811015611a205760405162461bcd60e51b815260206004820152601d60248201527f45524332303a20696e73756666696369656e7420616c6c6f77616e636500000060448201526064016111d9565b61196184848484036113ba565b6000336106e98185856117b6565b600a5460ff1615611a5f57604051638cd22d1960e01b815260040160405180910390fd5b6001600160a01b038316158015611a7d57506001600160a01b038216155b1561175357604051638cd22d1960e01b815260040160405180910390fd5b600060208083528351808285015260005b81811015611ac857858101830151858201604001528201611aac565b506000604082860101526040601f19601f8301168501019250505092915050565b80356001600160a01b0381168114611b0057600080fd5b919050565b60008060408385031215611b1857600080fd5b611b2183611ae9565b946020939093013593505050565b600060208284031215611b4157600080fd5b6112af82611ae9565b600080600060608486031215611b5f57600080fd5b611b6884611ae9565b9250611b7660208501611ae9565b9150604084013590509250925092565b600060208284031215611b9857600080fd5b5035919050565b600060208284031215611bb157600080fd5b813580151581146112af57600080fd5b60008060408385031215611bd457600080fd5b611bdd83611ae9565b9150611beb60208401611ae9565b90509250929050565b600181811c90821680611c0857607f821691505b602082108103611c2857634e487b7160e01b600052602260045260246000fd5b50919050565b634e487b7160e01b600052601160045260246000fd5b600060018201611c5657611c56611c2e565b5060010190565b808201808211156106ef576106ef611c2e565b600081611c7f57611c7f611c2e565b506000190190565b600082611ca457634e487b7160e01b600052601260045260246000fd5b50049056fea264697066735822122016bc6cb5d4c7bb369d958e4cf48ad2e74945235b1253a4273d5792ba9c5c3bf164736f6c63430008130033","linkReferences":{}},"methodIdentifiers":{"adReward()":"fade13c8","allowance(address,address)":"dd62ed3e","approve(address,uint256)":"095ea7b3","balanceOf(address)":"70a08231","burn(uint256)":"42966c68","burnForLottery(address,uint256)":"83c4da3d","burnFrom(address,uint256)":"79cc6790","burnFromAuthorized(address,uint256)":"ff45f3f8","dailyRewards(address)":"827c8aaf","decimals()":"313ce567","decreaseAllowance(address,uint256)":"a457c2d7","emergencyPause()":"51858e27","emergencyPaused()":"27c830a9","emergencyResume()":"93c87f03","emergencyWithdraw(address)":"6ff1c9bc","getContractStats()":"dfe6b5d6","getUserStats(address)":"4e43603a","increaseAllowance(address,uint256)":"39509351","isAuthorizedBurner(address)":"20c02918","isHolder(address)":"d4d7b19a","lastAdWatchTime(address)":"9107cd4b","lastRewardReset(address)":"aff2b17a","maxRewardPerDay()":"82bf4852","maxSupply()":"d5abeb01","mint(address,uint256)":"40c10f19","mintingEnabled()":"9fd6db12","name()":"06fdde03","owner()":"8da5cb5b","renounceOwnership()":"715018a6","setAdReward(uint256)":"a1d5320c","setMaxDailyReward(uint256)":"6ee30fd9","setMaxSupply(uint256)":"6f8b44b0","setMintingEnabled(bool)":"4ea3871a","symbol()":"95d89b41","totalAdsWatched(address)":"6b63c56a","totalAdsWatchedCount()":"85834dc5","totalBurnsCount()":"b7f72b03","totalHoldersCount()":"41db357e","totalRewardsEarned(address)":"e4f24cb0","totalRewardsEarnedAmount()":"303554d6","totalSupply()":"18160ddd","totalTransfersCount()":"cf033cf6","transfer(address,uint256)":"a9059cbb","transferFrom(address,address,uint256)":"23b872dd","transferOwnership(address)":"f2fde38b","watchAd(address)":"58e63d6f"},"storageLayout":{"storage":[{"astId":55171,"contract":"contracts/modules/lottery/AdToken.sol:AdToken","label":"_balances","offset":0,"slot":"0","type":"t_mapping(t_address,t_uint256)"},{"astId":55177,"contract":"contracts/modules/lottery/AdToken.sol:AdToken","label":"_allowances","offset":0,"slot":"1","type":"t_mapping(t_address,t_mapping(t_address,t_uint256))"},{"astId":55179,"contract":"contracts/modules/lottery/AdToken.sol:AdToken","label":"_totalSupply","offset":0,"slot":"2","type":"t_uint256"},{"astId":55181,"contract":"contracts/modules/lottery/AdToken.sol:AdToken","label":"_name","offset":0,"slot":"3","type":"t_string_storage"},{"astId":55183,"contract":"contracts/modules/lottery/AdToken.sol:AdToken","label":"_symbol","offset":0,"slot":"4","type":"t_string_storage"},{"astId":54562,"contract":"contracts/modules/lottery/AdToken.sol:AdToken","label":"_owner","offset":0,"slot":"5","type":"t_address"},{"astId":2156,"contract":"contracts/modules/lottery/AdToken.sol:AdToken","label":"adReward","offset":0,"slot":"6","type":"t_uint256"},{"astId":2161,"contract":"contracts/modules/lottery/AdToken.sol:AdToken","label":"lastAdWatchTime","offset":0,"slot":"7","type":"t_mapping(t_address,t_uint256)"},{"astId":2166,"contract":"contracts/modules/lottery/AdToken.sol:AdToken","label":"totalAdsWatched","offset":0,"slot":"8","type":"t_mapping(t_address,t_uint256)"},{"astId":2171,"contract":"contracts/modules/lottery/AdToken.sol:AdToken","label":"totalRewardsEarned","offset":0,"slot":"9","type":"t_mapping(t_address,t_uint256)"},{"astId":2174,"contract":"contracts/modules/lottery/AdToken.sol:AdToken","label":"emergencyPaused","offset":0,"slot":"10","type":"t_bool"},{"astId":2182,"contract":"contracts/modules/lottery/AdToken.sol:AdToken","label":"maxRewardPerDay","offset":0,"slot":"11","type":"t_uint256"},{"astId":2187,"contract":"contracts/modules/lottery/AdToken.sol:AdToken","label":"dailyRewards","offset":0,"slot":"12","type":"t_mapping(t_address,t_uint256)"},{"astId":2192,"contract":"contracts/modules/lottery/AdToken.sol:AdToken","label":"lastRewardReset","offset":0,"slot":"13","type":"t_mapping(t_address,t_uint256)"},{"astId":2196,"contract":"contracts/modules/lottery/AdToken.sol:AdToken","label":"mintingEnabled","offset":0,"slot":"14","type":"t_bool"},{"astId":2200,"contract":"contracts/modules/lottery/AdToken.sol:AdToken","label":"maxSupply","offset":0,"slot":"15","type":"t_uint256"},{"astId":2203,"contract":"contracts/modules/lottery/AdToken.sol:AdToken","label":"totalTransfersCount","offset":0,"slot":"16","type":"t_uint256"},{"astId":2206,"contract":"contracts/modules/lottery/AdToken.sol:AdToken","label":"totalBurnsCount","offset":0,"slot":"17","type":"t_uint256"},{"astId":2209,"contract":"contracts/modules/lottery/AdToken.sol:AdToken","label":"totalAdsWatchedCount","offset":0,"slot":"18","type":"t_uint256"},{"astId":2212,"contract":"contracts/modules/lottery/AdToken.sol:AdToken","label":"totalRewardsEarnedAmount","offset":0,"slot":"19","type":"t_uint256"},{"astId":2215,"contract":"contracts/modules/lottery/AdToken.sol:AdToken","label":"totalHoldersCount","offset":0,"slot":"20","type":"t_uint256"},{"astId":2220,"contract":"contracts/modules/lottery/AdToken.sol:AdToken","label":"isHolder","offset":0,"slot":"21","type":"t_mapping(t_address,t_bool)"}],"types":{"t_address":{"encoding":"inplace","label":"address","numberOfBytes":"20"},"t_bool":{"encoding":"inplace","label":"bool","numberOfBytes":"1"},"t_mapping(t_address,t_bool)":{"encoding":"mapping","key":"t_address","label":"mapping(address => bool)","numberOfBytes":"32","value":"t_bool"},"t_mapping(t_address,t_mapping(t_address,t_uint256))":{"encoding":"mapping","key":"t_address","label":"mapping(address => mapping(address => uint256))","numberOfBytes":"32","value":"t_mapping(t_address,t_uint256)"},"t_mapping(t_address,t_uint256)":{"encoding":"mapping","key":"t_address","label":"mapping(address => uint256)","numberOfBytes":"32","value":"t_uint256"},"t_string_storage":{"encoding":"bytes","label":"string","numberOfBytes":"32"},"t_uint256":{"encoding":"inplace","label":"uint256","numberOfBytes":"32"}}},"id":3}