{
  "abi": [
    {
      "type": "constructor",
      "inputs": [],
      "stateMutability": "nonpayable"
    },
    {
      "type": "fallback",
      "stateMutability": "payable"
    },
    {
      "type": "receive",
      "stateMutability": "payable"
    },
    {
      "type": "function",
      "name": "AD_LOTTERY_FEE_PERCENT",
      "inputs": [],
      "outputs": [
        {
          "name": "",
          "type": "uint256",
          "internalType": "uint256"
        }
      ],
      "stateMutability": "view"
    },
    {
      "type": "function",
      "name": "DEVELOPER_FEE_PERCENT",
      "inputs": [],
      "outputs": [
        {
          "name": "",
          "type": "uint256",
          "internalType": "uint256"
        }
      ],
      "stateMutability": "view"
    },
    {
      "type": "function",
      "name": "MAX_BLOCK_DELAY",
      "inputs": [],
      "outputs": [
        {
          "name": "",
          "type": "uint256",
          "internalType": "uint256"
        }
      ],
      "stateMutability": "view"
    },
    {
      "type": "function",
      "name": "MAX_TICKETS_PER_TRANSACTION",
      "inputs": [],
      "outputs": [
        {
          "name": "",
          "type": "uint256",
          "internalType": "uint256"
        }
      ],
      "stateMutability": "view"
    },
    {
      "type": "function",
      "name": "MIN_BLOCK_DELAY",
      "inputs": [],
      "outputs": [
        {
          "name": "",
          "type": "uint256",
          "internalType": "uint256"
        }
      ],
      "stateMutability": "view"
    },
    {
      "type": "function",
      "name": "PURCHASE_COOLDOWN",
      "inputs": [],
      "outputs": [
        {
          "name": "",
          "type": "uint256",
          "internalType": "uint256"
        }
      ],
      "stateMutability": "view"
    },
    {
      "type": "function",
      "name": "REFERRAL_FEE_PERCENT",
      "inputs": [],
      "outputs": [
        {
          "name": "",
          "type": "uint256",
          "internalType": "uint256"
        }
      ],
      "stateMutability": "view"
    },
    {
      "type": "function",
      "name": "TOTAL_FEE_PERCENT",
      "inputs": [],
      "outputs": [
        {
          "name": "",
          "type": "uint256",
          "internalType": "uint256"
        }
      ],
      "stateMutability": "view"
    },
    {
      "type": "function",
      "name": "autoEndGame",
      "inputs": [],
      "outputs": [],
      "stateMutability": "nonpayable"
    },
    {
      "type": "function",
      "name": "buyTicket",
      "inputs": [
        {
          "name": "referrer",
          "type": "address",
          "internalType": "address"
        },
        {
          "name": "ticketCount",
          "type": "uint256",
          "internalType": "uint256"
        }
      ],
      "outputs": [],
      "stateMutability": "payable"
    },
    {
      "type": "function",
      "name": "checkAndEndGame",
      "inputs": [],
      "outputs": [],
      "stateMutability": "nonpayable"
    },
    {
      "type": "function",
      "name": "emergencyPause",
      "inputs": [
        {
          "name": "reason",
          "type": "string",
          "internalType": "string"
        }
      ],
      "outputs": [],
      "stateMutability": "nonpayable"
    },
    {
      "type": "function",
      "name": "emergencyResume",
      "inputs": [],
      "outputs": [],
      "stateMutability": "nonpayable"
    },
    {
      "type": "function",
      "name": "getContractBalance",
      "inputs": [],
      "outputs": [
        {
          "name": "",
          "type": "uint256",
          "internalType": "uint256"
        }
      ],
      "stateMutability": "view"
    },
    {
      "type": "function",
      "name": "getCurrentGameEndTime",
      "inputs": [],
      "outputs": [
        {
          "name": "",
          "type": "uint256",
          "internalType": "uint256"
        }
      ],
      "stateMutability": "view"
    },
    {
      "type": "function",
      "name": "getCurrentGameJackpot",
      "inputs": [],
      "outputs": [
        {
          "name": "",
          "type": "uint256",
          "internalType": "uint256"
        }
      ],
      "stateMutability": "view"
    },
    {
      "type": "function",
      "name": "getCurrentGameNumber",
      "inputs": [],
      "outputs": [
        {
          "name": "",
          "type": "uint256",
          "internalType": "uint256"
        }
      ],
      "stateMutability": "view"
    },
    {
      "type": "function",
      "name": "getCurrentGamePlayerCount",
      "inputs": [],
      "outputs": [
        {
          "name": "",
          "type": "uint256",
          "internalType": "uint256"
        }
      ],
      "stateMutability": "view"
    },
    {
      "type": "function",
      "name": "getCurrentGameState",
      "inputs": [],
      "outputs": [
        {
          "name": "",
          "type": "uint8",
          "internalType": "enum StorageLayout.GameState"
        }
      ],
      "stateMutability": "view"
    },
    {
      "type": "function",
      "name": "getGameConfig",
      "inputs": [],
      "outputs": [
        {
          "name": "ticketPrice",
          "type": "uint256",
          "internalType": "uint256"
        },
        {
          "name": "gameDuration",
          "type": "uint256",
          "internalType": "uint256"
        },
        {
          "name": "maxTicketsPerPlayer",
          "type": "uint256",
          "internalType": "uint256"
        },
        {
          "name": "isActive",
          "type": "bool",
          "internalType": "bool"
        }
      ],
      "stateMutability": "view"
    },
    {
      "type": "function",
      "name": "getGameInfo",
      "inputs": [],
      "outputs": [
        {
          "name": "currentGameNumber",
          "type": "uint256",
          "internalType": "uint256"
        },
        {
          "name": "startTime",
          "type": "uint256",
          "internalType": "uint256"
        },
        {
          "name": "duration",
          "type": "uint256",
          "internalType": "uint256"
        },
        {
          "name": "remainingTime",
          "type": "uint256",
          "internalType": "uint256"
        },
        {
          "name": "timeExpired",
          "type": "bool",
          "internalType": "bool"
        },
        {
          "name": "playerCount",
          "type": "uint256",
          "internalType": "uint256"
        },
        {
          "name": "currentJackpot",
          "type": "uint256",
          "internalType": "uint256"
        }
      ],
      "stateMutability": "view"
    },
    {
      "type": "function",
      "name": "getPlayerInfo",
      "inputs": [
        {
          "name": "player",
          "type": "address",
          "internalType": "address"
        }
      ],
      "outputs": [
        {
          "name": "ticketCount",
          "type": "uint256",
          "internalType": "uint256"
        },
        {
          "name": "lastPurchaseTime",
          "type": "uint256",
          "internalType": "uint256"
        },
        {
          "name": "totalSpent",
          "type": "uint256",
          "internalType": "uint256"
        }
      ],
      "stateMutability": "view"
    },
    {
      "type": "function",
      "name": "getRemainingGameTime",
      "inputs": [],
      "outputs": [
        {
          "name": "",
          "type": "uint256",
          "internalType": "uint256"
        }
      ],
      "stateMutability": "view"
    },
    {
      "type": "function",
      "name": "initialize",
      "inputs": [
        {
          "name": "owner",
          "type": "address",
          "internalType": "address"
        },
        {
          "name": "",
          "type": "address",
          "internalType": "address"
        },
        {
          "name": "",
          "type": "address",
          "internalType": "address"
        },
        {
          "name": "",
          "type": "address",
          "internalType": "address"
        },
        {
          "name": "",
          "type": "address",
          "internalType": "address"
        },
        {
          "name": "_treasuryName",
          "type": "string",
          "internalType": "string"
        }
      ],
      "outputs": [],
      "stateMutability": "nonpayable"
    },
    {
      "type": "function",
      "name": "isGameTimeExpired",
      "inputs": [],
      "outputs": [
        {
          "name": "",
          "type": "bool",
          "internalType": "bool"
        }
      ],
      "stateMutability": "view"
    },
    {
      "type": "function",
      "name": "lastPurchaseTime",
      "inputs": [
        {
          "name": "",
          "type": "address",
          "internalType": "address"
        }
      ],
      "outputs": [
        {
          "name": "",
          "type": "uint256",
          "internalType": "uint256"
        }
      ],
      "stateMutability": "view"
    },
    {
      "type": "function",
      "name": "lotteryHelper",
      "inputs": [],
      "outputs": [
        {
          "name": "",
          "type": "address",
          "internalType": "contract LotteryHelper"
        }
      ],
      "stateMutability": "view"
    },
    {
      "type": "function",
      "name": "ownable",
      "inputs": [],
      "outputs": [
        {
          "name": "",
          "type": "address",
          "internalType": "contract IOwnable"
        }
      ],
      "stateMutability": "view"
    },
    {
      "type": "function",
      "name": "owner",
      "inputs": [],
      "outputs": [
        {
          "name": "",
          "type": "address",
          "internalType": "address"
        }
      ],
      "stateMutability": "view"
    },
    {
      "type": "function",
      "name": "proxiableUUID",
      "inputs": [],
      "outputs": [
        {
          "name": "",
          "type": "bytes32",
          "internalType": "bytes32"
        }
      ],
      "stateMutability": "view"
    },
    {
      "type": "function",
      "name": "recoverGameState",
      "inputs": [],
      "outputs": [],
      "stateMutability": "nonpayable"
    },
    {
      "type": "function",
      "name": "registry",
      "inputs": [],
      "outputs": [
        {
          "name": "",
          "type": "address",
          "internalType": "contract ContractRegistry"
        }
      ],
      "stateMutability": "view"
    },
    {
      "type": "function",
      "name": "renounceOwnership",
      "inputs": [],
      "outputs": [],
      "stateMutability": "nonpayable"
    },
    {
      "type": "function",
      "name": "resetPlayerCooldown",
      "inputs": [
        {
          "name": "player",
          "type": "address",
          "internalType": "address"
        }
      ],
      "outputs": [],
      "stateMutability": "nonpayable"
    },
    {
      "type": "function",
      "name": "safeAutoEndGame",
      "inputs": [],
      "outputs": [],
      "stateMutability": "nonpayable"
    },
    {
      "type": "function",
      "name": "setPurchaseCooldown",
      "inputs": [
        {
          "name": "newCooldown",
          "type": "uint256",
          "internalType": "uint256"
        }
      ],
      "outputs": [],
      "stateMutability": "nonpayable"
    },
    {
      "type": "function",
      "name": "setRegistry",
      "inputs": [
        {
          "name": "registryAddress",
          "type": "address",
          "internalType": "address"
        }
      ],
      "outputs": [],
      "stateMutability": "nonpayable"
    },
    {
      "type": "function",
      "name": "setTestMode",
      "inputs": [
        {
          "name": "enabled",
          "type": "bool",
          "internalType": "bool"
        }
      ],
      "outputs": [],
      "stateMutability": "nonpayable"
    },
    {
      "type": "function",
      "name": "setTreasuryName",
      "inputs": [
        {
          "name": "_treasuryName",
          "type": "string",
          "internalType": "string"
        }
      ],
      "outputs": [],
      "stateMutability": "nonpayable"
    },
    {
      "type": "function",
      "name": "testMode",
      "inputs": [],
      "outputs": [
        {
          "name": "",
          "type": "bool",
          "internalType": "bool"
        }
      ],
      "stateMutability": "view"
    },
    {
      "type": "function",
      "name": "transferOwnership",
      "inputs": [
        {
          "name": "newOwner",
          "type": "address",
          "internalType": "address"
        }
      ],
      "outputs": [],
      "stateMutability": "nonpayable"
    },
    {
      "type": "function",
      "name": "treasuryName",
      "inputs": [],
      "outputs": [
        {
          "name": "",
          "type": "string",
          "internalType": "string"
        }
      ],
      "stateMutability": "view"
    },
    {
      "type": "function",
      "name": "upgradeTo",
      "inputs": [
        {
          "name": "newImplementation",
          "type": "address",
          "internalType": "address"
        }
      ],
      "outputs": [],
      "stateMutability": "nonpayable"
    },
    {
      "type": "function",
      "name": "upgradeToAndCall",
      "inputs": [
        {
          "name": "newImplementation",
          "type": "address",
          "internalType": "address"
        },
        {
          "name": "data",
          "type": "bytes",
          "internalType": "bytes"
        }
      ],
      "outputs": [],
      "stateMutability": "payable"
    },
    {
      "type": "function",
      "name": "validateGameState",
      "inputs": [],
      "outputs": [
        {
          "name": "isValid",
          "type": "bool",
          "internalType": "bool"
        },
        {
          "name": "reason",
          "type": "string",
          "internalType": "string"
        },
        {
          "name": "currentState",
          "type": "uint8",
          "internalType": "uint8"
        },
        {
          "name": "timeExpired",
          "type": "bool",
          "internalType": "bool"
        }
      ],
      "stateMutability": "view"
    },
    {
      "type": "event",
      "name": "AdLotteryFeeCollected",
      "inputs": [
        {
          "name": "amount",
          "type": "uint256",
          "indexed": false,
          "internalType": "uint256"
        },
        {
          "name": "timestamp",
          "type": "uint256",
          "indexed": false,
          "internalType": "uint256"
        }
      ],
      "anonymous": false
    },
    {
      "type": "event",
      "name": "AdminChanged",
      "inputs": [
        {
          "name": "previousAdmin",
          "type": "address",
          "indexed": false,
          "internalType": "address"
        },
        {
          "name": "newAdmin",
          "type": "address",
          "indexed": false,
          "internalType": "address"
        }
      ],
      "anonymous": false
    },
    {
      "type": "event",
      "name": "BeaconUpgraded",
      "inputs": [
        {
          "name": "beacon",
          "type": "address",
          "indexed": true,
          "internalType": "address"
        }
      ],
      "anonymous": false
    },
    {
      "type": "event",
      "name": "ContractNotFound",
      "inputs": [
        {
          "name": "contractName",
          "type": "string",
          "indexed": false,
          "internalType": "string"
        },
        {
          "name": "timestamp",
          "type": "uint256",
          "indexed": false,
          "internalType": "uint256"
        }
      ],
      "anonymous": false
    },
    {
      "type": "event",
      "name": "DeveloperFeeSent",
      "inputs": [
        {
          "name": "distributor",
          "type": "address",
          "indexed": true,
          "internalType": "address"
        },
        {
          "name": "amount",
          "type": "uint256",
          "indexed": false,
          "internalType": "uint256"
        },
        {
          "name": "timestamp",
          "type": "uint256",
          "indexed": false,
          "internalType": "uint256"
        }
      ],
      "anonymous": false
    },
    {
      "type": "event",
      "name": "DistributorError",
      "inputs": [
        {
          "name": "operation",
          "type": "string",
          "indexed": false,
          "internalType": "string"
        },
        {
          "name": "reason",
          "type": "string",
          "indexed": false,
          "internalType": "string"
        },
        {
          "name": "timestamp",
          "type": "uint256",
          "indexed": false,
          "internalType": "uint256"
        }
      ],
      "anonymous": false
    },
    {
      "type": "event",
      "name": "EmergencyPaused",
      "inputs": [
        {
          "name": "by",
          "type": "address",
          "indexed": true,
          "internalType": "address"
        },
        {
          "name": "reason",
          "type": "string",
          "indexed": false,
          "internalType": "string"
        },
        {
          "name": "timestamp",
          "type": "uint256",
          "indexed": false,
          "internalType": "uint256"
        }
      ],
      "anonymous": false
    },
    {
      "type": "event",
      "name": "EmergencyResumed",
      "inputs": [
        {
          "name": "by",
          "type": "address",
          "indexed": true,
          "internalType": "address"
        },
        {
          "name": "timestamp",
          "type": "uint256",
          "indexed": false,
          "internalType": "uint256"
        }
      ],
      "anonymous": false
    },
    {
      "type": "event",
      "name": "FeeDistributed",
      "inputs": [
        {
          "name": "referralFee",
          "type": "uint256",
          "indexed": false,
          "internalType": "uint256"
        },
        {
          "name": "adLotteryFee",
          "type": "uint256",
          "indexed": false,
          "internalType": "uint256"
        },
        {
          "name": "developerFee",
          "type": "uint256",
          "indexed": false,
          "internalType": "uint256"
        },
        {
          "name": "timestamp",
          "type": "uint256",
          "indexed": false,
          "internalType": "uint256"
        }
      ],
      "anonymous": false
    },
    {
      "type": "event",
      "name": "FounderDistribution",
      "inputs": [
        {
          "name": "founder",
          "type": "address",
          "indexed": true,
          "internalType": "address"
        },
        {
          "name": "amount",
          "type": "uint256",
          "indexed": false,
          "internalType": "uint256"
        },
        {
          "name": "timestamp",
          "type": "uint256",
          "indexed": false,
          "internalType": "uint256"
        }
      ],
      "anonymous": false
    },
    {
      "type": "event",
      "name": "GameDurationUpdated",
      "inputs": [
        {
          "name": "oldValue",
          "type": "uint256",
          "indexed": false,
          "internalType": "uint256"
        },
        {
          "name": "newValue",
          "type": "uint256",
          "indexed": false,
          "internalType": "uint256"
        },
        {
          "name": "timestamp",
          "type": "uint256",
          "indexed": false,
          "internalType": "uint256"
        }
      ],
      "anonymous": false
    },
    {
      "type": "event",
      "name": "GamePerformanceMetrics",
      "inputs": [
        {
          "name": "gameNumber",
          "type": "uint256",
          "indexed": true,
          "internalType": "uint256"
        },
        {
          "name": "gasUsed",
          "type": "uint256",
          "indexed": false,
          "internalType": "uint256"
        },
        {
          "name": "playerCount",
          "type": "uint256",
          "indexed": false,
          "internalType": "uint256"
        },
        {
          "name": "jackpot",
          "type": "uint256",
          "indexed": false,
          "internalType": "uint256"
        },
        {
          "name": "timestamp",
          "type": "uint256",
          "indexed": false,
          "internalType": "uint256"
        }
      ],
      "anonymous": false
    },
    {
      "type": "event",
      "name": "GameSecurityEvent",
      "inputs": [
        {
          "name": "player",
          "type": "address",
          "indexed": true,
          "internalType": "address"
        },
        {
          "name": "eventType",
          "type": "string",
          "indexed": false,
          "internalType": "string"
        },
        {
          "name": "timestamp",
          "type": "uint256",
          "indexed": false,
          "internalType": "uint256"
        }
      ],
      "anonymous": false
    },
    {
      "type": "event",
      "name": "GameStateChanged",
      "inputs": [
        {
          "name": "gameNumber",
          "type": "uint256",
          "indexed": false,
          "internalType": "uint256"
        },
        {
          "name": "state",
          "type": "uint8",
          "indexed": false,
          "internalType": "enum StorageLayout.GameState"
        },
        {
          "name": "timestamp",
          "type": "uint256",
          "indexed": false,
          "internalType": "uint256"
        }
      ],
      "anonymous": false
    },
    {
      "type": "event",
      "name": "GameStateRecovered",
      "inputs": [
        {
          "name": "gameId",
          "type": "uint256",
          "indexed": true,
          "internalType": "uint256"
        },
        {
          "name": "timestamp",
          "type": "uint256",
          "indexed": false,
          "internalType": "uint256"
        }
      ],
      "anonymous": false
    },
    {
      "type": "event",
      "name": "GameStatsUpdated",
      "inputs": [
        {
          "name": "totalGames",
          "type": "uint256",
          "indexed": false,
          "internalType": "uint256"
        },
        {
          "name": "totalPlayers",
          "type": "uint256",
          "indexed": false,
          "internalType": "uint256"
        },
        {
          "name": "totalPayouts",
          "type": "uint256",
          "indexed": false,
          "internalType": "uint256"
        },
        {
          "name": "timestamp",
          "type": "uint256",
          "indexed": false,
          "internalType": "uint256"
        }
      ],
      "anonymous": false
    },
    {
      "type": "event",
      "name": "Initialized",
      "inputs": [
        {
          "name": "version",
          "type": "uint8",
          "indexed": false,
          "internalType": "uint8"
        }
      ],
      "anonymous": false
    },
    {
      "type": "event",
      "name": "JackpotDistributed",
      "inputs": [
        {
          "name": "winner",
          "type": "address",
          "indexed": true,
          "internalType": "address"
        },
        {
          "name": "amount",
          "type": "uint256",
          "indexed": false,
          "internalType": "uint256"
        },
        {
          "name": "gameNumber",
          "type": "uint256",
          "indexed": true,
          "internalType": "uint256"
        },
        {
          "name": "timestamp",
          "type": "uint256",
          "indexed": false,
          "internalType": "uint256"
        }
      ],
      "anonymous": false
    },
    {
      "type": "event",
      "name": "MaxTicketsPerPlayerUpdated",
      "inputs": [
        {
          "name": "oldValue",
          "type": "uint256",
          "indexed": false,
          "internalType": "uint256"
        },
        {
          "name": "newValue",
          "type": "uint256",
          "indexed": false,
          "internalType": "uint256"
        },
        {
          "name": "timestamp",
          "type": "uint256",
          "indexed": false,
          "internalType": "uint256"
        }
      ],
      "anonymous": false
    },
    {
      "type": "event",
      "name": "OwnershipTransferred",
      "inputs": [
        {
          "name": "previousOwner",
          "type": "address",
          "indexed": true,
          "internalType": "address"
        },
        {
          "name": "newOwner",
          "type": "address",
          "indexed": true,
          "internalType": "address"
        }
      ],
      "anonymous": false
    },
    {
      "type": "event",
      "name": "PlayerCooldownReset",
      "inputs": [
        {
          "name": "player",
          "type": "address",
          "indexed": true,
          "internalType": "address"
        },
        {
          "name": "timestamp",
          "type": "uint256",
          "indexed": false,
          "internalType": "uint256"
        }
      ],
      "anonymous": false
    },
    {
      "type": "event",
      "name": "PurchaseCooldownSet",
      "inputs": [
        {
          "name": "cooldown",
          "type": "uint256",
          "indexed": false,
          "internalType": "uint256"
        },
        {
          "name": "timestamp",
          "type": "uint256",
          "indexed": false,
          "internalType": "uint256"
        }
      ],
      "anonymous": false
    },
    {
      "type": "event",
      "name": "PurchaseCooldownUpdated",
      "inputs": [
        {
          "name": "newCooldown",
          "type": "uint256",
          "indexed": false,
          "internalType": "uint256"
        },
        {
          "name": "timestamp",
          "type": "uint256",
          "indexed": false,
          "internalType": "uint256"
        }
      ],
      "anonymous": false
    },
    {
      "type": "event",
      "name": "ReferralError",
      "inputs": [
        {
          "name": "operation",
          "type": "string",
          "indexed": false,
          "internalType": "string"
        },
        {
          "name": "reason",
          "type": "string",
          "indexed": false,
          "internalType": "string"
        },
        {
          "name": "timestamp",
          "type": "uint256",
          "indexed": false,
          "internalType": "uint256"
        }
      ],
      "anonymous": false
    },
    {
      "type": "event",
      "name": "RegistryError",
      "inputs": [
        {
          "name": "operation",
          "type": "string",
          "indexed": false,
          "internalType": "string"
        },
        {
          "name": "contractName",
          "type": "string",
          "indexed": false,
          "internalType": "string"
        },
        {
          "name": "timestamp",
          "type": "uint256",
          "indexed": false,
          "internalType": "uint256"
        }
      ],
      "anonymous": false
    },
    {
      "type": "event",
      "name": "RegistrySet",
      "inputs": [
        {
          "name": "registry",
          "type": "address",
          "indexed": true,
          "internalType": "address"
        },
        {
          "name": "timestamp",
          "type": "uint256",
          "indexed": false,
          "internalType": "uint256"
        }
      ],
      "anonymous": false
    },
    {
      "type": "event",
      "name": "StatsError",
      "inputs": [
        {
          "name": "operation",
          "type": "string",
          "indexed": false,
          "internalType": "string"
        },
        {
          "name": "reason",
          "type": "string",
          "indexed": false,
          "internalType": "string"
        },
        {
          "name": "timestamp",
          "type": "uint256",
          "indexed": false,
          "internalType": "uint256"
        }
      ],
      "anonymous": false
    },
    {
      "type": "event",
      "name": "TestModeSet",
      "inputs": [
        {
          "name": "enabled",
          "type": "bool",
          "indexed": false,
          "internalType": "bool"
        },
        {
          "name": "timestamp",
          "type": "uint256",
          "indexed": false,
          "internalType": "uint256"
        }
      ],
      "anonymous": false
    },
    {
      "type": "event",
      "name": "TicketPriceChanged",
      "inputs": [
        {
          "name": "oldPrice",
          "type": "uint256",
          "indexed": false,
          "internalType": "uint256"
        },
        {
          "name": "newPrice",
          "type": "uint256",
          "indexed": false,
          "internalType": "uint256"
        },
        {
          "name": "timestamp",
          "type": "uint256",
          "indexed": false,
          "internalType": "uint256"
        }
      ],
      "anonymous": false
    },
    {
      "type": "event",
      "name": "TreasuryFundsDeposited",
      "inputs": [
        {
          "name": "amount",
          "type": "uint256",
          "indexed": false,
          "internalType": "uint256"
        },
        {
          "name": "timestamp",
          "type": "uint256",
          "indexed": false,
          "internalType": "uint256"
        }
      ],
      "anonymous": false
    },
    {
      "type": "event",
      "name": "TreasuryFundsWithdrawn",
      "inputs": [
        {
          "name": "winner",
          "type": "address",
          "indexed": false,
          "internalType": "address"
        },
        {
          "name": "amount",
          "type": "uint256",
          "indexed": false,
          "internalType": "uint256"
        },
        {
          "name": "timestamp",
          "type": "uint256",
          "indexed": false,
          "internalType": "uint256"
        }
      ],
      "anonymous": false
    },
    {
      "type": "event",
      "name": "TreasuryNameSet",
      "inputs": [
        {
          "name": "treasuryName",
          "type": "string",
          "indexed": false,
          "internalType": "string"
        },
        {
          "name": "timestamp",
          "type": "uint256",
          "indexed": false,
          "internalType": "uint256"
        }
      ],
      "anonymous": false
    },
    {
      "type": "event",
      "name": "TreasuryOperationFailed",
      "inputs": [
        {
          "name": "operation",
          "type": "string",
          "indexed": false,
          "internalType": "string"
        },
        {
          "name": "timestamp",
          "type": "uint256",
          "indexed": false,
          "internalType": "uint256"
        }
      ],
      "anonymous": false
    },
    {
      "type": "event",
      "name": "TreasuryTransferFailed",
      "inputs": [
        {
          "name": "from",
          "type": "address",
          "indexed": false,
          "internalType": "address"
        },
        {
          "name": "amount",
          "type": "uint256",
          "indexed": false,
          "internalType": "uint256"
        },
        {
          "name": "reason",
          "type": "string",
          "indexed": false,
          "internalType": "string"
        },
        {
          "name": "timestamp",
          "type": "uint256",
          "indexed": false,
          "internalType": "uint256"
        }
      ],
      "anonymous": false
    },
    {
      "type": "event",
      "name": "Upgraded",
      "inputs": [
        {
          "name": "implementation",
          "type": "address",
          "indexed": true,
          "internalType": "address"
        }
      ],
      "anonymous": false
    },
    {
      "type": "event",
      "name": "WinnerPayout",
      "inputs": [
        {
          "name": "winner",
          "type": "address",
          "indexed": true,
          "internalType": "address"
        },
        {
          "name": "amount",
          "type": "uint256",
          "indexed": false,
          "internalType": "uint256"
        },
        {
          "name": "timestamp",
          "type": "uint256",
          "indexed": false,
          "internalType": "uint256"
        }
      ],
      "anonymous": false
    }
  ],
  "bytecode": {
    "object": "0x60a060405230608052610100805460ff191690553480156200002057600080fd5b506200002b62000031565b620000f3565b600054610100900460ff16156200009e5760405162461bcd60e51b815260206004820152602760248201527f496e697469616c697a61626c653a20636f6e747261637420697320696e697469604482015266616c697a696e6760c81b606482015260840160405180910390fd5b60005460ff9081161015620000f1576000805460ff191660ff9081179091556040519081527f7f26b83ff96e1f2b6a682f133852f6798a09c465da95921460cefb38474024989060200160405180910390a15b565b608051613a8c6200012b60003960008181610af001528181610b3001528181610c7801528181610cb80152610d470152613a8c6000f3fe6080604052600436106102765760003560e01c80636b8cd1441161014f578063a91ee0dc116100c1578063c61c66dd1161007a578063c61c66dd14610685578063ca1052c314610714578063cd9ea34214610729578063cf5b4fd514610744578063f2fde38b14610764578063f83fd8051461078457610289565b8063a91ee0dc14610665578063a9f7768414610685578063b38854be1461069a578063bf6df407146106ba578063bf77e7c8146106da578063c3da0cf3146106ff57610289565b806388a0f4251161011357806388a0f425146105ce5780638b235f19146105f35780638da5cb5b1461060857806393c87f0314610626578063a71669e51461063b578063a8336aa21461065057610289565b80636b8cd1441461052e5780636f9fb98a1461054e578063715018a61461056157806374baa131146105765780637b1039991461059657610289565b8063484e8b73116101e857806359328401116101ac57806359328401146104765780635d130ec6146104b15780635e3caf61146104d157806362444801146104e657806366a5ef2f146104fb57806367898fdd1461050e57610289565b8063484e8b73146104025780634bc2178f146104175780634f1ef2861461042c57806352d1902d1461043f57806353b7acdf1461045457610289565b8063227a14c11161023a578063227a14c11461035357806322f19172146103805780633358ab5a146103b75780633659cfe6146103cc5780633fead80d146102d2578063447b5727146103ec57610289565b80630dac143714610295578063117559e7146102aa57806314dd2cd1146102d25780631746bd1b146102e75780631ff1292f1461033357610289565b3661028957610287600060016107a6565b005b610287600060016107a6565b3480156102a157600080fd5b50610287610937565b3480156102b657600080fd5b506102bf600181565b6040519081526020015b60405180910390f35b3480156102de57600080fd5b506102bf600381565b3480156102f357600080fd5b506102fc610982565b6040805197885260208801969096529486019390935260608501919091521515608084015260a083015260c082015260e0016102c9565b34801561033f57600080fd5b5061028761034e3660046130d0565b610a11565b34801561035f57600080fd5b506102bf61036e366004613107565b60ff6020526000908152604090205481565b34801561038c57600080fd5b50610395610a7e565b60408051948552602085019390935291830152151560608201526080016102c9565b3480156103c357600080fd5b506102bf610ab8565b3480156103d857600080fd5b506102876103e7366004613107565b610ae6565b3480156103f857600080fd5b506102bf61010081565b34801561040e57600080fd5b50610287610bc5565b34801561042357600080fd5b506102bf600481565b61028761043a3660046131c5565b610c6e565b34801561044b57600080fd5b506102bf610d3a565b34801561046057600080fd5b50610469610dee565b6040516102c99190613279565b34801561048257600080fd5b50610496610491366004613107565b610e7c565b604080519384526020840192909252908201526060016102c9565b3480156104bd57600080fd5b506102876104cc3660046132ac565b610ebf565b3480156104dd57600080fd5b506102bf61105d565b3480156104f257600080fd5b506102bf61108e565b610287610509366004613345565b6107a6565b34801561051a57600080fd5b50610287610529366004613107565b6110f6565b34801561053a57600080fd5b50610287610549366004613371565b61115f565b34801561055a57600080fd5b50476102bf565b34801561056d57600080fd5b506102876111b0565b34801561058257600080fd5b506102876105913660046133ae565b6111c4565b3480156105a257600080fd5b5060fb546105b6906001600160a01b031681565b6040516001600160a01b0390911681526020016102c9565b3480156105da57600080fd5b506105e3611215565b6040516102c994939291906133c7565b3480156105ff57600080fd5b5061028761136f565b34801561061457600080fd5b506033546001600160a01b03166105b6565b34801561063257600080fd5b506102876113ad565b34801561064757600080fd5b506102876113bd565b34801561065c57600080fd5b506102bf611402565b34801561067157600080fd5b50610287610680366004613107565b611433565b34801561069157600080fd5b506102bf600a81565b3480156106a657600080fd5b5060fd546105b6906001600160a01b031681565b3480156106c657600080fd5b5060fe546105b6906001600160a01b031681565b3480156106e657600080fd5b506106ef6114e6565b60405190151581526020016102c9565b34801561070b57600080fd5b506102bf601e81565b34801561072057600080fd5b506102bf611534565b34801561073557600080fd5b50610100546106ef9060ff1681565b34801561075057600080fd5b5061028761075f366004613371565b611565565b34801561077057600080fd5b5061028761077f366004613107565b611576565b34801561079057600080fd5b506107996115ec565b6040516102c99190613435565b6107ae611620565b6107b781611679565b60006107c96107c4611778565b61179c565b905060006107d5611778565b60008381526020919091526040902090506001600782015460ff166002811115610801576108016133fd565b148015610812575080600201544210155b156108705760405162461bcd60e51b8152602060048201526024808201527f47616d652068617320657870697265642c2063616e6e6f7420627579207469636044820152636b65747360e01b60648201526084015b60405180910390fd5b61088161087b611778565b836117c7565b915060001982036108df5760405162461bcd60e51b815260206004820152602260248201527f47616d652068617320656e6465642c2063616e6e6f7420627579207469636b65604482015261747360f01b6064820152608401610867565b6108e882611861565b6108f33384846118d6565b6108fc34611931565b6109063485611951565b610927610911611778565b600084815260209190915260409020548461195b565b5050610933600160c955565b5050565b6000610941611778565b9050600061094e8261179c565b6000818152602084905260409020909150610968816119bb565b1561097d576109756119eb565b61097d611a79565b505050565b600080600080600080600080610996611778565b90506000808260090154116109ac5760006109bd565b600182600901546109bd9190613459565b600081815260208490526040902080546001820154600586015493945091929091906109e761108e565b6109ef6114e6565b6005860154600390960154949f939e50919c509a509850919650945092505050565b610a19611b29565b6000610a23611778565b60078101805461ff00191661010085151590810291909117909155604080519182524260208301529192507f0c3d26d617b36472fd95b3ab4a82b29d672ae9210ba48d8cc7a96e30ccabb81e91015b60405180910390a15050565b6000806000806000610a8e611778565b600481015460058201546006830154600790930154919750955090935060ff169150505b90919293565b600080610ac3611778565b90506000610ad08261179c565b6000908152602092909252506040902054919050565b6001600160a01b037f0000000000000000000000000000000000000000000000000000000000000000163003610b2e5760405162461bcd60e51b81526004016108679061346c565b7f00000000000000000000000000000000000000000000000000000000000000006001600160a01b0316610b77600080516020613a10833981519152546001600160a01b031690565b6001600160a01b031614610b9d5760405162461bcd60e51b8152600401610867906134b8565b610ba681611b83565b60408051600080825260208201909252610bc291839190611b8b565b50565b6000610bcf611778565b90506000610bdc8261179c565b60008181526020849052604090209091506001600782015460ff166002811115610c0857610c086133fd565b148015610c19575080600201544210155b1561097d57610c2782611cf6565b610c2f611a79565b817fb6db96bc44acddbc50ee01ae06e03807c49b4915434529b3c869a62296e04cc042604051610c6191815260200190565b60405180910390a2505050565b6001600160a01b037f0000000000000000000000000000000000000000000000000000000000000000163003610cb65760405162461bcd60e51b81526004016108679061346c565b7f00000000000000000000000000000000000000000000000000000000000000006001600160a01b0316610cff600080516020613a10833981519152546001600160a01b031690565b6001600160a01b031614610d255760405162461bcd60e51b8152600401610867906134b8565b610d2e82611b83565b61093382826001611b8b565b6000306001600160a01b037f00000000000000000000000000000000000000000000000000000000000000001614610dda5760405162461bcd60e51b815260206004820152603860248201527f555550535570677261646561626c653a206d757374206e6f742062652063616c60448201527f6c6564207468726f7567682064656c656761746563616c6c00000000000000006064820152608401610867565b50600080516020613a108339815191525b90565b60fc8054610dfb90613504565b80601f0160208091040260200160405190810160405280929190818152602001828054610e2790613504565b8015610e745780601f10610e4957610100808354040283529160200191610e74565b820191906000526020600020905b815481529060010190602001808311610e5757829003601f168201915b505050505081565b600080600080610e8a611778565b6001600160a01b0395909516600090815260029586016020526040902080546001820154919096015495969095945092505050565b600054610100900460ff1615808015610edf5750600054600160ff909116105b80610ef95750303b158015610ef9575060005460ff166001145b610f5c5760405162461bcd60e51b815260206004820152602e60248201527f496e697469616c697a61626c653a20636f6e747261637420697320616c72656160448201526d191e481a5b9a5d1a585b1a5e995960921b6064820152608401610867565b6000805460ff191660011790558015610f7f576000805461ff0019166101001790555b6001600160a01b038716610fcd5760405162461bcd60e51b8152602060048201526015602482015274496e76616c6964206f776e6572206164647265737360581b6044820152606401610867565b60fc610fd9838261358c565b50610fe5876000611d69565b6000610fef611778565b662386f26fc1000060048201556201518060058201556064600690910155508015611054576000805461ff0019169055604051600181527f7f26b83ff96e1f2b6a682f133852f6798a09c465da95921460cefb38474024989060200160405180910390a15b50505050505050565b600080611068611778565b905060006110758261179c565b6000908152602092909252506040902060020154919050565b600080611099611778565b905060006110a68261179c565b60008181526020849052604090209091506001600782015460ff1660028111156110d2576110d26133fd565b146110e1576000935050505090565b6110ee8160020154611e3b565b935050505090565b6110fe611b29565b6000611108611778565b6001600160a01b0383166000818152600283016020526040808220600181019290925551929350917f2b47ce68bdeb571aace54393d432df4aaeb52250bce367bde605fa39e5c33b5390610c619042815260200190565b611167611b29565b60fc611173828261358c565b507f20e73ae7ce0e3fa0df67d168abddb775f1315c79ec885fa46a47ff450f04d57781426040516111a592919061364c565b60405180910390a150565b6111b8611b29565b6111c26000611e56565b565b6111cc611b29565b60006111d6611778565b60088101839055604080518481524260208201529192507fa569980a721f6cb943e368da4d14eee89eb43a76e7f1eda8650cae67c21734fc9101610a72565b600060606000806000611226611778565b905060006112338261179c565b6000818152602084905260409020600281015442101594509091506001600782015460ff166002811115611269576112696133fd565b1480156112735750835b156112bf57505060408051808201909152601f81527f47616d6520697320616374697665206275742074696d65206578706972656400602082015260009550935060019250610ab29050565b6002600782015460ff1660028111156112da576112da6133fd565b1480156112e5575083155b1561131a5760006002856040518060600160405280602281526020016139ce6022913991909650965096509650505050610ab2565b600781015460019060ff166002811115611336576113366133fd565b60408051808201909152601381527211d85b59481cdd185d19481a5cc81d985b1a59606a1b602082015291999198509650939450505050565b6000611379611778565b905060006113868261179c565b60008181526020849052604090209091506113a0816119bb565b1561097d5761097d6119eb565b6113b5611b29565b6111c2611ea8565b60006113c7611778565b905060006113d48261179c565b600081815260208490526040812060058101549293509190036113f95761097d611a79565b610968816119bb565b60008061140d611778565b9050600061141a8261179c565b6000908152602092909252506040902060030154919050565b61143b611b29565b6001600160a01b0381166114915760405162461bcd60e51b815260206004820152601860248201527f496e76616c6964207265676973747279206164647265737300000000000000006044820152606401610867565b60fb80546001600160a01b0319166001600160a01b0383169081179091556040514281527fd9092d8db7ee512a7656796a75ec5f41fdb46bf581521c3266d4bc57e5bf6783906020015b60405180910390a250565b6000806114f1611778565b9050600080826009015411611507576000611518565b600182600901546115189190613459565b6000908152602092909252506040902060020154421015919050565b60008061153f611778565b9050600061154c8261179c565b6000908152602092909252506040902060040154919050565b61156d611b29565b610bc281611f2f565b61157e611b29565b6001600160a01b0381166115e35760405162461bcd60e51b815260206004820152602660248201527f4f776e61626c653a206e6577206f776e657220697320746865207a65726f206160448201526564647265737360d01b6064820152608401610867565b610bc281611e56565b6000806115f7611778565b905060006116048261179c565b600090815260209290925250604090206007015460ff16919050565b600260c954036116725760405162461bcd60e51b815260206004820152601f60248201527f5265656e7472616e637947756172643a207265656e7472616e742063616c6c006044820152606401610867565b600260c955565b6000611683611778565b600781015490915060ff166116cf5760405162461bcd60e51b815260206004820152601260248201527147616d65206973206e6f742061637469766560701b6044820152606401610867565b6000821161172b5760405162461bcd60e51b815260206004820152602360248201527f5469636b657420636f756e74206d75737420626520677265617465722074686160448201526206e20360ec1b6064820152608401610867565b81816004015461173b919061366e565b34146109335760405162461bcd60e51b815260206004820152600c60248201526b15dc9bdb99c8185b5bdd5b9d60a21b6044820152606401610867565b7f54a93883e668f845121f9ed2904459121a66c9b3035aae515f9eb649cbd75b1c90565b6000808260090154116117b05760006117c1565b600182600901546117c19190613459565b92915050565b600081815260208390526040812081600782015460ff1660028111156117ef576117ef6133fd565b03611815576117fc611a79565b6001846009015461180d9190613459565b9150506117c1565b6001600782015460ff166002811115611830576118306133fd565b148015611841575080600201544210155b156118595761184e6119eb565b6000199150506117c1565b509092915050565b600061186b611778565b60008381526020829052604090209091506001600782015460ff166002811115611897576118976133fd565b1461097d5760405162461bcd60e51b815260206004820152600f60248201526e47616d65206e6f742061637469766560881b6044820152606401610867565b60006118e0611778565b60008381526020829052604090209091506118fc828686611fba565b611907858534612052565b6119128183876120b9565b61192581600301548584600401546121b8565b60039091015550505050565b8015610bc25760fb546001600160a01b031615610bc257610bc2816121d9565b6109338282612261565b60005b8181101561097d5760408051828152426020820152849133917f96541f70da731142b18e96f1def4d2a7733deb7d784723106d52c1d906d4c67a910160405180910390a3806119ac81613685565b91505061195e565b600160c955565b60006001600783015460ff1660028111156119d8576119d86133fd565b1480156117c15750506002015442101590565b60006119f5611778565b90506000611a028261179c565b60008181526020849052604081206005810154929350919003611a475760078101805460ff1916600217905580546003820154600483015461097d92919060006122f3565b611a4f6123bc565b6000611a596123f3565b9050611a73826000015483600301548460040154846122f3565b50505050565b6000611a83611778565b6009810154600081815260208390526040902060058301549293509091611aab9083906124d3565b8460000160008660010160008860020160008a60070160008891906101000a81548160ff02191690836002811115611ae557611ae56133fd565b02179055505095909555949094559390935550506000600383015550611b096124f8565b600983018054906000611b1b83613685565b919050555061097d82612547565b6033546001600160a01b031633146111c25760405162461bcd60e51b815260206004820181905260248201527f4f776e61626c653a2063616c6c6572206973206e6f7420746865206f776e65726044820152606401610867565b610bc2611b29565b7f4910fdfa16fed3260ed0e7147f7cc6da11a60208b5b9406d12a635614ffd91435460ff1615611bbe5761097d836125c5565b826001600160a01b03166352d1902d6040518163ffffffff1660e01b8152600401602060405180830381865afa925050508015611c18575060408051601f3d908101601f19168201909252611c159181019061369e565b60015b611c7b5760405162461bcd60e51b815260206004820152602e60248201527f45524331393637557067726164653a206e657720696d706c656d656e7461746960448201526d6f6e206973206e6f74205555505360901b6064820152608401610867565b600080516020613a108339815191528114611cea5760405162461bcd60e51b815260206004820152602960248201527f45524331393637557067726164653a20756e737570706f727465642070726f786044820152681a58589b195555525160ba1b6064820152608401610867565b5061097d838383612661565b6000611d00611778565b600083815260208290526040902060078101805460ff19166002179055909150611d286124f8565b7f46e59b25850fb5875ea16cb7de4c6866327eef1a3f4ff23c27b3c5ad811979dd83600242604051611d5c939291906136b7565b60405180910390a1505050565b600054610100900460ff16611d905760405162461bcd60e51b8152600401610867906136d9565b6001600160a01b038216611dde5760405162461bcd60e51b8152602060048201526015602482015274496e76616c6964206f776e6572206164647265737360581b6044820152606401610867565b6001600160a01b03811615611e095760fb80546001600160a01b0319166001600160a01b0383161790555b611e11612686565b611e196126b5565b611e216126dc565b60fd80546001600160a01b0319163017905561093361270b565b6000428211611e4c57506000919050565b6117c14283613459565b603380546001600160a01b038381166001600160a01b0319831681179093556040519116919082907f8be0079c531659141344cd1fd0a4f28419497f9722a3daafe3b4186f6b6457e090600090a35050565b611ec333611ebe6033546001600160a01b031690565b612792565b611edf5760405162461bcd60e51b815260040161086790613724565b6000611ee9611778565b60078101805460ff1916600117905560405190915033907fe0dc8967738d1ca725802874d41e2ab2405df0e2eb3c61069d26d2782660d594906114db9042815260200190565b611f4533611ebe6033546001600160a01b031690565b611f615760405162461bcd60e51b815260040161086790613724565b6000611f6b611778565b60078101805460ff1916905560405190915033907fcc1b3dd39eb52913e9d184dde2ed4916801bdc2f5d6a119f2a946416893481d190611fae908590429061364c565b60405180910390a25050565b6001600160a01b038216600090815260018401602052604090205480611fe0838261374c565b10156120265760405162461bcd60e51b81526020600482015260156024820152745469636b657420636f756e74206f766572666c6f7760581b6044820152606401610867565b612030828261374c565b6001600160a01b03909316600090815260019094016020525050604090912055565b600061205c611778565b6001600160a01b038516600090815260028201602052604081208054929350918591839161208b90849061374c565b90915550504260018201556002810180548491906000906120ad90849061374c565b90915550505050505050565b60006120cc8460050185600601846127ce565b90508015611a7357600c8301546120e481600161374c565b101561212b5760405162461bcd60e51b8152602060048201526016602482015275546f74616c20706c6179657273206f766572666c6f7760501b6044820152606401610867565b600484015461213b81600161374c565b10156121815760405162461bcd60e51b8152602060048201526015602482015274506c6179657220636f756e74206f766572666c6f7760581b6044820152606401610867565b600c8301805490600061219383613685565b919050555060018460040160008282546121ad919061374c565b909155505050505050565b6000836121c58385612844565b6121cf919061374c565b90505b9392505050565b60fb54604051633581777360e01b81526001600160a01b039091169063358177739061220a9060fc906004016137dc565b602060405180830381865afa925050508015612243575060408051601f3d908101601f19168201909252612240918101906137ef565b60015b15610bc2576001600160a01b03811615610933576109338183612850565b600061226c8361296f565b9050801561097d5760008060006122828661297c565b92509250925061229283866129ae565b61229b826129d3565b6122a4816129e2565b60408051848152602081018490529081018290524260608201527f5b3735d487e9342fbcf11df79c2146f60ffabadb4d2e31ced107fe4346cd21ef9060800160405180910390a1505050505050565b6040805184815242602082015285916001600160a01b038416917f6e8dc1353ef256756a04b2d5c32fe12fa8d3a9633f52056cda478393a1b8c765910160405180910390a360408051838152602081018590524281830152905185917fbc90215e53e674c730aaa25f931a3d27c8fb234665be39704719b8accdde9c4c919081900360600190a27f46e59b25850fb5875ea16cb7de4c6866327eef1a3f4ff23c27b3c5ad811979dd846002426040516123ae939291906136b7565b60405180910390a150505050565b60006123c6611778565b905060006123d38261179c565b60009081526020929092525060409020600701805460ff19166002179055565b6000806123fe611778565b9050600080826009015411612414576000612425565b600182600901546124259190613459565b600081815260208490526040902060058101549192509061247d5760405162461bcd60e51b81526020600482015260126024820152714e6f20706c617965727320696e2067616d6560701b6044820152606401610867565b600061249e6000600184600501805490506124989190613459565b426129f1565b90508160050181815481106124b5576124b561380c565b6000918252602090912001546001600160a01b031695945050505050565b60008080808542826124e58289612b26565b9299919850919650600195509350505050565b6000612502611778565b9050600080826009015411612518576000612529565b600182600901546125299190613459565b600081815260208490526040902090915061097d8360058301612b32565b7f46e59b25850fb5875ea16cb7de4c6866327eef1a3f4ff23c27b3c5ad811979dd8160014260405161257b939291906136b7565b60405180910390a1604080516103e7815242602082015282916000917f96541f70da731142b18e96f1def4d2a7733deb7d784723106d52c1d906d4c67a910160405180910390a350565b6001600160a01b0381163b6126325760405162461bcd60e51b815260206004820152602d60248201527f455243313936373a206e657720696d706c656d656e746174696f6e206973206e60448201526c1bdd08184818dbdb9d1c9858dd609a1b6064820152608401610867565b600080516020613a1083398151915280546001600160a01b0319166001600160a01b0392909216919091179055565b61266a83612b90565b6000825111806126775750805b1561097d57611a738383612bd0565b600054610100900460ff166126ad5760405162461bcd60e51b8152600401610867906136d9565b6111c2612cbb565b600054610100900460ff166111c25760405162461bcd60e51b8152600401610867906136d9565b600054610100900460ff166127035760405162461bcd60e51b8152600401610867906136d9565b6111c2612ceb565b6000612715611778565b90508060040154600003610bc257662386f26fc100006004828101919091556201518060058301556064600683015560078083018054600160ff1991821681179092556000808052602095909552604085208581559182018590556002820185905560038201859055928101939093559190910180549091169055565b6000816001600160a01b0316836001600160a01b0316146127c55760405162461bcd60e51b815260040161086790613724565b50600192915050565b6001600160a01b03811660009081526020839052604081205460ff16156127f7575060006121d2565b508254600180820185556000948552602080862090920180546001600160a01b0319166001600160a01b03949094169384179055918452919091526040909120805460ff19168217905590565b60006121d2828461366e565b6001600160a01b038216158015906128685750600081115b15610933576040516308638fd160e01b81526001600160a01b038316906308638fd19061289e9060fc9030908690600401613822565b600060405180830381600087803b1580156128b857600080fd5b505af19250505080156128c9575060015b61293a576128d5613850565b806308c379a00361291757506128e961386b565b806128f45750612919565b6000805160206139f083398151915230838342604051611d5c94939291906138f5565b505b6000805160206139f0833981519152308242604051610a729392919061392d565b604080518281524260208201527fbec1a08e6dcd95f4cbb560bf9010af9efaf4b5b424d78d43652646cdc7726ec89101610a72565b60006117c182600a612d12565b600080600061298c846003612d12565b9250612999846004612d12565b91506129a6846003612d12565b929491935050565b6129b88133612d2a565b80156129c45750600082115b15610933576109338133612d52565b8015610bc257610bc281612d7b565b8015610bc257610bc281612db6565b6000838311612a325760405162461bcd60e51b815260206004820152600d60248201526c496e76616c69642072616e676560981b6044820152606401610867565b600019612a3f8585613459565b1115612a7f5760405162461bcd60e51b815260206004820152600f60248201526e52616e676520746f6f206c6172676560881b6044820152606401610867565b6000424443612a8f600182613459565b4033875a604080516020810198909852870195909552606080870194909452608086019290925290911b6bffffffffffffffffffffffff191660a084015260b483015260d482015260f40160408051601f1981840301815291905280516020909101209050612afe8585613459565b612b0990600161374c565b612b139082613989565b612b1d908661374c565b95945050505050565b60006121d2828461374c565b805460005b81811015611a73576000846001016000858481548110612b5957612b5961380c565b60009182526020808320909101546001600160a01b0316835282019290925260400190205580612b8881613685565b915050612b37565b612b99816125c5565b6040516001600160a01b038216907fbc7cd75a20ee27fd9adebab32041f755214dbc6bffa90cc0225b39da2e5c2d3b90600090a250565b60606001600160a01b0383163b612c385760405162461bcd60e51b815260206004820152602660248201527f416464726573733a2064656c65676174652063616c6c20746f206e6f6e2d636f6044820152651b9d1c9858dd60d21b6064820152608401610867565b600080846001600160a01b031684604051612c53919061399d565b600060405180830381855af49150503d8060008114612c8e576040519150601f19603f3d011682016040523d82523d6000602084013e612c93565b606091505b5091509150612b1d8282604051806060016040528060278152602001613a3060279139612dd6565b600054610100900460ff16612ce25760405162461bcd60e51b8152600401610867906136d9565b6111c233611e56565b600054610100900460ff166119b45760405162461bcd60e51b8152600401610867906136d9565b60006064612d20838561366e565b6121d291906139b9565b60006001600160a01b038316158015906121d25750506001600160a01b039182169116141590565b612d5c8282612d2a565b156109335760fb546001600160a01b0316156109335761093382612def565b8015610bc257604080518281524260208201527f6eac9fa4c5b54637971e9ed2cb39933d7d2d10c9438ff8ccf4e61a4e6c5cfa1b91016111a5565b8015610bc25760fb546001600160a01b031615610bc257610bc281612f06565b60608315612de55750816121d2565b6121d283836130a6565b60fb546001600160a01b031615610bc25760fb54604051633581777360e01b815260206004820152601360248201527210dc9e5c1d1bdb1bdd1d1bd49959995c9c985b606a1b60448201526001600160a01b0390911690633581777390606401602060405180830381865afa158015612e6c573d6000803e3d6000fd5b505050506040513d601f19601f82011682018060405250810190612e9091906137ef565b60405163da46bdad60e01b81526001600160a01b03838116600483015260006024830181905292169163da46bdad9160440160206040518083038185885af193505050508015612efd575060408051601f3d908101601f19168201909252612efa9181019061369e565b60015b15610bc2575050565b60fb546001600160a01b031615610bc25760fb54604051633581777360e01b815260206004820152600f60248201526e2a3932b0b9bab93ca6b0b730b3b2b960891b60448201526001600160a01b0390911690633581777390606401602060405180830381865afa158015612f7f573d6000803e3d6000fd5b505050506040513d601f19601f82011682018060405250810190612fa391906137ef565b6001600160a01b031663f077022a60fc33846040518463ffffffff1660e01b8152600401612fd393929190613822565b600060405180830381600087803b158015612fed57600080fd5b505af1925050508015612ffe575060015b61306f5761300a613850565b806308c379a00361304c575061301e61386b565b80613029575061304e565b6000805160206139f083398151915230838342604051610a7294939291906138f5565b505b6000805160206139f08339815191523082426040516111a59392919061392d565b6040805182815242602082015233917f495c3002bc7d0caa928355d3d9493820bf3dd5b333363c341a09948e12a1db0e91016114db565b8151156130b65781518083602001fd5b8060405162461bcd60e51b81526004016108679190613279565b6000602082840312156130e257600080fd5b813580151581146121d257600080fd5b6001600160a01b0381168114610bc257600080fd5b60006020828403121561311957600080fd5b81356121d2816130f2565b634e487b7160e01b600052604160045260246000fd5b601f8201601f1916810167ffffffffffffffff8111828210171561316057613160613124565b6040525050565b600067ffffffffffffffff83111561318157613181613124565b604051613198601f8501601f19166020018261313a565b8091508381528484840111156131ad57600080fd5b83836020830137600060208583010152509392505050565b600080604083850312156131d857600080fd5b82356131e3816130f2565b9150602083013567ffffffffffffffff8111156131ff57600080fd5b8301601f8101851361321057600080fd5b61321f85823560208401613167565b9150509250929050565b60005b8381101561324457818101518382015260200161322c565b50506000910152565b60008151808452613265816020860160208601613229565b601f01601f19169290920160200192915050565b6020815260006121d2602083018461324d565b600082601f83011261329d57600080fd5b6121d283833560208501613167565b60008060008060008060c087890312156132c557600080fd5b86356132d0816130f2565b955060208701356132e0816130f2565b945060408701356132f0816130f2565b93506060870135613300816130f2565b92506080870135613310816130f2565b915060a087013567ffffffffffffffff81111561332c57600080fd5b61333889828a0161328c565b9150509295509295509295565b6000806040838503121561335857600080fd5b8235613363816130f2565b946020939093013593505050565b60006020828403121561338357600080fd5b813567ffffffffffffffff81111561339a57600080fd5b6133a68482850161328c565b949350505050565b6000602082840312156133c057600080fd5b5035919050565b84151581526080602082015260006133e2608083018661324d565b60ff9490941660408301525090151560609091015292915050565b634e487b7160e01b600052602160045260246000fd5b6003811061343157634e487b7160e01b600052602160045260246000fd5b9052565b602081016117c18284613413565b634e487b7160e01b600052601160045260246000fd5b818103818111156117c1576117c1613443565b6020808252602c908201527f46756e6374696f6e206d7573742062652063616c6c6564207468726f7567682060408201526b19195b1959d85d1958d85b1b60a21b606082015260800190565b6020808252602c908201527f46756e6374696f6e206d7573742062652063616c6c6564207468726f7567682060408201526b6163746976652070726f787960a01b606082015260800190565b600181811c9082168061351857607f821691505b60208210810361353857634e487b7160e01b600052602260045260246000fd5b50919050565b601f82111561097d57600081815260208120601f850160051c810160208610156135655750805b601f850160051c820191505b8181101561358457828155600101613571565b505050505050565b815167ffffffffffffffff8111156135a6576135a6613124565b6135ba816135b48454613504565b8461353e565b602080601f8311600181146135ef57600084156135d75750858301515b600019600386901b1c1916600185901b178555613584565b600085815260208120601f198616915b8281101561361e578886015182559484019460019091019084016135ff565b508582101561363c5787850151600019600388901b60f8161c191681555b5050505050600190811b01905550565b60408152600061365f604083018561324d565b90508260208301529392505050565b80820281158282048414176117c1576117c1613443565b60006001820161369757613697613443565b5060010190565b6000602082840312156136b057600080fd5b5051919050565b838152606081016136cb6020830185613413565b826040830152949350505050565b6020808252602b908201527f496e697469616c697a61626c653a20636f6e7472616374206973206e6f74206960408201526a6e697469616c697a696e6760a81b606082015260800190565b6020808252600e908201526d139bdd08185d5d1a1bdc9a5e995960921b604082015260600190565b808201808211156117c1576117c1613443565b6000815461376c81613504565b80855260206001838116801561378957600181146137a3576137d1565b60ff1985168884015283151560051b8801830195506137d1565b866000528260002060005b858110156137c95781548a82018601529083019084016137ae565b890184019650505b505050505092915050565b6020815260006121d2602083018461375f565b60006020828403121561380157600080fd5b81516121d2816130f2565b634e487b7160e01b600052603260045260246000fd5b606081526000613835606083018661375f565b6001600160a01b039490941660208301525060400152919050565b600060033d1115610deb5760046000803e5060005160e01c90565b600060443d10156138795790565b6040516003193d81016004833e81513d67ffffffffffffffff81602484011181841117156138a957505050505090565b82850191508151818111156138c15750505050505090565b843d87010160208285010111156138db5750505050505090565b6138ea6020828601018761313a565b509095945050505050565b60018060a01b038516815283602082015260806040820152600061391c608083018561324d565b905082606083015295945050505050565b6001600160a01b039390931683526020830191909152608060408301819052600d908301526c2ab735b737bbb71032b93937b960991b60a0830152606082015260c00190565b634e487b7160e01b600052601260045260246000fd5b60008261399857613998613973565b500690565b600082516139af818460208701613229565b9190910192915050565b6000826139c8576139c8613973565b50049056fe47616d6520697320656e646564206275742074696d65206e6f742065787069726564419f1e3e5b764ed411bdfb5b2bcb8cd5c4c11e630da8354d290eb2ce1534bc15360894a13ba1a3210667c828492db98dca3e2076cc3735a920a3ca505d382bbc416464726573733a206c6f772d6c6576656c2064656c65676174652063616c6c206661696c6564a264697066735822122019495e0fd5c7807e13a380e90be3a5e67802a5c85dbb956a0d7ca0d07f5bde9764736f6c63430008130033",
    "linkReferences": {}
  },
  "methodIdentifiers": {
    "AD_LOTTERY_FEE_PERCENT()": "4bc2178f",
    "DEVELOPER_FEE_PERCENT()": "14dd2cd1",
    "MAX_BLOCK_DELAY()": "447b5727",
    "MAX_TICKETS_PER_TRANSACTION()": "c61c66dd",
    "MIN_BLOCK_DELAY()": "117559e7",
    "PURCHASE_COOLDOWN()": "c3da0cf3",
    "REFERRAL_FEE_PERCENT()": "3fead80d",
    "TOTAL_FEE_PERCENT()": "a9f77684",
    "autoEndGame()": "0dac1437",
    "buyTicket(address,uint256)": "66a5ef2f",
    "checkAndEndGame()": "8b235f19",
    "emergencyPause(string)": "cf5b4fd5",
    "emergencyResume()": "93c87f03",
    "getContractBalance()": "6f9fb98a",
    "getCurrentGameEndTime()": "5e3caf61",
    "getCurrentGameJackpot()": "a8336aa2",
    "getCurrentGameNumber()": "3358ab5a",
    "getCurrentGamePlayerCount()": "ca1052c3",
    "getCurrentGameState()": "f83fd805",
    "getGameConfig()": "22f19172",
    "getGameInfo()": "1746bd1b",
    "getPlayerInfo(address)": "59328401",
    "getRemainingGameTime()": "62444801",
    "initialize(address,address,address,address,address,string)": "5d130ec6",
    "isGameTimeExpired()": "bf77e7c8",
    "lastPurchaseTime(address)": "227a14c1",
    "lotteryHelper()": "bf6df407",
    "ownable()": "b38854be",
    "owner()": "8da5cb5b",
    "proxiableUUID()": "52d1902d",
    "recoverGameState()": "484e8b73",
    "registry()": "7b103999",
    "renounceOwnership()": "715018a6",
    "resetPlayerCooldown(address)": "67898fdd",
    "safeAutoEndGame()": "a71669e5",
    "setPurchaseCooldown(uint256)": "74baa131",
    "setRegistry(address)": "a91ee0dc",
    "setTestMode(bool)": "1ff1292f",
    "setTreasuryName(string)": "6b8cd144",
    "testMode()": "cd9ea342",
    "transferOwnership(address)": "f2fde38b",
    "treasuryName()": "53b7acdf",
    "upgradeTo(address)": "3659cfe6",
    "upgradeToAndCall(address,bytes)": "4f1ef286",
    "validateGameState()": "88a0f425"
  },
  "storageLayout": {
    "storage": [
      {
        "astId": 57331,
        "contract": "contracts/modules/lottery/Cryptolotto1Day.sol:Cryptolotto1Day",
        "label": "_initialized",
        "offset": 0,
        "slot": "0",
        "type": "t_uint8"
      },
      {
        "astId": 57334,
        "contract": "contracts/modules/lottery/Cryptolotto1Day.sol:Cryptolotto1Day",
        "label": "_initializing",
        "offset": 1,
        "slot": "0",
        "type": "t_bool"
      },
      {
        "astId": 58027,
        "contract": "contracts/modules/lottery/Cryptolotto1Day.sol:Cryptolotto1Day",
        "label": "__gap",
        "offset": 0,
        "slot": "1",
        "type": "t_array(t_uint256)50_storage"
      },
      {
        "astId": 56807,
        "contract": "contracts/modules/lottery/Cryptolotto1Day.sol:Cryptolotto1Day",
        "label": "_owner",
        "offset": 0,
        "slot": "51",
        "type": "t_address"
      },
      {
        "astId": 56927,
        "contract": "contracts/modules/lottery/Cryptolotto1Day.sol:Cryptolotto1Day",
        "label": "__gap",
        "offset": 0,
        "slot": "52",
        "type": "t_array(t_uint256)49_storage"
      },
      {
        "astId": 57313,
        "contract": "contracts/modules/lottery/Cryptolotto1Day.sol:Cryptolotto1Day",
        "label": "__gap",
        "offset": 0,
        "slot": "101",
        "type": "t_array(t_uint256)50_storage"
      },
      {
        "astId": 57628,
        "contract": "contracts/modules/lottery/Cryptolotto1Day.sol:Cryptolotto1Day",
        "label": "__gap",
        "offset": 0,
        "slot": "151",
        "type": "t_array(t_uint256)50_storage"
      },
      {
        "astId": 57643,
        "contract": "contracts/modules/lottery/Cryptolotto1Day.sol:Cryptolotto1Day",
        "label": "_status",
        "offset": 0,
        "slot": "201",
        "type": "t_uint256"
      },
      {
        "astId": 57701,
        "contract": "contracts/modules/lottery/Cryptolotto1Day.sol:Cryptolotto1Day",
        "label": "__gap",
        "offset": 0,
        "slot": "202",
        "type": "t_array(t_uint256)49_storage"
      },
      {
        "astId": 3042,
        "contract": "contracts/modules/lottery/Cryptolotto1Day.sol:Cryptolotto1Day",
        "label": "registry",
        "offset": 0,
        "slot": "251",
        "type": "t_contract(ContractRegistry)15680"
      },
      {
        "astId": 3045,
        "contract": "contracts/modules/lottery/Cryptolotto1Day.sol:Cryptolotto1Day",
        "label": "treasuryName",
        "offset": 0,
        "slot": "252",
        "type": "t_string_storage"
      },
      {
        "astId": 3049,
        "contract": "contracts/modules/lottery/Cryptolotto1Day.sol:Cryptolotto1Day",
        "label": "ownable",
        "offset": 0,
        "slot": "253",
        "type": "t_contract(IOwnable)12597"
      },
      {
        "astId": 3064,
        "contract": "contracts/modules/lottery/Cryptolotto1Day.sol:Cryptolotto1Day",
        "label": "lotteryHelper",
        "offset": 0,
        "slot": "254",
        "type": "t_contract(LotteryHelper)17498"
      },
      {
        "astId": 6264,
        "contract": "contracts/modules/lottery/Cryptolotto1Day.sol:Cryptolotto1Day",
        "label": "lastPurchaseTime",
        "offset": 0,
        "slot": "255",
        "type": "t_mapping(t_address,t_uint256)"
      },
      {
        "astId": 6268,
        "contract": "contracts/modules/lottery/Cryptolotto1Day.sol:Cryptolotto1Day",
        "label": "testMode",
        "offset": 0,
        "slot": "256",
        "type": "t_bool"
      }
    ],
    "types": {
      "t_address": {
        "encoding": "inplace",
        "label": "address",
        "numberOfBytes": "20"
      },
      "t_array(t_uint256)49_storage": {
        "encoding": "inplace",
        "label": "uint256[49]",
        "numberOfBytes": "1568",
        "base": "t_uint256"
      },
      "t_array(t_uint256)50_storage": {
        "encoding": "inplace",
        "label": "uint256[50]",
        "numberOfBytes": "1600",
        "base": "t_uint256"
      },
      "t_bool": {
        "encoding": "inplace",
        "label": "bool",
        "numberOfBytes": "1"
      },
      "t_contract(ContractRegistry)15680": {
        "encoding": "inplace",
        "label": "contract ContractRegistry",
        "numberOfBytes": "20"
      },
      "t_contract(IOwnable)12597": {
        "encoding": "inplace",
        "label": "contract IOwnable",
        "numberOfBytes": "20"
      },
      "t_contract(LotteryHelper)17498": {
        "encoding": "inplace",
        "label": "contract LotteryHelper",
        "numberOfBytes": "20"
      },
      "t_mapping(t_address,t_uint256)": {
        "encoding": "mapping",
        "key": "t_address",
        "label": "mapping(address => uint256)",
        "numberOfBytes": "32",
        "value": "t_uint256"
      },
      "t_string_storage": {
        "encoding": "bytes",
        "label": "string",
        "numberOfBytes": "32"
      },
      "t_uint256": {
        "encoding": "inplace",
        "label": "uint256",
        "numberOfBytes": "32"
      },
      "t_uint8": {
        "encoding": "inplace",
        "label": "uint8",
        "numberOfBytes": "1"
      }
    }
  },
  "id": 5
}