{"abi":[{"type":"constructor","inputs":[],"stateMutability":"nonpayable"},{"type":"fallback","stateMutability":"payable"},{"type":"receive","stateMutability":"payable"},{"type":"function","name":"AD_LOTTERY_FEE_PERCENT","inputs":[],"outputs":[{"name":"","type":"uint256","internalType":"uint256"}],"stateMutability":"view"},{"type":"function","name":"DEVELOPER_FEE_PERCENT","inputs":[],"outputs":[{"name":"","type":"uint256","internalType":"uint256"}],"stateMutability":"view"},{"type":"function","name":"REFERRAL_FEE_PERCENT","inputs":[],"outputs":[{"name":"","type":"uint256","internalType":"uint256"}],"stateMutability":"view"},{"type":"function","name":"TOTAL_FEE_PERCENT","inputs":[],"outputs":[{"name":"","type":"uint256","internalType":"uint256"}],"stateMutability":"view"},{"type":"function","name":"adLotteryFee","inputs":[],"outputs":[{"name":"","type":"uint256","internalType":"uint256"}],"stateMutability":"view"},{"type":"function","name":"adToken","inputs":[],"outputs":[{"name":"","type":"address","internalType":"contract IAdToken"}],"stateMutability":"view"},{"type":"function","name":"autoEndGame","inputs":[],"outputs":[],"stateMutability":"nonpayable"},{"type":"function","name":"buyAdTicket","inputs":[{"name":"ticketCount","type":"uint256","internalType":"uint256"}],"outputs":[],"stateMutability":"nonpayable"},{"type":"function","name":"buyAdTicketBatch","inputs":[{"name":"ticketCounts","type":"uint256[]","internalType":"uint256[]"}],"outputs":[],"stateMutability":"nonpayable"},{"type":"function","name":"buyTicket","inputs":[{"name":"referrer","type":"address","internalType":"address"},{"name":"ticketCount","type":"uint256","internalType":"uint256"}],"outputs":[],"stateMutability":"payable"},{"type":"function","name":"checkAndEndGame","inputs":[],"outputs":[],"stateMutability":"nonpayable"},{"type":"function","name":"emergencyPause","inputs":[{"name":"reason","type":"string","internalType":"string"}],"outputs":[],"stateMutability":"nonpayable"},{"type":"function","name":"emergencyResume","inputs":[],"outputs":[],"stateMutability":"nonpayable"},{"type":"function","name":"getAdLotteryInfo","inputs":[],"outputs":[{"name":"currentGameId","type":"uint256","internalType":"uint256"},{"name":"ticketPrice","type":"uint256","internalType":"uint256"},{"name":"gameDuration","type":"uint256","internalType":"uint256"},{"name":"maxTickets","type":"uint256","internalType":"uint256"},{"name":"adLotteryFeePercent","type":"uint256","internalType":"uint256"},{"name":"adTokenBalance","type":"uint256","internalType":"uint256"},{"name":"isActive","type":"bool","internalType":"bool"}],"stateMutability":"view"},{"type":"function","name":"getAdLotteryTreasuryName","inputs":[{"name":"adLotteryAddress","type":"address","internalType":"address"}],"outputs":[{"name":"","type":"string","internalType":"string"}],"stateMutability":"view"},{"type":"function","name":"getAdTokenBalance","inputs":[],"outputs":[{"name":"","type":"uint256","internalType":"uint256"}],"stateMutability":"view"},{"type":"function","name":"getAdTokenBurnedAmount","inputs":[],"outputs":[{"name":"","type":"uint256","internalType":"uint256"}],"stateMutability":"view"},{"type":"function","name":"getContractBalance","inputs":[],"outputs":[{"name":"","type":"uint256","internalType":"uint256"}],"stateMutability":"view"},{"type":"function","name":"getCurrentGameEndTime","inputs":[],"outputs":[{"name":"","type":"uint256","internalType":"uint256"}],"stateMutability":"view"},{"type":"function","name":"getCurrentGameJackpot","inputs":[],"outputs":[{"name":"","type":"uint256","internalType":"uint256"}],"stateMutability":"view"},{"type":"function","name":"getCurrentGameNumber","inputs":[],"outputs":[{"name":"","type":"uint256","internalType":"uint256"}],"stateMutability":"view"},{"type":"function","name":"getCurrentGamePlayerCount","inputs":[],"outputs":[{"name":"","type":"uint256","internalType":"uint256"}],"stateMutability":"view"},{"type":"function","name":"getCurrentGameState","inputs":[],"outputs":[{"name":"","type":"uint8","internalType":"enum StorageLayout.GameState"}],"stateMutability":"view"},{"type":"function","name":"getGameConfig","inputs":[],"outputs":[{"name":"ticketPrice","type":"uint256","internalType":"uint256"},{"name":"gameDuration","type":"uint256","internalType":"uint256"},{"name":"maxTicketsPerPlayer","type":"uint256","internalType":"uint256"},{"name":"isActive","type":"bool","internalType":"bool"}],"stateMutability":"view"},{"type":"function","name":"getPlayerInfo","inputs":[{"name":"player","type":"address","internalType":"address"}],"outputs":[{"name":"ticketCount","type":"uint256","internalType":"uint256"},{"name":"lastPurchaseTime","type":"uint256","internalType":"uint256"},{"name":"totalSpent","type":"uint256","internalType":"uint256"}],"stateMutability":"view"},{"type":"function","name":"getRemainingGameTime","inputs":[],"outputs":[{"name":"","type":"uint256","internalType":"uint256"}],"stateMutability":"view"},{"type":"function","name":"initialize","inputs":[{"name":"owner","type":"address","internalType":"address"},{"name":"","type":"address","internalType":"address"},{"name":"","type":"address","internalType":"address"},{"name":"","type":"address","internalType":"address"},{"name":"","type":"address","internalType":"address"},{"name":"_treasuryName","type":"string","internalType":"string"}],"outputs":[],"stateMutability":"nonpayable"},{"type":"function","name":"isGameTimeExpired","inputs":[],"outputs":[{"name":"","type":"bool","internalType":"bool"}],"stateMutability":"view"},{"type":"function","name":"lastPurchaseTime","inputs":[{"name":"","type":"address","internalType":"address"}],"outputs":[{"name":"","type":"uint256","internalType":"uint256"}],"stateMutability":"view"},{"type":"function","name":"lotteryHelper","inputs":[],"outputs":[{"name":"","type":"address","internalType":"contract LotteryHelper"}],"stateMutability":"view"},{"type":"function","name":"ownable","inputs":[],"outputs":[{"name":"","type":"address","internalType":"contract IOwnable"}],"stateMutability":"view"},{"type":"function","name":"owner","inputs":[],"outputs":[{"name":"","type":"address","internalType":"address"}],"stateMutability":"view"},{"type":"function","name":"processNewFee","inputs":[{"name":"amount","type":"uint256","internalType":"uint256"}],"outputs":[],"stateMutability":"nonpayable"},{"type":"function","name":"proxiableUUID","inputs":[],"outputs":[{"name":"","type":"bytes32","internalType":"bytes32"}],"stateMutability":"view"},{"type":"function","name":"recoverGameState","inputs":[],"outputs":[],"stateMutability":"nonpayable"},{"type":"function","name":"registry","inputs":[],"outputs":[{"name":"","type":"address","internalType":"contract ContractRegistry"}],"stateMutability":"view"},{"type":"function","name":"renounceOwnership","inputs":[],"outputs":[],"stateMutability":"nonpayable"},{"type":"function","name":"resetPlayerCooldown","inputs":[{"name":"player","type":"address","internalType":"address"}],"outputs":[],"stateMutability":"nonpayable"},{"type":"function","name":"safeAutoEndGame","inputs":[],"outputs":[],"stateMutability":"nonpayable"},{"type":"function","name":"setAdLotteryFee","inputs":[{"name":"newFee","type":"uint256","internalType":"uint256"}],"outputs":[],"stateMutability":"nonpayable"},{"type":"function","name":"setAdToken","inputs":[{"name":"adTokenAddress","type":"address","internalType":"address"}],"outputs":[],"stateMutability":"nonpayable"},{"type":"function","name":"setPurchaseCooldown","inputs":[{"name":"newCooldown","type":"uint256","internalType":"uint256"}],"outputs":[],"stateMutability":"nonpayable"},{"type":"function","name":"setRegistry","inputs":[{"name":"registryAddress","type":"address","internalType":"address"}],"outputs":[],"stateMutability":"nonpayable"},{"type":"function","name":"setTestMode","inputs":[{"name":"enabled","type":"bool","internalType":"bool"}],"outputs":[],"stateMutability":"nonpayable"},{"type":"function","name":"setTreasuryName","inputs":[{"name":"_treasuryName","type":"string","internalType":"string"}],"outputs":[],"stateMutability":"nonpayable"},{"type":"function","name":"transferOwnership","inputs":[{"name":"newOwner","type":"address","internalType":"address"}],"outputs":[],"stateMutability":"nonpayable"},{"type":"function","name":"treasuryName","inputs":[],"outputs":[{"name":"","type":"string","internalType":"string"}],"stateMutability":"view"},{"type":"function","name":"upgradeTo","inputs":[{"name":"newImplementation","type":"address","internalType":"address"}],"outputs":[],"stateMutability":"nonpayable"},{"type":"function","name":"upgradeToAndCall","inputs":[{"name":"newImplementation","type":"address","internalType":"address"},{"name":"data","type":"bytes","internalType":"bytes"}],"outputs":[],"stateMutability":"payable"},{"type":"function","name":"validateGameState","inputs":[],"outputs":[{"name":"isValid","type":"bool","internalType":"bool"},{"name":"reason","type":"string","internalType":"string"},{"name":"currentState","type":"uint8","internalType":"uint8"},{"name":"timeExpired","type":"bool","internalType":"bool"}],"stateMutability":"view"},{"type":"function","name":"withdrawAdTokens","inputs":[{"name":"amount","type":"uint256","internalType":"uint256"}],"outputs":[],"stateMutability":"nonpayable"},{"type":"event","name":"AdLotteryFeeCollected","inputs":[{"name":"amount","type":"uint256","indexed":false,"internalType":"uint256"},{"name":"timestamp","type":"uint256","indexed":false,"internalType":"uint256"}],"anonymous":false},{"type":"event","name":"AdTokenSet","inputs":[{"name":"adToken","type":"address","indexed":true,"internalType":"address"},{"name":"timestamp","type":"uint256","indexed":false,"internalType":"uint256"}],"anonymous":false},{"type":"event","name":"AdminChanged","inputs":[{"name":"previousAdmin","type":"address","indexed":false,"internalType":"address"},{"name":"newAdmin","type":"address","indexed":false,"internalType":"address"}],"anonymous":false},{"type":"event","name":"BeaconUpgraded","inputs":[{"name":"beacon","type":"address","indexed":true,"internalType":"address"}],"anonymous":false},{"type":"event","name":"ContractNotFound","inputs":[{"name":"contractName","type":"string","indexed":false,"internalType":"string"},{"name":"timestamp","type":"uint256","indexed":false,"internalType":"uint256"}],"anonymous":false},{"type":"event","name":"DeveloperFeeSent","inputs":[{"name":"distributor","type":"address","indexed":true,"internalType":"address"},{"name":"amount","type":"uint256","indexed":false,"internalType":"uint256"},{"name":"timestamp","type":"uint256","indexed":false,"internalType":"uint256"}],"anonymous":false},{"type":"event","name":"DistributorError","inputs":[{"name":"operation","type":"string","indexed":false,"internalType":"string"},{"name":"reason","type":"string","indexed":false,"internalType":"string"},{"name":"timestamp","type":"uint256","indexed":false,"internalType":"uint256"}],"anonymous":false},{"type":"event","name":"EmergencyPaused","inputs":[{"name":"by","type":"address","indexed":true,"internalType":"address"},{"name":"reason","type":"string","indexed":false,"internalType":"string"},{"name":"timestamp","type":"uint256","indexed":false,"internalType":"uint256"}],"anonymous":false},{"type":"event","name":"EmergencyResumed","inputs":[{"name":"by","type":"address","indexed":true,"internalType":"address"},{"name":"timestamp","type":"uint256","indexed":false,"internalType":"uint256"}],"anonymous":false},{"type":"event","name":"FeeDistributed","inputs":[{"name":"referralFee","type":"uint256","indexed":false,"internalType":"uint256"},{"name":"adLotteryFee","type":"uint256","indexed":false,"internalType":"uint256"},{"name":"developerFee","type":"uint256","indexed":false,"internalType":"uint256"},{"name":"timestamp","type":"uint256","indexed":false,"internalType":"uint256"}],"anonymous":false},{"type":"event","name":"FounderDistribution","inputs":[{"name":"founder","type":"address","indexed":true,"internalType":"address"},{"name":"amount","type":"uint256","indexed":false,"internalType":"uint256"},{"name":"timestamp","type":"uint256","indexed":false,"internalType":"uint256"}],"anonymous":false},{"type":"event","name":"GameDurationUpdated","inputs":[{"name":"oldValue","type":"uint256","indexed":false,"internalType":"uint256"},{"name":"newValue","type":"uint256","indexed":false,"internalType":"uint256"},{"name":"timestamp","type":"uint256","indexed":false,"internalType":"uint256"}],"anonymous":false},{"type":"event","name":"GamePerformanceMetrics","inputs":[{"name":"gameNumber","type":"uint256","indexed":true,"internalType":"uint256"},{"name":"gasUsed","type":"uint256","indexed":false,"internalType":"uint256"},{"name":"playerCount","type":"uint256","indexed":false,"internalType":"uint256"},{"name":"jackpot","type":"uint256","indexed":false,"internalType":"uint256"},{"name":"timestamp","type":"uint256","indexed":false,"internalType":"uint256"}],"anonymous":false},{"type":"event","name":"GameSecurityEvent","inputs":[{"name":"player","type":"address","indexed":true,"internalType":"address"},{"name":"eventType","type":"string","indexed":false,"internalType":"string"},{"name":"timestamp","type":"uint256","indexed":false,"internalType":"uint256"}],"anonymous":false},{"type":"event","name":"GameStateChanged","inputs":[{"name":"gameNumber","type":"uint256","indexed":false,"internalType":"uint256"},{"name":"state","type":"uint8","indexed":false,"internalType":"enum StorageLayout.GameState"},{"name":"timestamp","type":"uint256","indexed":false,"internalType":"uint256"}],"anonymous":false},{"type":"event","name":"GameStateRecovered","inputs":[{"name":"gameId","type":"uint256","indexed":true,"internalType":"uint256"},{"name":"timestamp","type":"uint256","indexed":false,"internalType":"uint256"}],"anonymous":false},{"type":"event","name":"GameStatsUpdated","inputs":[{"name":"totalGames","type":"uint256","indexed":false,"internalType":"uint256"},{"name":"totalPlayers","type":"uint256","indexed":false,"internalType":"uint256"},{"name":"totalPayouts","type":"uint256","indexed":false,"internalType":"uint256"},{"name":"timestamp","type":"uint256","indexed":false,"internalType":"uint256"}],"anonymous":false},{"type":"event","name":"Initialized","inputs":[{"name":"version","type":"uint8","indexed":false,"internalType":"uint8"}],"anonymous":false},{"type":"event","name":"JackpotDistributed","inputs":[{"name":"winner","type":"address","indexed":true,"internalType":"address"},{"name":"amount","type":"uint256","indexed":false,"internalType":"uint256"},{"name":"gameNumber","type":"uint256","indexed":true,"internalType":"uint256"},{"name":"timestamp","type":"uint256","indexed":false,"internalType":"uint256"}],"anonymous":false},{"type":"event","name":"MaxTicketsPerPlayerUpdated","inputs":[{"name":"oldValue","type":"uint256","indexed":false,"internalType":"uint256"},{"name":"newValue","type":"uint256","indexed":false,"internalType":"uint256"},{"name":"timestamp","type":"uint256","indexed":false,"internalType":"uint256"}],"anonymous":false},{"type":"event","name":"OwnershipTransferred","inputs":[{"name":"previousOwner","type":"address","indexed":true,"internalType":"address"},{"name":"newOwner","type":"address","indexed":true,"internalType":"address"}],"anonymous":false},{"type":"event","name":"PlayerCooldownReset","inputs":[{"name":"player","type":"address","indexed":true,"internalType":"address"},{"name":"timestamp","type":"uint256","indexed":false,"internalType":"uint256"}],"anonymous":false},{"type":"event","name":"PurchaseCooldownSet","inputs":[{"name":"cooldown","type":"uint256","indexed":false,"internalType":"uint256"},{"name":"timestamp","type":"uint256","indexed":false,"internalType":"uint256"}],"anonymous":false},{"type":"event","name":"ReferralError","inputs":[{"name":"operation","type":"string","indexed":false,"internalType":"string"},{"name":"reason","type":"string","indexed":false,"internalType":"string"},{"name":"timestamp","type":"uint256","indexed":false,"internalType":"uint256"}],"anonymous":false},{"type":"event","name":"RegistryError","inputs":[{"name":"operation","type":"string","indexed":false,"internalType":"string"},{"name":"contractName","type":"string","indexed":false,"internalType":"string"},{"name":"timestamp","type":"uint256","indexed":false,"internalType":"uint256"}],"anonymous":false},{"type":"event","name":"RegistrySet","inputs":[{"name":"registry","type":"address","indexed":true,"internalType":"address"},{"name":"timestamp","type":"uint256","indexed":false,"internalType":"uint256"}],"anonymous":false},{"type":"event","name":"StatsError","inputs":[{"name":"operation","type":"string","indexed":false,"internalType":"string"},{"name":"reason","type":"string","indexed":false,"internalType":"string"},{"name":"timestamp","type":"uint256","indexed":false,"internalType":"uint256"}],"anonymous":false},{"type":"event","name":"TestModeSet","inputs":[{"name":"enabled","type":"bool","indexed":false,"internalType":"bool"},{"name":"timestamp","type":"uint256","indexed":false,"internalType":"uint256"}],"anonymous":false},{"type":"event","name":"TicketPriceChanged","inputs":[{"name":"oldPrice","type":"uint256","indexed":false,"internalType":"uint256"},{"name":"newPrice","type":"uint256","indexed":false,"internalType":"uint256"},{"name":"timestamp","type":"uint256","indexed":false,"internalType":"uint256"}],"anonymous":false},{"type":"event","name":"TreasuryFundsDeposited","inputs":[{"name":"amount","type":"uint256","indexed":false,"internalType":"uint256"},{"name":"timestamp","type":"uint256","indexed":false,"internalType":"uint256"}],"anonymous":false},{"type":"event","name":"TreasuryFundsWithdrawn","inputs":[{"name":"winner","type":"address","indexed":false,"internalType":"address"},{"name":"amount","type":"uint256","indexed":false,"internalType":"uint256"},{"name":"timestamp","type":"uint256","indexed":false,"internalType":"uint256"}],"anonymous":false},{"type":"event","name":"TreasuryNameSet","inputs":[{"name":"treasuryName","type":"string","indexed":false,"internalType":"string"},{"name":"timestamp","type":"uint256","indexed":false,"internalType":"uint256"}],"anonymous":false},{"type":"event","name":"TreasuryOperationFailed","inputs":[{"name":"operation","type":"string","indexed":false,"internalType":"string"},{"name":"timestamp","type":"uint256","indexed":false,"internalType":"uint256"}],"anonymous":false},{"type":"event","name":"TreasuryTransferFailed","inputs":[{"name":"from","type":"address","indexed":false,"internalType":"address"},{"name":"amount","type":"uint256","indexed":false,"internalType":"uint256"},{"name":"reason","type":"string","indexed":false,"internalType":"string"},{"name":"timestamp","type":"uint256","indexed":false,"internalType":"uint256"}],"anonymous":false},{"type":"event","name":"Upgraded","inputs":[{"name":"implementation","type":"address","indexed":true,"internalType":"address"}],"anonymous":false},{"type":"event","name":"WinnerPayout","inputs":[{"name":"winner","type":"address","indexed":true,"internalType":"address"},{"name":"amount","type":"uint256","indexed":false,"internalType":"uint256"},{"name":"timestamp","type":"uint256","indexed":false,"internalType":"uint256"}],"anonymous":false}],"bytecode":{"object":"0x60a0604052306080526003610100553480156200001b57600080fd5b50620000266200002c565b620000ee565b600054610100900460ff1615620000995760405162461bcd60e51b815260206004820152602760248201527f496e697469616c697a61626c653a20636f6e747261637420697320696e697469604482015266616c697a696e6760c81b606482015260840160405180910390fd5b60005460ff9081161015620000ec576000805460ff191660ff9081179091556040519081527f7f26b83ff96e1f2b6a682f133852f6798a09c465da95921460cefb38474024989060200160405180910390a15b565b608051615b2a620001266000396000818161108d015281816110cd015281816112120152818161125201526112e10152615b2a6000f3fe6080604052600436106102e85760003560e01c80637507411111610190578063b38854be116100dc578063cf5b4fd511610095578063e443d3551161006f578063e443d3551461083c578063ec36a40e1461085c578063f2fde38b146108a8578063f83fd805146108c8576102fb565b8063cf5b4fd5146107dc578063d076d1d6146107fc578063d60a7c431461081c576102fb565b8063b38854be14610736578063b640355614610756578063bf6df4071461076d578063bf77e7c81461078d578063c037cc6c146107b2578063ca1052c3146107c7576102fb565b80638da5cb5b11610149578063a71669e511610123578063a71669e5146106d7578063a8336aa2146106ec578063a91ee0dc14610701578063a9f7768414610721576102fb565b80638da5cb5b1461068457806393c87f03146106a2578063951fb273146106b7576102fb565b806375074111146105d2578063774b1b05146105e75780637b1039991461061f5780638069a2d31461063f57806388a0f4251461065f5780638b235f1914610327576102fb565b80634f1ef2861161024f57806362444801116102085780636b8cd144116101e25780636b8cd1441461056a5780636f9fb98a1461058a578063715018a61461059d57806374baa131146105b2576102fb565b8063624448011461052257806366a5ef2f1461053757806367898fdd1461054a576102fb565b80634f1ef2861461046857806352d1902d1461047b57806353b7acdf1461049057806359328401146104b25780635d130ec6146104ed5780635e3caf611461050d576102fb565b8063328a994e116102a1578063328a994e146103e95780633358ab5a146104095780633659cfe61461041e5780633fead80d1461033c578063484e8b731461043e5780634bc2178f14610453576102fb565b80630bdc103a146103075780630dac14371461032757806314dd2cd11461033c5780631ff1292f14610364578063227a14c11461038457806322f19172146103b2576102fb565b366102fb576102f9600060016108ea565b005b6102f9600060016108ea565b34801561031357600080fd5b506102f9610322366004614e5a565b610979565b34801561033357600080fd5b506102f9610cff565b34801561034857600080fd5b50610351600381565b6040519081526020015b60405180910390f35b34801561037057600080fd5b506102f961037f366004614e81565b610d4b565b34801561039057600080fd5b5061035161039f366004614eb3565b6101016020526000908152604090205481565b3480156103be57600080fd5b506103c7610db8565b604080519485526020850193909352918301521515606082015260800161035b565b3480156103f557600080fd5b506102f9610404366004614e5a565b610df2565b34801561041557600080fd5b50610351611055565b34801561042a57600080fd5b506102f9610439366004614eb3565b611083565b34801561044a57600080fd5b506102f961115f565b34801561045f57600080fd5b50610351600481565b6102f9610476366004614f81565b611208565b34801561048757600080fd5b506103516112d4565b34801561049c57600080fd5b506104a5611388565b60405161035b9190615035565b3480156104be57600080fd5b506104d26104cd366004614eb3565b611416565b6040805193845260208401929092529082015260600161035b565b3480156104f957600080fd5b506102f9610508366004615068565b611459565b34801561051957600080fd5b50610351611635565b34801561052e57600080fd5b50610351611666565b6102f9610545366004615101565b6108ea565b34801561055657600080fd5b506102f9610565366004614eb3565b6116ce565b34801561057657600080fd5b506102f961058536600461512d565b611737565b34801561059657600080fd5b5047610351565b3480156105a957600080fd5b506102f9611788565b3480156105be57600080fd5b506102f96105cd366004614e5a565b61179c565b3480156105de57600080fd5b506103516117ed565b3480156105f357600080fd5b5060ff54610607906001600160a01b031681565b6040516001600160a01b03909116815260200161035b565b34801561062b57600080fd5b5060fb54610607906001600160a01b031681565b34801561064b57600080fd5b506102f961065a366004614eb3565b6118e0565b34801561066b57600080fd5b50610674611a3b565b60405161035b9493929190615162565b34801561069057600080fd5b506033546001600160a01b0316610607565b3480156106ae57600080fd5b506102f9611b95565b3480156106c357600080fd5b506104a56106d2366004614eb3565b611ba5565b3480156106e357600080fd5b506102f9611c95565b3480156106f857600080fd5b50610351611cda565b34801561070d57600080fd5b506102f961071c366004614eb3565b611d0b565b34801561072d57600080fd5b50610351600a81565b34801561074257600080fd5b5060fd54610607906001600160a01b031681565b34801561076257600080fd5b506103516101005481565b34801561077957600080fd5b5060fe54610607906001600160a01b031681565b34801561079957600080fd5b506107a2611dbe565b604051901515815260200161035b565b3480156107be57600080fd5b50610351611dea565b3480156107d357600080fd5b50610351611e57565b3480156107e857600080fd5b506102f96107f736600461512d565b611e88565b34801561080857600080fd5b506102f9610817366004615198565b611e99565b34801561082857600080fd5b506102f9610837366004614e5a565b61230b565b34801561084857600080fd5b506102f9610857366004614e5a565b6125f4565b34801561086857600080fd5b50610871612689565b604080519788526020880196909652948601939093526060850191909152608084015260a0830152151560c082015260e00161035b565b3480156108b457600080fd5b506102f96108c3366004614eb3565b612764565b3480156108d457600080fd5b506108dd6127da565b60405161035b9190615277565b6108f261280e565b6108fb81612867565b600061090d610908612905565b612929565b905061092061091a612905565b82612954565b905061092b816129ec565b610936338383612a3f565b61093f34612a9a565b6109493484612aba565b61096a610954612905565b6000838152602091909152604090205483612ac4565b50610975600160c955565b5050565b61098161280e565b600081116109aa5760405162461bcd60e51b81526004016109a190615285565b60405180910390fd5b60648111156109fb5760405162461bcd60e51b815260206004820152601c60248201527f45786365656473206d6178207469636b657473207065722067616d650000000060448201526064016109a1565b33610a415760405162461bcd60e51b8152602060048201526016602482015275496e76616c69642073656e646572206164647265737360501b60448201526064016109a1565b60ff546001600160a01b0316610a8c5760405162461bcd60e51b815260206004820152601060248201526f105908151bdad95b881b9bdd081cd95d60821b60448201526064016109a1565b6000610a96612905565b600781015490915060ff16610abd5760405162461bcd60e51b81526004016109a1906152c8565b6007810154610100900460ff16610b36573360009081526101016020526040902054610aeb90603c9061530a565b421015610b365760405162461bcd60e51b8152602060048201526019602482015278141d5c98da185cd94818dbdbdb191bdddb881b9bdd081b595d603a1b60448201526064016109a1565b6000610b4a670de0b6b3a76400008461531d565b60ff546040516370a0823160e01b815233600482015291925082916001600160a01b03909116906370a0823190602401602060405180830381865afa158015610b97573d6000803e3d6000fd5b505050506040513d601f19601f82011682018060405250810190610bbb9190615334565b1015610bd95760405162461bcd60e51b81526004016109a19061534d565b60ff546040516323b872dd60e01b8152336004820152306024820152604481018390526000916001600160a01b0316906323b872dd906064016020604051808303816000875af1158015610c31573d6000803e3d6000fd5b505050506040513d601f19601f82011682018060405250810190610c55919061537d565b905080610c745760405162461bcd60e51b81526004016109a19061539a565b60ff54604051630852cd8d60e31b8152600481018490526001600160a01b03909116906342966c6890602401600060405180830381600087803b158015610cba57600080fd5b505af1158015610cce573d6000803e3d6000fd5b50503360009081526101016020526040902042905550610cef905084612b24565b505050610cfc600160c955565b50565b6000610d09612905565b90506000610d1682612929565b6000818152602084905260409020909150610d3081612cdc565b15610d4657610d3e82612d0c565b610d46612dc2565b505050565b610d53612e83565b6000610d5d612905565b60078101805461ff00191661010085151590810291909117909155604080519182524260208301529192507f0c3d26d617b36472fd95b3ab4a82b29d672ae9210ba48d8cc7a96e30ccabb81e91015b60405180910390a15050565b6000806000806000610dc8612905565b600481015460058201546006830154600790930154919750955090935060ff169150505b90919293565b610dfa612e83565b60008111610e4a5760405162461bcd60e51b815260206004820152601d60248201527f416d6f756e74206d7573742062652067726561746572207468616e203000000060448201526064016109a1565b60ff546040516370a0823160e01b81523060048201526001600160a01b03909116906370a0823190602401602060405180830381865afa158015610e92573d6000803e3d6000fd5b505050506040513d601f19601f82011682018060405250810190610eb69190615334565b811115610ef65760405162461bcd60e51b815260206004820152600e60248201526d125b9d985b1a5908185b5bdd5b9d60921b60448201526064016109a1565b60ff546040516370a0823160e01b815230600482015282916001600160a01b0316906370a0823190602401602060405180830381865afa158015610f3e573d6000803e3d6000fd5b505050506040513d601f19601f82011682018060405250810190610f629190615334565b1015610f805760405162461bcd60e51b81526004016109a19061534d565b60ff5460405163a9059cbb60e01b8152336004820152602481018390526000916001600160a01b03169063a9059cbb906044016020604051808303816000875af1158015610fd2573d6000803e3d6000fd5b505050506040513d601f19601f82011682018060405250810190610ff6919061537d565b9050806110155760405162461bcd60e51b81526004016109a19061539a565b604080513381526020810184905242918101919091527f5cb16b96eae9e7321a2374725d21b09b310eac87d65cbdc13555123ecc31b49b90606001610dac565b600080611060612905565b9050600061106d82612929565b6000908152602092909252506040902054919050565b6001600160a01b037f00000000000000000000000000000000000000000000000000000000000000001630036110cb5760405162461bcd60e51b81526004016109a1906153d1565b7f00000000000000000000000000000000000000000000000000000000000000006001600160a01b0316611114600080516020615a6e833981519152546001600160a01b031690565b6001600160a01b03161461113a5760405162461bcd60e51b81526004016109a19061541d565b61114381612edd565b60408051600080825260208201909252610cfc91839190612ee5565b6000611169612905565b9050600061117682612929565b60008181526020849052604090209091506001600782015460ff1660028111156111a2576111a261523f565b1480156111b3575080600201544210155b15610d46576111c182613050565b6111c9612dc2565b817fb6db96bc44acddbc50ee01ae06e03807c49b4915434529b3c869a62296e04cc0426040516111fb91815260200190565b60405180910390a2505050565b6001600160a01b037f00000000000000000000000000000000000000000000000000000000000000001630036112505760405162461bcd60e51b81526004016109a1906153d1565b7f00000000000000000000000000000000000000000000000000000000000000006001600160a01b0316611299600080516020615a6e833981519152546001600160a01b031690565b6001600160a01b0316146112bf5760405162461bcd60e51b81526004016109a19061541d565b6112c882612edd565b61097582826001612ee5565b6000306001600160a01b037f000000000000000000000000000000000000000000000000000000000000000016146113745760405162461bcd60e51b815260206004820152603860248201527f555550535570677261646561626c653a206d757374206e6f742062652063616c60448201527f6c6564207468726f7567682064656c656761746563616c6c000000000000000060648201526084016109a1565b50600080516020615a6e8339815191525b90565b60fc805461139590615469565b80601f01602080910402602001604051908101604052809291908181526020018280546113c190615469565b801561140e5780601f106113e35761010080835404028352916020019161140e565b820191906000526020600020905b8154815290600101906020018083116113f157829003601f168201915b505050505081565b600080600080611424612905565b6001600160a01b0395909516600090815260029586016020526040902080546001820154919096015495969095945092505050565b600054610100900460ff16158080156114795750600054600160ff909116105b806114935750303b158015611493575060005460ff166001145b6114f65760405162461bcd60e51b815260206004820152602e60248201527f496e697469616c697a61626c653a20636f6e747261637420697320616c72656160448201526d191e481a5b9a5d1a585b1a5e995960921b60648201526084016109a1565b6000805460ff191660011790558015611519576000805461ff0019166101001790555b6001600160a01b0387166115675760405162461bcd60e51b8152602060048201526015602482015274496e76616c6964206f776e6572206164647265737360581b60448201526064016109a1565b60008251116115b05760405162461bcd60e51b8152602060048201526015602482015274496e76616c6964207472656173757279206e616d6560581b60448201526064016109a1565b6115bb8760006130b2565b60006115c5612905565b670de0b6b3a76400006004820155620151806005820155606460069091015550801561162c576000805461ff0019169055604051600181527f7f26b83ff96e1f2b6a682f133852f6798a09c465da95921460cefb3847402498906020015b60405180910390a15b50505050505050565b600080611640612905565b9050600061164d82612929565b6000908152602092909252506040902060020154919050565b600080611671612905565b9050600061167e82612929565b60008181526020849052604090209091506001600782015460ff1660028111156116aa576116aa61523f565b146116b9576000935050505090565b6116c68160020154613184565b935050505090565b6116d6612e83565b60006116e0612905565b6001600160a01b0383166000818152600283016020526040808220600181019290925551929350917f2b47ce68bdeb571aace54393d432df4aaeb52250bce367bde605fa39e5c33b53906111fb9042815260200190565b61173f612e83565b60fc61174b82826154f1565b507f20e73ae7ce0e3fa0df67d168abddb775f1315c79ec885fa46a47ff450f04d577814260405161177d9291906155b1565b60405180910390a150565b611790612e83565b61179a600061319f565b565b6117a4612e83565b60006117ae612905565b60088101839055604080518481524260208201529192507fa569980a721f6cb943e368da4d14eee89eb43a76e7f1eda8650cae67c21734fc9101610dac565b60ff546040516370a0823160e01b81523060048201526000916001600160a01b0316906370a0823190602401602060405180830381865afa158015611836573d6000803e3d6000fd5b505050506040513d601f19601f8201168201806040525081019061185a9190615334565b60ff60009054906101000a90046001600160a01b03166001600160a01b03166318160ddd6040518163ffffffff1660e01b8152600401602060405180830381865afa1580156118ad573d6000803e3d6000fd5b505050506040513d601f19601f820116820180604052508101906118d19190615334565b6118db91906155d3565b905090565b6118e8612e83565b6001600160a01b03811661193e5760405162461bcd60e51b815260206004820152601860248201527f496e76616c696420416420546f6b656e2061646472657373000000000000000060448201526064016109a1565b306001600160a01b038216036119965760405162461bcd60e51b815260206004820152601b60248201527f43616e6e6f74207365742073656c6620617320416420546f6b656e000000000060448201526064016109a1565b803b806119e55760405162461bcd60e51b815260206004820152601c60248201527f416420546f6b656e206164647265737320686173206e6f20636f64650000000060448201526064016109a1565b60ff80546001600160a01b0319166001600160a01b0384169081179091556040514281527fad2af5d568952a5c418c140d36a764d5e0004a26ad0a6e49ce6274fbd179ff02906020015b60405180910390a25050565b600060606000806000611a4c612905565b90506000611a5982612929565b6000818152602084905260409020600281015442101594509091506001600782015460ff166002811115611a8f57611a8f61523f565b148015611a995750835b15611ae557505060408051808201909152601f81527f47616d6520697320616374697665206275742074696d65206578706972656400602082015260009550935060019250610dec9050565b6002600782015460ff166002811115611b0057611b0061523f565b148015611b0b575083155b15611b40576000600285604051806060016040528060228152602001615a2c6022913991909650965096509650505050610dec565b600781015460019060ff166002811115611b5c57611b5c61523f565b60408051808201909152601381527211d85b59481cdd185d19481a5cc81d985b1a59606a1b602082015291999198509650939450505050565b611b9d612e83565b61179a6131f1565b60408051600481526024810182526020810180516001600160e01b03166353b7acdf60e01b179052905160609160009182916001600160a01b03861691611bec91906155e6565b600060405180830381855afa9150503d8060008114611c27576040519150601f19603f3d011682016040523d82523d6000602084013e611c2c565b606091505b5091509150818015611c3f575060008151115b15611c605780806020019051810190611c589190615602565b949350505050565b50506040805180820190915260168152751d5b9a5c5d5957dd195cdd17db1bdd1d195c9e57d85960521b602082015292915050565b6000611c9f612905565b90506000611cac82612929565b60008181526020849052604081206005810154929350919003611cd157610d46612dc2565b610d3081612cdc565b600080611ce5612905565b90506000611cf282612929565b6000908152602092909252506040902060030154919050565b611d13612e83565b6001600160a01b038116611d695760405162461bcd60e51b815260206004820152601860248201527f496e76616c69642072656769737472792061646472657373000000000000000060448201526064016109a1565b60fb80546001600160a01b0319166001600160a01b0383169081179091556040514281527fd9092d8db7ee512a7656796a75ec5f41fdb46bf581521c3266d4bc57e5bf6783906020015b60405180910390a250565b600080611dc9612905565b60098101546000908152602091909152604090206002015442101592915050565b60ff546040516370a0823160e01b81523060048201526000916001600160a01b0316906370a0823190602401602060405180830381865afa158015611e33573d6000803e3d6000fd5b505050506040513d601f19601f820116820180604052508101906118db9190615334565b600080611e62612905565b90506000611e6f82612929565b6000908152602092909252506040902060040154919050565b611e90612e83565b610cfc81613278565b611ea161280e565b6000815111611ee05760405162461bcd60e51b815260206004820152600b60248201526a08adae0e8f240c4c2e8c6d60ab1b60448201526064016109a1565b33611f265760405162461bcd60e51b8152602060048201526016602482015275496e76616c69642073656e646572206164647265737360501b60448201526064016109a1565b60ff546001600160a01b0316611f715760405162461bcd60e51b815260206004820152601060248201526f105908151bdad95b881b9bdd081cd95d60821b60448201526064016109a1565b6000611f7b612905565b600781015490915060ff16611fa25760405162461bcd60e51b81526004016109a1906152c8565b6007810154610100900460ff1661201b573360009081526101016020526040902054611fd090603c9061530a565b42101561201b5760405162461bcd60e51b8152602060048201526019602482015278141d5c98da185cd94818dbdbdb191bdddb881b9bdd081b595d603a1b60448201526064016109a1565b60008060005b845181101561215c57600085828151811061203e5761203e615684565b60200260200101511161208a5760405162461bcd60e51b8152602060048201526014602482015273125b9d985b1a59081d1a58dad95d0818dbdd5b9d60621b60448201526064016109a1565b606485828151811061209e5761209e615684565b602002602001015111156120ea5760405162461bcd60e51b815260206004820152601360248201527245786365656473206d6178207469636b65747360681b60448201526064016109a1565b8481815181106120fc576120fc615684565b60200260200101518361210f919061530a565b9250670de0b6b3a764000085828151811061212c5761212c615684565b602002602001015161213e919061531d565b612148908361530a565b9150806121548161569a565b915050612021565b5060ff546040516370a0823160e01b815233600482015282916001600160a01b0316906370a0823190602401602060405180830381865afa1580156121a5573d6000803e3d6000fd5b505050506040513d601f19601f820116820180604052508101906121c99190615334565b10156121e75760405162461bcd60e51b81526004016109a19061534d565b60ff546040516323b872dd60e01b8152336004820152306024820152604481018390526000916001600160a01b0316906323b872dd906064016020604051808303816000875af115801561223f573d6000803e3d6000fd5b505050506040513d601f19601f82011682018060405250810190612263919061537d565b9050806122825760405162461bcd60e51b81526004016109a19061539a565b60ff54604051630852cd8d60e31b8152600481018490526001600160a01b03909116906342966c6890602401600060405180830381600087803b1580156122c857600080fd5b505af11580156122dc573d6000803e3d6000fd5b505033600090815261010160205260409020429055506122fd9050856132f7565b50505050610cfc600160c955565b60fb546001600160a01b031661235c5760405162461bcd60e51b81526020600482015260166024820152755265676973747279206e6f7420617661696c61626c6560501b60448201526064016109a1565b60fb54604051633581777360e01b815260206004820152600f60248201526e43727970746f6c6f74746f3144617960881b604482015233916000916001600160a01b0390911690633581777390606401602060405180830381865afa1580156123c9573d6000803e3d6000fd5b505050506040513d601f19601f820116820180604052508101906123ed91906156b3565b60fb54604051633581777360e01b815260206004820152601060248201526f43727970746f6c6f74746f374461797360801b60448201529192506000916001600160a01b0390911690633581777390606401602060405180830381865afa15801561245c573d6000803e3d6000fd5b505050506040513d601f19601f8201168201806040525081019061248091906156b3565b9050816001600160a01b0316836001600160a01b031614806124b35750806001600160a01b0316836001600160a01b0316145b6125255760405162461bcd60e51b815260206004820152603860248201527f4f6e6c7920617574686f72697a6564206c6f747465727920636f6e747261637460448201527f732063616e2063616c6c20746869732066756e6374696f6e000000000000000060648201526084016109a1565b600061252f612905565b9050600080826009015411612545576000612556565b6001826009015461255691906155d3565b6000818152602084905260409020600381015491925090612577888261530a565b10156125b85760405162461bcd60e51b815260206004820152601060248201526f4a61636b706f74206f766572666c6f7760801b60448201526064016109a1565b868160030160008282546125cc919061530a565b909155505060408051888152426020820152600080516020615aae8339815191529101611623565b6125fc612e83565b600a8111156126455760405162461bcd60e51b81526020600482015260156024820152744665652063616e6e6f74206578636565642031302560581b60448201526064016109a1565b610100805490829055604051428152829082907f3252786c593b7c9cc1843860b9468e2e062fddd05f07b6f1f63cf9cd8ba239c49060200160405180910390a35050565b60008060008060008060008061269d612905565b905060008160090154116126b25760006126c3565b600181600901546126c391906155d3565b6101005460ff546040516370a0823160e01b8152306004820152670de0b6b3a76400009262015180926064926001600160a01b03909116906370a0823190602401602060405180830381865afa158015612721573d6000803e3d6000fd5b505050506040513d601f19601f820116820180604052508101906127459190615334565b60079690960154949d939c50919a509850965091945060ff1692509050565b61276c612e83565b6001600160a01b0381166127d15760405162461bcd60e51b815260206004820152602660248201527f4f776e61626c653a206e6577206f776e657220697320746865207a65726f206160448201526564647265737360d01b60648201526084016109a1565b610cfc8161319f565b6000806127e5612905565b905060006127f282612929565b600090815260209290925250604090206007015460ff16919050565b600260c954036128605760405162461bcd60e51b815260206004820152601f60248201527f5265656e7472616e637947756172643a207265656e7472616e742063616c6c0060448201526064016109a1565b600260c955565b6000612871612905565b600781015490915060ff166128985760405162461bcd60e51b81526004016109a1906152c8565b600082116128b85760405162461bcd60e51b81526004016109a190615285565b8181600401546128c8919061531d565b34146109755760405162461bcd60e51b815260206004820152600c60248201526b15dc9bdb99c8185b5bdd5b9d60a21b60448201526064016109a1565b7f54a93883e668f845121f9ed2904459121a66c9b3035aae515f9eb649cbd75b1c90565b60008082600901541161293d57600061294e565b6001826009015461294e91906155d3565b92915050565b600081815260208390526040812081600782015460ff16600281111561297c5761297c61523f565b036129a257612989612dc2565b6001846009015461299a91906155d3565b91505061294e565b6001600782015460ff1660028111156129bd576129bd61523f565b1480156129ce575080600201544210155b156129e4576129dc83612d0c565b612989612dc2565b509092915050565b60006129f6612905565b60008381526020829052604090209091506001600782015460ff166002811115612a2257612a2261523f565b14610d465760405162461bcd60e51b81526004016109a1906156d0565b6000612a49612905565b6000838152602082905260409020909150612a6582868661350f565b612a708585346135a7565b612a7b81838761360e565b612a8e816003015485846004015461370d565b60039091015550505050565b8015610cfc5760fb546001600160a01b031615610cfc57610cfc81613750565b61097582826137d8565b60005b81811015610d465760408051828152426020820152849133917f96541f70da731142b18e96f1def4d2a7733deb7d784723106d52c1d906d4c67a910160405180910390a380612b158161569a565b915050612ac7565b600160c955565b6000612b2e612905565b600781015490915060ff16612b555760405162461bcd60e51b81526004016109a1906152c8565b60008211612b755760405162461bcd60e51b81526004016109a190615285565b600080826009015411612b89576000612b9a565b60018260090154612b9a91906155d3565b6000818152602084905260408120919250600782015460ff166002811115612bc457612bc461523f565b03612bf657612bd1612dc2565b60018360090154612be291906155d3565b600081815260208590526040902090925090505b6001600782015460ff166002811115612c1157612c1161523f565b14612c2e5760405162461bcd60e51b81526004016109a1906156d0565b3360009081526001840160205260409020546006840154612c4f868361530a565b1115612c6d5760405162461bcd60e51b81526004016109a1906156f9565b612c77338661386a565b612c7f613a3e565b8154337fdaf41064209c1a84a56f52155925c6c47795c4a8937c6c132be1a341c300b28c87612cb6670de0b6b3a76400008261531d565b604080519283526020830191909152429082015260600160405180910390a35050505050565b60006001600783015460ff166002811115612cf957612cf961523f565b14801561294e5750506002015442101590565b6000612d16612905565b600083815260208290526040908190206007810154915192935091600080516020615a8e83398151915291612d5291869160ff1690429061573b565b60405180910390a16005810154600003612d8e5760078101805460ff19166002179055805460038201546004830154610d469291906000613b49565b612d9783613c00565b6000612da284613c60565b9050612dbc82600001548360030154846004015484613b49565b50505050565b6000612dcc612905565b6009810154600081815260208390526040902060058301549293509091612df4908390613d58565b8460000160008660010160008860020160008a60070160008891906101000a81548160ff02191690836002811115612e2e57612e2e61523f565b021790555050959095559490945593909355505060006003830155508115612e6357612e63612e5e6001846155d3565b613d7d565b600983018054906000612e758361569a565b9190505550610d4682613da5565b6033546001600160a01b0316331461179a5760405162461bcd60e51b815260206004820181905260248201527f4f776e61626c653a2063616c6c6572206973206e6f7420746865206f776e657260448201526064016109a1565b610cfc612e83565b7f4910fdfa16fed3260ed0e7147f7cc6da11a60208b5b9406d12a635614ffd91435460ff1615612f1857610d4683613e11565b826001600160a01b03166352d1902d6040518163ffffffff1660e01b8152600401602060405180830381865afa925050508015612f72575060408051601f3d908101601f19168201909252612f6f91810190615334565b60015b612fd55760405162461bcd60e51b815260206004820152602e60248201527f45524331393637557067726164653a206e657720696d706c656d656e7461746960448201526d6f6e206973206e6f74205555505360901b60648201526084016109a1565b600080516020615a6e83398151915281146130445760405162461bcd60e51b815260206004820152602960248201527f45524331393637557067726164653a20756e737570706f727465642070726f786044820152681a58589b195555525160ba1b60648201526084016109a1565b50610d46838383613ead565b600061305a612905565b600083815260208290526040902060078101805460ff1916600217905590915061308383613d7d565b600080516020615a8e833981519152836002426040516130a59392919061573b565b60405180910390a1505050565b600054610100900460ff166130d95760405162461bcd60e51b81526004016109a19061575d565b6001600160a01b0382166131275760405162461bcd60e51b8152602060048201526015602482015274496e76616c6964206f776e6572206164647265737360581b60448201526064016109a1565b6001600160a01b038116156131525760fb80546001600160a01b0319166001600160a01b0383161790555b61315a613ed2565b613162613f01565b61316a613f28565b60fd80546001600160a01b03191630179055610975613f57565b600042821161319557506000919050565b61294e42836155d3565b603380546001600160a01b038381166001600160a01b0319831681179093556040519116919082907f8be0079c531659141344cd1fd0a4f28419497f9722a3daafe3b4186f6b6457e090600090a35050565b61320c336132076033546001600160a01b031690565b613fde565b6132285760405162461bcd60e51b81526004016109a1906157a8565b6000613232612905565b60078101805460ff1916600117905560405190915033907fe0dc8967738d1ca725802874d41e2ab2405df0e2eb3c61069d26d2782660d59490611db39042815260200190565b61328e336132076033546001600160a01b031690565b6132aa5760405162461bcd60e51b81526004016109a1906157a8565b60006132b4612905565b60078101805460ff1916905560405190915033907fcc1b3dd39eb52913e9d184dde2ed4916801bdc2f5d6a119f2a946416893481d190611a2f90859042906155b1565b6000613301612905565b600781015490915060ff166133285760405162461bcd60e51b81526004016109a1906152c8565b60008082600901541161333c57600061334d565b6001826009015461334d91906155d3565b6000818152602084905260408120919250600782015460ff1660028111156133775761337761523f565b036133a957613384612dc2565b6001836009015461339591906155d3565b600081815260208590526040902090925090505b6001600782015460ff1660028111156133c4576133c461523f565b146133e15760405162461bcd60e51b81526004016109a1906156d0565b60005b845181101561350657600085828151811061340157613401615684565b60200260200101519050600081116134525760405162461bcd60e51b8152602060048201526014602482015273125b9d985b1a59081d1a58dad95d0818dbdd5b9d60621b60448201526064016109a1565b3360009081526001860160205260409020546006860154613473838361530a565b11156134915760405162461bcd60e51b81526004016109a1906156f9565b61349b338361386a565b8354337fdaf41064209c1a84a56f52155925c6c47795c4a8937c6c132be1a341c300b28c846134d2670de0b6b3a76400008261531d565b604080519283526020830191909152429082015260600160405180910390a3505080806134fe9061569a565b9150506133e4565b50612dbc613a3e565b6001600160a01b038216600090815260018401602052604090205480613535838261530a565b101561357b5760405162461bcd60e51b81526020600482015260156024820152745469636b657420636f756e74206f766572666c6f7760581b60448201526064016109a1565b613585828261530a565b6001600160a01b03909316600090815260019094016020525050604090912055565b60006135b1612905565b6001600160a01b03851660009081526002820160205260408120805492935091859183916135e090849061530a565b909155505042600182015560028101805484919060009061360290849061530a565b90915550505050505050565b600061362184600501856006018461401a565b90508015612dbc57600c83015461363981600161530a565b10156136805760405162461bcd60e51b8152602060048201526016602482015275546f74616c20706c6179657273206f766572666c6f7760501b60448201526064016109a1565b600484015461369081600161530a565b10156136d65760405162461bcd60e51b8152602060048201526015602482015274506c6179657220636f756e74206f766572666c6f7760581b60448201526064016109a1565b600c830180549060006136e88361569a565b91905055506001846004016000828254613702919061530a565b909155505050505050565b60008061371a8385614090565b9050600061372982600a61409c565b9050600061373782846155d3565b9050613743818861530a565b93505050505b9392505050565b60fb54604051633581777360e01b81526001600160a01b03909116906335817773906137819060fc9060040161584d565b602060405180830381865afa9250505080156137ba575060408051601f3d908101601f191682019092526137b7918101906156b3565b60015b15610cfc576001600160a01b038116156109755761097581836140b4565b60006137e3836141d3565b90508015610d465760008060006137f9866141e0565b9250925092506138098386614212565b61381282614237565b61381b81614246565b60408051848152602081018490529081018290524260608201527f5b3735d487e9342fbcf11df79c2146f60ffabadb4d2e31ced107fe4346cd21ef9060800160405180910390a1505050505050565b6000613874612905565b905060008082600901541161388a57600061389b565b6001826009015461389b91906155d3565b6000818152602084815260408083206001600160a01b0389168452600187019092529091205491925090806138d0868261530a565b10156139165760405162461bcd60e51b81526020600482015260156024820152745469636b657420636f756e74206f766572666c6f7760581b60448201526064016109a1565b613920858261530a565b6001600160a01b038716600090815260018601602052604081209190915561394f60058401600685018961401a565b9050801561162c57600c85015461396781600161530a565b10156139ae5760405162461bcd60e51b8152602060048201526016602482015275546f74616c20706c6179657273206f766572666c6f7760501b60448201526064016109a1565b60048301546139be81600161530a565b1015613a045760405162461bcd60e51b8152602060048201526015602482015274506c6179657220636f756e74206f766572666c6f7760581b60448201526064016109a1565b600c85018054906000613a168361569a565b91905055506001836004016000828254613a30919061530a565b909155505050505050505050565b60fb546001600160a01b03161561179a5760fb54604051633581777360e01b81526001600160a01b0390911690633581777390613a7d90600401615860565b602060405180830381865afa925050508015613ab6575060408051601f3d908101601f19168201909252613ab3918101906156b3565b60015b613b1657604080518181526012818301527161645f6c6f74746572795f66756e64696e6760701b606082015242602082015290517fee7558104fc91c08ddc1c5542d355a8e69109a88ffe98c7d3c35e0e9f14bc2389181900360800190a1565b6001600160a01b03811615610cfc576040805160008152426020820152600080516020615aae833981519152910161177d565b6040805184815242602082015285916001600160a01b038416917f6e8dc1353ef256756a04b2d5c32fe12fa8d3a9633f52056cda478393a1b8c765910160405180910390a360408051838152602081018590524281830152905185917fbc90215e53e674c730aaa25f931a3d27c8fb234665be39704719b8accdde9c4c919081900360600190a2600080516020615a8e83398151915284600242604051613bf29392919061573b565b60405180910390a150505050565b6000613c0a612905565b600083815260208290526040908190206007810154915192935091600080516020615a8e83398151915291613c4691869160ff1690429061573b565b60405180910390a1600701805460ff191660021790555050565b600080613c6b612905565b6000848152602082905260409020600581015491925090613cc35760405162461bcd60e51b81526020600482015260126024820152714e6f20706c617965727320696e2067616d6560701b60448201526064016109a1565b6005810154600103613d025780600501600081548110613ce557613ce5615684565b6000918252602090912001546001600160a01b0316949350505050565b6000613d23600060018460050180549050613d1d91906155d3565b42614255565b9050816005018181548110613d3a57613d3a615684565b6000918252602090912001546001600160a01b031695945050505050565b6000808080854282613d6a828961439b565b9299919850919650600195509350505050565b6000613d87612905565b6000838152602082905260409020909150610d4682600583016143a7565b600080516020615a8e83398151915281600142604051613dc79392919061573b565b60405180910390a1604080516103e7815242602082015282916000917f96541f70da731142b18e96f1def4d2a7733deb7d784723106d52c1d906d4c67a910160405180910390a350565b6001600160a01b0381163b613e7e5760405162461bcd60e51b815260206004820152602d60248201527f455243313936373a206e657720696d706c656d656e746174696f6e206973206e60448201526c1bdd08184818dbdb9d1c9858dd609a1b60648201526084016109a1565b600080516020615a6e83398151915280546001600160a01b0319166001600160a01b0392909216919091179055565b613eb683614411565b600082511180613ec35750805b15610d4657612dbc8383614451565b600054610100900460ff16613ef95760405162461bcd60e51b81526004016109a19061575d565b61179a614545565b600054610100900460ff1661179a5760405162461bcd60e51b81526004016109a19061575d565b600054610100900460ff16613f4f5760405162461bcd60e51b81526004016109a19061575d565b61179a614575565b6000613f61612905565b90508060040154600003610cfc57662386f26fc100006004828101919091556201518060058301556064600683015560078083018054600160ff1991821681179092556000808052602095909552604085208581559182018590556002820185905560038201859055928101939093559190910180549091169055565b6000816001600160a01b0316836001600160a01b0316146140115760405162461bcd60e51b81526004016109a1906157a8565b50600192915050565b6001600160a01b03811660009081526020839052604081205460ff161561404357506000613749565b508254600180820185556000948552602080862090920180546001600160a01b0319166001600160a01b03949094169384179055918452919091526040909120805460ff19168217905590565b6000613749828461531d565b600060646140aa838561531d565b613749919061589f565b6001600160a01b038216158015906140cc5750600081115b15610975576040516308638fd160e01b81526001600160a01b038316906308638fd1906141029060fc90309086906004016158b3565b600060405180830381600087803b15801561411c57600080fd5b505af192505050801561412d575060015b61419e576141396158e1565b806308c379a00361417b575061414d6158fc565b80614158575061417d565b600080516020615a4e833981519152308383426040516130a59493929190615986565b505b600080516020615a4e833981519152308242604051610dac939291906159be565b604080518281524260208201527fbec1a08e6dcd95f4cbb560bf9010af9efaf4b5b424d78d43652646cdc7726ec89101610dac565b600061294e82600a61409c565b60008060006141f084600361409c565b92506141fd84600461409c565b915061420a84600361409c565b929491935050565b61421c813361459c565b80156142285750600082115b156109755761097581336145c4565b8015610cfc57610cfc816145ed565b8015610cfc57610cfc81614639565b60008383116142965760405162461bcd60e51b815260206004820152600d60248201526c496e76616c69642072616e676560981b60448201526064016109a1565b6142a360016000196155d3565b6142ad85856155d3565b11156142ed5760405162461bcd60e51b815260206004820152600f60248201526e52616e676520746f6f206c6172676560881b60448201526064016109a1565b60004244436142fd6001826155d3565b406143096002436155d3565b4087335a604080516020810199909952880196909652606080880195909552608087019390935260a086019190915260c08501526bffffffffffffffffffffffff19911b1660e083015260f4820152610114016040516020818303038152906040528051906020012090506000858561438291906155d3565b61438d90600161530a565b905060006137378284615a04565b6000613749828461530a565b805460005b81811015612dbc5760008382815481106143c8576143c8615684565b60009182526020808320909101546001600160a01b03168252600187018152604080832083905560028089019092528220828155015550806144098161569a565b9150506143ac565b61441a81613e11565b6040516001600160a01b038216907fbc7cd75a20ee27fd9adebab32041f755214dbc6bffa90cc0225b39da2e5c2d3b90600090a250565b60606001600160a01b0383163b6144b95760405162461bcd60e51b815260206004820152602660248201527f416464726573733a2064656c65676174652063616c6c20746f206e6f6e2d636f6044820152651b9d1c9858dd60d21b60648201526084016109a1565b600080846001600160a01b0316846040516144d491906155e6565b600060405180830381855af49150503d806000811461450f576040519150601f19603f3d011682016040523d82523d6000602084013e614514565b606091505b509150915061453c8282604051806060016040528060278152602001615ace60279139614659565b95945050505050565b600054610100900460ff1661456c5760405162461bcd60e51b81526004016109a19061575d565b61179a3361319f565b600054610100900460ff16612b1d5760405162461bcd60e51b81526004016109a19061575d565b60006001600160a01b038316158015906137495750506001600160a01b039182169116141590565b6145ce828261459c565b156109755760fb546001600160a01b0316156109755761097582614672565b8015610cfc5760fb546001600160a01b0316156146165761460d816147b0565b61461681614a29565b60408051828152426020820152600080516020615aae833981519152910161177d565b8015610cfc5760fb546001600160a01b031615610cfc57610cfc81614c29565b60608315614668575081613749565b6137498383614d48565b60fb546001600160a01b031615610cfc576000606461469260033461531d565b61469c919061589f565b905080156109755760fb54604051633581777360e01b815260206004820152601360248201527210dc9e5c1d1bdb1bdd1d1bd49959995c9c985b606a1b60448201526001600160a01b0390911690633581777390606401602060405180830381865afa158015614710573d6000803e3d6000fd5b505050506040513d601f19601f8201168201806040525081019061473491906156b3565b60405163da46bdad60e01b81526001600160a01b03848116600483015260248201849052919091169063da46bdad90839060440160206040518083038185885af1935050505080156147a3575060408051601f3d908101601f191682019092526147a091810190615334565b60015b610d465761097581614d72565b60fb546001600160a01b031615610cfc5760fb54604051633581777360e01b815260206004820152600d60248201526c10dc9e5c1d1bdb1bdd1d1bd059609a1b60448201526001600160a01b0390911690633581777390606401602060405180830381865afa925050508015614843575060408051601f3d908101601f19168201909252614840918101906156b3565b60015b6148b45761484f6158e1565b806308c379a00361489157506148636158fc565b8061486e5750614893565b600080516020615a4e83398151915230838342604051610dac9493929190615986565b505b600080516020615a4e83398151915230824260405161177d939291906159be565b6001600160a01b038116156109755760405163951fb27360e01b81526001600160a01b0382166004820152600090309063951fb27390602401600060405180830381865afa15801561490a573d6000803e3d6000fd5b505050506040513d6000823e601f3d908101601f191682016040526149329190810190615602565b60fb54604051633581777360e01b81529192506001600160a01b03169063358177739061496190600401615860565b602060405180830381865afa15801561497e573d6000803e3d6000fd5b505050506040513d601f19601f820116820180604052508101906149a291906156b3565b6001600160a01b03166308638fd1848330876040518563ffffffff1660e01b81526004016149d293929190615a18565b6000604051808303818588803b1580156149eb57600080fd5b505af11580156149ff573d6000803e3d6000fd5b505060408051878152426020820152600080516020615aae83398151915294500191506130a59050565b60fb54604051633581777360e01b815260206004820152600d60248201526c10dc9e5c1d1bdb1bdd1d1bd059609a1b60448201526001600160a01b0390911690633581777390606401602060405180830381865afa925050508015614aab575060408051601f3d908101601f19168201909252614aa8918101906156b3565b60015b614b155760408051818152601e918101919091527f61645f6c6f74746572795f6e6f74696669636174696f6e5f6661696c6564000060608201524260208201527fee7558104fc91c08ddc1c5542d355a8e69109a88ffe98c7d3c35e0e9f14bc2389060800161177d565b6001600160a01b03811615610975576000816001600160a01b031683604051602401614b4391815260200190565b60408051601f198184030181529181526020820180516001600160e01b031663d60a7c4360e01b17905251614b7891906155e6565b6000604051808303816000865af19150503d8060008114614bb5576040519150601f19603f3d011682016040523d82523d6000602084013e614bba565b606091505b5050905080610d465760408051818152601e918101919091527f61645f6c6f74746572795f6e6f74696669636174696f6e5f6661696c6564000060608201524260208201527fee7558104fc91c08ddc1c5542d355a8e69109a88ffe98c7d3c35e0e9f14bc238906080016130a5565b60fb546001600160a01b031615610cfc5760fb54604051633581777360e01b81526001600160a01b0390911690633581777390614c6890600401615860565b602060405180830381865afa158015614c85573d6000803e3d6000fd5b505050506040513d601f19601f82011682018060405250810190614ca991906156b3565b6001600160a01b03166308638fd18260fc30856040518563ffffffff1660e01b8152600401614cda939291906158b3565b6000604051808303818588803b158015614cf357600080fd5b505af193505050508015614d05575060015b614d115761484f6158e1565b6040805182815242602082015233917f495c3002bc7d0caa928355d3d9493820bf3dd5b333363c341a09948e12a1db0e9101611db3565b815115614d585781518083602001fd5b8060405162461bcd60e51b81526004016109a19190615035565b60fb546001600160a01b031615610cfc5760fb54604051633581777360e01b81526001600160a01b0390911690633581777390614db190600401615860565b602060405180830381865afa158015614dce573d6000803e3d6000fd5b505050506040513d601f19601f82011682018060405250810190614df291906156b3565b6001600160a01b03166308638fd18260fc30856040518563ffffffff1660e01b8152600401614e23939291906158b3565b6000604051808303818588803b158015614e3c57600080fd5b505af193505050508015614e4e575060015b610cfc5761484f6158e1565b600060208284031215614e6c57600080fd5b5035919050565b8015158114610cfc57600080fd5b600060208284031215614e9357600080fd5b813561374981614e73565b6001600160a01b0381168114610cfc57600080fd5b600060208284031215614ec557600080fd5b813561374981614e9e565b634e487b7160e01b600052604160045260246000fd5b601f8201601f1916810167ffffffffffffffff81118282101715614f0c57614f0c614ed0565b6040525050565b600067ffffffffffffffff821115614f2d57614f2d614ed0565b50601f01601f191660200190565b6000614f4683614f13565b604051614f538282614ee6565b809250848152858585011115614f6857600080fd5b8484602083013760006020868301015250509392505050565b60008060408385031215614f9457600080fd5b8235614f9f81614e9e565b9150602083013567ffffffffffffffff811115614fbb57600080fd5b8301601f81018513614fcc57600080fd5b614fdb85823560208401614f3b565b9150509250929050565b60005b83811015615000578181015183820152602001614fe8565b50506000910152565b60008151808452615021816020860160208601614fe5565b601f01601f19169290920160200192915050565b6020815260006137496020830184615009565b600082601f83011261505957600080fd5b61374983833560208501614f3b565b60008060008060008060c0878903121561508157600080fd5b863561508c81614e9e565b9550602087013561509c81614e9e565b945060408701356150ac81614e9e565b935060608701356150bc81614e9e565b925060808701356150cc81614e9e565b915060a087013567ffffffffffffffff8111156150e857600080fd5b6150f489828a01615048565b9150509295509295509295565b6000806040838503121561511457600080fd5b823561511f81614e9e565b946020939093013593505050565b60006020828403121561513f57600080fd5b813567ffffffffffffffff81111561515657600080fd5b611c5884828501615048565b841515815260806020820152600061517d6080830186615009565b60ff9490941660408301525090151560609091015292915050565b600060208083850312156151ab57600080fd5b823567ffffffffffffffff808211156151c357600080fd5b818501915085601f8301126151d757600080fd5b8135818111156151e9576151e9614ed0565b8060051b91506040516151fe85840182614ee6565b8181529183018401918481018884111561521757600080fd5b938501935b83851015615233578435815293850193850161521c565b50979650505050505050565b634e487b7160e01b600052602160045260246000fd5b6003811061527357634e487b7160e01b600052602160045260246000fd5b9052565b6020810161294e8284615255565b60208082526023908201527f5469636b657420636f756e74206d75737420626520677265617465722074686160408201526206e20360ec1b606082015260800190565b60208082526012908201527147616d65206973206e6f742061637469766560701b604082015260600190565b634e487b7160e01b600052601160045260246000fd5b8082018082111561294e5761294e6152f4565b808202811582820484141761294e5761294e6152f4565b60006020828403121561534657600080fd5b5051919050565b602080825260169082015275496e73756666696369656e7420414420746f6b656e7360501b604082015260600190565b60006020828403121561538f57600080fd5b815161374981614e73565b60208082526018908201527f414420746f6b656e207472616e73666572206661696c65640000000000000000604082015260600190565b6020808252602c908201527f46756e6374696f6e206d7573742062652063616c6c6564207468726f7567682060408201526b19195b1959d85d1958d85b1b60a21b606082015260800190565b6020808252602c908201527f46756e6374696f6e206d7573742062652063616c6c6564207468726f7567682060408201526b6163746976652070726f787960a01b606082015260800190565b600181811c9082168061547d57607f821691505b60208210810361549d57634e487b7160e01b600052602260045260246000fd5b50919050565b601f821115610d4657600081815260208120601f850160051c810160208610156154ca5750805b601f850160051c820191505b818110156154e9578281556001016154d6565b505050505050565b815167ffffffffffffffff81111561550b5761550b614ed0565b61551f816155198454615469565b846154a3565b602080601f831160018114615554576000841561553c5750858301515b600019600386901b1c1916600185901b1785556154e9565b600085815260208120601f198616915b8281101561558357888601518255948401946001909101908401615564565b50858210156155a15787850151600019600388901b60f8161c191681555b5050505050600190811b01905550565b6040815260006155c46040830185615009565b90508260208301529392505050565b8181038181111561294e5761294e6152f4565b600082516155f8818460208701614fe5565b9190910192915050565b60006020828403121561561457600080fd5b815167ffffffffffffffff81111561562b57600080fd5b8201601f8101841361563c57600080fd5b805161564781614f13565b6040516156548282614ee6565b82815286602084860101111561566957600080fd5b61567a836020830160208701614fe5565b9695505050505050565b634e487b7160e01b600052603260045260246000fd5b6000600182016156ac576156ac6152f4565b5060010190565b6000602082840312156156c557600080fd5b815161374981614e9e565b6020808252600f908201526e47616d65206e6f742061637469766560881b604082015260600190565b60208082526022908201527f45786365656473206d6178696d756d207469636b6574732070657220706c617960408201526132b960f11b606082015260800190565b8381526060810161574f6020830185615255565b826040830152949350505050565b6020808252602b908201527f496e697469616c697a61626c653a20636f6e7472616374206973206e6f74206960408201526a6e697469616c697a696e6760a81b606082015260800190565b6020808252600e908201526d139bdd08185d5d1a1bdc9a5e995960921b604082015260600190565b600081546157dd81615469565b8085526020600183811680156157fa576001811461581457615842565b60ff1985168884015283151560051b880183019550615842565b866000528260002060005b8581101561583a5781548a820186015290830190840161581f565b890184019650505b505050505092915050565b60208152600061374960208301846157d0565b6020808252600f908201526e2a3932b0b9bab93ca6b0b730b3b2b960891b604082015260600190565b634e487b7160e01b600052601260045260246000fd5b6000826158ae576158ae615889565b500490565b6060815260006158c660608301866157d0565b6001600160a01b039490941660208301525060400152919050565b600060033d11156113855760046000803e5060005160e01c90565b600060443d101561590a5790565b6040516003193d81016004833e81513d67ffffffffffffffff816024840111818411171561593a57505050505090565b82850191508151818111156159525750505050505090565b843d870101602082850101111561596c5750505050505090565b61597b60208286010187614ee6565b509095945050505050565b60018060a01b03851681528360208201526080604082015260006159ad6080830185615009565b905082606083015295945050505050565b6001600160a01b039390931683526020830191909152608060408301819052600d908301526c2ab735b737bbb71032b93937b960991b60a0830152606082015260c00190565b600082615a1357615a13615889565b500690565b6060815260006158c6606083018661500956fe47616d6520697320656e646564206275742074696d65206e6f742065787069726564419f1e3e5b764ed411bdfb5b2bcb8cd5c4c11e630da8354d290eb2ce1534bc15360894a13ba1a3210667c828492db98dca3e2076cc3735a920a3ca505d382bbc46e59b25850fb5875ea16cb7de4c6866327eef1a3f4ff23c27b3c5ad811979dd6eac9fa4c5b54637971e9ed2cb39933d7d2d10c9438ff8ccf4e61a4e6c5cfa1b416464726573733a206c6f772d6c6576656c2064656c65676174652063616c6c206661696c6564a2646970667358221220da8fcf2e007f386f2ebe1fc64985afb2240f2f00d1f8c8ece2d8643afd6b8a1a64736f6c63430008130033","linkReferences":{}},"methodIdentifiers":{"AD_LOTTERY_FEE_PERCENT()":"4bc2178f","DEVELOPER_FEE_PERCENT()":"14dd2cd1","REFERRAL_FEE_PERCENT()":"3fead80d","TOTAL_FEE_PERCENT()":"a9f77684","adLotteryFee()":"b6403556","adToken()":"774b1b05","autoEndGame()":"0dac1437","buyAdTicket(uint256)":"0bdc103a","buyAdTicketBatch(uint256[])":"d076d1d6","buyTicket(address,uint256)":"66a5ef2f","checkAndEndGame()":"8b235f19","emergencyPause(string)":"cf5b4fd5","emergencyResume()":"93c87f03","getAdLotteryInfo()":"ec36a40e","getAdLotteryTreasuryName(address)":"951fb273","getAdTokenBalance()":"c037cc6c","getAdTokenBurnedAmount()":"75074111","getContractBalance()":"6f9fb98a","getCurrentGameEndTime()":"5e3caf61","getCurrentGameJackpot()":"a8336aa2","getCurrentGameNumber()":"3358ab5a","getCurrentGamePlayerCount()":"ca1052c3","getCurrentGameState()":"f83fd805","getGameConfig()":"22f19172","getPlayerInfo(address)":"59328401","getRemainingGameTime()":"62444801","initialize(address,address,address,address,address,string)":"5d130ec6","isGameTimeExpired()":"bf77e7c8","lastPurchaseTime(address)":"227a14c1","lotteryHelper()":"bf6df407","ownable()":"b38854be","owner()":"8da5cb5b","processNewFee(uint256)":"d60a7c43","proxiableUUID()":"52d1902d","recoverGameState()":"484e8b73","registry()":"7b103999","renounceOwnership()":"715018a6","resetPlayerCooldown(address)":"67898fdd","safeAutoEndGame()":"a71669e5","setAdLotteryFee(uint256)":"e443d355","setAdToken(address)":"8069a2d3","setPurchaseCooldown(uint256)":"74baa131","setRegistry(address)":"a91ee0dc","setTestMode(bool)":"1ff1292f","setTreasuryName(string)":"6b8cd144","transferOwnership(address)":"f2fde38b","treasuryName()":"53b7acdf","upgradeTo(address)":"3659cfe6","upgradeToAndCall(address,bytes)":"4f1ef286","validateGameState()":"88a0f425","withdrawAdTokens(uint256)":"328a994e"},"storageLayout":{"storage":[{"astId":57529,"contract":"contracts/modules/lottery/CryptolottoAd.sol:CryptolottoAd","label":"_initialized","offset":0,"slot":"0","type":"t_uint8"},{"astId":57532,"contract":"contracts/modules/lottery/CryptolottoAd.sol:CryptolottoAd","label":"_initializing","offset":1,"slot":"0","type":"t_bool"},{"astId":58225,"contract":"contracts/modules/lottery/CryptolottoAd.sol:CryptolottoAd","label":"__gap","offset":0,"slot":"1","type":"t_array(t_uint256)50_storage"},{"astId":57005,"contract":"contracts/modules/lottery/CryptolottoAd.sol:CryptolottoAd","label":"_owner","offset":0,"slot":"51","type":"t_address"},{"astId":57125,"contract":"contracts/modules/lottery/CryptolottoAd.sol:CryptolottoAd","label":"__gap","offset":0,"slot":"52","type":"t_array(t_uint256)49_storage"},{"astId":57511,"contract":"contracts/modules/lottery/CryptolottoAd.sol:CryptolottoAd","label":"__gap","offset":0,"slot":"101","type":"t_array(t_uint256)50_storage"},{"astId":57826,"contract":"contracts/modules/lottery/CryptolottoAd.sol:CryptolottoAd","label":"__gap","offset":0,"slot":"151","type":"t_array(t_uint256)50_storage"},{"astId":57841,"contract":"contracts/modules/lottery/CryptolottoAd.sol:CryptolottoAd","label":"_status","offset":0,"slot":"201","type":"t_uint256"},{"astId":57899,"contract":"contracts/modules/lottery/CryptolottoAd.sol:CryptolottoAd","label":"__gap","offset":0,"slot":"202","type":"t_array(t_uint256)49_storage"},{"astId":3233,"contract":"contracts/modules/lottery/CryptolottoAd.sol:CryptolottoAd","label":"registry","offset":0,"slot":"251","type":"t_contract(ContractRegistry)15837"},{"astId":3236,"contract":"contracts/modules/lottery/CryptolottoAd.sol:CryptolottoAd","label":"treasuryName","offset":0,"slot":"252","type":"t_string_storage"},{"astId":3240,"contract":"contracts/modules/lottery/CryptolottoAd.sol:CryptolottoAd","label":"ownable","offset":0,"slot":"253","type":"t_contract(IOwnable)12754"},{"astId":3255,"contract":"contracts/modules/lottery/CryptolottoAd.sol:CryptolottoAd","label":"lotteryHelper","offset":0,"slot":"254","type":"t_contract(LotteryHelper)17655"},{"astId":8320,"contract":"contracts/modules/lottery/CryptolottoAd.sol:CryptolottoAd","label":"adToken","offset":0,"slot":"255","type":"t_contract(IAdToken)12308"},{"astId":8324,"contract":"contracts/modules/lottery/CryptolottoAd.sol:CryptolottoAd","label":"adLotteryFee","offset":0,"slot":"256","type":"t_uint256"},{"astId":8328,"contract":"contracts/modules/lottery/CryptolottoAd.sol:CryptolottoAd","label":"lastPurchaseTime","offset":0,"slot":"257","type":"t_mapping(t_address,t_uint256)"}],"types":{"t_address":{"encoding":"inplace","label":"address","numberOfBytes":"20"},"t_array(t_uint256)49_storage":{"encoding":"inplace","label":"uint256[49]","numberOfBytes":"1568","base":"t_uint256"},"t_array(t_uint256)50_storage":{"encoding":"inplace","label":"uint256[50]","numberOfBytes":"1600","base":"t_uint256"},"t_bool":{"encoding":"inplace","label":"bool","numberOfBytes":"1"},"t_contract(ContractRegistry)15837":{"encoding":"inplace","label":"contract ContractRegistry","numberOfBytes":"20"},"t_contract(IAdToken)12308":{"encoding":"inplace","label":"contract IAdToken","numberOfBytes":"20"},"t_contract(IOwnable)12754":{"encoding":"inplace","label":"contract IOwnable","numberOfBytes":"20"},"t_contract(LotteryHelper)17655":{"encoding":"inplace","label":"contract LotteryHelper","numberOfBytes":"20"},"t_mapping(t_address,t_uint256)":{"encoding":"mapping","key":"t_address","label":"mapping(address => uint256)","numberOfBytes":"32","value":"t_uint256"},"t_string_storage":{"encoding":"bytes","label":"string","numberOfBytes":"32"},"t_uint256":{"encoding":"inplace","label":"uint256","numberOfBytes":"32"},"t_uint8":{"encoding":"inplace","label":"uint8","numberOfBytes":"1"}}},"id":7}