{"abi":[{"type":"constructor","inputs":[],"stateMutability":"nonpayable"},{"type":"fallback","stateMutability":"payable"},{"type":"receive","stateMutability":"payable"},{"type":"function","name":"AD_GAME_DURATION","inputs":[],"outputs":[{"name":"","type":"uint256","internalType":"uint256"}],"stateMutability":"view"},{"type":"function","name":"AD_LOTTERY_FEE","inputs":[],"outputs":[{"name":"","type":"uint256","internalType":"uint256"}],"stateMutability":"view"},{"type":"function","name":"AD_LOTTERY_FEE_MAX","inputs":[],"outputs":[{"name":"","type":"uint256","internalType":"uint256"}],"stateMutability":"view"},{"type":"function","name":"AD_LOTTERY_FEE_PERCENT","inputs":[],"outputs":[{"name":"","type":"uint256","internalType":"uint256"}],"stateMutability":"view"},{"type":"function","name":"AD_LOTTERY_PRIZE","inputs":[],"outputs":[{"name":"","type":"uint256","internalType":"uint256"}],"stateMutability":"view"},{"type":"function","name":"AD_MAX_TICKETS","inputs":[],"outputs":[{"name":"","type":"uint256","internalType":"uint256"}],"stateMutability":"view"},{"type":"function","name":"AD_TICKET_PRICE","inputs":[],"outputs":[{"name":"","type":"uint256","internalType":"uint256"}],"stateMutability":"view"},{"type":"function","name":"DEVELOPER_FEE_PERCENT","inputs":[],"outputs":[{"name":"","type":"uint256","internalType":"uint256"}],"stateMutability":"view"},{"type":"function","name":"MAX_BLOCK_DELAY","inputs":[],"outputs":[{"name":"","type":"uint256","internalType":"uint256"}],"stateMutability":"view"},{"type":"function","name":"MIN_BLOCK_DELAY","inputs":[],"outputs":[{"name":"","type":"uint256","internalType":"uint256"}],"stateMutability":"view"},{"type":"function","name":"PURCHASE_COOLDOWN","inputs":[],"outputs":[{"name":"","type":"uint256","internalType":"uint256"}],"stateMutability":"view"},{"type":"function","name":"REFERRAL_FEE_PERCENT","inputs":[],"outputs":[{"name":"","type":"uint256","internalType":"uint256"}],"stateMutability":"view"},{"type":"function","name":"TOTAL_FEE_PERCENT","inputs":[],"outputs":[{"name":"","type":"uint256","internalType":"uint256"}],"stateMutability":"view"},{"type":"function","name":"UPGRADE_INTERFACE_VERSION","inputs":[],"outputs":[{"name":"","type":"string","internalType":"string"}],"stateMutability":"view"},{"type":"function","name":"adLotteryFee","inputs":[],"outputs":[{"name":"","type":"uint256","internalType":"uint256"}],"stateMutability":"view"},{"type":"function","name":"adToken","inputs":[],"outputs":[{"name":"","type":"address","internalType":"contract IAdToken"}],"stateMutability":"view"},{"type":"function","name":"autoEndGame","inputs":[],"outputs":[],"stateMutability":"nonpayable"},{"type":"function","name":"buyAdTicket","inputs":[{"name":"ticketCount","type":"uint256","internalType":"uint256"}],"outputs":[],"stateMutability":"nonpayable"},{"type":"function","name":"buyAdTicketBatch","inputs":[{"name":"ticketCounts","type":"uint256[]","internalType":"uint256[]"}],"outputs":[],"stateMutability":"nonpayable"},{"type":"function","name":"buyTicket","inputs":[{"name":"referrer","type":"address","internalType":"address"},{"name":"ticketCount","type":"uint256","internalType":"uint256"}],"outputs":[],"stateMutability":"payable"},{"type":"function","name":"checkAndEndGame","inputs":[],"outputs":[],"stateMutability":"nonpayable"},{"type":"function","name":"emergencyPause","inputs":[{"name":"reason","type":"string","internalType":"string"}],"outputs":[],"stateMutability":"nonpayable"},{"type":"function","name":"emergencyResume","inputs":[],"outputs":[],"stateMutability":"nonpayable"},{"type":"function","name":"getAdLotteryFeeInfo","inputs":[],"outputs":[{"name":"currentFee","type":"uint256","internalType":"uint256"},{"name":"maxFee","type":"uint256","internalType":"uint256"},{"name":"totalCollected","type":"uint256","internalType":"uint256"}],"stateMutability":"view"},{"type":"function","name":"getAdLotteryGameHistory","inputs":[{"name":"gameId","type":"uint256","internalType":"uint256"}],"outputs":[{"name":"gameNumber","type":"uint256","internalType":"uint256"},{"name":"jackpot","type":"uint256","internalType":"uint256"},{"name":"playerCount","type":"uint256","internalType":"uint256"},{"name":"endTime","type":"uint256","internalType":"uint256"},{"name":"gameState","type":"uint8","internalType":"enum StorageLayout.GameState"}],"stateMutability":"view"},{"type":"function","name":"getAdLotteryGameStatus","inputs":[],"outputs":[{"name":"isActive","type":"bool","internalType":"bool"},{"name":"currentGameId","type":"uint256","internalType":"uint256"},{"name":"playerCount","type":"uint256","internalType":"uint256"},{"name":"jackpot","type":"uint256","internalType":"uint256"},{"name":"remainingTime","type":"uint256","internalType":"uint256"}],"stateMutability":"view"},{"type":"function","name":"getAdLotteryInfo","inputs":[],"outputs":[{"name":"currentGameId","type":"uint256","internalType":"uint256"},{"name":"ticketPrice","type":"uint256","internalType":"uint256"},{"name":"gameDuration","type":"uint256","internalType":"uint256"},{"name":"maxTickets","type":"uint256","internalType":"uint256"},{"name":"adLotteryFeePercent","type":"uint256","internalType":"uint256"},{"name":"adTokenBalance","type":"uint256","internalType":"uint256"},{"name":"isActive","type":"bool","internalType":"bool"}],"stateMutability":"view"},{"type":"function","name":"getAdLotteryStats","inputs":[],"outputs":[{"name":"totalTickets","type":"uint256","internalType":"uint256"},{"name":"totalBurnedTokens","type":"uint256","internalType":"uint256"},{"name":"totalPrizes","type":"uint256","internalType":"uint256"},{"name":"activeGames","type":"uint256","internalType":"uint256"}],"stateMutability":"view"},{"type":"function","name":"getAdTokenBalance","inputs":[],"outputs":[{"name":"","type":"uint256","internalType":"uint256"}],"stateMutability":"view"},{"type":"function","name":"getAdTokenBurnedAmount","inputs":[],"outputs":[{"name":"","type":"uint256","internalType":"uint256"}],"stateMutability":"view"},{"type":"function","name":"getAdTokenTotalSupply","inputs":[],"outputs":[{"name":"","type":"uint256","internalType":"uint256"}],"stateMutability":"view"},{"type":"function","name":"getContractBalance","inputs":[],"outputs":[{"name":"","type":"uint256","internalType":"uint256"}],"stateMutability":"view"},{"type":"function","name":"getCurrentGameEndTime","inputs":[],"outputs":[{"name":"","type":"uint256","internalType":"uint256"}],"stateMutability":"view"},{"type":"function","name":"getCurrentGameJackpot","inputs":[],"outputs":[{"name":"","type":"uint256","internalType":"uint256"}],"stateMutability":"view"},{"type":"function","name":"getCurrentGameNumber","inputs":[],"outputs":[{"name":"","type":"uint256","internalType":"uint256"}],"stateMutability":"view"},{"type":"function","name":"getCurrentGamePlayerCount","inputs":[],"outputs":[{"name":"","type":"uint256","internalType":"uint256"}],"stateMutability":"view"},{"type":"function","name":"getCurrentGameState","inputs":[],"outputs":[{"name":"","type":"uint8","internalType":"enum StorageLayout.GameState"}],"stateMutability":"view"},{"type":"function","name":"getDetailedAdLotteryStats","inputs":[],"outputs":[{"name":"totalGames","type":"uint256","internalType":"uint256"},{"name":"totalPlayers","type":"uint256","internalType":"uint256"},{"name":"totalBurnedTokens","type":"uint256","internalType":"uint256"},{"name":"averageTicketsPerGame","type":"uint256","internalType":"uint256"},{"name":"successRate","type":"uint256","internalType":"uint256"}],"stateMutability":"view"},{"type":"function","name":"getGameConfig","inputs":[],"outputs":[{"name":"ticketPrice","type":"uint256","internalType":"uint256"},{"name":"gameDuration","type":"uint256","internalType":"uint256"},{"name":"maxTicketsPerPlayer","type":"uint256","internalType":"uint256"},{"name":"isActive","type":"bool","internalType":"bool"}],"stateMutability":"view"},{"type":"function","name":"getGameInfo","inputs":[],"outputs":[{"name":"currentGameNumber","type":"uint256","internalType":"uint256"},{"name":"startTime","type":"uint256","internalType":"uint256"},{"name":"duration","type":"uint256","internalType":"uint256"},{"name":"remainingTime","type":"uint256","internalType":"uint256"},{"name":"timeExpired","type":"bool","internalType":"bool"},{"name":"playerCount","type":"uint256","internalType":"uint256"},{"name":"currentJackpot","type":"uint256","internalType":"uint256"}],"stateMutability":"view"},{"type":"function","name":"getPlayerAnalytics","inputs":[{"name":"player","type":"address","internalType":"address"}],"outputs":[{"name":"totalTicketsPurchased","type":"uint256","internalType":"uint256"},{"name":"gamesParticipated","type":"uint256","internalType":"uint256"},{"name":"lastActivityTime","type":"uint256","internalType":"uint256"},{"name":"averageTicketsPerGame","type":"uint256","internalType":"uint256"}],"stateMutability":"view"},{"type":"function","name":"getPlayerInfo","inputs":[{"name":"player","type":"address","internalType":"address"}],"outputs":[{"name":"ticketCount","type":"uint256","internalType":"uint256"},{"name":"lastPurchaseTime","type":"uint256","internalType":"uint256"},{"name":"totalSpent","type":"uint256","internalType":"uint256"}],"stateMutability":"view"},{"type":"function","name":"getRemainingGameTime","inputs":[],"outputs":[{"name":"","type":"uint256","internalType":"uint256"}],"stateMutability":"view"},{"type":"function","name":"initialize","inputs":[{"name":"owner","type":"address","internalType":"address"},{"name":"","type":"address","internalType":"address"},{"name":"","type":"address","internalType":"address"},{"name":"","type":"address","internalType":"address"},{"name":"","type":"address","internalType":"address"},{"name":"_treasuryName","type":"string","internalType":"string"}],"outputs":[],"stateMutability":"nonpayable"},{"type":"function","name":"isGameTimeExpired","inputs":[],"outputs":[{"name":"","type":"bool","internalType":"bool"}],"stateMutability":"view"},{"type":"function","name":"lastPurchaseTime","inputs":[{"name":"","type":"address","internalType":"address"}],"outputs":[{"name":"","type":"uint256","internalType":"uint256"}],"stateMutability":"view"},{"type":"function","name":"ownable","inputs":[],"outputs":[{"name":"","type":"address","internalType":"contract IOwnable"}],"stateMutability":"view"},{"type":"function","name":"owner","inputs":[],"outputs":[{"name":"","type":"address","internalType":"address"}],"stateMutability":"view"},{"type":"function","name":"proxiableUUID","inputs":[],"outputs":[{"name":"","type":"bytes32","internalType":"bytes32"}],"stateMutability":"view"},{"type":"function","name":"registry","inputs":[],"outputs":[{"name":"","type":"address","internalType":"contract ContractRegistry"}],"stateMutability":"view"},{"type":"function","name":"renounceOwnership","inputs":[],"outputs":[],"stateMutability":"nonpayable"},{"type":"function","name":"resetPlayerCooldown","inputs":[{"name":"player","type":"address","internalType":"address"}],"outputs":[],"stateMutability":"nonpayable"},{"type":"function","name":"setAdLotteryFee","inputs":[{"name":"newFee","type":"uint256","internalType":"uint256"}],"outputs":[],"stateMutability":"nonpayable"},{"type":"function","name":"setAdToken","inputs":[{"name":"adTokenAddress","type":"address","internalType":"address"}],"outputs":[],"stateMutability":"nonpayable"},{"type":"function","name":"setPurchaseCooldown","inputs":[{"name":"newCooldown","type":"uint256","internalType":"uint256"}],"outputs":[],"stateMutability":"nonpayable"},{"type":"function","name":"setRegistry","inputs":[{"name":"registryAddress","type":"address","internalType":"address"}],"outputs":[],"stateMutability":"nonpayable"},{"type":"function","name":"setTestMode","inputs":[{"name":"enabled","type":"bool","internalType":"bool"}],"outputs":[],"stateMutability":"nonpayable"},{"type":"function","name":"setTreasuryName","inputs":[{"name":"_treasuryName","type":"string","internalType":"string"}],"outputs":[],"stateMutability":"nonpayable"},{"type":"function","name":"transferOwnership","inputs":[{"name":"newOwner","type":"address","internalType":"address"}],"outputs":[],"stateMutability":"nonpayable"},{"type":"function","name":"treasuryName","inputs":[],"outputs":[{"name":"","type":"string","internalType":"string"}],"stateMutability":"view"},{"type":"function","name":"upgradeToAndCall","inputs":[{"name":"newImplementation","type":"address","internalType":"address"},{"name":"data","type":"bytes","internalType":"bytes"}],"outputs":[],"stateMutability":"payable"},{"type":"function","name":"withdrawAdTokens","inputs":[{"name":"amount","type":"uint256","internalType":"uint256"}],"outputs":[],"stateMutability":"nonpayable"},{"type":"event","name":"AdLotteryFeeCollected","inputs":[{"name":"amount","type":"uint256","indexed":false,"internalType":"uint256"},{"name":"timestamp","type":"uint256","indexed":false,"internalType":"uint256"}],"anonymous":false},{"type":"event","name":"AdLotteryFeeUpdated","inputs":[{"name":"oldFee","type":"uint256","indexed":true,"internalType":"uint256"},{"name":"newFee","type":"uint256","indexed":true,"internalType":"uint256"},{"name":"timestamp","type":"uint256","indexed":false,"internalType":"uint256"}],"anonymous":false},{"type":"event","name":"AdLotteryPerformanceMetrics","inputs":[{"name":"gameNumber","type":"uint256","indexed":true,"internalType":"uint256"},{"name":"gasUsed","type":"uint256","indexed":false,"internalType":"uint256"},{"name":"playerCount","type":"uint256","indexed":false,"internalType":"uint256"},{"name":"jackpot","type":"uint256","indexed":false,"internalType":"uint256"},{"name":"timestamp","type":"uint256","indexed":false,"internalType":"uint256"}],"anonymous":false},{"type":"event","name":"AdLotterySecurityEvent","inputs":[{"name":"player","type":"address","indexed":true,"internalType":"address"},{"name":"eventType","type":"string","indexed":false,"internalType":"string"},{"name":"timestamp","type":"uint256","indexed":false,"internalType":"uint256"}],"anonymous":false},{"type":"event","name":"AdLotteryWinnerSelected","inputs":[{"name":"winner","type":"address","indexed":true,"internalType":"address"},{"name":"gameNumber","type":"uint256","indexed":true,"internalType":"uint256"},{"name":"prizeAmount","type":"uint256","indexed":false,"internalType":"uint256"},{"name":"timestamp","type":"uint256","indexed":false,"internalType":"uint256"}],"anonymous":false},{"type":"event","name":"AdTicketPurchased","inputs":[{"name":"player","type":"address","indexed":true,"internalType":"address"},{"name":"gameNumber","type":"uint256","indexed":true,"internalType":"uint256"},{"name":"ticketCount","type":"uint256","indexed":false,"internalType":"uint256"},{"name":"adTokensUsed","type":"uint256","indexed":false,"internalType":"uint256"},{"name":"timestamp","type":"uint256","indexed":false,"internalType":"uint256"}],"anonymous":false},{"type":"event","name":"AdTokenSet","inputs":[{"name":"adToken","type":"address","indexed":true,"internalType":"address"},{"name":"timestamp","type":"uint256","indexed":false,"internalType":"uint256"}],"anonymous":false},{"type":"event","name":"ContractNotFound","inputs":[{"name":"contractName","type":"string","indexed":false,"internalType":"string"},{"name":"timestamp","type":"uint256","indexed":false,"internalType":"uint256"}],"anonymous":false},{"type":"event","name":"DeveloperFeeSent","inputs":[{"name":"distributor","type":"address","indexed":true,"internalType":"address"},{"name":"amount","type":"uint256","indexed":false,"internalType":"uint256"},{"name":"timestamp","type":"uint256","indexed":false,"internalType":"uint256"}],"anonymous":false},{"type":"event","name":"DistributorError","inputs":[{"name":"operation","type":"string","indexed":false,"internalType":"string"},{"name":"reason","type":"string","indexed":false,"internalType":"string"},{"name":"timestamp","type":"uint256","indexed":false,"internalType":"uint256"}],"anonymous":false},{"type":"event","name":"EmergencyPaused","inputs":[{"name":"by","type":"address","indexed":true,"internalType":"address"},{"name":"reason","type":"string","indexed":false,"internalType":"string"},{"name":"timestamp","type":"uint256","indexed":false,"internalType":"uint256"}],"anonymous":false},{"type":"event","name":"EmergencyResumed","inputs":[{"name":"by","type":"address","indexed":true,"internalType":"address"},{"name":"timestamp","type":"uint256","indexed":false,"internalType":"uint256"}],"anonymous":false},{"type":"event","name":"FeeDistributed","inputs":[{"name":"referralFee","type":"uint256","indexed":false,"internalType":"uint256"},{"name":"adLotteryFee","type":"uint256","indexed":false,"internalType":"uint256"},{"name":"developerFee","type":"uint256","indexed":false,"internalType":"uint256"},{"name":"timestamp","type":"uint256","indexed":false,"internalType":"uint256"}],"anonymous":false},{"type":"event","name":"FounderDistribution","inputs":[{"name":"founder","type":"address","indexed":true,"internalType":"address"},{"name":"amount","type":"uint256","indexed":false,"internalType":"uint256"},{"name":"timestamp","type":"uint256","indexed":false,"internalType":"uint256"}],"anonymous":false},{"type":"event","name":"GameDurationUpdated","inputs":[{"name":"oldValue","type":"uint256","indexed":false,"internalType":"uint256"},{"name":"newValue","type":"uint256","indexed":false,"internalType":"uint256"},{"name":"timestamp","type":"uint256","indexed":false,"internalType":"uint256"}],"anonymous":false},{"type":"event","name":"GameEnded","inputs":[{"name":"gameNumber","type":"uint256","indexed":true,"internalType":"uint256"},{"name":"totalPlayers","type":"uint256","indexed":false,"internalType":"uint256"},{"name":"totalJackpot","type":"uint256","indexed":false,"internalType":"uint256"},{"name":"timestamp","type":"uint256","indexed":false,"internalType":"uint256"}],"anonymous":false},{"type":"event","name":"GamePerformanceMetrics","inputs":[{"name":"gameNumber","type":"uint256","indexed":true,"internalType":"uint256"},{"name":"gasUsed","type":"uint256","indexed":false,"internalType":"uint256"},{"name":"playerCount","type":"uint256","indexed":false,"internalType":"uint256"},{"name":"jackpot","type":"uint256","indexed":false,"internalType":"uint256"},{"name":"timestamp","type":"uint256","indexed":false,"internalType":"uint256"}],"anonymous":false},{"type":"event","name":"GameSecurityEvent","inputs":[{"name":"player","type":"address","indexed":true,"internalType":"address"},{"name":"eventType","type":"string","indexed":false,"internalType":"string"},{"name":"timestamp","type":"uint256","indexed":false,"internalType":"uint256"}],"anonymous":false},{"type":"event","name":"GameStateChanged","inputs":[{"name":"gameNumber","type":"uint256","indexed":false,"internalType":"uint256"},{"name":"state","type":"uint8","indexed":false,"internalType":"enum StorageLayout.GameState"},{"name":"timestamp","type":"uint256","indexed":false,"internalType":"uint256"}],"anonymous":false},{"type":"event","name":"GameStatsUpdated","inputs":[{"name":"totalGames","type":"uint256","indexed":false,"internalType":"uint256"},{"name":"totalPlayers","type":"uint256","indexed":false,"internalType":"uint256"},{"name":"totalPayouts","type":"uint256","indexed":false,"internalType":"uint256"},{"name":"timestamp","type":"uint256","indexed":false,"internalType":"uint256"}],"anonymous":false},{"type":"event","name":"Initialized","inputs":[{"name":"version","type":"uint64","indexed":false,"internalType":"uint64"}],"anonymous":false},{"type":"event","name":"JackpotDistributed","inputs":[{"name":"winner","type":"address","indexed":true,"internalType":"address"},{"name":"amount","type":"uint256","indexed":false,"internalType":"uint256"},{"name":"gameNumber","type":"uint256","indexed":true,"internalType":"uint256"},{"name":"timestamp","type":"uint256","indexed":false,"internalType":"uint256"}],"anonymous":false},{"type":"event","name":"MaxTicketsPerPlayerUpdated","inputs":[{"name":"oldValue","type":"uint256","indexed":false,"internalType":"uint256"},{"name":"newValue","type":"uint256","indexed":false,"internalType":"uint256"},{"name":"timestamp","type":"uint256","indexed":false,"internalType":"uint256"}],"anonymous":false},{"type":"event","name":"OwnershipTransferred","inputs":[{"name":"previousOwner","type":"address","indexed":true,"internalType":"address"},{"name":"newOwner","type":"address","indexed":true,"internalType":"address"}],"anonymous":false},{"type":"event","name":"PlayerCooldownReset","inputs":[{"name":"player","type":"address","indexed":true,"internalType":"address"},{"name":"timestamp","type":"uint256","indexed":false,"internalType":"uint256"}],"anonymous":false},{"type":"event","name":"PurchaseCooldownSet","inputs":[{"name":"cooldown","type":"uint256","indexed":false,"internalType":"uint256"},{"name":"timestamp","type":"uint256","indexed":false,"internalType":"uint256"}],"anonymous":false},{"type":"event","name":"ReferralError","inputs":[{"name":"operation","type":"string","indexed":false,"internalType":"string"},{"name":"reason","type":"string","indexed":false,"internalType":"string"},{"name":"timestamp","type":"uint256","indexed":false,"internalType":"uint256"}],"anonymous":false},{"type":"event","name":"RegistryError","inputs":[{"name":"operation","type":"string","indexed":false,"internalType":"string"},{"name":"contractName","type":"string","indexed":false,"internalType":"string"},{"name":"timestamp","type":"uint256","indexed":false,"internalType":"uint256"}],"anonymous":false},{"type":"event","name":"RegistrySet","inputs":[{"name":"registry","type":"address","indexed":true,"internalType":"address"},{"name":"timestamp","type":"uint256","indexed":false,"internalType":"uint256"}],"anonymous":false},{"type":"event","name":"StatsError","inputs":[{"name":"operation","type":"string","indexed":false,"internalType":"string"},{"name":"reason","type":"string","indexed":false,"internalType":"string"},{"name":"timestamp","type":"uint256","indexed":false,"internalType":"uint256"}],"anonymous":false},{"type":"event","name":"TestModeSet","inputs":[{"name":"enabled","type":"bool","indexed":false,"internalType":"bool"},{"name":"timestamp","type":"uint256","indexed":false,"internalType":"uint256"}],"anonymous":false},{"type":"event","name":"TicketPriceChanged","inputs":[{"name":"oldPrice","type":"uint256","indexed":false,"internalType":"uint256"},{"name":"newPrice","type":"uint256","indexed":false,"internalType":"uint256"},{"name":"timestamp","type":"uint256","indexed":false,"internalType":"uint256"}],"anonymous":false},{"type":"event","name":"TicketPurchased","inputs":[{"name":"player","type":"address","indexed":true,"internalType":"address"},{"name":"gameNumber","type":"uint256","indexed":true,"internalType":"uint256"},{"name":"ticketIndex","type":"uint256","indexed":false,"internalType":"uint256"},{"name":"timestamp","type":"uint256","indexed":false,"internalType":"uint256"}],"anonymous":false},{"type":"event","name":"TreasuryFundsDeposited","inputs":[{"name":"amount","type":"uint256","indexed":false,"internalType":"uint256"},{"name":"timestamp","type":"uint256","indexed":false,"internalType":"uint256"}],"anonymous":false},{"type":"event","name":"TreasuryFundsWithdrawn","inputs":[{"name":"winner","type":"address","indexed":false,"internalType":"address"},{"name":"amount","type":"uint256","indexed":false,"internalType":"uint256"},{"name":"timestamp","type":"uint256","indexed":false,"internalType":"uint256"}],"anonymous":false},{"type":"event","name":"TreasuryNameSet","inputs":[{"name":"treasuryName","type":"string","indexed":false,"internalType":"string"},{"name":"timestamp","type":"uint256","indexed":false,"internalType":"uint256"}],"anonymous":false},{"type":"event","name":"TreasuryOperationFailed","inputs":[{"name":"operation","type":"string","indexed":false,"internalType":"string"},{"name":"timestamp","type":"uint256","indexed":false,"internalType":"uint256"}],"anonymous":false},{"type":"event","name":"TreasuryTransferFailed","inputs":[{"name":"from","type":"address","indexed":false,"internalType":"address"},{"name":"amount","type":"uint256","indexed":false,"internalType":"uint256"},{"name":"reason","type":"string","indexed":false,"internalType":"string"},{"name":"timestamp","type":"uint256","indexed":false,"internalType":"uint256"}],"anonymous":false},{"type":"event","name":"Upgraded","inputs":[{"name":"implementation","type":"address","indexed":true,"internalType":"address"}],"anonymous":false},{"type":"event","name":"WinnerPayout","inputs":[{"name":"winner","type":"address","indexed":true,"internalType":"address"},{"name":"amount","type":"uint256","indexed":false,"internalType":"uint256"},{"name":"timestamp","type":"uint256","indexed":false,"internalType":"uint256"}],"anonymous":false},{"type":"event","name":"WinnerSelected","inputs":[{"name":"winner","type":"address","indexed":true,"internalType":"address"},{"name":"gameNumber","type":"uint256","indexed":true,"internalType":"uint256"},{"name":"jackpot","type":"uint256","indexed":false,"internalType":"uint256"},{"name":"playerCount","type":"uint256","indexed":false,"internalType":"uint256"},{"name":"timestamp","type":"uint256","indexed":false,"internalType":"uint256"}],"anonymous":false},{"type":"error","name":"AddressEmptyCode","inputs":[{"name":"target","type":"address","internalType":"address"}]},{"type":"error","name":"ERC1967InvalidImplementation","inputs":[{"name":"implementation","type":"address","internalType":"address"}]},{"type":"error","name":"ERC1967NonPayable","inputs":[]},{"type":"error","name":"FailedCall","inputs":[]},{"type":"error","name":"InvalidInitialization","inputs":[]},{"type":"error","name":"NotInitializing","inputs":[]},{"type":"error","name":"OwnableInvalidOwner","inputs":[{"name":"owner","type":"address","internalType":"address"}]},{"type":"error","name":"OwnableUnauthorizedAccount","inputs":[{"name":"account","type":"address","internalType":"address"}]},{"type":"error","name":"ReentrancyGuardReentrantCall","inputs":[]},{"type":"error","name":"UUPSUnauthorizedCallContext","inputs":[]},{"type":"error","name":"UUPSUnsupportedProxiableUUID","inputs":[{"name":"slot","type":"bytes32","internalType":"bytes32"}]}],"bytecode":{"object":"0x60a060405230608052600360045534801562000019575f80fd5b50620000246200002a565b620000de565b7ff0c57e16840df040f15088dc2f81fe391c3923bec73e23a9662efc9c229c6a00805468010000000000000000900460ff16156200007b5760405163f92ee8a960e01b815260040160405180910390fd5b80546001600160401b0390811614620000db5780546001600160401b0319166001600160401b0390811782556040519081527fc7f505b2f371ae2175ee4913f4499e1f2633a7b5936321eed1cdaeb6115181d29060200160405180910390a15b50565b608051614ff5620001055f395f8181612ddd01528181612e060152612f450152614ff55ff3fe6080604052600436106103b0575f3560e01c8063774b1b05116101e6578063b366623b1161010c578063cf5b4fd51161009f578063eed113691161006e578063eed1136914610919578063f028dbd1146104b2578063f2fde38b14610ac1578063f83fd80514610ae0576103c2565b8063cf5b4fd514610a19578063d076d1d614610a38578063e443d35514610a57578063ec36a40e14610a76576103c2565b8063c037cc6c116100db578063c037cc6c146109c9578063c3da0cf3146109dd578063c59ff8f6146109f1578063ca1052c314610a05576103c2565b8063b366623b1461095d578063b38854be14610971578063b640355614610990578063bf77e7c8146109a5576103c2565b806390272c1911610184578063a8336aa211610153578063a8336aa2146108e6578063a91ee0dc146108fa578063a9f7768414610919578063ad3cb1cc1461092d576103c2565b806390272c19146108895780639191f02c1461089f57806393c87f03146108b3578063a05a1150146108c7576103c2565b80638069a2d3116101c05780638069a2d3146108045780638b235f19146108235780638da5cb5b146108375780639025ceab1461084b576103c2565b8063774b1b051461079457806377a22219146107cb5780637b103999146107e6576103c2565b8063447b5727116102d657806362444801116102695780636f9fb98a116102385780636f9fb98a1461073b578063715018a61461074d57806374baa131146107615780637507411114610780576103c2565b806362444801146106d657806366a5ef2f146106ea57806367898fdd146106fd5780636b8cd1441461071c576103c2565b806353b7acdf116102a557806353b7acdf1461064857806359328401146106695780635d130ec6146106a35780635e3caf61146106c2576103c2565b8063447b5727146105f85780634bc2178f1461060d5780634f1ef2861461062157806352d1902d14610634576103c2565b8063154b41501161034e57806322f191721161031d57806322f191721461058f578063328a994e146105c55780633358ab5a146105e45780633fead80d146104b2576103c2565b8063154b4150146104c65780631746bd1b146104fa5780631ff1292f14610545578063227a14c114610564576103c2565b80630dac14371161038a5780630dac14371461044e578063117559e7146104625780631357a9911461047657806314dd2cd1146104b2576103c2565b80630141fc07146103cd5780630a040bf3146104065780630bdc103a1461042f576103c2565b366103c2576103c05f6001610b01565b005b6103c05f6001610b01565b3480156103d8575f80fd5b506103ec6103e73660046145ad565b610b99565b6040516103fd9594939291906145f8565b60405180910390f35b348015610411575f80fd5b50610421670de0b6b3a764000081565b6040519081526020016103fd565b34801561043a575f80fd5b506103c06104493660046145ad565b610c2c565b348015610459575f80fd5b506103c0610fa3565b34801561046d575f80fd5b50610421600181565b348015610481575f80fd5b5061048a610feb565b604080519586526020860194909452928401919091526060830152608082015260a0016103fd565b3480156104bd575f80fd5b50610421600381565b3480156104d1575f80fd5b506104da61118f565b6040805194855260208501939093529183015260608201526080016103fd565b348015610505575f80fd5b5061050e6112f2565b6040805197885260208801969096529486019390935260608501919091521515608084015260a083015260c082015260e0016103fd565b348015610550575f80fd5b506103c061055f366004614638565b61135b565b34801561056f575f80fd5b5061042161057e366004614667565b60056020525f908152604090205481565b34801561059a575f80fd5b506105a36113c7565b60408051948552602085019390935291830152151560608201526080016103fd565b3480156105d0575f80fd5b506103c06105df3660046145ad565b6113fb565b3480156105ef575f80fd5b50610421611655565b348015610603575f80fd5b5061042161010081565b348015610618575f80fd5b50610421600481565b6103c061062f36600461471e565b611680565b34801561063f575f80fd5b5061042161169b565b348015610653575f80fd5b5061065c6116b7565b6040516103fd91906147cb565b348015610674575f80fd5b50610688610683366004614667565b611743565b604080519384526020840192909252908201526060016103fd565b3480156106ae575f80fd5b506103c06106bd3660046147fb565b611783565b3480156106cd575f80fd5b50610421611941565b3480156106e1575f80fd5b5061042161196f565b6103c06106f836600461488f565b610b01565b348015610708575f80fd5b506103c0610717366004614667565b6119ea565b348015610727575f80fd5b506103c06107363660046148b9565b611a5e565b348015610746575f80fd5b5047610421565b348015610758575f80fd5b506103c0611aaf565b34801561076c575f80fd5b506103c061077b3660046145ad565b611ac2565b34801561078b575f80fd5b50610421611b12565b34801561079f575f80fd5b506003546107b3906001600160a01b031681565b6040516001600160a01b0390911681526020016103fd565b3480156107d6575f80fd5b5061042167016345785d8a000081565b3480156107f1575f80fd5b505f546107b3906001600160a01b031681565b34801561080f575f80fd5b506103c061081e366004614667565b611bff565b34801561082e575f80fd5b506103c0611d5a565b348015610842575f80fd5b506107b3611d95565b348015610856575f80fd5b5061085f611dc3565b6040805195151586526020860194909452928401919091526060830152608082015260a0016103fd565b348015610894575f80fd5b506104216201518081565b3480156108aa575f80fd5b50610421611e3b565b3480156108be575f80fd5b506103c0611ea6565b3480156108d2575f80fd5b506104da6108e1366004614667565b611eb6565b3480156108f1575f80fd5b50610421611f22565b348015610905575f80fd5b506103c0610914366004614667565b611f50565b348015610924575f80fd5b50610421600a81565b348015610938575f80fd5b5061065c604051806040016040528060058152602001640352e302e360dc1b81525081565b348015610968575f80fd5b50610688612002565b34801561097c575f80fd5b506002546107b3906001600160a01b031681565b34801561099b575f80fd5b5061042160045481565b3480156109b0575f80fd5b506109b9612102565b60405190151581526020016103fd565b3480156109d4575f80fd5b5061042161212c565b3480156109e8575f80fd5b50610421603c81565b3480156109fc575f80fd5b50610421606481565b348015610a10575f80fd5b50610421612172565b348015610a24575f80fd5b506103c0610a333660046148b9565b6121a0565b348015610a43575f80fd5b506103c0610a523660046148f3565b6121b1565b348015610a62575f80fd5b506103c0610a713660046145ad565b612611565b348015610a81575f80fd5b50610a8a6126a5565b604080519788526020880196909652948601939093526060850191909152608084015260a0830152151560c082015260e0016103fd565b348015610acc575f80fd5b506103c0610adb366004614667565b61277c565b348015610aeb575f80fd5b50610af46127b6565b6040516103fd9190614995565b610b096127e7565b610b128161281e565b5f610b23610b1e6128ba565b6128de565b9050610b36610b306128ba565b82612907565b9050610b418161299d565b610b4b33836129ee565b610b5434612a48565b610b5e3484612a67565b610b7e610b696128ba565b5f838152602091909152604090205483612a71565b50610b9560015f80516020614fa083398151915255565b5050565b5f805f805f80610ba76128ba565b905080600901548710610bf75760405162461bcd60e51b815260206004820152601360248201527211d85b5948191bd95cc81b9bdd08195e1a5cdd606a1b60448201526064015b60405180910390fd5b5f9687526020525050604090932080546003820154600483015460028401546007909401549297919650945091925060ff1690565b610c346127e7565b5f8111610c535760405162461bcd60e51b8152600401610bee906149a3565b6064811115610ca45760405162461bcd60e51b815260206004820152601c60248201527f45786365656473206d6178207469636b657473207065722067616d65000000006044820152606401610bee565b33610cea5760405162461bcd60e51b8152602060048201526016602482015275496e76616c69642073656e646572206164647265737360501b6044820152606401610bee565b6003546001600160a01b0316610d355760405162461bcd60e51b815260206004820152601060248201526f105908151bdad95b881b9bdd081cd95d60821b6044820152606401610bee565b5f610d3e6128ba565b600781015490915060ff16610d655760405162461bcd60e51b8152600401610bee906149e6565b6007810154610100900460ff16610ddc57335f90815260056020526040902054610d9190603c90614a26565b421015610ddc5760405162461bcd60e51b8152602060048201526019602482015278141d5c98da185cd94818dbdbdb191bdddb881b9bdd081b595d603a1b6044820152606401610bee565b5f610def670de0b6b3a764000084614a39565b6003546040516370a0823160e01b815233600482015291925082916001600160a01b03909116906370a0823190602401602060405180830381865afa158015610e3a573d5f803e3d5ffd5b505050506040513d601f19601f82011682018060405250810190610e5e9190614a50565b1015610e7c5760405162461bcd60e51b8152600401610bee90614a67565b6003546040516323b872dd60e01b8152336004820152306024820152604481018390525f916001600160a01b0316906323b872dd906064016020604051808303815f875af1158015610ed0573d5f803e3d5ffd5b505050506040513d601f19601f82011682018060405250810190610ef49190614a97565b905080610f135760405162461bcd60e51b8152600401610bee90614ab2565b600354604051630852cd8d60e31b8152600481018490526001600160a01b03909116906342966c68906024015f604051808303815f87803b158015610f56575f80fd5b505af1158015610f68573d5f803e3d5ffd5b5050335f90815260056020526040902042905550610f87905084612ad2565b505050610fa060015f80516020614fa083398151915255565b50565b5f610fac6128ba565b90505f610fb8826128de565b5f818152602084905260409020909150610fd181612c83565b15610fe657610fde612cb2565b610fe6612d07565b505050565b5f805f805f80610ff96128ba565b6003546040516370a0823160e01b81523060048201529192505f916001600160a01b03909116906370a0823190602401602060405180830381865afa158015611044573d5f803e3d5ffd5b505050506040513d601f19601f820116820180604052508101906110689190614a50565b60035f9054906101000a90046001600160a01b03166001600160a01b03166318160ddd6040518163ffffffff1660e01b8152600401602060405180830381865afa1580156110b8573d5f803e3d5ffd5b505050506040513d601f19601f820116820180604052508101906110dc9190614a50565b6110e69190614ae9565b90508160090154965081600c015495508094505f8711611106575f611110565b6111108786614b10565b93505f805b8881101561115f5760025f8281526020869052604090206007015460ff166002811115611144576111446145c4565b03611157578161115381614b23565b9250505b600101611115565b505f881161116d575f611183565b87611179826064614a39565b6111839190614b10565b93505050509091929394565b5f805f805f61119c6128ba565b6003546040516370a0823160e01b81523060048201529192505f916001600160a01b03909116906370a0823190602401602060405180830381865afa1580156111e7573d5f803e3d5ffd5b505050506040513d601f19601f8201168201806040525081019061120b9190614a50565b60035f9054906101000a90046001600160a01b03166001600160a01b03166318160ddd6040518163ffffffff1660e01b8152600401602060405180830381865afa15801561125b573d5f803e3d5ffd5b505050506040513d601f19601f8201168201806040525081019061127f9190614a50565b6112899190614ae9565b905081600c0154815f8460090154116112a2575f6112c9565b835f015f600186600901546112b79190614ae9565b81526020019081526020015f20600301545b600785015460ff166112db575f6112de565b60015b9299919850965060ff909116945092505050565b5f805f805f805f806113026128ba565b60098101545f81815260208390526040902080546001820154600585015494955092939192909161133161196f565b611339612102565b6005860154600390960154949f939e50919c509a509850919650945092505050565b611363612da0565b5f61136c6128ba565b60078101805461ff00191661010085151590810291909117909155604080519182524260208301529192507f0c3d26d617b36472fd95b3ab4a82b29d672ae9210ba48d8cc7a96e30ccabb81e91015b60405180910390a15050565b5f805f805f6113d46128ba565b600481015460058201546006830154600790930154919890975091955060ff169350915050565b611403612da0565b5f81116114525760405162461bcd60e51b815260206004820152601d60248201527f416d6f756e74206d7573742062652067726561746572207468616e20300000006044820152606401610bee565b6003546040516370a0823160e01b81523060048201526001600160a01b03909116906370a0823190602401602060405180830381865afa158015611498573d5f803e3d5ffd5b505050506040513d601f19601f820116820180604052508101906114bc9190614a50565b8111156114fc5760405162461bcd60e51b815260206004820152600e60248201526d125b9d985b1a5908185b5bdd5b9d60921b6044820152606401610bee565b6003546040516370a0823160e01b815230600482015282916001600160a01b0316906370a0823190602401602060405180830381865afa158015611542573d5f803e3d5ffd5b505050506040513d601f19601f820116820180604052508101906115669190614a50565b10156115845760405162461bcd60e51b8152600401610bee90614a67565b60035460405163a9059cbb60e01b8152336004820152602481018390525f916001600160a01b03169063a9059cbb906044016020604051808303815f875af11580156115d2573d5f803e3d5ffd5b505050506040513d601f19601f820116820180604052508101906115f69190614a97565b9050806116155760405162461bcd60e51b8152600401610bee90614ab2565b604080513381526020810184905242918101919091527f5cb16b96eae9e7321a2374725d21b09b310eac87d65cbdc13555123ecc31b49b906060016113bb565b5f8061165f6128ba565b90505f61166b826128de565b5f908152602092909252506040902054919050565b611688612dd2565b61169182612e76565b610b958282612e7e565b5f6116a4612f3a565b505f80516020614f808339815191525b90565b600180546116c490614b3b565b80601f01602080910402602001604051908101604052809291908181526020018280546116f090614b3b565b801561173b5780601f106117125761010080835404028352916020019161173b565b820191905f5260205f20905b81548152906001019060200180831161171e57829003601f168201915b505050505081565b5f805f8061174f6128ba565b6001600160a01b03959095165f90815260029586016020526040902080546001820154919096015495969095945092505050565b5f61178c612f83565b805490915060ff600160401b820416159067ffffffffffffffff165f811580156117b35750825b90505f8267ffffffffffffffff1660011480156117cf5750303b155b9050811580156117dd575080155b156117fb5760405163f92ee8a960e01b815260040160405180910390fd5b845467ffffffffffffffff19166001178555831561182557845460ff60401b1916600160401b1785555b6001600160a01b038b166118735760405162461bcd60e51b8152602060048201526015602482015274496e76616c6964206f776e6572206164647265737360581b6044820152606401610bee565b5f8651116118bb5760405162461bcd60e51b8152602060048201526015602482015274496e76616c6964207472656173757279206e616d6560581b6044820152606401610bee565b6118c58b5f612fab565b5f6118ce6128ba565b670de0b6b3a76400006004820155620151806005820155606460069091015550831561193457845460ff60401b19168555604051600181527fc7f505b2f371ae2175ee4913f4499e1f2633a7b5936321eed1cdaeb6115181d29060200160405180910390a15b5050505050505050505050565b5f8061194b6128ba565b90505f611957826128de565b5f908152602092909252506040902060020154919050565b5f806119796128ba565b90505f611985826128de565b5f8181526020849052604090209091506001600782015460ff1660028111156119b0576119b06145c4565b146119be575f935050505090565b806002015442106119d2575f935050505090565b4281600201546119e29190614ae9565b935050505090565b6119f2612da0565b5f6119fb6128ba565b6001600160a01b0383165f818152600283016020526040808220600181019290925551929350917f2b47ce68bdeb571aace54393d432df4aaeb52250bce367bde605fa39e5c33b5390611a519042815260200190565b60405180910390a2505050565b611a66612da0565b6001611a728282614bbe565b507f20e73ae7ce0e3fa0df67d168abddb775f1315c79ec885fa46a47ff450f04d5778142604051611aa4929190614c7e565b60405180910390a150565b611ab7612da0565b611ac05f61305e565b565b611aca612da0565b5f611ad36128ba565b60088101839055604080518481524260208201529192507fa569980a721f6cb943e368da4d14eee89eb43a76e7f1eda8650cae67c21734fc91016113bb565b6003546040516370a0823160e01b81523060048201525f916001600160a01b0316906370a0823190602401602060405180830381865afa158015611b58573d5f803e3d5ffd5b505050506040513d601f19601f82011682018060405250810190611b7c9190614a50565b60035f9054906101000a90046001600160a01b03166001600160a01b03166318160ddd6040518163ffffffff1660e01b8152600401602060405180830381865afa158015611bcc573d5f803e3d5ffd5b505050506040513d601f19601f82011682018060405250810190611bf09190614a50565b611bfa9190614ae9565b905090565b611c07612da0565b6001600160a01b038116611c5d5760405162461bcd60e51b815260206004820152601860248201527f496e76616c696420416420546f6b656e206164647265737300000000000000006044820152606401610bee565b306001600160a01b03821603611cb55760405162461bcd60e51b815260206004820152601b60248201527f43616e6e6f74207365742073656c6620617320416420546f6b656e00000000006044820152606401610bee565b803b80611d045760405162461bcd60e51b815260206004820152601c60248201527f416420546f6b656e206164647265737320686173206e6f20636f6465000000006044820152606401610bee565b600380546001600160a01b0319166001600160a01b0384169081179091556040514281527fad2af5d568952a5c418c140d36a764d5e0004a26ad0a6e49ce6274fbd179ff02906020015b60405180910390a25050565b5f611d636128ba565b90505f611d6f826128de565b5f818152602084905260409020909150611d8881612c83565b15610fe657610fe6612cb2565b7f9016d09d72d40fdae2fd8ceac6b6234c7706214fd39c1cd1e609a0528c199300546001600160a01b031690565b5f805f805f80611dd16128ba565b90505f80826009015411611de5575f611df6565b60018260090154611df69190614ae9565b5f818152602084905260409020600784015460058201546003830154939450919260ff909116918491611e2761196f565b975097509750975097505050509091929394565b600354604080516318160ddd60e01b815290515f926001600160a01b0316916318160ddd9160048083019260209291908290030181865afa158015611e82573d5f803e3d5ffd5b505050506040513d601f19601f82011682018060405250810190611bfa9190614a50565b611eae612da0565b611ac06130ce565b5f805f80611ec26128ba565b6001600160a01b0386165f9081526001919091016020908152604080832054600590925290912054909450915083611efa575f611efd565b60015b60ff1692505f8311611f0f575f611f19565b611f198385614b10565b90509193509193565b5f80611f2c6128ba565b90505f611f38826128de565b5f908152602092909252506040902060030154919050565b611f58612da0565b6001600160a01b038116611fae5760405162461bcd60e51b815260206004820152601860248201527f496e76616c6964207265676973747279206164647265737300000000000000006044820152606401610bee565b5f80546001600160a01b0319166001600160a01b0383169081179091556040514281527fd9092d8db7ee512a7656796a75ec5f41fdb46bf581521c3266d4bc57e5bf6783906020015b60405180910390a250565b6003546040516370a0823160e01b81523060048201525f918291829182916001600160a01b03909116906370a0823190602401602060405180830381865afa158015612050573d5f803e3d5ffd5b505050506040513d601f19601f820116820180604052508101906120749190614a50565b60035f9054906101000a90046001600160a01b03166001600160a01b03166318160ddd6040518163ffffffff1660e01b8152600401602060405180830381865afa1580156120c4573d5f803e3d5ffd5b505050506040513d601f19601f820116820180604052508101906120e89190614a50565b6120f29190614ae9565b60045495600a9550909350915050565b5f8061210c6128ba565b60098101545f908152602091909152604090206002015442101592915050565b6003546040516370a0823160e01b81523060048201525f916001600160a01b0316906370a0823190602401602060405180830381865afa158015611e82573d5f803e3d5ffd5b5f8061217c6128ba565b90505f612188826128de565b5f908152602092909252506040902060040154919050565b6121a8612da0565b610fa081613176565b6121b96127e7565b5f8151116121f75760405162461bcd60e51b815260206004820152600b60248201526a08adae0e8f240c4c2e8c6d60ab1b6044820152606401610bee565b3361223d5760405162461bcd60e51b8152602060048201526016602482015275496e76616c69642073656e646572206164647265737360501b6044820152606401610bee565b6003546001600160a01b03166122885760405162461bcd60e51b815260206004820152601060248201526f105908151bdad95b881b9bdd081cd95d60821b6044820152606401610bee565b5f6122916128ba565b600781015490915060ff166122b85760405162461bcd60e51b8152600401610bee906149e6565b6007810154610100900460ff1661232f57335f908152600560205260409020546122e490603c90614a26565b42101561232f5760405162461bcd60e51b8152602060048201526019602482015278141d5c98da185cd94818dbdbdb191bdddb881b9bdd081b595d603a1b6044820152606401610bee565b5f805f5b8451811015612463575f85828151811061234f5761234f614c9f565b60200260200101511161239b5760405162461bcd60e51b8152602060048201526014602482015273125b9d985b1a59081d1a58dad95d0818dbdd5b9d60621b6044820152606401610bee565b60648582815181106123af576123af614c9f565b602002602001015111156123fb5760405162461bcd60e51b815260206004820152601360248201527245786365656473206d6178207469636b65747360681b6044820152606401610bee565b84818151811061240d5761240d614c9f565b6020026020010151836124209190614a26565b9250670de0b6b3a764000085828151811061243d5761243d614c9f565b602002602001015161244f9190614a39565b6124599083614a26565b9150600101612333565b506003546040516370a0823160e01b815233600482015282916001600160a01b0316906370a0823190602401602060405180830381865afa1580156124aa573d5f803e3d5ffd5b505050506040513d601f19601f820116820180604052508101906124ce9190614a50565b10156124ec5760405162461bcd60e51b8152600401610bee90614a67565b6003546040516323b872dd60e01b8152336004820152306024820152604481018390525f916001600160a01b0316906323b872dd906064016020604051808303815f875af1158015612540573d5f803e3d5ffd5b505050506040513d601f19601f820116820180604052508101906125649190614a97565b9050806125835760405162461bcd60e51b8152600401610bee90614ab2565b600354604051630852cd8d60e31b8152600481018490526001600160a01b03909116906342966c68906024015f604051808303815f87803b1580156125c6575f80fd5b505af11580156125d8573d5f803e3d5ffd5b5050335f908152600560205260409020429055506125f790508561321b565b50505050610fa060015f80516020614fa083398151915255565b612619612da0565b600a8111156126625760405162461bcd60e51b81526020600482015260156024820152744665652063616e6e6f74206578636565642031302560581b6044820152606401610bee565b6004805490829055604051428152829082907f3252786c593b7c9cc1843860b9468e2e062fddd05f07b6f1f63cf9cd8ba239c49060200160405180910390a35050565b5f805f805f805f806126b56128ba565b90505f8160090154116126c8575f6126d9565b600181600901546126d99190614ae9565b600480546003546040516370a0823160e01b81523093810193909352670de0b6b3a764000092620151809260649290916001600160a01b03909116906370a0823190602401602060405180830381865afa158015612739573d5f803e3d5ffd5b505050506040513d601f19601f8201168201806040525081019061275d9190614a50565b60079690960154949d939c50919a509850965091945060ff1692509050565b612784612da0565b6001600160a01b0381166127ad57604051631e4fbdf760e01b81525f6004820152602401610bee565b610fa08161305e565b5f806127c06128ba565b90505f6127cc826128de565b5f90815260209290925250604090206007015460ff16919050565b5f80516020614fa083398151915280546001190161281857604051633ee5aeb560e01b815260040160405180910390fd5b60029055565b5f6128276128ba565b600781015490915060ff1661284e5760405162461bcd60e51b8152600401610bee906149e6565b5f821161286d5760405162461bcd60e51b8152600401610bee906149a3565b81816004015461287d9190614a39565b3414610b955760405162461bcd60e51b815260206004820152600c60248201526b15dc9bdb99c8185b5bdd5b9d60a21b6044820152606401610bee565b7f54a93883e668f845121f9ed2904459121a66c9b3035aae515f9eb649cbd75b1c90565b5f808260090154116128f0575f612901565b600182600901546129019190614ae9565b92915050565b5f81815260208390526040812081600782015460ff16600281111561292e5761292e6145c4565b036129545761293b612d07565b6001846009015461294c9190614ae9565b915050612901565b6001600782015460ff16600281111561296f5761296f6145c4565b148015612980575080600201544210155b156129955761298d612cb2565b61293b612d07565b509092915050565b5f6129a66128ba565b5f8381526020829052604090209091506001600782015460ff1660028111156129d1576129d16145c4565b14610fe65760405162461bcd60e51b8152600401610bee90614cb3565b5f6129f76128ba565b90505f612a03826128de565b5f818152602084905260409020909150612a1e83868661341f565b612a298184876134b5565b612a3c81600301548585600401546135b1565b60039091015550505050565b8015610fa0575f546001600160a01b031615610fa057610fa0816135d0565b610b958282613657565b5f5b81811015610fe65760408051828152426020820152849133917f96541f70da731142b18e96f1def4d2a7733deb7d784723106d52c1d906d4c67a910160405180910390a3600101612a73565b60015f80516020614fa083398151915255565b5f612adb6128ba565b600781015490915060ff16612b025760405162461bcd60e51b8152600401610bee906149e6565b5f8211612b215760405162461bcd60e51b8152600401610bee906149a3565b5f80826009015411612b33575f612b44565b60018260090154612b449190614ae9565b5f818152602084905260408120919250600782015460ff166002811115612b6d57612b6d6145c4565b03612b9e57612b7a612d07565b60018360090154612b8b9190614ae9565b5f81815260208590526040902090925090505b6001600782015460ff166002811115612bb957612bb96145c4565b14612bd65760405162461bcd60e51b8152600401610bee90614cb3565b335f9081526001840160205260409020546006840154612bf68683614a26565b1115612c145760405162461bcd60e51b8152600401610bee90614cdc565b612c1e33866136e6565b612c266138b4565b8154337fdaf41064209c1a84a56f52155925c6c47795c4a8937c6c132be1a341c300b28c87612c5d670de0b6b3a764000082614a39565b604080519283526020830191909152429082015260600160405180910390a35050505050565b5f6001600783015460ff166002811115612c9f57612c9f6145c4565b1480156129015750506002015442101590565b5f612cbb6128ba565b90505f612cc7826128de565b5f818152602084905260409020909150612cdf61395f565b5f612ce8613993565b9050612d01825f01548360030154846004015484613a6c565b50505050565b5f612d106128ba565b60098101545f81815260208390526040902060058301549293509091612d37908390613b3c565b845f015f866001015f886002015f8a6007015f8891906101000a81548160ff02191690836002811115612d6c57612d6c6145c4565b021790555050959095559490945593909355505050600983018054905f612d9283614b23565b9190505550610fe682613b60565b33612da9611d95565b6001600160a01b031614611ac05760405163118cdaa760e01b8152336004820152602401610bee565b306001600160a01b037f0000000000000000000000000000000000000000000000000000000000000000161480612e5857507f00000000000000000000000000000000000000000000000000000000000000006001600160a01b0316612e4c5f80516020614f80833981519152546001600160a01b031690565b6001600160a01b031614155b15611ac05760405163703e46dd60e11b815260040160405180910390fd5b610fa0612da0565b816001600160a01b03166352d1902d6040518163ffffffff1660e01b8152600401602060405180830381865afa925050508015612ed8575060408051601f3d908101601f19168201909252612ed591810190614a50565b60015b612f0057604051634c9c8ce360e01b81526001600160a01b0383166004820152602401610bee565b5f80516020614f808339815191528114612f3057604051632a87526960e21b815260048101829052602401610bee565b610fe68383613bdd565b306001600160a01b037f00000000000000000000000000000000000000000000000000000000000000001614611ac05760405163703e46dd60e11b815260040160405180910390fd5b5f807ff0c57e16840df040f15088dc2f81fe391c3923bec73e23a9662efc9c229c6a00612901565b612fb3613c32565b6001600160a01b0382166130015760405162461bcd60e51b8152602060048201526015602482015274496e76616c6964206f776e6572206164647265737360581b6044820152606401610bee565b6001600160a01b0381161561302b575f80546001600160a01b0319166001600160a01b0383161790555b61303482613c57565b61303c613c68565b613044613c70565b600280546001600160a01b03191630179055610b95613c80565b7f9016d09d72d40fdae2fd8ceac6b6234c7706214fd39c1cd1e609a0528c19930080546001600160a01b031981166001600160a01b03848116918217845560405192169182907f8be0079c531659141344cd1fd0a4f28419497f9722a3daafe3b4186f6b6457e0905f90a3505050565b6130d6611d95565b6001600160a01b0316336001600160a01b0316146131275760405162461bcd60e51b815260206004820152600e60248201526d139bdd08185d5d1a1bdc9a5e995960921b6044820152606401610bee565b5f6131306128ba565b60078101805460ff1916600117905560405190915033907fe0dc8967738d1ca725802874d41e2ab2405df0e2eb3c61069d26d2782660d59490611ff79042815260200190565b61317e611d95565b6001600160a01b0316336001600160a01b0316146131cf5760405162461bcd60e51b815260206004820152600e60248201526d139bdd08185d5d1a1bdc9a5e995960921b6044820152606401610bee565b5f6131d86128ba565b60078101805460ff1916905560405190915033907fcc1b3dd39eb52913e9d184dde2ed4916801bdc2f5d6a119f2a946416893481d190611d4e9085904290614c7e565b5f6132246128ba565b600781015490915060ff1661324b5760405162461bcd60e51b8152600401610bee906149e6565b5f8082600901541161325d575f61326e565b6001826009015461326e9190614ae9565b5f818152602084905260408120919250600782015460ff166002811115613297576132976145c4565b036132c8576132a4612d07565b600183600901546132b59190614ae9565b5f81815260208590526040902090925090505b6001600782015460ff1660028111156132e3576132e36145c4565b146133005760405162461bcd60e51b8152600401610bee90614cb3565b5f5b8451811015613416575f85828151811061331e5761331e614c9f565b602002602001015190505f811161336e5760405162461bcd60e51b8152602060048201526014602482015273125b9d985b1a59081d1a58dad95d0818dbdd5b9d60621b6044820152606401610bee565b335f908152600186016020526040902054600686015461338e8383614a26565b11156133ac5760405162461bcd60e51b8152600401610bee90614cdc565b6133b633836136e6565b8354337fdaf41064209c1a84a56f52155925c6c47795c4a8937c6c132be1a341c300b28c846133ed670de0b6b3a764000082614a39565b604080519283526020830191909152429082015260600160405180910390a35050600101613302565b50612d016138b4565b6001600160a01b0382165f908152600184016020526040902054806134448382614a26565b101561348a5760405162461bcd60e51b81526020600482015260156024820152745469636b657420636f756e74206f766572666c6f7760581b6044820152606401610bee565b6134948282614a26565b6001600160a01b039093165f90815260019094016020525050604090912055565b5f6134c7846005018560060184613d04565b90508015612d0157600c8301546134df816001614a26565b10156135265760405162461bcd60e51b8152602060048201526016602482015275546f74616c20706c6179657273206f766572666c6f7760501b6044820152606401610bee565b6004840154613536816001614a26565b101561357c5760405162461bcd60e51b8152602060048201526015602482015274506c6179657220636f756e74206f766572666c6f7760581b6044820152606401610bee565b600c83018054905f61358d83614b23565b91905055506001846004015f8282546135a69190614a26565b909155505050505050565b5f6135bc8284614a39565b6135c69085614a26565b90505b9392505050565b5f54604051633581777360e01b81526001600160a01b039091169063358177739061360090600190600401614d97565b602060405180830381865afa925050508015613639575060408051601f3d908101601f1916820190925261363691810190614da9565b60015b15610fa0576001600160a01b03811615610b9557610b958183613d77565b5f61366183613e9d565b90508015610fe6575f805f61367586613eb5565b9250925092506136858386613f09565b61368e82613f44565b61369781613f53565b60408051848152602081018490529081018290524260608201527f5b3735d487e9342fbcf11df79c2146f60ffabadb4d2e31ced107fe4346cd21ef9060800160405180910390a1505050505050565b5f6136ef6128ba565b90505f80826009015411613703575f613714565b600182600901546137149190614ae9565b5f818152602084815260408083206001600160a01b0389168452600187019092529091205491925090806137488682614a26565b101561378e5760405162461bcd60e51b81526020600482015260156024820152745469636b657420636f756e74206f766572666c6f7760581b6044820152606401610bee565b6137988582614a26565b6001600160a01b0387165f9081526001860160205260408120919091556137c6600584016006850189613d04565b905080156138ab57600c8501546137de816001614a26565b10156138255760405162461bcd60e51b8152602060048201526016602482015275546f74616c20706c6179657273206f766572666c6f7760501b6044820152606401610bee565b6004830154613835816001614a26565b101561387b5760405162461bcd60e51b8152602060048201526015602482015274506c6179657220636f756e74206f766572666c6f7760581b6044820152606401610bee565b600c85018054905f61388c83614b23565b91905055506001836004015f8282546138a59190614a26565b90915550505b50505050505050565b67016345785d8a00005f6138c66128ba565b90505f808260090154116138da575f6138eb565b600182600901546138eb9190614ae9565b5f81815260208490526040902060038101549192509061390b8582614a26565b101561394c5760405162461bcd60e51b815260206004820152601060248201526f4a61636b706f74206f766572666c6f7760801b6044820152606401610bee565b83816003015f8282546135a69190614a26565b5f6139686128ba565b90505f613974826128de565b5f9081526020929092525060409020600701805460ff19166002179055565b5f8061399d6128ba565b90505f808260090154116139b1575f6139c2565b600182600901546139c29190614ae9565b5f818152602084905260409020600581015491925090613a195760405162461bcd60e51b81526020600482015260126024820152714e6f20706c617965727320696e2067616d6560701b6044820152606401610bee565b5f613a385f60018460050180549050613a329190614ae9565b42613f62565b9050816005018181548110613a4f57613a4f614c9f565b5f918252602090912001546001600160a01b031695945050505050565b60408051848152602081018490524281830152905185916001600160a01b038416917fe1e1092ba644510bf260dc4a6aafc7d680596ffe47d321cdfd3e0540b21ec5a69181900360600190a360408051838152602081018590524281830152905185917fbc90215e53e674c730aaa25f931a3d27c8fb234665be39704719b8accdde9c4c919081900360600190a27f46e59b25850fb5875ea16cb7de4c6866327eef1a3f4ff23c27b3c5ad811979dd84600242604051613b2e93929190614dc4565b60405180910390a150505050565b5f808080854282613b4d8883614a26565b9299919850919650600195509350505050565b7f46e59b25850fb5875ea16cb7de4c6866327eef1a3f4ff23c27b3c5ad811979dd81600142604051613b9493929190614dc4565b60405180910390a1604080516103e7815242602082015282915f917f96541f70da731142b18e96f1def4d2a7733deb7d784723106d52c1d906d4c67a910160405180910390a350565b613be6826140ba565b6040516001600160a01b038316907fbc7cd75a20ee27fd9adebab32041f755214dbc6bffa90cc0225b39da2e5c2d3b905f90a2805115613c2a57610fe6828261411d565b610b9561418f565b613c3a6141ae565b611ac057604051631afcd79f60e31b815260040160405180910390fd5b613c5f613c32565b610fa0816141c7565b611ac0613c32565b613c78613c32565b611ac06141cf565b5f613c896128ba565b905080600401545f03610fa057662386f26fc100006004828101919091556201518060058301556064600683015560078083018054600160ff1991821681179092555f808052602095909552604085208581559182018590556002820185905560038201859055928101939093559190910180549091169055565b6001600160a01b0381165f9081526020839052604081205460ff1615613d2b57505f6135c9565b508254600180820185555f948552602080862090920180546001600160a01b0319166001600160a01b03949094169384179055918452919091526040909120805460ff19168217905590565b6001600160a01b03821615801590613d8e57505f81115b15610b95576040516308638fd160e01b81526001600160a01b038316906308638fd190613dc49060019030908690600401614de6565b5f604051808303815f87803b158015613ddb575f80fd5b505af1925050508015613dec575060015b613e6857613df8614e13565b806308c379a003613e465750613e0c614e2b565b80613e175750613e48565b5f80516020614f6083398151915230838342604051613e399493929190614eb4565b60405180910390a1505050565b505b5f80516020614f608339815191523082426040516113bb93929190614eeb565b604080518281524260208201527fbec1a08e6dcd95f4cbb560bf9010af9efaf4b5b424d78d43652646cdc7726ec891016113bb565b5f6064613eab600a84614a39565b6129019190614b10565b5f80806064613ec5600386614a39565b613ecf9190614b10565b92506064613ede600486614a39565b613ee89190614b10565b91506064613ef7600386614a39565b613f019190614b10565b929491935050565b6001600160a01b03811615801590613f2a57506001600160a01b0381163314155b8015613f3557505f82115b15610b9557610b9581336141d7565b8015610fa057610fa0816141ff565b8015610fa057610fa08161423a565b5f838311613fa25760405162461bcd60e51b815260206004820152600d60248201526c496e76616c69642072616e676560981b6044820152606401610bee565b613fae60015f19614ae9565b613fb88585614ae9565b1115613ff85760405162461bcd60e51b815260206004820152600f60248201526e52616e676520746f6f206c6172676560881b6044820152606401610bee565b5f424443614007600182614ae9565b40614013600243614ae9565b4087335a604080516020810199909952880196909652606080880195909552608087019390935260a086019190915260c08501526bffffffffffffffffffffffff19911b1660e083015260f4820152610114016040516020818303038152906040528051906020012090505f858561408b9190614ae9565b614096906001614a26565b90505f6140a38284614f31565b90506140af8188614a26565b979650505050505050565b806001600160a01b03163b5f036140ef57604051634c9c8ce360e01b81526001600160a01b0382166004820152602401610bee565b5f80516020614f8083398151915280546001600160a01b0319166001600160a01b0392909216919091179055565b60605f80846001600160a01b0316846040516141399190614f44565b5f60405180830381855af49150503d805f8114614171576040519150601f19603f3d011682016040523d82523d5f602084013e614176565b606091505b5091509150614186858383614259565b95945050505050565b3415611ac05760405163b398979f60e01b815260040160405180910390fd5b5f6141b7612f83565b54600160401b900460ff16919050565b612784613c32565b612abf613c32565b6141e182826142b5565b15610b95575f546001600160a01b031615610b9557610b95826142dc565b8015610fa057604080518281524260208201527f6eac9fa4c5b54637971e9ed2cb39933d7d2d10c9438ff8ccf4e61a4e6c5cfa1b9101611aa4565b8015610fa0575f546001600160a01b031615610fa057610fa0816143ee565b60608261426e5761426982614585565b6135c9565b815115801561428557506001600160a01b0384163b155b156142ae57604051639996b31560e01b81526001600160a01b0385166004820152602401610bee565b50806135c9565b5f6001600160a01b038316158015906135c95750506001600160a01b039182169116141590565b5f546001600160a01b031615610fa0575f54604051633581777360e01b815260206004820152601360248201527210dc9e5c1d1bdb1bdd1d1bd49959995c9c985b606a1b60448201526001600160a01b0390911690633581777390606401602060405180830381865afa158015614355573d5f803e3d5ffd5b505050506040513d601f19601f820116820180604052508101906143799190614da9565b60405163da46bdad60e01b81526001600160a01b0383811660048301525f6024830181905292169163da46bdad9160440160206040518083038185885af1935050505080156143e5575060408051601f3d908101601f191682019092526143e291810190614a50565b60015b15610fa0575050565b5f546001600160a01b031615610fa0575f54604051633581777360e01b815260206004820152600f60248201526e2a3932b0b9bab93ca6b0b730b3b2b960891b60448201526001600160a01b0390911690633581777390606401602060405180830381865afa158015614463573d5f803e3d5ffd5b505050506040513d601f19601f820116820180604052508101906144879190614da9565b6001600160a01b031663f077022a600133846040518463ffffffff1660e01b81526004016144b793929190614de6565b5f604051808303815f87803b1580156144ce575f80fd5b505af19250505080156144df575060015b61454e576144eb614e13565b806308c379a00361452c57506144ff614e2b565b8061450a575061452e565b5f80516020614f60833981519152308383426040516113bb9493929190614eb4565b505b5f80516020614f60833981519152308242604051611aa493929190614eeb565b6040805182815242602082015233917f495c3002bc7d0caa928355d3d9493820bf3dd5b333363c341a09948e12a1db0e9101611ff7565b80511561459457805160208201fd5b60405163d6bda27560e01b815260040160405180910390fd5b5f602082840312156145bd575f80fd5b5035919050565b634e487b7160e01b5f52602160045260245ffd5b600381106145f457634e487b7160e01b5f52602160045260245ffd5b9052565b5f60a08201905086825285602083015284604083015283606083015261462160808301846145d8565b9695505050505050565b8015158114610fa0575f80fd5b5f60208284031215614648575f80fd5b81356135c98161462b565b6001600160a01b0381168114610fa0575f80fd5b5f60208284031215614677575f80fd5b81356135c981614653565b634e487b7160e01b5f52604160045260245ffd5b601f8201601f1916810167ffffffffffffffff811182821017156146bc576146bc614682565b6040525050565b5f67ffffffffffffffff8311156146dc576146dc614682565b6040516146f3601f8501601f191660200182614696565b809150838152848484011115614707575f80fd5b838360208301375f60208583010152509392505050565b5f806040838503121561472f575f80fd5b823561473a81614653565b9150602083013567ffffffffffffffff811115614755575f80fd5b8301601f81018513614765575f80fd5b614774858235602084016146c3565b9150509250929050565b5f5b83811015614798578181015183820152602001614780565b50505f910152565b5f81518084526147b781602086016020860161477e565b601f01601f19169290920160200192915050565b602081525f6135c960208301846147a0565b5f82601f8301126147ec575f80fd5b6135c9838335602085016146c3565b5f805f805f8060c08789031215614810575f80fd5b863561481b81614653565b9550602087013561482b81614653565b9450604087013561483b81614653565b9350606087013561484b81614653565b9250608087013561485b81614653565b915060a087013567ffffffffffffffff811115614876575f80fd5b61488289828a016147dd565b9150509295509295509295565b5f80604083850312156148a0575f80fd5b82356148ab81614653565b946020939093013593505050565b5f602082840312156148c9575f80fd5b813567ffffffffffffffff8111156148df575f80fd5b6148eb848285016147dd565b949350505050565b5f6020808385031215614904575f80fd5b823567ffffffffffffffff8082111561491b575f80fd5b818501915085601f83011261492e575f80fd5b81358181111561494057614940614682565b8060051b915060405161495585840182614696565b8181529183018401918481018884111561496d575f80fd5b938501935b838510156149895784358152938501938501614972565b50979650505050505050565b6020810161290182846145d8565b60208082526023908201527f5469636b657420636f756e74206d75737420626520677265617465722074686160408201526206e20360ec1b606082015260800190565b60208082526012908201527147616d65206973206e6f742061637469766560701b604082015260600190565b634e487b7160e01b5f52601160045260245ffd5b8082018082111561290157612901614a12565b808202811582820484141761290157612901614a12565b5f60208284031215614a60575f80fd5b5051919050565b602080825260169082015275496e73756666696369656e7420414420746f6b656e7360501b604082015260600190565b5f60208284031215614aa7575f80fd5b81516135c98161462b565b60208082526018908201527f414420746f6b656e207472616e73666572206661696c65640000000000000000604082015260600190565b8181038181111561290157612901614a12565b634e487b7160e01b5f52601260045260245ffd5b5f82614b1e57614b1e614afc565b500490565b5f60018201614b3457614b34614a12565b5060010190565b600181811c90821680614b4f57607f821691505b602082108103614b6d57634e487b7160e01b5f52602260045260245ffd5b50919050565b601f821115610fe657805f5260205f20601f840160051c81016020851015614b985750805b601f840160051c820191505b81811015614bb7575f8155600101614ba4565b5050505050565b815167ffffffffffffffff811115614bd857614bd8614682565b614bec81614be68454614b3b565b84614b73565b602080601f831160018114614c1f575f8415614c085750858301515b5f19600386901b1c1916600185901b178555614c76565b5f85815260208120601f198616915b82811015614c4d57888601518255948401946001909101908401614c2e565b5085821015614c6a57878501515f19600388901b60f8161c191681555b505060018460011b0185555b505050505050565b604081525f614c9060408301856147a0565b90508260208301529392505050565b634e487b7160e01b5f52603260045260245ffd5b6020808252600f908201526e47616d65206e6f742061637469766560881b604082015260600190565b60208082526022908201527f45786365656473206d6178696d756d207469636b6574732070657220706c617960408201526132b960f11b606082015260800190565b5f8154614d2a81614b3b565b808552602060018381168015614d475760018114614d6157614d8c565b60ff1985168884015283151560051b880183019550614d8c565b865f52825f205f5b85811015614d845781548a8201860152908301908401614d69565b890184019650505b505050505092915050565b602081525f6135c96020830184614d1e565b5f60208284031215614db9575f80fd5b81516135c981614653565b83815260608101614dd860208301856145d8565b826040830152949350505050565b606081525f614df86060830186614d1e565b6001600160a01b039490941660208301525060400152919050565b5f60033d11156116b45760045f803e505f5160e01c90565b5f60443d1015614e385790565b6040516003193d81016004833e81513d67ffffffffffffffff8160248401118184111715614e6857505050505090565b8285019150815181811115614e805750505050505090565b843d8701016020828501011115614e9a5750505050505090565b614ea960208286010187614696565b509095945050505050565b60018060a01b0385168152836020820152608060408201525f614eda60808301856147a0565b905082606083015295945050505050565b6001600160a01b039390931683526020830191909152608060408301819052600d908301526c2ab735b737bbb71032b93937b960991b60a0830152606082015260c00190565b5f82614f3f57614f3f614afc565b500690565b5f8251614f5581846020870161477e565b919091019291505056fe419f1e3e5b764ed411bdfb5b2bcb8cd5c4c11e630da8354d290eb2ce1534bc15360894a13ba1a3210667c828492db98dca3e2076cc3735a920a3ca505d382bbc9b779b17422d0df92223018b32b4d1fa46e071723d6817e2486d003becc55f00a264697066735822122062217e998fb84ed4055bfef7e07d40216f8d6bb279d45ee2e9f1d097f40fb49064736f6c63430008160033","linkReferences":{}},"methodIdentifiers":{"AD_GAME_DURATION()":"90272c19","AD_LOTTERY_FEE()":"f028dbd1","AD_LOTTERY_FEE_MAX()":"eed11369","AD_LOTTERY_FEE_PERCENT()":"4bc2178f","AD_LOTTERY_PRIZE()":"77a22219","AD_MAX_TICKETS()":"c59ff8f6","AD_TICKET_PRICE()":"0a040bf3","DEVELOPER_FEE_PERCENT()":"14dd2cd1","MAX_BLOCK_DELAY()":"447b5727","MIN_BLOCK_DELAY()":"117559e7","PURCHASE_COOLDOWN()":"c3da0cf3","REFERRAL_FEE_PERCENT()":"3fead80d","TOTAL_FEE_PERCENT()":"a9f77684","UPGRADE_INTERFACE_VERSION()":"ad3cb1cc","adLotteryFee()":"b6403556","adToken()":"774b1b05","autoEndGame()":"0dac1437","buyAdTicket(uint256)":"0bdc103a","buyAdTicketBatch(uint256[])":"d076d1d6","buyTicket(address,uint256)":"66a5ef2f","checkAndEndGame()":"8b235f19","emergencyPause(string)":"cf5b4fd5","emergencyResume()":"93c87f03","getAdLotteryFeeInfo()":"b366623b","getAdLotteryGameHistory(uint256)":"0141fc07","getAdLotteryGameStatus()":"9025ceab","getAdLotteryInfo()":"ec36a40e","getAdLotteryStats()":"154b4150","getAdTokenBalance()":"c037cc6c","getAdTokenBurnedAmount()":"75074111","getAdTokenTotalSupply()":"9191f02c","getContractBalance()":"6f9fb98a","getCurrentGameEndTime()":"5e3caf61","getCurrentGameJackpot()":"a8336aa2","getCurrentGameNumber()":"3358ab5a","getCurrentGamePlayerCount()":"ca1052c3","getCurrentGameState()":"f83fd805","getDetailedAdLotteryStats()":"1357a991","getGameConfig()":"22f19172","getGameInfo()":"1746bd1b","getPlayerAnalytics(address)":"a05a1150","getPlayerInfo(address)":"59328401","getRemainingGameTime()":"62444801","initialize(address,address,address,address,address,string)":"5d130ec6","isGameTimeExpired()":"bf77e7c8","lastPurchaseTime(address)":"227a14c1","ownable()":"b38854be","owner()":"8da5cb5b","proxiableUUID()":"52d1902d","registry()":"7b103999","renounceOwnership()":"715018a6","resetPlayerCooldown(address)":"67898fdd","setAdLotteryFee(uint256)":"e443d355","setAdToken(address)":"8069a2d3","setPurchaseCooldown(uint256)":"74baa131","setRegistry(address)":"a91ee0dc","setTestMode(bool)":"1ff1292f","setTreasuryName(string)":"6b8cd144","transferOwnership(address)":"f2fde38b","treasuryName()":"53b7acdf","upgradeToAndCall(address,bytes)":"4f1ef286","withdrawAdTokens(uint256)":"328a994e"},"storageLayout":{"storage":[{"astId":3941,"contract":"contracts/modules/lottery/CryptolottoAd.sol:CryptolottoAd","label":"registry","offset":0,"slot":"0","type":"t_contract(ContractRegistry)20530"},{"astId":3944,"contract":"contracts/modules/lottery/CryptolottoAd.sol:CryptolottoAd","label":"treasuryName","offset":0,"slot":"1","type":"t_string_storage"},{"astId":3948,"contract":"contracts/modules/lottery/CryptolottoAd.sol:CryptolottoAd","label":"ownable","offset":0,"slot":"2","type":"t_contract(IOwnable)15681"},{"astId":8295,"contract":"contracts/modules/lottery/CryptolottoAd.sol:CryptolottoAd","label":"adToken","offset":0,"slot":"3","type":"t_contract(IAdToken)14453"},{"astId":8298,"contract":"contracts/modules/lottery/CryptolottoAd.sol:CryptolottoAd","label":"adLotteryFee","offset":0,"slot":"4","type":"t_uint256"},{"astId":8302,"contract":"contracts/modules/lottery/CryptolottoAd.sol:CryptolottoAd","label":"lastPurchaseTime","offset":0,"slot":"5","type":"t_mapping(t_address,t_uint256)"}],"types":{"t_address":{"encoding":"inplace","label":"address","numberOfBytes":"20"},"t_contract(ContractRegistry)20530":{"encoding":"inplace","label":"contract ContractRegistry","numberOfBytes":"20"},"t_contract(IAdToken)14453":{"encoding":"inplace","label":"contract IAdToken","numberOfBytes":"20"},"t_contract(IOwnable)15681":{"encoding":"inplace","label":"contract IOwnable","numberOfBytes":"20"},"t_mapping(t_address,t_uint256)":{"encoding":"mapping","key":"t_address","label":"mapping(address => uint256)","numberOfBytes":"32","value":"t_uint256"},"t_string_storage":{"encoding":"bytes","label":"string","numberOfBytes":"32"},"t_uint256":{"encoding":"inplace","label":"uint256","numberOfBytes":"32"}}},"id":9}