{"abi":[{"type":"constructor","inputs":[],"stateMutability":"nonpayable"},{"type":"function","name":"completeMigration","inputs":[],"outputs":[],"stateMutability":"nonpayable"},{"type":"function","name":"createMigrationPlan","inputs":[{"name":"fromVersion","type":"uint256","internalType":"uint256"},{"name":"toVersion","type":"uint256","internalType":"uint256"},{"name":"operations","type":"string[]","internalType":"string[]"},{"name":"isReversible","type":"bool","internalType":"bool"},{"name":"estimatedGas","type":"uint256","internalType":"uint256"}],"outputs":[],"stateMutability":"nonpayable"},{"type":"function","name":"currentMigrationVersion","inputs":[],"outputs":[{"name":"","type":"uint256","internalType":"uint256"}],"stateMutability":"view"},{"type":"function","name":"failMigration","inputs":[{"name":"reason","type":"string","internalType":"string"}],"outputs":[],"stateMutability":"nonpayable"},{"type":"function","name":"getMigrationPlan","inputs":[{"name":"version","type":"uint256","internalType":"uint256"}],"outputs":[{"name":"exists","type":"bool","internalType":"bool"},{"name":"fromVersion","type":"uint256","internalType":"uint256"},{"name":"toVersion","type":"uint256","internalType":"uint256"},{"name":"operations","type":"string[]","internalType":"string[]"},{"name":"isReversible","type":"bool","internalType":"bool"},{"name":"estimatedGas","type":"uint256","internalType":"uint256"}],"stateMutability":"view"},{"type":"function","name":"getMigrationStatus","inputs":[],"outputs":[{"name":"inProgress","type":"bool","internalType":"bool"},{"name":"currentVersion","type":"uint256","internalType":"uint256"},{"name":"targetVersion","type":"uint256","internalType":"uint256"},{"name":"estimatedGas","type":"uint256","internalType":"uint256"}],"stateMutability":"view"},{"type":"function","name":"isMigrationInProgress","inputs":[],"outputs":[{"name":"","type":"bool","internalType":"bool"}],"stateMutability":"view"},{"type":"function","name":"migrateAnalyticsData","inputs":[],"outputs":[],"stateMutability":"nonpayable"},{"type":"function","name":"migrateGameData","inputs":[{"name":"gameId","type":"uint256","internalType":"uint256"}],"outputs":[],"stateMutability":"nonpayable"},{"type":"function","name":"migrateTreasuryData","inputs":[{"name":"treasuryName","type":"string","internalType":"string"}],"outputs":[],"stateMutability":"nonpayable"},{"type":"function","name":"migrationPlans","inputs":[{"name":"","type":"uint256","internalType":"uint256"}],"outputs":[{"name":"exists","type":"bool","internalType":"bool"},{"name":"fromVersion","type":"uint256","internalType":"uint256"},{"name":"toVersion","type":"uint256","internalType":"uint256"},{"name":"isReversible","type":"bool","internalType":"bool"},{"name":"estimatedGas","type":"uint256","internalType":"uint256"}],"stateMutability":"view"},{"type":"function","name":"owner","inputs":[],"outputs":[{"name":"","type":"address","internalType":"address"}],"stateMutability":"view"},{"type":"function","name":"renounceOwnership","inputs":[],"outputs":[],"stateMutability":"nonpayable"},{"type":"function","name":"rollbackMigration","inputs":[{"name":"targetVersion","type":"uint256","internalType":"uint256"}],"outputs":[],"stateMutability":"nonpayable"},{"type":"function","name":"startMigration","inputs":[{"name":"targetVersion","type":"uint256","internalType":"uint256"}],"outputs":[],"stateMutability":"nonpayable"},{"type":"function","name":"transferOwnership","inputs":[{"name":"newOwner","type":"address","internalType":"address"}],"outputs":[],"stateMutability":"nonpayable"},{"type":"event","name":"MigrationCompleted","inputs":[{"name":"version","type":"uint256","indexed":false,"internalType":"uint256"},{"name":"recordsMigrated","type":"uint256","indexed":false,"internalType":"uint256"},{"name":"timestamp","type":"uint256","indexed":false,"internalType":"uint256"}],"anonymous":false},{"type":"event","name":"MigrationFailed","inputs":[{"name":"version","type":"uint256","indexed":false,"internalType":"uint256"},{"name":"reason","type":"string","indexed":false,"internalType":"string"},{"name":"timestamp","type":"uint256","indexed":false,"internalType":"uint256"}],"anonymous":false},{"type":"event","name":"MigrationStarted","inputs":[{"name":"fromVersion","type":"uint256","indexed":false,"internalType":"uint256"},{"name":"toVersion","type":"uint256","indexed":false,"internalType":"uint256"},{"name":"timestamp","type":"uint256","indexed":false,"internalType":"uint256"}],"anonymous":false},{"type":"event","name":"OwnershipTransferred","inputs":[{"name":"previousOwner","type":"address","indexed":true,"internalType":"address"},{"name":"newOwner","type":"address","indexed":true,"internalType":"address"}],"anonymous":false},{"type":"event","name":"RollbackCompleted","inputs":[{"name":"version","type":"uint256","indexed":false,"internalType":"uint256"},{"name":"timestamp","type":"uint256","indexed":false,"internalType":"uint256"}],"anonymous":false},{"type":"error","name":"OwnableInvalidOwner","inputs":[{"name":"owner","type":"address","internalType":"address"}]},{"type":"error","name":"OwnableUnauthorizedAccount","inputs":[{"name":"account","type":"address","internalType":"address"}]}],"bytecode":{"object":"0x608060405234801561000f575f80fd5b50338061003557604051631e4fbdf760e01b81525f600482015260240160405180910390fd5b61003e81610044565b50610093565b5f80546001600160a01b038381166001600160a01b0319831681178455604051919092169283917f8be0079c531659141344cd1fd0a4f28419497f9722a3daafe3b4186f6b6457e09190a35050565b611428806100a05f395ff3fe608060405234801561000f575f80fd5b50600436106100fb575f3560e01c80638da5cb5b11610093578063dfda1ff111610063578063dfda1ff114610263578063e9487d5414610276578063f2fde38b1461029b578063ffefcd21146102ae575f80fd5b80638da5cb5b146101f5578063a415c02c1461020f578063b50e043a14610239578063ca595cca1461024c575f80fd5b8063620e4573116100ce578063620e4573146101a457806368bda7e1146101b7578063715018a6146101ca5780638c25f093146101d2575f80fd5b806311f4eee3146100ff5780632a82669d146101145780634886f62c146101275780635a7499cd1461012f575b5f80fd5b61011261010d366004610e92565b6102b6565b005b610112610122366004610e92565b6103b0565b610112610553565b61017361013d366004610e92565b600260208190525f91825260409091208054600182015492820154600483015460059093015460ff928316949391929091169085565b60408051951515865260208601949094529284019190915215156060830152608082015260a0015b60405180910390f35b6101126101b2366004610f5a565b61067b565b6101126101c5366004610f5a565b6106ec565b61011261077c565b5f546101e590600160a01b900460ff1681565b604051901515815260200161019b565b5f546040516001600160a01b03909116815260200161019b565b61021761078f565b604080519415158552602085019390935291830152606082015260800161019b565b610112610247366004610fa8565b6107ee565b61025560015481565b60405190815260200161019b565b610112610271366004610e92565b61092e565b610289610284366004610e92565b610a55565b60405161019b969594939291906110dd565b6101126102a9366004611166565b610b79565b610112610bb6565b6102be610d61565b5f54600160a01b900460ff16156103145760405162461bcd60e51b81526020600482015260156024820152744d6967726174696f6e20696e2070726f677265737360581b60448201526064015b60405180910390fd5b5f8181526002602052604090206004015460ff166103745760405162461bcd60e51b815260206004820152601860248201527f4d6967726174696f6e206e6f742072657665727369626c650000000000000000604482015260640161030b565b604080518281524260208201527fd8b3253f6d09eb14ef2e16026abb411617e176d52227d7fa500e734bbefd035c91015b60405180910390a150565b6103b8610d61565b5f54600160a01b900460ff166103e05760405162461bcd60e51b815260040161030b90611193565b5f7f54a93883e668f845121f9ed2904459121a66c9b3035aae515f9eb649cbd75b1c5f838152602082905260408120919250600782015460ff16600281111561042b5761042b6111ca565b036104405760078101805460ff191660011790555b600581015f5b815481101561054c575f6001600160a01b031682828154811061046b5761046b6111de565b5f918252602090912001546001600160a01b03160361053a578154829061049490600190611206565b815481106104a4576104a46111de565b905f5260205f20015f9054906101000a90046001600160a01b03168282815481106104d1576104d16111de565b905f5260205f20015f6101000a8154816001600160a01b0302191690836001600160a01b031602179055508180548061050c5761050c61121f565b5f8281526020902081015f1990810180546001600160a01b03191690550190558061053681611233565b9150505b8061054481611248565b915050610446565b5050505050565b61055b610d61565b5f54600160a01b900460ff166105835760405162461bcd60e51b815260040161030b90611193565b7f54a93883e668f845121f9ed2904459121a66c9b3035aae515f9eb649cbd75b25545f907f54a93883e668f845121f9ed2904459121a66c9b3035aae515f9eb649cbd75b1c906105d39083611260565b7f588251c211afc5e129362241640344aecbbb6b8c08b4906c2cd81f276a1dca18549092507f588251c211afc5e129362241640344aecbbb6b8c08b4906c2cd81f276a1dca0f906106249084611260565b5f805460ff60a01b19169055600154604080519182526020820183905242908201529093507fcdf3dbcff779ee82c69de3a32c6ddbf910d87b5c1f6eb262f78c1f49fb0aa9209060600160405180910390a1505050565b610683610d61565b5f54600160a01b900460ff166106ab5760405162461bcd60e51b815260040161030b90611193565b5f805460ff60a01b191690556001546040517f1e5deb5c7ab9e7cfbd1ecc8f964b9b9f66aee5269cdec60d8cbdce5ee949dd6d916103a59184904290611273565b6106f4610d61565b5f54600160a01b900460ff1661071c5760405162461bcd60e51b815260040161030b90611193565b6040517ff7a9062d04ea8d0705dde5e1a327b309bcebc1d15f53388d8da603a362b43cda905f90829061075090859061129b565b908152602001604051809103902090508060010154815f0154101561077757805460018201555b505050565b610784610d61565b61078d5f610d8d565b565b5f8054600154829182918291600160a01b900460ff1690816107b1575f6107b5565b6001545b5f54600160a01b900460ff166107cb575f6107e0565b6001545f908152600260205260409020600501545b935093509350935090919293565b6107f6610d61565b83851061083d5760405162461bcd60e51b815260206004820152601560248201527424b73b30b634b2103b32b939b4b7b71037b93232b960591b604482015260640161030b565b5f83511161088d5760405162461bcd60e51b815260206004820152601760248201527f4e6f206f7065726174696f6e7320737065636966696564000000000000000000604482015260640161030b565b6040805160c0810182526001808252602080830189815283850189815260608501898152881515608087015260a086018890525f8b815260028086529790208651815460ff19169015151781559251948301949094555194810194909455905180519293926109029260038501920190610ddc565b50608082015160048201805460ff191691151591909117905560a0909101516005909101555050505050565b610936610d61565b5f54600160a01b900460ff161561098f5760405162461bcd60e51b815260206004820152601d60248201527f4d6967726174696f6e20616c726561647920696e2070726f6772657373000000604482015260640161030b565b5f8181526002602052604090205460ff166109ec5760405162461bcd60e51b815260206004820152601860248201527f4d6967726174696f6e20706c616e206e6f7420666f756e640000000000000000604482015260640161030b565b5f805460ff60a01b1916600160a01b17815560018281558282526002602052604091829020015490517f4a2509dd6221c4bb96153fc6464a918439eec9362a9f163a1d8c5861108f2768916103a591849042909283526020830191909152604082015260600190565b5f8181526002602081815260408084208054600182015494820154600483015460058401546003850180548751818a0281018a019098528088528a998a996060998b998a99909860ff9182169894979096959190941693928591908b9084015b82821015610b5d578382905f5260205f20018054610ad2906112b6565b80601f0160208091040260200160405190810160405280929190818152602001828054610afe906112b6565b8015610b495780601f10610b2057610100808354040283529160200191610b49565b820191905f5260205f20905b815481529060010190602001808311610b2c57829003601f168201915b505050505081526020019060010190610ab5565b5050505092509650965096509650965096505091939550919395565b610b81610d61565b6001600160a01b038116610baa57604051631e4fbdf760e01b81525f600482015260240161030b565b610bb381610d8d565b50565b610bbe610d61565b5f54600160a01b900460ff16610be65760405162461bcd60e51b815260040161030b90611193565b7f588251c211afc5e129362241640344aecbbb6b8c08b4906c2cd81f276a1dca0f7f588251c211afc5e129362241640344aecbbb6b8c08b4906c2cd81f276a1dca185f5b8154811015610777575f828281548110610c4657610c466111de565b5f9182526020808320909101546001600160a01b031680835260058701909152604090912054909150158015610c9357506001600160a01b0381165f908152600785016020526040902054155b15610d4e5782548390610ca890600190611206565b81548110610cb857610cb86111de565b905f5260205f20015f9054906101000a90046001600160a01b0316838381548110610ce557610ce56111de565b905f5260205f20015f6101000a8154816001600160a01b0302191690836001600160a01b0316021790555082805480610d2057610d2061121f565b5f8281526020902081015f1990810180546001600160a01b031916905501905581610d4a81611233565b9250505b5080610d5981611248565b915050610c2a565b5f546001600160a01b0316331461078d5760405163118cdaa760e01b815233600482015260240161030b565b5f80546001600160a01b038381166001600160a01b0319831681178455604051919092169283917f8be0079c531659141344cd1fd0a4f28419497f9722a3daafe3b4186f6b6457e09190a35050565b828054828255905f5260205f20908101928215610e20579160200282015b82811115610e205782518290610e109082611332565b5091602001919060010190610dfa565b50610e2c929150610e30565b5090565b80821115610e2c575f610e438282610e4c565b50600101610e30565b508054610e58906112b6565b5f825580601f10610e67575050565b601f0160209004905f5260205f2090810190610bb391905b80821115610e2c575f8155600101610e7f565b5f60208284031215610ea2575f80fd5b5035919050565b634e487b7160e01b5f52604160045260245ffd5b604051601f8201601f1916810167ffffffffffffffff81118282101715610ee657610ee6610ea9565b604052919050565b5f82601f830112610efd575f80fd5b813567ffffffffffffffff811115610f1757610f17610ea9565b610f2a601f8201601f1916602001610ebd565b818152846020838601011115610f3e575f80fd5b816020850160208301375f918101602001919091529392505050565b5f60208284031215610f6a575f80fd5b813567ffffffffffffffff811115610f80575f80fd5b610f8c84828501610eee565b949350505050565b80358015158114610fa3575f80fd5b919050565b5f805f805f60a08688031215610fbc575f80fd5b853594506020808701359450604087013567ffffffffffffffff80821115610fe2575f80fd5b818901915089601f830112610ff5575f80fd5b81358181111561100757611007610ea9565b8060051b611016858201610ebd565b918252838101850191858101908d84111561102f575f80fd5b86860192505b838310156110695782358581111561104b575f80fd5b6110598f89838a0101610eee565b8352509186019190860190611035565b8099505050505050505061107f60608701610f94565b949793965091946080013592915050565b5f5b838110156110aa578181015183820152602001611092565b50505f910152565b5f81518084526110c9816020860160208601611090565b601f01601f19169290920160200192915050565b5f60c082018815158352602088602085015287604085015260c0606085015281875180845260e08601915060e08160051b8701019350602089015f5b828110156111475760df198887030184526111358683516110b2565b95509284019290840190600101611119565b50505050941515608084015260a0909201929092529695505050505050565b5f60208284031215611176575f80fd5b81356001600160a01b038116811461118c575f80fd5b9392505050565b60208082526018908201527f4e6f206d6967726174696f6e20696e2070726f67726573730000000000000000604082015260600190565b634e487b7160e01b5f52602160045260245ffd5b634e487b7160e01b5f52603260045260245ffd5b634e487b7160e01b5f52601160045260245ffd5b81810381811115611219576112196111f2565b92915050565b634e487b7160e01b5f52603160045260245ffd5b5f81611241576112416111f2565b505f190190565b5f60018201611259576112596111f2565b5060010190565b80820180821115611219576112196111f2565b838152606060208201525f61128b60608301856110b2565b9050826040830152949350505050565b5f82516112ac818460208701611090565b9190910192915050565b600181811c908216806112ca57607f821691505b6020821081036112e857634e487b7160e01b5f52602260045260245ffd5b50919050565b601f82111561077757805f5260205f20601f840160051c810160208510156113135750805b601f840160051c820191505b8181101561054c575f815560010161131f565b815167ffffffffffffffff81111561134c5761134c610ea9565b6113608161135a84546112b6565b846112ee565b602080601f831160018114611393575f841561137c5750858301515b5f19600386901b1c1916600185901b1785556113ea565b5f85815260208120601f198616915b828110156113c1578886015182559484019460019091019084016113a2565b50858210156113de57878501515f19600388901b60f8161c191681555b505060018460011b0185555b50505050505056fea2646970667358221220ff931b0782bec6b5e70266070abae84eae6062f8cf6d6c0c0cd03d7aa6d76a8864736f6c63430008160033","linkReferences":{}},"methodIdentifiers":{"completeMigration()":"4886f62c","createMigrationPlan(uint256,uint256,string[],bool,uint256)":"b50e043a","currentMigrationVersion()":"ca595cca","failMigration(string)":"620e4573","getMigrationPlan(uint256)":"e9487d54","getMigrationStatus()":"a415c02c","isMigrationInProgress()":"8c25f093","migrateAnalyticsData()":"ffefcd21","migrateGameData(uint256)":"2a82669d","migrateTreasuryData(string)":"68bda7e1","migrationPlans(uint256)":"5a7499cd","owner()":"8da5cb5b","renounceOwnership()":"715018a6","rollbackMigration(uint256)":"11f4eee3","startMigration(uint256)":"dfda1ff1","transferOwnership(address)":"f2fde38b"},"storageLayout":{"storage":[{"astId":63803,"contract":"contracts/shared/storage/StorageMigration.sol:StorageMigration","label":"_owner","offset":0,"slot":"0","type":"t_address"},{"astId":17110,"contract":"contracts/shared/storage/StorageMigration.sol:StorageMigration","label":"isMigrationInProgress","offset":20,"slot":"0","type":"t_bool"},{"astId":17112,"contract":"contracts/shared/storage/StorageMigration.sol:StorageMigration","label":"currentMigrationVersion","offset":0,"slot":"1","type":"t_uint256"},{"astId":17117,"contract":"contracts/shared/storage/StorageMigration.sol:StorageMigration","label":"migrationPlans","offset":0,"slot":"2","type":"t_mapping(t_uint256,t_struct(MigrationPlan)17131_storage)"}],"types":{"t_address":{"encoding":"inplace","label":"address","numberOfBytes":"20"},"t_array(t_string_storage)dyn_storage":{"encoding":"dynamic_array","label":"string[]","numberOfBytes":"32","base":"t_string_storage"},"t_bool":{"encoding":"inplace","label":"bool","numberOfBytes":"1"},"t_mapping(t_uint256,t_struct(MigrationPlan)17131_storage)":{"encoding":"mapping","key":"t_uint256","label":"mapping(uint256 => struct StorageMigration.MigrationPlan)","numberOfBytes":"32","value":"t_struct(MigrationPlan)17131_storage"},"t_string_storage":{"encoding":"bytes","label":"string","numberOfBytes":"32"},"t_struct(MigrationPlan)17131_storage":{"encoding":"inplace","label":"struct StorageMigration.MigrationPlan","numberOfBytes":"192","members":[{"astId":17119,"contract":"contracts/shared/storage/StorageMigration.sol:StorageMigration","label":"exists","offset":0,"slot":"0","type":"t_bool"},{"astId":17121,"contract":"contracts/shared/storage/StorageMigration.sol:StorageMigration","label":"fromVersion","offset":0,"slot":"1","type":"t_uint256"},{"astId":17123,"contract":"contracts/shared/storage/StorageMigration.sol:StorageMigration","label":"toVersion","offset":0,"slot":"2","type":"t_uint256"},{"astId":17126,"contract":"contracts/shared/storage/StorageMigration.sol:StorageMigration","label":"operations","offset":0,"slot":"3","type":"t_array(t_string_storage)dyn_storage"},{"astId":17128,"contract":"contracts/shared/storage/StorageMigration.sol:StorageMigration","label":"isReversible","offset":0,"slot":"4","type":"t_bool"},{"astId":17130,"contract":"contracts/shared/storage/StorageMigration.sol:StorageMigration","label":"estimatedGas","offset":0,"slot":"5","type":"t_uint256"}]},"t_uint256":{"encoding":"inplace","label":"uint256","numberOfBytes":"32"}}},"id":41}