{"abi":[{"type":"constructor","inputs":[],"stateMutability":"nonpayable"},{"type":"function","name":"ANALYTICS_ENGINE","inputs":[],"outputs":[{"name":"","type":"string","internalType":"string"}],"stateMutability":"view"},{"type":"function","name":"CONFIG_MANAGER","inputs":[],"outputs":[{"name":"","type":"string","internalType":"string"}],"stateMutability":"view"},{"type":"function","name":"CRYPTOLOTTO_REFERRAL","inputs":[],"outputs":[{"name":"","type":"string","internalType":"string"}],"stateMutability":"view"},{"type":"function","name":"EMERGENCY_MANAGER","inputs":[],"outputs":[{"name":"","type":"string","internalType":"string"}],"stateMutability":"view"},{"type":"function","name":"EVENT_LOGGER","inputs":[],"outputs":[{"name":"","type":"string","internalType":"string"}],"stateMutability":"view"},{"type":"function","name":"FUNDS_DISTRIBUTOR","inputs":[],"outputs":[{"name":"","type":"string","internalType":"string"}],"stateMutability":"view"},{"type":"function","name":"GAME_FACTORY","inputs":[],"outputs":[{"name":"","type":"string","internalType":"string"}],"stateMutability":"view"},{"type":"function","name":"MIGRATIONS","inputs":[],"outputs":[{"name":"","type":"string","internalType":"string"}],"stateMutability":"view"},{"type":"function","name":"MONITORING_SYSTEM","inputs":[],"outputs":[{"name":"","type":"string","internalType":"string"}],"stateMutability":"view"},{"type":"function","name":"STATS_AGGREGATOR","inputs":[],"outputs":[{"name":"","type":"string","internalType":"string"}],"stateMutability":"view"},{"type":"function","name":"SYSTEM_MANAGER","inputs":[],"outputs":[{"name":"","type":"string","internalType":"string"}],"stateMutability":"view"},{"type":"function","name":"TREASURY_MANAGER","inputs":[],"outputs":[{"name":"","type":"string","internalType":"string"}],"stateMutability":"view"},{"type":"function","name":"contractNames","inputs":[{"name":"","type":"address","internalType":"address"}],"outputs":[{"name":"","type":"string","internalType":"string"}],"stateMutability":"view"},{"type":"function","name":"contracts","inputs":[{"name":"","type":"string","internalType":"string"}],"outputs":[{"name":"","type":"address","internalType":"address"}],"stateMutability":"view"},{"type":"function","name":"getAllContractNames","inputs":[],"outputs":[{"name":"","type":"string[]","internalType":"string[]"}],"stateMutability":"view"},{"type":"function","name":"getContract","inputs":[{"name":"name","type":"string","internalType":"string"}],"outputs":[{"name":"","type":"address","internalType":"address"}],"stateMutability":"view"},{"type":"function","name":"getContractCount","inputs":[],"outputs":[{"name":"","type":"uint256","internalType":"uint256"}],"stateMutability":"view"},{"type":"function","name":"getContractName","inputs":[{"name":"contractAddress","type":"address","internalType":"address"}],"outputs":[{"name":"","type":"string","internalType":"string"}],"stateMutability":"view"},{"type":"function","name":"getContracts","inputs":[{"name":"names","type":"string[]","internalType":"string[]"}],"outputs":[{"name":"","type":"address[]","internalType":"address[]"}],"stateMutability":"view"},{"type":"function","name":"isRegistered","inputs":[{"name":"name","type":"string","internalType":"string"}],"outputs":[{"name":"","type":"bool","internalType":"bool"}],"stateMutability":"view"},{"type":"function","name":"owner","inputs":[],"outputs":[{"name":"","type":"address","internalType":"address"}],"stateMutability":"view"},{"type":"function","name":"registerBatchContracts","inputs":[{"name":"names","type":"string[]","internalType":"string[]"},{"name":"addresses","type":"address[]","internalType":"address[]"}],"outputs":[],"stateMutability":"nonpayable"},{"type":"function","name":"registerContract","inputs":[{"name":"name","type":"string","internalType":"string"},{"name":"contractAddress","type":"address","internalType":"address"}],"outputs":[],"stateMutability":"nonpayable"},{"type":"function","name":"removeContract","inputs":[{"name":"name","type":"string","internalType":"string"}],"outputs":[],"stateMutability":"nonpayable"},{"type":"function","name":"renounceOwnership","inputs":[],"outputs":[],"stateMutability":"nonpayable"},{"type":"function","name":"transferOwnership","inputs":[{"name":"newOwner","type":"address","internalType":"address"}],"outputs":[],"stateMutability":"nonpayable"},{"type":"function","name":"updateContract","inputs":[{"name":"name","type":"string","internalType":"string"},{"name":"newAddress","type":"address","internalType":"address"}],"outputs":[],"stateMutability":"nonpayable"},{"type":"event","name":"BatchContractsRegistered","inputs":[{"name":"names","type":"string[]","indexed":false,"internalType":"string[]"},{"name":"addresses","type":"address[]","indexed":false,"internalType":"address[]"}],"anonymous":false},{"type":"event","name":"ContractRegistered","inputs":[{"name":"name","type":"string","indexed":true,"internalType":"string"},{"name":"contractAddress","type":"address","indexed":true,"internalType":"address"}],"anonymous":false},{"type":"event","name":"ContractRemoved","inputs":[{"name":"name","type":"string","indexed":true,"internalType":"string"},{"name":"contractAddress","type":"address","indexed":true,"internalType":"address"}],"anonymous":false},{"type":"event","name":"ContractUpdated","inputs":[{"name":"name","type":"string","indexed":true,"internalType":"string"},{"name":"oldAddress","type":"address","indexed":true,"internalType":"address"},{"name":"newAddress","type":"address","indexed":true,"internalType":"address"}],"anonymous":false},{"type":"event","name":"OwnershipTransferred","inputs":[{"name":"previousOwner","type":"address","indexed":true,"internalType":"address"},{"name":"newOwner","type":"address","indexed":true,"internalType":"address"}],"anonymous":false},{"type":"error","name":"OwnableInvalidOwner","inputs":[{"name":"owner","type":"address","internalType":"address"}]},{"type":"error","name":"OwnableUnauthorizedAccount","inputs":[{"name":"account","type":"address","internalType":"address"}]}],"bytecode":{"object":"0x60808060405234610078573315610063575f8054336001600160a01b03198216811783556040519290916001600160a01b0316907f8be0079c531659141344cd1fd0a4f28419497f9722a3daafe3b4186f6b6457e09080a36118b8908161007d8239f35b631e4fbdf760e01b81525f6004820152602490fd5b5f80fdfe604060808152600480361015610013575f80fd5b5f3560e01c908163014476b4146110d857816307d9855b146110bb5781630d191d5e1461109e5781631062d87e14610da8578163162cd26214610d8b5781631f80b872146102055781632a7efb5e14610d6e5781633581777314610cc757816338b6187714610caa5781634a842a7e14610c8d578163697a60b314610aad5781636d64c83f14610a90578163712016b314610a73578163715018a614610a1c5781637f3c2c281461087b5781638abf6435146107c95781638c5b8385146107645781638da5cb5b1461073d5781639399869d1461057d57816397623b5814610454578163c822d7f0146103ed578163d7a9b81614610278578163e0c0ed511461025b578163f277508f1461023e578163f299ad4414610205578163f2fde38b1461017d575063fec61f0614610146575f80fd5b34610179575f3660031901126101795761017590610162611633565b9051918291602083526020830190611191565b0390f35b5f80fd5b905034610179576020366003190112610179576101986112fb565b906101a1611857565b6001600160a01b039182169283156101ef5750505f54826001600160601b0360a01b8216175f55167f8be0079c531659141344cd1fd0a4f28419497f9722a3daafe3b4186f6b6457e05f80a3005b905f6024925191631e4fbdf760e01b8352820152fd5b823461017957602036600319011261017957610175906001600160a01b0361022b6112fb565b165f526002602052610162815f20611372565b8234610179575f3660031901126101795761017590610162611608565b8234610179575f36600319011261017957610175906101626115e1565b8234610179575f366003190112610179578051916102a08301908382106001600160401b038311176103da57508152601482525f5b61028081106103c957505f906001600160a01b03806102d26102cd611608565b61155f565b54166103a3575b6102e46102cd611633565b5416610375575b6102f482611210565b9161030182519384611124565b808352601f1961031082611210565b015f5b8181106103645750505f5b81811061033a5782516020808252819061017590820187611585565b8061034760019287611680565b516103528287611680565b5261035d8186611680565b500161031e565b806060602080938801015201610313565b9061039d90610382611633565b61038c8286611680565b526103978185611680565b50611835565b906102eb565b91506103ad611608565b6103b68461165f565b526103c08361165f565b506001916102d9565b8060606020809386010152016102ad565b604190634e487b7160e01b5f525260245ffd5b82346101795760203660031901126101795781356001600160401b0381116101795760209261041e91369101611227565b8261043183519283815193849201611170565b6001908201908152819003830190205490516001600160a01b0390911615158152f35b905034610179576020806003193601126101795781356001600160401b0381116101795761051a9261048891369101611227565b90610491611857565b8351936104df82845196818601976104aa81838b611170565b600190820190815281900382019020546001600160a01b0316966104cf8815156117c9565b8351809381928851928391611170565b810160018152030190206001600160601b0360a01b8154169055845f52600282525f2061050c815461133a565b80610540575b505050611815565b7f7ad6d7c73213a93d033801d72c729d90fb72104796b75ad799858b26f2b9872f5f80a3005b5f92601f8211600114610559575050555b5f8080610512565b828452832091839161057690601f0160051c840160018501611770565b5555610551565b8234610179575f366003190112610179576020905f906001600160a01b03806105a76102cd611608565b5416610734575b806105ba6102cd611633565b5416610724575b806105cd6102cd6114d3565b5416610714575b806105e06102cd611311565b5416610704575b806105f36102cd611414565b54166106f4575b806106066102cd6111e1565b54166106e4575b806106196102cd611145565b54166106d4575b8061062c6102cd6111b6565b54166106c4575b8061063f6102cd611466565b54166106b4575b806106526102cd6115e1565b54166106a4575b806106656102cd611440565b5416610694575b6106776102cd6114fc565b5416610684575b51908152f35b9061068e90611835565b9061067e565b9161069e90611835565b9161066c565b916106ae90611835565b91610659565b916106be90611835565b91610646565b916106ce90611835565b91610633565b916106de90611835565b91610620565b916106ee90611835565b9161060d565b916106fe90611835565b916105fa565b9161070e90611835565b916105e7565b9161071e90611835565b916105d4565b9161072e90611835565b916105c1565b600192506105ae565b8234610179575f366003190112610179575f5490516001600160a01b039091168152602090f35b82346101795760203660031901126101795781356001600160401b0381116101795760209261079591369101611227565b826107a883519283815193849201611170565b6001908201908152819003830190205490516001600160a01b039091168152f35b905034610179576020366003190112610179578035906001600160401b038211610179576107f99136910161127c565b90815161080581611210565b9061081283519283611124565b808252610821601f1991611210565b013660208301375f5b8351811015610864576001906001600160a01b0361085161084b8388611680565b5161155f565b541661085d8285611680565b520161082a565b506101759151918291602083526020830190611523565b8234610179576108ef9161088e36611492565b9091610898611857565b6001600160a01b03918216936108af851515611694565b6108bb845115156116e0565b6108ff81519385516020988992838901926108d7818a86611170565b880197848160019a6001815203019020541615611724565b8351809381928951928391611170565b81016001815203019020856001600160601b0360a01b825416179055845f52600286525f20918351916001600160401b0383116103da575061094b82610945855461133a565b85611786565b85601f83116001146109b55750508061097d9161098495965f916109aa575b508160011b915f199060031b1c19161790565b9055611815565b7f2a88e68a891ddb61f7aebfdeefd9fb74964fcd5371b692ea59cca73fc58f48055f80a3005b90508401518761096a565b5f8481528181209792601f19851692905b838310610a05575050509582916001936109849798106109ed575b5050811b019055611815565b8501515f1960f88460031b161c1916905586806109e1565b878501518a559889019893810193918101916109c6565b34610179575f36600319011261017957610a34611857565b5f80546001600160a01b0319811682556001600160a01b03167f8be0079c531659141344cd1fd0a4f28419497f9722a3daafe3b4186f6b6457e08280a3005b8234610179575f36600319011261017957610175906101626114fc565b8234610179575f36600319011261017957610175906101626114d3565b90503461017957610abd36611492565b9290610ac7611857565b6001600160a01b0393841692610ade841515611694565b825190825193610b45602088610b16829a83890199610afe818a8d611170565b880197848160019a8b815203019020541615156117c9565b8351828180610b298c8c51928391611170565b8101898152030190205416968351809381928951928391611170565b81018681520301902080546001600160a01b031916871790555f858152600288528181208054610b749061133a565b601f8111610c6f575b5055855f52600287525f20918351916001600160401b0383116103da5750610ba982610945855461133a565b86601f8311600114610c0c5750508061097d91610bdb9596975f91610c0157508160011b915f199060031b1c19161790565b7f508230d9e989b49c651e1c7be29de727f16d9c1027f7660466911e442c3121fb5f80a4005b90508401515f61096a565b601f92919219821697845f52815f20915f905b8a8210610c5857505082610bdb97989910610c40575050811b019055611815565b8501515f1960f88460031b161c191690555f806109e1565b808684958294958b01518155019401920190610c1f565b818352898320610c8791601f0160051c810190611770565b5f610b7d565b8234610179575f3660031901126101795761017590610162611466565b8234610179575f3660031901126101795761017590610162611440565b9050346101795760203660031901126101795780356001600160401b03811161017957610cf79036908301611227565b6020610d0b84519283815193849201611170565b60019082019081528190036020019020546001600160a01b0316908115610d36575060209151908152f35b606490602084519162461bcd60e51b8352820152601260248201527110dbdb9d1c9858dd081b9bdd08199bdd5b9960721b6044820152fd5b8234610179575f3660031901126101795761017590610162611414565b8234610179575f3660031901126101795761017590610162611311565b9050346101795781600319360112610179576001600160401b0390803582811161017957610dd9903690830161127c565b916024938435948286116101795736602387011215610179578584013591610e0083611210565b96610e0d82519889611124565b83885260209383858a019160051b83010191368311610179578401905b82821061107f57505050610e3c611857565b855187510361104557855115611014575f5b8651811015610fc9576001600160a01b03610e7681610e6d848c611680565b51161515611694565b610e8c610e83838a611680565b515115156116e0565b610ea581610e9d61084b858c611680565b541615611724565b80610eb0838b611680565b5116610ebf61084b848b611680565b80546001600160a01b0319169091179055610eda8289611680565b5190610ee6838b611680565b51165f5260028552825f2090805190878211610fb757610f0a82610945855461133a565b8690601f8311600114610f51579180610f3d9260019695945f92610f46575b50508160011b915f199060031b1c19161790565b90555b01610e4e565b015190505f80610f29565b90601f19831691845f52885f20925f5b8a828210610fa15750509084600197969594939210610f89575b505050831b83019055610f40565b01515f1960f88460031b161c191690555f8080610f7b565b6001859682939686015181550195019301610f61565b8560418a634e487b7160e01b5f52525ffd5b81518281527f657d81ea436064f2bf9724fb15d0b5dca58795554e19885553434af3c432087e908061100f878c6110028489018e611585565b9184830390850152611523565b0390a1005b5162461bcd60e51b815280850192909252600c908201526b456d7074792061727261797360a01b6044820152606490fd5b5162461bcd60e51b81528085019290925260159082015274082e4e4c2f240d8cadccee8d040dad2e6dac2e8c6d605b1b6044820152606490fd5b81356001600160a01b0381168103610179578152908501908501610e2a565b8234610179575f36600319011261017957610175906101626111e1565b8234610179575f36600319011261017957610175906101626111b6565b8234610179575f3660031901126101795761017590610162611145565b604081019081106001600160401b0382111761111057604052565b634e487b7160e01b5f52604160045260245ffd5b90601f801991011681019081106001600160401b0382111761111057604052565b60405190611152826110f5565b600f82526e416e616c7974696373456e67696e6560881b6020830152565b5f5b8381106111815750505f910152565b8181015183820152602001611172565b906020916111aa81518092818552858086019101611170565b601f01601f1916010190565b604051906111c3826110f5565b600f82526e29ba30ba39a0b3b3b932b3b0ba37b960891b6020830152565b604051906111ee826110f5565b601382527210dc9e5c1d1bdb1bdd1d1bd49959995c9c985b606a1b6020830152565b6001600160401b0381116111105760051b60200190565b81601f82011215610179578035906001600160401b038211611110576040519261125b601f8401601f191660200185611124565b8284526020838301011161017957815f926020809301838601378301015290565b81601f820112156101795780359160209161129684611210565b936112a46040519586611124565b808552838086019160051b8301019280841161017957848301915b8483106112cf5750505050505090565b82356001600160401b0381116101795786916112f084848094890101611227565b8152019201916112bf565b600435906001600160a01b038216820361017957565b6040519061131e826110f5565b600d82526c29bcb9ba32b6a6b0b730b3b2b960991b6020830152565b90600182811c92168015611368575b602083101461135457565b634e487b7160e01b5f52602260045260245ffd5b91607f1691611349565b9060405191825f82546113848161133a565b908184526020946001916001811690815f146113f257506001146113b4575b5050506113b292500383611124565b565b5f90815285812095935091905b8183106113da5750506113b293508201015f80806113a3565b855488840185015294850194879450918301916113c1565b925050506113b294925060ff191682840152151560051b8201015f80806113a3565b60405190611421826110f5565b601082526f233ab73239a234b9ba3934b13aba37b960811b6020830152565b6040519061144d826110f5565b600a8252694d6967726174696f6e7360b01b6020830152565b60405190611473826110f5565b601082526f4d6f6e69746f72696e6753797374656d60801b6020830152565b604060031982011261017957600435906001600160401b038211610179576114bc91600401611227565b906024356001600160a01b03811681036101795790565b604051906114e0826110f5565b600d82526c21b7b73334b3a6b0b730b3b2b960991b6020830152565b60405190611509826110f5565b600b82526a47616d65466163746f727960a81b6020830152565b9081518082526020808093019301915f5b828110611542575050505090565b83516001600160a01b031685529381019392810192600101611534565b6020611578918160405193828580945193849201611170565b8101600181520301902090565b90808251908181526020809101926020808460051b8301019501935f915b8483106115b35750505050505090565b90919293949584806115d1600193601f198682030187528a51611191565b98019301930191949392906115a3565b604051906115ee826110f5565b600b82526a22bb32b73a2637b3b3b2b960a91b6020830152565b60405190611615826110f5565b600f82526e2a3932b0b9bab93ca6b0b730b3b2b960891b6020830152565b60405190611640826110f5565b601082526f22b6b2b933b2b731bca6b0b730b3b2b960811b6020830152565b80511561166c5760200190565b634e487b7160e01b5f52603260045260245ffd5b805182101561166c5760209160051b010190565b1561169b57565b60405162461bcd60e51b815260206004820152601860248201527f496e76616c696420636f6e7472616374206164647265737300000000000000006044820152606490fd5b156116e757565b60405162461bcd60e51b8152602060048201526015602482015274496e76616c696420636f6e7472616374206e616d6560581b6044820152606490fd5b1561172b57565b60405162461bcd60e51b815260206004820152601b60248201527f436f6e747261637420616c7265616479207265676973746572656400000000006044820152606490fd5b81811061177b575050565b5f8155600101611770565b9190601f811161179557505050565b6113b2925f5260205f20906020601f840160051c830193106117bf575b601f0160051c0190611770565b90915081906117b2565b156117d057565b60405162461bcd60e51b815260206004820152601760248201527f436f6e7472616374206e6f7420726567697374657265640000000000000000006044820152606490fd5b61182d90602060405192828480945193849201611170565b810103902090565b5f1981146118435760010190565b634e487b7160e01b5f52601160045260245ffd5b5f546001600160a01b0316330361186a57565b60405163118cdaa760e01b8152336004820152602490fdfea264697066735822122033821b0ffcbb7d877ae1e0257494aba8382b9aaa6d96b1d2166d94ad9b28841f64736f6c63430008160033","linkReferences":{}},"methodIdentifiers":{"ANALYTICS_ENGINE()":"014476b4","CONFIG_MANAGER()":"6d64c83f","CRYPTOLOTTO_REFERRAL()":"0d191d5e","EMERGENCY_MANAGER()":"fec61f06","EVENT_LOGGER()":"e0c0ed51","FUNDS_DISTRIBUTOR()":"2a7efb5e","GAME_FACTORY()":"712016b3","MIGRATIONS()":"38b61877","MONITORING_SYSTEM()":"4a842a7e","STATS_AGGREGATOR()":"07d9855b","SYSTEM_MANAGER()":"162cd262","TREASURY_MANAGER()":"f277508f","contractNames(address)":"1f80b872","contracts(string)":"8c5b8385","getAllContractNames()":"d7a9b816","getContract(string)":"35817773","getContractCount()":"9399869d","getContractName(address)":"f299ad44","getContracts(string[])":"8abf6435","isRegistered(string)":"c822d7f0","owner()":"8da5cb5b","registerBatchContracts(string[],address[])":"1062d87e","registerContract(string,address)":"7f3c2c28","removeContract(string)":"97623b58","renounceOwnership()":"715018a6","transferOwnership(address)":"f2fde38b","updateContract(string,address)":"697a60b3"},"id":45}