{"abi":[{"type":"constructor","inputs":[],"stateMutability":"nonpayable"},{"type":"function","name":"AD_TOKEN","inputs":[],"outputs":[{"name":"","type":"string","internalType":"string"}],"stateMutability":"view"},{"type":"function","name":"ANALYTICS_ENGINE","inputs":[],"outputs":[{"name":"","type":"string","internalType":"string"}],"stateMutability":"view"},{"type":"function","name":"CIRCUIT_BREAKER","inputs":[],"outputs":[{"name":"","type":"string","internalType":"string"}],"stateMutability":"view"},{"type":"function","name":"CONFIG_MANAGER","inputs":[],"outputs":[{"name":"","type":"string","internalType":"string"}],"stateMutability":"view"},{"type":"function","name":"CRYPTOLOTTO_REFERRAL","inputs":[],"outputs":[{"name":"","type":"string","internalType":"string"}],"stateMutability":"view"},{"type":"function","name":"CRYPTOLOTTO_TOKEN","inputs":[],"outputs":[{"name":"","type":"string","internalType":"string"}],"stateMutability":"view"},{"type":"function","name":"EMERGENCY_MANAGER","inputs":[],"outputs":[{"name":"","type":"string","internalType":"string"}],"stateMutability":"view"},{"type":"function","name":"EVENT_LOGGER","inputs":[],"outputs":[{"name":"","type":"string","internalType":"string"}],"stateMutability":"view"},{"type":"function","name":"FUNDS_DISTRIBUTOR","inputs":[],"outputs":[{"name":"","type":"string","internalType":"string"}],"stateMutability":"view"},{"type":"function","name":"GAME_FACTORY","inputs":[],"outputs":[{"name":"","type":"string","internalType":"string"}],"stateMutability":"view"},{"type":"function","name":"GOVERNANCE_MANAGER","inputs":[],"outputs":[{"name":"","type":"string","internalType":"string"}],"stateMutability":"view"},{"type":"function","name":"MONITORING_SYSTEM","inputs":[],"outputs":[{"name":"","type":"string","internalType":"string"}],"stateMutability":"view"},{"type":"function","name":"ONE_DAY_IMPLEMENTATION","inputs":[],"outputs":[{"name":"","type":"string","internalType":"string"}],"stateMutability":"view"},{"type":"function","name":"RATE_LIMITER","inputs":[],"outputs":[{"name":"","type":"string","internalType":"string"}],"stateMutability":"view"},{"type":"function","name":"SECURITY_UTILS","inputs":[],"outputs":[{"name":"","type":"string","internalType":"string"}],"stateMutability":"view"},{"type":"function","name":"SEVEN_DAYS_IMPLEMENTATION","inputs":[],"outputs":[{"name":"","type":"string","internalType":"string"}],"stateMutability":"view"},{"type":"function","name":"STATS_AGGREGATOR","inputs":[],"outputs":[{"name":"","type":"string","internalType":"string"}],"stateMutability":"view"},{"type":"function","name":"SYSTEM_MANAGER","inputs":[],"outputs":[{"name":"","type":"string","internalType":"string"}],"stateMutability":"view"},{"type":"function","name":"TOKEN_REGISTRY","inputs":[],"outputs":[{"name":"","type":"string","internalType":"string"}],"stateMutability":"view"},{"type":"function","name":"TREASURY_MANAGER","inputs":[],"outputs":[{"name":"","type":"string","internalType":"string"}],"stateMutability":"view"},{"type":"function","name":"contractNames","inputs":[{"name":"","type":"address","internalType":"address"}],"outputs":[{"name":"","type":"string","internalType":"string"}],"stateMutability":"view"},{"type":"function","name":"contracts","inputs":[{"name":"","type":"string","internalType":"string"}],"outputs":[{"name":"","type":"address","internalType":"address"}],"stateMutability":"view"},{"type":"function","name":"getAllContractNames","inputs":[],"outputs":[{"name":"","type":"string[]","internalType":"string[]"}],"stateMutability":"view"},{"type":"function","name":"getContract","inputs":[{"name":"name","type":"string","internalType":"string"}],"outputs":[{"name":"","type":"address","internalType":"address"}],"stateMutability":"view"},{"type":"function","name":"getContractCount","inputs":[],"outputs":[{"name":"","type":"uint256","internalType":"uint256"}],"stateMutability":"view"},{"type":"function","name":"getContractName","inputs":[{"name":"contractAddress","type":"address","internalType":"address"}],"outputs":[{"name":"","type":"string","internalType":"string"}],"stateMutability":"view"},{"type":"function","name":"getContracts","inputs":[{"name":"names","type":"string[]","internalType":"string[]"}],"outputs":[{"name":"","type":"address[]","internalType":"address[]"}],"stateMutability":"view"},{"type":"function","name":"isRegistered","inputs":[{"name":"name","type":"string","internalType":"string"}],"outputs":[{"name":"","type":"bool","internalType":"bool"}],"stateMutability":"view"},{"type":"function","name":"owner","inputs":[],"outputs":[{"name":"","type":"address","internalType":"address"}],"stateMutability":"view"},{"type":"function","name":"registerBatchContracts","inputs":[{"name":"names","type":"string[]","internalType":"string[]"},{"name":"addresses","type":"address[]","internalType":"address[]"}],"outputs":[],"stateMutability":"nonpayable"},{"type":"function","name":"registerContract","inputs":[{"name":"name","type":"string","internalType":"string"},{"name":"contractAddress","type":"address","internalType":"address"}],"outputs":[],"stateMutability":"nonpayable"},{"type":"function","name":"removeContract","inputs":[{"name":"name","type":"string","internalType":"string"}],"outputs":[],"stateMutability":"nonpayable"},{"type":"function","name":"renounceOwnership","inputs":[],"outputs":[],"stateMutability":"nonpayable"},{"type":"function","name":"transferOwnership","inputs":[{"name":"newOwner","type":"address","internalType":"address"}],"outputs":[],"stateMutability":"nonpayable"},{"type":"function","name":"updateContract","inputs":[{"name":"name","type":"string","internalType":"string"},{"name":"newAddress","type":"address","internalType":"address"}],"outputs":[],"stateMutability":"nonpayable"},{"type":"event","name":"BatchContractsRegistered","inputs":[{"name":"names","type":"string[]","indexed":false,"internalType":"string[]"},{"name":"addresses","type":"address[]","indexed":false,"internalType":"address[]"}],"anonymous":false},{"type":"event","name":"ContractRegistered","inputs":[{"name":"name","type":"string","indexed":true,"internalType":"string"},{"name":"contractAddress","type":"address","indexed":true,"internalType":"address"}],"anonymous":false},{"type":"event","name":"ContractRemoved","inputs":[{"name":"name","type":"string","indexed":true,"internalType":"string"},{"name":"contractAddress","type":"address","indexed":true,"internalType":"address"}],"anonymous":false},{"type":"event","name":"ContractUpdated","inputs":[{"name":"name","type":"string","indexed":true,"internalType":"string"},{"name":"oldAddress","type":"address","indexed":true,"internalType":"address"},{"name":"newAddress","type":"address","indexed":true,"internalType":"address"}],"anonymous":false},{"type":"event","name":"OwnershipTransferred","inputs":[{"name":"previousOwner","type":"address","indexed":true,"internalType":"address"},{"name":"newOwner","type":"address","indexed":true,"internalType":"address"}],"anonymous":false},{"type":"error","name":"OwnableInvalidOwner","inputs":[{"name":"owner","type":"address","internalType":"address"}]},{"type":"error","name":"OwnableUnauthorizedAccount","inputs":[{"name":"account","type":"address","internalType":"address"}]}],"bytecode":{"object":"0x60808060405234610078573315610063575f8054336001600160a01b03198216811783556040519290916001600160a01b0316907f8be0079c531659141344cd1fd0a4f28419497f9722a3daafe3b4186f6b6457e09080a3611c72908161007d8239f35b631e4fbdf760e01b81525f6004820152602490fd5b5f80fdfe604060808152600480361015610013575f80fd5b5f3560e01c908163014476b41461133057816307d9855b146113135781630d191d5e146112f65781631062d87e14611000578163162cd26214610fe35781631f80b8721461027a5781632a7efb5e14610fc65781632e9478be14610fa95781633581777314610f0257816336b57e0014610ee55781634a842a7e14610ec85781634c4d07ce14610eab578163697a60b314610ccb5781636d64c83f14610cae578163712016b314610c91578163715018a614610c3a57816371f1929314610c1d5781637f3c2c2814610a7c5781638a5b1d7a14610a5f5781638abf6435146109ad5781638c5b8385146109485781638da5cb5b146109215781639399869d1461064957816397623b5814610520578163c0d94e1014610503578163c822d7f01461049c578163d60079aa1461047f578163d7a9b8161461030a578163da2c1df2146102ed578163e0c0ed51146102d0578163f277508f146102b3578163f299ad441461027a578163f2fde38b146101f257508063fe9f3a9c146101d55763fec61f061461019e575f80fd5b346101d1575f3660031901126101d1576101cd906101ba6119ed565b90519182916020835260208301906113e9565b0390f35b5f80fd5b50346101d1575f3660031901126101d1576101cd906101ba6119c4565b9050346101d15760203660031901126101d15761020d611553565b90610216611c11565b6001600160a01b039182169283156102645750505f54826001600160601b0360a01b8216175f55167f8be0079c531659141344cd1fd0a4f28419497f9722a3daafe3b4186f6b6457e05f80a3005b905f6024925191631e4fbdf760e01b8352820152fd5b82346101d15760203660031901126101d1576101cd906001600160a01b036102a0611553565b165f5260026020526101ba815f206115ca565b82346101d1575f3660031901126101d1576101cd906101ba611999565b82346101d1575f3660031901126101d1576101cd906101ba611972565b82346101d1575f3660031901126101d1576101cd906101ba611946565b82346101d1575f3660031901126101d1578051916102a08301908382106001600160401b0383111761046c57508152601482525f5b610280811061045b57505f906001600160a01b038061036461035f611999565b611868565b5416610435575b61037661035f6119ed565b5416610407575b61038682611468565b916103938251938461137c565b808352601f196103a282611468565b015f5b8181106103f65750505f5b8181106103cc578251602080825281906101cd908201876118ea565b806103d960019287611a3a565b516103e48287611a3a565b526103ef8186611a3a565b50016103b0565b8060606020809388010152016103a5565b9061042f906104146119ed565b61041e8286611a3a565b526104298185611a3a565b50611bef565b9061037d565b915061043f611999565b61044884611a19565b5261045283611a19565b5060019161036b565b80606060208093860101520161033f565b604190634e487b7160e01b5f525260245ffd5b82346101d1575f3660031901126101d1576101cd906101ba6118c7565b82346101d15760203660031901126101d15781356001600160401b0381116101d1576020926104cd9136910161147f565b826104e0835192838151938492016113c8565b6001908201908152819003830190205490516001600160a01b0390911615158152f35b82346101d1575f3660031901126101d1576101cd906101ba61188e565b9050346101d1576020806003193601126101d15781356001600160401b0381116101d1576105e6926105549136910161147f565b9061055d611c11565b8351936105ab828451968186019761057681838b6113c8565b600190820190815281900382019020546001600160a01b03169661059b881515611b83565b83518093819288519283916113c8565b810160018152030190206001600160601b0360a01b8154169055845f52600282525f206105d88154611592565b8061060c575b505050611bcf565b7f7ad6d7c73213a93d033801d72c729d90fb72104796b75ad799858b26f2b9872f5f80a3005b5f92601f8211600114610625575050555b5f80806105de565b828452832091839161064290601f0160051c840160018501611b2a565b555561061d565b82346101d1575f3660031901126101d1576020905f906001600160a01b038061067361035f611999565b5416610918575b8061068661035f6119ed565b5416610908575b8061069961035f611786565b54166108f8575b806106ac61035f6117d6565b54166108e8575b806106bf61035f611569565b54166108d8575b806106d261035f61166c565b54166108c8575b806106e561035f611439565b54166108b8575b806106f861035f61139d565b54166108a8575b8061070b61035f61140e565b5416610898575b8061071e61035f6116ef565b5416610888575b8061073161035f611972565b5416610878575b8061074461035f611946565b5416610868575b8061075761035f6118c7565b5416610858575b8061076a61035f6117af565b5416610848575b8061077d61035f611803565b5416610838575b8061079061035f61171b565b5416610828575b806107a361035f611698565b5416610818575b806107b661035f6119c4565b5416610808575b806107c961035f6116bf565b54166107f8575b6107db61035f61188e565b54166107e8575b51908152f35b906107f290611bef565b906107e2565b9161080290611bef565b916107d0565b9161081290611bef565b916107bd565b9161082290611bef565b916107aa565b9161083290611bef565b91610797565b9161084290611bef565b91610784565b9161085290611bef565b91610771565b9161086290611bef565b9161075e565b9161087290611bef565b9161074b565b9161088290611bef565b91610738565b9161089290611bef565b91610725565b916108a290611bef565b91610712565b916108b290611bef565b916106ff565b916108c290611bef565b916106ec565b916108d290611bef565b916106d9565b916108e290611bef565b916106c6565b916108f290611bef565b916106b3565b9161090290611bef565b916106a0565b9161091290611bef565b9161068d565b6001925061067a565b82346101d1575f3660031901126101d1575f5490516001600160a01b039091168152602090f35b82346101d15760203660031901126101d15781356001600160401b0381116101d1576020926109799136910161147f565b8261098c835192838151938492016113c8565b6001908201908152819003830190205490516001600160a01b039091168152f35b9050346101d15760203660031901126101d1578035906001600160401b0382116101d1576109dd913691016114d4565b9081516109e981611468565b906109f68351928361137c565b808252610a05601f1991611468565b013660208301375f5b8351811015610a48576001906001600160a01b03610a35610a2f8388611a3a565b51611868565b5416610a418285611a3a565b5201610a0e565b506101cd915191829160208352602083019061182c565b82346101d1575f3660031901126101d1576101cd906101ba611803565b82346101d157610af091610a8f36611745565b9091610a99611c11565b6001600160a01b0391821693610ab0851515611a4e565b610abc84511515611a9a565b610b008151938551602098899283890192610ad8818a866113c8565b880197848160019a6001815203019020541615611ade565b83518093819289519283916113c8565b81016001815203019020856001600160601b0360a01b825416179055845f52600286525f20918351916001600160401b03831161046c5750610b4c82610b468554611592565b85611b40565b85601f8311600114610bb657505080610b7e91610b8595965f91610bab575b508160011b915f199060031b1c19161790565b9055611bcf565b7f2a88e68a891ddb61f7aebfdeefd9fb74964fcd5371b692ea59cca73fc58f48055f80a3005b905084015187610b6b565b5f8481528181209792601f19851692905b838310610c0657505050958291600193610b85979810610bee575b5050811b019055611bcf565b8501515f1960f88460031b161c191690558680610be2565b878501518a55988901989381019391810191610bc7565b82346101d1575f3660031901126101d1576101cd906101ba6117d6565b346101d1575f3660031901126101d157610c52611c11565b5f80546001600160a01b0319811682556001600160a01b03167f8be0079c531659141344cd1fd0a4f28419497f9722a3daafe3b4186f6b6457e08280a3005b82346101d1575f3660031901126101d1576101cd906101ba6117af565b82346101d1575f3660031901126101d1576101cd906101ba611786565b9050346101d157610cdb36611745565b9290610ce5611c11565b6001600160a01b0393841692610cfc841515611a4e565b825190825193610d63602088610d34829a83890199610d1c818a8d6113c8565b880197848160019a8b81520301902054161515611b83565b8351828180610d478c8c519283916113c8565b81018981520301902054169683518093819289519283916113c8565b81018681520301902080546001600160a01b031916871790555f858152600288528181208054610d9290611592565b601f8111610e8d575b5055855f52600287525f20918351916001600160401b03831161046c5750610dc782610b468554611592565b86601f8311600114610e2a57505080610b7e91610df99596975f91610e1f57508160011b915f199060031b1c19161790565b7f508230d9e989b49c651e1c7be29de727f16d9c1027f7660466911e442c3121fb5f80a4005b90508401515f610b6b565b601f92919219821697845f52815f20915f905b8a8210610e7657505082610df997989910610e5e575050811b019055611bcf565b8501515f1960f88460031b161c191690555f80610be2565b808684958294958b01518155019401920190610e3d565b818352898320610ea591601f0160051c810190611b2a565b5f610d9b565b82346101d1575f3660031901126101d1576101cd906101ba61171b565b82346101d1575f3660031901126101d1576101cd906101ba6116ef565b82346101d1575f3660031901126101d1576101cd906101ba6116bf565b9050346101d15760203660031901126101d15780356001600160401b0381116101d157610f32903690830161147f565b6020610f46845192838151938492016113c8565b60019082019081528190036020019020546001600160a01b0316908115610f71575060209151908152f35b606490602084519162461bcd60e51b8352820152601260248201527110dbdb9d1c9858dd081b9bdd08199bdd5b9960721b6044820152fd5b82346101d1575f3660031901126101d1576101cd906101ba611698565b82346101d1575f3660031901126101d1576101cd906101ba61166c565b82346101d1575f3660031901126101d1576101cd906101ba611569565b9050346101d157816003193601126101d1576001600160401b039080358281116101d15761103190369083016114d4565b916024938435948286116101d157366023870112156101d157858401359161105883611468565b966110658251988961137c565b83885260209383858a019160051b830101913683116101d1578401905b8282106112d757505050611094611c11565b855187510361129d5785511561126c575f5b8651811015611221576001600160a01b036110ce816110c5848c611a3a565b51161515611a4e565b6110e46110db838a611a3a565b51511515611a9a565b6110fd816110f5610a2f858c611a3a565b541615611ade565b80611108838b611a3a565b5116611117610a2f848b611a3a565b80546001600160a01b03191690911790556111328289611a3a565b519061113e838b611a3a565b51165f5260028552825f209080519087821161120f5761116282610b468554611592565b8690601f83116001146111a95791806111959260019695945f9261119e575b50508160011b915f199060031b1c19161790565b90555b016110a6565b015190505f80611181565b90601f19831691845f52885f20925f5b8a8282106111f957505090846001979695949392106111e1575b505050831b83019055611198565b01515f1960f88460031b161c191690555f80806111d3565b60018596829396860151815501950193016111b9565b8560418a634e487b7160e01b5f52525ffd5b81518281527f657d81ea436064f2bf9724fb15d0b5dca58795554e19885553434af3c432087e9080611267878c61125a8489018e6118ea565b918483039085015261182c565b0390a1005b5162461bcd60e51b815280850192909252600c908201526b456d7074792061727261797360a01b6044820152606490fd5b5162461bcd60e51b81528085019290925260159082015274082e4e4c2f240d8cadccee8d040dad2e6dac2e8c6d605b1b6044820152606490fd5b81356001600160a01b03811681036101d1578152908501908501611082565b82346101d1575f3660031901126101d1576101cd906101ba611439565b82346101d1575f3660031901126101d1576101cd906101ba61140e565b82346101d1575f3660031901126101d1576101cd906101ba61139d565b604081019081106001600160401b0382111761136857604052565b634e487b7160e01b5f52604160045260245ffd5b90601f801991011681019081106001600160401b0382111761136857604052565b604051906113aa8261134d565b600f82526e416e616c7974696373456e67696e6560881b6020830152565b5f5b8381106113d95750505f910152565b81810151838201526020016113ca565b90602091611402815180928185528580860191016113c8565b601f01601f1916010190565b6040519061141b8261134d565b600f82526e29ba30ba39a0b3b3b932b3b0ba37b960891b6020830152565b604051906114468261134d565b601382527210dc9e5c1d1bdb1bdd1d1bd49959995c9c985b606a1b6020830152565b6001600160401b0381116113685760051b60200190565b81601f820112156101d1578035906001600160401b03821161136857604051926114b3601f8401601f19166020018561137c565b828452602083830101116101d157815f926020809301838601378301015290565b81601f820112156101d1578035916020916114ee84611468565b936114fc604051958661137c565b808552838086019160051b830101928084116101d157848301915b8483106115275750505050505090565b82356001600160401b0381116101d15786916115488484809489010161147f565b815201920191611517565b600435906001600160a01b03821682036101d157565b604051906115768261134d565b600d82526c29bcb9ba32b6a6b0b730b3b2b960991b6020830152565b90600182811c921680156115c0575b60208310146115ac57565b634e487b7160e01b5f52602260045260245ffd5b91607f16916115a1565b9060405191825f82546115dc81611592565b908184526020946001916001811690815f1461164a575060011461160c575b50505061160a9250038361137c565b565b5f90815285812095935091905b81831061163257505061160a93508201015f80806115fb565b85548884018501529485019487945091830191611619565b9250505061160a94925060ff191682840152151560051b8201015f80806115fb565b604051906116798261134d565b601082526f233ab73239a234b9ba3934b13aba37b960811b6020830152565b604051906116a58261134d565b600b82526a2930ba32a634b6b4ba32b960a91b6020830152565b604051906116cc8261134d565b601482527327b732a230bca4b6b83632b6b2b73a30ba34b7b760611b6020830152565b604051906116fc8261134d565b601082526f4d6f6e69746f72696e6753797374656d60801b6020830152565b604051906117288261134d565b600e82526d21b4b931bab4ba213932b0b5b2b960911b6020830152565b60406003198201126101d157600435906001600160401b0382116101d15761176f9160040161147f565b906024356001600160a01b03811681036101d15790565b604051906117938261134d565b600d82526c21b7b73334b3a6b0b730b3b2b960991b6020830152565b604051906117bc8261134d565b600b82526a47616d65466163746f727960a81b6020830152565b604051906117e38261134d565b601182527023b7bb32b93730b731b2a6b0b730b3b2b960791b6020830152565b604051906118108261134d565b600d82526c546f6b656e526567697374727960981b6020830152565b9081518082526020808093019301915f5b82811061184b575050505090565b83516001600160a01b03168552938101939281019260010161183d565b60206118819181604051938285809451938492016113c8565b8101600181520301902090565b6040519061189b8261134d565b601782527f536576656e44617973496d706c656d656e746174696f6e0000000000000000006020830152565b604051906118d48261134d565b600782526620b22a37b5b2b760c91b6020830152565b90808251908181526020809101926020808460051b8301019501935f915b8483106119185750505050505090565b9091929394958480611936600193601f198682030187528a516113e9565b9801930193019194939290611908565b604051906119538261134d565b601082526f21b93cb83a37b637ba3a37aa37b5b2b760811b6020830152565b6040519061197f8261134d565b600b82526a22bb32b73a2637b3b3b2b960a91b6020830152565b604051906119a68261134d565b600f82526e2a3932b0b9bab93ca6b0b730b3b2b960891b6020830152565b604051906119d18261134d565b600d82526c53656375726974795574696c7360981b6020830152565b604051906119fa8261134d565b601082526f22b6b2b933b2b731bca6b0b730b3b2b960811b6020830152565b805115611a265760200190565b634e487b7160e01b5f52603260045260245ffd5b8051821015611a265760209160051b010190565b15611a5557565b60405162461bcd60e51b815260206004820152601860248201527f496e76616c696420636f6e7472616374206164647265737300000000000000006044820152606490fd5b15611aa157565b60405162461bcd60e51b8152602060048201526015602482015274496e76616c696420636f6e7472616374206e616d6560581b6044820152606490fd5b15611ae557565b60405162461bcd60e51b815260206004820152601b60248201527f436f6e747261637420616c7265616479207265676973746572656400000000006044820152606490fd5b818110611b35575050565b5f8155600101611b2a565b9190601f8111611b4f57505050565b61160a925f5260205f20906020601f840160051c83019310611b79575b601f0160051c0190611b2a565b9091508190611b6c565b15611b8a57565b60405162461bcd60e51b815260206004820152601760248201527f436f6e7472616374206e6f7420726567697374657265640000000000000000006044820152606490fd5b611be7906020604051928284809451938492016113c8565b810103902090565b5f198114611bfd5760010190565b634e487b7160e01b5f52601160045260245ffd5b5f546001600160a01b03163303611c2457565b60405163118cdaa760e01b8152336004820152602490fdfea26469706673582212201dbf1d51e9def5097d01e7bf12d71ea35aaa9ebc68808c1b37b40afa27e55ff164736f6c63430008160033","linkReferences":{}},"methodIdentifiers":{"AD_TOKEN()":"d60079aa","ANALYTICS_ENGINE()":"014476b4","CIRCUIT_BREAKER()":"4c4d07ce","CONFIG_MANAGER()":"6d64c83f","CRYPTOLOTTO_REFERRAL()":"0d191d5e","CRYPTOLOTTO_TOKEN()":"da2c1df2","EMERGENCY_MANAGER()":"fec61f06","EVENT_LOGGER()":"e0c0ed51","FUNDS_DISTRIBUTOR()":"2a7efb5e","GAME_FACTORY()":"712016b3","GOVERNANCE_MANAGER()":"71f19293","MONITORING_SYSTEM()":"4a842a7e","ONE_DAY_IMPLEMENTATION()":"36b57e00","RATE_LIMITER()":"2e9478be","SECURITY_UTILS()":"fe9f3a9c","SEVEN_DAYS_IMPLEMENTATION()":"c0d94e10","STATS_AGGREGATOR()":"07d9855b","SYSTEM_MANAGER()":"162cd262","TOKEN_REGISTRY()":"8a5b1d7a","TREASURY_MANAGER()":"f277508f","contractNames(address)":"1f80b872","contracts(string)":"8c5b8385","getAllContractNames()":"d7a9b816","getContract(string)":"35817773","getContractCount()":"9399869d","getContractName(address)":"f299ad44","getContracts(string[])":"8abf6435","isRegistered(string)":"c822d7f0","owner()":"8da5cb5b","registerBatchContracts(string[],address[])":"1062d87e","registerContract(string,address)":"7f3c2c28","removeContract(string)":"97623b58","renounceOwnership()":"715018a6","transferOwnership(address)":"f2fde38b","updateContract(string,address)":"697a60b3"},"id":50}