{"abi":[{"type":"constructor","inputs":[],"stateMutability":"nonpayable"},{"type":"function","name":"adReward","inputs":[],"outputs":[{"name":"","type":"uint256","internalType":"uint256"}],"stateMutability":"view"},{"type":"function","name":"allowance","inputs":[{"name":"owner","type":"address","internalType":"address"},{"name":"spender","type":"address","internalType":"address"}],"outputs":[{"name":"","type":"uint256","internalType":"uint256"}],"stateMutability":"view"},{"type":"function","name":"approve","inputs":[{"name":"spender","type":"address","internalType":"address"},{"name":"value","type":"uint256","internalType":"uint256"}],"outputs":[{"name":"","type":"bool","internalType":"bool"}],"stateMutability":"nonpayable"},{"type":"function","name":"balanceOf","inputs":[{"name":"account","type":"address","internalType":"address"}],"outputs":[{"name":"","type":"uint256","internalType":"uint256"}],"stateMutability":"view"},{"type":"function","name":"canWatchAd","inputs":[{"name":"viewer","type":"address","internalType":"address"}],"outputs":[{"name":"","type":"bool","internalType":"bool"}],"stateMutability":"view"},{"type":"function","name":"dailyRewards","inputs":[{"name":"","type":"address","internalType":"address"}],"outputs":[{"name":"","type":"uint256","internalType":"uint256"}],"stateMutability":"view"},{"type":"function","name":"decimals","inputs":[],"outputs":[{"name":"","type":"uint8","internalType":"uint8"}],"stateMutability":"view"},{"type":"function","name":"emergencyPause","inputs":[],"outputs":[],"stateMutability":"nonpayable"},{"type":"function","name":"emergencyPaused","inputs":[],"outputs":[{"name":"","type":"bool","internalType":"bool"}],"stateMutability":"view"},{"type":"function","name":"emergencyResume","inputs":[],"outputs":[],"stateMutability":"nonpayable"},{"type":"function","name":"getAdStats","inputs":[{"name":"viewer","type":"address","internalType":"address"}],"outputs":[{"name":"lastWatch","type":"uint256","internalType":"uint256"},{"name":"totalWatched","type":"uint256","internalType":"uint256"},{"name":"nextAvailableTime","type":"uint256","internalType":"uint256"},{"name":"totalRewards","type":"uint256","internalType":"uint256"},{"name":"dailyRewardUsed","type":"uint256","internalType":"uint256"},{"name":"dailyRewardLimit","type":"uint256","internalType":"uint256"}],"stateMutability":"view"},{"type":"function","name":"getContractStats","inputs":[],"outputs":[{"name":"totalSupply","type":"uint256","internalType":"uint256"},{"name":"currentBalance","type":"uint256","internalType":"uint256"},{"name":"adReward","type":"uint256","internalType":"uint256"},{"name":"maxDailyReward","type":"uint256","internalType":"uint256"},{"name":"isEmergencyPaused","type":"bool","internalType":"bool"}],"stateMutability":"view"},{"type":"function","name":"lastAdWatchTime","inputs":[{"name":"","type":"address","internalType":"address"}],"outputs":[{"name":"","type":"uint256","internalType":"uint256"}],"stateMutability":"view"},{"type":"function","name":"lastRewardReset","inputs":[{"name":"","type":"address","internalType":"address"}],"outputs":[{"name":"","type":"uint256","internalType":"uint256"}],"stateMutability":"view"},{"type":"function","name":"maxRewardPerDay","inputs":[],"outputs":[{"name":"","type":"uint256","internalType":"uint256"}],"stateMutability":"view"},{"type":"function","name":"name","inputs":[],"outputs":[{"name":"","type":"string","internalType":"string"}],"stateMutability":"view"},{"type":"function","name":"owner","inputs":[],"outputs":[{"name":"","type":"address","internalType":"address"}],"stateMutability":"view"},{"type":"function","name":"renounceOwnership","inputs":[],"outputs":[],"stateMutability":"nonpayable"},{"type":"function","name":"setAdReward","inputs":[{"name":"newReward","type":"uint256","internalType":"uint256"}],"outputs":[],"stateMutability":"nonpayable"},{"type":"function","name":"setMaxDailyReward","inputs":[{"name":"newMax","type":"uint256","internalType":"uint256"}],"outputs":[],"stateMutability":"nonpayable"},{"type":"function","name":"symbol","inputs":[],"outputs":[{"name":"","type":"string","internalType":"string"}],"stateMutability":"view"},{"type":"function","name":"totalAdsWatched","inputs":[{"name":"","type":"address","internalType":"address"}],"outputs":[{"name":"","type":"uint256","internalType":"uint256"}],"stateMutability":"view"},{"type":"function","name":"totalRewardsEarned","inputs":[{"name":"","type":"address","internalType":"address"}],"outputs":[{"name":"","type":"uint256","internalType":"uint256"}],"stateMutability":"view"},{"type":"function","name":"totalSupply","inputs":[],"outputs":[{"name":"","type":"uint256","internalType":"uint256"}],"stateMutability":"view"},{"type":"function","name":"transfer","inputs":[{"name":"to","type":"address","internalType":"address"},{"name":"value","type":"uint256","internalType":"uint256"}],"outputs":[{"name":"","type":"bool","internalType":"bool"}],"stateMutability":"nonpayable"},{"type":"function","name":"transferFrom","inputs":[{"name":"from","type":"address","internalType":"address"},{"name":"to","type":"address","internalType":"address"},{"name":"value","type":"uint256","internalType":"uint256"}],"outputs":[{"name":"","type":"bool","internalType":"bool"}],"stateMutability":"nonpayable"},{"type":"function","name":"transferOwnership","inputs":[{"name":"newOwner","type":"address","internalType":"address"}],"outputs":[],"stateMutability":"nonpayable"},{"type":"function","name":"watchAd","inputs":[{"name":"viewer","type":"address","internalType":"address"}],"outputs":[],"stateMutability":"nonpayable"},{"type":"event","name":"AdWatched","inputs":[{"name":"viewer","type":"address","indexed":true,"internalType":"address"},{"name":"reward","type":"uint256","indexed":false,"internalType":"uint256"},{"name":"timestamp","type":"uint256","indexed":false,"internalType":"uint256"}],"anonymous":false},{"type":"event","name":"Approval","inputs":[{"name":"owner","type":"address","indexed":true,"internalType":"address"},{"name":"spender","type":"address","indexed":true,"internalType":"address"},{"name":"value","type":"uint256","indexed":false,"internalType":"uint256"}],"anonymous":false},{"type":"event","name":"EmergencyPaused","inputs":[{"name":"by","type":"address","indexed":true,"internalType":"address"},{"name":"timestamp","type":"uint256","indexed":false,"internalType":"uint256"}],"anonymous":false},{"type":"event","name":"EmergencyResumed","inputs":[{"name":"by","type":"address","indexed":true,"internalType":"address"},{"name":"timestamp","type":"uint256","indexed":false,"internalType":"uint256"}],"anonymous":false},{"type":"event","name":"MaxDailyRewardUpdated","inputs":[{"name":"oldMax","type":"uint256","indexed":false,"internalType":"uint256"},{"name":"newMax","type":"uint256","indexed":false,"internalType":"uint256"},{"name":"timestamp","type":"uint256","indexed":false,"internalType":"uint256"}],"anonymous":false},{"type":"event","name":"OwnershipTransferred","inputs":[{"name":"previousOwner","type":"address","indexed":true,"internalType":"address"},{"name":"newOwner","type":"address","indexed":true,"internalType":"address"}],"anonymous":false},{"type":"event","name":"RewardUpdated","inputs":[{"name":"newReward","type":"uint256","indexed":false,"internalType":"uint256"},{"name":"timestamp","type":"uint256","indexed":false,"internalType":"uint256"}],"anonymous":false},{"type":"event","name":"Transfer","inputs":[{"name":"from","type":"address","indexed":true,"internalType":"address"},{"name":"to","type":"address","indexed":true,"internalType":"address"},{"name":"value","type":"uint256","indexed":false,"internalType":"uint256"}],"anonymous":false},{"type":"error","name":"ERC20InsufficientAllowance","inputs":[{"name":"spender","type":"address","internalType":"address"},{"name":"allowance","type":"uint256","internalType":"uint256"},{"name":"needed","type":"uint256","internalType":"uint256"}]},{"type":"error","name":"ERC20InsufficientBalance","inputs":[{"name":"sender","type":"address","internalType":"address"},{"name":"balance","type":"uint256","internalType":"uint256"},{"name":"needed","type":"uint256","internalType":"uint256"}]},{"type":"error","name":"ERC20InvalidApprover","inputs":[{"name":"approver","type":"address","internalType":"address"}]},{"type":"error","name":"ERC20InvalidReceiver","inputs":[{"name":"receiver","type":"address","internalType":"address"}]},{"type":"error","name":"ERC20InvalidSender","inputs":[{"name":"sender","type":"address","internalType":"address"}]},{"type":"error","name":"ERC20InvalidSpender","inputs":[{"name":"spender","type":"address","internalType":"address"}]},{"type":"error","name":"OwnableInvalidOwner","inputs":[{"name":"owner","type":"address","internalType":"address"}]},{"type":"error","name":"OwnableUnauthorizedAccount","inputs":[{"name":"account","type":"address","internalType":"address"}]}],"bytecode":{"object":"0x608034620003d3576040906001600160401b039080830182811182821017620002de578352600781526020906620b22a37b5b2b760c91b8282015283519284840184811082821117620002de5785526002845261105160f21b838501528151818111620002de576003908154906001948583811c93168015620003c8575b87841014620003b4578190601f9384811162000361575b508790848311600114620002fe575f92620002f2575b50505f1982851b1c191690851b1782555b8551928311620002de5760049586548581811c91168015620002d3575b87821014620002c05782811162000278575b508591841160011462000211579383949184925f9562000205575b50501b925f19911b1c19161782555b3315620001ef5760058054336001600160a01b0319821681179092556001600160a01b03167f8be0079c531659141344cd1fd0a4f28419497f9722a3daafe3b4186f6b6457e05f80a3670de0b6b3a7640000600655678ac7230489e80000600b5560025469d3c21bcecceda100000092838201809211620001dc57505f917fddf252ad1be2c89b69c2b068fc378daa952ba7f163c4a11628f55a4df523b3ef9160025533835282815284832084815401905584519384523393a35161104d9081620003d88239f35b601190634e487b7160e01b5f525260245ffd5b505f6024925191631e4fbdf760e01b8352820152fd5b015193505f8062000105565b9190601f19841692875f5284875f20945f5b898983831062000260575050501062000246575b50505050811b01825562000114565b01519060f8845f19921b161c191690555f80808062000237565b86860151895590970196948501948893500162000223565b875f52865f208380870160051c820192898810620002b6575b0160051c019086905b828110620002aa575050620000ea565b5f81550186906200029a565b9250819262000291565b602288634e487b7160e01b5f525260245ffd5b90607f1690620000d8565b634e487b7160e01b5f52604160045260245ffd5b015190505f80620000aa565b90879350601f19831691865f52895f20925f5b8b8282106200034a575050841162000332575b505050811b018255620000bb565b01515f1983871b60f8161c191690555f808062000324565b8385015186558b9790950194938401930162000311565b909150845f52875f208480850160051c8201928a8610620003aa575b918991869594930160051c01915b8281106200039b57505062000094565b5f81558594508991016200038b565b925081926200037d565b634e487b7160e01b5f52602260045260245ffd5b92607f16926200007d565b5f80fdfe6080604090808252600480361015610015575f80fd5b5f3560e01c91826306fdde0314610d2757508163095ea7b314610c7f57816318160ddd14610c6157816323b872dd14610b6f57816327c830a914610b4c578163313ce56714610b3157816351858e2714610adf57816358e63d6f1461082d57816358fdfbac146107ff5781636b63c56a146107c85781636ee30fd91461071257816370a08231146106dc578163715018a614610681578163827c8aaf1461064a57816382bf48521461062c5781638da5cb5b146106045781639107cd4b146105cd57816393c87f031461057e57816395d89b411461045f578163a1d5320c146103c5578163a9059cbb14610395578163aff2b17a1461035e578163dd62ed3e14610315578163dfe6b5d6146102d4578163e4f24cb01461029d578163f2fde38b1461020e578163f790a77714610175575063fade13c814610154575f80fd5b34610171575f366003190112610171576020906006549051908152f35b5f80fd5b823461017157602080600319360112610171576001600160a01b03610198610e46565b16805f5260078252825f20549260088352805f20549160078452815f205490610e1082018092116101fb5760c096505f5260098452815f205491600c8552805f205493600b549582519788528701528501526060840152608083015260a0820152f35b601187634e487b7160e01b5f525260245ffd5b90503461017157602036600319011261017157610229610e46565b90610232610feb565b6001600160a01b03918216928315610287575050600554826bffffffffffffffffffffffff60a01b821617600555167f8be0079c531659141344cd1fd0a4f28419497f9722a3daafe3b4186f6b6457e05f80a3005b905f6024925191631e4fbdf760e01b8352820152fd5b8234610171576020366003190112610171576020906001600160a01b036102c2610e46565b165f5260098252805f20549051908152f35b8234610171575f3660031901126101715760a0906002549047905f600b549160ff600a54169381519586526020860152840152606083015215156080820152f35b8234610171578060031936011261017157602090610331610e46565b610339610e5c565b9060018060a01b038091165f5260018452825f2091165f528252805f20549051908152f35b8234610171576020366003190112610171576020906001600160a01b03610383610e46565b165f52600d8252805f20549051908152f35b82346101715780600319360112610171576020906103be6103b4610e46565b6024359033610f11565b5160018152f35b82346101715760203660031901126101715781356103e1610feb565b801561041c577f3efe2b1ade87153c913a322f09a35c930d7fd699770b8d7cdd294e1debf6e9e49250806006558151908152426020820152a1005b815162461bcd60e51b8152602081850152601d60248201527f526577617264206d7573742062652067726561746572207468616e20300000006044820152606490fd5b8234610171575f366003190112610171578051905f835460018160011c9060018316928315610574575b60209384841081146105615783885290811561054557506001146104f1575b505050829003601f01601f191682019267ffffffffffffffff8411838510176104de57508291826104da925282610dff565b0390f35b604190634e487b7160e01b5f525260245ffd5b5f878152929350837f8a35acfbc15ff81a39ae7d344fd709f28e8600b4aa8c65c6b64bfe7fe36bd19b5b83851061053157505050508301018480806104a8565b80548886018301529301928490820161051b565b60ff1916878501525050151560051b84010190508480806104a8565b602289634e487b7160e01b5f525260245ffd5b91607f1691610489565b8234610171575f36600319011261017157610597610feb565b60ff19600a5416600a55514281527fe0dc8967738d1ca725802874d41e2ab2405df0e2eb3c61069d26d2782660d59460203392a2005b8234610171576020366003190112610171576020906001600160a01b036105f2610e46565b165f5260078252805f20549051908152f35b8234610171575f3660031901126101715760055490516001600160a01b039091168152602090f35b8234610171575f36600319011261017157602090600b549051908152f35b8234610171576020366003190112610171576020906001600160a01b0361066f610e46565b165f52600c8252805f20549051908152f35b34610171575f36600319011261017157610699610feb565b600580546001600160a01b031981169091555f906001600160a01b03167f8be0079c531659141344cd1fd0a4f28419497f9722a3daafe3b4186f6b6457e08280a3005b8234610171576020366003190112610171576020906001600160a01b03610701610e46565b165f525f8252805f20549051908152f35b90503461017157602036600319011261017157803590610730610feb565b8115610775577fecbf215b72dbc1c04771b7d9f89c84eccfaf225d7c221f6a5da583a6714d9fcb60608385600b549180600b55815192835260208301524290820152a1005b608490602084519162461bcd60e51b8352820152602760248201527f4d6178206461696c7920726577617264206d75737420626520677265617465726044820152660207468616e20360cc1b6064820152fd5b8234610171576020366003190112610171576020906001600160a01b036107ed610e46565b165f5260088252805f20549051908152f35b82346101715760203660031901126101715760209061082461081f610e46565b610e93565b90519015158152f35b8234610171576020908160031936011261017157610849610e46565b9160ff600a5416610a9d576001600160a01b038316928315610a6157335f525f8252825f205460065411610a1e57835f5260078252825f2054610e10810180911161096b5742106109db57835f52600d8252825f205462015180810180911161096b574210156109c1575b835f52600c8252825f2054906108cd6006548093610e72565b600b541061097e57906108e09133610f11565b825f526007815242825f205560088152815f208054906001820180921161096b577f57557adf09426f9adea087dd152a12b45ffbf1d16730e77f2ca4c955cbc497e494955055600654845f526009825261093e835f20918254610e72565b9055600654845f52600c8252610958835f20918254610e72565b90556006549082519182524290820152a2005b601186634e487b7160e01b5f525260245ffd5b835162461bcd60e51b8152808701849052601b60248201527f4461696c7920726577617264206c696d697420657863656564656400000000006044820152606490fd5b835f52600c82525f83812055600d825242835f20556108b4565b825162461bcd60e51b8152808601839052601c60248201527f4d7573742077616974203120686f7572206265747765656e20616473000000006044820152606490fd5b825162461bcd60e51b8152808601839052601e60248201527f496e73756666696369656e7420746f6b656e7320666f722072657761726400006044820152606490fd5b825162461bcd60e51b81528086018390526016602482015275496e76616c696420766965776572206164647265737360501b6044820152606490fd5b8390606492519162461bcd60e51b8352820152601c60248201527f436f6e747261637420697320656d657267656e637920706175736564000000006044820152fd5b8234610171575f36600319011261017157610af8610feb565b600160ff19600a541617600a55514281527f2e31b3b12b9bb0e82c32f27df5f234fabc95a374f54fd287a7132878d5dc9fc360203392a2005b8234610171575f366003190112610171576020905160128152f35b8234610171575f3660031901126101715760209060ff600a541690519015158152f35b90503461017157606036600319011261017157610b8a610e46565b610b92610e5c565b906044359260018060a01b038216805f526001602052855f20335f52602052855f2054915f198310610bcd575b6020876103be888888610f11565b858310610c35578115610c1f573315610c0957505f908152600160209081528682203383528152908690209185900390915582906103be610bbf565b6024905f885191634a1406b160e11b8352820152fd5b6024905f88519163e602df0560e01b8352820152fd5b8651637dc7a0d960e11b8152339181019182526020820193909352604081018690528291506060010390fd5b8234610171575f366003190112610171576020906002549051908152f35b8234610171578060031936011261017157610c98610e46565b602435903315610d11576001600160a01b0316908115610cfb5760209350335f5260018452825f20825f52845280835f205582519081527f8c5be1e5ebec7d5bd14f71427d1e84f3dd0314c0f7b2291e5b200ac8c7c3b925843392a35160018152f35b8251634a1406b160e11b81525f81860152602490fd5b825163e602df0560e01b81525f81860152602490fd5b8334610171575f366003190112610171575f60035460018160011c9060018316928315610df5575b6020938484108114610561578388529081156105455750600114610d9f57505050829003601f01601f191682019267ffffffffffffffff8411838510176104de57508291826104da925282610dff565b60035f908152929350837fc2575a0e9e593c00f959f8c92f12db2869c3395a3b0502d05e2516446f71f85b5b838510610de157505050508301018480806104a8565b805488860183015293019284908201610dcb565b91607f1691610d4f565b602080825282518183018190529093925f5b828110610e3257505060409293505f838284010152601f8019910116010190565b818101860151848201604001528501610e11565b600435906001600160a01b038216820361017157565b602435906001600160a01b038216820361017157565b91908201809211610e7f57565b634e487b7160e01b5f52601160045260245ffd5b60ff600a5416610f0c576001600160a01b03165f81815260076020526040902054610e108101908110610e7f574210610f0c575f52600c60205260405f2054600d60205260405f2054620151808101809111610e7f57421015610f05575b600654610efd91610e72565b600b54101590565b505f610ef1565b505f90565b916001600160a01b03808416928315610fd35716928315610fbb57825f525f60205260405f205490828210610f895750817fddf252ad1be2c89b69c2b068fc378daa952ba7f163c4a11628f55a4df523b3ef92602092855f525f84520360405f2055845f5260405f20818154019055604051908152a3565b60405163391434e360e21b81526001600160a01b03919091166004820152602481019190915260448101829052606490fd5b60405163ec442f0560e01b81525f6004820152602490fd5b604051634b637e8f60e11b81525f6004820152602490fd5b6005546001600160a01b03163303610fff57565b60405163118cdaa760e01b8152336004820152602490fdfea26469706673582212208b5ac35d4cf4a46cc230e6fb3071fb7fbd619f4b85759d684c52639ed25fbc3a64736f6c63430008160033","linkReferences":{}},"methodIdentifiers":{"adReward()":"fade13c8","allowance(address,address)":"dd62ed3e","approve(address,uint256)":"095ea7b3","balanceOf(address)":"70a08231","canWatchAd(address)":"58fdfbac","dailyRewards(address)":"827c8aaf","decimals()":"313ce567","emergencyPause()":"51858e27","emergencyPaused()":"27c830a9","emergencyResume()":"93c87f03","getAdStats(address)":"f790a777","getContractStats()":"dfe6b5d6","lastAdWatchTime(address)":"9107cd4b","lastRewardReset(address)":"aff2b17a","maxRewardPerDay()":"82bf4852","name()":"06fdde03","owner()":"8da5cb5b","renounceOwnership()":"715018a6","setAdReward(uint256)":"a1d5320c","setMaxDailyReward(uint256)":"6ee30fd9","symbol()":"95d89b41","totalAdsWatched(address)":"6b63c56a","totalRewardsEarned(address)":"e4f24cb0","totalSupply()":"18160ddd","transfer(address,uint256)":"a9059cbb","transferFrom(address,address,uint256)":"23b872dd","transferOwnership(address)":"f2fde38b","watchAd(address)":"58e63d6f"},"id":5}