{"abi":[{"type":"constructor","inputs":[],"stateMutability":"nonpayable"},{"type":"function","name":"adReward","inputs":[],"outputs":[{"name":"","type":"uint256","internalType":"uint256"}],"stateMutability":"view"},{"type":"function","name":"allowance","inputs":[{"name":"owner","type":"address","internalType":"address"},{"name":"spender","type":"address","internalType":"address"}],"outputs":[{"name":"","type":"uint256","internalType":"uint256"}],"stateMutability":"view"},{"type":"function","name":"approve","inputs":[{"name":"spender","type":"address","internalType":"address"},{"name":"value","type":"uint256","internalType":"uint256"}],"outputs":[{"name":"","type":"bool","internalType":"bool"}],"stateMutability":"nonpayable"},{"type":"function","name":"balanceOf","inputs":[{"name":"account","type":"address","internalType":"address"}],"outputs":[{"name":"","type":"uint256","internalType":"uint256"}],"stateMutability":"view"},{"type":"function","name":"burn","inputs":[{"name":"value","type":"uint256","internalType":"uint256"}],"outputs":[],"stateMutability":"nonpayable"},{"type":"function","name":"burnForLottery","inputs":[{"name":"from","type":"address","internalType":"address"},{"name":"amount","type":"uint256","internalType":"uint256"}],"outputs":[],"stateMutability":"nonpayable"},{"type":"function","name":"burnFrom","inputs":[{"name":"account","type":"address","internalType":"address"},{"name":"value","type":"uint256","internalType":"uint256"}],"outputs":[],"stateMutability":"nonpayable"},{"type":"function","name":"dailyRewards","inputs":[{"name":"","type":"address","internalType":"address"}],"outputs":[{"name":"","type":"uint256","internalType":"uint256"}],"stateMutability":"view"},{"type":"function","name":"decimals","inputs":[],"outputs":[{"name":"","type":"uint8","internalType":"uint8"}],"stateMutability":"view"},{"type":"function","name":"emergencyPause","inputs":[],"outputs":[],"stateMutability":"nonpayable"},{"type":"function","name":"emergencyPaused","inputs":[],"outputs":[{"name":"","type":"bool","internalType":"bool"}],"stateMutability":"view"},{"type":"function","name":"emergencyResume","inputs":[],"outputs":[],"stateMutability":"nonpayable"},{"type":"function","name":"emergencyWithdraw","inputs":[{"name":"to","type":"address","internalType":"address"}],"outputs":[],"stateMutability":"nonpayable"},{"type":"function","name":"getContractStats","inputs":[],"outputs":[{"name":"totalSupplyAmount","type":"uint256","internalType":"uint256"},{"name":"adRewardAmount","type":"uint256","internalType":"uint256"},{"name":"maxDailyReward","type":"uint256","internalType":"uint256"},{"name":"isEmergencyPaused","type":"bool","internalType":"bool"},{"name":"totalHolders","type":"uint256","internalType":"uint256"}],"stateMutability":"view"},{"type":"function","name":"getUserStats","inputs":[{"name":"user","type":"address","internalType":"address"}],"outputs":[{"name":"lastWatch","type":"uint256","internalType":"uint256"},{"name":"totalWatched","type":"uint256","internalType":"uint256"},{"name":"totalEarned","type":"uint256","internalType":"uint256"},{"name":"dailyReward","type":"uint256","internalType":"uint256"},{"name":"lastReset","type":"uint256","internalType":"uint256"},{"name":"canWatchNow","type":"bool","internalType":"bool"}],"stateMutability":"view"},{"type":"function","name":"isAuthorizedBurner","inputs":[{"name":"burner","type":"address","internalType":"address"}],"outputs":[{"name":"","type":"bool","internalType":"bool"}],"stateMutability":"view"},{"type":"function","name":"lastAdWatchTime","inputs":[{"name":"","type":"address","internalType":"address"}],"outputs":[{"name":"","type":"uint256","internalType":"uint256"}],"stateMutability":"view"},{"type":"function","name":"lastRewardReset","inputs":[{"name":"","type":"address","internalType":"address"}],"outputs":[{"name":"","type":"uint256","internalType":"uint256"}],"stateMutability":"view"},{"type":"function","name":"maxRewardPerDay","inputs":[],"outputs":[{"name":"","type":"uint256","internalType":"uint256"}],"stateMutability":"view"},{"type":"function","name":"name","inputs":[],"outputs":[{"name":"","type":"string","internalType":"string"}],"stateMutability":"view"},{"type":"function","name":"owner","inputs":[],"outputs":[{"name":"","type":"address","internalType":"address"}],"stateMutability":"view"},{"type":"function","name":"renounceOwnership","inputs":[],"outputs":[],"stateMutability":"nonpayable"},{"type":"function","name":"setAdReward","inputs":[{"name":"newReward","type":"uint256","internalType":"uint256"}],"outputs":[],"stateMutability":"nonpayable"},{"type":"function","name":"setMaxDailyReward","inputs":[{"name":"newMax","type":"uint256","internalType":"uint256"}],"outputs":[],"stateMutability":"nonpayable"},{"type":"function","name":"symbol","inputs":[],"outputs":[{"name":"","type":"string","internalType":"string"}],"stateMutability":"view"},{"type":"function","name":"totalAdsWatched","inputs":[{"name":"","type":"address","internalType":"address"}],"outputs":[{"name":"","type":"uint256","internalType":"uint256"}],"stateMutability":"view"},{"type":"function","name":"totalRewardsEarned","inputs":[{"name":"","type":"address","internalType":"address"}],"outputs":[{"name":"","type":"uint256","internalType":"uint256"}],"stateMutability":"view"},{"type":"function","name":"totalSupply","inputs":[],"outputs":[{"name":"","type":"uint256","internalType":"uint256"}],"stateMutability":"view"},{"type":"function","name":"transfer","inputs":[{"name":"to","type":"address","internalType":"address"},{"name":"value","type":"uint256","internalType":"uint256"}],"outputs":[{"name":"","type":"bool","internalType":"bool"}],"stateMutability":"nonpayable"},{"type":"function","name":"transferFrom","inputs":[{"name":"from","type":"address","internalType":"address"},{"name":"to","type":"address","internalType":"address"},{"name":"value","type":"uint256","internalType":"uint256"}],"outputs":[{"name":"","type":"bool","internalType":"bool"}],"stateMutability":"nonpayable"},{"type":"function","name":"transferOwnership","inputs":[{"name":"newOwner","type":"address","internalType":"address"}],"outputs":[],"stateMutability":"nonpayable"},{"type":"function","name":"watchAd","inputs":[{"name":"viewer","type":"address","internalType":"address"}],"outputs":[],"stateMutability":"nonpayable"},{"type":"event","name":"AdWatched","inputs":[{"name":"viewer","type":"address","indexed":true,"internalType":"address"},{"name":"reward","type":"uint256","indexed":false,"internalType":"uint256"},{"name":"timestamp","type":"uint256","indexed":false,"internalType":"uint256"}],"anonymous":false},{"type":"event","name":"Approval","inputs":[{"name":"owner","type":"address","indexed":true,"internalType":"address"},{"name":"spender","type":"address","indexed":true,"internalType":"address"},{"name":"value","type":"uint256","indexed":false,"internalType":"uint256"}],"anonymous":false},{"type":"event","name":"EmergencyPaused","inputs":[{"name":"by","type":"address","indexed":true,"internalType":"address"},{"name":"timestamp","type":"uint256","indexed":false,"internalType":"uint256"}],"anonymous":false},{"type":"event","name":"EmergencyResumed","inputs":[{"name":"by","type":"address","indexed":true,"internalType":"address"},{"name":"timestamp","type":"uint256","indexed":false,"internalType":"uint256"}],"anonymous":false},{"type":"event","name":"MaxDailyRewardUpdated","inputs":[{"name":"oldMax","type":"uint256","indexed":false,"internalType":"uint256"},{"name":"newMax","type":"uint256","indexed":false,"internalType":"uint256"},{"name":"timestamp","type":"uint256","indexed":false,"internalType":"uint256"}],"anonymous":false},{"type":"event","name":"OwnershipTransferred","inputs":[{"name":"previousOwner","type":"address","indexed":true,"internalType":"address"},{"name":"newOwner","type":"address","indexed":true,"internalType":"address"}],"anonymous":false},{"type":"event","name":"RewardUpdated","inputs":[{"name":"newReward","type":"uint256","indexed":false,"internalType":"uint256"},{"name":"timestamp","type":"uint256","indexed":false,"internalType":"uint256"}],"anonymous":false},{"type":"event","name":"Transfer","inputs":[{"name":"from","type":"address","indexed":true,"internalType":"address"},{"name":"to","type":"address","indexed":true,"internalType":"address"},{"name":"value","type":"uint256","indexed":false,"internalType":"uint256"}],"anonymous":false},{"type":"error","name":"ERC20InsufficientAllowance","inputs":[{"name":"spender","type":"address","internalType":"address"},{"name":"allowance","type":"uint256","internalType":"uint256"},{"name":"needed","type":"uint256","internalType":"uint256"}]},{"type":"error","name":"ERC20InsufficientBalance","inputs":[{"name":"sender","type":"address","internalType":"address"},{"name":"balance","type":"uint256","internalType":"uint256"},{"name":"needed","type":"uint256","internalType":"uint256"}]},{"type":"error","name":"ERC20InvalidApprover","inputs":[{"name":"approver","type":"address","internalType":"address"}]},{"type":"error","name":"ERC20InvalidReceiver","inputs":[{"name":"receiver","type":"address","internalType":"address"}]},{"type":"error","name":"ERC20InvalidSender","inputs":[{"name":"sender","type":"address","internalType":"address"}]},{"type":"error","name":"ERC20InvalidSpender","inputs":[{"name":"spender","type":"address","internalType":"address"}]},{"type":"error","name":"OwnableInvalidOwner","inputs":[{"name":"owner","type":"address","internalType":"address"}]},{"type":"error","name":"OwnableUnauthorizedAccount","inputs":[{"name":"account","type":"address","internalType":"address"}]}],"bytecode":{"object":"0x608034620003d3576040906001600160401b039080830182811182821017620002de578352600781526020906620b22a37b5b2b760c91b8282015283519284840184811082821117620002de5785526002845261105160f21b838501528151818111620002de576003908154906001948583811c93168015620003c8575b87841014620003b4578190601f9384811162000361575b508790848311600114620002fe575f92620002f2575b50505f1982851b1c191690851b1782555b8551928311620002de5760049586548581811c91168015620002d3575b87821014620002c05782811162000278575b508591841160011462000211579383949184925f9562000205575b50501b925f19911b1c19161782555b3315620001ef5760058054336001600160a01b0319821681179092556001600160a01b03167f8be0079c531659141344cd1fd0a4f28419497f9722a3daafe3b4186f6b6457e05f80a3670de0b6b3a7640000600655678ac7230489e80000600b5560025469d3c21bcecceda100000092838201809211620001dc57505f917fddf252ad1be2c89b69c2b068fc378daa952ba7f163c4a11628f55a4df523b3ef9160025533835282815284832084815401905584519384523393a35161142c9081620003d88239f35b601190634e487b7160e01b5f525260245ffd5b505f6024925191631e4fbdf760e01b8352820152fd5b015193505f8062000105565b9190601f19841692875f5284875f20945f5b898983831062000260575050501062000246575b50505050811b01825562000114565b01519060f8845f19921b161c191690555f80808062000237565b86860151895590970196948501948893500162000223565b875f52865f208380870160051c820192898810620002b6575b0160051c019086905b828110620002aa575050620000ea565b5f81550186906200029a565b9250819262000291565b602288634e487b7160e01b5f525260245ffd5b90607f1690620000d8565b634e487b7160e01b5f52604160045260245ffd5b015190505f80620000aa565b90879350601f19831691865f52895f20925f5b8b8282106200034a575050841162000332575b505050811b018255620000bb565b01515f1983871b60f8161c191690555f808062000324565b8385015186558b9790950194938401930162000311565b909150845f52875f208480850160051c8201928a8610620003aa575b918991869594930160051c01915b8281106200039b57505062000094565b5f81558594508991016200038b565b925081926200037d565b634e487b7160e01b5f52602260045260245ffd5b92607f16926200007d565b5f80fdfe6080604090808252600480361015610015575f80fd5b5f3560e01c91826306fdde031461101857508163095ea7b314610f7057816318160ddd14610f5257816320c0291814610f1f57816323b872dd14610ee357816327c830a914610ec0578163313ce56714610ea557816342966c6814610e895781634e43603a14610dfa57816351858e2714610da857816358e63d6f14610aa45781636b63c56a14610a6d5781636ee30fd9146109b75781636ff1c9bc1461087757816370a0823114610841578163715018a6146107e657816379cc6790146107b7578163827c8aaf1461078057816382bf48521461076257816383c4da3d146105c15781638da5cb5b146105995781639107cd4b1461056257816393c87f031461051357816395d89b41146103f4578163a1d5320c1461035a578163a9059cbb1461032a578163aff2b17a146102f3578163dd62ed3e146102aa578163dfe6b5d614610267578163e4f24cb014610230578163f2fde38b146101a1575063fade13c814610180575f80fd5b3461019d575f36600319011261019d576020906006549051908152f35b5f80fd5b90503461019d57602036600319011261019d576101bc611137565b906101c56113ca565b6001600160a01b0391821692831561021a575050600554826bffffffffffffffffffffffff60a01b821617600555167f8be0079c531659141344cd1fd0a4f28419497f9722a3daafe3b4186f6b6457e05f80a3005b905f6024925191631e4fbdf760e01b8352820152fd5b823461019d57602036600319011261019d576020906001600160a01b03610255611137565b165f5260098252805f20549051908152f35b823461019d575f36600319011261019d5760a0906002549060065490600b549060ff600a54169281519485526020850152830152151560608201525f6080820152f35b823461019d578060031936011261019d576020906102c6611137565b6102ce61114d565b9060018060a01b038091165f5260018452825f2091165f528252805f20549051908152f35b823461019d57602036600319011261019d576020906001600160a01b03610318611137565b165f52600d8252805f20549051908152f35b823461019d578060031936011261019d57602090610353610349611137565b6024359033611251565b5160018152f35b823461019d57602036600319011261019d5781356103766113ca565b80156103b1577f3efe2b1ade87153c913a322f09a35c930d7fd699770b8d7cdd294e1debf6e9e49250806006558151908152426020820152a1005b815162461bcd60e51b8152602081850152601d60248201527f526577617264206d7573742062652067726561746572207468616e20300000006044820152606490fd5b823461019d575f36600319011261019d578051905f835460018160011c9060018316928315610509575b60209384841081146104f6578388529081156104da5750600114610486575b505050829003601f01601f191682019267ffffffffffffffff841183851017610473575082918261046f9252826110f0565b0390f35b604190634e487b7160e01b5f525260245ffd5b5f878152929350837f8a35acfbc15ff81a39ae7d344fd709f28e8600b4aa8c65c6b64bfe7fe36bd19b5b8385106104c6575050505083010184808061043d565b8054888601830152930192849082016104b0565b60ff1916878501525050151560051b840101905084808061043d565b602289634e487b7160e01b5f525260245ffd5b91607f169161041e565b823461019d575f36600319011261019d5761052c6113ca565b60ff19600a5416600a55514281527fe0dc8967738d1ca725802874d41e2ab2405df0e2eb3c61069d26d2782660d59460203392a2005b823461019d57602036600319011261019d576020906001600160a01b03610587611137565b165f5260078252805f20549051908152f35b823461019d575f36600319011261019d5760055490516001600160a01b039091168152602090f35b823461019d578060031936011261019d576105da611137565b91602480359260018060a01b0380600554163314801561075d575b1561072257851680156106e9573081146106af57841561066d575f525f60205283815f20541061062b57610629848661132b565b005b606492916020601c92519362461bcd60e51b85528401528201527f496e73756666696369656e742062616c616e636520746f206275726e000000006044820152fd5b815162461bcd60e51b8152602081860152601d818501527f416d6f756e74206d7573742062652067726561746572207468616e20300000006044820152606490fd5b815162461bcd60e51b81526020818601526015818501527421b0b73737ba10313ab93710333937b69039b2b63360591b6044820152606490fd5b815162461bcd60e51b815260208186015260148185015273496e76616c69642066726f6d206164647265737360601b6044820152606490fd5b815162461bcd60e51b8152602081860152601681850152752737ba1030baba3437b934bd32b2103a3790313ab93760511b6044820152606490fd5b6105f5565b823461019d575f36600319011261019d57602090600b549051908152f35b823461019d57602036600319011261019d576020906001600160a01b036107a5611137565b165f52600c8252805f20549051908152f35b823461019d5736600319011261019d576106296107d2611137565b602435906107e1823383611184565b61132b565b3461019d575f36600319011261019d576107fe6113ca565b600580546001600160a01b031981169091555f906001600160a01b03167f8be0079c531659141344cd1fd0a4f28419497f9722a3daafe3b4186f6b6457e08280a3005b823461019d57602036600319011261019d576020906001600160a01b03610866611137565b165f525f8252805f20549051908152f35b823461019d57602036600319011261019d57610891611137565b9161089a6113ca565b60ff600a54161561095c576001600160a01b03831680156109195730146108d75750305f525f6020525f2054806108cd57005b6106299130611251565b6020606492519162461bcd60e51b8352820152601760248201527f43616e6e6f7420776974686472617720746f2073656c660000000000000000006044820152fd5b506020606492519162461bcd60e51b8352820152601960248201527f496e76616c696420726563697069656e742061646472657373000000000000006044820152fd5b6020608492519162461bcd60e51b8352820152603060248201527f436f6e7472616374206d7573742062652070617573656420666f7220656d657260448201526f19d95b98de481dda5d1a191c985dd85b60821b6064820152fd5b90503461019d57602036600319011261019d578035906109d56113ca565b8115610a1a577fecbf215b72dbc1c04771b7d9f89c84eccfaf225d7c221f6a5da583a6714d9fcb60608385600b549180600b55815192835260208301524290820152a1005b608490602084519162461bcd60e51b8352820152602760248201527f4d6178206461696c7920726577617264206d75737420626520677265617465726044820152660207468616e20360cc1b6064820152fd5b823461019d57602036600319011261019d576020906001600160a01b03610a92611137565b165f5260088252805f20549051908152f35b823461019d576020908160031936011261019d57610ac0611137565b9160ff600a5416610d66576001600160a01b038316928315610d2a57308414610ce757335f525f8252825f205460065411610ca457835f5260078252825f2054610e108101809111610c91574210610c4e57835f52600d8252825f2054620151804204809110610c37575b50600c8252825f205490610b426006548093611163565b600b5410610bf45790610b559133611251565b825f526007815242825f205560088152815f208054945f198614610be1575060017f57557adf09426f9adea087dd152a12b45ffbf1d16730e77f2ca4c955cbc497e49495019055600654845f5260098252610bb4835f20918254611163565b9055600654845f52600c8252610bce835f20918254611163565b90556006549082519182524290820152a2005b601190634e487b7160e01b5f525260245ffd5b835162461bcd60e51b8152808701849052601b60248201527f4461696c7920726577617264206c696d697420657863656564656400000000006044820152606490fd5b600c83525f84812055600d8352835f205585610b2b565b825162461bcd60e51b8152808601839052601c60248201527f4d7573742077616974203120686f7572206265747765656e20616473000000006044820152606490fd5b601186634e487b7160e01b5f525260245ffd5b825162461bcd60e51b8152808601839052601e60248201527f496e73756666696369656e7420746f6b656e7320666f722072657761726400006044820152606490fd5b825162461bcd60e51b8152808601839052601c60248201527f43616e6e6f7420776174636820616420666f7220636f6e7472616374000000006044820152606490fd5b825162461bcd60e51b81528086018390526016602482015275496e76616c696420766965776572206164647265737360501b6044820152606490fd5b8390606492519162461bcd60e51b8352820152601c60248201527f436f6e747261637420697320656d657267656e637920706175736564000000006044820152fd5b823461019d575f36600319011261019d57610dc16113ca565b600160ff19600a541617600a55514281527f2e31b3b12b9bb0e82c32f27df5f234fabc95a374f54fd287a7132878d5dc9fc360203392a2005b823461019d5760208060031936011261019d576001600160a01b03610e1d611137565b16805f5260078252825f2054420393428511610be1575092610e109160c0945f5260078152835f20549360088252805f20549060098352805f205490600c8452805f205492600d8552815f205494825198895288015286015260608501526080840152101560a0820152f35b3461019d57602036600319011261019d5761062990353361132b565b823461019d575f36600319011261019d576020905160128152f35b823461019d575f36600319011261019d5760209060ff600a541690519015158152f35b823461019d57606036600319011261019d57602090610353610f03611137565b610f0b61114d565b60443591610f1a833383611184565b611251565b823461019d57602036600319011261019d57602090610f3c611137565b60018060a01b0380600554169116149051908152f35b823461019d575f36600319011261019d576020906002549051908152f35b823461019d578060031936011261019d57610f89611137565b602435903315611002576001600160a01b0316908115610fec5760209350335f5260018452825f20825f52845280835f205582519081527f8c5be1e5ebec7d5bd14f71427d1e84f3dd0314c0f7b2291e5b200ac8c7c3b925843392a35160018152f35b8251634a1406b160e11b81525f81860152602490fd5b825163e602df0560e01b81525f81860152602490fd5b833461019d575f36600319011261019d575f60035460018160011c90600183169283156110e6575b60209384841081146104f6578388529081156104da575060011461109057505050829003601f01601f191682019267ffffffffffffffff841183851017610473575082918261046f9252826110f0565b60035f908152929350837fc2575a0e9e593c00f959f8c92f12db2869c3395a3b0502d05e2516446f71f85b5b8385106110d2575050505083010184808061043d565b8054888601830152930192849082016110bc565b91607f1691611040565b602080825282518183018190529093925f5b82811061112357505060409293505f838284010152601f8019910116010190565b818101860151848201604001528501611102565b600435906001600160a01b038216820361019d57565b602435906001600160a01b038216820361019d57565b9190820180921161117057565b634e487b7160e01b5f52601160045260245ffd5b919060018060a01b0380931692835f526001602052604093845f2091831691825f52602052845f2054925f1984106111bf575b505050505050565b8484106112215750801561120a5781156111f3575f526001602052835f20905f5260205203905f20555f80808080806111b7565b8451634a1406b160e11b81525f6004820152602490fd5b845163e602df0560e01b81525f6004820152602490fd5b8551637dc7a0d960e11b81526001600160a01b039190911660048201526024810184905260448101859052606490fd5b916001600160a01b0380841692831561131357169283156112fb57825f525f60205260405f2054908282106112c95750817fddf252ad1be2c89b69c2b068fc378daa952ba7f163c4a11628f55a4df523b3ef92602092855f525f84520360405f2055845f5260405f20818154019055604051908152a3565b60405163391434e360e21b81526001600160a01b03919091166004820152602481019190915260448101829052606490fd5b60405163ec442f0560e01b81525f6004820152602490fd5b604051634b637e8f60e11b81525f6004820152602490fd5b91906001600160a01b03831690811561131357815f525f60205260405f20549381851061139857506020817fddf252ad1be2c89b69c2b068fc378daa952ba7f163c4a11628f55a4df523b3ef925f95968587528684520360408620558060025403600255604051908152a3565b60405163391434e360e21b81526001600160a01b03919091166004820152602481018590526044810191909152606490fd5b6005546001600160a01b031633036113de57565b60405163118cdaa760e01b8152336004820152602490fdfea2646970667358221220912c60a0eb799f0af105ebc360cce879219e34c4ae1c3741e0ed5c1d308eeaac64736f6c63430008160033","linkReferences":{}},"methodIdentifiers":{"adReward()":"fade13c8","allowance(address,address)":"dd62ed3e","approve(address,uint256)":"095ea7b3","balanceOf(address)":"70a08231","burn(uint256)":"42966c68","burnForLottery(address,uint256)":"83c4da3d","burnFrom(address,uint256)":"79cc6790","dailyRewards(address)":"827c8aaf","decimals()":"313ce567","emergencyPause()":"51858e27","emergencyPaused()":"27c830a9","emergencyResume()":"93c87f03","emergencyWithdraw(address)":"6ff1c9bc","getContractStats()":"dfe6b5d6","getUserStats(address)":"4e43603a","isAuthorizedBurner(address)":"20c02918","lastAdWatchTime(address)":"9107cd4b","lastRewardReset(address)":"aff2b17a","maxRewardPerDay()":"82bf4852","name()":"06fdde03","owner()":"8da5cb5b","renounceOwnership()":"715018a6","setAdReward(uint256)":"a1d5320c","setMaxDailyReward(uint256)":"6ee30fd9","symbol()":"95d89b41","totalAdsWatched(address)":"6b63c56a","totalRewardsEarned(address)":"e4f24cb0","totalSupply()":"18160ddd","transfer(address,uint256)":"a9059cbb","transferFrom(address,address,uint256)":"23b872dd","transferOwnership(address)":"f2fde38b","watchAd(address)":"58e63d6f"},"id":3}