{"abi":[{"type":"constructor","inputs":[],"stateMutability":"nonpayable"},{"type":"function","name":"addAuthorizedContract","inputs":[{"name":"contractAddress","type":"address","internalType":"address"}],"outputs":[],"stateMutability":"nonpayable"},{"type":"function","name":"authorizedContracts","inputs":[{"name":"","type":"address","internalType":"address"}],"outputs":[{"name":"","type":"bool","internalType":"bool"}],"stateMutability":"view"},{"type":"function","name":"createTreasury","inputs":[{"name":"treasuryName","type":"string","internalType":"string"},{"name":"initialBalance","type":"uint256","internalType":"uint256"}],"outputs":[],"stateMutability":"nonpayable"},{"type":"function","name":"depositFunds","inputs":[{"name":"treasuryName","type":"string","internalType":"string"},{"name":"user","type":"address","internalType":"address"},{"name":"amount","type":"uint256","internalType":"uint256"}],"outputs":[],"stateMutability":"nonpayable"},{"type":"function","name":"getTreasuryInfo","inputs":[{"name":"treasuryName","type":"string","internalType":"string"}],"outputs":[{"name":"totalBalance","type":"uint256","internalType":"uint256"},{"name":"reservedBalance","type":"uint256","internalType":"uint256"},{"name":"availableBalance","type":"uint256","internalType":"uint256"},{"name":"lastUpdate","type":"uint256","internalType":"uint256"},{"name":"isActive","type":"bool","internalType":"bool"}],"stateMutability":"view"},{"type":"function","name":"getUserBalance","inputs":[{"name":"user","type":"address","internalType":"address"}],"outputs":[{"name":"","type":"uint256","internalType":"uint256"}],"stateMutability":"view"},{"type":"function","name":"getUserTreasuryBalance","inputs":[{"name":"treasuryName","type":"string","internalType":"string"},{"name":"user","type":"address","internalType":"address"}],"outputs":[{"name":"","type":"uint256","internalType":"uint256"}],"stateMutability":"view"},{"type":"function","name":"maxWithdrawalAmount","inputs":[],"outputs":[{"name":"","type":"uint256","internalType":"uint256"}],"stateMutability":"view"},{"type":"function","name":"minReserveRatio","inputs":[],"outputs":[{"name":"","type":"uint256","internalType":"uint256"}],"stateMutability":"view"},{"type":"function","name":"owner","inputs":[],"outputs":[{"name":"","type":"address","internalType":"address"}],"stateMutability":"view"},{"type":"function","name":"removeAuthorizedContract","inputs":[{"name":"contractAddress","type":"address","internalType":"address"}],"outputs":[],"stateMutability":"nonpayable"},{"type":"function","name":"renounceOwnership","inputs":[],"outputs":[],"stateMutability":"nonpayable"},{"type":"function","name":"setReserve","inputs":[{"name":"treasuryName","type":"string","internalType":"string"},{"name":"reserveAmount","type":"uint256","internalType":"uint256"}],"outputs":[],"stateMutability":"nonpayable"},{"type":"function","name":"toggleTreasury","inputs":[{"name":"treasuryName","type":"string","internalType":"string"}],"outputs":[],"stateMutability":"nonpayable"},{"type":"function","name":"toggleTreasurySystem","inputs":[],"outputs":[],"stateMutability":"nonpayable"},{"type":"function","name":"transferOwnership","inputs":[{"name":"newOwner","type":"address","internalType":"address"}],"outputs":[],"stateMutability":"nonpayable"},{"type":"function","name":"treasuries","inputs":[{"name":"","type":"string","internalType":"string"}],"outputs":[{"name":"totalBalance","type":"uint256","internalType":"uint256"},{"name":"reservedBalance","type":"uint256","internalType":"uint256"},{"name":"availableBalance","type":"uint256","internalType":"uint256"},{"name":"lastUpdate","type":"uint256","internalType":"uint256"},{"name":"isActive","type":"bool","internalType":"bool"}],"stateMutability":"view"},{"type":"function","name":"treasuryEnabled","inputs":[],"outputs":[{"name":"","type":"bool","internalType":"bool"}],"stateMutability":"view"},{"type":"function","name":"updateMaxWithdrawalAmount","inputs":[{"name":"newAmount","type":"uint256","internalType":"uint256"}],"outputs":[],"stateMutability":"nonpayable"},{"type":"function","name":"updateMinReserveRatio","inputs":[{"name":"newRatio","type":"uint256","internalType":"uint256"}],"outputs":[],"stateMutability":"nonpayable"},{"type":"function","name":"userBalances","inputs":[{"name":"","type":"address","internalType":"address"}],"outputs":[{"name":"","type":"uint256","internalType":"uint256"}],"stateMutability":"view"},{"type":"function","name":"userTreasuryBalances","inputs":[{"name":"","type":"string","internalType":"string"},{"name":"","type":"address","internalType":"address"}],"outputs":[{"name":"","type":"uint256","internalType":"uint256"}],"stateMutability":"view"},{"type":"function","name":"withdrawFunds","inputs":[{"name":"treasuryName","type":"string","internalType":"string"},{"name":"user","type":"address","internalType":"address"},{"name":"amount","type":"uint256","internalType":"uint256"}],"outputs":[],"stateMutability":"nonpayable"},{"type":"event","name":"FundsDeposited","inputs":[{"name":"treasuryName","type":"string","indexed":true,"internalType":"string"},{"name":"user","type":"address","indexed":true,"internalType":"address"},{"name":"amount","type":"uint256","indexed":false,"internalType":"uint256"},{"name":"timestamp","type":"uint256","indexed":false,"internalType":"uint256"}],"anonymous":false},{"type":"event","name":"FundsWithdrawn","inputs":[{"name":"treasuryName","type":"string","indexed":true,"internalType":"string"},{"name":"user","type":"address","indexed":true,"internalType":"address"},{"name":"amount","type":"uint256","indexed":false,"internalType":"uint256"},{"name":"timestamp","type":"uint256","indexed":false,"internalType":"uint256"}],"anonymous":false},{"type":"event","name":"OwnershipTransferred","inputs":[{"name":"previousOwner","type":"address","indexed":true,"internalType":"address"},{"name":"newOwner","type":"address","indexed":true,"internalType":"address"}],"anonymous":false},{"type":"event","name":"ReserveUpdated","inputs":[{"name":"treasuryName","type":"string","indexed":true,"internalType":"string"},{"name":"oldReserve","type":"uint256","indexed":false,"internalType":"uint256"},{"name":"newReserve","type":"uint256","indexed":false,"internalType":"uint256"},{"name":"timestamp","type":"uint256","indexed":false,"internalType":"uint256"}],"anonymous":false},{"type":"event","name":"TreasuryCreated","inputs":[{"name":"treasuryName","type":"string","indexed":true,"internalType":"string"},{"name":"initialBalance","type":"uint256","indexed":false,"internalType":"uint256"},{"name":"timestamp","type":"uint256","indexed":false,"internalType":"uint256"}],"anonymous":false},{"type":"event","name":"TreasuryToggled","inputs":[{"name":"enabled","type":"bool","indexed":false,"internalType":"bool"},{"name":"timestamp","type":"uint256","indexed":false,"internalType":"uint256"}],"anonymous":false},{"type":"event","name":"TreasuryUpdated","inputs":[{"name":"treasuryName","type":"string","indexed":true,"internalType":"string"},{"name":"oldBalance","type":"uint256","indexed":false,"internalType":"uint256"},{"name":"newBalance","type":"uint256","indexed":false,"internalType":"uint256"},{"name":"timestamp","type":"uint256","indexed":false,"internalType":"uint256"}],"anonymous":false},{"type":"error","name":"OwnableInvalidOwner","inputs":[{"name":"owner","type":"address","internalType":"address"}]},{"type":"error","name":"OwnableUnauthorizedAccount","inputs":[{"name":"account","type":"address","internalType":"address"}]},{"type":"error","name":"ReentrancyGuardReentrantCall","inputs":[]}],"bytecode":{"object":"0x6080806040523461009c573315610087575f8054336001600160a01b03198216811783556040519290916001600160a01b0316907f8be0079c531659141344cd1fd0a4f28419497f9722a3daafe3b4186f6b6457e09080a360018055600160ff196006541669021e19e0c9bab2400000600755600a6008551760065561127490816100a18239f35b631e4fbdf760e01b81525f6004820152602490fd5b5f80fdfe604060808152600480361015610013575f80fd5b5f3560e01c8063080409871461086a57806308638fd114610c515780630a0a4ac514610c3157806326224c64146109d55780632c55c53e146107d35780632c68594d14610bd25780632e19bfda14610b4c578063377d555514610a2f57806338dfd5f514610a0c57806347734892146109d55780635a596d1c146109b7578063715018a6146109605780638da5cb5b1461093957806398eaa4a7146108ac578063aa1dff8c1461086a578063b89dad4f146107d3578063bdb0d27b14610764578063c36b32de146105db578063d5b9221b1461059f578063e6b165ed14610560578063e976d43114610542578063f077022a146101a75763f2fde38b14610118575f80fd5b346101a35760203660031901126101a357610131610e85565b9061013a611213565b6001600160a01b0391821692831561018d5750505f54826bffffffffffffffffffffffff60a01b8216175f55167f8be0079c531659141344cd1fd0a4f28419497f9722a3daafe3b4186f6b6457e05f80a3005b905f6024925191631e4fbdf760e01b8352820152fd5b5f80fd5b5090346101a3576101b736610edd565b5f549094916001600160a01b039182163314801561052b575b6101d990610f7e565b6101e16111f0565b6101ef60ff60065416610fbb565b6101fb84511515610ffe565b61020960328551111561104a565b169361021685151561108f565b6102218115156110d2565b61023769021e19e0c9bab240000082111561111e565b83519461026060ff848861024b8189610f55565b6002815260209a8b910301902001541661116a565b60075482116104de57845186816102778188610f55565b86815203019020815f52865281855f2054106104a4578451868161029b8188610f55565b60028152030190206002810191825497848910610462578798839897985497868997848c600189019b8c9a8b549e8f956102d4916111d0565b9786898d556102e2916111d0565b978882554260038d01556008546102f8916111dd565b7f677cddaa64b2c9b1512bf77cc3ee402b56f5bfc23c0993112006f818310dfae69c7fcb985c61e2fa2ce83c87409f2eb97e92bb425481019f0b82786d9fbc691953f999610374979260649004808411610442575b5050505050885f5260038352855f206103678682546111d0565b9055855193848093610f55565b90815203019020855f528452815f2061038e8282546111d0565b905581518061039d818e610f55565b0390209382519182524290820152a354918651806103bb8189610f55565b03902087519182526020820193909352426040820152606090a2548082036103e4575b60018055005b6104366104177febc3cf740e6289113022180c2076aa99c978b3322ec42bb5571da7e2929cb30c94865191828092610f55565b0390209451928352602083019190915242604083015281906060820190565b0390a25f8080806103de565b61044f81610456956111d0565b92556111af565b90555f8e8e828061034d565b8560649189519162461bcd60e51b8352820152601e60248201527f496e73756666696369656e7420617661696c61626c652062616c616e636500006044820152fd5b845162461bcd60e51b81528084018790526014602482015273496e73756666696369656e742062616c616e636560601b6044820152606490fd5b845162461bcd60e51b8152808401879052602160248201527f416d6f756e742065786365656473206d6178696d756d207769746864726177616044820152601b60fa1b6064820152608490fd5b50335f90815260056020528590205460ff166101d0565b82346101a3575f3660031901126101a3576020906007549051908152f35b82346101a35760203660031901126101a35761057a610e85565b610582611213565b6001600160a01b03165f908152600560205220805460ff19169055005b82346101a35760203660031901126101a3576020906001600160a01b036105c4610e85565b165f526005825260ff815f20541690519015158152f35b5090346101a3576105eb36610f23565b91906105f5611213565b61060181511515610ffe565b81516020816106108185610f55565b60028152030190205461072157600854610642606461063b8161063385896111dd565b0493876111dd565b04856111d0565b9083519160a0830183811067ffffffffffffffff82111761070e57966106f1926106fc9594927f4f610fed047b9d7dda737836e7d087ff894d50387ff0c3c4b42f47bf8519b30e9899885289845260208401918252878401908152606084019042825260808501926001845289516020816106bd818c610f55565b60028152030190209551865551600186015551600285015551600384015551151591019060ff801983541691151516179055565b825191828092610f55565b039020928151908152426020820152a2005b604188634e487b7160e01b5f525260245ffd5b815162461bcd60e51b8152602081860152601760248201527f547265617375727920616c7265616479206578697374730000000000000000006044820152606490fd5b50346101a35760203660031901126101a357803591610781611213565b60328311610790576008839055005b906020606492519162461bcd60e51b8352820152601f60248201527f5265736572766520726174696f2063616e6e6f742065786365656420353025006044820152fd5b5090346101a35760203660031901126101a357813567ffffffffffffffff81116101a357610817602061080c6108669336908701610e0f565b845192838092610f55565b60028152030190209182549260018101549460ff60028301549160038401549301541692519586958693909594919260809360a086019786526020860152604085015260608401521515910152565b0390f35b5090346101a35760209161088d8361088136610e9b565b93855193848093610f55565b908152030190209060018060a01b03165f528252805f20549051908152f35b50346101a35760203660031901126101a3576108c6610e85565b6108ce611213565b6001600160a01b03169081156108f657505f908152600560205220805460ff19166001179055005b606490602084519162461bcd60e51b8352820152601860248201527f496e76616c696420636f6e7472616374206164647265737300000000000000006044820152fd5b82346101a3575f3660031901126101a3575f5490516001600160a01b039091168152602090f35b346101a3575f3660031901126101a357610978611213565b5f80546001600160a01b0319811682556001600160a01b03167f8be0079c531659141344cd1fd0a4f28419497f9722a3daafe3b4186f6b6457e08280a3005b82346101a3575f3660031901126101a3576020906008549051908152f35b82346101a35760203660031901126101a3576020906001600160a01b036109fa610e85565b165f5260038252805f20549051908152f35b82346101a3575f3660031901126101a35760209060ff6006541690519015158152f35b50346101a357610a3e36610f23565b9091610a48611213565b610a6d60ff828651602081610a5d818a610f55565b600281520301902001541661116a565b8351602081610a7c8187610f55565b6002815203019020548211610afd5750907febc3cf740e6289113022180c2076aa99c978b3322ec42bb5571da7e2929cb30c91610af86104178551602081610ac48188610f55565b60028152030190209360018501948486549655610ae28582546111d0565b6002820155600342910155865191828092610f55565b0390a2005b608490602085519162461bcd60e51b8352820152602360248201527f526573657276652063616e6e6f742065786365656420746f74616c2062616c616044820152626e636560e81b6064820152fd5b5090346101a35760203660031901126101a35781359167ffffffffffffffff83116101a357610bb66020610b86610bd09536908501610e0f565b610b8e611213565b60ff8486518481610b9f8187610f55565b600281520301902001541615945192838092610f55565b6002815203019020019060ff801983541691151516179055565b005b82346101a3575f3660031901126101a3577f059ca7fad8532afadd0f505a17901b43301de3dc5fd0ab9b076e7b102ea0249c90610c0d611213565b60065460ff8082161516809160ff19161760065581519015158152426020820152a1005b50346101a35760203660031901126101a357610c4b611213565b35600755005b50346101a3576104177f677cddaa64b2c9b1512bf77cc3ee402b56f5bfc23c0993112006f818310dfae691610def610c8836610edd565b5f5490959294916001600160a01b0391821633148015610df8575b610cac90610f7e565b610cb46111f0565b610cc260ff60065416610fbb565b610cce86511515610ffe565b610cdc60328751111561104a565b16610ce881151561108f565b610cf38615156110d2565b610d0969021e19e0c9bab240000087111561111e565b8751610d3160ff8483610d1c818b610f55565b6002815260209586910301902001541661116a565b7fdf891f5410135263075ea37fdff545d69408e487f2cac5ef532f801aecfaf19e8988610daa848a84518281610d678185610f55565b600281520301902098610d7c8a549e8f6111af565b8a5560028a01610d8d8682546111af565b90554260038b0155885f5260038352855f206103678682546111af565b90815203019020855f528452815f20610dc48282546111af565b9055815180610dd3818c610f55565b0390209382519182524290820152a35492865191828092610f55565b0390a260018055005b50335f90815260056020528990205460ff16610ca3565b81601f820112156101a35780359067ffffffffffffffff92838311610e715760405193601f8401601f19908116603f0116850190811185821017610e7157604052828452602083830101116101a357815f926020809301838601378301015290565b634e487b7160e01b5f52604160045260245ffd5b600435906001600160a01b03821682036101a357565b60406003198201126101a3576004359067ffffffffffffffff82116101a357610ec691600401610e0f565b906024356001600160a01b03811681036101a35790565b60606003198201126101a3576004359067ffffffffffffffff82116101a357610f0891600401610e0f565b906024356001600160a01b03811681036101a3579060443590565b60406003198201126101a3576004359067ffffffffffffffff82116101a357610f4e91600401610e0f565b9060243590565b908151915f5b838110610f6b575050015f815290565b8060208092840101518185015201610f5b565b15610f8557565b60405162461bcd60e51b815260206004820152600e60248201526d139bdd08185d5d1a1bdc9a5e995960921b6044820152606490fd5b15610fc257565b60405162461bcd60e51b8152602060048201526014602482015273151c99585cdd5c9e481a5cc8191a5cd8589b195960621b6044820152606490fd5b1561100557565b60405162461bcd60e51b815260206004820152601d60248201527f5472656173757279206e616d652063616e6e6f7420626520656d7074790000006044820152606490fd5b1561105157565b60405162461bcd60e51b81526020600482015260166024820152755472656173757279206e616d6520746f6f206c6f6e6760501b6044820152606490fd5b1561109657565b60405162461bcd60e51b8152602060048201526014602482015273496e76616c69642075736572206164647265737360601b6044820152606490fd5b156110d957565b60405162461bcd60e51b815260206004820152601d60248201527f416d6f756e74206d7573742062652067726561746572207468616e20300000006044820152606490fd5b1561112557565b60405162461bcd60e51b815260206004820152601c60248201527f416d6f756e742065786365656473206d6178696d756d206c696d6974000000006044820152606490fd5b1561117157565b60405162461bcd60e51b81526020600482015260166024820152755472656173757279206973206e6f742061637469766560501b6044820152606490fd5b919082018092116111bc57565b634e487b7160e01b5f52601160045260245ffd5b919082039182116111bc57565b818102929181159184041417156111bc57565b600260015414611201576002600155565b604051633ee5aeb560e01b8152600490fd5b5f546001600160a01b0316330361122657565b60405163118cdaa760e01b8152336004820152602490fdfea2646970667358221220e64c0cab68f336c1277991fd00992d3ae3d020d0400e9c0ca0b32fee1af3fe7264736f6c63430008160033","linkReferences":{}},"methodIdentifiers":{"addAuthorizedContract(address)":"98eaa4a7","authorizedContracts(address)":"d5b9221b","createTreasury(string,uint256)":"c36b32de","depositFunds(string,address,uint256)":"08638fd1","getTreasuryInfo(string)":"2c55c53e","getUserBalance(address)":"47734892","getUserTreasuryBalance(string,address)":"08040987","maxWithdrawalAmount()":"e976d431","minReserveRatio()":"5a596d1c","owner()":"8da5cb5b","removeAuthorizedContract(address)":"e6b165ed","renounceOwnership()":"715018a6","setReserve(string,uint256)":"377d5555","toggleTreasury(string)":"2e19bfda","toggleTreasurySystem()":"2c68594d","transferOwnership(address)":"f2fde38b","treasuries(string)":"b89dad4f","treasuryEnabled()":"38dfd5f5","updateMaxWithdrawalAmount(uint256)":"0a0a4ac5","updateMinReserveRatio(uint256)":"bdb0d27b","userBalances(address)":"26224c64","userTreasuryBalances(string,address)":"aa1dff8c","withdrawFunds(string,address,uint256)":"f077022a"},"id":40}