{"abi":[{"type":"constructor","inputs":[],"stateMutability":"nonpayable"},{"type":"function","name":"addAuthorizedContract","inputs":[{"name":"contractAddress","type":"address","internalType":"address"}],"outputs":[],"stateMutability":"nonpayable"},{"type":"function","name":"authorizedContracts","inputs":[{"name":"","type":"address","internalType":"address"}],"outputs":[{"name":"","type":"bool","internalType":"bool"}],"stateMutability":"view"},{"type":"function","name":"checkTreasuryBalance","inputs":[{"name":"treasuryName","type":"string","internalType":"string"}],"outputs":[],"stateMutability":"view"},{"type":"function","name":"createTreasury","inputs":[{"name":"treasuryName","type":"string","internalType":"string"},{"name":"initialBalance","type":"uint256","internalType":"uint256"}],"outputs":[],"stateMutability":"nonpayable"},{"type":"function","name":"depositFunds","inputs":[{"name":"treasuryName","type":"string","internalType":"string"},{"name":"user","type":"address","internalType":"address"},{"name":"amount","type":"uint256","internalType":"uint256"}],"outputs":[],"stateMutability":"nonpayable"},{"type":"function","name":"emergencyWithdraw","inputs":[{"name":"treasuryName","type":"string","internalType":"string"},{"name":"amount","type":"uint256","internalType":"uint256"},{"name":"reason","type":"string","internalType":"string"}],"outputs":[],"stateMutability":"nonpayable"},{"type":"function","name":"getTreasuryInfo","inputs":[{"name":"treasuryName","type":"string","internalType":"string"}],"outputs":[{"name":"totalBalance","type":"uint256","internalType":"uint256"},{"name":"reservedBalance","type":"uint256","internalType":"uint256"},{"name":"availableBalance","type":"uint256","internalType":"uint256"},{"name":"lastUpdate","type":"uint256","internalType":"uint256"},{"name":"isActive","type":"bool","internalType":"bool"}],"stateMutability":"view"},{"type":"function","name":"getUserBalance","inputs":[{"name":"user","type":"address","internalType":"address"}],"outputs":[{"name":"","type":"uint256","internalType":"uint256"}],"stateMutability":"view"},{"type":"function","name":"getUserTreasuryBalance","inputs":[{"name":"treasuryName","type":"string","internalType":"string"},{"name":"user","type":"address","internalType":"address"}],"outputs":[{"name":"","type":"uint256","internalType":"uint256"}],"stateMutability":"view"},{"type":"function","name":"maxWithdrawalAmount","inputs":[],"outputs":[{"name":"","type":"uint256","internalType":"uint256"}],"stateMutability":"view"},{"type":"function","name":"minReserveRatio","inputs":[],"outputs":[{"name":"","type":"uint256","internalType":"uint256"}],"stateMutability":"view"},{"type":"function","name":"owner","inputs":[],"outputs":[{"name":"","type":"address","internalType":"address"}],"stateMutability":"view"},{"type":"function","name":"removeAuthorizedContract","inputs":[{"name":"contractAddress","type":"address","internalType":"address"}],"outputs":[],"stateMutability":"nonpayable"},{"type":"function","name":"renounceOwnership","inputs":[],"outputs":[],"stateMutability":"nonpayable"},{"type":"function","name":"setReserve","inputs":[{"name":"treasuryName","type":"string","internalType":"string"},{"name":"reserveAmount","type":"uint256","internalType":"uint256"}],"outputs":[],"stateMutability":"nonpayable"},{"type":"function","name":"toggleTreasury","inputs":[{"name":"treasuryName","type":"string","internalType":"string"}],"outputs":[],"stateMutability":"nonpayable"},{"type":"function","name":"toggleTreasurySystem","inputs":[],"outputs":[],"stateMutability":"nonpayable"},{"type":"function","name":"transferOwnership","inputs":[{"name":"newOwner","type":"address","internalType":"address"}],"outputs":[],"stateMutability":"nonpayable"},{"type":"function","name":"treasuries","inputs":[{"name":"","type":"string","internalType":"string"}],"outputs":[{"name":"totalBalance","type":"uint256","internalType":"uint256"},{"name":"reservedBalance","type":"uint256","internalType":"uint256"},{"name":"availableBalance","type":"uint256","internalType":"uint256"},{"name":"lastUpdate","type":"uint256","internalType":"uint256"},{"name":"isActive","type":"bool","internalType":"bool"}],"stateMutability":"view"},{"type":"function","name":"treasuryEnabled","inputs":[],"outputs":[{"name":"","type":"bool","internalType":"bool"}],"stateMutability":"view"},{"type":"function","name":"updateMaxWithdrawalAmount","inputs":[{"name":"newAmount","type":"uint256","internalType":"uint256"}],"outputs":[],"stateMutability":"nonpayable"},{"type":"function","name":"updateMinReserveRatio","inputs":[{"name":"newRatio","type":"uint256","internalType":"uint256"}],"outputs":[],"stateMutability":"nonpayable"},{"type":"function","name":"userBalances","inputs":[{"name":"","type":"address","internalType":"address"}],"outputs":[{"name":"","type":"uint256","internalType":"uint256"}],"stateMutability":"view"},{"type":"function","name":"userTreasuryBalances","inputs":[{"name":"","type":"string","internalType":"string"},{"name":"","type":"address","internalType":"address"}],"outputs":[{"name":"","type":"uint256","internalType":"uint256"}],"stateMutability":"view"},{"type":"function","name":"withdrawFunds","inputs":[{"name":"treasuryName","type":"string","internalType":"string"},{"name":"user","type":"address","internalType":"address"},{"name":"amount","type":"uint256","internalType":"uint256"}],"outputs":[],"stateMutability":"nonpayable"},{"type":"event","name":"FundsDeposited","inputs":[{"name":"treasuryName","type":"string","indexed":true,"internalType":"string"},{"name":"user","type":"address","indexed":true,"internalType":"address"},{"name":"amount","type":"uint256","indexed":false,"internalType":"uint256"},{"name":"timestamp","type":"uint256","indexed":false,"internalType":"uint256"}],"anonymous":false},{"type":"event","name":"FundsWithdrawn","inputs":[{"name":"treasuryName","type":"string","indexed":true,"internalType":"string"},{"name":"user","type":"address","indexed":true,"internalType":"address"},{"name":"amount","type":"uint256","indexed":false,"internalType":"uint256"},{"name":"timestamp","type":"uint256","indexed":false,"internalType":"uint256"}],"anonymous":false},{"type":"event","name":"OwnershipTransferred","inputs":[{"name":"previousOwner","type":"address","indexed":true,"internalType":"address"},{"name":"newOwner","type":"address","indexed":true,"internalType":"address"}],"anonymous":false},{"type":"event","name":"ReserveRatioUpdated","inputs":[{"name":"oldRatio","type":"uint256","indexed":false,"internalType":"uint256"},{"name":"newRatio","type":"uint256","indexed":false,"internalType":"uint256"},{"name":"timestamp","type":"uint256","indexed":false,"internalType":"uint256"}],"anonymous":false},{"type":"event","name":"ReserveUpdated","inputs":[{"name":"treasuryName","type":"string","indexed":true,"internalType":"string"},{"name":"oldReserve","type":"uint256","indexed":false,"internalType":"uint256"},{"name":"newReserve","type":"uint256","indexed":false,"internalType":"uint256"},{"name":"timestamp","type":"uint256","indexed":false,"internalType":"uint256"}],"anonymous":false},{"type":"event","name":"TreasuryBalanceHigh","inputs":[{"name":"treasuryName","type":"string","indexed":true,"internalType":"string"},{"name":"currentBalance","type":"uint256","indexed":false,"internalType":"uint256"},{"name":"threshold","type":"uint256","indexed":false,"internalType":"uint256"},{"name":"timestamp","type":"uint256","indexed":false,"internalType":"uint256"}],"anonymous":false},{"type":"event","name":"TreasuryBalanceLow","inputs":[{"name":"treasuryName","type":"string","indexed":true,"internalType":"string"},{"name":"currentBalance","type":"uint256","indexed":false,"internalType":"uint256"},{"name":"threshold","type":"uint256","indexed":false,"internalType":"uint256"},{"name":"timestamp","type":"uint256","indexed":false,"internalType":"uint256"}],"anonymous":false},{"type":"event","name":"TreasuryCreated","inputs":[{"name":"treasuryName","type":"string","indexed":true,"internalType":"string"},{"name":"initialBalance","type":"uint256","indexed":false,"internalType":"uint256"},{"name":"timestamp","type":"uint256","indexed":false,"internalType":"uint256"}],"anonymous":false},{"type":"event","name":"TreasuryEmergencyWithdraw","inputs":[{"name":"by","type":"address","indexed":true,"internalType":"address"},{"name":"amount","type":"uint256","indexed":false,"internalType":"uint256"},{"name":"reason","type":"string","indexed":false,"internalType":"string"},{"name":"timestamp","type":"uint256","indexed":false,"internalType":"uint256"}],"anonymous":false},{"type":"event","name":"TreasuryToggled","inputs":[{"name":"enabled","type":"bool","indexed":false,"internalType":"bool"},{"name":"timestamp","type":"uint256","indexed":false,"internalType":"uint256"}],"anonymous":false},{"type":"event","name":"TreasuryUpdated","inputs":[{"name":"treasuryName","type":"string","indexed":true,"internalType":"string"},{"name":"oldBalance","type":"uint256","indexed":false,"internalType":"uint256"},{"name":"newBalance","type":"uint256","indexed":false,"internalType":"uint256"},{"name":"timestamp","type":"uint256","indexed":false,"internalType":"uint256"}],"anonymous":false},{"type":"event","name":"WithdrawalLimitExceeded","inputs":[{"name":"user","type":"address","indexed":true,"internalType":"address"},{"name":"requestedAmount","type":"uint256","indexed":false,"internalType":"uint256"},{"name":"maxAllowed","type":"uint256","indexed":false,"internalType":"uint256"},{"name":"timestamp","type":"uint256","indexed":false,"internalType":"uint256"}],"anonymous":false},{"type":"error","name":"OwnableInvalidOwner","inputs":[{"name":"owner","type":"address","internalType":"address"}]},{"type":"error","name":"OwnableUnauthorizedAccount","inputs":[{"name":"account","type":"address","internalType":"address"}]},{"type":"error","name":"ReentrancyGuardReentrantCall","inputs":[]}],"bytecode":{"object":"0x6080806040523461009c573315610087575f8054336001600160a01b03198216811783556040519290916001600160a01b0316907f8be0079c531659141344cd1fd0a4f28419497f9722a3daafe3b4186f6b6457e09080a360018055600160ff196006541669021e19e0c9bab2400000600755600a6008551760065561161490816100a18239f35b631e4fbdf760e01b81525f6004820152602490fd5b5f80fdfe60806040526004361015610011575f80fd5b5f3560e01c80630804098714610ab257806308638fd114610f8e5780630a0a4ac514610efe57806326224c6414610c935780632c55c53e14610a0f5780632c68594d14610e9f5780632e19bfda14610e04578063377d555514610ced57806338dfd5f514610ccb5780634773489214610c935780634dc36e2e14610c2b5780635a596d1c14610c0e578063715018a614610bb75780638da5cb5b14610b9057806398eaa4a714610b01578063aa1dff8c14610ab2578063b89dad4f14610a0f578063bdb0d27b14610955578063c36b32de146107bf578063d5b9221b14610782578063e6b165ed14610741578063e976d43114610724578063f077022a146103c0578063f2fde38b146103365763ff0965c91461012c575f80fd5b346103325760603660031901126103325767ffffffffffffffff6004358181116103325761015e903690600401611153565b906024356044359182116103325761031061030061018e5f805160206115bf833981519152943690600401611153565b610196611593565b604051936102ee8751916020936101d060ff6004878d01966101b9818d8a611285565b8b019a888160029d8e815203019020015416611492565b6101fa82898c886040518092516101e881838d611285565b81018481520301902001541015611524565b8760405186818d5161020d81838b611285565b81018481520301902001610222838254611504565b905560405185818c5161023681838a611285565b81018b81520301902061024a838254611504565b905560405160038b5161025e818489611285565b8201918a8352878142940301902001557f28985383302cf87a03f1edbd035e6c5030137ddb81953c0b8bcd905581f16a176040518381526060878201526102b48351809481606085015289608085019101611285565b4260408201523392601f01601f1916810181900360800190a260405184818b516102df818389611285565b81018a815203019020546114d7565b94604051809481938a51928391611285565b82019081520301902054936114e4565b604080519283526020830194909452429382019390935280606081015b0390a2005b5f80fd5b346103325760203660031901126103325761034f6111b5565b610357611593565b6001600160a01b039081169081156103a8575f54826bffffffffffffffffffffffff60a01b8216175f55167f8be0079c531659141344cd1fd0a4f28419497f9722a3daafe3b4186f6b6457e05f80a3005b604051631e4fbdf760e01b81525f6004820152602490fd5b34610332576103ce3661120d565b5f546001600160a01b0393929084163314801561070c575b6103ef906112a6565b6103f7611570565b61040560ff600654166112e3565b61041183511515611326565b61041f603284511115611372565b61042c84821615156113b7565b6104378215156113fa565b61044d69021e19e0c9bab2400000831115611446565b61047b60ff600460405160208188516104698183858d01611285565b81016002815203019020015416611492565b60075482116106bd5760405160208185516104998183858a01611285565b810160048152030190208482165f526020528160405f20541061068157604051835181906104cb818360208901611285565b81016002815203602001902090600282015492808410156104eb90611524565b82549160018401549687956105008486611504565b908482885561050e91611504565b9081600288015542600388015560085461052791611511565b6064900491828811977fcb985c61e2fa2ce83c87409f2eb97e92bb425481019f0b82786d9fbc691953f99360409360019a61065d575b5050508084165f526003602052815f20610578868254611504565b90558151602081816105908d83815193849201611285565b810160048152030190208185165f52602052815f206105b0868254611504565b90556105bb896114e4565b9382519586524260208701521693a35f805160206115bf8339815191528254916105e4866114e4565b6040805192835260208301949094524293820193909352606090a2015491828103610610575b60018055005b61063a7febc3cf740e6289113022180c2076aa99c978b3322ec42bb5571da7e2929cb30c926114e4565b6040805192835260208301949094524293820193909352606090a280808061060a565b61066a8261067494611504565b918b8b01556114d7565b6002880155898b8061055d565b60405162461bcd60e51b8152602060048201526014602482015273496e73756666696369656e742062616c616e636560601b6044820152606490fd5b60405162461bcd60e51b815260206004820152602160248201527f416d6f756e742065786365656473206d6178696d756d207769746864726177616044820152601b60fa1b6064820152608490fd5b50335f9081526005602052604090205460ff166103e6565b34610332575f366003190112610332576020600754604051908152f35b346103325760203660031901126103325761075a6111b5565b610762611593565b6001600160a01b03165f908152600560205260409020805460ff19169055005b34610332576020366003190112610332576001600160a01b036107a36111b5565b165f526005602052602060ff60405f2054166040519015158152f35b34610332576107cd36611253565b906107d6611593565b6107e281511515611326565b604051918151906020938481818601946107fd818388611285565b810160028152030190205461091057600854610831606461082a816108228587611511565b049385611511565b0483611504565b936040519460a086019580871067ffffffffffffffff8811176108fc5760046040966108ee956108e9947f4f610fed047b9d7dda737836e7d087ff894d50387ff0c3c4b42f47bf8519b30e9a8a528885528b850191825289850190815260608501914283526108b38d6080880195600187528d51809381928d51928391611285565b810160028152030190209551865551600186015551600285015551600384015551151591019060ff801983541691151516179055565b6114e4565b9382519182524290820152a2005b634e487b7160e01b5f52604160045260245ffd5b60405162461bcd60e51b815260048101859052601760248201527f547265617375727920616c7265616479206578697374730000000000000000006044820152606490fd5b3461033257602036600319011261033257600435610971611593565b603281116109ca577f6650a6afc06108930f3b0fcc99280c5dbef425925191e4aba13d44f69413ebc69060085490806008556109c56040519283924291846040919493926060820195825260208201520152565b0390a1005b60405162461bcd60e51b815260206004820152601f60248201527f5265736572766520726174696f2063616e6e6f742065786365656420353025006044820152606490fd5b346103325760203660031901126103325760043567ffffffffffffffff8111610332576020610a45610a58923690600401611153565b8160405193828580945193849201611285565b810160028152030190208054610aae60018301549260028101549060ff6004600383015492015416916040519586958693909594919260809360a086019786526020860152604085015260608401521515910152565b0390f35b34610332576020610ada610ac5366111cb565b92908160405193828580945193849201611285565b810160048152030190209060018060a01b03165f52602052602060405f2054604051908152f35b3461033257602036600319011261033257610b1a6111b5565b610b22611593565b6001600160a01b03168015610b4b575f908152600560205260409020805460ff19166001179055005b60405162461bcd60e51b815260206004820152601860248201527f496e76616c696420636f6e7472616374206164647265737300000000000000006044820152606490fd5b34610332575f366003190112610332575f546040516001600160a01b039091168152602090f35b34610332575f36600319011261033257610bcf611593565b5f80546001600160a01b0319811682556001600160a01b03167f8be0079c531659141344cd1fd0a4f28419497f9722a3daafe3b4186f6b6457e08280a3005b34610332575f366003190112610332576020600854604051908152f35b346103325760203660031901126103325760043567ffffffffffffffff8111610332576020610a45610c61923690600401611153565b810160028152030190205480600a810204600a1490151715610c7f57005b634e487b7160e01b5f52601160045260245ffd5b34610332576020366003190112610332576001600160a01b03610cb46111b5565b165f526003602052602060405f2054604051908152f35b34610332575f36600319011261033257602060ff600654166040519015158152f35b3461033257610cfb36611253565b90610d04611593565b60405190610d2460ff60048351946020818187019761046981838b611285565b6040516020818351610d37818388611285565b81016002815203019020548311610db357610310610d8360207febc3cf740e6289113022180c2076aa99c978b3322ec42bb5571da7e2929cb30c94604051809381928751928391611285565b810160028152030190209160018301928584549455610da3868254611504565b60028201556003429101556114e4565b60405162461bcd60e51b815260206004820152602360248201527f526573657276652063616e6e6f742065786365656420746f74616c2062616c616044820152626e636560e81b6064820152608490fd5b346103325760203660031901126103325760043567ffffffffffffffff811161033257610e38610e9d913690600401611153565b610e40611593565b6004610e81602060405160ff848651928481818a0195610e61818389611285565b810160028152030190200154161594604051938492839251928391611285565b81016002815203019020019060ff801983541691151516179055565b005b34610332575f36600319011261033257610eb7611593565b7f059ca7fad8532afadd0f505a17901b43301de3dc5fd0ab9b076e7b102ea0249c604060065460ff8082161516809160ff19161760065581519015158152426020820152a1005b34610332576020366003190112610332577f974490b760549baff1026ae2b08d60b702dd709bb5cce5718c3576f27bc35e275f805160206115bf833981519152600435610f49611593565b60075490806007557213585e15da5d1a191c985dd85b105b5bdd5b9d606a1b6040515261032d6040519283924291846040919493926060820195825260208201520152565b346103325761111a5f805160206115bf833981519152610fad3661120d565b91939060018060a01b0390815f54163314801561113b575b610fce906112a6565b610fd6611570565b610fe460ff600654166112e3565b610ff086511515611326565b610ffe603287511115611372565b169161100b8315156113b7565b6110168115156113fa565b61102c69021e19e0c9bab2400000821115611446565b60405192855161104e60ff6004878a8186610469602098898095019d8e611285565b7fdf891f5410135263075ea37fdff545d69408e487f2cac5ef532f801aecfaf19e6040805183818b5161108281838d611285565b81016002815203019020946110df8487549961109e848c6114d7565b8955600289016110af8582546114d7565b90554260038a0155875f5260038252845f206110cc8582546114d7565b90558c8551938492839251928391611285565b81016004815203019020855f528452815f206110fc8282546114d7565b90556111078a6114e4565b9382519182524290820152a354936114e4565b6040805192835260208301949094524293820193909352606090a260018055005b50335f9081526005602052604090205460ff16610fc5565b81601f820112156103325780359067ffffffffffffffff928383116108fc5760405193601f8401601f19908116603f01168501908111858210176108fc576040528284526020838301011161033257815f926020809301838601378301015290565b600435906001600160a01b038216820361033257565b6040600319820112610332576004359067ffffffffffffffff8211610332576111f691600401611153565b906024356001600160a01b03811681036103325790565b6060600319820112610332576004359067ffffffffffffffff82116103325761123891600401611153565b906024356001600160a01b0381168103610332579060443590565b6040600319820112610332576004359067ffffffffffffffff82116103325761127e91600401611153565b9060243590565b5f5b8381106112965750505f910152565b8181015183820152602001611287565b156112ad57565b60405162461bcd60e51b815260206004820152600e60248201526d139bdd08185d5d1a1bdc9a5e995960921b6044820152606490fd5b156112ea57565b60405162461bcd60e51b8152602060048201526014602482015273151c99585cdd5c9e481a5cc8191a5cd8589b195960621b6044820152606490fd5b1561132d57565b60405162461bcd60e51b815260206004820152601d60248201527f5472656173757279206e616d652063616e6e6f7420626520656d7074790000006044820152606490fd5b1561137957565b60405162461bcd60e51b81526020600482015260166024820152755472656173757279206e616d6520746f6f206c6f6e6760501b6044820152606490fd5b156113be57565b60405162461bcd60e51b8152602060048201526014602482015273496e76616c69642075736572206164647265737360601b6044820152606490fd5b1561140157565b60405162461bcd60e51b815260206004820152601d60248201527f416d6f756e74206d7573742062652067726561746572207468616e20300000006044820152606490fd5b1561144d57565b60405162461bcd60e51b815260206004820152601c60248201527f416d6f756e742065786365656473206d6178696d756d206c696d6974000000006044820152606490fd5b1561149957565b60405162461bcd60e51b81526020600482015260166024820152755472656173757279206973206e6f742061637469766560501b6044820152606490fd5b91908201809211610c7f57565b6114fc90602060405192828480945193849201611285565b810103902090565b91908203918211610c7f57565b81810292918115918404141715610c7f57565b1561152b57565b60405162461bcd60e51b815260206004820152601e60248201527f496e73756666696369656e7420617661696c61626c652062616c616e636500006044820152606490fd5b600260015414611581576002600155565b604051633ee5aeb560e01b8152600490fd5b5f546001600160a01b031633036115a657565b60405163118cdaa760e01b8152336004820152602490fdfe677cddaa64b2c9b1512bf77cc3ee402b56f5bfc23c0993112006f818310dfae6a2646970667358221220d89df29e8c85708a42907838f0271acee076e5679770aef03632110633d0bf6f64736f6c63430008160033","linkReferences":{}},"methodIdentifiers":{"addAuthorizedContract(address)":"98eaa4a7","authorizedContracts(address)":"d5b9221b","checkTreasuryBalance(string)":"4dc36e2e","createTreasury(string,uint256)":"c36b32de","depositFunds(string,address,uint256)":"08638fd1","emergencyWithdraw(string,uint256,string)":"ff0965c9","getTreasuryInfo(string)":"2c55c53e","getUserBalance(address)":"47734892","getUserTreasuryBalance(string,address)":"08040987","maxWithdrawalAmount()":"e976d431","minReserveRatio()":"5a596d1c","owner()":"8da5cb5b","removeAuthorizedContract(address)":"e6b165ed","renounceOwnership()":"715018a6","setReserve(string,uint256)":"377d5555","toggleTreasury(string)":"2e19bfda","toggleTreasurySystem()":"2c68594d","transferOwnership(address)":"f2fde38b","treasuries(string)":"b89dad4f","treasuryEnabled()":"38dfd5f5","updateMaxWithdrawalAmount(uint256)":"0a0a4ac5","updateMinReserveRatio(uint256)":"bdb0d27b","userBalances(address)":"26224c64","userTreasuryBalances(string,address)":"aa1dff8c","withdrawFunds(string,address,uint256)":"f077022a"},"id":10}