{"abi":[{"type":"function","name":"addressCircuits","inputs":[{"name":"","type":"address","internalType":"address"}],"outputs":[{"name":"state","type":"uint8","internalType":"enum CircuitBreaker.CircuitState"},{"name":"failureCount","type":"uint256","internalType":"uint256"},{"name":"lastFailureTime","type":"uint256","internalType":"uint256"},{"name":"threshold","type":"uint256","internalType":"uint256"},{"name":"timeout","type":"uint256","internalType":"uint256"},{"name":"isActive","type":"bool","internalType":"bool"}],"stateMutability":"view"},{"type":"function","name":"checkAddressCircuit","inputs":[{"name":"targetAddress","type":"address","internalType":"address"}],"outputs":[{"name":"","type":"bool","internalType":"bool"}],"stateMutability":"view"},{"type":"function","name":"checkCircuit","inputs":[{"name":"circuitName","type":"string","internalType":"string"}],"outputs":[{"name":"","type":"bool","internalType":"bool"}],"stateMutability":"view"},{"type":"function","name":"checkFunctionCircuit","inputs":[{"name":"functionName","type":"string","internalType":"string"}],"outputs":[{"name":"","type":"bool","internalType":"bool"}],"stateMutability":"view"},{"type":"function","name":"circuitBreakerEnabled","inputs":[],"outputs":[{"name":"","type":"bool","internalType":"bool"}],"stateMutability":"view"},{"type":"function","name":"circuits","inputs":[{"name":"","type":"string","internalType":"string"}],"outputs":[{"name":"state","type":"uint8","internalType":"enum CircuitBreaker.CircuitState"},{"name":"failureCount","type":"uint256","internalType":"uint256"},{"name":"lastFailureTime","type":"uint256","internalType":"uint256"},{"name":"threshold","type":"uint256","internalType":"uint256"},{"name":"timeout","type":"uint256","internalType":"uint256"},{"name":"isActive","type":"bool","internalType":"bool"}],"stateMutability":"view"},{"type":"function","name":"createAddressCircuit","inputs":[{"name":"targetAddress","type":"address","internalType":"address"},{"name":"threshold","type":"uint256","internalType":"uint256"},{"name":"timeout","type":"uint256","internalType":"uint256"}],"outputs":[],"stateMutability":"nonpayable"},{"type":"function","name":"createCircuit","inputs":[{"name":"circuitName","type":"string","internalType":"string"},{"name":"threshold","type":"uint256","internalType":"uint256"},{"name":"timeout","type":"uint256","internalType":"uint256"}],"outputs":[],"stateMutability":"nonpayable"},{"type":"function","name":"createFunctionCircuit","inputs":[{"name":"functionName","type":"string","internalType":"string"},{"name":"threshold","type":"uint256","internalType":"uint256"},{"name":"timeout","type":"uint256","internalType":"uint256"}],"outputs":[],"stateMutability":"nonpayable"},{"type":"function","name":"defaultThreshold","inputs":[],"outputs":[{"name":"","type":"uint256","internalType":"uint256"}],"stateMutability":"view"},{"type":"function","name":"defaultTimeout","inputs":[],"outputs":[{"name":"","type":"uint256","internalType":"uint256"}],"stateMutability":"view"},{"type":"function","name":"functionCircuits","inputs":[{"name":"","type":"string","internalType":"string"}],"outputs":[{"name":"state","type":"uint8","internalType":"enum CircuitBreaker.CircuitState"},{"name":"failureCount","type":"uint256","internalType":"uint256"},{"name":"lastFailureTime","type":"uint256","internalType":"uint256"},{"name":"threshold","type":"uint256","internalType":"uint256"},{"name":"timeout","type":"uint256","internalType":"uint256"},{"name":"isActive","type":"bool","internalType":"bool"}],"stateMutability":"view"},{"type":"function","name":"getCircuitInfo","inputs":[{"name":"circuitName","type":"string","internalType":"string"}],"outputs":[{"name":"state","type":"uint8","internalType":"enum CircuitBreaker.CircuitState"},{"name":"failureCount","type":"uint256","internalType":"uint256"},{"name":"lastFailureTime","type":"uint256","internalType":"uint256"},{"name":"threshold","type":"uint256","internalType":"uint256"},{"name":"timeout","type":"uint256","internalType":"uint256"},{"name":"isActive","type":"bool","internalType":"bool"}],"stateMutability":"view"},{"type":"function","name":"initialize","inputs":[{"name":"owner","type":"address","internalType":"address"}],"outputs":[],"stateMutability":"nonpayable"},{"type":"function","name":"owner","inputs":[],"outputs":[{"name":"","type":"address","internalType":"address"}],"stateMutability":"view"},{"type":"function","name":"recordAddressFailure","inputs":[{"name":"targetAddress","type":"address","internalType":"address"}],"outputs":[],"stateMutability":"nonpayable"},{"type":"function","name":"recordAddressSuccess","inputs":[{"name":"targetAddress","type":"address","internalType":"address"}],"outputs":[],"stateMutability":"nonpayable"},{"type":"function","name":"recordFailure","inputs":[{"name":"circuitName","type":"string","internalType":"string"}],"outputs":[],"stateMutability":"nonpayable"},{"type":"function","name":"recordFunctionFailure","inputs":[{"name":"functionName","type":"string","internalType":"string"}],"outputs":[],"stateMutability":"nonpayable"},{"type":"function","name":"recordFunctionSuccess","inputs":[{"name":"functionName","type":"string","internalType":"string"}],"outputs":[],"stateMutability":"nonpayable"},{"type":"function","name":"recordSuccess","inputs":[{"name":"circuitName","type":"string","internalType":"string"}],"outputs":[],"stateMutability":"nonpayable"},{"type":"function","name":"renounceOwnership","inputs":[],"outputs":[],"stateMutability":"nonpayable"},{"type":"function","name":"toggleCircuitBreaker","inputs":[],"outputs":[],"stateMutability":"nonpayable"},{"type":"function","name":"transferOwnership","inputs":[{"name":"newOwner","type":"address","internalType":"address"}],"outputs":[],"stateMutability":"nonpayable"},{"type":"event","name":"CircuitBreakerToggled","inputs":[{"name":"enabled","type":"bool","indexed":true,"internalType":"bool"},{"name":"timestamp","type":"uint256","indexed":true,"internalType":"uint256"}],"anonymous":false},{"type":"event","name":"CircuitClosed","inputs":[{"name":"circuitName","type":"string","indexed":true,"internalType":"string"},{"name":"timestamp","type":"uint256","indexed":true,"internalType":"uint256"}],"anonymous":false},{"type":"event","name":"CircuitCreated","inputs":[{"name":"circuitName","type":"string","indexed":true,"internalType":"string"},{"name":"threshold","type":"uint256","indexed":true,"internalType":"uint256"},{"name":"timeout","type":"uint256","indexed":true,"internalType":"uint256"},{"name":"timestamp","type":"uint256","indexed":false,"internalType":"uint256"}],"anonymous":false},{"type":"event","name":"CircuitHalfOpened","inputs":[{"name":"circuitName","type":"string","indexed":true,"internalType":"string"},{"name":"timestamp","type":"uint256","indexed":true,"internalType":"uint256"}],"anonymous":false},{"type":"event","name":"CircuitOpened","inputs":[{"name":"circuitName","type":"string","indexed":true,"internalType":"string"},{"name":"failureCount","type":"uint256","indexed":true,"internalType":"uint256"},{"name":"timestamp","type":"uint256","indexed":true,"internalType":"uint256"}],"anonymous":false},{"type":"event","name":"Initialized","inputs":[{"name":"version","type":"uint64","indexed":false,"internalType":"uint64"}],"anonymous":false},{"type":"event","name":"OwnershipTransferred","inputs":[{"name":"previousOwner","type":"address","indexed":true,"internalType":"address"},{"name":"newOwner","type":"address","indexed":true,"internalType":"address"}],"anonymous":false},{"type":"error","name":"CircuitAlreadyExists","inputs":[]},{"type":"error","name":"CircuitBreakerDisabled","inputs":[]},{"type":"error","name":"CircuitNotFound","inputs":[]},{"type":"error","name":"CircuitNotHalfOpen","inputs":[]},{"type":"error","name":"CircuitNotOpen","inputs":[]},{"type":"error","name":"InvalidAddress","inputs":[]},{"type":"error","name":"InvalidCircuitParams","inputs":[]},{"type":"error","name":"InvalidFunctionName","inputs":[]},{"type":"error","name":"InvalidInitialization","inputs":[]},{"type":"error","name":"NotInitializing","inputs":[]},{"type":"error","name":"OwnableInvalidOwner","inputs":[{"name":"owner","type":"address","internalType":"address"}]},{"type":"error","name":"OwnableUnauthorizedAccount","inputs":[{"name":"account","type":"address","internalType":"address"}]}],"bytecode":{"object":"0x608060405234801561000f575f80fd5b506116658061001d5f395ff3fe608060405234801561000f575f80fd5b5060043610610153575f3560e01c80639ea2cd38116100bf578063d317b50a11610079578063d317b50a1461035c578063d5eb63cc1461036f578063df7dd48b14610377578063eb4f87951461038a578063f2fde38b1461039d578063f768ffd9146103b0575f80fd5b80639ea2cd38146102b15780639ea462be14610303578063ab9068fa14610316578063aca78bc814610323578063ad00229514610336578063c4d66de814610349575f80fd5b806353f10a4b1161011057806353f10a4b146101e45780635a0411f0146101ed578063715018a61461020057806375786b53146102085780638da5cb5b146102645780639205f9be1461029e575f80fd5b806301fa46ad1461015757806309f3f5661461017f57806346f4a36714610196578063479bbce0146101a957806347cfbddf146101be578063524c88ad146101d1575b5f80fd5b61016a6101653660046111c8565b610406565b60405190151581526020015b60405180910390f35b61018860055481565b604051908152602001610176565b61016a6101a43660046111c8565b610466565b6101bc6101b736600461121d565b61048b565b005b61016a6101cc36600461124d565b610510565b6101bc6101df3660046111c8565b61055e565b61018860045481565b6101bc6101fb3660046111c8565b61063c565b6101bc610729565b61025261021636600461124d565b600160208190525f918252604090912080549181015460028201546003830154600484015460059094015460ff95861695939492939192911686565b6040516101769695949392919061127a565b7f9016d09d72d40fdae2fd8ceac6b6234c7706214fd39c1cd1e609a0528c199300546040516001600160a01b039091168152602001610176565b6101bc6102ac36600461124d565b61073c565b6102526102bf3660046112d9565b80516020818301810180515f8252928201919093012091528054600182015460028301546003840154600485015460059095015460ff948516959394929391921686565b6101bc6103113660046111c8565b6107f3565b60035461016a9060ff1681565b6101bc610331366004611384565b610828565b6102526103443660046111c8565b610891565b6101bc61035736600461124d565b6108f0565b6101bc61036a366004611384565b610a02565b6101bc610a87565b6101bc61038536600461124d565b610ad6565b6101bc6103983660046111c8565b610b7c565b6101bc6103ab36600461124d565b610bb1565b6102526103be3660046112d9565b80516020818301810180516002808352938301929094019190912092905281546001830154918301546003840154600485015460059095015460ff9384169592939192911686565b6003545f9060ff1661041957505f610460565b5f6002848460405161042c9291906113d1565b908152604051908190036020019020600581015490915060ff16610453575f915050610460565b61045c81610bf3565b9150505b92915050565b6003545f9060ff1661047957505f610460565b5f80848460405161042c9291906113d1565b610493610c41565b6001600160a01b0383166104ba5760405163e6c4247b60e01b815260040160405180910390fd5b6104c48282610c9c565b6001600160a01b0383165f9081526001602052604090206005015460ff161561050057604051639768b91b60e01b815260040160405180910390fd5b61050b838383610cdc565b505050565b6003545f9060ff1661052357505f919050565b6001600160a01b0382165f908152600160205260409020600581015460ff1661054e57505f92915050565b61055781610bf3565b9392505050565b60035460ff16610581576040516364286e8160e01b815260040160405180910390fd5b5f600283836040516105949291906113d1565b908152604051908190036020019020600581015490915060ff166105cb576040516373c7f19960e11b815260040160405180910390fd5b6002815460ff1660028111156105e3576105e3611266565b0361050b57805460ff191681555f6001820155604051429061060890859085906113d1565b604051908190038120907f210c3bac76a74d68e076423236dbdb9662f240dca541b1ce5621bb3106a8cff8905f90a3505050565b60035460ff1661065f576040516364286e8160e01b815260040160405180910390fd5b5f600283836040516106729291906113d1565b908152604051908190036020019020600581015490915060ff166106a9576040516373c7f19960e11b815260040160405180910390fd5b806001015f81546106b9906113f4565b90915550426002820155600381015460018201541061050b57805460ff1916600190811782558101546040514291906106f590869086906113d1565b604051908190038120907fd502d38fd53ba07b4543cf7b8516a0c93e9aa924f06515491a9a149008f11e16905f90a4505050565b610731610c41565b61073a5f610de8565b565b60035460ff1661075f576040516364286e8160e01b815260040160405180910390fd5b6001600160a01b0381165f908152600160205260409020600581015460ff1661079b576040516373c7f19960e11b815260040160405180910390fd5b806001015f81546107ab906113f4565b9091555042600282015560038101546001820154106107ef57805460ff191660011781555f6107d983610e58565b9050428260010154826040516106f59190611439565b5050565b60035460ff16610816576040516364286e8160e01b815260040160405180910390fd5b5f8083836040516105949291906113d1565b610830610c41565b61083a8282610c9c565b5f848460405161084b9291906113d1565b9081526040519081900360200190206005015460ff161561087f57604051639768b91b60e01b815260040160405180910390fd5b61088b84848484610e89565b50505050565b5f805f805f805f8089896040516108a99291906113d1565b9081526040519081900360200190208054600182015460028301546003840154600485015460059095015460ff9485169f939e50919c509a50929850911695509350505050565b5f6108f9610f52565b805490915060ff600160401b820416159067ffffffffffffffff165f811580156109205750825b90505f8267ffffffffffffffff16600114801561093c5750303b155b90508115801561094a575080155b156109685760405163f92ee8a960e01b815260040160405180910390fd5b845467ffffffffffffffff19166001178555831561099257845460ff60401b1916600160401b1785555b61099b86610f7a565b6003805460ff191660011790556005600481905561012c905583156109fa57845460ff60401b19168555604051600181527fc7f505b2f371ae2175ee4913f4499e1f2633a7b5936321eed1cdaeb6115181d29060200160405180910390a15b505050505050565b610a0a610c41565b5f839003610a2b576040516318b6b25f60e21b815260040160405180910390fd5b610a358282610c9c565b60028484604051610a479291906113d1565b9081526040519081900360200190206005015460ff1615610a7b57604051639768b91b60e01b815260040160405180910390fd5b61088b84848484610f8b565b610a8f610c41565b6003805460ff19811660ff9182161590811790925560405142929091161515907f6b45c574a531f8f04b78493fc4ae5463dbe22922b2dea39ae53a3cdb01310a73905f90a3565b60035460ff16610af9576040516364286e8160e01b815260040160405180910390fd5b6001600160a01b0381165f908152600160205260409020600581015460ff16610b35576040516373c7f19960e11b815260040160405180910390fd5b6002815460ff166002811115610b4d57610b4d611266565b036107ef57805460ff191681555f60018201819055610b6b83610e58565b905042816040516106089190611439565b60035460ff16610b9f576040516364286e8160e01b815260040160405180910390fd5b5f8083836040516106729291906113d1565b610bb9610c41565b6001600160a01b038116610be757604051631e4fbdf760e01b81525f60048201526024015b60405180910390fd5b610bf081610de8565b50565b5f6001825460ff166002811115610c0c57610c0c611266565b03610c3a5781600401548260020154610c259190611444565b4210610c3257505f919050565b506001919050565b505f919050565b33610c737f9016d09d72d40fdae2fd8ceac6b6234c7706214fd39c1cd1e609a0528c199300546001600160a01b031690565b6001600160a01b03161461073a5760405163118cdaa760e01b8152336004820152602401610bde565b815f03610cbc5760405163612ae32960e11b815260040160405180910390fd5b805f036107ef5760405163612ae32960e11b815260040160405180910390fd5b5f610ce684610e58565b6040805160c0810182525f80825260208083018290528284018290526060830188905260808301879052600160a084018190526001600160a01b038a168352908190529290208151815494955091939092839160ff191690836002811115610d5057610d50611266565b0217905550602082015160018201556040808301516002830155606083015160038301556080830151600483015560a0909201516005909101805460ff19169115159190911790555182908490610da8908490611439565b604051908190038120428252907f88fc19b19668a44f9e5a799bdf14b069a5cf3abfda96a414dbcb3ef49e5651469060200160405180910390a450505050565b7f9016d09d72d40fdae2fd8ceac6b6234c7706214fd39c1cd1e609a0528c19930080546001600160a01b031981166001600160a01b03848116918217845560405192169182907f8be0079c531659141344cd1fd0a4f28419497f9722a3daafe3b4186f6b6457e0905f90a3505050565b6060610e6382610fcb565b604051602001610e739190611457565b6040516020818303038152906040529050919050565b6040805160c08101909152805f81526020015f81526020015f8152602001838152602001828152602001600115158152505f8585604051610ecb9291906113d1565b90815260405190819003602001902081518154829060ff19166001836002811115610ef857610ef8611266565b0217905550602082015160018201556040808301516002830155606083015160038301556080830151600483015560a0909201516005909101805460ff19169115159190911790555181908390610da890879087906113d1565b5f807ff0c57e16840df040f15088dc2f81fe391c3923bec73e23a9662efc9c229c6a00610460565b610f82611103565b610bf081611128565b6040805160c0810182525f80825260208201819052818301526060810184905260808101839052600160a08201529051600290610ecb90879087906113d1565b60408051602880825260608281019093525f91906020820181803683370190505090505f5b60148110156110fc575f611005826013611470565b611010906008611483565b61101b90600261157a565b61102e906001600160a01b038716611599565b60f81b90505f60108260f81c61104491906115ac565b60f81b90505f8160f81c601061105a91906115cd565b8360f81c61106891906115e9565b60f81b905061107682611130565b85611082866002611483565b8151811061109257611092611602565b60200101906001600160f81b03191690815f1a9053506110b181611130565b856110bd866002611483565b6110c8906001611444565b815181106110d8576110d8611602565b60200101906001600160f81b03191690815f1a905350505050806001019050610ff0565b5092915050565b61110b61116a565b61073a57604051631afcd79f60e31b815260040160405180910390fd5b610bb9611103565b5f600a60f883901c10156111565761114d60f883901c6030611616565b60f81b92915050565b61114d60f883901c6057611616565b919050565b5f611173610f52565b54600160401b900460ff16919050565b5f8083601f840112611193575f80fd5b50813567ffffffffffffffff8111156111aa575f80fd5b6020830191508360208285010111156111c1575f80fd5b9250929050565b5f80602083850312156111d9575f80fd5b823567ffffffffffffffff8111156111ef575f80fd5b6111fb85828601611183565b90969095509350505050565b80356001600160a01b0381168114611165575f80fd5b5f805f6060848603121561122f575f80fd5b61123884611207565b95602085013595506040909401359392505050565b5f6020828403121561125d575f80fd5b61055782611207565b634e487b7160e01b5f52602160045260245ffd5b60c081016003881061129a57634e487b7160e01b5f52602160045260245ffd5b9681526020810195909552604085019390935260608401919091526080830152151560a09091015290565b634e487b7160e01b5f52604160045260245ffd5b5f602082840312156112e9575f80fd5b813567ffffffffffffffff80821115611300575f80fd5b818401915084601f830112611313575f80fd5b813581811115611325576113256112c5565b604051601f8201601f19908116603f0116810190838211818310171561134d5761134d6112c5565b81604052828152876020848701011115611365575f80fd5b826020860160208301375f928101602001929092525095945050505050565b5f805f8060608587031215611397575f80fd5b843567ffffffffffffffff8111156113ad575f80fd5b6113b987828801611183565b90989097506020870135966040013595509350505050565b818382375f9101908152919050565b634e487b7160e01b5f52601160045260245ffd5b5f60018201611405576114056113e0565b5060010190565b5f81515f5b8181101561142b5760208185018101518683015201611411565b505f93019283525090919050565b5f610557828461140c565b80820180821115610460576104606113e0565b64414444525f60d81b81525f610557600583018461140c565b81810381811115610460576104606113e0565b8082028115828204841417610460576104606113e0565b600181815b808511156114d457815f19048211156114ba576114ba6113e0565b808516156114c757918102915b93841c939080029061149f565b509250929050565b5f826114ea57506001610460565b816114f657505f610460565b816001811461150c576002811461151657611532565b6001915050610460565b60ff841115611527576115276113e0565b50506001821b610460565b5060208310610133831016604e8410600b8410161715611555575081810a610460565b61155f838361149a565b805f1904821115611572576115726113e0565b029392505050565b5f61055783836114dc565b634e487b7160e01b5f52601260045260245ffd5b5f826115a7576115a7611585565b500490565b5f60ff8316806115be576115be611585565b8060ff84160491505092915050565b60ff81811683821602908116908181146110fc576110fc6113e0565b60ff8281168282160390811115610460576104606113e0565b634e487b7160e01b5f52603260045260245ffd5b60ff8181168382160190811115610460576104606113e056fea2646970667358221220daf461a519ecdce2032d0d5282df3dc8a60744d3af3a911bb14fb83e45eddccb64736f6c63430008160033","linkReferences":{}},"methodIdentifiers":{"addressCircuits(address)":"75786b53","checkAddressCircuit(address)":"47cfbddf","checkCircuit(string)":"46f4a367","checkFunctionCircuit(string)":"01fa46ad","circuitBreakerEnabled()":"ab9068fa","circuits(string)":"9ea2cd38","createAddressCircuit(address,uint256,uint256)":"479bbce0","createCircuit(string,uint256,uint256)":"aca78bc8","createFunctionCircuit(string,uint256,uint256)":"d317b50a","defaultThreshold()":"53f10a4b","defaultTimeout()":"09f3f566","functionCircuits(string)":"f768ffd9","getCircuitInfo(string)":"ad002295","initialize(address)":"c4d66de8","owner()":"8da5cb5b","recordAddressFailure(address)":"9205f9be","recordAddressSuccess(address)":"df7dd48b","recordFailure(string)":"eb4f8795","recordFunctionFailure(string)":"5a0411f0","recordFunctionSuccess(string)":"524c88ad","recordSuccess(string)":"9ea462be","renounceOwnership()":"715018a6","toggleCircuitBreaker()":"d5eb63cc","transferOwnership(address)":"f2fde38b"},"storageLayout":{"storage":[{"astId":18605,"contract":"contracts/shared/utils/CircuitBreaker.sol:CircuitBreaker","label":"circuits","offset":0,"slot":"0","type":"t_mapping(t_string_memory_ptr,t_struct(Circuit)18599_storage)"},{"astId":18611,"contract":"contracts/shared/utils/CircuitBreaker.sol:CircuitBreaker","label":"addressCircuits","offset":0,"slot":"1","type":"t_mapping(t_address,t_struct(Circuit)18599_storage)"},{"astId":18617,"contract":"contracts/shared/utils/CircuitBreaker.sol:CircuitBreaker","label":"functionCircuits","offset":0,"slot":"2","type":"t_mapping(t_string_memory_ptr,t_struct(Circuit)18599_storage)"},{"astId":18620,"contract":"contracts/shared/utils/CircuitBreaker.sol:CircuitBreaker","label":"circuitBreakerEnabled","offset":0,"slot":"3","type":"t_bool"},{"astId":18623,"contract":"contracts/shared/utils/CircuitBreaker.sol:CircuitBreaker","label":"defaultThreshold","offset":0,"slot":"4","type":"t_uint256"},{"astId":18626,"contract":"contracts/shared/utils/CircuitBreaker.sol:CircuitBreaker","label":"defaultTimeout","offset":0,"slot":"5","type":"t_uint256"}],"types":{"t_address":{"encoding":"inplace","label":"address","numberOfBytes":"20"},"t_bool":{"encoding":"inplace","label":"bool","numberOfBytes":"1"},"t_enum(CircuitState)18585":{"encoding":"inplace","label":"enum CircuitBreaker.CircuitState","numberOfBytes":"1"},"t_mapping(t_address,t_struct(Circuit)18599_storage)":{"encoding":"mapping","key":"t_address","label":"mapping(address => struct CircuitBreaker.Circuit)","numberOfBytes":"32","value":"t_struct(Circuit)18599_storage"},"t_mapping(t_string_memory_ptr,t_struct(Circuit)18599_storage)":{"encoding":"mapping","key":"t_string_memory_ptr","label":"mapping(string => struct CircuitBreaker.Circuit)","numberOfBytes":"32","value":"t_struct(Circuit)18599_storage"},"t_string_memory_ptr":{"encoding":"bytes","label":"string","numberOfBytes":"32"},"t_struct(Circuit)18599_storage":{"encoding":"inplace","label":"struct CircuitBreaker.Circuit","numberOfBytes":"192","members":[{"astId":18588,"contract":"contracts/shared/utils/CircuitBreaker.sol:CircuitBreaker","label":"state","offset":0,"slot":"0","type":"t_enum(CircuitState)18585"},{"astId":18590,"contract":"contracts/shared/utils/CircuitBreaker.sol:CircuitBreaker","label":"failureCount","offset":0,"slot":"1","type":"t_uint256"},{"astId":18592,"contract":"contracts/shared/utils/CircuitBreaker.sol:CircuitBreaker","label":"lastFailureTime","offset":0,"slot":"2","type":"t_uint256"},{"astId":18594,"contract":"contracts/shared/utils/CircuitBreaker.sol:CircuitBreaker","label":"threshold","offset":0,"slot":"3","type":"t_uint256"},{"astId":18596,"contract":"contracts/shared/utils/CircuitBreaker.sol:CircuitBreaker","label":"timeout","offset":0,"slot":"4","type":"t_uint256"},{"astId":18598,"contract":"contracts/shared/utils/CircuitBreaker.sol:CircuitBreaker","label":"isActive","offset":0,"slot":"5","type":"t_bool"}]},"t_uint256":{"encoding":"inplace","label":"uint256","numberOfBytes":"32"}}},"id":44}