{"abi":[{"type":"function","name":"ANALYTICS_STORAGE_SLOT","inputs":[],"outputs":[{"name":"","type":"bytes32","internalType":"bytes32"}],"stateMutability":"view"},{"type":"function","name":"CONFIG_STORAGE_SLOT","inputs":[],"outputs":[{"name":"","type":"bytes32","internalType":"bytes32"}],"stateMutability":"view"},{"type":"function","name":"GAME_STORAGE_SLOT","inputs":[],"outputs":[{"name":"","type":"bytes32","internalType":"bytes32"}],"stateMutability":"view"},{"type":"function","name":"REFERRAL_STORAGE_SLOT","inputs":[],"outputs":[{"name":"","type":"bytes32","internalType":"bytes32"}],"stateMutability":"view"},{"type":"function","name":"SECURITY_STORAGE_SLOT","inputs":[],"outputs":[{"name":"","type":"bytes32","internalType":"bytes32"}],"stateMutability":"view"},{"type":"function","name":"TREASURY_STORAGE_SLOT","inputs":[],"outputs":[{"name":"","type":"bytes32","internalType":"bytes32"}],"stateMutability":"view"}],"bytecode":{"object":"0x608060405234801561000f575f80fd5b506101968061001d5f395ff3fe608060405234801561000f575f80fd5b5060043610610060575f3560e01c80634d7578ee146100645780635ec423931461009d5780636712d222146100c4578063703d1dab146100eb578063a9737f3a14610112578063ffde885914610139575b5f80fd5b61008b7f588251c211afc5e129362241640344aecbbb6b8c08b4906c2cd81f276a1dca0f81565b60405190815260200160405180910390f35b61008b7ff7a9062d04ea8d0705dde5e1a327b309bcebc1d15f53388d8da603a362b43cda81565b61008b7f9256fd3ccd893a87aff6752b3b35ff5a222a56080d66dc2cfa500dc1da7aa2e881565b61008b7f0504359d2a7818f5457fc89f095b177d7a343e546844cde896347126af569b2e81565b61008b7fff36bbe4fcbb8b56cd9067a8aae6bd667fe81c194d2155762f4530c98625e46d81565b61008b7f54a93883e668f845121f9ed2904459121a66c9b3035aae515f9eb649cbd75b1c8156fea2646970667358221220712adfbeadf25cccdc76f398ff821eb4f82eb457fb717567e760b1efa351019564736f6c63430008160033","linkReferences":{}},"methodIdentifiers":{"ANALYTICS_STORAGE_SLOT()":"4d7578ee","CONFIG_STORAGE_SLOT()":"703d1dab","GAME_STORAGE_SLOT()":"ffde8859","REFERRAL_STORAGE_SLOT()":"a9737f3a","SECURITY_STORAGE_SLOT()":"6712d222","TREASURY_STORAGE_SLOT()":"5ec42393"},"storageLayout":{"storage":[],"types":{}},"id":39}