{"abi":[{"type":"constructor","inputs":[],"stateMutability":"nonpayable"},{"type":"function","name":"allContracts","inputs":[{"name":"","type":"uint256","internalType":"uint256"}],"outputs":[{"name":"","type":"address","internalType":"address"}],"stateMutability":"view"},{"type":"function","name":"emergencyPause","inputs":[],"outputs":[],"stateMutability":"nonpayable"},{"type":"function","name":"emergencyPaused","inputs":[],"outputs":[{"name":"","type":"bool","internalType":"bool"}],"stateMutability":"view"},{"type":"function","name":"emergencyResume","inputs":[],"outputs":[],"stateMutability":"nonpayable"},{"type":"function","name":"getAllContracts","inputs":[],"outputs":[{"name":"","type":"address[]","internalType":"address[]"}],"stateMutability":"view"},{"type":"function","name":"initialize","inputs":[{"name":"owner","type":"address","internalType":"address"}],"outputs":[],"stateMutability":"nonpayable"},{"type":"function","name":"isEmergencyPaused","inputs":[],"outputs":[{"name":"","type":"bool","internalType":"bool"}],"stateMutability":"view"},{"type":"function","name":"owner","inputs":[],"outputs":[{"name":"","type":"address","internalType":"address"}],"stateMutability":"view"},{"type":"function","name":"registerContract","inputs":[{"name":"contractAddress","type":"address","internalType":"address"}],"outputs":[],"stateMutability":"nonpayable"},{"type":"function","name":"registeredContracts","inputs":[{"name":"","type":"address","internalType":"address"}],"outputs":[{"name":"","type":"bool","internalType":"bool"}],"stateMutability":"view"},{"type":"function","name":"renounceOwnership","inputs":[],"outputs":[],"stateMutability":"nonpayable"},{"type":"function","name":"transferOwnership","inputs":[{"name":"newOwner","type":"address","internalType":"address"}],"outputs":[],"stateMutability":"nonpayable"},{"type":"function","name":"unregisterContract","inputs":[{"name":"contractAddress","type":"address","internalType":"address"}],"outputs":[],"stateMutability":"nonpayable"},{"type":"event","name":"ContractRegistered","inputs":[{"name":"contractAddress","type":"address","indexed":true,"internalType":"address"},{"name":"timestamp","type":"uint256","indexed":false,"internalType":"uint256"}],"anonymous":false},{"type":"event","name":"ContractUnregistered","inputs":[{"name":"contractAddress","type":"address","indexed":true,"internalType":"address"},{"name":"timestamp","type":"uint256","indexed":false,"internalType":"uint256"}],"anonymous":false},{"type":"event","name":"EmergencyPaused","inputs":[{"name":"by","type":"address","indexed":true,"internalType":"address"},{"name":"timestamp","type":"uint256","indexed":false,"internalType":"uint256"}],"anonymous":false},{"type":"event","name":"EmergencyResumed","inputs":[{"name":"by","type":"address","indexed":true,"internalType":"address"},{"name":"timestamp","type":"uint256","indexed":false,"internalType":"uint256"}],"anonymous":false},{"type":"event","name":"Initialized","inputs":[{"name":"version","type":"uint64","indexed":false,"internalType":"uint64"}],"anonymous":false},{"type":"event","name":"OwnershipTransferred","inputs":[{"name":"previousOwner","type":"address","indexed":true,"internalType":"address"},{"name":"newOwner","type":"address","indexed":true,"internalType":"address"}],"anonymous":false},{"type":"error","name":"InvalidInitialization","inputs":[]},{"type":"error","name":"NotInitializing","inputs":[]},{"type":"error","name":"OwnableInvalidOwner","inputs":[{"name":"owner","type":"address","internalType":"address"}]},{"type":"error","name":"OwnableUnauthorizedAccount","inputs":[{"name":"account","type":"address","internalType":"address"}]}],"bytecode":{"object":"0x608060405234801561000f575f80fd5b5061001861001d565b6100cf565b7ff0c57e16840df040f15088dc2f81fe391c3923bec73e23a9662efc9c229c6a00805468010000000000000000900460ff161561006d5760405163f92ee8a960e01b815260040160405180910390fd5b80546001600160401b03908116146100cc5780546001600160401b0319166001600160401b0390811782556040519081527fc7f505b2f371ae2175ee4913f4499e1f2633a7b5936321eed1cdaeb6115181d29060200160405180910390a15b50565b610891806100dc5f395ff3fe608060405234801561000f575f80fd5b50600436106100cb575f3560e01c80638da5cb5b11610088578063c4d66de811610063578063c4d66de8146101a6578063e54e26b9146101b9578063f2fde38b146101cc578063fac2c621146101df575f80fd5b80638da5cb5b1461013857806393c87f031461017c578063a06617cd14610184575f80fd5b806318d3ce96146100cf57806322a5dde4146100ed57806327c830a914610102578063290d10c41461011e57806351858e2714610128578063715018a614610130575b5f80fd5b6100d76101f2565b6040516100e491906107cb565b60405180910390f35b6101006100fb366004610817565b610252565b005b5f5461010e9060ff1681565b60405190151581526020016100e4565b5f5460ff1661010e565b6101006103ba565b61010061040c565b7f9016d09d72d40fdae2fd8ceac6b6234c7706214fd39c1cd1e609a0528c199300546001600160a01b03165b6040516001600160a01b0390911681526020016100e4565b61010061041f565b61010e610192366004610817565b60016020525f908152604090205460ff1681565b6101006101b4366004610817565b610462565b6101646101c7366004610844565b610579565b6101006101da366004610817565b6105a1565b6101006101ed366004610817565b6105de565b6060600280548060200260200160405190810160405280929190818152602001828054801561024857602002820191905f5260205f20905b81546001600160a01b0316815260019091019060200180831161022a575b5050505050905090565b61025a61069e565b6001600160a01b0381166102b55760405162461bcd60e51b815260206004820152601860248201527f496e76616c696420636f6e74726163742061646472657373000000000000000060448201526064015b60405180910390fd5b6001600160a01b0381165f9081526001602052604090205460ff161561031d5760405162461bcd60e51b815260206004820152601b60248201527f436f6e747261637420616c72656164792072656769737465726564000000000060448201526064016102ac565b6001600160a01b0381165f818152600160208190526040808320805460ff1916831790556002805492830181559092527f405787fa12a823e0f2b7631cc41b3ba8828b3321ca811111fa75cd3aa3bb5ace0180546001600160a01b03191683179055517f41af697536e017085ac02cc37449b0a4b25d3e5bcd47eeb25b57a23d69c7eeec906103af9042815260200190565b60405180910390a250565b6103c261069e565b5f805460ff1916600117905560405133907f2e31b3b12b9bb0e82c32f27df5f234fabc95a374f54fd287a7132878d5dc9fc3906104029042815260200190565b60405180910390a2565b61041461069e565b61041d5f6106f9565b565b61042761069e565b5f805460ff1916905560405142815233907fe0dc8967738d1ca725802874d41e2ab2405df0e2eb3c61069d26d2782660d59490602001610402565b7ff0c57e16840df040f15088dc2f81fe391c3923bec73e23a9662efc9c229c6a008054600160401b810460ff16159067ffffffffffffffff165f811580156104a75750825b90505f8267ffffffffffffffff1660011480156104c35750303b155b9050811580156104d1575080155b156104ef5760405163f92ee8a960e01b815260040160405180910390fd5b845467ffffffffffffffff19166001178555831561051957845460ff60401b1916600160401b1785555b61052286610769565b5f805460ff19169055831561057157845460ff60401b19168555604051600181527fc7f505b2f371ae2175ee4913f4499e1f2633a7b5936321eed1cdaeb6115181d29060200160405180910390a15b505050505050565b60028181548110610588575f80fd5b5f918252602090912001546001600160a01b0316905081565b6105a961069e565b6001600160a01b0381166105d257604051631e4fbdf760e01b81525f60048201526024016102ac565b6105db816106f9565b50565b6105e661069e565b6001600160a01b0381165f9081526001602052604090205460ff1661064d5760405162461bcd60e51b815260206004820152601760248201527f436f6e7472616374206e6f74207265676973746572656400000000000000000060448201526064016102ac565b6001600160a01b0381165f8181526001602052604090819020805460ff19169055517ff81795170e73e8e66918dc4d29bab37e0003bf5de37763a66c401d20486c46e6906103af9042815260200190565b336106d07f9016d09d72d40fdae2fd8ceac6b6234c7706214fd39c1cd1e609a0528c199300546001600160a01b031690565b6001600160a01b03161461041d5760405163118cdaa760e01b81523360048201526024016102ac565b7f9016d09d72d40fdae2fd8ceac6b6234c7706214fd39c1cd1e609a0528c19930080546001600160a01b031981166001600160a01b03848116918217845560405192169182907f8be0079c531659141344cd1fd0a4f28419497f9722a3daafe3b4186f6b6457e0905f90a3505050565b61077161077a565b6105db816107c3565b7ff0c57e16840df040f15088dc2f81fe391c3923bec73e23a9662efc9c229c6a0054600160401b900460ff1661041d57604051631afcd79f60e31b815260040160405180910390fd5b6105a961077a565b602080825282518282018190525f9190848201906040850190845b8181101561080b5783516001600160a01b0316835292840192918401916001016107e6565b50909695505050505050565b5f60208284031215610827575f80fd5b81356001600160a01b038116811461083d575f80fd5b9392505050565b5f60208284031215610854575f80fd5b503591905056fea26469706673582212208838cc3aa5700d3ea98f89e9ebf864708e3ddd28822cf75f856d449907d5dbfa64736f6c63430008160033","linkReferences":{}},"methodIdentifiers":{"allContracts(uint256)":"e54e26b9","emergencyPause()":"51858e27","emergencyPaused()":"27c830a9","emergencyResume()":"93c87f03","getAllContracts()":"18d3ce96","initialize(address)":"c4d66de8","isEmergencyPaused()":"290d10c4","owner()":"8da5cb5b","registerContract(address)":"22a5dde4","registeredContracts(address)":"a06617cd","renounceOwnership()":"715018a6","transferOwnership(address)":"f2fde38b","unregisterContract(address)":"fac2c621"},"storageLayout":{"storage":[{"astId":11547,"contract":"contracts/modules/treasury/EmergencyManager.sol:EmergencyManager","label":"emergencyPaused","offset":0,"slot":"0","type":"t_bool"},{"astId":11551,"contract":"contracts/modules/treasury/EmergencyManager.sol:EmergencyManager","label":"registeredContracts","offset":0,"slot":"1","type":"t_mapping(t_address,t_bool)"},{"astId":11554,"contract":"contracts/modules/treasury/EmergencyManager.sol:EmergencyManager","label":"allContracts","offset":0,"slot":"2","type":"t_array(t_address)dyn_storage"}],"types":{"t_address":{"encoding":"inplace","label":"address","numberOfBytes":"20"},"t_array(t_address)dyn_storage":{"encoding":"dynamic_array","label":"address[]","numberOfBytes":"32","base":"t_address"},"t_bool":{"encoding":"inplace","label":"bool","numberOfBytes":"1"},"t_mapping(t_address,t_bool)":{"encoding":"mapping","key":"t_address","label":"mapping(address => bool)","numberOfBytes":"32","value":"t_bool"}}},"id":13}