{"abi":[{"type":"constructor","inputs":[],"stateMutability":"nonpayable"},{"type":"function","name":"allGames","inputs":[{"name":"","type":"uint256","internalType":"uint256"}],"outputs":[{"name":"","type":"address","internalType":"address"}],"stateMutability":"view"},{"type":"function","name":"createGame","inputs":[{"name":"gameType","type":"uint8","internalType":"enum GameFactory.GameType"}],"outputs":[{"name":"","type":"address","internalType":"address"}],"stateMutability":"nonpayable"},{"type":"function","name":"deactivateGame","inputs":[{"name":"gameAddress","type":"address","internalType":"address"}],"outputs":[],"stateMutability":"nonpayable"},{"type":"function","name":"fundsDistributor","inputs":[],"outputs":[{"name":"","type":"address","internalType":"address"}],"stateMutability":"view"},{"type":"function","name":"games","inputs":[{"name":"","type":"address","internalType":"address"}],"outputs":[{"name":"gameAddress","type":"address","internalType":"address"},{"name":"gameType","type":"uint8","internalType":"enum GameFactory.GameType"},{"name":"isActive","type":"bool","internalType":"bool"},{"name":"createdAt","type":"uint256","internalType":"uint256"}],"stateMutability":"view"},{"type":"function","name":"getActiveGames","inputs":[],"outputs":[{"name":"","type":"address[]","internalType":"address[]"}],"stateMutability":"view"},{"type":"function","name":"getAllGames","inputs":[],"outputs":[{"name":"","type":"address[]","internalType":"address[]"}],"stateMutability":"view"},{"type":"function","name":"getGameCount","inputs":[],"outputs":[{"name":"","type":"uint256","internalType":"uint256"}],"stateMutability":"view"},{"type":"function","name":"getGameInfo","inputs":[{"name":"gameAddress","type":"address","internalType":"address"}],"outputs":[{"name":"","type":"tuple","internalType":"struct GameFactory.GameInfo","components":[{"name":"gameAddress","type":"address","internalType":"address"},{"name":"gameType","type":"uint8","internalType":"enum GameFactory.GameType"},{"name":"isActive","type":"bool","internalType":"bool"},{"name":"createdAt","type":"uint256","internalType":"uint256"}]}],"stateMutability":"view"},{"type":"function","name":"getGamesByType","inputs":[{"name":"gameType","type":"string","internalType":"string"}],"outputs":[{"name":"","type":"address[]","internalType":"address[]"}],"stateMutability":"view"},{"type":"function","name":"initialize","inputs":[{"name":"owner","type":"address","internalType":"address"},{"name":"ownableContract","type":"address","internalType":"address"},{"name":"statsContract","type":"address","internalType":"address"},{"name":"referralContract","type":"address","internalType":"address"},{"name":"distributor","type":"address","internalType":"address"},{"name":"_oneDayImplementation","type":"address","internalType":"address"},{"name":"_sevenDaysImplementation","type":"address","internalType":"address"},{"name":"_registryContract","type":"address","internalType":"address"}],"outputs":[],"stateMutability":"nonpayable"},{"type":"function","name":"oneDayImplementation","inputs":[],"outputs":[{"name":"","type":"address","internalType":"address"}],"stateMutability":"view"},{"type":"function","name":"ownable","inputs":[],"outputs":[{"name":"","type":"address","internalType":"contract IOwnable"}],"stateMutability":"view"},{"type":"function","name":"owner","inputs":[],"outputs":[{"name":"","type":"address","internalType":"address"}],"stateMutability":"view"},{"type":"function","name":"referralSystem","inputs":[],"outputs":[{"name":"","type":"address","internalType":"contract ICryptolottoReferral"}],"stateMutability":"view"},{"type":"function","name":"registry","inputs":[],"outputs":[{"name":"","type":"address","internalType":"address"}],"stateMutability":"view"},{"type":"function","name":"renounceOwnership","inputs":[],"outputs":[],"stateMutability":"nonpayable"},{"type":"function","name":"setImplementations","inputs":[{"name":"_oneDayImplementation","type":"address","internalType":"address"},{"name":"_sevenDaysImplementation","type":"address","internalType":"address"}],"outputs":[],"stateMutability":"nonpayable"},{"type":"function","name":"sevenDaysImplementation","inputs":[],"outputs":[{"name":"","type":"address","internalType":"address"}],"stateMutability":"view"},{"type":"function","name":"statsAggregator","inputs":[],"outputs":[{"name":"","type":"address","internalType":"contract ICryptolottoStatsAggregator"}],"stateMutability":"view"},{"type":"function","name":"transferOwnership","inputs":[{"name":"newOwner","type":"address","internalType":"address"}],"outputs":[],"stateMutability":"nonpayable"},{"type":"event","name":"GameCreated","inputs":[{"name":"gameAddress","type":"address","indexed":true,"internalType":"address"},{"name":"gameType","type":"uint8","indexed":false,"internalType":"enum GameFactory.GameType"},{"name":"timestamp","type":"uint256","indexed":false,"internalType":"uint256"}],"anonymous":false},{"type":"event","name":"GameDeactivated","inputs":[{"name":"gameAddress","type":"address","indexed":true,"internalType":"address"},{"name":"timestamp","type":"uint256","indexed":false,"internalType":"uint256"}],"anonymous":false},{"type":"event","name":"Initialized","inputs":[{"name":"version","type":"uint64","indexed":false,"internalType":"uint64"}],"anonymous":false},{"type":"event","name":"OwnershipTransferred","inputs":[{"name":"previousOwner","type":"address","indexed":true,"internalType":"address"},{"name":"newOwner","type":"address","indexed":true,"internalType":"address"}],"anonymous":false},{"type":"error","name":"InvalidInitialization","inputs":[]},{"type":"error","name":"NotInitializing","inputs":[]},{"type":"error","name":"OwnableInvalidOwner","inputs":[{"name":"owner","type":"address","internalType":"address"}]},{"type":"error","name":"OwnableUnauthorizedAccount","inputs":[{"name":"account","type":"address","internalType":"address"}]}],"bytecode":{"object":"0x608080604052346100b8577ff0c57e16840df040f15088dc2f81fe391c3923bec73e23a9662efc9c229c6a009081549060ff8260401c166100a957506001600160401b036002600160401b031982821601610064575b60405161171590816100bd8239f35b6001600160401b031990911681179091556040519081527fc7f505b2f371ae2175ee4913f4499e1f2633a7b5936321eed1cdaeb6115181d290602090a15f8080610055565b63f92ee8a960e01b8152600490fd5b5f80fdfe608080604052600436101562000013575f80fd5b5f905f3560e01c9081630ea901d21462000f92575080631b76929c1462000e865780634b01a9571462000e5c5780636baf01ce1462000d27578063715018a61462000cbb578063749a1ab71462000bfa57806374cb55fb1462000bd057806379131a191462000b655780637b1039991462000b3b57806385bff3411462000adc5780638a29e2de14620006175780638da5cb5b14620005df578063a04e876c14620005b4578063a0b55095146200056b578063b38854be1462000540578063bcfc40e71462000515578063be14462b14620004ea578063db1c45f9146200046d578063e580f6ab1462000172578063e87c0ee614620001525763f2fde38b146200011b575f80fd5b346200014f5760203660031901126200014f576200014c6200013c62001058565b6200014662001306565b62001293565b80f35b80fd5b50346200014f57806003193601126200014f576020600154604051908152f35b50346200014f57602090816003193601126200014f57600435600281101562000469576200019f62001306565b80620003945760018060a01b038060025416620001fb826005541691620001ec8460035416856004541686600654169160405196879563485cc95560e01b8d880152336024880162001340565b03601f19810183528262001120565b816007541690604051916102c88084019084821067ffffffffffffffff8311176200038057918493916200023593620013d8863962001380565b039084f080156200037557165b604051926200025184620010e6565b6001600160a01b03918216808552938581016200026f85826200118d565b604082019060018252606083019142835287855284895285604086209451168454925191600283101562000361575160a09290921b60ff60a01b166001600160b01b0319909316179190911790151560a81b60ff60a81b16178255516001918201555490680100000000000000008210156200034d575083927f2318708b46ac4b580059f063544ac9a9b0d23a88d31fc726fbcc0d65e49a4bb2926200031e8360016040950160015562001143565b819291549060031b9187831b921b19161790556200033f8251809262001086565b4286820152a2604051908152f35b634e487b7160e01b81526041600452602490fd5b634e487b7160e01b87526021600452602487fd5b6040513d85823e3d90fd5b634e487b7160e01b88526041600452602488fd5b60018103620004305760018060a01b038060025416620003e4826005541691620001ec8460035416856004541686600654169160405196879563485cc95560e01b8d880152336024880162001340565b816008541690604051916102c88084019084821067ffffffffffffffff8311176200038057918493916200041e93620013d8863962001380565b039084f0801562000375571662000242565b60405162461bcd60e51b8152600481018490526011602482015270496e76616c69642067616d65207479706560781b6044820152606490fd5b5080fd5b50346200014f57806003193601126200014f576001906001546200049181620011d6565b915b818110620004b75760405160208082528190620004b390820186620010a8565b0390f35b80620004c4859262001143565b905460039190911b1c6001600160a01b0316620004e282866200123e565b520162000493565b50346200014f57806003193601126200014f576003546040516001600160a01b039091168152602090f35b50346200014f57806003193601126200014f576008546040516001600160a01b039091168152602090f35b50346200014f57806003193601126200014f576002546040516001600160a01b039091168152602090f35b50346200014f5760203660031901126200014f57600435906001548210156200014f5760206200059b8362001143565b905460405160039290921b1c6001600160a01b03168152f35b50346200014f57806003193601126200014f576004546040516001600160a01b039091168152602090f35b50346200014f57806003193601126200014f575f80516020620016a0833981519152546040516001600160a01b039091168152602090f35b503462000a725761010036600319011262000a72576200063662001058565b620006406200106f565b90604435906001600160a01b038216820362000a7257606435936001600160a01b038516850362000a7257608435936001600160a01b038516850362000a725760a4356001600160a01b038116810362000a725760c435906001600160a01b038216820362000a725760e435966001600160a01b038816880362000a72575f80516020620016c0833981519152549567ffffffffffffffff87168015908162000acb575b600114908162000ac0575b15908162000ab6575b5062000aa4576200074490600167ffffffffffffffff198916175f80516020620016c08339815191525560ff8860401c161562000a76575b6200073a620013a7565b62000146620013a7565b600280546001600160a01b03199081166001600160a01b03968716179091556003805482168987161790556004805482168b87161790556005805482169286169290921790915560078054821692851692909217909155600880548216928416929092179091556006805490911691861691909117905560405191620007ca83620010e6565b600383526020955f5b606080821015620007ec578582018901528701620007d3565b50508587939486604051620008018162001103565b600f81526e2a3932b0b9bab93ca6b0b730b3b2b960891b8782015262000827836200120e565b5262000833826200120e565b50604051620008428162001103565b601381527210dc9e5c1d1bdb1bdd1d1bd49959995c9c985b606a1b878201526200086c836200121c565b5262000878826200121c565b50604051620008878162001103565b600f81526e29ba30ba39a0b3b3b932b3b0ba37b960891b87820152620008ad836200122d565b52620008b9826200122d565b5060405193620008c985620010e6565b60038552606036888701375f620008e0866200120e565b526001600160a01b0316620008f5856200121c565b526001600160a01b03166200090a846200122d565b526001600160a01b0382163b1562000a7257916040519283916308316c3f60e11b83526044830160406004850152825180915260648401908860648260051b8701019401915f905b8a83831062000a405750505050505f836200097d8296948294600319848303016024850152620010a8565b03926001600160a01b03165af1801562000a355762000a01575b5060401c60ff1615620009a8575080f35b7fc7f505b2f371ae2175ee4913f4499e1f2633a7b5936321eed1cdaeb6115181d29068ff0000000000000000195f80516020620016c083398151915254165f80516020620016c08339815191525560405160018152a180f35b90925067ffffffffffffffff811162000a21576040525f9160ff62000997565b634e487b7160e01b5f52604160045260245ffd5b6040513d5f823e3d90fd5b60019294975062000a6081929496976063198c8203018652895162001253565b97019201920187959493919262000952565b5f80fd5b68ffffffffffffffffff19881668010000000000000001175f80516020620016c08339815191525562000730565b60405163f92ee8a960e01b8152600490fd5b9050155f620006f8565b303b159150620006ef565b604089901c60ff16159150620006e4565b3462000a7257604036600319011262000a725762000af962001058565b62000b036200106f565b62000b0d62001306565b600780546001600160a01b039384166001600160a01b03199182161790915560088054929093169116179055005b3462000a72575f36600319011262000a72576006546040516001600160a01b039091168152602090f35b3462000a7257602036600319011262000a725760806001600160a01b038062000b8d62001058565b165f525f60205260405f2060ff6001825492015491604051938116845262000bbe60208501838360a01c1662001086565b60a81c16151560408301526060820152f35b3462000a72575f36600319011262000a72576005546040516001600160a01b039091168152602090f35b3462000a7257602036600319011262000a725762000c1762001058565b62000c2162001306565b6001600160a01b039081165f818152602081905260409020549091161562000c8557805f525f60205260405f2060ff60a81b1981541690557f5275fcb28483877f4844b7854fc49b95a572f43730c5cb369bff46517e8465386020604051428152a2005b60405162461bcd60e51b815260206004820152600e60248201526d11d85b59481b9bdd08199bdd5b9960921b6044820152606490fd5b3462000a72575f36600319011262000a725762000cd762001306565b5f80516020620016a083398151915280546001600160a01b031981169091555f906001600160a01b03167f8be0079c531659141344cd1fd0a4f28419497f9722a3daafe3b4186f6b6457e08280a3005b3462000a725760208060031936011262000a725767ffffffffffffffff60043581811162000a72573660238201121562000a7257806004013591821162000a21576040519162000d81601f8201601f191685018462001120565b808352366024828401011162000a72575f92816024869401848301370101526001906001549162000db283620011d6565b925f905f905b8381831062000e1b5750505062000dcf81620011d6565b935f5b82811062000def5760405185815280620004b381880189620010a8565b83906001600160a01b0362000e0582856200123e565b511662000e1382896200123e565b520162000dd2565b90919262000e539062000e2e8562001143565b905460039190911b1c6001600160a01b031662000e4c828a6200123e565b526200119a565b92019062000db8565b3462000a72575f36600319011262000a72576007546040516001600160a01b039091168152602090f35b3462000a72575f36600319011262000a7257600180545f82815b83811062000f4557505062000eb590620011d6565b905f805b82811062000ed95760405160208082528190620004b390820187620010a8565b8062000ee6869262001143565b60018060a01b03809254600392831b1c165f525f60205260ff60405f205460a81c1662000f17575b50500162000eb9565b9082949162000f2a62000f3c9462001143565b9054911b1c1662000e4c82886200123e565b91868062000f0e565b62000f508162001143565b60018060a01b0391549060031b1c165f525f60205260ff60405f205460a81c1662000f7f575b01839062000ea0565b9162000f8b906200119a565b9162000f76565b3462000a7257602036600319011262000a72576080905f606062000fb562001058565b9262000fc181620010e6565b828152826020820152826040820152015260018060a01b038091165f525f60205260405f20906040519162000ff683620010e6565b620010488154918383168552600160208601916200101b60ff8660a01c16846200118d565b60ff604088019560a81c161515855201549360608601948552604051955116855251602085019062001086565b5115156040830152516060820152f35b600435906001600160a01b038216820362000a7257565b602435906001600160a01b038216820362000a7257565b906002821015620010945752565b634e487b7160e01b5f52602160045260245ffd5b9081518082526020808093019301915f5b828110620010c8575050505090565b83516001600160a01b031685529381019392810192600101620010b9565b6080810190811067ffffffffffffffff82111762000a2157604052565b6040810190811067ffffffffffffffff82111762000a2157604052565b90601f8019910116810190811067ffffffffffffffff82111762000a2157604052565b600154811015620011795760015f527fb10e2d527612073b26eecdfd717e6a320cf44b4afac2b0732d9fcbe2b7fa0cf601905f90565b634e487b7160e01b5f52603260045260245ffd5b6002821015620010945752565b5f198114620011a95760010190565b634e487b7160e01b5f52601160045260245ffd5b67ffffffffffffffff811162000a215760051b60200190565b90620011e282620011bd565b620011f1604051918262001120565b828152809262001204601f1991620011bd565b0190602036910137565b805115620011795760200190565b805160011015620011795760400190565b805160021015620011795760600190565b8051821015620011795760209160051b010190565b91908251928382525f5b8481106200127e575050825f602080949584010152601f8019910116010190565b6020818301810151848301820152016200125d565b6001600160a01b03908116908115620012ee575f80516020620016a083398151915280546001600160a01b031981168417909155167f8be0079c531659141344cd1fd0a4f28419497f9722a3daafe3b4186f6b6457e05f80a3565b604051631e4fbdf760e01b81525f6004820152602490fd5b5f80516020620016a0833981519152546001600160a01b031633036200132857565b60405163118cdaa760e01b8152336004820152602490fd5b6001600160a01b03918216815291811660208301529182166040820152918116606083015291821660808201525f60a0820152911660c082015260e00190565b6001600160a01b039091168152604060208201819052620013a49291019062001253565b90565b60ff5f80516020620016c08339815191525460401c1615620013c557565b604051631afcd79f60e31b8152600490fdfe60806040526102c8803803806100148161018e565b92833981019060408183031261018a5780516001600160a01b03811680820361018a5760208381015190936001600160401b03821161018a570184601f8201121561018a5780519061006d610068836101c7565b61018e565b9582875285838301011161018a5784905f5b8381106101765750505f9186010152813b1561015e577f360894a13ba1a3210667c828492db98dca3e2076cc3735a920a3ca505d382bbc80546001600160a01b03191682179055604051907fbc7cd75a20ee27fd9adebab32041f755214dbc6bffa90cc0225b39da2e5c2d3b5f80a283511561014057505f80848461012796519101845af4903d15610137573d610118610068826101c7565b9081525f81943d92013e6101e2565b505b604051608290816102468239f35b606092506101e2565b925050503461014f5750610129565b63b398979f60e01b8152600490fd5b60249060405190634c9c8ce360e01b82526004820152fd5b81810183015188820184015286920161007f565b5f80fd5b6040519190601f01601f191682016001600160401b038111838210176101b357604052565b634e487b7160e01b5f52604160045260245ffd5b6001600160401b0381116101b357601f01601f191660200190565b9061020957508051156101f757602081519101fd5b60405163d6bda27560e01b8152600490fd5b8151158061023c575b61021a575090565b604051639996b31560e01b81526001600160a01b039091166004820152602490fd5b50803b1561021256fe60806040527f360894a13ba1a3210667c828492db98dca3e2076cc3735a920a3ca505d382bbc545f9081906001600160a01b0316368280378136915af43d5f803e156048573d5ff35b3d5ffdfea26469706673582212202ea87594e6db5dbe552a5df04461ab4d6e81dd7abc6eafc0d55f438c998a8df864736f6c634300081600339016d09d72d40fdae2fd8ceac6b6234c7706214fd39c1cd1e609a0528c199300f0c57e16840df040f15088dc2f81fe391c3923bec73e23a9662efc9c229c6a00a2646970667358221220d1374917c143a82e34bf29013d34daa237b1e028bdc925320d3bcca5f6d8e81464736f6c63430008160033","linkReferences":{}},"methodIdentifiers":{"allGames(uint256)":"a0b55095","createGame(uint8)":"e580f6ab","deactivateGame(address)":"749a1ab7","fundsDistributor()":"74cb55fb","games(address)":"79131a19","getActiveGames()":"1b76929c","getAllGames()":"db1c45f9","getGameCount()":"e87c0ee6","getGameInfo(address)":"0ea901d2","getGamesByType(string)":"6baf01ce","initialize(address,address,address,address,address,address,address,address)":"8a29e2de","oneDayImplementation()":"4b01a957","ownable()":"b38854be","owner()":"8da5cb5b","referralSystem()":"a04e876c","registry()":"7b103999","renounceOwnership()":"715018a6","setImplementations(address,address)":"85bff341","sevenDaysImplementation()":"bcfc40e7","statsAggregator()":"be14462b","transferOwnership(address)":"f2fde38b"},"id":1}