{"abi":[{"type":"constructor","inputs":[],"stateMutability":"nonpayable"},{"type":"function","name":"allGames","inputs":[{"name":"","type":"uint256","internalType":"uint256"}],"outputs":[{"name":"","type":"address","internalType":"address"}],"stateMutability":"view"},{"type":"function","name":"createGame","inputs":[{"name":"gameType","type":"uint8","internalType":"enum GameFactory.GameType"}],"outputs":[{"name":"","type":"address","internalType":"address"}],"stateMutability":"nonpayable"},{"type":"function","name":"deactivateGame","inputs":[{"name":"gameAddress","type":"address","internalType":"address"}],"outputs":[],"stateMutability":"nonpayable"},{"type":"function","name":"fundsDistributor","inputs":[],"outputs":[{"name":"","type":"address","internalType":"address"}],"stateMutability":"view"},{"type":"function","name":"games","inputs":[{"name":"","type":"address","internalType":"address"}],"outputs":[{"name":"gameAddress","type":"address","internalType":"address"},{"name":"gameType","type":"uint8","internalType":"enum GameFactory.GameType"},{"name":"isActive","type":"bool","internalType":"bool"},{"name":"createdAt","type":"uint256","internalType":"uint256"}],"stateMutability":"view"},{"type":"function","name":"getActiveGames","inputs":[],"outputs":[{"name":"","type":"address[]","internalType":"address[]"}],"stateMutability":"view"},{"type":"function","name":"getGameInfo","inputs":[{"name":"gameAddress","type":"address","internalType":"address"}],"outputs":[{"name":"","type":"tuple","internalType":"struct GameFactory.GameInfo","components":[{"name":"gameAddress","type":"address","internalType":"address"},{"name":"gameType","type":"uint8","internalType":"enum GameFactory.GameType"},{"name":"isActive","type":"bool","internalType":"bool"},{"name":"createdAt","type":"uint256","internalType":"uint256"}]}],"stateMutability":"view"},{"type":"function","name":"initialize","inputs":[{"name":"owner","type":"address","internalType":"address"},{"name":"ownableContract","type":"address","internalType":"address"},{"name":"statsContract","type":"address","internalType":"address"},{"name":"referralContract","type":"address","internalType":"address"},{"name":"distributor","type":"address","internalType":"address"}],"outputs":[],"stateMutability":"nonpayable"},{"type":"function","name":"ownable","inputs":[],"outputs":[{"name":"","type":"address","internalType":"contract IOwnable"}],"stateMutability":"view"},{"type":"function","name":"owner","inputs":[],"outputs":[{"name":"","type":"address","internalType":"address"}],"stateMutability":"view"},{"type":"function","name":"referralSystem","inputs":[],"outputs":[{"name":"","type":"address","internalType":"contract ICryptolottoReferral"}],"stateMutability":"view"},{"type":"function","name":"renounceOwnership","inputs":[],"outputs":[],"stateMutability":"nonpayable"},{"type":"function","name":"statsAggregator","inputs":[],"outputs":[{"name":"","type":"address","internalType":"contract ICryptolottoStatsAggregator"}],"stateMutability":"view"},{"type":"function","name":"transferOwnership","inputs":[{"name":"newOwner","type":"address","internalType":"address"}],"outputs":[],"stateMutability":"nonpayable"},{"type":"event","name":"GameCreated","inputs":[{"name":"gameAddress","type":"address","indexed":true,"internalType":"address"},{"name":"gameType","type":"uint8","indexed":false,"internalType":"enum GameFactory.GameType"},{"name":"timestamp","type":"uint256","indexed":false,"internalType":"uint256"}],"anonymous":false},{"type":"event","name":"GameDeactivated","inputs":[{"name":"gameAddress","type":"address","indexed":true,"internalType":"address"},{"name":"timestamp","type":"uint256","indexed":false,"internalType":"uint256"}],"anonymous":false},{"type":"event","name":"Initialized","inputs":[{"name":"version","type":"uint64","indexed":false,"internalType":"uint64"}],"anonymous":false},{"type":"event","name":"OwnershipTransferred","inputs":[{"name":"previousOwner","type":"address","indexed":true,"internalType":"address"},{"name":"newOwner","type":"address","indexed":true,"internalType":"address"}],"anonymous":false},{"type":"error","name":"InvalidInitialization","inputs":[]},{"type":"error","name":"NotInitializing","inputs":[]},{"type":"error","name":"OwnableInvalidOwner","inputs":[{"name":"owner","type":"address","internalType":"address"}]},{"type":"error","name":"OwnableUnauthorizedAccount","inputs":[{"name":"account","type":"address","internalType":"address"}]}],"bytecode":{"object":"0x608080604052346100b8577ff0c57e16840df040f15088dc2f81fe391c3923bec73e23a9662efc9c229c6a009081549060ff8260401c166100a957506001600160401b036002600160401b031982821601610064575b6040516186e290816100bd8239f35b6001600160401b031990911681179091556040519081527fc7f505b2f371ae2175ee4913f4499e1f2633a7b5936321eed1cdaeb6115181d290602090a15f8080610055565b63f92ee8a960e01b8152600490fd5b5f80fdfe6080604081815260048036101562000015575f80fd5b5f3560e01c9283630ea901d21462000a61575082631459457a14620008af5782631b76929c1462000718578263715018a614620006ac578263749a1ab714620005ef57826374cb55fb14620005c557826379131a1914620005595782638da5cb5b1462000522578263a04e876c14620004f9578263a0b5509514620004b6578263b38854be146200048c578263be14462b1462000462578263e580f6ab146200010057505063f2fde38b14620000c9575f80fd5b34620000fc576020366003190112620000fc57620000fa620000ea62000b22565b620000f462000cb5565b62000c42565b005b5f80fd5b34620000fc5760209182600319360112620000fc5781356002811015620000fc576200012b62000cb5565b806200035a578151613bb19081810167ffffffffffffffff9282821084831117620003475790829162000d8c833903905ff080156200032a576002546005546003548754875163cc2a9a5b60e01b818c01523360248201526001600160a01b03948516604482015292841660648401529083166084830152821660a48201529092620001c58260c481015b03601f19810184528362000bd6565b8551926102c88085019283118584101762000334579185859492620001f294620083c58739169062000cef565b03905ff080156200032a57165b8251936200020d8562000ba5565b6001600160a01b03918216808652948681016200022b858262000bf9565b85820190600182526060830191428352885f525f8a5285885f209451168454925191600283101562000317575160a09290921b60ff60a01b166001600160b01b0319909316179190911790151560a81b60ff60a81b161782555160019182015554906801000000000000000082101562000304575084927f2318708b46ac4b580059f063544ac9a9b0d23a88d31fc726fbcc0d65e49a4bb292620002d783600188950160015562000b5b565b819291549060031b9187831b921b1916179055620002f88251809262000b39565b4287820152a251908152f35b604190634e487b7160e01b5f525260245ffd5b602187634e487b7160e01b5f525260245ffd5b83513d5f823e3d90fd5b604189634e487b7160e01b5f525260245ffd5b604187634e487b7160e01b5f525260245ffd5b600181036200042c578151613a889081810167ffffffffffffffff928282108483111762000347579082916200493d833903905ff080156200032a576002546005546003548754875163cc2a9a5b60e01b818c01523360248201526001600160a01b03948516604482015292841660648401529083166084830152821660a48201529092620003ed8260c48101620001b6565b8551926102c880850192831185841017620003345791858594926200041a94620083c58739169062000cef565b03905ff080156200032a5716620001ff565b5091606492519162461bcd60e51b83528201526011602482015270496e76616c69642067616d65207479706560781b6044820152fd5b5034620000fc575f366003190112620000fc5760035490516001600160a01b039091168152602090f35b5034620000fc575f366003190112620000fc5760025490516001600160a01b039091168152602090f35b34620000fc576020366003190112620000fc573590600154821015620000fc57620004e360209262000b5b565b905491519160018060a01b039160031b1c168152f35b9034620000fc575f366003190112620000fc57905490516001600160a01b039091168152602090f35b5034620000fc575f366003190112620000fc575f805160206200868d8339815191525490516001600160a01b039091168152602090f35b5034620000fc576020366003190112620000fc576080906001600160a01b0390816200058462000b22565b165f525f602052805f209060ff600183549301549282519481168552620005b460208601838360a01c1662000b39565b60a81c161515908301526060820152f35b5034620000fc575f366003190112620000fc5760055490516001600160a01b039091168152602090f35b9034620000fc576020366003190112620000fc576200060d62000b22565b916200061862000cb5565b6001600160a01b039283165f8181526020819052839020549093161562000679575060207f5275fcb28483877f4844b7854fc49b95a572f43730c5cb369bff46517e84653891835f525f8252805f2060ff60a81b19815416905551428152a2005b6020606492519162461bcd60e51b8352820152600e60248201526d11d85b59481b9bdd08199bdd5b9960921b6044820152fd5b34620000fc575f366003190112620000fc57620006c862000cb5565b5f805160206200868d83398151915280546001600160a01b031981169091555f906001600160a01b03167f8be0079c531659141344cd1fd0a4f28419497f9722a3daafe3b4186f6b6457e08280a3005b9034620000fc575f366003190112620000fc57600180545f805b828110620008585750620007626200074a8262000c29565b91620007598651938462000bd6565b80835262000c29565b9460209283830196601f19013688375f805b828110620007bf57505050508351938285019183865251809252840194915f5b828110620007a25785870386f35b83516001600160a01b031687529581019592810192840162000794565b9586620007d1829a9897969762000b5b565b60018060a01b03809254600392831b1c165f525f885260ff8b5f205460a81c1662000806575b50500197959794939462000774565b9091939250620008168462000b5b565b9054911b1c1686518210156200084557816200083c91878c9460051b8a01015262000c06565b918a80620007f7565b603285634e487b7160e01b5f525260245ffd5b92836200086a82979594939462000b5b565b60018060a01b0391549060031b1c165f525f60205260ff865f205460a81c166200089c575b0194929491909162000732565b92620008a89062000c06565b926200088f565b34620000fc5760a0366003190112620000fc57620008cc62000b22565b6001600160a01b0360243581811690819003620000fc5760443593828516809503620000fc57606435838116809103620000fc57608435938416809403620000fc577ff0c57e16840df040f15088dc2f81fe391c3923bec73e23a9662efc9c229c6a009586549560ff878a1c16159667ffffffffffffffff81168015908162000a58575b600114908162000a4d575b15908162000a43575b5062000a335767ffffffffffffffff19811660011789556200099d91908862000a13575b506200099362000d49565b620000f462000d49565b6bffffffffffffffffffffffff60a01b93846002541617600255836003541617600355828254161790556005541617600555620009d657005b805468ff00000000000000001916905551600181527fc7f505b2f371ae2175ee4913f4499e1f2633a7b5936321eed1cdaeb6115181d290602090a1005b68ffffffffffffffffff1916680100000000000000011789558a62000988565b895163f92ee8a960e01b81528590fd5b9050158b62000964565b303b1591506200095b565b89915062000950565b8234620000fc576020366003190112620000fc576080915f606062000a8562000b22565b9262000a918162000ba5565b8281528260208201528285820152015260018060a01b038091165f525f602052815f209180519262000ac38462000ba5565b62000b1381549184831686526001602087019162000ae860ff8660a01c168462000bf9565b60ff8689019560a81c1615158552015494606087019586528451965116865251602086019062000b39565b51151590830152516060820152f35b600435906001600160a01b0382168203620000fc57565b90600282101562000b475752565b634e487b7160e01b5f52602160045260245ffd5b60015481101562000b915760015f527fb10e2d527612073b26eecdfd717e6a320cf44b4afac2b0732d9fcbe2b7fa0cf601905f90565b634e487b7160e01b5f52603260045260245ffd5b6080810190811067ffffffffffffffff82111762000bc257604052565b634e487b7160e01b5f52604160045260245ffd5b90601f8019910116810190811067ffffffffffffffff82111762000bc257604052565b600282101562000b475752565b5f19811462000c155760010190565b634e487b7160e01b5f52601160045260245ffd5b67ffffffffffffffff811162000bc25760051b60200190565b6001600160a01b0390811690811562000c9d575f805160206200868d83398151915280546001600160a01b031981168417909155167f8be0079c531659141344cd1fd0a4f28419497f9722a3daafe3b4186f6b6457e05f80a3565b604051631e4fbdf760e01b81525f6004820152602490fd5b5f805160206200868d833981519152546001600160a01b0316330362000cd757565b60405163118cdaa760e01b8152336004820152602490fd5b6001600160a01b03909116815260406020808301829052835191830182905293925f5b82811062000d3457505060609293505f838284010152601f8019910116010190565b81810186015184820160600152850162000d12565b60ff7ff0c57e16840df040f15088dc2f81fe391c3923bec73e23a9662efc9c229c6a005460401c161562000d7957565b604051631afcd79f60e31b8152600490fdfe60a08060405234620000d157306080527ff0c57e16840df040f15088dc2f81fe391c3923bec73e23a9662efc9c229c6a009081549060ff8260401c16620000c257506001600160401b036002600160401b0319828216016200007c575b604051613adb9081620000d68239608051818181611e660152611fea0152f35b6001600160401b031990911681179091556040519081527fc7f505b2f371ae2175ee4913f4499e1f2633a7b5936321eed1cdaeb6115181d290602090a15f80806200005c565b63f92ee8a960e01b8152600490fd5b5f80fdfe6080806040526004361015610028575b5036156100205761001e612a43565b005b61001e612a43565b5f905f3560e01c908163077e829d1461264b575080630d8c1a621461258b5780631209b1f61461256e57806315981650146124af57806316521a2b146124915780631746bd1b146124395780631a89a43b1461240157806322f3e2d4146123df5780632ef5c784146123c257806337a78361146122de5780633cea70d9146122b65780634630a0ee146121b357806347ddf87e146121965780634f1ef28614611f6f57806350e1a19b14611f4057806351858e2714611eed57806351df9db914611ed057806352d1902d14611e5457806353b7acdf14611d7657806360b663bb14611d3f5780636244480114611d1d578063650b147d14611d0057806366a5ef2f146117f05780636f9fb98a146117d4578063715018a61461176b57806374796cc21461174c57806374cb55fb146117235780637d96ea96146117055780637fd60e42146116da57806385b75b1e146116b45780638897c1f4146115c65780638b235f191461158f5780638da5cb5b1461155a57806393c87f0314611501578063a46d11dc146114e1578063a5f8cdbb14610ece578063a645e84014610e96578063a7ea9a6014610e71578063ad3cb1cc14610e2b578063b38854be14610e02578063bf77e7c814610de1578063bfebf53014610d5a578063c293947114610d14578063c3a151de14610cf6578063c6ab848a14610ccd578063c758f2f214610c54578063cb122a0914610bcd578063cc2a9a5b14610696578063cee3b9b91461065d578063cf4e593a1461063f578063d0b2dab514610621578063d1c45f381461058b578063d80528ae14610562578063db2e21bc1461049a578063ddca3f4314610477578063e1f0c37614610459578063ea135ad7146103a6578063f2fde38b14610379578063f83fd805146103515763fe47a9f20361000f573461034e57602036600319011261034e576102dd612665565b6102e5612f24565b6001600160a01b0316801561030a576001600160601b0360a01b601654161760165580f35b606460405162461bcd60e51b815260206004820152602060248201527f496e76616c6964207472656173757279206d616e6167657220616464726573736044820152fd5b80fd5b503461034e578060031936011261034e57602060ff600e54166103776040518092612800565bf35b503461034e57602036600319011261034e576103a3610396612665565b61039e612f24565b6129d2565b80f35b503461034e578060031936011261034e576040518091600f549081835260208093018092600f83525f80516020613a8683398151915290835b81811061043c57505050846103f5910385612713565b60405193838594850191818652518092526040850193925b82811061041c57505050500390f35b83516001600160a01b03168552869550938101939281019260010161040d565b82546001600160a01b0316845292860192600192830192016103df565b503461034e578060031936011261034e576020600154604051908152f35b503461034e578060031936011261034e5760ff6020915460081c16604051908152f35b503461034e578060031936011261034e576104b3612f24565b478015610526575f80516020613a468339815191525482918291829182916001600160a01b03165af16104e46129a3565b50156104ed5780f35b60405162461bcd60e51b815260206004820152601160248201527015da5d1a191c985dd85b0819985a5b1959607a1b6044820152606490fd5b60405162461bcd60e51b81526020600482015260146024820152734e6f2066756e647320746f20776974686472617760601b6044820152606490fd5b503461034e578060031936011261034e576013546040516001600160a01b039091168152602090f35b503461034e57602036600319011261034e576105a5612665565b6105ad612f24565b6001600160a01b031680156105d2576001600160601b0360a01b601454161760145580f35b60405162461bcd60e51b815260206004820152602160248201527f496e76616c696420726566657272616c20696e7374616e6365206164647265736044820152607360f81b6064820152608490fd5b503461034e578060031936011261034e576020601054604051908152f35b503461034e578060031936011261034e576020600c54604051908152f35b503461034e57602036600319011261034e576020906040906001600160a01b03610685612665565b168152601183522054604051908152f35b503461034e5760c036600319011261034e576106b0612665565b906001600160a01b0360248035828116939290849003610bc95760443591818316809303610bc95760643593828516809503610bc95760843593838516809503610bc95760a435848116809103610bc9577ff0c57e16840df040f15088dc2f81fe391c3923bec73e23a9662efc9c229c6a009788549660ff8860401c16159867ffffffffffffffff988981169c8d1580610bc2575b60019e8f149081610bb8575b159081610baf575b50610b9d5767ffffffffffffffff1982168e178d55610791918c610b7e575b506107816135a5565b6107896135a5565b61039e6135a5565b6107996135a5565b6107a16135a5565b6107a96135a5565b8b5f80516020613a6683398151915255610a0461ffff19875416178655620151808c5566470de4df820000600255606460045560ff19948c8660085416176008556001600160601b0360a01b93846012541617601255836015541617601555826013541617601355816014541617601455610822612751565b805190888211610b6b5781906108396017546127c8565b601f8111610b12575b50602090601f8311600114610a8a578792610a7f575b50505f19600383901b1c1916908b1b176017555b8115610a3b5760165416176016556108858854426128ed565b9160405192610893846126f7565b81845260c06040516108a4816126a3565b8b81524260208201528260408201528360608201528360808201528b60a0820152019384528960095542600a55600b5580600c558080600d55610a2857508790600e541617600e5551908151938411610a1557600160401b8411610a155750602090600f5484600f558085106109f2575b500190600f5f52855f5b8481106109d057508585600b54601055600954807fa2dfaa3573b86004ec9d4d4abe5068d942579c59da4da8cd0d9e45e71a393bc16020604051428152a27f46e59b25850fb5875ea16cb7de4c6866327eef1a3f4ff23c27b3c5ad811979dd60408051868152426020820152a261099257005b805468ff0000000000000000191690556040519081527fc7f505b2f371ae2175ee4913f4499e1f2633a7b5936321eed1cdaeb6115181d290602090a1005b602083855116940193815f80516020613a86833981519152015501869061091f565b610a0f90855f80516020613a868339815191529182019101612969565b5f610915565b634e487b7160e01b5f9081526041600452fd5b634e487b7160e01b815260216004528390fd5b60405162461bcd60e51b815260206004820152601c818701527f5472656173757279206d616e61676572206973207265717569726564000000006044820152606490fd5b015190505f80610858565b601788528d93507fc624b66cc0138b8fabc209247f72d758e1cf3343756d543badbf24212bed8c159190601f198416895b818110610af057508411610ad8575b505050811b0160175561086c565b01515f1960f88460031b161c191690555f8080610aca565b93839596602092939491839286015181550195019301908f9594939291610abb565b610b5b90601789527fc624b66cc0138b8fabc209247f72d758e1cf3343756d543badbf24212bed8c15601f850160051c81019160208610610b61575b601f0160051c0190612969565b5f610842565b9091508190610b4e565b634e487b7160e01b865260416004528686fd5b68ffffffffffffffffff191668010000000000000001178d555f610778565b60405163f92ee8a960e01b8152600490fd5b9050155f610759565b303b159150610751565b508b610745565b5f80fd5b503461034e57602036600319011261034e5760043560ff8116808203610c5057601490610bf8612f24565b11610c135761ff0082549160081b169061ff00191617815580f35b60405162461bcd60e51b81526020600482015260156024820152744665652063616e6e6f74206578636565642032302560581b6044820152606490fd5b8280fd5b503461034e57602036600319011261034e57600435610c71612f24565b8015610c7d5760045580f35b60405162461bcd60e51b815260206004820152602260248201527f4d6178207469636b657473206d7573742062652067726561746572207468616e604482015261020360f41b6064820152608490fd5b503461034e578060031936011261034e576014546040516001600160a01b039091168152602090f35b503461034e578060031936011261034e576020600f54604051908152f35b503461034e578060031936011261034e576016546001600160a01b0316610d39612751565b90610d56604051928392835260406020840152604083019061278a565b0390f35b503461034e57602036600319011261034e57610d74612665565b600f54919081906001600160a01b0390811690825b858110610daf575b60408581868681526011602052205490825191825215156020820152f35b8282610dba8361291e565b90549060031b1c1614610dcf57600101610d89565b5060409450600193508490505f610d91565b503461034e578060031936011261034e576020600b54421015604051908152f35b503461034e578060031936011261034e576012546040516001600160a01b039091168152602090f35b503461034e578060031936011261034e57610d56604051610e4b816126db565b60058152640352e302e360dc1b602082015260405191829160208352602083019061278a565b503461034e578060031936011261034e576020610e8c6128fa565b6040519015158152f35b503461034e578060031936011261034e57600954600a5490610d56600b54600c54600d549060ff600e5416926040519687968761280d565b50602036600319011261034e57610ee3612665565b60025f80516020613a6683398151915254146114cf5760025f80516020613a668339815191525560ff6008541615611495573382526011906011602052610f2d60408420546128df565b60045410611445573315611407576001600160a01b03811633146113b657600990600b54421015806113ab575b61139c575b60ff60058301541660039060038110156113765760010361138a575b60ff60058401541660038110156113765760010361133f57610f9e60025461297f565b34036113015760165485906001600160a01b0316610fba612751565b90803b15610c50576040516308638fd160e01b81529183918391829084908290610feb903490339060048501612f5c565b03925af18015611205576112ed575b50506003830161100b3482546128ed565b90557fbec1a08e6dcd95f4cbb560bf9010af9efaf4b5b424d78d43652646cdc7726ec860408051348152426020820152a16004830161104a81546128df565b905533855260116020526040852061106281546128df565b90556001600684015491865b8381106112b8575b5050611260575b50835b600181106111185750508054600684920154925f198401938411925b600181106110b9578560015f80516020613a668339815191525580f35b836111045780836110cc600193886128ed565b6040519081524260208201527f96541f70da731142b18e96f1def4d2a7733deb7d784723106d52c1d906d4c67a60403392a30161109c565b634e487b7160e01b86526004829052602486fd5b60145460405163afb2615960e01b815233600482015286916001600160a01b031690602081602481855afa908115611255578391611226575b506001600160a01b03851615801590611214575b611175575b505050600101611080565b6001600160a01b0316156111ab575b505060019081600f541161119d575b9050845f8061116a565b6111a6336135e6565b611193565b803b1561121057604051630b5c3f8760e01b81526001600160a01b03851660048201523360248201529082908290604490829084905af180156112055715611184576111f69061267b565b61120157845f611184565b8480fd5b6040513d84823e3d90fd5b5080fd5b506001600160a01b0381161515611165565b611248915060203d60201161124e575b6112408183612713565b8101906132da565b5f611151565b503d611236565b6040513d85823e3d90fd5b600160401b8110156112a4578060016112829201600685015560068401612954565b81546001600160a01b0360039290921b91821b19163390911b1790555f61107d565b634e487b7160e01b85526041600452602485fd5b6112c58160068801612954565b905490831b1c6001600160a01b031633146112e25760010161106e565b505050845f80611076565b6112f69061267b565b61120157845f610ffa565b60405162461bcd60e51b8152602060048201526016602482015275496e636f7272656374207469636b657420707269636560501b6044820152606490fd5b60405162461bcd60e51b815260206004820152600f60248201526e47616d65206e6f742061637469766560881b6044820152606490fd5b634e487b7160e01b86526021600452602486fd5b915061139461302b565b600991610f7b565b906113a5612f88565b90610f5f565b50600f541515610f5a565b60405162461bcd60e51b8152602060048201526024808201527f506172746e65722063616e6e6f74206265207468652073616d65206173207365604482015263373232b960e11b6064820152608490fd5b60405162461bcd60e51b8152602060048201526016602482015275496e76616c69642073656e646572206164647265737360501b6044820152606490fd5b60405162461bcd60e51b815260206004820152602260248201527f45786365656473206d6178696d756d207469636b6574732070657220706c617960448201526132b960f11b6064820152608490fd5b60405162461bcd60e51b815260206004820152601260248201527147616d65206973206e6f742061637469766560701b6044820152606490fd5b604051633ee5aeb560e01b8152600490fd5b503461034e578060031936011261034e5760ff6020915416604051908152f35b503461034e578060031936011261034e5761151a612f24565b600160ff1960085416176008557fab902d5e35692da6951814ae9cd62a7d029bf24a75023ad2a3cc2e83f6437b116040805160018152426020820152a180f35b503461034e578060031936011261034e575f80516020613a46833981519152546040516001600160a01b039091168152602090f35b503461034e578060031936011261034e57600b54421015806115bb575b6115b35780f35b6103a3612f88565b50600f5415156115ac565b503461034e5760c036600319011261034e576115e36004356128b3565b6115ee6024356128b3565b90600a604051602081019060443582526064356040820152608435606082015260a435608082015260808152611623816126bf565b51902006600181018091116116905781611664611669926040516020810191825260208152611651816126db565b51902061165e86846128ed565b906128c1565b612888565b918083116116ac575b508082106116a4575b50801561169057602090604051905f19018152f35b634e487b7160e01b5f52601160045260245ffd5b90508161167b565b915082611672565b503461034e578060031936011261034e57602060ff60085460081c166040519015158152f35b503461034e578060031936011261034e576116f3612f24565b61010061ff0019600854161760085580f35b503461034e578060031936011261034e576020600454604051908152f35b503461034e578060031936011261034e576015546040516001600160a01b039091168152602090f35b503461034e57602036600319011261034e576020600f54604051908152f35b503461034e578060031936011261034e57611784612f24565b5f80516020613a4683398151915280546001600160a01b031981169091555f906001600160a01b03167f8be0079c531659141344cd1fd0a4f28419497f9722a3daafe3b4186f6b6457e08280a380f35b503461034e578060031936011261034e57602047604051908152f35b506040366003190112610bc957611805612665565b60025f80516020613a6683398151915254146114cf5760025f80516020613a668339815191525560ff60085416156114955760243515611caf576103e860243511611c5f57335f52601160205261186260243560405f20546128ed565b60045410611445573315611407576001600160a01b03811633146113b657600990600b5442101580611c54575b611c45575b60ff6005830154166003906003811015611c1f57600103611c33575b60ff6005840154166003811015611c1f5760010361133f576118d6602435600254612990565b3403611301576016546001600160a01b03166118f0612751565b90803b15610bc9576040516308638fd160e01b8152915f918391829084908290611921903490339060048501612f5c565b03925af18015611c1457611c01575b50600383016119403482546128ed565b90557fbec1a08e6dcd95f4cbb560bf9010af9efaf4b5b424d78d43652646cdc7726ec860408051348152426020820152a16004830161198260243582546128ed565b905533845260116020526040842061199d60243582546128ed565b90556001600684015491855b838110611bcc575b5050611b74575b50825b6024358110611a5657505080546006909101545f1981019190821190835b60243581106119f7578460015f80516020613a668339815191525580f35b82611a42578082611a0a600193876128ed565b6040519081524260208201527f96541f70da731142b18e96f1def4d2a7733deb7d784723106d52c1d906d4c67a60403392a3016119d9565b634e487b7160e01b85526011600452602485fd5b60145460405163afb2615960e01b815233600482015285916001600160a01b031690602081602481855afa908115611255578391611b55575b506001600160a01b03851615801590611b43575b611ab3575b5050506001016119bb565b6001600160a01b031615611ae9575b505060019081600f5411611adb575b9050835f80611aa8565b611ae4336135e6565b611ad1565b803b1561121057604051630b5c3f8760e01b81526001600160a01b03851660048201523360248201529082908290604490829084905af180156112055715611ac257611b349061267b565b611b3f57835f611ac2565b8380fd5b506001600160a01b0381161515611aa3565b611b6e915060203d60201161124e576112408183612713565b5f611a8f565b600160401b811015611bb857806001611b969201600685015560068401612954565b81546001600160a01b0360039290921b91821b19163390911b1790555f6119b8565b634e487b7160e01b84526041600452602484fd5b611bd98160068801612954565b905490831b1c6001600160a01b03163314611bf6576001016119a9565b505050835f806119b1565b611c0c91945061267b565b5f925f611930565b6040513d5f823e3d90fd5b634e487b7160e01b5f52602160045260245ffd5b9150611c3d61302b565b6009916118b0565b90611c4e612f88565b90611894565b50600f54151561188f565b60405162461bcd60e51b815260206004820152602260248201527f5469636b657420636f756e742065786365656473206d6178696d756d206c696d6044820152611a5d60f21b6064820152608490fd5b60405162461bcd60e51b815260206004820152602360248201527f5469636b657420636f756e74206d75737420626520677265617465722074686160448201526206e20360ec1b6064820152608490fd5b34610bc9575f366003190112610bc9576020600754604051908152f35b34610bc9575f366003190112610bc9576020611d37612895565b604051908152f35b34610bc9575f366003190112610bc957600954600a5490610d56600b54600c54600d549060ff600e5416926040519687968761280d565b34610bc9575f366003190112610bc9576040516017545f82611d97836127c8565b91828252602093600190856001821691825f14611e34575050600114611dd9575b50611dc592500383612713565b610d5660405192828493845283019061278a565b84915060175f527fc624b66cc0138b8fabc209247f72d758e1cf3343756d543badbf24212bed8c15905f915b858310611e1c575050611dc5935082010185611db8565b80548389018501528794508693909201918101611e05565b60ff191685820152611dc595151560051b8501019250879150611db89050565b34610bc9575f366003190112610bc9577f00000000000000000000000000000000000000000000000000000000000000006001600160a01b03163003611ebe5760206040517f360894a13ba1a3210667c828492db98dca3e2076cc3735a920a3ca505d382bbc8152f35b60405163703e46dd60e11b8152600490fd5b34610bc9575f366003190112610bc9576020600354604051908152f35b34610bc9575f366003190112610bc957611f05612f24565b60ff19600854166008557fab902d5e35692da6951814ae9cd62a7d029bf24a75023ad2a3cc2e83f6437b11604080515f8152426020820152a1005b34610bc9575f366003190112610bc957610d56611f5b612751565b60405191829160208352602083019061278a565b6040366003190112610bc957611f83612665565b602490813567ffffffffffffffff8111610bc95736602382011215610bc957806004013591611fb183612735565b611fbe6040519182612713565b8381526020938482019336878383010111610bc957815f92888893018737830101526001600160a01b037f00000000000000000000000000000000000000000000000000000000000000008116308114908115612168575b50611ebe57612023612f24565b6040516352d1902d60e01b8152908316948082600481895afa9182915f93612138575b505061206457604051634c9c8ce360e01b8152600481018690528690fd5b8490867f360894a13ba1a3210667c828492db98dca3e2076cc3735a920a3ca505d382bbc918281036121235750843b1561210d575080546001600160a01b03191682179055604051907fbc7cd75a20ee27fd9adebab32041f755214dbc6bffa90cc0225b39da2e5c2d3b5f80a28151156120f357505f61001e9381925190845af46120ed6129a3565b916138ea565b92505050346120fe57005b63b398979f60e01b8152600490fd5b604051634c9c8ce360e01b815260048101849052fd5b60405190632a87526960e21b82526004820152fd5b9080929350813d8311612161575b6121508183612713565b81010312610bc95751908780612046565b503d612146565b9050817f360894a13ba1a3210667c828492db98dca3e2076cc3735a920a3ca505d382bbc5416141587612016565b34610bc9575f366003190112610bc9576020600554604051908152f35b34610bc9576020366003190112610bc9576024600435602060018060a01b03601254166040519384809263babcc53960e01b82523360048301525afa918215611c14575f92612257575b506122287fdcefbf936a5a84ea694d7c34335e03240bee5f52df414c3b11bc2d6cfd9f32459261284b565b60025490806003556122526040519283924291846040919493926060820195825260208201520152565b0390a1005b91506020823d6020116122ae575b8161227260209383612713565b81010312610bc9576122286122a77fdcefbf936a5a84ea694d7c34335e03240bee5f52df414c3b11bc2d6cfd9f32459361283e565b92506121fd565b3d9150612265565b34610bc9575f366003190112610bc9576016546040516001600160a01b039091168152602090f35b34610bc9575f366003190112610bc95760165461232d9060a0906001600160a01b0316612309612751565b90604051808095819463162ae29f60e11b835260206004840152602483019061278a565b03915afa8015611c14575f905f805f915f93612366575b60a0955060405194855260208501526040840152606083015215156080820152f35b505050505060a0813d60a0116123ba575b8161238460a09383612713565b81010312610bc9578060a09151906020810151916040820151916123af60806060830151920161283e565b919392909192612344565b3d9150612377565b34610bc9575f366003190112610bc9576020600654604051908152f35b34610bc9575f366003190112610bc957602060ff600854166040519015158152f35b34610bc9576020366003190112610bc9576001600160a01b03612422612665565b165f526011602052602060405f2054604051908152f35b34610bc9575f366003190112610bc95760e0600954600a5460015461245c612895565b600b5442101590600f5492600c5494604051968752602087015260408601526060850152608084015260a083015260c0820152f35b34610bc9576020366003190112610bc9576020600c54604051908152f35b34610bc9576020366003190112610bc9576004356124cb612f24565b801561251d577fdcefbf936a5a84ea694d7c34335e03240bee5f52df414c3b11bc2d6cfd9f32459060025490806003556122526040519283924291846040919493926060820195825260208201520152565b60405162461bcd60e51b815260206004820152602360248201527f5469636b6574207072696365206d75737420626520677265617465722074686160448201526206e20360ec1b6064820152608490fd5b34610bc9575f366003190112610bc9576020600254604051908152f35b34610bc9575f366003190112610bc95760125460405163babcc53960e01b815233600482015290602090829060249082906001600160a01b03165afa8015611c14575f90612610575b6125de915061284b565b6008805460ff81166125f85750805460ff19166001179055005b61ff0019811690821c60ff1615821b61ff0016179055005b506020813d602011612643575b8161262a60209383612713565b81010312610bc95761263e6125de9161283e565b6125d4565b3d915061261d565b34610bc9575f366003190112610bc957602090600d548152f35b600435906001600160a01b0382168203610bc957565b67ffffffffffffffff811161268f57604052565b634e487b7160e01b5f52604160045260245ffd5b60e0810190811067ffffffffffffffff82111761268f57604052565b60a0810190811067ffffffffffffffff82111761268f57604052565b6040810190811067ffffffffffffffff82111761268f57604052565b6020810190811067ffffffffffffffff82111761268f57604052565b90601f8019910116810190811067ffffffffffffffff82111761268f57604052565b67ffffffffffffffff811161268f57601f01601f191660200190565b6040519061275e826126db565b601882527f756e697175655f746573745f6c6f74746572795f3164617900000000000000006020830152565b91908251928382525f5b8481106127b4575050825f602080949584010152601f8019910116010190565b602081830181015184830182015201612794565b90600182811c921680156127f6575b60208310146127e257565b634e487b7160e01b5f52602260045260245ffd5b91607f16916127d7565b906003821015611c1f5752565b919360a09361283c969298979560c0850199855260208501526040840152606083015260808201520190612800565b565b51908115158203610bc957565b1561285257565b60405162461bcd60e51b815260206004820152600e60248201526d139bdd08185d5d1a1bdc9a5e995960921b6044820152606490fd5b9190820391821161169057565b600b54804210156128ae576128ab904290612888565b90565b505f90565b5f1981146116905760010190565b81156128cb570690565b634e487b7160e01b5f52601260045260245ffd5b906001820180921161169057565b9190820180921161169057565b601054421015806129085790565b5060ff600e54166003811015611c1f5760021490565b600f5481101561294057600f5f525f80516020613a8683398151915201905f90565b634e487b7160e01b5f52603260045260245ffd5b8054821015612940575f5260205f2001905f90565b818110612974575050565b5f8155600101612969565b908115600183800414171561169057565b8181029291811591840414171561169057565b3d156129cd573d906129b482612735565b916129c26040519384612713565b82523d5f602084013e565b606090565b6001600160a01b03908116908115612a2b575f80516020613a4683398151915280546001600160a01b031981168417909155167f8be0079c531659141344cd1fd0a4f28419497f9722a3daafe3b4186f6b6457e05f80a3565b604051631e4fbdf760e01b81525f6004820152602490fd5b5f5f80516020613a6683398151915260028154146114cf576002815560ff600854161561149557335f52601160209060118252604091612a85835f20546128df565b92600493845410612ed8573315612e9e57600993600b5442101580612e93575b612e84575b60ff600586015416966003956003891015612e71576001809903612e61575b60ff6005820154166003811015612e4e578903612e1957612aeb60025461297f565b3403612ddd576016546001600160a01b03908116612b07612751565b90803b15610bc95786516308638fd160e01b8152915f918391829084908290612b3690349033908e8501612f5c565b03925af18015612dd357612dc0575b5060038201612b553482546128ed565b90557fbec1a08e6dcd95f4cbb560bf9010af9efaf4b5b424d78d43652646cdc7726ec88580513481524289820152a1838201612b9181546128df565b905533835260118652848320612ba781546128df565b9055899760068301988954918c865b858d868310612d92575b5050505050612d4c575b50825b8a8110612c515750505494819654925f198401938411975b8a8110612bf85750505050505050505055565b88612c3f578088612c0a8d93886128ed565b8851908152428a8201527f96541f70da731142b18e96f1def4d2a7733deb7d784723106d52c1d906d4c67a893392a301612be5565b50634e487b7160e01b83525260249150fd5b8160145416865163afb2615960e01b8152338782015260249089818381865afa908115612d42578e9493929186918991612d25575b5016158015612c99575b50505001612bcd565b612cc0575b505081600f5411612cb2575b5f8080612c90565b612cbb336135e6565b612caa565b90809293503b15612d21578591604483928a519485938492630b5c3f8760e01b8452828d85015233908401525af18015612d17578c9291869115612c9e57612d0a9192935061267b565b611b3f578a90845f612c9e565b87513d87823e3d90fd5b8580fd5b612d3c91508c8d3d1061124e576112408183612713565b5f612c86565b89513d89823e3d90fd5b600160401b811015612d7f57808b612d6792018a5589612954565b81549060031b908333831b921b19161790555f612bca565b634e487b7160e01b845260418552602484fd5b82612d9c91612954565b905490851b1c163314612db157018d90612bb6565b50505050835f8c81858d612bc0565b612dcb91935061267b565b5f915f612b45565b86513d5f823e3d90fd5b835162461bcd60e51b81528084018690526016602482015275496e636f7272656374207469636b657420707269636560501b6044820152606490fd5b835162461bcd60e51b8152808401869052600f60248201526e47616d65206e6f742061637469766560881b6044820152606490fd5b602184634e487b7160e01b5f525260245ffd5b50612e6a61302b565b6009612ac9565b602183634e487b7160e01b5f525260245ffd5b93612e8d612f88565b93612aaa565b50600f541515612aa5565b5162461bcd60e51b815292830152506016602482015275496e76616c69642073656e646572206164647265737360501b6044820152606490fd5b5162461bcd60e51b81529283015250602260248201527f45786365656473206d6178696d756d207469636b6574732070657220706c617960448201526132b960f11b6064820152608490fd5b5f80516020613a46833981519152546001600160a01b03163303612f4457565b60405163118cdaa760e01b8152336004820152602490fd5b612f746040929594939560608352606083019061278a565b6001600160a01b0390951660208201520152565b600b544210612fee57600260ff19600e541617600e556009547f46e59b25850fb5875ea16cb7de4c6866327eef1a3f4ff23c27b3c5ad811979dd6040805160028152426020820152a2600d54612fe1575b61283c61302b565b612fe96132f9565b612fd9565b60405162461bcd60e51b815260206004820152601560248201527411d85b59481d1a5b59481b9bdd08195e1c1a5c9959605a1b6044820152606490fd5b6130336128fa565b80156132c4575b80156132ac575b80156132a2575b1561325d57600d54613250575b60039060035480613243575b5060085460ff8160081c1661322c575b5060095460018082018092116116905761308c8154426128ed565b9060409182519061309c826126f7565b5f82526020948260c086516130b0816126a3565b838152428982015284888201525f60608201525f60808201528660a0820152015260095542600a55600b555f600c555f600d558160ff19600e541617600e55805167ffffffffffffffff811161268f57600160401b811161268f5784600f92600f5483600f55808410613209575b5001600f5f52835f5b8381106131e157509150505f905b6131a1575b50507f46e59b25850fb5875ea16cb7de4c6866327eef1a3f4ff23c27b3c5ad811979dd92939450600b5460105560095493847fa2dfaa3573b86004ec9d4d4abe5068d942579c59da4da8cd0d9e45e71a393bc1828551428152a282519182524290820152a2565b81548110156131dc579082826131b7829461291e565b9054908a1b1c6001600160a01b03165f90815260118852868120559192910190613135565b61313a565b82516001600160a01b03165f80516020613a8683398151915282015591870191859101613127565b61322690845f80516020613a868339815191529182019101612969565b5f61311e565b60ff80821615169061ffff1916176008555f613071565b6002555f6003555f613061565b6132586132f9565b613055565b60405162461bcd60e51b815260206004820152601960248201527f43616e6e6f74207374617274206e65772067616d6520796574000000000000006044820152606490fd5b5060095415613048565b5060ff600e54166003811015611c1f57600214613041565b5060ff600e54166003811015611c1f571561303a565b90816020910312610bc957516001600160a01b0381168103610bc95790565b600f54600c5490600180820361341c575081600f541561294057600f5f525f80516020613a868339815191525461333991906001600160a01b031661384f565b5f915b6133458361291e565b919060018060a01b03928391549060031b1c16915f600755601354166009549060ff5f541690803b15610bc9575f928360c492604051998a9586946306525fa960e01b86528a600487015260248601528a6044860152886064860152608485015260a48401525af1918215611c1457613408946133fd9361340d575b50600954907f6e8dc1353ef256756a04b2d5c32fe12fa8d3a9633f52056cda478393a1b8c76560408051858152426020820152a36005546128ed565b6005556006546128ed565b600655565b6134169061267b565b5f6133c1565b5f198281019183831161169057814301924384116116905761343f600a916128b3565b9360405160208101914283524460408301524360608301524060808201526080815261346a816126bf565b5190200681810180911161169057604051602081019182526020815261348f816126db565b519020838201808311611690576134a5916128c1565b928284019384116116905780841161359d575b50808310613595575b508115611690575f8080809361353a9501966134f160646134e960ff855460081c1684612990565b048092612888565b9586916135176135008b61291e565b90546001600160a01b03959160031b1c851661384f565b613531836135248c61291e565b90549060031b1c166135e6565b60075490612888565b9060155416617530f161354b6129a3565b5061333c5760405162461bcd60e51b815260206004820152601960248201527f46756e647320646973747269627574696f6e206661696c6564000000000000006044820152606490fd5b91505f6134c1565b92505f6134b8565b60ff7ff0c57e16840df040f15088dc2f81fe391c3923bec73e23a9662efc9c229c6a005460401c16156135d457565b604051631afcd79f60e31b8152600490fd5b9060018060a01b038060145416604093845192839263afb2615960e01b8452818316600485015283602460209687935afa928315612dd3575f93613830575b508083169182613639575b50505050509050565b6136428461394d565b8061364e575b50613630565b5f80808084895af161365e6129a3565b50156137ec578391816136947f20e787dfda3ac1418c7882f60c18b94d602d3dd46995ea36ede0ae9938ae0975936007546128ed565b60075589516001600160a01b039290921682526020820152426040820152606090a283816014541692602488518095819362e9096960e11b835260048301525afa918215612dd3575f926137cd575b50811692836136f4575b8080613648565b6136fd836139f7565b918261370a575b506136ed565b5f80808581945af161371a6129a3565b501561378a575061377c7f74997e3673bd75508ed1fc7dbeb55d4888716d846e7f0b3fde9fd85824b0f6e2939495613754836007546128ed565b600755516001600160a01b039093168352602083019190915242604083015281906060820190565b0390a2805f80808080613704565b60649086519062461bcd60e51b82526004820152601d60248201527f53616c657320706172746e6572207472616e73666572206661696c65640000006044820152fd5b6137e5919250843d861161124e576112408183612713565b905f6136e3565b875162461bcd60e51b815260048101879052601760248201527f506172746e6572207472616e73666572206661696c65640000000000000000006044820152606490fd5b613848919350843d861161124e576112408183612713565b915f613625565b6016546001600160a01b039081169190613867612751565b92803b15610bc957845f918483613895976040519889958694859363783b811560e11b855260048501612f5c565b03925af1918215611c14577f5cb16b96eae9e7321a2374725d21b09b310eac87d65cbdc13555123ecc31b49b936040936138db575b5082519485524260208601521692a2565b6138e49061267b565b5f6138ca565b9061391157508051156138ff57602081519101fd5b60405163d6bda27560e01b8152600490fd5b81511580613944575b613922575090565b604051639996b31560e01b81526001600160a01b039091166004820152602490fd5b50803b1561391a565b60145460405163e09f455960e01b81526001600160a01b0392831660048201529160209183916024918391165afa908115611c14575f9161399c575b5080156128ae5760ff6128ab91166139ce565b90506020813d6020116139c6575b816139b760209383612713565b81010312610bc957515f613989565b3d91506139aa565b6139f360649160ff836139ea600254835f5460081c1690612990565b04911690612990565b0490565b6014546040516301a164f360e21b81526001600160a01b0392831660048201529160209183916024918391165afa908115611c14575f9161399c575080156128ae5760ff6128ab91166139ce56fe9016d09d72d40fdae2fd8ceac6b6234c7706214fd39c1cd1e609a0528c1993009b779b17422d0df92223018b32b4d1fa46e071723d6817e2486d003becc55f008d1108e10bcb7c27dddfc02ed9d693a074039d026cf4ea4240b40f7d581ac802a2646970667358221220a450aac3b9a56d6986928ee866e98c113455b5580d83bfc514eb48c0dc006df064736f6c6343000816003360a08060405234620000d157306080527ff0c57e16840df040f15088dc2f81fe391c3923bec73e23a9662efc9c229c6a009081549060ff8260401c16620000c257506001600160401b036002600160401b0319828216016200007c575b6040516139b29081620000d68239608051818181611df30152611f770152f35b6001600160401b031990911681179091556040519081527fc7f505b2f371ae2175ee4913f4499e1f2633a7b5936321eed1cdaeb6115181d290602090a15f80806200005c565b63f92ee8a960e01b8152600490fd5b5f80fdfe6080806040526004361015610028575b5036156100205761001e612a0b565b005b61001e612a0b565b5f905f3560e01c908163077e829d14612613575080630d8c1a62146125535780631209b1f614612536578063159816501461247757806316521a2b146124595780631746bd1b146124015780631a89a43b1461238e57806322f3e2d41461236c5780632ef5c7841461234f57806337a783611461226b5780633cea70d9146122435780634630a0ee1461214057806347ddf87e146121235780634f1ef28614611efc57806350e1a19b14611ecd57806351858e2714611e7a57806351df9db914611e5d57806352d1902d14611de157806353b7acdf14611d0357806360b663bb14611ccc5780636244480114611caa578063650b147d14611c8d57806366a5ef2f146117865780636f9fb98a1461176a578063715018a61461170157806374796cc2146116e257806374cb55fb146116b95780637d96ea961461169b5780637fd60e421461167057806385b75b1e1461164a5780638897c1f41461155c5780638b235f19146115255780638da5cb5b146114f057806393c87f0314611497578063a46d11dc14611477578063a5f8cdbb14610e3d578063a645e84014610e05578063a7ea9a6014610de0578063ad3cb1cc14610d9a578063b38854be14610d71578063bf77e7c814610d50578063c293947114610d0a578063c3a151de14610cec578063c6ab848a14610cc3578063c758f2f214610c4a578063cb122a0914610bc3578063cc2a9a5b1461068b578063cee3b9b914610652578063cf4e593a14610634578063d0b2dab514610616578063d1c45f3814610580578063d80528ae14610557578063db2e21bc1461048f578063ddca3f431461046c578063e1f0c3761461044e578063ea135ad71461039b578063f2fde38b1461036e578063f83fd805146103465763fe47a9f20361000f5734610343576020366003190112610343576102d261262d565b6102da612e43565b6001600160a01b031680156102ff576001600160601b0360a01b601654161760165580f35b606460405162461bcd60e51b815260206004820152602060248201527f496e76616c6964207472656173757279206d616e6167657220616464726573736044820152fd5b80fd5b5034610343578060031936011261034357602060ff600e541661036c60405180926127c8565bf35b50346103435760203660031901126103435761039861038b61262d565b610393612e43565b61299a565b80f35b50346103435780600319360112610343576040518091600f549081835260208093018092600f83525f8051602061395d83398151915290835b81811061043157505050846103ea9103856126db565b60405193838594850191818652518092526040850193925b82811061041157505050500390f35b83516001600160a01b031685528695509381019392810192600101610402565b82546001600160a01b0316845292860192600192830192016103d4565b50346103435780600319360112610343576020600154604051908152f35b503461034357806003193601126103435760ff6020915460081c16604051908152f35b50346103435780600319360112610343576104a8612e43565b47801561051b575f8051602061391d8339815191525482918291829182916001600160a01b03165af16104d961296b565b50156104e25780f35b60405162461bcd60e51b815260206004820152601160248201527015da5d1a191c985dd85b0819985a5b1959607a1b6044820152606490fd5b60405162461bcd60e51b81526020600482015260146024820152734e6f2066756e647320746f20776974686472617760601b6044820152606490fd5b50346103435780600319360112610343576013546040516001600160a01b039091168152602090f35b50346103435760203660031901126103435761059a61262d565b6105a2612e43565b6001600160a01b031680156105c7576001600160601b0360a01b601454161760145580f35b60405162461bcd60e51b815260206004820152602160248201527f496e76616c696420726566657272616c20696e7374616e6365206164647265736044820152607360f81b6064820152608490fd5b50346103435780600319360112610343576020601054604051908152f35b50346103435780600319360112610343576020600c54604051908152f35b5034610343576020366003190112610343576020906040906001600160a01b0361067a61262d565b168152601183522054604051908152f35b50346103435760c0366003190112610343576106a561262d565b906001600160a01b0360248035828116939290849003610bbf5760443591818316809303610bbf5760643593828516809503610bbf5760843593838516809503610bbf5760a435848116809103610bbf577ff0c57e16840df040f15088dc2f81fe391c3923bec73e23a9662efc9c229c6a009788549660ff8860401c16159867ffffffffffffffff988981169c8d1580610bb8575b60019e8f149081610bae575b159081610ba5575b50610b935767ffffffffffffffff1982168e178d55610786918c610b74575b50610776613479565b61077e613479565b610393613479565b61078e613479565b610796613479565b61079e613479565b8b5f8051602061393d83398151915255610a0561ffff1987541617865562093a808c55670de0b6b3a7640000600255600a60045560ff19948c8660085416176008556001600160601b0360a01b93846012541617601255836015541617601555826013541617601355816014541617601455610818612719565b805190888211610b6157819061082f601754612790565b601f8111610b08575b50602090601f8311600114610a80578792610a75575b50505f19600383901b1c1916908b1b176017555b8115610a3157601654161760165561087b885442612900565b9160405192610889846126bf565b81845260c060405161089a8161266b565b8b81524260208201528260408201528360608201528360808201528b60a0820152019384528960095542600a55600b5580600c558080600d55610a1e57508790600e541617600e5551908151938411610a0b57600160401b8411610a0b5750602090600f5484600f558085106109e8575b500190600f5f52855f5b8481106109c657508585600b54601055600954807fa2dfaa3573b86004ec9d4d4abe5068d942579c59da4da8cd0d9e45e71a393bc16020604051428152a27f46e59b25850fb5875ea16cb7de4c6866327eef1a3f4ff23c27b3c5ad811979dd60408051868152426020820152a261098857005b805468ff0000000000000000191690556040519081527fc7f505b2f371ae2175ee4913f4499e1f2633a7b5936321eed1cdaeb6115181d290602090a1005b602083855116940193815f8051602061395d8339815191520155018690610915565b610a0590855f8051602061395d8339815191529182019101612931565b5f61090b565b634e487b7160e01b5f9081526041600452fd5b634e487b7160e01b815260216004528390fd5b60405162461bcd60e51b815260206004820152601c818701527f5472656173757279206d616e61676572206973207265717569726564000000006044820152606490fd5b015190505f8061084e565b601788528d93507fc624b66cc0138b8fabc209247f72d758e1cf3343756d543badbf24212bed8c159190601f198416895b818110610ae657508411610ace575b505050811b01601755610862565b01515f1960f88460031b161c191690555f8080610ac0565b93839596602092939491839286015181550195019301908f9594939291610ab1565b610b5190601789527fc624b66cc0138b8fabc209247f72d758e1cf3343756d543badbf24212bed8c15601f850160051c81019160208610610b57575b601f0160051c0190612931565b5f610838565b9091508190610b44565b634e487b7160e01b865260416004528686fd5b68ffffffffffffffffff191668010000000000000001178d555f61076d565b60405163f92ee8a960e01b8152600490fd5b9050155f61074e565b303b159150610746565b508b61073a565b5f80fd5b50346103435760203660031901126103435760043560ff8116808203610c4657601490610bee612e43565b11610c095761ff0082549160081b169061ff00191617815580f35b60405162461bcd60e51b81526020600482015260156024820152744665652063616e6e6f74206578636565642032302560581b6044820152606490fd5b8280fd5b503461034357602036600319011261034357600435610c67612e43565b8015610c735760045580f35b60405162461bcd60e51b815260206004820152602260248201527f4d6178207469636b657473206d7573742062652067726561746572207468616e604482015261020360f41b6064820152608490fd5b50346103435780600319360112610343576014546040516001600160a01b039091168152602090f35b50346103435780600319360112610343576020600f54604051908152f35b50346103435780600319360112610343576016546001600160a01b0316610d2f612719565b90610d4c6040519283928352604060208401526040830190612752565b0390f35b50346103435780600319360112610343576020600b54421015604051908152f35b50346103435780600319360112610343576012546040516001600160a01b039091168152602090f35b5034610343578060031936011261034357610d4c604051610dba816126a3565b60058152640352e302e360dc1b6020820152604051918291602083526020830190612752565b50346103435780600319360112610343576020610dfb61290d565b6040519015158152f35b5034610343578060031936011261034357600954600a5490610d4c600b54600c54600d549060ff600e541692604051968796876127d5565b50602036600319011261034357610e5261262d565b60025f8051602061393d83398151915254146114655760025f8051602061393d8339815191525560ff600854161561142b5733156113ed576001600160a01b038116331461139c57600990600b5442101580611391575b611382575b60ff6005830154166003908181101561135c57600103611370575b60ff6005840154168181101561135c5760010361132557610eeb600254612947565b34036112e757600683015484805b8281106112a85750610f0a906128f2565b600454106112585760165485906001600160a01b0316610f28612719565b90803b15610c46576040516308638fd160e01b81529183918391829084908290610f59903490339060048501612e7b565b03925af1801561115657611240575b5050818401610f78348254612900565b90557fbec1a08e6dcd95f4cbb560bf9010af9efaf4b5b424d78d43652646cdc7726ec860408051348152426020820152a160048401610fb781546128f2565b9055600190855b81811061120b575b50506111b1575b50825b6001811061106957505080546006909101545f1981019190821190835b6001811061100a578460015f8051602061393d8339815191525580f35b8261105557808261101d60019387612900565b6040519081524260208201527f96541f70da731142b18e96f1def4d2a7733deb7d784723106d52c1d906d4c67a60403392a301610fed565b634e487b7160e01b85526011600452602485fd5b60145460405163afb2615960e01b815233600482015285916001600160a01b031690602081602481855afa9081156111a6578391611177575b506001600160a01b03851615801590611165575b6110c6575b505050600101610fd0565b6001600160a01b0316156110fc575b505060019081600f54116110ee575b9050835f806110bb565b6110f7336134ba565b6110e4565b803b1561116157604051630b5c3f8760e01b81526001600160a01b03851660048201523360248201529082908290604490829084905af1801561115657156110d55761114790612643565b61115257835f6110d5565b8380fd5b6040513d84823e3d90fd5b5080fd5b506001600160a01b03811615156110b6565b611199915060203d60201161119f575b61119181836126db565b8101906131ae565b5f6110a2565b503d611187565b6040513d85823e3d90fd5b6006830154600160401b8110156111f7578060016111d89201600686015560068501612886565b81929154911b9033821b9160018060a01b03901b19161790555f610fcd565b634e487b7160e01b85526041600452602485fd5b6112188160068801612886565b905490851b1c6001600160a01b0316331461123557600101610fbe565b505050835f80610fc6565b61124990612643565b61125457845f610f68565b8480fd5b60405162461bcd60e51b815260206004820152602260248201527f45786365656473206d6178696d756d207469636b6574732070657220706c617960448201526132b960f11b6064820152608490fd5b6112b58160068801612886565b905490851b1c6001600160a01b031633146112d3575b600101610ef9565b906112df60019161289b565b9190506112cb565b60405162461bcd60e51b8152602060048201526016602482015275496e636f7272656374207469636b657420707269636560501b6044820152606490fd5b60405162461bcd60e51b815260206004820152600f60248201526e47616d65206e6f742061637469766560881b6044820152606490fd5b634e487b7160e01b85526021600452602485fd5b915061137a612f4a565b600991610ec9565b9061138b612ea7565b90610eae565b50600f541515610ea9565b60405162461bcd60e51b8152602060048201526024808201527f506172746e65722063616e6e6f74206265207468652073616d65206173207365604482015263373232b960e11b6064820152608490fd5b60405162461bcd60e51b8152602060048201526016602482015275496e76616c69642073656e646572206164647265737360501b6044820152606490fd5b60405162461bcd60e51b815260206004820152601260248201527147616d65206973206e6f742061637469766560701b6044820152606490fd5b604051633ee5aeb560e01b8152600490fd5b503461034357806003193601126103435760ff6020915416604051908152f35b50346103435780600319360112610343576114b0612e43565b600160ff1960085416176008557fab902d5e35692da6951814ae9cd62a7d029bf24a75023ad2a3cc2e83f6437b116040805160018152426020820152a180f35b50346103435780600319360112610343575f8051602061391d833981519152546040516001600160a01b039091168152602090f35b5034610343578060031936011261034357600b5442101580611551575b6115495780f35b610398612ea7565b50600f541515611542565b50346103435760c03660031901126103435761157960043561289b565b61158460243561289b565b90600a604051602081019060443582526064356040820152608435606082015260a4356080820152608081526115b981612687565b519020066001810180911161162657816115fa6115ff9260405160208101918252602081526115e7816126a3565b5190206115f48684612900565b906128d4565b6128a9565b91808311611642575b5080821061163a575b50801561162657602090604051905f19018152f35b634e487b7160e01b5f52601160045260245ffd5b905081611611565b915082611608565b5034610343578060031936011261034357602060ff60085460081c166040519015158152f35b5034610343578060031936011261034357611689612e43565b61010061ff0019600854161760085580f35b50346103435780600319360112610343576020600454604051908152f35b50346103435780600319360112610343576015546040516001600160a01b039091168152602090f35b5034610343576020366003190112610343576020600f54604051908152f35b503461034357806003193601126103435761171a612e43565b5f8051602061391d83398151915280546001600160a01b031981169091555f906001600160a01b03167f8be0079c531659141344cd1fd0a4f28419497f9722a3daafe3b4186f6b6457e08280a380f35b5034610343578060031936011261034357602047604051908152f35b506040366003190112610bbf5761179b61262d565b60025f8051602061393d83398151915254146114655760025f8051602061393d8339815191525560ff600854161561142b5760243515611c3c576103e860243511611bec5733156113ed576001600160a01b038116331461139c57600990600b5442101580611be1575b611bd2575b60ff60058301541660039081811015611bac57600103611bc0575b60ff60058401541681811015611bac576001036113255761184a602435600254612958565b34036112e75760068301545f805b828110611b6d575061186d9060243590612900565b60045410611258576016546001600160a01b0316611889612719565b90803b15610bbf576040516308638fd160e01b8152915f9183918290849082906118ba903490339060048501612e7b565b03925af18015611b6257611b4f575b508184016118d8348254612900565b90557fbec1a08e6dcd95f4cbb560bf9010af9efaf4b5b424d78d43652646cdc7726ec860408051348152426020820152a16004840161191a6024358254612900565b9055600190855b818110611b1a575b5050611ad4575b50825b60243581106119ba57505080546006909101545f1981019190821190835b602435811061196f578460015f8051602061393d8339815191525580f35b8261105557808261198260019387612900565b6040519081524260208201527f96541f70da731142b18e96f1def4d2a7733deb7d784723106d52c1d906d4c67a60403392a301611951565b60145460405163afb2615960e01b815233600482015285916001600160a01b031690602081602481855afa9081156111a6578391611ab5575b506001600160a01b03851615801590611aa3575b611a17575b505050600101611933565b6001600160a01b031615611a4d575b505060019081600f5411611a3f575b9050835f80611a0c565b611a48336134ba565b611a35565b803b1561116157604051630b5c3f8760e01b81526001600160a01b03851660048201523360248201529082908290604490829084905af180156111565715611a2657611a9890612643565b61115257835f611a26565b506001600160a01b0381161515611a07565b611ace915060203d60201161119f5761119181836126db565b5f6119f3565b6006830154600160401b8110156111f757806001611afb9201600686015560068501612886565b81929154911b9033821b9160018060a01b03901b19161790555f611930565b611b278160068801612886565b905490851b1c6001600160a01b03163314611b4457600101611921565b505050835f80611929565b611b5a919550612643565b5f935f6118c9565b6040513d5f823e3d90fd5b611b7a8160068801612886565b905490851b1c6001600160a01b03163314611b98575b600101611858565b90611ba460019161289b565b919050611b90565b634e487b7160e01b5f52602160045260245ffd5b9150611bca612f4a565b600991611825565b90611bdb612ea7565b9061180a565b50600f541515611805565b60405162461bcd60e51b815260206004820152602260248201527f5469636b657420636f756e742065786365656473206d6178696d756d206c696d6044820152611a5d60f21b6064820152608490fd5b60405162461bcd60e51b815260206004820152602360248201527f5469636b657420636f756e74206d75737420626520677265617465722074686160448201526206e20360ec1b6064820152608490fd5b34610bbf575f366003190112610bbf576020600754604051908152f35b34610bbf575f366003190112610bbf576020611cc46128b6565b604051908152f35b34610bbf575f366003190112610bbf57600954600a5490610d4c600b54600c54600d549060ff600e541692604051968796876127d5565b34610bbf575f366003190112610bbf576040516017545f82611d2483612790565b91828252602093600190856001821691825f14611dc1575050600114611d66575b50611d52925003836126db565b610d4c604051928284938452830190612752565b84915060175f527fc624b66cc0138b8fabc209247f72d758e1cf3343756d543badbf24212bed8c15905f915b858310611da9575050611d52935082010185611d45565b80548389018501528794508693909201918101611d92565b60ff191685820152611d5295151560051b8501019250879150611d459050565b34610bbf575f366003190112610bbf577f00000000000000000000000000000000000000000000000000000000000000006001600160a01b03163003611e4b5760206040517f360894a13ba1a3210667c828492db98dca3e2076cc3735a920a3ca505d382bbc8152f35b60405163703e46dd60e11b8152600490fd5b34610bbf575f366003190112610bbf576020600354604051908152f35b34610bbf575f366003190112610bbf57611e92612e43565b60ff19600854166008557fab902d5e35692da6951814ae9cd62a7d029bf24a75023ad2a3cc2e83f6437b11604080515f8152426020820152a1005b34610bbf575f366003190112610bbf57610d4c611ee8612719565b604051918291602083526020830190612752565b6040366003190112610bbf57611f1061262d565b602490813567ffffffffffffffff8111610bbf5736602382011215610bbf57806004013591611f3e836126fd565b611f4b60405191826126db565b8381526020938482019336878383010111610bbf57815f92888893018737830101526001600160a01b037f000000000000000000000000000000000000000000000000000000000000000081163081149081156120f5575b50611e4b57611fb0612e43565b6040516352d1902d60e01b8152908316948082600481895afa9182915f936120c5575b5050611ff157604051634c9c8ce360e01b8152600481018690528690fd5b8490867f360894a13ba1a3210667c828492db98dca3e2076cc3735a920a3ca505d382bbc918281036120b05750843b1561209a575080546001600160a01b03191682179055604051907fbc7cd75a20ee27fd9adebab32041f755214dbc6bffa90cc0225b39da2e5c2d3b5f80a281511561208057505f61001e9381925190845af461207a61296b565b916137c1565b925050503461208b57005b63b398979f60e01b8152600490fd5b604051634c9c8ce360e01b815260048101849052fd5b60405190632a87526960e21b82526004820152fd5b9080929350813d83116120ee575b6120dd81836126db565b81010312610bbf5751908780611fd3565b503d6120d3565b9050817f360894a13ba1a3210667c828492db98dca3e2076cc3735a920a3ca505d382bbc5416141587611fa3565b34610bbf575f366003190112610bbf576020600554604051908152f35b34610bbf576020366003190112610bbf576024600435602060018060a01b03601254166040519384809263babcc53960e01b82523360048301525afa918215611b62575f926121e4575b506121b57fdcefbf936a5a84ea694d7c34335e03240bee5f52df414c3b11bc2d6cfd9f324592612813565b60025490806003556121df6040519283924291846040919493926060820195825260208201520152565b0390a1005b91506020823d60201161223b575b816121ff602093836126db565b81010312610bbf576121b56122347fdcefbf936a5a84ea694d7c34335e03240bee5f52df414c3b11bc2d6cfd9f324593612806565b925061218a565b3d91506121f2565b34610bbf575f366003190112610bbf576016546040516001600160a01b039091168152602090f35b34610bbf575f366003190112610bbf576016546122ba9060a0906001600160a01b0316612296612719565b90604051808095819463162ae29f60e11b8352602060048401526024830190612752565b03915afa8015611b62575f905f805f915f936122f3575b60a0955060405194855260208501526040840152606083015215156080820152f35b505050505060a0813d60a011612347575b8161231160a093836126db565b81010312610bbf578060a091519060208101519160408201519161233c608060608301519201612806565b9193929091926122d1565b3d9150612304565b34610bbf575f366003190112610bbf576020600654604051908152f35b34610bbf575f366003190112610bbf57602060ff600854166040519015158152f35b34610bbf576020366003190112610bbf576123a761262d565b600f545f916001600160a01b0390811690835b8381106123cc57602085604051908152f35b82826123d783612850565b90549060031b1c16146123ed575b6001016123ba565b936123f960019161289b565b9490506123e5565b34610bbf575f366003190112610bbf5760e0600954600a546001546124246128b6565b600b5442101590600f5492600c5494604051968752602087015260408601526060850152608084015260a083015260c0820152f35b34610bbf576020366003190112610bbf576020600c54604051908152f35b34610bbf576020366003190112610bbf57600435612493612e43565b80156124e5577fdcefbf936a5a84ea694d7c34335e03240bee5f52df414c3b11bc2d6cfd9f32459060025490806003556121df6040519283924291846040919493926060820195825260208201520152565b60405162461bcd60e51b815260206004820152602360248201527f5469636b6574207072696365206d75737420626520677265617465722074686160448201526206e20360ec1b6064820152608490fd5b34610bbf575f366003190112610bbf576020600254604051908152f35b34610bbf575f366003190112610bbf5760125460405163babcc53960e01b815233600482015290602090829060249082906001600160a01b03165afa8015611b62575f906125d8575b6125a69150612813565b6008805460ff81166125c05750805460ff19166001179055005b61ff0019811690821c60ff1615821b61ff0016179055005b506020813d60201161260b575b816125f2602093836126db565b81010312610bbf576126066125a691612806565b61259c565b3d91506125e5565b34610bbf575f366003190112610bbf57602090600d548152f35b600435906001600160a01b0382168203610bbf57565b67ffffffffffffffff811161265757604052565b634e487b7160e01b5f52604160045260245ffd5b60e0810190811067ffffffffffffffff82111761265757604052565b60a0810190811067ffffffffffffffff82111761265757604052565b6040810190811067ffffffffffffffff82111761265757604052565b6020810190811067ffffffffffffffff82111761265757604052565b90601f8019910116810190811067ffffffffffffffff82111761265757604052565b67ffffffffffffffff811161265757601f01601f191660200190565b60405190612726826126a3565b601982527f756e697175655f746573745f6c6f74746572795f3764617973000000000000006020830152565b91908251928382525f5b84811061277c575050825f602080949584010152601f8019910116010190565b60208183018101518483018201520161275c565b90600182811c921680156127be575b60208310146127aa57565b634e487b7160e01b5f52602260045260245ffd5b91607f169161279f565b906003821015611bac5752565b919360a093612804969298979560c08501998552602085015260408401526060830152608082015201906127c8565b565b51908115158203610bbf57565b1561281a57565b60405162461bcd60e51b815260206004820152600e60248201526d139bdd08185d5d1a1bdc9a5e995960921b6044820152606490fd5b600f5481101561287257600f5f525f8051602061395d83398151915201905f90565b634e487b7160e01b5f52603260045260245ffd5b8054821015612872575f5260205f2001905f90565b5f1981146116265760010190565b9190820391821161162657565b600b54804210156128cf576128cc9042906128a9565b90565b505f90565b81156128de570690565b634e487b7160e01b5f52601260045260245ffd5b906001820180921161162657565b9190820180921161162657565b6010544210158061291b5790565b5060ff600e54166003811015611bac5760021490565b81811061293c575050565b5f8155600101612931565b908115600183800414171561162657565b8181029291811591840414171561162657565b3d15612995573d9061297c826126fd565b9161298a60405193846126db565b82523d5f602084013e565b606090565b6001600160a01b039081169081156129f3575f8051602061391d83398151915280546001600160a01b031981168417909155167f8be0079c531659141344cd1fd0a4f28419497f9722a3daafe3b4186f6b6457e05f80a3565b604051631e4fbdf760e01b81525f6004820152602490fd5b5f5f8051602061393d8339815191526002815414611465576002815560ff600854161561142b5733156113ed576009600b5442101580612e38575b612e2b575b60ff60058201541692600380851015611bac576001809503612e19575b60ff60058401541681811015611bac57850361132557612a89600254612947565b34036112e7575f906006840193845492875f5b858110612de1575050612aae906128f2565b90600491825410612d92576016546001600160a01b0390811693612ad0612719565b94803b15610bbf575f612aff819260409889519485809481936308638fd160e01b83528c349133918501612e7b565b03925af18015612d8857612d75575b50808301612b1d348254612900565b90558451953487527fbec1a08e6dcd95f4cbb560bf9010af9efaf4b5b424d78d43652646cdc7726ec886602098426020820152a1848401612b5e81546128f2565b90558a908b895b858c848310612d47575b5050505050612cff575b50855b898110612c005750505493809554915f198301928311965b898110612ba657505050505050505055565b87612bed578087612bb88c9387612900565b875190815242898201527f96541f70da731142b18e96f1def4d2a7733deb7d784723106d52c1d906d4c67a883392a301612b94565b634e487b7160e01b835260118252602483fd5b8160145416855163afb2615960e01b8152338682015260249088818381865afa908115612cf5578d9493929186918c91612cd8575b5016158015612c48575b50505001612b7c565b612c6f575b505081600f5411612c61575b5f8080612c3f565b612c6a336134ba565b612c59565b90809293503b15612cd45788916044839289519485938492630b5c3f8760e01b8452828c85015233908401525af18015612cca578b9291899115612c4d57612cb991929350612643565b612cc6578990875f612c4d565b8680fd5b86513d8a823e3d90fd5b8880fd5b612cef91508b3d8d1161119f5761119181836126db565b5f612c35565b88513d8c823e3d90fd5b8754600160401b811015612d3457808b612d1c92018a5589612886565b81929154911b908333831b921b19161790555f612b79565b634e487b7160e01b885260418552602488fd5b82612d5191612886565b905490871b1c163314612d6657018c90612b65565b50505050865f8b81858c612b6f565b612d80919750612643565b5f955f612b0e565b86513d5f823e3d90fd5b60405162461bcd60e51b8152602081840152602260248201527f45786365656473206d6178696d756d207469636b6574732070657220706c617960448201526132b960f11b6064820152608490fd5b612deb8189612886565b905490861b1c6001600160a01b03163314612e09575b018890612a9c565b91612e139061289b565b91612e01565b9150612e23612f4a565b600991612a68565b612e33612ea7565b612a4b565b50600f541515612a46565b5f8051602061391d833981519152546001600160a01b03163303612e6357565b60405163118cdaa760e01b8152336004820152602490fd5b612e9360409295949395606083526060830190612752565b6001600160a01b0390951660208201520152565b600b544210612f0d57600260ff19600e541617600e556009547f46e59b25850fb5875ea16cb7de4c6866327eef1a3f4ff23c27b3c5ad811979dd6040805160028152426020820152a2600d54612f00575b612804612f4a565b612f086131cd565b612ef8565b60405162461bcd60e51b815260206004820152601560248201527411d85b59481d1a5b59481b9bdd08195e1c1a5c9959605a1b6044820152606490fd5b612f5261290d565b8015613198575b8015613180575b8015613176575b1561313157600d54613124575b60035480613117575b5060085460ff8160081c16613100575b5060095460019081810180911161162657612fa9825442612900565b604091825191612fb8836126bf565b5f83526020918360c08651612fcc8161266b565b83815242602082015284888201525f60608201525f60808201528860a0820152015260095542600a55600b555f600c555f600d558360ff19600e541617600e5581519167ffffffffffffffff831161265757600160401b831161265757602090600f5484600f558085106130dd575b500190600f5f52845f5b8481106130b55750505050507f46e59b25850fb5875ea16cb7de4c6866327eef1a3f4ff23c27b3c5ad811979dd90600b5460105560095492837fa2dfaa3573b86004ec9d4d4abe5068d942579c59da4da8cd0d9e45e71a393bc160208451428152a28151908152426020820152a2565b83516001600160a01b03165f8051602061395d83398151915282015592820192869101613045565b6130fa90855f8051602061395d8339815191529182019101612931565b5f61303b565b60ff80821615169061ffff1916176008555f612f8d565b6002555f6003555f612f7d565b61312c6131cd565b612f74565b60405162461bcd60e51b815260206004820152601960248201527f43616e6e6f74207374617274206e65772067616d6520796574000000000000006044820152606490fd5b5060095415612f67565b5060ff600e54166003811015611bac57600214612f60565b5060ff600e54166003811015611bac5715612f59565b90816020910312610bbf57516001600160a01b0381168103610bbf5790565b600f54600c549060018082036132f0575081600f541561287257600f5f525f8051602061395d8339815191525461320d91906001600160a01b0316613726565b5f915b61321983612850565b919060018060a01b03928391549060031b1c16915f600755601354166009549060ff5f541690803b15610bbf575f928360c492604051998a9586946306525fa960e01b86528a600487015260248601528a6044860152886064860152608485015260a48401525af1918215611b62576132dc946132d1936132e1575b50600954907f6e8dc1353ef256756a04b2d5c32fe12fa8d3a9633f52056cda478393a1b8c76560408051858152426020820152a3600554612900565b600555600654612900565b600655565b6132ea90612643565b5f613295565b5f1982810191838311611626578143019243841161162657613313600a9161289b565b9360405160208101914283524460408301524360608301524060808201526080815261333e81612687565b51902006818101809111611626576040516020810191825260208152613363816126a3565b51902083820180831161162657613379916128d4565b9282840193841161162657808411613471575b50808310613469575b508115611626575f8080809361340e9501966133c560646133bd60ff855460081c1684612958565b0480926128a9565b9586916133eb6133d48b612850565b90546001600160a01b03959160031b1c8516613726565b613405836133f88c612850565b90549060031b1c166134ba565b600754906128a9565b9060155416617530f161341f61296b565b506132105760405162461bcd60e51b815260206004820152601960248201527f46756e647320646973747269627574696f6e206661696c6564000000000000006044820152606490fd5b91505f613395565b92505f61338c565b60ff7ff0c57e16840df040f15088dc2f81fe391c3923bec73e23a9662efc9c229c6a005460401c16156134a857565b604051631afcd79f60e31b8152600490fd5b6014546040805163afb2615960e01b81526001600160a01b03808516600483015291949360209391929184908490602490829086165afa928315612d88575f93613707575b508183169081613513575b50505050509050565b61351c84613824565b80613528575b5061350a565b5f80808084875af161353861296b565b50156136c35782918161356e7f20e787dfda3ac1418c7882f60c18b94d602d3dd46995ea36ede0ae9938ae097593600754612900565b60075589516001600160a01b039290921682526020820152426040820152606090a283826014541691602488518094819362e9096960e11b835260048301525afa908115612d88575f916136a6575b501691826135ce575b808080613522565b6135d7826138ce565b90816135e4575b506135c6565b5f80808085885af16135f461296b565b501561366357506136567f74997e3673bd75508ed1fc7dbeb55d4888716d846e7f0b3fde9fd85824b0f6e293949561362e83600754612900565b600755516001600160a01b039093168352602083019190915242604083015281906060820190565b0390a2805f8080806135de565b60649086519062461bcd60e51b82526004820152601d60248201527f53616c657320706172746e6572207472616e73666572206661696c65640000006044820152fd5b6136bd9150843d861161119f5761119181836126db565b5f6135bd565b875162461bcd60e51b815260048101879052601760248201527f506172746e6572207472616e73666572206661696c65640000000000000000006044820152606490fd5b61371f919350843d861161119f5761119181836126db565b915f6134ff565b6016546001600160a01b03908116919061373e612719565b92803b15610bbf57845f91848361376c976040519889958694859363783b811560e11b855260048501612e7b565b03925af1918215611b62577f5cb16b96eae9e7321a2374725d21b09b310eac87d65cbdc13555123ecc31b49b936040936137b2575b5082519485524260208601521692a2565b6137bb90612643565b5f6137a1565b906137e857508051156137d657602081519101fd5b60405163d6bda27560e01b8152600490fd5b8151158061381b575b6137f9575090565b604051639996b31560e01b81526001600160a01b039091166004820152602490fd5b50803b156137f1565b60145460405163e09f455960e01b81526001600160a01b0392831660048201529160209183916024918391165afa908115611b62575f91613873575b5080156128cf5760ff6128cc91166138a5565b90506020813d60201161389d575b8161388e602093836126db565b81010312610bbf57515f613860565b3d9150613881565b6138ca60649160ff836138c1600254835f5460081c1690612958565b04911690612958565b0490565b6014546040516301a164f360e21b81526001600160a01b0392831660048201529160209183916024918391165afa908115611b62575f91613873575080156128cf5760ff6128cc91166138a556fe9016d09d72d40fdae2fd8ceac6b6234c7706214fd39c1cd1e609a0528c1993009b779b17422d0df92223018b32b4d1fa46e071723d6817e2486d003becc55f008d1108e10bcb7c27dddfc02ed9d693a074039d026cf4ea4240b40f7d581ac802a264697066735822122068a018b3e00b1ae6aa6b677b96abc43c450f8419e433089f9867b7cf42bc452464736f6c6343000816003360806040526102c8803803806100148161018e565b92833981019060408183031261018a5780516001600160a01b03811680820361018a5760208381015190936001600160401b03821161018a570184601f8201121561018a5780519061006d610068836101c7565b61018e565b9582875285838301011161018a5784905f5b8381106101765750505f9186010152813b1561015e577f360894a13ba1a3210667c828492db98dca3e2076cc3735a920a3ca505d382bbc80546001600160a01b03191682179055604051907fbc7cd75a20ee27fd9adebab32041f755214dbc6bffa90cc0225b39da2e5c2d3b5f80a283511561014057505f80848461012796519101845af4903d15610137573d610118610068826101c7565b9081525f81943d92013e6101e2565b505b604051608290816102468239f35b606092506101e2565b925050503461014f5750610129565b63b398979f60e01b8152600490fd5b60249060405190634c9c8ce360e01b82526004820152fd5b81810183015188820184015286920161007f565b5f80fd5b6040519190601f01601f191682016001600160401b038111838210176101b357604052565b634e487b7160e01b5f52604160045260245ffd5b6001600160401b0381116101b357601f01601f191660200190565b9061020957508051156101f757602081519101fd5b60405163d6bda27560e01b8152600490fd5b8151158061023c575b61021a575090565b604051639996b31560e01b81526001600160a01b039091166004820152602490fd5b50803b1561021256fe60806040527f360894a13ba1a3210667c828492db98dca3e2076cc3735a920a3ca505d382bbc545f9081906001600160a01b0316368280378136915af43d5f803e156048573d5ff35b3d5ffdfea26469706673582212202ea87594e6db5dbe552a5df04461ab4d6e81dd7abc6eafc0d55f438c998a8df864736f6c634300081600339016d09d72d40fdae2fd8ceac6b6234c7706214fd39c1cd1e609a0528c199300a2646970667358221220397baa6575a5870f3fa1ad2ec042a4097c55bd59a8ff4d832974c327371c2bb664736f6c63430008160033","linkReferences":{}},"methodIdentifiers":{"allGames(uint256)":"a0b55095","createGame(uint8)":"e580f6ab","deactivateGame(address)":"749a1ab7","fundsDistributor()":"74cb55fb","games(address)":"79131a19","getActiveGames()":"1b76929c","getGameInfo(address)":"0ea901d2","initialize(address,address,address,address,address)":"1459457a","ownable()":"b38854be","owner()":"8da5cb5b","referralSystem()":"a04e876c","renounceOwnership()":"715018a6","statsAggregator()":"be14462b","transferOwnership(address)":"f2fde38b"},"id":1}