{"abi":[{"type":"constructor","inputs":[],"stateMutability":"nonpayable"},{"type":"function","name":"checkRateLimit","inputs":[{"name":"user","type":"address","internalType":"address"},{"name":"functionName","type":"string","internalType":"string"}],"outputs":[{"name":"","type":"bool","internalType":"bool"}],"stateMutability":"nonpayable"},{"type":"function","name":"defaultMaxRequests","inputs":[],"outputs":[{"name":"","type":"uint256","internalType":"uint256"}],"stateMutability":"view"},{"type":"function","name":"defaultTimeWindow","inputs":[],"outputs":[{"name":"","type":"uint256","internalType":"uint256"}],"stateMutability":"view"},{"type":"function","name":"disableFunctionRateLimit","inputs":[{"name":"functionName","type":"string","internalType":"string"}],"outputs":[],"stateMutability":"nonpayable"},{"type":"function","name":"disableUserFunctionRateLimit","inputs":[{"name":"user","type":"address","internalType":"address"},{"name":"functionName","type":"string","internalType":"string"}],"outputs":[],"stateMutability":"nonpayable"},{"type":"function","name":"disableUserRateLimit","inputs":[{"name":"user","type":"address","internalType":"address"}],"outputs":[],"stateMutability":"nonpayable"},{"type":"function","name":"functionRateLimits","inputs":[{"name":"","type":"string","internalType":"string"}],"outputs":[{"name":"maxRequests","type":"uint256","internalType":"uint256"},{"name":"timeWindow","type":"uint256","internalType":"uint256"},{"name":"currentRequests","type":"uint256","internalType":"uint256"},{"name":"windowStart","type":"uint256","internalType":"uint256"},{"name":"isActive","type":"bool","internalType":"bool"}],"stateMutability":"view"},{"type":"function","name":"getFunctionRateLimitInfo","inputs":[{"name":"functionName","type":"string","internalType":"string"}],"outputs":[{"name":"isActive","type":"bool","internalType":"bool"},{"name":"currentRequests","type":"uint256","internalType":"uint256"},{"name":"maxRequests","type":"uint256","internalType":"uint256"},{"name":"timeWindow","type":"uint256","internalType":"uint256"}],"stateMutability":"view"},{"type":"function","name":"getUserFunctionRateLimitInfo","inputs":[{"name":"user","type":"address","internalType":"address"},{"name":"functionName","type":"string","internalType":"string"}],"outputs":[{"name":"isActive","type":"bool","internalType":"bool"},{"name":"currentRequests","type":"uint256","internalType":"uint256"},{"name":"maxRequests","type":"uint256","internalType":"uint256"},{"name":"timeWindow","type":"uint256","internalType":"uint256"}],"stateMutability":"view"},{"type":"function","name":"getUserRateLimitInfo","inputs":[{"name":"user","type":"address","internalType":"address"}],"outputs":[{"name":"isActive","type":"bool","internalType":"bool"},{"name":"currentRequests","type":"uint256","internalType":"uint256"},{"name":"maxRequests","type":"uint256","internalType":"uint256"},{"name":"timeWindow","type":"uint256","internalType":"uint256"}],"stateMutability":"view"},{"type":"function","name":"initialize","inputs":[{"name":"owner","type":"address","internalType":"address"}],"outputs":[],"stateMutability":"nonpayable"},{"type":"function","name":"owner","inputs":[],"outputs":[{"name":"","type":"address","internalType":"address"}],"stateMutability":"view"},{"type":"function","name":"rateLimitingEnabled","inputs":[],"outputs":[{"name":"","type":"bool","internalType":"bool"}],"stateMutability":"view"},{"type":"function","name":"renounceOwnership","inputs":[],"outputs":[],"stateMutability":"nonpayable"},{"type":"function","name":"setFunctionRateLimit","inputs":[{"name":"functionName","type":"string","internalType":"string"},{"name":"maxRequests","type":"uint256","internalType":"uint256"},{"name":"timeWindow","type":"uint256","internalType":"uint256"}],"outputs":[],"stateMutability":"nonpayable"},{"type":"function","name":"setUserFunctionRateLimit","inputs":[{"name":"user","type":"address","internalType":"address"},{"name":"functionName","type":"string","internalType":"string"},{"name":"maxRequests","type":"uint256","internalType":"uint256"},{"name":"timeWindow","type":"uint256","internalType":"uint256"}],"outputs":[],"stateMutability":"nonpayable"},{"type":"function","name":"setUserRateLimit","inputs":[{"name":"user","type":"address","internalType":"address"},{"name":"maxRequests","type":"uint256","internalType":"uint256"},{"name":"timeWindow","type":"uint256","internalType":"uint256"}],"outputs":[],"stateMutability":"nonpayable"},{"type":"function","name":"toggleRateLimiting","inputs":[],"outputs":[],"stateMutability":"nonpayable"},{"type":"function","name":"transferOwnership","inputs":[{"name":"newOwner","type":"address","internalType":"address"}],"outputs":[],"stateMutability":"nonpayable"},{"type":"function","name":"updateDefaultSettings","inputs":[{"name":"newMaxRequests","type":"uint256","internalType":"uint256"},{"name":"newTimeWindow","type":"uint256","internalType":"uint256"}],"outputs":[],"stateMutability":"nonpayable"},{"type":"function","name":"userFunctionRateLimits","inputs":[{"name":"","type":"address","internalType":"address"},{"name":"","type":"string","internalType":"string"}],"outputs":[{"name":"maxRequests","type":"uint256","internalType":"uint256"},{"name":"timeWindow","type":"uint256","internalType":"uint256"},{"name":"currentRequests","type":"uint256","internalType":"uint256"},{"name":"windowStart","type":"uint256","internalType":"uint256"},{"name":"isActive","type":"bool","internalType":"bool"}],"stateMutability":"view"},{"type":"function","name":"userRateLimits","inputs":[{"name":"","type":"address","internalType":"address"}],"outputs":[{"name":"maxRequests","type":"uint256","internalType":"uint256"},{"name":"timeWindow","type":"uint256","internalType":"uint256"},{"name":"currentRequests","type":"uint256","internalType":"uint256"},{"name":"windowStart","type":"uint256","internalType":"uint256"},{"name":"isActive","type":"bool","internalType":"bool"}],"stateMutability":"view"},{"type":"event","name":"Initialized","inputs":[{"name":"version","type":"uint64","indexed":false,"internalType":"uint64"}],"anonymous":false},{"type":"event","name":"OwnershipTransferred","inputs":[{"name":"previousOwner","type":"address","indexed":true,"internalType":"address"},{"name":"newOwner","type":"address","indexed":true,"internalType":"address"}],"anonymous":false},{"type":"event","name":"RateLimitCreated","inputs":[{"name":"user","type":"address","indexed":true,"internalType":"address"},{"name":"functionName","type":"string","indexed":true,"internalType":"string"},{"name":"maxRequests","type":"uint256","indexed":false,"internalType":"uint256"},{"name":"timeWindow","type":"uint256","indexed":false,"internalType":"uint256"},{"name":"timestamp","type":"uint256","indexed":false,"internalType":"uint256"}],"anonymous":false},{"type":"event","name":"RateLimitExceededEvent","inputs":[{"name":"user","type":"address","indexed":true,"internalType":"address"},{"name":"functionName","type":"string","indexed":true,"internalType":"string"},{"name":"timestamp","type":"uint256","indexed":false,"internalType":"uint256"}],"anonymous":false},{"type":"event","name":"RateLimitUpdated","inputs":[{"name":"user","type":"address","indexed":true,"internalType":"address"},{"name":"functionName","type":"string","indexed":true,"internalType":"string"},{"name":"oldMax","type":"uint256","indexed":false,"internalType":"uint256"},{"name":"newMax","type":"uint256","indexed":false,"internalType":"uint256"},{"name":"timestamp","type":"uint256","indexed":false,"internalType":"uint256"}],"anonymous":false},{"type":"event","name":"RateLimitingToggled","inputs":[{"name":"enabled","type":"bool","indexed":false,"internalType":"bool"},{"name":"timestamp","type":"uint256","indexed":false,"internalType":"uint256"}],"anonymous":false},{"type":"error","name":"InvalidInitialization","inputs":[]},{"type":"error","name":"InvalidMaxRequests","inputs":[]},{"type":"error","name":"InvalidTimeWindow","inputs":[]},{"type":"error","name":"NotInitializing","inputs":[]},{"type":"error","name":"OwnableInvalidOwner","inputs":[{"name":"owner","type":"address","internalType":"address"}]},{"type":"error","name":"OwnableUnauthorizedAccount","inputs":[{"name":"account","type":"address","internalType":"address"}]},{"type":"error","name":"RateLimitExceeded","inputs":[]}],"bytecode":{"object":"0x60806040526064600455610e1060055534801561001a575f80fd5b50610023610028565b6100da565b7ff0c57e16840df040f15088dc2f81fe391c3923bec73e23a9662efc9c229c6a00805468010000000000000000900460ff16156100785760405163f92ee8a960e01b815260040160405180910390fd5b80546001600160401b03908116146100d75780546001600160401b0319166001600160401b0390811782556040519081527fc7f505b2f371ae2175ee4913f4499e1f2633a7b5936321eed1cdaeb6115181d29060200160405180910390a15b50565b611226806100e75f395ff3fe608060405234801561000f575f80fd5b506004361061013d575f3560e01c8063831b61c9116100b4578063c4d66de811610079578063c4d66de814610395578063cbf56bac146103a8578063d0e64d07146103bb578063d8106e0a146103c4578063e8c6e474146103d7578063f2fde38b14610416575f80fd5b8063831b61c91461030557806384409670146103185780638da5cb5b14610335578063abc65f591461036f578063b6c80faa14610382575f80fd5b8063246bb5a511610105578063246bb5a51461022f57806340f3ca7c14610289578063499d3c54146102cb5780634dbb15e4146102e2578063715018a6146102ea57806379ac3a65146102f2575f80fd5b806307d64b86146101415780631864b21a146101565780631b7bd2b8146101d45780631bcee25d146101e75780631f1ea46c1461021c575b5f80fd5b61015461014f366004610e95565b610429565b005b6101a5610164366004610f7f565b805160208183018101805160018083529383019290940191909120929052815490820154600283015460038401546004909401549293919290919060ff1685565b6040805195865260208601949094529284019190915260608301521515608082015260a0015b60405180910390f35b6101546101e2366004610fd4565b61053a565b6101fa6101f5366004611004565b6105d5565b60408051941515855260208501939093529183015260608201526080016101cb565b61015461022a366004611053565b61063d565b6101a561023d3660046110b3565b600260208181525f938452604090932082518084018501805192815290850193909401929092209190925280546001820154928201546003830154600490930154919392909160ff1685565b6101fa6102973660046110fe565b6001600160a01b03165f90815260208190526040902060048101546002820154825460019093015460ff9092169390929190565b6102d460045481565b6040519081526020016101cb565b610154610762565b6101546107be565b610154610300366004611004565b6107d1565b610154610313366004611117565b610828565b6003546103259060ff1681565b60405190151581526020016101cb565b7f9016d09d72d40fdae2fd8ceac6b6234c7706214fd39c1cd1e609a0528c199300546040516001600160a01b0390911681526020016101cb565b61032561037d366004611004565b61086a565b6101546103903660046110fe565b6109e1565b6101546103a33660046110fe565b610a0c565b6101fa6103b6366004611117565b610b12565b6102d460055481565b6101546103d2366004611156565b610b62565b6101a56103e53660046110fe565b5f60208190529081526040902080546001820154600283015460038401546004909401549293919290919060ff1685565b6101546104243660046110fe565b610bb5565b610431610bf7565b815f036104515760405163a68b37c160e01b815260040160405180910390fd5b805f036104715760405163b11cd48160e01b815260040160405180910390fd5b6040518060a001604052808381526020018281526020015f815260200142815260200160011515815250600185856040516104ad929190611176565b908152604080516020928190038301812084518155848401516001820155848301516002820155606085015160038201556080909401516004909401805460ff191694151594909417909355601f86018290048202830182019052848252610534915f9187908790819084018382808284375f92019190915250879250869150610c529050565b50505050565b610542610bf7565b61054c8282610cb8565b6040805160a08101825283815260208082018481525f83850181815242606086019081526001608087018181526001600160a01b038c168552848752888520975188559451908701559051600286015551600385015590516004909301805460ff191693151593909317909255825190810190925281526105d09084908484610c52565b505050565b6001600160a01b0383165f90815260026020526040808220905182918291829182916106049089908990611176565b90815260405190819003602001902060048101546002820154825460019093015460ff9092169750955090935091505093509350935093565b610645610bf7565b815f036106655760405163a68b37c160e01b815260040160405180910390fd5b805f036106855760405163b11cd48160e01b815260040160405180910390fd5b6040805160a08101825283815260208082018490525f828401819052426060840152600160808401526001600160a01b0389168152600290915282902091519091906106d49087908790611176565b908152604080516020928190038301812084518155848401516001820155848301516002820155606085015160038201556080909401516004909401805460ff191694151594909417909355601f8601829004820283018201905284825261075b91879187908790819084018382808284375f92019190915250879250869150610c529050565b5050505050565b61076a610bf7565b6003805460ff8082161560ff1990921682179092556040805191909216151581524260208201527f9803d73da696e537f95d852db94c1529f9efb78e705c87500a979fc4b535251e910160405180910390a1565b6107c6610bf7565b6107cf5f610cfc565b565b6107d9610bf7565b6001600160a01b0383165f9081526002602052604080822090516108009085908590611176565b908152604051908190036020019020600401805491151560ff19909216919091179055505050565b610830610bf7565b5f60018383604051610843929190611176565b908152604051908190036020019020600401805491151560ff199092169190911790555050565b6003545f9060ff1661087e575060016109da565b6001600160a01b0384165f90815260208190526040902060048101546001919060ff16156108ba578180156108b757506108b781610d6c565b91505b5f600186866040516108cd929190611176565b908152604051908190036020019020600481015490915060ff1615610900578280156108fd57506108fd81610d6c565b92505b6001600160a01b0387165f9081526002602052604080822090516109279089908990611176565b908152604051908190036020019020600481015490915060ff161561095a57838015610957575061095781610d6c565b93505b836109d357868660405161096f929190611176565b6040518091039020886001600160a01b03167f60499ab85da7eb3f2b18f1d06c29f0ff86068ac4e74058139097f79a8a625514426040516109b291815260200190565b60405180910390a360405163a74c1c5f60e01b815260040160405180910390fd5b5091925050505b9392505050565b6109e9610bf7565b6001600160a01b03165f908152602081905260409020600401805460ff19169055565b5f610a15610dcf565b805490915060ff600160401b820416159067ffffffffffffffff165f81158015610a3c5750825b90505f8267ffffffffffffffff166001148015610a585750303b155b905081158015610a66575080155b15610a845760405163f92ee8a960e01b815260040160405180910390fd5b845467ffffffffffffffff191660011785558315610aae57845460ff60401b1916600160401b1785555b610ab786610df9565b6003805460ff191660011790558315610b0a57845460ff60401b19168555604051600181527fc7f505b2f371ae2175ee4913f4499e1f2633a7b5936321eed1cdaeb6115181d29060200160405180910390a15b505050505050565b5f805f805f60018787604051610b29929190611176565b90815260405190819003602001902060048101546002820154825460019093015460ff9092169750955090935091505092959194509250565b610b6a610bf7565b815f03610b8a5760405163a68b37c160e01b815260040160405180910390fd5b805f03610baa5760405163b11cd48160e01b815260040160405180910390fd5b600491909155600555565b610bbd610bf7565b6001600160a01b038116610beb57604051631e4fbdf760e01b81525f60048201526024015b60405180910390fd5b610bf481610cfc565b50565b33610c297f9016d09d72d40fdae2fd8ceac6b6234c7706214fd39c1cd1e609a0528c199300546001600160a01b031690565b6001600160a01b0316146107cf5760405163118cdaa760e01b8152336004820152602401610be2565b82604051610c609190611185565b60408051918290038220848352602083018490524283830152905190916001600160a01b038716917f6e80061b019a272cef2f977ce057da19276adaccdcf45c52db3006556a85463b9181900360600190a350505050565b815f03610cd85760405163a68b37c160e01b815260040160405180910390fd5b805f03610cf85760405163b11cd48160e01b815260040160405180910390fd5b5050565b7f9016d09d72d40fdae2fd8ceac6b6234c7706214fd39c1cd1e609a0528c19930080546001600160a01b031981166001600160a01b03848116918217845560405192169182907f8be0079c531659141344cd1fd0a4f28419497f9722a3daafe3b4186f6b6457e0905f90a3505050565b5f81600101548260030154610d8191906111c5565b4210610d9e57506001600282018190554260039092019190915590565b8154600283015410610db157505f919050565b600282018054905f610dc2836111d8565b9091555060019392505050565b5f807ff0c57e16840df040f15088dc2f81fe391c3923bec73e23a9662efc9c229c6a005b92915050565b610e01610e0a565b610bf481610e2f565b610e12610e37565b6107cf57604051631afcd79f60e31b815260040160405180910390fd5b610bbd610e0a565b5f610e40610dcf565b54600160401b900460ff16919050565b5f8083601f840112610e60575f80fd5b50813567ffffffffffffffff811115610e77575f80fd5b602083019150836020828501011115610e8e575f80fd5b9250929050565b5f805f8060608587031215610ea8575f80fd5b843567ffffffffffffffff811115610ebe575f80fd5b610eca87828801610e50565b90989097506020870135966040013595509350505050565b634e487b7160e01b5f52604160045260245ffd5b5f82601f830112610f05575f80fd5b813567ffffffffffffffff80821115610f2057610f20610ee2565b604051601f8301601f19908116603f01168101908282118183101715610f4857610f48610ee2565b81604052838152866020858801011115610f60575f80fd5b836020870160208301375f602085830101528094505050505092915050565b5f60208284031215610f8f575f80fd5b813567ffffffffffffffff811115610fa5575f80fd5b610fb184828501610ef6565b949350505050565b80356001600160a01b0381168114610fcf575f80fd5b919050565b5f805f60608486031215610fe6575f80fd5b610fef84610fb9565b95602085013595506040909401359392505050565b5f805f60408486031215611016575f80fd5b61101f84610fb9565b9250602084013567ffffffffffffffff81111561103a575f80fd5b61104686828701610e50565b9497909650939450505050565b5f805f805f60808688031215611067575f80fd5b61107086610fb9565b9450602086013567ffffffffffffffff81111561108b575f80fd5b61109788828901610e50565b9699909850959660408101359660609091013595509350505050565b5f80604083850312156110c4575f80fd5b6110cd83610fb9565b9150602083013567ffffffffffffffff8111156110e8575f80fd5b6110f485828601610ef6565b9150509250929050565b5f6020828403121561110e575f80fd5b6109da82610fb9565b5f8060208385031215611128575f80fd5b823567ffffffffffffffff81111561113e575f80fd5b61114a85828601610e50565b90969095509350505050565b5f8060408385031215611167575f80fd5b50508035926020909101359150565b818382375f9101908152919050565b5f82515f5b818110156111a4576020818601810151858301520161118a565b505f920191825250919050565b634e487b7160e01b5f52601160045260245ffd5b80820180821115610df357610df36111b1565b5f600182016111e9576111e96111b1565b506001019056fea2646970667358221220adfc77ee9946cff8673b80c5e860921ae162b618f29ddcc3ffd7588dad3fc64c64736f6c63430008160033","linkReferences":{}},"methodIdentifiers":{"checkRateLimit(address,string)":"abc65f59","defaultMaxRequests()":"499d3c54","defaultTimeWindow()":"d0e64d07","disableFunctionRateLimit(string)":"831b61c9","disableUserFunctionRateLimit(address,string)":"79ac3a65","disableUserRateLimit(address)":"b6c80faa","functionRateLimits(string)":"1864b21a","getFunctionRateLimitInfo(string)":"cbf56bac","getUserFunctionRateLimitInfo(address,string)":"1bcee25d","getUserRateLimitInfo(address)":"40f3ca7c","initialize(address)":"c4d66de8","owner()":"8da5cb5b","rateLimitingEnabled()":"84409670","renounceOwnership()":"715018a6","setFunctionRateLimit(string,uint256,uint256)":"07d64b86","setUserFunctionRateLimit(address,string,uint256,uint256)":"1f1ea46c","setUserRateLimit(address,uint256,uint256)":"1b7bd2b8","toggleRateLimiting()":"4dbb15e4","transferOwnership(address)":"f2fde38b","updateDefaultSettings(uint256,uint256)":"d8106e0a","userFunctionRateLimits(address,string)":"246bb5a5","userRateLimits(address)":"e8c6e474"},"storageLayout":{"storage":[{"astId":22149,"contract":"contracts/shared/utils/RateLimiter.sol:RateLimiter","label":"userRateLimits","offset":0,"slot":"0","type":"t_mapping(t_address,t_struct(RateLimit)22143_storage)"},{"astId":22155,"contract":"contracts/shared/utils/RateLimiter.sol:RateLimiter","label":"functionRateLimits","offset":0,"slot":"1","type":"t_mapping(t_string_memory_ptr,t_struct(RateLimit)22143_storage)"},{"astId":22163,"contract":"contracts/shared/utils/RateLimiter.sol:RateLimiter","label":"userFunctionRateLimits","offset":0,"slot":"2","type":"t_mapping(t_address,t_mapping(t_string_memory_ptr,t_struct(RateLimit)22143_storage))"},{"astId":22166,"contract":"contracts/shared/utils/RateLimiter.sol:RateLimiter","label":"rateLimitingEnabled","offset":0,"slot":"3","type":"t_bool"},{"astId":22170,"contract":"contracts/shared/utils/RateLimiter.sol:RateLimiter","label":"defaultMaxRequests","offset":0,"slot":"4","type":"t_uint256"},{"astId":22174,"contract":"contracts/shared/utils/RateLimiter.sol:RateLimiter","label":"defaultTimeWindow","offset":0,"slot":"5","type":"t_uint256"}],"types":{"t_address":{"encoding":"inplace","label":"address","numberOfBytes":"20"},"t_bool":{"encoding":"inplace","label":"bool","numberOfBytes":"1"},"t_mapping(t_address,t_mapping(t_string_memory_ptr,t_struct(RateLimit)22143_storage))":{"encoding":"mapping","key":"t_address","label":"mapping(address => mapping(string => struct RateLimiter.RateLimit))","numberOfBytes":"32","value":"t_mapping(t_string_memory_ptr,t_struct(RateLimit)22143_storage)"},"t_mapping(t_address,t_struct(RateLimit)22143_storage)":{"encoding":"mapping","key":"t_address","label":"mapping(address => struct RateLimiter.RateLimit)","numberOfBytes":"32","value":"t_struct(RateLimit)22143_storage"},"t_mapping(t_string_memory_ptr,t_struct(RateLimit)22143_storage)":{"encoding":"mapping","key":"t_string_memory_ptr","label":"mapping(string => struct RateLimiter.RateLimit)","numberOfBytes":"32","value":"t_struct(RateLimit)22143_storage"},"t_string_memory_ptr":{"encoding":"bytes","label":"string","numberOfBytes":"32"},"t_struct(RateLimit)22143_storage":{"encoding":"inplace","label":"struct RateLimiter.RateLimit","numberOfBytes":"160","members":[{"astId":22134,"contract":"contracts/shared/utils/RateLimiter.sol:RateLimiter","label":"maxRequests","offset":0,"slot":"0","type":"t_uint256"},{"astId":22136,"contract":"contracts/shared/utils/RateLimiter.sol:RateLimiter","label":"timeWindow","offset":0,"slot":"1","type":"t_uint256"},{"astId":22138,"contract":"contracts/shared/utils/RateLimiter.sol:RateLimiter","label":"currentRequests","offset":0,"slot":"2","type":"t_uint256"},{"astId":22140,"contract":"contracts/shared/utils/RateLimiter.sol:RateLimiter","label":"windowStart","offset":0,"slot":"3","type":"t_uint256"},{"astId":22142,"contract":"contracts/shared/utils/RateLimiter.sol:RateLimiter","label":"isActive","offset":0,"slot":"4","type":"t_bool"}]},"t_uint256":{"encoding":"inplace","label":"uint256","numberOfBytes":"32"}}},"id":48}