{"abi":[{"type":"constructor","inputs":[],"stateMutability":"nonpayable"},{"type":"function","name":"blacklistAddress","inputs":[{"name":"target","type":"address","internalType":"address"}],"outputs":[],"stateMutability":"nonpayable"},{"type":"function","name":"blacklistedAddresses","inputs":[{"name":"","type":"address","internalType":"address"}],"outputs":[{"name":"","type":"bool","internalType":"bool"}],"stateMutability":"view"},{"type":"function","name":"canInteract","inputs":[{"name":"user","type":"address","internalType":"address"}],"outputs":[{"name":"","type":"bool","internalType":"bool"}],"stateMutability":"view"},{"type":"function","name":"detectSuspiciousActivity","inputs":[{"name":"user","type":"address","internalType":"address"},{"name":"reason","type":"string","internalType":"string"}],"outputs":[],"stateMutability":"nonpayable"},{"type":"function","name":"getUserStats","inputs":[{"name":"user","type":"address","internalType":"address"}],"outputs":[{"name":"userIsBlacklisted","type":"bool","internalType":"bool"},{"name":"lastInteraction","type":"uint256","internalType":"uint256"},{"name":"userInteractionCount","type":"uint256","internalType":"uint256"},{"name":"minInterval","type":"uint256","internalType":"uint256"},{"name":"maxInteractions","type":"uint256","internalType":"uint256"}],"stateMutability":"view"},{"type":"function","name":"initialize","inputs":[{"name":"owner","type":"address","internalType":"address"}],"outputs":[],"stateMutability":"nonpayable"},{"type":"function","name":"interactionCount","inputs":[{"name":"","type":"address","internalType":"address"}],"outputs":[{"name":"","type":"uint256","internalType":"uint256"}],"stateMutability":"view"},{"type":"function","name":"isBlacklisted","inputs":[{"name":"target","type":"address","internalType":"address"}],"outputs":[{"name":"","type":"bool","internalType":"bool"}],"stateMutability":"view"},{"type":"function","name":"lastInteractionTime","inputs":[{"name":"","type":"address","internalType":"address"}],"outputs":[{"name":"","type":"uint256","internalType":"uint256"}],"stateMutability":"view"},{"type":"function","name":"maxInteractionsPerHour","inputs":[],"outputs":[{"name":"","type":"uint256","internalType":"uint256"}],"stateMutability":"view"},{"type":"function","name":"minInteractionInterval","inputs":[],"outputs":[{"name":"","type":"uint256","internalType":"uint256"}],"stateMutability":"view"},{"type":"function","name":"owner","inputs":[],"outputs":[{"name":"","type":"address","internalType":"address"}],"stateMutability":"view"},{"type":"function","name":"recordInteraction","inputs":[{"name":"user","type":"address","internalType":"address"}],"outputs":[{"name":"","type":"bool","internalType":"bool"}],"stateMutability":"nonpayable"},{"type":"function","name":"renounceOwnership","inputs":[],"outputs":[],"stateMutability":"nonpayable"},{"type":"function","name":"transferOwnership","inputs":[{"name":"newOwner","type":"address","internalType":"address"}],"outputs":[],"stateMutability":"nonpayable"},{"type":"function","name":"updateRateLimits","inputs":[{"name":"newMinInterval","type":"uint256","internalType":"uint256"},{"name":"newMaxInteractions","type":"uint256","internalType":"uint256"}],"outputs":[],"stateMutability":"nonpayable"},{"type":"function","name":"whitelistAddress","inputs":[{"name":"target","type":"address","internalType":"address"}],"outputs":[],"stateMutability":"nonpayable"},{"type":"event","name":"AddressBlacklisted","inputs":[{"name":"target","type":"address","indexed":true,"internalType":"address"},{"name":"timestamp","type":"uint256","indexed":false,"internalType":"uint256"}],"anonymous":false},{"type":"event","name":"AddressWhitelisted","inputs":[{"name":"target","type":"address","indexed":true,"internalType":"address"},{"name":"timestamp","type":"uint256","indexed":false,"internalType":"uint256"}],"anonymous":false},{"type":"event","name":"Initialized","inputs":[{"name":"version","type":"uint64","indexed":false,"internalType":"uint64"}],"anonymous":false},{"type":"event","name":"OwnershipTransferred","inputs":[{"name":"previousOwner","type":"address","indexed":true,"internalType":"address"},{"name":"newOwner","type":"address","indexed":true,"internalType":"address"}],"anonymous":false},{"type":"event","name":"RateLimitUpdated","inputs":[{"name":"oldMinInterval","type":"uint256","indexed":false,"internalType":"uint256"},{"name":"newMinInterval","type":"uint256","indexed":false,"internalType":"uint256"},{"name":"oldMaxInteractions","type":"uint256","indexed":false,"internalType":"uint256"},{"name":"newMaxInteractions","type":"uint256","indexed":false,"internalType":"uint256"}],"anonymous":false},{"type":"event","name":"SuspiciousActivityDetected","inputs":[{"name":"account","type":"address","indexed":true,"internalType":"address"},{"name":"reason","type":"string","indexed":false,"internalType":"string"},{"name":"timestamp","type":"uint256","indexed":false,"internalType":"uint256"}],"anonymous":false},{"type":"error","name":"AddressIsBlacklisted","inputs":[]},{"type":"error","name":"AddressNotBlacklisted","inputs":[]},{"type":"error","name":"CannotBlacklistZeroAddress","inputs":[]},{"type":"error","name":"InteractionTooFrequent","inputs":[]},{"type":"error","name":"InvalidInitialization","inputs":[]},{"type":"error","name":"InvalidRateLimitParameters","inputs":[]},{"type":"error","name":"NotInitializing","inputs":[]},{"type":"error","name":"OwnableInvalidOwner","inputs":[{"name":"owner","type":"address","internalType":"address"}]},{"type":"error","name":"OwnableUnauthorizedAccount","inputs":[{"name":"account","type":"address","internalType":"address"}]},{"type":"error","name":"TooManyInteractionsPerHour","inputs":[]}],"bytecode":{"object":"0x608060405260016003556064600455348015610019575f80fd5b50610022610027565b6100d9565b7ff0c57e16840df040f15088dc2f81fe391c3923bec73e23a9662efc9c229c6a00805468010000000000000000900460ff16156100775760405163f92ee8a960e01b815260040160405180910390fd5b80546001600160401b03908116146100d65780546001600160401b0319166001600160401b0390811782556040519081527fc7f505b2f371ae2175ee4913f4499e1f2633a7b5936321eed1cdaeb6115181d29060200160405180910390a15b50565b610b4f806100e65f395ff3fe608060405234801561000f575f80fd5b5060043610610106575f3560e01c80638da5cb5b1161009e578063f2fde38b1161006e578063f2fde38b14610298578063f3290d75146102ab578063f36d5fb4146102be578063fe436c53146102dd578063fe575a87146102f0575f80fd5b80638da5cb5b146102165780638f0591d314610250578063c4d66de814610263578063d5749d4214610276575f80fd5b80634e43603a116100d95780634e43603a146101715780636b89552c146101e6578063715018a6146101ef57806378946ae7146101f7575f80fd5b80631044af151461010a5780631d27db84146101325780631d423b6314610147578063415665851461015e575b5f80fd5b61011d6101183660046109d4565b61031b565b60405190151581526020015b60405180910390f35b6101456101403660046109f4565b6103a7565b005b61015060045481565b604051908152602001610129565b61014561016c3660046109d4565b6103f1565b6101bc61017f3660046109d4565b6001600160a01b03165f90815260208181526040808320546001835281842054600290935292205460035460045460ff9094169492939192909190565b6040805195151586526020860194909452928401919091526060830152608082015260a001610129565b61015060035481565b610145610486565b6101506102053660046109d4565b60016020525f908152604090205481565b7f9016d09d72d40fdae2fd8ceac6b6234c7706214fd39c1cd1e609a0528c199300546040516001600160a01b039091168152602001610129565b61014561025e366004610a70565b610499565b6101456102713660046109d4565b610541565b61011d6102843660046109d4565b5f6020819052908152604090205460ff1681565b6101456102a63660046109d4565b61063a565b6101456102b93660046109d4565b61067c565b6101506102cc3660046109d4565b60026020525f908152604090205481565b61011d6102eb3660046109d4565b6106ff565b61011d6102fe3660046109d4565b6001600160a01b03165f9081526020819052604090205460ff1690565b6001600160a01b0381165f9081526020819052604081205460ff16156103545760405163a646c2d360e01b815260040160405180910390fd5b6001600160a01b0382165f90815260016020526040902054429061037882826107a4565b6103838483836107d5565b506001600160a01b039092165f908152600160208190526040909120929092555090565b826001600160a01b03167f10be6d28e3be81f22dca98ef8b8af634156562a64c81fe9050c73a2a0d7f64918383426040516103e493929190610a90565b60405180910390a2505050565b6103f961086d565b6001600160a01b0381165f9081526020819052604090205460ff166104315760405163100c679760e21b815260040160405180910390fd5b6001600160a01b0381165f8181526020818152604091829020805460ff1916905590514281527fa11cc21b0ad957c5712c33442823fc681b65eff6b567cd247273afd1fe2e647891015b60405180910390a250565b61048e61086d565b6104975f6108c8565b565b6104a161086d565b815f036104c15760405163674e8ef360e01b815260040160405180910390fd5b805f036104e15760405163674e8ef360e01b815260040160405180910390fd5b6003805460048054928590558390556040805182815260208101869052908101839052606081018490529091907fec48fc0f3bc64460835f83ce9c7600af2cd997a7ce7350429a8304cf6116cf289060800160405180910390a150505050565b5f61054a610938565b805490915060ff600160401b820416159067ffffffffffffffff165f811580156105715750825b90505f8267ffffffffffffffff16600114801561058d5750303b155b90508115801561059b575080155b156105b95760405163f92ee8a960e01b815260040160405180910390fd5b845467ffffffffffffffff1916600117855583156105e357845460ff60401b1916600160401b1785555b6105ec86610962565b831561063257845460ff60401b19168555604051600181527fc7f505b2f371ae2175ee4913f4499e1f2633a7b5936321eed1cdaeb6115181d29060200160405180910390a15b505050505050565b61064261086d565b6001600160a01b03811661067057604051631e4fbdf760e01b81525f60048201526024015b60405180910390fd5b610679816108c8565b50565b61068461086d565b6001600160a01b0381166106ab5760405163097e36a760e11b815260040160405180910390fd5b6001600160a01b0381165f8181526020819052604090819020805460ff19166001179055517f1d2c7e6b911a4ad6c07d780ccd7e533749bff42c2b1d161c21f3fc7c830eb2cc9061047b9042815260200190565b6001600160a01b0381165f9081526020819052604081205460ff161561072657505f919050565b6001600160a01b0382165f9081526001602052604090205460035442919061074e9082610adb565b82101561075e57505f9392505050565b610e1061076b8284610aee565b101561079a576004546001600160a01b0385165f908152600260205260409020541061079a57505f9392505050565b5060019392505050565b6003546107b19082610adb565b8210156107d15760405163680c205160e01b815260040160405180910390fd5b5050565b610e106107e28284610aee565b106108055750506001600160a01b03165f90815260026020526040902060019055565b6001600160a01b0383165f908152600260205260408120805490919061082a90610b01565b909155506004546001600160a01b0384165f9081526002602052604090205411156108685760405163367cba3360e01b815260040160405180910390fd5b505050565b3361089f7f9016d09d72d40fdae2fd8ceac6b6234c7706214fd39c1cd1e609a0528c199300546001600160a01b031690565b6001600160a01b0316146104975760405163118cdaa760e01b8152336004820152602401610667565b7f9016d09d72d40fdae2fd8ceac6b6234c7706214fd39c1cd1e609a0528c19930080546001600160a01b031981166001600160a01b03848116918217845560405192169182907f8be0079c531659141344cd1fd0a4f28419497f9722a3daafe3b4186f6b6457e0905f90a3505050565b5f807ff0c57e16840df040f15088dc2f81fe391c3923bec73e23a9662efc9c229c6a005b92915050565b61096a610973565b61067981610998565b61097b6109a0565b61049757604051631afcd79f60e31b815260040160405180910390fd5b610642610973565b5f6109a9610938565b54600160401b900460ff16919050565b80356001600160a01b03811681146109cf575f80fd5b919050565b5f602082840312156109e4575f80fd5b6109ed826109b9565b9392505050565b5f805f60408486031215610a06575f80fd5b610a0f846109b9565b9250602084013567ffffffffffffffff80821115610a2b575f80fd5b818601915086601f830112610a3e575f80fd5b813581811115610a4c575f80fd5b876020828501011115610a5d575f80fd5b6020830194508093505050509250925092565b5f8060408385031215610a81575f80fd5b50508035926020909101359150565b60408152826040820152828460608301375f606084830101525f6060601f19601f8601168301019050826020830152949350505050565b634e487b7160e01b5f52601160045260245ffd5b8082018082111561095c5761095c610ac7565b8181038181111561095c5761095c610ac7565b5f60018201610b1257610b12610ac7565b506001019056fea264697066735822122099c16db4747dc2fbe5dcea774e63ce0fe8d86b99648ac48276f704af86d858a664736f6c63430008160033","linkReferences":{}},"methodIdentifiers":{"blacklistAddress(address)":"f3290d75","blacklistedAddresses(address)":"d5749d42","canInteract(address)":"fe436c53","detectSuspiciousActivity(address,string)":"1d27db84","getUserStats(address)":"4e43603a","initialize(address)":"c4d66de8","interactionCount(address)":"f36d5fb4","isBlacklisted(address)":"fe575a87","lastInteractionTime(address)":"78946ae7","maxInteractionsPerHour()":"1d423b63","minInteractionInterval()":"6b89552c","owner()":"8da5cb5b","recordInteraction(address)":"1044af15","renounceOwnership()":"715018a6","transferOwnership(address)":"f2fde38b","updateRateLimits(uint256,uint256)":"8f0591d3","whitelistAddress(address)":"41566585"},"storageLayout":{"storage":[{"astId":22829,"contract":"contracts/shared/utils/SecurityUtils.sol:SecurityUtils","label":"blacklistedAddresses","offset":0,"slot":"0","type":"t_mapping(t_address,t_bool)"},{"astId":22834,"contract":"contracts/shared/utils/SecurityUtils.sol:SecurityUtils","label":"lastInteractionTime","offset":0,"slot":"1","type":"t_mapping(t_address,t_uint256)"},{"astId":22839,"contract":"contracts/shared/utils/SecurityUtils.sol:SecurityUtils","label":"interactionCount","offset":0,"slot":"2","type":"t_mapping(t_address,t_uint256)"},{"astId":22843,"contract":"contracts/shared/utils/SecurityUtils.sol:SecurityUtils","label":"minInteractionInterval","offset":0,"slot":"3","type":"t_uint256"},{"astId":22847,"contract":"contracts/shared/utils/SecurityUtils.sol:SecurityUtils","label":"maxInteractionsPerHour","offset":0,"slot":"4","type":"t_uint256"}],"types":{"t_address":{"encoding":"inplace","label":"address","numberOfBytes":"20"},"t_bool":{"encoding":"inplace","label":"bool","numberOfBytes":"1"},"t_mapping(t_address,t_bool)":{"encoding":"mapping","key":"t_address","label":"mapping(address => bool)","numberOfBytes":"32","value":"t_bool"},"t_mapping(t_address,t_uint256)":{"encoding":"mapping","key":"t_address","label":"mapping(address => uint256)","numberOfBytes":"32","value":"t_uint256"},"t_uint256":{"encoding":"inplace","label":"uint256","numberOfBytes":"32"}}},"id":49}