{"abi":[{"type":"constructor","inputs":[{"name":"initialSupply","type":"uint256","internalType":"uint256"}],"stateMutability":"nonpayable"},{"type":"function","name":"adReward","inputs":[],"outputs":[{"name":"","type":"uint256","internalType":"uint256"}],"stateMutability":"view"},{"type":"function","name":"allowance","inputs":[{"name":"owner","type":"address","internalType":"address"},{"name":"spender","type":"address","internalType":"address"}],"outputs":[{"name":"","type":"uint256","internalType":"uint256"}],"stateMutability":"view"},{"type":"function","name":"approve","inputs":[{"name":"spender","type":"address","internalType":"address"},{"name":"value","type":"uint256","internalType":"uint256"}],"outputs":[{"name":"","type":"bool","internalType":"bool"}],"stateMutability":"nonpayable"},{"type":"function","name":"balanceOf","inputs":[{"name":"account","type":"address","internalType":"address"}],"outputs":[{"name":"","type":"uint256","internalType":"uint256"}],"stateMutability":"view"},{"type":"function","name":"burn","inputs":[{"name":"value","type":"uint256","internalType":"uint256"}],"outputs":[],"stateMutability":"nonpayable"},{"type":"function","name":"burnForLottery","inputs":[{"name":"from","type":"address","internalType":"address"},{"name":"amount","type":"uint256","internalType":"uint256"}],"outputs":[],"stateMutability":"nonpayable"},{"type":"function","name":"burnFrom","inputs":[{"name":"account","type":"address","internalType":"address"},{"name":"value","type":"uint256","internalType":"uint256"}],"outputs":[],"stateMutability":"nonpayable"},{"type":"function","name":"burnFromAuthorized","inputs":[{"name":"burner","type":"address","internalType":"address"},{"name":"amount","type":"uint256","internalType":"uint256"}],"outputs":[],"stateMutability":"nonpayable"},{"type":"function","name":"dailyRewards","inputs":[{"name":"","type":"address","internalType":"address"}],"outputs":[{"name":"","type":"uint256","internalType":"uint256"}],"stateMutability":"view"},{"type":"function","name":"decimals","inputs":[],"outputs":[{"name":"","type":"uint8","internalType":"uint8"}],"stateMutability":"view"},{"type":"function","name":"emergencyPause","inputs":[],"outputs":[],"stateMutability":"nonpayable"},{"type":"function","name":"emergencyPaused","inputs":[],"outputs":[{"name":"","type":"bool","internalType":"bool"}],"stateMutability":"view"},{"type":"function","name":"emergencyResume","inputs":[],"outputs":[],"stateMutability":"nonpayable"},{"type":"function","name":"emergencyWithdraw","inputs":[{"name":"to","type":"address","internalType":"address"}],"outputs":[],"stateMutability":"nonpayable"},{"type":"function","name":"getContractStats","inputs":[],"outputs":[{"name":"totalSupplyAmount","type":"uint256","internalType":"uint256"},{"name":"totalHolders","type":"uint256","internalType":"uint256"},{"name":"totalTransfers","type":"uint256","internalType":"uint256"},{"name":"totalBurns","type":"uint256","internalType":"uint256"},{"name":"adsWatchedCount","type":"uint256","internalType":"uint256"},{"name":"rewardsEarnedAmount","type":"uint256","internalType":"uint256"}],"stateMutability":"view"},{"type":"function","name":"getUserStats","inputs":[{"name":"user","type":"address","internalType":"address"}],"outputs":[{"name":"lastWatch","type":"uint256","internalType":"uint256"},{"name":"totalWatched","type":"uint256","internalType":"uint256"},{"name":"totalEarned","type":"uint256","internalType":"uint256"},{"name":"dailyReward","type":"uint256","internalType":"uint256"},{"name":"lastReset","type":"uint256","internalType":"uint256"},{"name":"canWatchNow","type":"bool","internalType":"bool"}],"stateMutability":"view"},{"type":"function","name":"isAuthorizedBurner","inputs":[{"name":"burner","type":"address","internalType":"address"}],"outputs":[{"name":"","type":"bool","internalType":"bool"}],"stateMutability":"view"},{"type":"function","name":"isHolder","inputs":[{"name":"","type":"address","internalType":"address"}],"outputs":[{"name":"","type":"bool","internalType":"bool"}],"stateMutability":"view"},{"type":"function","name":"lastAdWatchTime","inputs":[{"name":"","type":"address","internalType":"address"}],"outputs":[{"name":"","type":"uint256","internalType":"uint256"}],"stateMutability":"view"},{"type":"function","name":"lastRewardReset","inputs":[{"name":"","type":"address","internalType":"address"}],"outputs":[{"name":"","type":"uint256","internalType":"uint256"}],"stateMutability":"view"},{"type":"function","name":"maxRewardPerDay","inputs":[],"outputs":[{"name":"","type":"uint256","internalType":"uint256"}],"stateMutability":"view"},{"type":"function","name":"name","inputs":[],"outputs":[{"name":"","type":"string","internalType":"string"}],"stateMutability":"view"},{"type":"function","name":"owner","inputs":[],"outputs":[{"name":"","type":"address","internalType":"address"}],"stateMutability":"view"},{"type":"function","name":"renounceOwnership","inputs":[],"outputs":[],"stateMutability":"nonpayable"},{"type":"function","name":"setAdReward","inputs":[{"name":"newReward","type":"uint256","internalType":"uint256"}],"outputs":[],"stateMutability":"nonpayable"},{"type":"function","name":"setMaxDailyReward","inputs":[{"name":"newMax","type":"uint256","internalType":"uint256"}],"outputs":[],"stateMutability":"nonpayable"},{"type":"function","name":"symbol","inputs":[],"outputs":[{"name":"","type":"string","internalType":"string"}],"stateMutability":"view"},{"type":"function","name":"totalAdsWatched","inputs":[{"name":"","type":"address","internalType":"address"}],"outputs":[{"name":"","type":"uint256","internalType":"uint256"}],"stateMutability":"view"},{"type":"function","name":"totalAdsWatchedCount","inputs":[],"outputs":[{"name":"","type":"uint256","internalType":"uint256"}],"stateMutability":"view"},{"type":"function","name":"totalBurnsCount","inputs":[],"outputs":[{"name":"","type":"uint256","internalType":"uint256"}],"stateMutability":"view"},{"type":"function","name":"totalHoldersCount","inputs":[],"outputs":[{"name":"","type":"uint256","internalType":"uint256"}],"stateMutability":"view"},{"type":"function","name":"totalRewardsEarned","inputs":[{"name":"","type":"address","internalType":"address"}],"outputs":[{"name":"","type":"uint256","internalType":"uint256"}],"stateMutability":"view"},{"type":"function","name":"totalRewardsEarnedAmount","inputs":[],"outputs":[{"name":"","type":"uint256","internalType":"uint256"}],"stateMutability":"view"},{"type":"function","name":"totalSupply","inputs":[],"outputs":[{"name":"","type":"uint256","internalType":"uint256"}],"stateMutability":"view"},{"type":"function","name":"totalTransfersCount","inputs":[],"outputs":[{"name":"","type":"uint256","internalType":"uint256"}],"stateMutability":"view"},{"type":"function","name":"transfer","inputs":[{"name":"to","type":"address","internalType":"address"},{"name":"amount","type":"uint256","internalType":"uint256"}],"outputs":[{"name":"","type":"bool","internalType":"bool"}],"stateMutability":"nonpayable"},{"type":"function","name":"transferFrom","inputs":[{"name":"from","type":"address","internalType":"address"},{"name":"to","type":"address","internalType":"address"},{"name":"amount","type":"uint256","internalType":"uint256"}],"outputs":[{"name":"","type":"bool","internalType":"bool"}],"stateMutability":"nonpayable"},{"type":"function","name":"transferOwnership","inputs":[{"name":"newOwner","type":"address","internalType":"address"}],"outputs":[],"stateMutability":"nonpayable"},{"type":"function","name":"watchAd","inputs":[{"name":"viewer","type":"address","internalType":"address"}],"outputs":[],"stateMutability":"nonpayable"},{"type":"event","name":"AdWatched","inputs":[{"name":"viewer","type":"address","indexed":true,"internalType":"address"},{"name":"reward","type":"uint256","indexed":true,"internalType":"uint256"},{"name":"timestamp","type":"uint256","indexed":true,"internalType":"uint256"}],"anonymous":false},{"type":"event","name":"Approval","inputs":[{"name":"owner","type":"address","indexed":true,"internalType":"address"},{"name":"spender","type":"address","indexed":true,"internalType":"address"},{"name":"value","type":"uint256","indexed":false,"internalType":"uint256"}],"anonymous":false},{"type":"event","name":"EmergencyPaused","inputs":[{"name":"by","type":"address","indexed":true,"internalType":"address"},{"name":"timestamp","type":"uint256","indexed":true,"internalType":"uint256"}],"anonymous":false},{"type":"event","name":"EmergencyResumed","inputs":[{"name":"by","type":"address","indexed":true,"internalType":"address"},{"name":"timestamp","type":"uint256","indexed":true,"internalType":"uint256"}],"anonymous":false},{"type":"event","name":"MaxDailyRewardUpdated","inputs":[{"name":"oldMax","type":"uint256","indexed":true,"internalType":"uint256"},{"name":"newMax","type":"uint256","indexed":true,"internalType":"uint256"},{"name":"timestamp","type":"uint256","indexed":true,"internalType":"uint256"}],"anonymous":false},{"type":"event","name":"OwnershipTransferred","inputs":[{"name":"previousOwner","type":"address","indexed":true,"internalType":"address"},{"name":"newOwner","type":"address","indexed":true,"internalType":"address"}],"anonymous":false},{"type":"event","name":"RewardUpdated","inputs":[{"name":"newReward","type":"uint256","indexed":true,"internalType":"uint256"},{"name":"timestamp","type":"uint256","indexed":true,"internalType":"uint256"}],"anonymous":false},{"type":"event","name":"Transfer","inputs":[{"name":"from","type":"address","indexed":true,"internalType":"address"},{"name":"to","type":"address","indexed":true,"internalType":"address"},{"name":"value","type":"uint256","indexed":false,"internalType":"uint256"}],"anonymous":false},{"type":"error","name":"CannotWatchForContract","inputs":[]},{"type":"error","name":"ContractEmergencyPaused","inputs":[]},{"type":"error","name":"DailyRewardLimitExceeded","inputs":[]},{"type":"error","name":"ERC20InsufficientAllowance","inputs":[{"name":"spender","type":"address","internalType":"address"},{"name":"allowance","type":"uint256","internalType":"uint256"},{"name":"needed","type":"uint256","internalType":"uint256"}]},{"type":"error","name":"ERC20InsufficientBalance","inputs":[{"name":"sender","type":"address","internalType":"address"},{"name":"balance","type":"uint256","internalType":"uint256"},{"name":"needed","type":"uint256","internalType":"uint256"}]},{"type":"error","name":"ERC20InvalidApprover","inputs":[{"name":"approver","type":"address","internalType":"address"}]},{"type":"error","name":"ERC20InvalidReceiver","inputs":[{"name":"receiver","type":"address","internalType":"address"}]},{"type":"error","name":"ERC20InvalidSender","inputs":[{"name":"sender","type":"address","internalType":"address"}]},{"type":"error","name":"ERC20InvalidSpender","inputs":[{"name":"spender","type":"address","internalType":"address"}]},{"type":"error","name":"InsufficientBalanceForBurn","inputs":[]},{"type":"error","name":"InsufficientTokensForReward","inputs":[]},{"type":"error","name":"InvalidBurnAmount","inputs":[]},{"type":"error","name":"InvalidBurnerAddress","inputs":[]},{"type":"error","name":"InvalidViewerAddress","inputs":[]},{"type":"error","name":"MaxDailyRewardTooLow","inputs":[]},{"type":"error","name":"MustWaitBetweenAds","inputs":[]},{"type":"error","name":"OnlyAuthorizedBurner","inputs":[]},{"type":"error","name":"OwnableInvalidOwner","inputs":[{"name":"owner","type":"address","internalType":"address"}]},{"type":"error","name":"OwnableUnauthorizedAccount","inputs":[{"name":"account","type":"address","internalType":"address"}]},{"type":"error","name":"RewardTooLow","inputs":[]},{"type":"error","name":"TransferNotAllowed","inputs":[]}],"bytecode":{"object":"0x6080604052670de0b6b3a764000060065568056bc75e2d63100000600b5534801562000029575f80fd5b50604051620019c1380380620019c18339810160408190526200004c91620002d5565b336040518060400160405280600781526020016620b22a37b5b2b760c91b8152506040518060400160405280600381526020016210511560ea1b81525081600390816200009a91906200038b565b506004620000a982826200038b565b5050506001600160a01b038116620000db57604051631e4fbdf760e01b81525f60048201526024015b60405180910390fd5b620000e68162000119565b50620000f333826200016a565b50335f908152601360205260409020805460ff191660019081179091556012556200047d565b600580546001600160a01b038381166001600160a01b0319831681179093556040519116919082907f8be0079c531659141344cd1fd0a4f28419497f9722a3daafe3b4186f6b6457e0905f90a35050565b6001600160a01b038216620001955760405163ec442f0560e01b81525f6004820152602401620000d2565b620001a25f8383620001a6565b5050565b6001600160a01b038316620001d4578060025f828254620001c8919062000457565b90915550620002469050565b6001600160a01b0383165f9081526020819052604090205481811015620002285760405163391434e360e21b81526001600160a01b03851660048201526024810182905260448101839052606401620000d2565b6001600160a01b0384165f9081526020819052604090209082900390555b6001600160a01b038216620002645760028054829003905562000282565b6001600160a01b0382165f9081526020819052604090208054820190555b816001600160a01b0316836001600160a01b03167fddf252ad1be2c89b69c2b068fc378daa952ba7f163c4a11628f55a4df523b3ef83604051620002c891815260200190565b60405180910390a3505050565b5f60208284031215620002e6575f80fd5b5051919050565b634e487b7160e01b5f52604160045260245ffd5b600181811c908216806200031657607f821691505b6020821081036200033557634e487b7160e01b5f52602260045260245ffd5b50919050565b601f8211156200038657805f5260205f20601f840160051c81016020851015620003625750805b601f840160051c820191505b8181101562000383575f81556001016200036e565b50505b505050565b81516001600160401b03811115620003a757620003a7620002ed565b620003bf81620003b8845462000301565b846200033b565b602080601f831160018114620003f5575f8415620003dd5750858301515b5f19600386901b1c1916600185901b1785556200044f565b5f85815260208120601f198616915b82811015620004255788860151825594840194600190910190840162000404565b50858210156200044357878501515f19600388901b60f8161c191681555b505060018460011b0185555b505050505050565b808201808211156200047757634e487b7160e01b5f52601160045260245ffd5b92915050565b611536806200048b5f395ff3fe608060405234801561000f575f80fd5b5060043610610234575f3560e01c8063827c8aaf11610135578063aff2b17a116100b4578063dfe6b5d611610079578063dfe6b5d614610518578063e4f24cb01461054d578063f2fde38b1461056c578063fade13c81461057f578063ff45f3f814610588575f80fd5b8063aff2b17a1461048d578063b7f72b03146104ac578063cf033cf6146104b5578063d4d7b19a146104be578063dd62ed3e146104e0575f80fd5b80639107cd4b116100fa5780639107cd4b1461043857806393c87f031461045757806395d89b411461045f578063a1d5320c14610467578063a9059cbb1461047a575f80fd5b8063827c8aaf146103d957806382bf4852146103f857806383c4da3d1461040157806385834dc5146104145780638da5cb5b1461041d575f80fd5b806342966c68116101c15780636ee30fd9116101865780636ee30fd9146103705780636ff1c9bc1461038357806370a0823114610396578063715018a6146103be57806379cc6790146103c6575f80fd5b806342966c68146102df5780634e43603a146102f457806351858e271461033657806358e63d6f1461033e5780636b63c56a14610351575f80fd5b806323b872dd1161020757806323b872dd1461029e57806327c830a9146102b1578063303554d6146102be578063313ce567146102c757806341db357e146102d6575f80fd5b806306fdde0314610238578063095ea7b31461025657806318160ddd1461027957806320c029181461028b575b5f80fd5b61024061059b565b60405161024d9190611319565b60405180910390f35b610269610264366004611380565b61062b565b604051901515815260200161024d565b6002545b60405190815260200161024d565b6102696102993660046113a8565b610644565b6102696102ac3660046113c1565b610672565b600a546102699060ff1681565b61027d60115481565b6040516012815260200161024d565b61027d60125481565b6102f26102ed3660046113fa565b61072a565b005b6103076103023660046113a8565b610737565b6040805196875260208701959095529385019290925260608401526080830152151560a082015260c00161024d565b6102f26107bd565b6102f261034c3660046113a8565b610800565b61027d61035f3660046113a8565b60086020525f908152604090205481565b6102f261037e3660046113fa565b610a4d565b6102f26103913660046113a8565b610aaf565b61027d6103a43660046113a8565b6001600160a01b03165f9081526020819052604090205490565b6102f2610b4f565b6102f26103d4366004611380565b610b62565b61027d6103e73660046113a8565b600c6020525f908152604090205481565b61027d600b5481565b6102f261040f366004611380565b610b77565b61027d60105481565b6005546040516001600160a01b03909116815260200161024d565b61027d6104463660046113a8565b60076020525f908152604090205481565b6102f2610cf8565b610240610d38565b6102f26104753660046113fa565b610d47565b610269610488366004611380565b610da3565b61027d61049b3660046113a8565b600d6020525f908152604090205481565b61027d600f5481565b61027d600e5481565b6102696104cc3660046113a8565b60136020525f908152604090205460ff1681565b61027d6104ee366004611411565b6001600160a01b039182165f90815260016020908152604080832093909416825291909152205490565b610520610e59565b604080519687526020870195909552938501929092526060840152608083015260a082015260c00161024d565b61027d61055b3660046113a8565b60096020525f908152604090205481565b6102f261057a3660046113a8565b610e8a565b61027d60065481565b6102f2610596366004611380565b610ec9565b6060600380546105aa90611442565b80601f01602080910402602001604051908101604052809291908181526020018280546105d690611442565b80156106215780601f106105f857610100808354040283529160200191610621565b820191905f5260205f20905b81548152906001019060200180831161060457829003601f168201915b5050505050905090565b5f33610638818585610ef8565b60019150505b92915050565b5f6106576005546001600160a01b031690565b6001600160a01b0316826001600160a01b0316149050919050565b600a545f9060ff161561069857604051638cd22d1960e01b815260040160405180910390fd5b6001600160a01b0383165f9081526013602052604090205460ff161580156106bf57505f82115b156106fb576001600160a01b0383165f908152601360205260408120805460ff19166001179055601280549091906106f69061148e565b909155505b5f610707858585610f0a565b9050801561072257600e5f815461071d9061148e565b909155505b949350505050565b6107343382610f2d565b50565b6001600160a01b0381165f9081526007602052604081205481908190819081908190819061076590426114a6565b6001600160a01b03989098165f9081526007602090815260408083205460088352818420546009845282852054600c855283862054600d9095529290942054909c939b919a50919850909650610e0f10945092505050565b6107c5610f61565b600a805460ff19166001179055604051429033907f2e31b3b12b9bb0e82c32f27df5f234fabc95a374f54fd287a7132878d5dc9fc3905f90a3565b600a5460ff1615610824576040516359a3343160e11b815260040160405180910390fd5b6001600160a01b03811661084b57604051636da39c5360e01b815260040160405180910390fd5b306001600160a01b038216036108745760405163416ad33560e11b815260040160405180910390fd5b600654335f9081526020819052604090205410156108a55760405163ab4fc7d760e01b815260040160405180910390fd5b6001600160a01b0381165f908152600760205260409020546108c990610e106114b9565b6108d49060016114b9565b4210156108f457604051633f51d57760e21b815260040160405180910390fd5b6108fd81610f8e565b600b546006546001600160a01b0383165f908152600c602052604090205461092591906114b9565b11156109445760405163bcb0602f60e01b815260040160405180910390fd5b6109513382600654610fea565b6001600160a01b0381165f9081526007602090815260408083204290556008909152812080549091906109839061148e565b909155506006546001600160a01b0382165f90815260096020526040812080549091906109b19084906114b9565b90915550506006546001600160a01b0382165f908152600c6020526040812080549091906109e09084906114b9565b9091555050601080545f906109f49061148e565b90915550600654601180545f90610a0c9084906114b9565b90915550506006546040514291906001600160a01b038416907f57557adf09426f9adea087dd152a12b45ffbf1d16730e77f2ca4c955cbc497e4905f90a450565b610a55610f61565b805f03610a75576040516343d2af6560e01b815260040160405180910390fd5b600b8054908290556040514290839083907fecbf215b72dbc1c04771b7d9f89c84eccfaf225d7c221f6a5da583a6714d9fcb905f90a45050565b610ab7610f61565b600a5460ff1615610adb576040516359a3343160e11b815260040160405180910390fd5b6001600160a01b038116610b025760405163e46aa32560e01b815260040160405180910390fd5b306001600160a01b03821603610b2b57604051638cd22d1960e01b815260040160405180910390fd5b305f908152602081905260409020548015610b4b57610b4b308383610fea565b5050565b610b57610f61565b610b605f611047565b565b610b6d823383611098565b610b4b8282610f2d565b6005546001600160a01b03163314801590610b985750610b9633610644565b155b15610bb65760405163381e520f60e01b815260040160405180910390fd5b6001600160a01b038216610bdd5760405163e46aa32560e01b815260040160405180910390fd5b306001600160a01b03831603610c0657604051638cd22d1960e01b815260040160405180910390fd5b805f03610c26576040516302075cc160e41b815260040160405180910390fd5b80610c45836001600160a01b03165f9081526020819052604090205490565b1015610c6457604051637ad786d960e01b815260040160405180910390fd5b610c6e8282610f2d565b600f5f8154610c7c9061148e565b909155506001600160a01b0382165f90815260208190526040902054158015610cbc57506001600160a01b0382165f9081526013602052604090205460ff165b15610b4b576001600160a01b0382165f908152601360205260408120805460ff1916905560128054909190610cf0906114cc565b909155505050565b610d00610f61565b600a805460ff19169055604051429033907fe0dc8967738d1ca725802874d41e2ab2405df0e2eb3c61069d26d2782660d594905f90a3565b6060600480546105aa90611442565b610d4f610f61565b805f03610d6f5760405163256eeaad60e01b815260040160405180910390fd5b6006819055604051429082907f3efe2b1ade87153c913a322f09a35c930d7fd699770b8d7cdd294e1debf6e9e4905f90a350565b600a545f9060ff1615610dc957604051638cd22d1960e01b815260040160405180910390fd5b6001600160a01b0383165f9081526013602052604090205460ff16158015610df057505f82115b15610e2c576001600160a01b0383165f908152601360205260408120805460ff1916600117905560128054909190610e279061148e565b909155505b5f610e378484611114565b90508015610e5257600e5f8154610e4d9061148e565b909155505b9392505050565b5f805f805f80610e6860025490565b601254600e54600f54601054601154949b939a50919850965094509092509050565b610e92610f61565b6001600160a01b038116610ec057604051631e4fbdf760e01b81525f60048201526024015b60405180910390fd5b61073481611047565b610ed1610f61565b6001600160a01b038216610c065760405163e46aa32560e01b815260040160405180910390fd5b610f058383836001611121565b505050565b5f33610f17858285611098565b610f22858585610fea565b506001949350505050565b6001600160a01b038216610f5657604051634b637e8f60e11b81525f6004820152602401610eb7565b610b4b825f836111f3565b6005546001600160a01b03163314610b605760405163118cdaa760e01b8152336004820152602401610eb7565b6001600160a01b0381165f908152600d602052604081205490610fb462015180426114e1565b905080821015610f05576001600160a01b0383165f908152600c60209081526040808320839055600d9091529020819055505050565b6001600160a01b03831661101357604051634b637e8f60e11b81525f6004820152602401610eb7565b6001600160a01b03821661103c5760405163ec442f0560e01b81525f6004820152602401610eb7565b610f058383836111f3565b600580546001600160a01b038381166001600160a01b0319831681179093556040519116919082907f8be0079c531659141344cd1fd0a4f28419497f9722a3daafe3b4186f6b6457e0905f90a35050565b6001600160a01b038381165f908152600160209081526040808320938616835292905220545f1981101561110e578181101561110057604051637dc7a0d960e11b81526001600160a01b03841660048201526024810182905260448101839052606401610eb7565b61110e84848484035f611121565b50505050565b5f33610638818585610fea565b6001600160a01b03841661114a5760405163e602df0560e01b81525f6004820152602401610eb7565b6001600160a01b03831661117357604051634a1406b160e11b81525f6004820152602401610eb7565b6001600160a01b038085165f908152600160209081526040808320938716835292905220829055801561110e57826001600160a01b0316846001600160a01b03167f8c5be1e5ebec7d5bd14f71427d1e84f3dd0314c0f7b2291e5b200ac8c7c3b925846040516111e591815260200190565b60405180910390a350505050565b6001600160a01b03831661121d578060025f82825461121291906114b9565b9091555061128d9050565b6001600160a01b0383165f908152602081905260409020548181101561126f5760405163391434e360e21b81526001600160a01b03851660048201526024810182905260448101839052606401610eb7565b6001600160a01b0384165f9081526020819052604090209082900390555b6001600160a01b0382166112a9576002805482900390556112c7565b6001600160a01b0382165f9081526020819052604090208054820190555b816001600160a01b0316836001600160a01b03167fddf252ad1be2c89b69c2b068fc378daa952ba7f163c4a11628f55a4df523b3ef8360405161130c91815260200190565b60405180910390a3505050565b5f602080835283518060208501525f5b8181101561134557858101830151858201604001528201611329565b505f604082860101526040601f19601f8301168501019250505092915050565b80356001600160a01b038116811461137b575f80fd5b919050565b5f8060408385031215611391575f80fd5b61139a83611365565b946020939093013593505050565b5f602082840312156113b8575f80fd5b610e5282611365565b5f805f606084860312156113d3575f80fd5b6113dc84611365565b92506113ea60208501611365565b9150604084013590509250925092565b5f6020828403121561140a575f80fd5b5035919050565b5f8060408385031215611422575f80fd5b61142b83611365565b915061143960208401611365565b90509250929050565b600181811c9082168061145657607f821691505b60208210810361147457634e487b7160e01b5f52602260045260245ffd5b50919050565b634e487b7160e01b5f52601160045260245ffd5b5f6001820161149f5761149f61147a565b5060010190565b8181038181111561063e5761063e61147a565b8082018082111561063e5761063e61147a565b5f816114da576114da61147a565b505f190190565b5f826114fb57634e487b7160e01b5f52601260045260245ffd5b50049056fea26469706673582212209ed5c7dd5bed00a1d137932ead76febe2d7bc4acc93946a47e923a9f433757b564736f6c63430008160033","linkReferences":{}},"methodIdentifiers":{"adReward()":"fade13c8","allowance(address,address)":"dd62ed3e","approve(address,uint256)":"095ea7b3","balanceOf(address)":"70a08231","burn(uint256)":"42966c68","burnForLottery(address,uint256)":"83c4da3d","burnFrom(address,uint256)":"79cc6790","burnFromAuthorized(address,uint256)":"ff45f3f8","dailyRewards(address)":"827c8aaf","decimals()":"313ce567","emergencyPause()":"51858e27","emergencyPaused()":"27c830a9","emergencyResume()":"93c87f03","emergencyWithdraw(address)":"6ff1c9bc","getContractStats()":"dfe6b5d6","getUserStats(address)":"4e43603a","isAuthorizedBurner(address)":"20c02918","isHolder(address)":"d4d7b19a","lastAdWatchTime(address)":"9107cd4b","lastRewardReset(address)":"aff2b17a","maxRewardPerDay()":"82bf4852","name()":"06fdde03","owner()":"8da5cb5b","renounceOwnership()":"715018a6","setAdReward(uint256)":"a1d5320c","setMaxDailyReward(uint256)":"6ee30fd9","symbol()":"95d89b41","totalAdsWatched(address)":"6b63c56a","totalAdsWatchedCount()":"85834dc5","totalBurnsCount()":"b7f72b03","totalHoldersCount()":"41db357e","totalRewardsEarned(address)":"e4f24cb0","totalRewardsEarnedAmount()":"303554d6","totalSupply()":"18160ddd","totalTransfersCount()":"cf033cf6","transfer(address,uint256)":"a9059cbb","transferFrom(address,address,uint256)":"23b872dd","transferOwnership(address)":"f2fde38b","watchAd(address)":"58e63d6f"},"storageLayout":{"storage":[{"astId":64511,"contract":"contracts/modules/lottery/AdToken.sol:AdToken","label":"_balances","offset":0,"slot":"0","type":"t_mapping(t_address,t_uint256)"},{"astId":64517,"contract":"contracts/modules/lottery/AdToken.sol:AdToken","label":"_allowances","offset":0,"slot":"1","type":"t_mapping(t_address,t_mapping(t_address,t_uint256))"},{"astId":64519,"contract":"contracts/modules/lottery/AdToken.sol:AdToken","label":"_totalSupply","offset":0,"slot":"2","type":"t_uint256"},{"astId":64521,"contract":"contracts/modules/lottery/AdToken.sol:AdToken","label":"_name","offset":0,"slot":"3","type":"t_string_storage"},{"astId":64523,"contract":"contracts/modules/lottery/AdToken.sol:AdToken","label":"_symbol","offset":0,"slot":"4","type":"t_string_storage"},{"astId":63803,"contract":"contracts/modules/lottery/AdToken.sol:AdToken","label":"_owner","offset":0,"slot":"5","type":"t_address"},{"astId":3054,"contract":"contracts/modules/lottery/AdToken.sol:AdToken","label":"adReward","offset":0,"slot":"6","type":"t_uint256"},{"astId":3059,"contract":"contracts/modules/lottery/AdToken.sol:AdToken","label":"lastAdWatchTime","offset":0,"slot":"7","type":"t_mapping(t_address,t_uint256)"},{"astId":3064,"contract":"contracts/modules/lottery/AdToken.sol:AdToken","label":"totalAdsWatched","offset":0,"slot":"8","type":"t_mapping(t_address,t_uint256)"},{"astId":3069,"contract":"contracts/modules/lottery/AdToken.sol:AdToken","label":"totalRewardsEarned","offset":0,"slot":"9","type":"t_mapping(t_address,t_uint256)"},{"astId":3072,"contract":"contracts/modules/lottery/AdToken.sol:AdToken","label":"emergencyPaused","offset":0,"slot":"10","type":"t_bool"},{"astId":3080,"contract":"contracts/modules/lottery/AdToken.sol:AdToken","label":"maxRewardPerDay","offset":0,"slot":"11","type":"t_uint256"},{"astId":3085,"contract":"contracts/modules/lottery/AdToken.sol:AdToken","label":"dailyRewards","offset":0,"slot":"12","type":"t_mapping(t_address,t_uint256)"},{"astId":3090,"contract":"contracts/modules/lottery/AdToken.sol:AdToken","label":"lastRewardReset","offset":0,"slot":"13","type":"t_mapping(t_address,t_uint256)"},{"astId":3093,"contract":"contracts/modules/lottery/AdToken.sol:AdToken","label":"totalTransfersCount","offset":0,"slot":"14","type":"t_uint256"},{"astId":3096,"contract":"contracts/modules/lottery/AdToken.sol:AdToken","label":"totalBurnsCount","offset":0,"slot":"15","type":"t_uint256"},{"astId":3099,"contract":"contracts/modules/lottery/AdToken.sol:AdToken","label":"totalAdsWatchedCount","offset":0,"slot":"16","type":"t_uint256"},{"astId":3102,"contract":"contracts/modules/lottery/AdToken.sol:AdToken","label":"totalRewardsEarnedAmount","offset":0,"slot":"17","type":"t_uint256"},{"astId":3105,"contract":"contracts/modules/lottery/AdToken.sol:AdToken","label":"totalHoldersCount","offset":0,"slot":"18","type":"t_uint256"},{"astId":3110,"contract":"contracts/modules/lottery/AdToken.sol:AdToken","label":"isHolder","offset":0,"slot":"19","type":"t_mapping(t_address,t_bool)"}],"types":{"t_address":{"encoding":"inplace","label":"address","numberOfBytes":"20"},"t_bool":{"encoding":"inplace","label":"bool","numberOfBytes":"1"},"t_mapping(t_address,t_bool)":{"encoding":"mapping","key":"t_address","label":"mapping(address => bool)","numberOfBytes":"32","value":"t_bool"},"t_mapping(t_address,t_mapping(t_address,t_uint256))":{"encoding":"mapping","key":"t_address","label":"mapping(address => mapping(address => uint256))","numberOfBytes":"32","value":"t_mapping(t_address,t_uint256)"},"t_mapping(t_address,t_uint256)":{"encoding":"mapping","key":"t_address","label":"mapping(address => uint256)","numberOfBytes":"32","value":"t_uint256"},"t_string_storage":{"encoding":"bytes","label":"string","numberOfBytes":"32"},"t_uint256":{"encoding":"inplace","label":"uint256","numberOfBytes":"32"}}},"id":5}