{"abi":[{"type":"constructor","inputs":[],"stateMutability":"nonpayable"},{"type":"function","name":"addOperator","inputs":[{"name":"operator","type":"address","internalType":"address"}],"outputs":[],"stateMutability":"nonpayable"},{"type":"function","name":"authorizedOperators","inputs":[{"name":"","type":"address","internalType":"address"}],"outputs":[{"name":"","type":"bool","internalType":"bool"}],"stateMutability":"view"},{"type":"function","name":"checkPermissions","inputs":[{"name":"caller","type":"address","internalType":"address"}],"outputs":[{"name":"isOwner","type":"bool","internalType":"bool"},{"name":"isOperator","type":"bool","internalType":"bool"},{"name":"isAuthorized","type":"bool","internalType":"bool"},{"name":"canPause","type":"bool","internalType":"bool"}],"stateMutability":"view"},{"type":"function","name":"emergencyPause","inputs":[],"outputs":[],"stateMutability":"nonpayable"},{"type":"function","name":"emergencyPaused","inputs":[],"outputs":[{"name":"","type":"bool","internalType":"bool"}],"stateMutability":"view"},{"type":"function","name":"emergencyResume","inputs":[],"outputs":[],"stateMutability":"nonpayable"},{"type":"function","name":"getContractStatus","inputs":[],"outputs":[{"name":"currentOwner","type":"address","internalType":"address"},{"name":"isEmergencyPaused","type":"bool","internalType":"bool"},{"name":"lastActivity","type":"uint256","internalType":"uint256"},{"name":"operatorCount","type":"uint256","internalType":"uint256"}],"stateMutability":"view"},{"type":"function","name":"getOperators","inputs":[{"name":"","type":"uint256","internalType":"uint256"},{"name":"","type":"uint256","internalType":"uint256"}],"outputs":[{"name":"operators","type":"address[]","internalType":"address[]"},{"name":"totalCount","type":"uint256","internalType":"uint256"}],"stateMutability":"pure"},{"type":"function","name":"isAllowed","inputs":[{"name":"caller","type":"address","internalType":"address"}],"outputs":[{"name":"","type":"bool","internalType":"bool"}],"stateMutability":"view"},{"type":"function","name":"lastActivityTime","inputs":[],"outputs":[{"name":"","type":"uint256","internalType":"uint256"}],"stateMutability":"view"},{"type":"function","name":"owner","inputs":[],"outputs":[{"name":"","type":"address","internalType":"address"}],"stateMutability":"view"},{"type":"function","name":"removeOperator","inputs":[{"name":"operator","type":"address","internalType":"address"}],"outputs":[],"stateMutability":"nonpayable"},{"type":"function","name":"renounceOwnership","inputs":[],"outputs":[],"stateMutability":"nonpayable"},{"type":"function","name":"transferOwnership","inputs":[{"name":"newOwner","type":"address","internalType":"address"}],"outputs":[],"stateMutability":"nonpayable"},{"type":"event","name":"ActivityRecorded","inputs":[{"name":"caller","type":"address","indexed":true,"internalType":"address"},{"name":"action","type":"string","indexed":false,"internalType":"string"},{"name":"timestamp","type":"uint256","indexed":false,"internalType":"uint256"}],"anonymous":false},{"type":"event","name":"EmergencyPaused","inputs":[{"name":"by","type":"address","indexed":true,"internalType":"address"},{"name":"timestamp","type":"uint256","indexed":false,"internalType":"uint256"}],"anonymous":false},{"type":"event","name":"EmergencyResumed","inputs":[{"name":"by","type":"address","indexed":true,"internalType":"address"},{"name":"timestamp","type":"uint256","indexed":false,"internalType":"uint256"}],"anonymous":false},{"type":"event","name":"OperatorAdded","inputs":[{"name":"operator","type":"address","indexed":true,"internalType":"address"},{"name":"timestamp","type":"uint256","indexed":false,"internalType":"uint256"}],"anonymous":false},{"type":"event","name":"OperatorRemoved","inputs":[{"name":"operator","type":"address","indexed":true,"internalType":"address"},{"name":"timestamp","type":"uint256","indexed":false,"internalType":"uint256"}],"anonymous":false},{"type":"event","name":"OwnershipTransferred","inputs":[{"name":"previousOwner","type":"address","indexed":true,"internalType":"address"},{"name":"newOwner","type":"address","indexed":true,"internalType":"address"}],"anonymous":false},{"type":"error","name":"OwnableInvalidOwner","inputs":[{"name":"owner","type":"address","internalType":"address"}]},{"type":"error","name":"OwnableUnauthorizedAccount","inputs":[{"name":"account","type":"address","internalType":"address"}]}],"bytecode":{"object":"0x608060405234801561000f575f80fd5b50338061003557604051631e4fbdf760e01b81525f600482015260240160405180910390fd5b61003e81610048565b5042600355610097565b5f80546001600160a01b038381166001600160a01b0319831681178455604051919092169283917f8be0079c531659141344cd1fd0a4f28419497f9722a3daafe3b4186f6b6457e09190a35050565b610a76806100a45f395ff3fe608060405234801561000f575f80fd5b50600436106100e5575f3560e01c80639870d7fe11610088578063c032846b11610063578063c032846b146101d7578063d9747fa314610209578063ea4dd2b914610220578063f2fde38b14610250575f80fd5b80639870d7fe1461019e578063ac8a584a146101b1578063babcc539146101c4575f80fd5b806351858e27116100c357806351858e271461016a578063715018a6146101745780638da5cb5b1461017c57806393c87f0314610196575f80fd5b8063181d989b146100e957806322da10b01461012057806327c830a91461015d575b5f80fd5b61010b6100f736600461094c565b60016020525f908152604090205460ff1681565b60405190151581526020015b60405180910390f35b61013361012e36600461094c565b610263565b60408051941515855292151560208501529015159183019190915215156060820152608001610117565b60025461010b9060ff1681565b6101726102b2565b005b610172610335565b5f546040516001600160a01b039091168152602001610117565b610172610346565b6101726101ac36600461094c565b6103be565b6101726101bf36600461094c565b610568565b61010b6101d236600461094c565b610660565b6101df610699565b604080516001600160a01b0390951685529215156020850152918301526060820152608001610117565b61021260035481565b604051908152602001610117565b61024261022e366004610979565b5050604080515f8082526020820190925291565b604051610117929190610999565b61017261025e36600461094c565b6106c7565b5f805f806102785f546001600160a01b031690565b6001600160a01b038681165f818152600160205260409020549290911614945060ff16925083806102a65750825b91508390509193509193565b6102ba61085f565b6002805460ff1916600117905560405133907f2e31b3b12b9bb0e82c32f27df5f234fabc95a374f54fd287a7132878d5dc9fc3906102fb9042815260200190565b60405180910390a26103336040518060400160405280600e81526020016d656d657267656e6379506175736560901b8152503361088b565b565b61033d61085f565b6103335f6108c3565b61034e61085f565b6002805460ff1916905560405142815233907fe0dc8967738d1ca725802874d41e2ab2405df0e2eb3c61069d26d2782660d5949060200160405180910390a26103336040518060400160405280600f81526020016e656d657267656e6379526573756d6560881b8152503361088b565b6103c661085f565b6001600160a01b0381166104215760405162461bcd60e51b815260206004820152601860248201527f496e76616c6964206f70657261746f722061646472657373000000000000000060448201526064015b60405180910390fd5b306001600160a01b038216036104795760405162461bcd60e51b815260206004820152601b60248201527f43616e6e6f74206164642073656c66206173206f70657261746f7200000000006044820152606401610418565b6001600160a01b0381165f9081526001602052604090205460ff16156104e15760405162461bcd60e51b815260206004820152601760248201527f4f70657261746f7220616c7265616479206578697374730000000000000000006044820152606401610418565b6001600160a01b0381165f81815260016020818152604092839020805460ff191690921790915590514281527fcbcb793495a5fd793da61a1d62ab99b58925f94b0a61beeec3ea7d7d6c4f2594910160405180910390a26105656040518060400160405280600b81526020016a30b23227b832b930ba37b960a91b8152508261088b565b50565b61057061085f565b6001600160a01b0381165f9081526001602052604090205460ff166105d75760405162461bcd60e51b815260206004820152601760248201527f4f70657261746f7220646f6573206e6f742065786973740000000000000000006044820152606401610418565b6001600160a01b0381165f8181526001602052604090819020805460ff19169055517f2360404a74478febece1a14f11275f22ada88d19ef96f7d785913010bfff4479906106289042815260200190565b60405180910390a26105656040518060400160405280600e81526020016d3932b6b7bb32a7b832b930ba37b960911b8152508261088b565b5f80546001600160a01b038381169116148061069357506001600160a01b0382165f9081526001602052604090205460ff165b92915050565b5f805f805f6106af5f546001600160a01b031690565b60025460035491965060ff1694509250905090919293565b6106cf61085f565b6001600160a01b0381166107255760405162461bcd60e51b815260206004820181905260248201527f4e6577206f776e65722063616e6e6f74206265207a65726f20616464726573736044820152606401610418565b5f546001600160a01b03166001600160a01b0316816001600160a01b03160361079a5760405162461bcd60e51b815260206004820152602160248201527f4e6577206f776e65722063616e6e6f742062652063757272656e74206f776e656044820152603960f91b6064820152608401610418565b5f546001600160a01b03166107ae82610912565b6107e16040518060400160405280601181526020017007472616e736665724f776e65727368697607c1b8152508361088b565b6001600160a01b0381165f9081526001602052604090205460ff161561085b576001600160a01b0381165f8181526001602052604090819020805460ff19169055517f2360404a74478febece1a14f11275f22ada88d19ef96f7d785913010bfff4479906108529042815260200190565b60405180910390a25b5050565b5f546001600160a01b031633146103335760405163118cdaa760e01b8152336004820152602401610418565b42600381905560405133917f3c709c6a5520828465054b30f10f24b9e4b911d3d25626cb358d3a698473eb4e916108529186916109ee565b5f80546001600160a01b038381166001600160a01b0319831681178455604051919092169283917f8be0079c531659141344cd1fd0a4f28419497f9722a3daafe3b4186f6b6457e09190a35050565b61091a61085f565b6001600160a01b03811661094357604051631e4fbdf760e01b81525f6004820152602401610418565b610565816108c3565b5f6020828403121561095c575f80fd5b81356001600160a01b0381168114610972575f80fd5b9392505050565b5f806040838503121561098a575f80fd5b50508035926020909101359150565b604080825283519082018190525f906020906060840190828701845b828110156109da5781516001600160a01b0316845292840192908401906001016109b5565b505050602093909301939093525092915050565b604081525f83518060408401525f5b81811015610a1a57602081870181015160608684010152016109fd565b505f606082850101526060601f19601f830116840101915050826020830152939250505056fea26469706673582212207c7c4bdc20de9b57baaa8ce317c5f223f6c359121c20f7ccc333e26bced0d46564736f6c63430008160033","linkReferences":{}},"methodIdentifiers":{"addOperator(address)":"9870d7fe","authorizedOperators(address)":"181d989b","checkPermissions(address)":"22da10b0","emergencyPause()":"51858e27","emergencyPaused()":"27c830a9","emergencyResume()":"93c87f03","getContractStatus()":"c032846b","getOperators(uint256,uint256)":"ea4dd2b9","isAllowed(address)":"babcc539","lastActivityTime()":"d9747fa3","owner()":"8da5cb5b","removeOperator(address)":"ac8a584a","renounceOwnership()":"715018a6","transferOwnership(address)":"f2fde38b"},"storageLayout":{"storage":[{"astId":63803,"contract":"contracts/modules/lottery/SimpleOwnable.sol:SimpleOwnable","label":"_owner","offset":0,"slot":"0","type":"t_address"},{"astId":10425,"contract":"contracts/modules/lottery/SimpleOwnable.sol:SimpleOwnable","label":"authorizedOperators","offset":0,"slot":"1","type":"t_mapping(t_address,t_bool)"},{"astId":10428,"contract":"contracts/modules/lottery/SimpleOwnable.sol:SimpleOwnable","label":"emergencyPaused","offset":0,"slot":"2","type":"t_bool"},{"astId":10431,"contract":"contracts/modules/lottery/SimpleOwnable.sol:SimpleOwnable","label":"lastActivityTime","offset":0,"slot":"3","type":"t_uint256"}],"types":{"t_address":{"encoding":"inplace","label":"address","numberOfBytes":"20"},"t_bool":{"encoding":"inplace","label":"bool","numberOfBytes":"1"},"t_mapping(t_address,t_bool)":{"encoding":"mapping","key":"t_address","label":"mapping(address => bool)","numberOfBytes":"32","value":"t_bool"},"t_uint256":{"encoding":"inplace","label":"uint256","numberOfBytes":"32"}}},"id":10}