{"abi":[{"type":"constructor","inputs":[],"stateMutability":"nonpayable"},{"type":"function","name":"allPlayers","inputs":[{"name":"","type":"uint256","internalType":"uint256"}],"outputs":[{"name":"","type":"address","internalType":"address"}],"stateMutability":"view"},{"type":"function","name":"gameWinners","inputs":[{"name":"","type":"uint256","internalType":"uint256"}],"outputs":[{"name":"","type":"address","internalType":"address"}],"stateMutability":"view"},{"type":"function","name":"getBatchWinnerStats","inputs":[{"name":"players","type":"address[]","internalType":"address[]"}],"outputs":[{"name":"winnerCounts","type":"uint256[]","internalType":"uint256[]"},{"name":"totalWinningsArray","type":"uint256[]","internalType":"uint256[]"}],"stateMutability":"view"},{"type":"function","name":"getGameWinner","inputs":[{"name":"game","type":"uint256","internalType":"uint256"}],"outputs":[{"name":"","type":"address","internalType":"address"}],"stateMutability":"view"},{"type":"function","name":"getPlayerStats","inputs":[{"name":"player","type":"address","internalType":"address"}],"outputs":[{"name":"wins","type":"uint256","internalType":"uint256"},{"name":"totalWon","type":"uint256","internalType":"uint256"},{"name":"hasWon","type":"bool","internalType":"bool"}],"stateMutability":"view"},{"type":"function","name":"getTopPlayerAnalysis","inputs":[{"name":"count","type":"uint256","internalType":"uint256"}],"outputs":[{"name":"players","type":"address[]","internalType":"address[]"},{"name":"scores","type":"uint256[]","internalType":"uint256[]"},{"name":"winRates","type":"uint256[]","internalType":"uint256[]"}],"stateMutability":"view"},{"type":"function","name":"getTopPlayers","inputs":[{"name":"count","type":"uint256","internalType":"uint256"}],"outputs":[{"name":"topPlayers","type":"address[]","internalType":"address[]"},{"name":"scores","type":"uint256[]","internalType":"uint256[]"}],"stateMutability":"view"},{"type":"function","name":"getTopWinners","inputs":[{"name":"count","type":"uint256","internalType":"uint256"}],"outputs":[{"name":"topWinners","type":"address[]","internalType":"address[]"}],"stateMutability":"view"},{"type":"function","name":"getTotalWinnings","inputs":[{"name":"player","type":"address","internalType":"address"}],"outputs":[{"name":"","type":"uint256","internalType":"uint256"}],"stateMutability":"view"},{"type":"function","name":"getWinnerCount","inputs":[{"name":"player","type":"address","internalType":"address"}],"outputs":[{"name":"","type":"uint256","internalType":"uint256"}],"stateMutability":"view"},{"type":"function","name":"newWinner","inputs":[{"name":"winner","type":"address","internalType":"address"},{"name":"game","type":"uint256","internalType":"uint256"},{"name":"players","type":"uint256","internalType":"uint256"},{"name":"amount","type":"uint256","internalType":"uint256"},{"name":"gameType","type":"uint8","internalType":"uint8"},{"name":"winnerIndex","type":"uint256","internalType":"uint256"}],"outputs":[],"stateMutability":"nonpayable"},{"type":"function","name":"owner","inputs":[],"outputs":[{"name":"","type":"address","internalType":"address"}],"stateMutability":"view"},{"type":"function","name":"playerScores","inputs":[{"name":"","type":"address","internalType":"address"}],"outputs":[{"name":"","type":"uint256","internalType":"uint256"}],"stateMutability":"view"},{"type":"function","name":"renounceOwnership","inputs":[],"outputs":[],"stateMutability":"nonpayable"},{"type":"function","name":"totalWinnings","inputs":[{"name":"","type":"address","internalType":"address"}],"outputs":[{"name":"","type":"uint256","internalType":"uint256"}],"stateMutability":"view"},{"type":"function","name":"transferOwnership","inputs":[{"name":"newOwner","type":"address","internalType":"address"}],"outputs":[],"stateMutability":"nonpayable"},{"type":"function","name":"winnerCount","inputs":[{"name":"","type":"address","internalType":"address"}],"outputs":[{"name":"","type":"uint256","internalType":"uint256"}],"stateMutability":"view"},{"type":"event","name":"OwnershipTransferred","inputs":[{"name":"previousOwner","type":"address","indexed":true,"internalType":"address"},{"name":"newOwner","type":"address","indexed":true,"internalType":"address"}],"anonymous":false},{"type":"event","name":"Winner","inputs":[{"name":"winner","type":"address","indexed":true,"internalType":"address"},{"name":"game","type":"uint256","indexed":true,"internalType":"uint256"},{"name":"players","type":"uint256","indexed":true,"internalType":"uint256"},{"name":"amount","type":"uint256","indexed":false,"internalType":"uint256"},{"name":"gameType","type":"uint8","indexed":false,"internalType":"uint8"},{"name":"winnerIndex","type":"uint256","indexed":false,"internalType":"uint256"},{"name":"timestamp","type":"uint256","indexed":false,"internalType":"uint256"}],"anonymous":false},{"type":"error","name":"OwnableInvalidOwner","inputs":[{"name":"owner","type":"address","internalType":"address"}]},{"type":"error","name":"OwnableUnauthorizedAccount","inputs":[{"name":"account","type":"address","internalType":"address"}]}],"bytecode":{"object":"0x608060405234801561000f575f80fd5b50338061003557604051631e4fbdf760e01b81525f600482015260240160405180910390fd5b61003e81610044565b50610093565b5f80546001600160a01b038381166001600160a01b0319831681178455604051919092169283917f8be0079c531659141344cd1fd0a4f28419497f9722a3daafe3b4186f6b6457e09190a35050565b610fe8806100a05f395ff3fe608060405234801561000f575f80fd5b5060043610610106575f3560e01c80637bdd449c1161009e578063b963b2921161006e578063b963b292146102b4578063ba3c0067146102dc578063cacc0efb146102fd578063f2fde38b14610325578063fac20ab814610338575f80fd5b80637bdd449c1461023e5780637eb4892b146102665780638b8840e0146102855780638da5cb5b146102a4575f80fd5b80634a7033fe116100d95780634a7033fe146101915780634fd66eae146101b257806362550ae114610209578063715018a614610236575f80fd5b80630544ce5e1461010a57806306525fa91461013a57806324c0cd0f1461014f5780633e68aa3a14610171575b5f80fd5b61011d610118366004610cec565b610360565b6040516001600160a01b0390911681526020015b60405180910390f35b61014d610148366004610d1e565b610388565b005b61016261015d366004610cec565b610530565b60405161013193929190610ded565b61018461017f366004610cec565b610659565b6040516101319190610e2f565b6101a461019f366004610e48565b61074c565b604051610131929190610eb7565b6101ec6101c0366004610ee4565b6001600160a01b03165f9081526001602081815260408084205460038352932054919052909182151590565b604080519384526020840192909252151590820152606001610131565b610228610217366004610ee4565b60056020525f908152604090205481565b604051908152602001610131565b61014d6108ea565b61011d61024c366004610cec565b60026020525f90815260409020546001600160a01b031681565b610228610274366004610ee4565b60016020525f908152604090205481565b610228610293366004610ee4565b60036020525f908152604090205481565b5f546001600160a01b031661011d565b6102286102c2366004610ee4565b6001600160a01b03165f9081526001602052604090205490565b6102ef6102ea366004610cec565b6108fd565b604051610131929190610efd565b61022861030b366004610ee4565b6001600160a01b03165f9081526003602052604090205490565b61014d610333366004610ee4565b610a5f565b61011d610346366004610cec565b5f908152600260205260409020546001600160a01b031690565b6004818154811061036f575f80fd5b5f918252602090912001546001600160a01b0316905081565b6001600160a01b0386165f90815260016020526040812080549091906103ad90610f23565b909155505f85815260026020908152604080832080546001600160a01b0319166001600160a01b038b1690811790915583526003909152812080548592906103f6908490610f3b565b90915550506004545f90815b8181101561045157886001600160a01b03166004828154811061042757610427610f54565b5f918252602090912001546001600160a01b0316036104495760019250610451565b600101610402565b50816104a257600480546001810182555f919091527f8a35acfbc15ff81a39ae7d344fd709f28e8600b4aa8c65c6b64bfe7fe36bd19b0180546001600160a01b0319166001600160a01b038a161790555b6001600160a01b0388165f90815260056020526040812080548792906104c9908490610f3b565b90915550506040805186815260ff86166020820152908101849052426060820152869088906001600160a01b038b16907f51effcd7e36ccc5d3b80d9870636d68981a8dd166ce30508ea679452c55716c39060800160405180910390a45050505050505050565b606080606061053e846108fd565b90935091508367ffffffffffffffff81111561055c5761055c610f68565b604051908082528060200260200182016040528015610585578160200160208202803683370190505b5090505f5b84811015610651575f6001600160a01b03168482815181106105ae576105ae610f54565b60200260200101516001600160a01b031614610649575f60015f8684815181106105da576105da610f54565b60200260200101516001600160a01b03166001600160a01b031681526020019081526020015f205490505f808111610612575f610628565b8061061e836064610f7c565b6106289190610f93565b84848151811061063a5761063a610f54565b60200260200101818152505050505b60010161058a565b509193909250565b60608167ffffffffffffffff81111561067457610674610f68565b60405190808252806020026020018201604052801561069d578160200160208202803683370190505b50600480549192505f91825b81811080156106b757508584105b15610743575f8382815481106106cf576106cf610f54565b5f9182526020808320909101546001600160a01b0316808352600190915260409091205490915015610732578086868151811061070e5761070e610f54565b6001600160a01b039092166020928302919091019091015261072f85610f23565b94505b5061073c81610f23565b90506106a9565b50505050919050565b6060805f61078b8585808060200260200160405190810160405280939291908181526020018383602002808284375f92019190915250610aa192505050565b9050805167ffffffffffffffff8111156107a7576107a7610f68565b6040519080825280602002602001820160405280156107d0578160200160208202803683370190505b509250805167ffffffffffffffff8111156107ed576107ed610f68565b604051908082528060200260200182016040528015610816578160200160208202803683370190505b5091505f5b81518110156108e15760015f83838151811061083957610839610f54565b60200260200101516001600160a01b03166001600160a01b031681526020019081526020015f205484828151811061087357610873610f54565b60200260200101818152505060035f83838151811061089457610894610f54565b60200260200101516001600160a01b03166001600160a01b031681526020019081526020015f20548382815181106108ce576108ce610f54565b602090810291909101015260010161081b565b50509250929050565b6108f2610c71565b6108fb5f610c9d565b565b6004805460609182915f8567ffffffffffffffff81111561092057610920610f68565b604051908082528060200260200182016040528015610949578160200160208202803683370190505b5094508567ffffffffffffffff81111561096557610965610f68565b60405190808252806020026020018201604052801561098e578160200160208202803683370190505b5093505f5b82811080156109a157508682105b15610a56575f8482815481106109b9576109b9610f54565b5f9182526020808320909101546001600160a01b031680835260059091526040909120549091508015610a4357818885815181106109f9576109f9610f54565b60200260200101906001600160a01b031690816001600160a01b03168152505080878581518110610a2c57610a2c610f54565b6020908102919091010152610a4084610f23565b93505b505080610a4f90610f23565b9050610993565b50505050915091565b610a67610c71565b6001600160a01b038116610a9557604051631e4fbdf760e01b81525f60048201526024015b60405180910390fd5b610a9e81610c9d565b50565b60606001825111610ab0575090565b5f825167ffffffffffffffff811115610acb57610acb610f68565b604051908082528060200260200182016040528015610af4578160200160208202803683370190505b5090505f805b8451811015610bcb575f805b83811015610b6a57848181518110610b2057610b20610f54565b60200260200101516001600160a01b0316878481518110610b4357610b43610f54565b60200260200101516001600160a01b031603610b625760019150610b6a565b600101610b06565b5080610bc257858281518110610b8257610b82610f54565b6020026020010151848481518110610b9c57610b9c610f54565b6001600160a01b039092166020928302919091019091015282610bbe81610f23565b9350505b50600101610afa565b505f8167ffffffffffffffff811115610be657610be6610f68565b604051908082528060200260200182016040528015610c0f578160200160208202803683370190505b5090505f5b82811015610c6857838181518110610c2e57610c2e610f54565b6020026020010151828281518110610c4857610c48610f54565b6001600160a01b0390921660209283029190910190910152600101610c14565b50949350505050565b5f546001600160a01b031633146108fb5760405163118cdaa760e01b8152336004820152602401610a8c565b5f80546001600160a01b038381166001600160a01b0319831681178455604051919092169283917f8be0079c531659141344cd1fd0a4f28419497f9722a3daafe3b4186f6b6457e09190a35050565b5f60208284031215610cfc575f80fd5b5035919050565b80356001600160a01b0381168114610d19575f80fd5b919050565b5f805f805f8060c08789031215610d33575f80fd5b610d3c87610d03565b9550602087013594506040870135935060608701359250608087013560ff81168114610d66575f80fd5b8092505060a087013590509295509295509295565b5f815180845260208085019450602084015f5b83811015610db35781516001600160a01b031687529582019590820190600101610d8e565b509495945050505050565b5f815180845260208085019450602084015f5b83811015610db357815187529582019590820190600101610dd1565b606081525f610dff6060830186610d7b565b8281036020840152610e118186610dbe565b90508281036040840152610e258185610dbe565b9695505050505050565b602081525f610e416020830184610d7b565b9392505050565b5f8060208385031215610e59575f80fd5b823567ffffffffffffffff80821115610e70575f80fd5b818501915085601f830112610e83575f80fd5b813581811115610e91575f80fd5b8660208260051b8501011115610ea5575f80fd5b60209290920196919550909350505050565b604081525f610ec96040830185610dbe565b8281036020840152610edb8185610dbe565b95945050505050565b5f60208284031215610ef4575f80fd5b610e4182610d03565b604081525f610ec96040830185610d7b565b634e487b7160e01b5f52601160045260245ffd5b5f60018201610f3457610f34610f0f565b5060010190565b80820180821115610f4e57610f4e610f0f565b92915050565b634e487b7160e01b5f52603260045260245ffd5b634e487b7160e01b5f52604160045260245ffd5b8082028115828204841417610f4e57610f4e610f0f565b5f82610fad57634e487b7160e01b5f52601260045260245ffd5b50049056fea264697066735822122019acd449c24cda7acd2629dbea9c700717a87898e3f3f243f314635adf62228964736f6c63430008160033","linkReferences":{}},"methodIdentifiers":{"allPlayers(uint256)":"0544ce5e","gameWinners(uint256)":"7bdd449c","getBatchWinnerStats(address[])":"4a7033fe","getGameWinner(uint256)":"fac20ab8","getPlayerStats(address)":"4fd66eae","getTopPlayerAnalysis(uint256)":"24c0cd0f","getTopPlayers(uint256)":"ba3c0067","getTopWinners(uint256)":"3e68aa3a","getTotalWinnings(address)":"cacc0efb","getWinnerCount(address)":"b963b292","newWinner(address,uint256,uint256,uint256,uint8,uint256)":"06525fa9","owner()":"8da5cb5b","playerScores(address)":"62550ae1","renounceOwnership()":"715018a6","totalWinnings(address)":"8b8840e0","transferOwnership(address)":"f2fde38b","winnerCount(address)":"7eb4892b"},"storageLayout":{"storage":[{"astId":63803,"contract":"contracts/modules/analytics/StatsAggregator.sol:StatsAggregator","label":"_owner","offset":0,"slot":"0","type":"t_address"},{"astId":2490,"contract":"contracts/modules/analytics/StatsAggregator.sol:StatsAggregator","label":"winnerCount","offset":0,"slot":"1","type":"t_mapping(t_address,t_uint256)"},{"astId":2495,"contract":"contracts/modules/analytics/StatsAggregator.sol:StatsAggregator","label":"gameWinners","offset":0,"slot":"2","type":"t_mapping(t_uint256,t_address)"},{"astId":2500,"contract":"contracts/modules/analytics/StatsAggregator.sol:StatsAggregator","label":"totalWinnings","offset":0,"slot":"3","type":"t_mapping(t_address,t_uint256)"},{"astId":2504,"contract":"contracts/modules/analytics/StatsAggregator.sol:StatsAggregator","label":"allPlayers","offset":0,"slot":"4","type":"t_array(t_address)dyn_storage"},{"astId":2509,"contract":"contracts/modules/analytics/StatsAggregator.sol:StatsAggregator","label":"playerScores","offset":0,"slot":"5","type":"t_mapping(t_address,t_uint256)"}],"types":{"t_address":{"encoding":"inplace","label":"address","numberOfBytes":"20"},"t_array(t_address)dyn_storage":{"encoding":"dynamic_array","label":"address[]","numberOfBytes":"32","base":"t_address"},"t_mapping(t_address,t_uint256)":{"encoding":"mapping","key":"t_address","label":"mapping(address => uint256)","numberOfBytes":"32","value":"t_uint256"},"t_mapping(t_uint256,t_address)":{"encoding":"mapping","key":"t_uint256","label":"mapping(uint256 => address)","numberOfBytes":"32","value":"t_address"},"t_uint256":{"encoding":"inplace","label":"uint256","numberOfBytes":"32"}}},"id":4}