{"abi":[{"type":"constructor","inputs":[],"stateMutability":"nonpayable"},{"type":"function","name":"changeOwner","inputs":[{"name":"newOwner","type":"address","internalType":"address"}],"outputs":[],"stateMutability":"nonpayable"},{"type":"function","name":"getContractBalance","inputs":[],"outputs":[{"name":"","type":"uint256","internalType":"uint256"}],"stateMutability":"view"},{"type":"function","name":"getReferralRewardPercent","inputs":[],"outputs":[{"name":"","type":"uint256","internalType":"uint256"}],"stateMutability":"view"},{"type":"function","name":"getReferralStats","inputs":[{"name":"referrer","type":"address","internalType":"address"}],"outputs":[{"name":"totalReferrals","type":"uint256","internalType":"uint256"},{"name":"totalRewards","type":"uint256","internalType":"uint256"},{"name":"lastRewardTime","type":"uint256","internalType":"uint256"}],"stateMutability":"view"},{"type":"function","name":"owner","inputs":[],"outputs":[{"name":"","type":"address","internalType":"address"}],"stateMutability":"view"},{"type":"function","name":"processReferralReward","inputs":[{"name":"referrer","type":"address","internalType":"address"},{"name":"ticketAmount","type":"uint256","internalType":"uint256"}],"outputs":[{"name":"","type":"uint256","internalType":"uint256"}],"stateMutability":"payable"},{"type":"function","name":"referralRewardPercent","inputs":[],"outputs":[{"name":"","type":"uint256","internalType":"uint256"}],"stateMutability":"view"},{"type":"function","name":"referralStats","inputs":[{"name":"","type":"address","internalType":"address"}],"outputs":[{"name":"totalReferrals","type":"uint256","internalType":"uint256"},{"name":"totalRewards","type":"uint256","internalType":"uint256"},{"name":"lastRewardTime","type":"uint256","internalType":"uint256"}],"stateMutability":"view"},{"type":"function","name":"setReferralRewardPercent","inputs":[{"name":"newPercent","type":"uint256","internalType":"uint256"}],"outputs":[],"stateMutability":"nonpayable"},{"type":"function","name":"withdrawContractBalance","inputs":[],"outputs":[],"stateMutability":"nonpayable"},{"type":"event","name":"OwnerChanged","inputs":[{"name":"oldOwner","type":"address","indexed":true,"internalType":"address"},{"name":"newOwner","type":"address","indexed":true,"internalType":"address"}],"anonymous":false},{"type":"event","name":"ReferralRewardPaid","inputs":[{"name":"referrer","type":"address","indexed":true,"internalType":"address"},{"name":"player","type":"address","indexed":true,"internalType":"address"},{"name":"amount","type":"uint256","indexed":false,"internalType":"uint256"},{"name":"timestamp","type":"uint256","indexed":false,"internalType":"uint256"}],"anonymous":false},{"type":"event","name":"ReferralRewardPercentUpdated","inputs":[{"name":"oldPercent","type":"uint256","indexed":false,"internalType":"uint256"},{"name":"newPercent","type":"uint256","indexed":false,"internalType":"uint256"},{"name":"timestamp","type":"uint256","indexed":false,"internalType":"uint256"}],"anonymous":false},{"type":"event","name":"ReferralStatsUpdated","inputs":[{"name":"referrer","type":"address","indexed":true,"internalType":"address"},{"name":"totalReferrals","type":"uint256","indexed":false,"internalType":"uint256"},{"name":"totalRewards","type":"uint256","indexed":false,"internalType":"uint256"},{"name":"timestamp","type":"uint256","indexed":false,"internalType":"uint256"}],"anonymous":false}],"bytecode":{"object":"0x608060405260025f55348015610013575f80fd5b50600280546001600160a01b031916331790556108c5806100335f395ff3fe60806040526004361061008f575f3560e01c80638da5cb5b116100575780638da5cb5b146101875780639270fe0c146101be578063a6f9dae1146101d1578063bfab3db9146101f0578063da46bdad14610204575f80fd5b80630ad929491461009357806321bade13146100ba57806328d2a7a31461011b5780633a0e34091461013c5780636f9fb98a14610175575b5f80fd5b34801561009e575f80fd5b506100a75f5481565b6040519081526020015b60405180910390f35b3480156100c5575f80fd5b506101006100d436600461077a565b6001600160a01b03165f9081526001602081905260409091208054918101546002909101549192909190565b604080519384526020840192909252908201526060016100b1565b348015610126575f80fd5b5061013a61013536600461079a565b610217565b005b348015610147575f80fd5b5061010061015636600461077a565b600160208190525f918252604090912080549181015460029091015483565b348015610180575f80fd5b50476100a7565b348015610192575f80fd5b506002546101a6906001600160a01b031681565b6040516001600160a01b0390911681526020016100b1565b3480156101c9575f80fd5b505f546100a7565b3480156101dc575f80fd5b5061013a6101eb36600461077a565b6102e5565b3480156101fb575f80fd5b5061013a6103b6565b6100a76102123660046107b1565b6104bf565b6002546001600160a01b0316331461024a5760405162461bcd60e51b8152600401610241906107d9565b60405180910390fd5b601481111561029b5760405162461bcd60e51b815260206004820181905260248201527f5265776172642070657263656e742063616e6e6f7420657863656564203230256044820152606401610241565b5f8054908290556040805182815260208101849052428183015290517f48c6c8a2f50d3336c9cb894511a760391eefe5ce94e5018bf4340e4a62cede349181900360600190a15050565b6002546001600160a01b0316331461030f5760405162461bcd60e51b8152600401610241906107d9565b6001600160a01b0381166103655760405162461bcd60e51b815260206004820152601960248201527f496e76616c6964206e6577206f776e65722061646472657373000000000000006044820152606401610241565b600280546001600160a01b038381166001600160a01b0319831681179093556040519116919082907fb532073b38c83145e3e5135377a08bf9aab55bc0fd7c1179cd4fb995d2a5159c905f90a35050565b6002546001600160a01b031633146103e05760405162461bcd60e51b8152600401610241906107d9565b47806104275760405162461bcd60e51b81526020600482015260166024820152754e6f2062616c616e636520746f20776974686472617760501b6044820152606401610241565b6002546040515f916001600160a01b03169083908381818185875af1925050503d805f8114610471576040519150601f19603f3d011682016040523d82523d5f602084013e610476565b606091505b50509050806104bb5760405162461bcd60e51b815260206004820152601160248201527015da5d1a191c985dd85b0819985a5b1959607a1b6044820152606401610241565b5050565b5f6001600160a01b0383166105165760405162461bcd60e51b815260206004820152601860248201527f496e76616c6964207265666572726572206164647265737300000000000000006044820152606401610241565b336001600160a01b038416036105665760405162461bcd60e51b815260206004820152601560248201527421b0b73737ba103932b332b9103cb7bab939b2b63360591b6044820152606401610241565b5f82116105ad5760405162461bcd60e51b8152602060048201526015602482015274125b9d985b1a59081d1a58dad95d08185b5bdd5b9d605a1b6044820152606401610241565b5f60645f54846105bd919061082e565b6105c79190610845565b90508015610756575f846001600160a01b0316826040515f6040518083038185875af1925050503d805f8114610618576040519150601f19603f3d011682016040523d82523d5f602084013e61061d565b606091505b505090508061066e5760405162461bcd60e51b815260206004820152601f60248201527f526566657272616c20726577617264207472616e73666572206661696c6564006044820152606401610241565b6001600160a01b0385165f90815260016020526040812080549091829061069483610864565b919050555082816001015f8282546106ac919061087c565b9091555050426002820181905560408051858152602081019290925233916001600160a01b038916917fe679beb5d98a54fda65331587d36d13358e8bf295be15e932c482164f8fde95e910160405180910390a38054600182015460408051928352602083019190915242908201526001600160a01b038716907fafd240cc0418ba6aa18fbaddf31a9871be1a25dd3385bd538594b8f9cc2179d99060600160405180910390a250505b90505b92915050565b80356001600160a01b0381168114610775575f80fd5b919050565b5f6020828403121561078a575f80fd5b6107938261075f565b9392505050565b5f602082840312156107aa575f80fd5b5035919050565b5f80604083850312156107c2575f80fd5b6107cb8361075f565b946020939093013593505050565b60208082526021908201527f4f6e6c79206f776e65722063616e2063616c6c20746869732066756e6374696f6040820152603760f91b606082015260800190565b634e487b7160e01b5f52601160045260245ffd5b80820281158282048414176107595761075961081a565b5f8261085f57634e487b7160e01b5f52601260045260245ffd5b500490565b5f600182016108755761087561081a565b5060010190565b808201808211156107595761075961081a56fea264697066735822122047867b0d656ec72dcc03e61c6ef2a0bc524b25a30294322d411bf2ce009de93664736f6c63430008160033","linkReferences":{}},"methodIdentifiers":{"changeOwner(address)":"a6f9dae1","getContractBalance()":"6f9fb98a","getReferralRewardPercent()":"9270fe0c","getReferralStats(address)":"21bade13","owner()":"8da5cb5b","processReferralReward(address,uint256)":"da46bdad","referralRewardPercent()":"0ad92949","referralStats(address)":"3a0e3409","setReferralRewardPercent(uint256)":"28d2a7a3","withdrawContractBalance()":"bfab3db9"},"storageLayout":{"storage":[{"astId":11214,"contract":"contracts/modules/treasury/CryptolottoReferral.sol:CryptolottoReferral","label":"referralRewardPercent","offset":0,"slot":"0","type":"t_uint256"},{"astId":11228,"contract":"contracts/modules/treasury/CryptolottoReferral.sol:CryptolottoReferral","label":"referralStats","offset":0,"slot":"1","type":"t_mapping(t_address,t_struct(ReferralStats)11222_storage)"},{"astId":11231,"contract":"contracts/modules/treasury/CryptolottoReferral.sol:CryptolottoReferral","label":"owner","offset":0,"slot":"2","type":"t_address"}],"types":{"t_address":{"encoding":"inplace","label":"address","numberOfBytes":"20"},"t_mapping(t_address,t_struct(ReferralStats)11222_storage)":{"encoding":"mapping","key":"t_address","label":"mapping(address => struct CryptolottoReferral.ReferralStats)","numberOfBytes":"32","value":"t_struct(ReferralStats)11222_storage"},"t_struct(ReferralStats)11222_storage":{"encoding":"inplace","label":"struct CryptolottoReferral.ReferralStats","numberOfBytes":"96","members":[{"astId":11217,"contract":"contracts/modules/treasury/CryptolottoReferral.sol:CryptolottoReferral","label":"totalReferrals","offset":0,"slot":"0","type":"t_uint256"},{"astId":11219,"contract":"contracts/modules/treasury/CryptolottoReferral.sol:CryptolottoReferral","label":"totalRewards","offset":0,"slot":"1","type":"t_uint256"},{"astId":11221,"contract":"contracts/modules/treasury/CryptolottoReferral.sol:CryptolottoReferral","label":"lastRewardTime","offset":0,"slot":"2","type":"t_uint256"}]},"t_uint256":{"encoding":"inplace","label":"uint256","numberOfBytes":"32"}}},"id":12}