{"abi":[{"type":"constructor","inputs":[],"stateMutability":"nonpayable"},{"type":"fallback","stateMutability":"payable"},{"type":"receive","stateMutability":"payable"},{"type":"function","name":"AD_LOTTERY_FEE_PERCENT","inputs":[],"outputs":[{"name":"","type":"uint256","internalType":"uint256"}],"stateMutability":"view"},{"type":"function","name":"DEVELOPER_FEE_PERCENT","inputs":[],"outputs":[{"name":"","type":"uint256","internalType":"uint256"}],"stateMutability":"view"},{"type":"function","name":"MAX_TICKETS_PER_TRANSACTION","inputs":[],"outputs":[{"name":"","type":"uint256","internalType":"uint256"}],"stateMutability":"view"},{"type":"function","name":"PURCHASE_COOLDOWN","inputs":[],"outputs":[{"name":"","type":"uint256","internalType":"uint256"}],"stateMutability":"view"},{"type":"function","name":"REFERRAL_FEE_PERCENT","inputs":[],"outputs":[{"name":"","type":"uint256","internalType":"uint256"}],"stateMutability":"view"},{"type":"function","name":"TOTAL_FEE_PERCENT","inputs":[],"outputs":[{"name":"","type":"uint256","internalType":"uint256"}],"stateMutability":"view"},{"type":"function","name":"UPGRADE_INTERFACE_VERSION","inputs":[],"outputs":[{"name":"","type":"string","internalType":"string"}],"stateMutability":"view"},{"type":"function","name":"autoEndGame","inputs":[],"outputs":[],"stateMutability":"nonpayable"},{"type":"function","name":"buyTicket","inputs":[{"name":"referrer","type":"address","internalType":"address"},{"name":"ticketCount","type":"uint256","internalType":"uint256"}],"outputs":[],"stateMutability":"payable"},{"type":"function","name":"checkAndEndGame","inputs":[],"outputs":[],"stateMutability":"nonpayable"},{"type":"function","name":"emergencyPause","inputs":[{"name":"reason","type":"string","internalType":"string"}],"outputs":[],"stateMutability":"nonpayable"},{"type":"function","name":"emergencyResume","inputs":[],"outputs":[],"stateMutability":"nonpayable"},{"type":"function","name":"getContractBalance","inputs":[],"outputs":[{"name":"","type":"uint256","internalType":"uint256"}],"stateMutability":"view"},{"type":"function","name":"getCurrentGameEndTime","inputs":[],"outputs":[{"name":"","type":"uint256","internalType":"uint256"}],"stateMutability":"view"},{"type":"function","name":"getCurrentGameJackpot","inputs":[],"outputs":[{"name":"","type":"uint256","internalType":"uint256"}],"stateMutability":"view"},{"type":"function","name":"getCurrentGameNumber","inputs":[],"outputs":[{"name":"","type":"uint256","internalType":"uint256"}],"stateMutability":"view"},{"type":"function","name":"getCurrentGamePlayerCount","inputs":[],"outputs":[{"name":"","type":"uint256","internalType":"uint256"}],"stateMutability":"view"},{"type":"function","name":"getCurrentGameState","inputs":[],"outputs":[{"name":"","type":"uint8","internalType":"enum StorageLayout.GameState"}],"stateMutability":"view"},{"type":"function","name":"getGameConfig","inputs":[],"outputs":[{"name":"ticketPrice","type":"uint256","internalType":"uint256"},{"name":"gameDuration","type":"uint256","internalType":"uint256"},{"name":"maxTicketsPerPlayer","type":"uint256","internalType":"uint256"},{"name":"isActive","type":"bool","internalType":"bool"}],"stateMutability":"view"},{"type":"function","name":"getGameInfo","inputs":[],"outputs":[{"name":"currentGameNumber","type":"uint256","internalType":"uint256"},{"name":"startTime","type":"uint256","internalType":"uint256"},{"name":"duration","type":"uint256","internalType":"uint256"},{"name":"remainingTime","type":"uint256","internalType":"uint256"},{"name":"timeExpired","type":"bool","internalType":"bool"},{"name":"playerCount","type":"uint256","internalType":"uint256"},{"name":"currentJackpot","type":"uint256","internalType":"uint256"}],"stateMutability":"view"},{"type":"function","name":"getPlayerInfo","inputs":[{"name":"player","type":"address","internalType":"address"}],"outputs":[{"name":"ticketCount","type":"uint256","internalType":"uint256"},{"name":"lastPurchaseTime","type":"uint256","internalType":"uint256"},{"name":"totalSpent","type":"uint256","internalType":"uint256"}],"stateMutability":"view"},{"type":"function","name":"getRemainingGameTime","inputs":[],"outputs":[{"name":"","type":"uint256","internalType":"uint256"}],"stateMutability":"view"},{"type":"function","name":"initialize","inputs":[{"name":"owner","type":"address","internalType":"address"},{"name":"","type":"address","internalType":"address"},{"name":"","type":"address","internalType":"address"},{"name":"","type":"address","internalType":"address"},{"name":"","type":"address","internalType":"address"},{"name":"","type":"string","internalType":"string"}],"outputs":[],"stateMutability":"nonpayable"},{"type":"function","name":"isGameTimeExpired","inputs":[],"outputs":[{"name":"","type":"bool","internalType":"bool"}],"stateMutability":"view"},{"type":"function","name":"lastPurchaseTime","inputs":[{"name":"","type":"address","internalType":"address"}],"outputs":[{"name":"","type":"uint256","internalType":"uint256"}],"stateMutability":"view"},{"type":"function","name":"ownable","inputs":[],"outputs":[{"name":"","type":"address","internalType":"contract IOwnable"}],"stateMutability":"view"},{"type":"function","name":"owner","inputs":[],"outputs":[{"name":"","type":"address","internalType":"address"}],"stateMutability":"view"},{"type":"function","name":"proxiableUUID","inputs":[],"outputs":[{"name":"","type":"bytes32","internalType":"bytes32"}],"stateMutability":"view"},{"type":"function","name":"registry","inputs":[],"outputs":[{"name":"","type":"address","internalType":"contract ContractRegistry"}],"stateMutability":"view"},{"type":"function","name":"renounceOwnership","inputs":[],"outputs":[],"stateMutability":"nonpayable"},{"type":"function","name":"resetPlayerCooldown","inputs":[{"name":"player","type":"address","internalType":"address"}],"outputs":[],"stateMutability":"nonpayable"},{"type":"function","name":"setPurchaseCooldown","inputs":[{"name":"newCooldown","type":"uint256","internalType":"uint256"}],"outputs":[],"stateMutability":"nonpayable"},{"type":"function","name":"setRegistry","inputs":[{"name":"registryAddress","type":"address","internalType":"address"}],"outputs":[],"stateMutability":"nonpayable"},{"type":"function","name":"setTestMode","inputs":[{"name":"enabled","type":"bool","internalType":"bool"}],"outputs":[],"stateMutability":"nonpayable"},{"type":"function","name":"setTreasuryName","inputs":[{"name":"_treasuryName","type":"string","internalType":"string"}],"outputs":[],"stateMutability":"nonpayable"},{"type":"function","name":"testMode","inputs":[],"outputs":[{"name":"","type":"bool","internalType":"bool"}],"stateMutability":"view"},{"type":"function","name":"transferOwnership","inputs":[{"name":"newOwner","type":"address","internalType":"address"}],"outputs":[],"stateMutability":"nonpayable"},{"type":"function","name":"treasuryName","inputs":[],"outputs":[{"name":"","type":"string","internalType":"string"}],"stateMutability":"view"},{"type":"function","name":"upgradeToAndCall","inputs":[{"name":"newImplementation","type":"address","internalType":"address"},{"name":"data","type":"bytes","internalType":"bytes"}],"outputs":[],"stateMutability":"payable"},{"type":"event","name":"AdLotteryFeeCollected","inputs":[{"name":"amount","type":"uint256","indexed":false,"internalType":"uint256"},{"name":"timestamp","type":"uint256","indexed":false,"internalType":"uint256"}],"anonymous":false},{"type":"event","name":"ContractNotFound","inputs":[{"name":"contractName","type":"string","indexed":false,"internalType":"string"},{"name":"timestamp","type":"uint256","indexed":false,"internalType":"uint256"}],"anonymous":false},{"type":"event","name":"DeveloperFeeSent","inputs":[{"name":"distributor","type":"address","indexed":true,"internalType":"address"},{"name":"amount","type":"uint256","indexed":false,"internalType":"uint256"},{"name":"timestamp","type":"uint256","indexed":false,"internalType":"uint256"}],"anonymous":false},{"type":"event","name":"DistributorError","inputs":[{"name":"operation","type":"string","indexed":false,"internalType":"string"},{"name":"reason","type":"string","indexed":false,"internalType":"string"},{"name":"timestamp","type":"uint256","indexed":false,"internalType":"uint256"}],"anonymous":false},{"type":"event","name":"EmergencyPaused","inputs":[{"name":"by","type":"address","indexed":true,"internalType":"address"},{"name":"reason","type":"string","indexed":false,"internalType":"string"},{"name":"timestamp","type":"uint256","indexed":false,"internalType":"uint256"}],"anonymous":false},{"type":"event","name":"EmergencyResumed","inputs":[{"name":"by","type":"address","indexed":true,"internalType":"address"},{"name":"timestamp","type":"uint256","indexed":false,"internalType":"uint256"}],"anonymous":false},{"type":"event","name":"FeeDistributed","inputs":[{"name":"referralFee","type":"uint256","indexed":false,"internalType":"uint256"},{"name":"adLotteryFee","type":"uint256","indexed":false,"internalType":"uint256"},{"name":"developerFee","type":"uint256","indexed":false,"internalType":"uint256"},{"name":"timestamp","type":"uint256","indexed":false,"internalType":"uint256"}],"anonymous":false},{"type":"event","name":"FounderDistribution","inputs":[{"name":"founder","type":"address","indexed":true,"internalType":"address"},{"name":"amount","type":"uint256","indexed":false,"internalType":"uint256"},{"name":"timestamp","type":"uint256","indexed":false,"internalType":"uint256"}],"anonymous":false},{"type":"event","name":"GameDurationUpdated","inputs":[{"name":"oldValue","type":"uint256","indexed":false,"internalType":"uint256"},{"name":"newValue","type":"uint256","indexed":false,"internalType":"uint256"},{"name":"timestamp","type":"uint256","indexed":false,"internalType":"uint256"}],"anonymous":false},{"type":"event","name":"GameEnded","inputs":[{"name":"gameNumber","type":"uint256","indexed":true,"internalType":"uint256"},{"name":"totalPlayers","type":"uint256","indexed":false,"internalType":"uint256"},{"name":"totalJackpot","type":"uint256","indexed":false,"internalType":"uint256"},{"name":"timestamp","type":"uint256","indexed":false,"internalType":"uint256"}],"anonymous":false},{"type":"event","name":"GamePerformanceMetrics","inputs":[{"name":"gameNumber","type":"uint256","indexed":true,"internalType":"uint256"},{"name":"gasUsed","type":"uint256","indexed":false,"internalType":"uint256"},{"name":"playerCount","type":"uint256","indexed":false,"internalType":"uint256"},{"name":"jackpot","type":"uint256","indexed":false,"internalType":"uint256"},{"name":"timestamp","type":"uint256","indexed":false,"internalType":"uint256"}],"anonymous":false},{"type":"event","name":"GameSecurityEvent","inputs":[{"name":"player","type":"address","indexed":true,"internalType":"address"},{"name":"eventType","type":"string","indexed":false,"internalType":"string"},{"name":"timestamp","type":"uint256","indexed":false,"internalType":"uint256"}],"anonymous":false},{"type":"event","name":"GameStateChanged","inputs":[{"name":"gameNumber","type":"uint256","indexed":false,"internalType":"uint256"},{"name":"state","type":"uint8","indexed":false,"internalType":"enum StorageLayout.GameState"},{"name":"timestamp","type":"uint256","indexed":false,"internalType":"uint256"}],"anonymous":false},{"type":"event","name":"GameStatsUpdated","inputs":[{"name":"totalGames","type":"uint256","indexed":false,"internalType":"uint256"},{"name":"totalPlayers","type":"uint256","indexed":false,"internalType":"uint256"},{"name":"totalPayouts","type":"uint256","indexed":false,"internalType":"uint256"},{"name":"timestamp","type":"uint256","indexed":false,"internalType":"uint256"}],"anonymous":false},{"type":"event","name":"Initialized","inputs":[{"name":"version","type":"uint64","indexed":false,"internalType":"uint64"}],"anonymous":false},{"type":"event","name":"JackpotDistributed","inputs":[{"name":"winner","type":"address","indexed":true,"internalType":"address"},{"name":"amount","type":"uint256","indexed":false,"internalType":"uint256"},{"name":"gameNumber","type":"uint256","indexed":true,"internalType":"uint256"},{"name":"timestamp","type":"uint256","indexed":false,"internalType":"uint256"}],"anonymous":false},{"type":"event","name":"MaxTicketsPerPlayerUpdated","inputs":[{"name":"oldValue","type":"uint256","indexed":false,"internalType":"uint256"},{"name":"newValue","type":"uint256","indexed":false,"internalType":"uint256"},{"name":"timestamp","type":"uint256","indexed":false,"internalType":"uint256"}],"anonymous":false},{"type":"event","name":"OwnershipTransferred","inputs":[{"name":"previousOwner","type":"address","indexed":true,"internalType":"address"},{"name":"newOwner","type":"address","indexed":true,"internalType":"address"}],"anonymous":false},{"type":"event","name":"PlayerCooldownReset","inputs":[{"name":"player","type":"address","indexed":true,"internalType":"address"},{"name":"timestamp","type":"uint256","indexed":false,"internalType":"uint256"}],"anonymous":false},{"type":"event","name":"PurchaseCooldownSet","inputs":[{"name":"cooldown","type":"uint256","indexed":false,"internalType":"uint256"},{"name":"timestamp","type":"uint256","indexed":false,"internalType":"uint256"}],"anonymous":false},{"type":"event","name":"PurchaseCooldownUpdated","inputs":[{"name":"newCooldown","type":"uint256","indexed":false,"internalType":"uint256"},{"name":"timestamp","type":"uint256","indexed":false,"internalType":"uint256"}],"anonymous":false},{"type":"event","name":"ReferralError","inputs":[{"name":"operation","type":"string","indexed":false,"internalType":"string"},{"name":"reason","type":"string","indexed":false,"internalType":"string"},{"name":"timestamp","type":"uint256","indexed":false,"internalType":"uint256"}],"anonymous":false},{"type":"event","name":"RegistryError","inputs":[{"name":"operation","type":"string","indexed":false,"internalType":"string"},{"name":"contractName","type":"string","indexed":false,"internalType":"string"},{"name":"timestamp","type":"uint256","indexed":false,"internalType":"uint256"}],"anonymous":false},{"type":"event","name":"RegistrySet","inputs":[{"name":"registry","type":"address","indexed":true,"internalType":"address"},{"name":"timestamp","type":"uint256","indexed":false,"internalType":"uint256"}],"anonymous":false},{"type":"event","name":"StatsError","inputs":[{"name":"operation","type":"string","indexed":false,"internalType":"string"},{"name":"reason","type":"string","indexed":false,"internalType":"string"},{"name":"timestamp","type":"uint256","indexed":false,"internalType":"uint256"}],"anonymous":false},{"type":"event","name":"TestModeSet","inputs":[{"name":"enabled","type":"bool","indexed":false,"internalType":"bool"},{"name":"timestamp","type":"uint256","indexed":false,"internalType":"uint256"}],"anonymous":false},{"type":"event","name":"TicketPriceChanged","inputs":[{"name":"oldPrice","type":"uint256","indexed":false,"internalType":"uint256"},{"name":"newPrice","type":"uint256","indexed":false,"internalType":"uint256"},{"name":"timestamp","type":"uint256","indexed":false,"internalType":"uint256"}],"anonymous":false},{"type":"event","name":"TicketPurchased","inputs":[{"name":"player","type":"address","indexed":true,"internalType":"address"},{"name":"gameNumber","type":"uint256","indexed":true,"internalType":"uint256"},{"name":"ticketIndex","type":"uint256","indexed":false,"internalType":"uint256"},{"name":"timestamp","type":"uint256","indexed":false,"internalType":"uint256"}],"anonymous":false},{"type":"event","name":"TreasuryFundsDeposited","inputs":[{"name":"amount","type":"uint256","indexed":false,"internalType":"uint256"},{"name":"timestamp","type":"uint256","indexed":false,"internalType":"uint256"}],"anonymous":false},{"type":"event","name":"TreasuryFundsWithdrawn","inputs":[{"name":"winner","type":"address","indexed":false,"internalType":"address"},{"name":"amount","type":"uint256","indexed":false,"internalType":"uint256"},{"name":"timestamp","type":"uint256","indexed":false,"internalType":"uint256"}],"anonymous":false},{"type":"event","name":"TreasuryNameSet","inputs":[{"name":"treasuryName","type":"string","indexed":false,"internalType":"string"},{"name":"timestamp","type":"uint256","indexed":false,"internalType":"uint256"}],"anonymous":false},{"type":"event","name":"TreasuryOperationFailed","inputs":[{"name":"operation","type":"string","indexed":false,"internalType":"string"},{"name":"timestamp","type":"uint256","indexed":false,"internalType":"uint256"}],"anonymous":false},{"type":"event","name":"TreasuryTransferFailed","inputs":[{"name":"from","type":"address","indexed":false,"internalType":"address"},{"name":"amount","type":"uint256","indexed":false,"internalType":"uint256"},{"name":"reason","type":"string","indexed":false,"internalType":"string"},{"name":"timestamp","type":"uint256","indexed":false,"internalType":"uint256"}],"anonymous":false},{"type":"event","name":"Upgraded","inputs":[{"name":"implementation","type":"address","indexed":true,"internalType":"address"}],"anonymous":false},{"type":"event","name":"WinnerPayout","inputs":[{"name":"winner","type":"address","indexed":true,"internalType":"address"},{"name":"amount","type":"uint256","indexed":false,"internalType":"uint256"},{"name":"timestamp","type":"uint256","indexed":false,"internalType":"uint256"}],"anonymous":false},{"type":"event","name":"WinnerSelected","inputs":[{"name":"winner","type":"address","indexed":true,"internalType":"address"},{"name":"gameNumber","type":"uint256","indexed":true,"internalType":"uint256"},{"name":"jackpot","type":"uint256","indexed":false,"internalType":"uint256"},{"name":"playerCount","type":"uint256","indexed":false,"internalType":"uint256"},{"name":"timestamp","type":"uint256","indexed":false,"internalType":"uint256"}],"anonymous":false},{"type":"error","name":"AddressEmptyCode","inputs":[{"name":"target","type":"address","internalType":"address"}]},{"type":"error","name":"ERC1967InvalidImplementation","inputs":[{"name":"implementation","type":"address","internalType":"address"}]},{"type":"error","name":"ERC1967NonPayable","inputs":[]},{"type":"error","name":"FailedCall","inputs":[]},{"type":"error","name":"InvalidInitialization","inputs":[]},{"type":"error","name":"NotInitializing","inputs":[]},{"type":"error","name":"OwnableInvalidOwner","inputs":[{"name":"owner","type":"address","internalType":"address"}]},{"type":"error","name":"OwnableUnauthorizedAccount","inputs":[{"name":"account","type":"address","internalType":"address"}]},{"type":"error","name":"ReentrancyGuardReentrantCall","inputs":[]},{"type":"error","name":"UUPSUnauthorizedCallContext","inputs":[]},{"type":"error","name":"UUPSUnsupportedProxiableUUID","inputs":[{"name":"slot","type":"bytes32","internalType":"bytes32"}]}],"bytecode":{"object":"0x60a0604052306080526004805460ff191690553480156200001e575f80fd5b50620000296200002f565b620000e3565b7ff0c57e16840df040f15088dc2f81fe391c3923bec73e23a9662efc9c229c6a00805468010000000000000000900460ff1615620000805760405163f92ee8a960e01b815260040160405180910390fd5b80546001600160401b0390811614620000e05780546001600160401b0319166001600160401b0390811782556040519081527fc7f505b2f371ae2175ee4913f4499e1f2633a7b5936321eed1cdaeb6115181d29060200160405180910390a15b50565b608051612f896200010a5f395f818161143c0152818161146501526115a40152612f895ff3fe608060405260043610610233575f3560e01c80636f9fb98a1161012d578063ad3cb1cc116100aa578063ca1052c31161006e578063ca1052c31461061d578063cd9ea34214610631578063cf5b4fd51461064a578063f2fde38b14610669578063f83fd8051461068857610245565b8063ad3cb1cc14610596578063b38854be146105c6578063bf77e7c8146105e5578063c3da0cf314610609578063c61c66dd1461058257610245565b80638da5cb5b116100f15780638da5cb5b1461052757806393c87f031461053b578063a8336aa21461054f578063a91ee0dc14610563578063a9f776841461058257610245565b80636f9fb98a14610498578063715018a6146104aa57806374baa131146104be5780637b103999146104dd5780638b235f191461051357610245565b80634f1ef286116101bb5780635e3caf611161017f5780635e3caf611461041f578063624448011461043357806366a5ef2f1461044757806367898fdd1461045a5780636b8cd1441461047957610245565b80634f1ef2861461037e57806352d1902d1461039157806353b7acdf146103a557806359328401146103c65780635d130ec61461040057610245565b8063227a14c111610202578063227a14c1146102f557806322f19172146103205780633358ab5a146103565780633fead80d146102645780634bc2178f1461036a57610245565b80630dac14371461025057806314dd2cd1146102645780631746bd1b1461028b5780631ff1292f146102d657610245565b36610245576102435f60016106a9565b005b6102435f60016106a9565b34801561025b575f80fd5b50610243610754565b34801561026f575f80fd5b50610278600381565b6040519081526020015b60405180910390f35b348015610296575f80fd5b5061029f61079c565b6040805197885260208801969096529486019390935260608501919091521515608084015260a083015260c082015260e001610282565b3480156102e1575f80fd5b506102436102f036600461279b565b610805565b348015610300575f80fd5b5061027861030f3660046127ce565b60036020525f908152604090205481565b34801561032b575f80fd5b50610334610871565b6040805194855260208501939093529183015215156060820152608001610282565b348015610361575f80fd5b506102786108a5565b348015610375575f80fd5b50610278600481565b61024361038c366004612885565b6108d0565b34801561039c575f80fd5b506102786108eb565b3480156103b0575f80fd5b506103b9610907565b6040516102829190612932565b3480156103d1575f80fd5b506103e56103e03660046127ce565b610993565b60408051938452602084019290925290820152606001610282565b34801561040b575f80fd5b5061024361041a366004612962565b6109d3565b34801561042a575f80fd5b50610278610b4d565b34801561043e575f80fd5b50610278610b7b565b6102436104553660046129f6565b6106a9565b348015610465575f80fd5b506102436104743660046127ce565b610bf6565b348015610484575f80fd5b50610243610493366004612a20565b610c6a565b3480156104a3575f80fd5b5047610278565b3480156104b5575f80fd5b50610243610cbb565b3480156104c9575f80fd5b506102436104d8366004612a5a565b610cce565b3480156104e8575f80fd5b505f546104fb906001600160a01b031681565b6040516001600160a01b039091168152602001610282565b34801561051e575f80fd5b50610243610d1e565b348015610532575f80fd5b506104fb610d59565b348015610546575f80fd5b50610243610d87565b34801561055a575f80fd5b50610278610d97565b34801561056e575f80fd5b5061024361057d3660046127ce565b610dc5565b34801561058d575f80fd5b50610278600a81565b3480156105a1575f80fd5b506103b9604051806040016040528060058152602001640352e302e360dc1b81525081565b3480156105d1575f80fd5b506002546104fb906001600160a01b031681565b3480156105f0575f80fd5b506105f9610e77565b6040519015158152602001610282565b348015610614575f80fd5b50610278601e81565b348015610628575f80fd5b50610278610ea1565b34801561063c575f80fd5b506004546105f99060ff1681565b348015610655575f80fd5b50610243610664366004612a20565b610ecf565b348015610674575f80fd5b506102436106833660046127ce565b610ee3565b348015610693575f80fd5b5061069c610f1d565b6040516102829190612aa5565b6106b1610f4e565b6106ba81610f98565b5f6106cb6106c6611095565b6110b9565b90506106de6106d8611095565b826110e2565b90506106e981611178565b6106f333836111eb565b6106fc34611245565b6107063484611264565b610726610711611095565b5f83815260209190915260409020548361126e565b5061075060017f9b779b17422d0df92223018b32b4d1fa46e071723d6817e2486d003becc55f0055565b5050565b5f61075d611095565b90505f610769826110b9565b5f818152602084905260409020909150610782816112e2565b156107975761078f611311565b610797611366565b505050565b5f805f805f805f806107ac611095565b60098101545f8181526020839052604090208054600182015460058501549495509293919290916107db610b7b565b6107e3610e77565b6005860154600390960154949f939e50919c509a509850919650945092505050565b61080d6113ff565b5f610816611095565b60078101805461ff00191661010085151590810291909117909155604080519182524260208301529192507f0c3d26d617b36472fd95b3ab4a82b29d672ae9210ba48d8cc7a96e30ccabb81e91015b60405180910390a15050565b5f805f805f61087e611095565b600481015460058201546006830154600790930154919890975091955060ff169350915050565b5f806108af611095565b90505f6108bb826110b9565b5f908152602092909252506040902054919050565b6108d8611431565b6108e1826114d5565b61075082826114dd565b5f6108f4611599565b505f80516020612f348339815191525b90565b6001805461091490612ab3565b80601f016020809104026020016040519081016040528092919081815260200182805461094090612ab3565b801561098b5780601f106109625761010080835404028352916020019161098b565b820191905f5260205f20905b81548152906001019060200180831161096e57829003601f168201915b505050505081565b5f805f8061099f611095565b6001600160a01b03959095165f90815260029586016020526040902080546001820154919096015495969095945092505050565b5f6109dc6115e2565b805490915060ff600160401b820416159067ffffffffffffffff165f81158015610a035750825b90505f8267ffffffffffffffff166001148015610a1f5750303b155b905081158015610a2d575080155b15610a4b5760405163f92ee8a960e01b815260040160405180910390fd5b845467ffffffffffffffff191660011785558315610a7557845460ff60401b1916600160401b1785555b6001600160a01b038b16610ac85760405162461bcd60e51b8152602060048201526015602482015274496e76616c6964206f776e6572206164647265737360581b60448201526064015b60405180910390fd5b610ad28b5f61160a565b5f610adb611095565b662386f26fc10000600482015562093a8060058201556064600690910155508315610b4057845460ff60401b19168555604051600181527fc7f505b2f371ae2175ee4913f4499e1f2633a7b5936321eed1cdaeb6115181d29060200160405180910390a15b5050505050505050505050565b5f80610b57611095565b90505f610b63826110b9565b5f908152602092909252506040902060020154919050565b5f80610b85611095565b90505f610b91826110b9565b5f8181526020849052604090209091506001600782015460ff166002811115610bbc57610bbc612a71565b14610bca575f935050505090565b80600201544210610bde575f935050505090565b428160020154610bee9190612aff565b935050505090565b610bfe6113ff565b5f610c07611095565b6001600160a01b0383165f818152600283016020526040808220600181019290925551929350917f2b47ce68bdeb571aace54393d432df4aaeb52250bce367bde605fa39e5c33b5390610c5d9042815260200190565b60405180910390a2505050565b610c726113ff565b6001610c7e8282612b5d565b507f20e73ae7ce0e3fa0df67d168abddb775f1315c79ec885fa46a47ff450f04d5778142604051610cb0929190612c1d565b60405180910390a150565b610cc36113ff565b610ccc5f6116bd565b565b610cd66113ff565b5f610cdf611095565b60088101839055604080518481524260208201529192507fa569980a721f6cb943e368da4d14eee89eb43a76e7f1eda8650cae67c21734fc9101610865565b5f610d27611095565b90505f610d33826110b9565b5f818152602084905260409020909150610d4c816112e2565b1561079757610797611311565b7f9016d09d72d40fdae2fd8ceac6b6234c7706214fd39c1cd1e609a0528c199300546001600160a01b031690565b610d8f6113ff565b610ccc61172d565b5f80610da1611095565b90505f610dad826110b9565b5f908152602092909252506040902060030154919050565b610dcd6113ff565b6001600160a01b038116610e235760405162461bcd60e51b815260206004820152601860248201527f496e76616c6964207265676973747279206164647265737300000000000000006044820152606401610abf565b5f80546001600160a01b0319166001600160a01b0383169081179091556040514281527fd9092d8db7ee512a7656796a75ec5f41fdb46bf581521c3266d4bc57e5bf6783906020015b60405180910390a250565b5f80610e81611095565b60098101545f908152602091909152604090206002015442101592915050565b5f80610eab611095565b90505f610eb7826110b9565b5f908152602092909252506040902060040154919050565b610ed76113ff565b610ee0816117d5565b50565b610eeb6113ff565b6001600160a01b038116610f1457604051631e4fbdf760e01b81525f6004820152602401610abf565b610ee0816116bd565b5f80610f27611095565b90505f610f33826110b9565b5f90815260209290925250604090206007015460ff16919050565b7f9b779b17422d0df92223018b32b4d1fa46e071723d6817e2486d003becc55f00805460011901610f9257604051633ee5aeb560e01b815260040160405180910390fd5b60029055565b5f610fa1611095565b600781015490915060ff16610fed5760405162461bcd60e51b815260206004820152601260248201527147616d65206973206e6f742061637469766560701b6044820152606401610abf565b5f82116110485760405162461bcd60e51b815260206004820152602360248201527f5469636b657420636f756e74206d75737420626520677265617465722074686160448201526206e20360ec1b6064820152608401610abf565b8181600401546110589190612c3e565b34146107505760405162461bcd60e51b815260206004820152600c60248201526b15dc9bdb99c8185b5bdd5b9d60a21b6044820152606401610abf565b7f54a93883e668f845121f9ed2904459121a66c9b3035aae515f9eb649cbd75b1c90565b5f808260090154116110cb575f6110dc565b600182600901546110dc9190612aff565b92915050565b5f81815260208390526040812081600782015460ff16600281111561110957611109612a71565b0361112f57611116611366565b600184600901546111279190612aff565b9150506110dc565b6001600782015460ff16600281111561114a5761114a612a71565b14801561115b575080600201544210155b1561117057611168611311565b611116611366565b509092915050565b5f611181611095565b5f8381526020829052604090209091506001600782015460ff1660028111156111ac576111ac612a71565b146107975760405162461bcd60e51b815260206004820152600f60248201526e47616d65206e6f742061637469766560881b6044820152606401610abf565b5f6111f4611095565b90505f611200826110b9565b5f81815260208490526040902090915061121b838686611886565b61122681848761191c565b6112398160030154858560040154611a18565b60039091015550505050565b8015610ee0575f546001600160a01b031615610ee057610ee081611a37565b6107508282611abe565b5f5b818110156107975760408051828152426020820152849133917f96541f70da731142b18e96f1def4d2a7733deb7d784723106d52c1d906d4c67a910160405180910390a3600101611270565b60017f9b779b17422d0df92223018b32b4d1fa46e071723d6817e2486d003becc55f0055565b5f6001600783015460ff1660028111156112fe576112fe612a71565b1480156110dc5750506002015442101590565b5f61131a611095565b90505f611326826110b9565b5f81815260208490526040902090915061133e611b4d565b5f611347611b81565b9050611360825f01548360030154846004015484611c5a565b50505050565b5f61136f611095565b60098101545f81815260208390526040902060058301549293509091611396908390611d2a565b845f015f866001015f886002015f8a6007015f8891906101000a81548160ff021916908360028111156113cb576113cb612a71565b021790555050959095559490945593909355505050600983018054905f6113f183612c55565b919050555061079782611d4e565b33611408610d59565b6001600160a01b031614610ccc5760405163118cdaa760e01b8152336004820152602401610abf565b306001600160a01b037f00000000000000000000000000000000000000000000000000000000000000001614806114b757507f00000000000000000000000000000000000000000000000000000000000000006001600160a01b03166114ab5f80516020612f34833981519152546001600160a01b031690565b6001600160a01b031614155b15610ccc5760405163703e46dd60e11b815260040160405180910390fd5b610ee06113ff565b816001600160a01b03166352d1902d6040518163ffffffff1660e01b8152600401602060405180830381865afa925050508015611537575060408051601f3d908101601f1916820190925261153491810190612c6d565b60015b61155f57604051634c9c8ce360e01b81526001600160a01b0383166004820152602401610abf565b5f80516020612f34833981519152811461158f57604051632a87526960e21b815260048101829052602401610abf565b6107978383611dcb565b306001600160a01b037f00000000000000000000000000000000000000000000000000000000000000001614610ccc5760405163703e46dd60e11b815260040160405180910390fd5b5f807ff0c57e16840df040f15088dc2f81fe391c3923bec73e23a9662efc9c229c6a006110dc565b611612611e20565b6001600160a01b0382166116605760405162461bcd60e51b8152602060048201526015602482015274496e76616c6964206f776e6572206164647265737360581b6044820152606401610abf565b6001600160a01b0381161561168a575f80546001600160a01b0319166001600160a01b0383161790555b61169382611e45565b61169b611e56565b6116a3611e5e565b600280546001600160a01b03191630179055610750611e6e565b7f9016d09d72d40fdae2fd8ceac6b6234c7706214fd39c1cd1e609a0528c19930080546001600160a01b031981166001600160a01b03848116918217845560405192169182907f8be0079c531659141344cd1fd0a4f28419497f9722a3daafe3b4186f6b6457e0905f90a3505050565b611735610d59565b6001600160a01b0316336001600160a01b0316146117865760405162461bcd60e51b815260206004820152600e60248201526d139bdd08185d5d1a1bdc9a5e995960921b6044820152606401610abf565b5f61178f611095565b60078101805460ff1916600117905560405190915033907fe0dc8967738d1ca725802874d41e2ab2405df0e2eb3c61069d26d2782660d59490610e6c9042815260200190565b6117dd610d59565b6001600160a01b0316336001600160a01b03161461182e5760405162461bcd60e51b815260206004820152600e60248201526d139bdd08185d5d1a1bdc9a5e995960921b6044820152606401610abf565b5f611837611095565b60078101805460ff1916905560405190915033907fcc1b3dd39eb52913e9d184dde2ed4916801bdc2f5d6a119f2a946416893481d19061187a9085904290612c1d565b60405180910390a25050565b6001600160a01b0382165f908152600184016020526040902054806118ab8382612c84565b10156118f15760405162461bcd60e51b81526020600482015260156024820152745469636b657420636f756e74206f766572666c6f7760581b6044820152606401610abf565b6118fb8282612c84565b6001600160a01b039093165f90815260019094016020525050604090912055565b5f61192e846005018560060184611ef2565b9050801561136057600c830154611946816001612c84565b101561198d5760405162461bcd60e51b8152602060048201526016602482015275546f74616c20706c6179657273206f766572666c6f7760501b6044820152606401610abf565b600484015461199d816001612c84565b10156119e35760405162461bcd60e51b8152602060048201526015602482015274506c6179657220636f756e74206f766572666c6f7760581b6044820152606401610abf565b600c83018054905f6119f483612c55565b91905055506001846004015f828254611a0d9190612c84565b909155505050505050565b5f611a238284612c3e565b611a2d9085612c84565b90505b9392505050565b5f54604051633581777360e01b81526001600160a01b0390911690633581777390611a6790600190600401612d10565b602060405180830381865afa925050508015611aa0575060408051601f3d908101601f19168201909252611a9d91810190612d22565b60015b15610ee0576001600160a01b03811615610750576107508183611f65565b5f611ac88361208b565b90508015610797575f805f611adc866120a3565b925092509250611aec83866120f7565b611af582612132565b611afe81612141565b60408051848152602081018490529081018290524260608201527f5b3735d487e9342fbcf11df79c2146f60ffabadb4d2e31ced107fe4346cd21ef9060800160405180910390a1505050505050565b5f611b56611095565b90505f611b62826110b9565b5f9081526020929092525060409020600701805460ff19166002179055565b5f80611b8b611095565b90505f80826009015411611b9f575f611bb0565b60018260090154611bb09190612aff565b5f818152602084905260409020600581015491925090611c075760405162461bcd60e51b81526020600482015260126024820152714e6f20706c617965727320696e2067616d6560701b6044820152606401610abf565b5f611c265f60018460050180549050611c209190612aff565b42612150565b9050816005018181548110611c3d57611c3d612d3d565b5f918252602090912001546001600160a01b031695945050505050565b60408051848152602081018490524281830152905185916001600160a01b038416917fe1e1092ba644510bf260dc4a6aafc7d680596ffe47d321cdfd3e0540b21ec5a69181900360600190a360408051838152602081018590524281830152905185917fbc90215e53e674c730aaa25f931a3d27c8fb234665be39704719b8accdde9c4c919081900360600190a27f46e59b25850fb5875ea16cb7de4c6866327eef1a3f4ff23c27b3c5ad811979dd84600242604051611d1c93929190612d51565b60405180910390a150505050565b5f808080854282611d3b8883612c84565b9299919850919650600195509350505050565b7f46e59b25850fb5875ea16cb7de4c6866327eef1a3f4ff23c27b3c5ad811979dd81600142604051611d8293929190612d51565b60405180910390a1604080516103e7815242602082015282915f917f96541f70da731142b18e96f1def4d2a7733deb7d784723106d52c1d906d4c67a910160405180910390a350565b611dd4826122a8565b6040516001600160a01b038316907fbc7cd75a20ee27fd9adebab32041f755214dbc6bffa90cc0225b39da2e5c2d3b905f90a2805115611e1857610797828261230b565b61075061237d565b611e2861239c565b610ccc57604051631afcd79f60e31b815260040160405180910390fd5b611e4d611e20565b610ee0816123b5565b610ccc611e20565b611e66611e20565b610ccc6123bd565b5f611e77611095565b905080600401545f03610ee057662386f26fc100006004828101919091556201518060058301556064600683015560078083018054600160ff1991821681179092555f808052602095909552604085208581559182018590556002820185905560038201859055928101939093559190910180549091169055565b6001600160a01b0381165f9081526020839052604081205460ff1615611f1957505f611a30565b508254600180820185555f948552602080862090920180546001600160a01b0319166001600160a01b03949094169384179055918452919091526040909120805460ff19168217905590565b6001600160a01b03821615801590611f7c57505f81115b15610750576040516308638fd160e01b81526001600160a01b038316906308638fd190611fb29060019030908690600401612d73565b5f604051808303815f87803b158015611fc9575f80fd5b505af1925050508015611fda575060015b61205657611fe6612da0565b806308c379a0036120345750611ffa612db8565b806120055750612036565b5f80516020612f14833981519152308383426040516120279493929190612e41565b60405180910390a1505050565b505b5f80516020612f1483398151915230824260405161086593929190612e78565b604080518281524260208201527fbec1a08e6dcd95f4cbb560bf9010af9efaf4b5b424d78d43652646cdc7726ec89101610865565b5f6064612099600a84612c3e565b6110dc9190612ed2565b5f808060646120b3600386612c3e565b6120bd9190612ed2565b925060646120cc600486612c3e565b6120d69190612ed2565b915060646120e5600386612c3e565b6120ef9190612ed2565b929491935050565b6001600160a01b0381161580159061211857506001600160a01b0381163314155b801561212357505f82115b156107505761075081336123c5565b8015610ee057610ee0816123ed565b8015610ee057610ee081612428565b5f8383116121905760405162461bcd60e51b815260206004820152600d60248201526c496e76616c69642072616e676560981b6044820152606401610abf565b61219c60015f19612aff565b6121a68585612aff565b11156121e65760405162461bcd60e51b815260206004820152600f60248201526e52616e676520746f6f206c6172676560881b6044820152606401610abf565b5f4244436121f5600182612aff565b40612201600243612aff565b4087335a604080516020810199909952880196909652606080880195909552608087019390935260a086019190915260c08501526bffffffffffffffffffffffff19911b1660e083015260f4820152610114016040516020818303038152906040528051906020012090505f85856122799190612aff565b612284906001612c84565b90505f6122918284612ee5565b905061229d8188612c84565b979650505050505050565b806001600160a01b03163b5f036122dd57604051634c9c8ce360e01b81526001600160a01b0382166004820152602401610abf565b5f80516020612f3483398151915280546001600160a01b0319166001600160a01b0392909216919091179055565b60605f80846001600160a01b0316846040516123279190612ef8565b5f60405180830381855af49150503d805f811461235f576040519150601f19603f3d011682016040523d82523d5f602084013e612364565b606091505b5091509150612374858383612447565b95945050505050565b3415610ccc5760405163b398979f60e01b815260040160405180910390fd5b5f6123a56115e2565b54600160401b900460ff16919050565b610eeb611e20565b6112bc611e20565b6123cf82826124a3565b15610750575f546001600160a01b03161561075057610750826124ca565b8015610ee057604080518281524260208201527f6eac9fa4c5b54637971e9ed2cb39933d7d2d10c9438ff8ccf4e61a4e6c5cfa1b9101610cb0565b8015610ee0575f546001600160a01b031615610ee057610ee0816125dc565b60608261245c5761245782612773565b611a30565b815115801561247357506001600160a01b0384163b155b1561249c57604051639996b31560e01b81526001600160a01b0385166004820152602401610abf565b5080611a30565b5f6001600160a01b03831615801590611a305750506001600160a01b039182169116141590565b5f546001600160a01b031615610ee0575f54604051633581777360e01b815260206004820152601360248201527210dc9e5c1d1bdb1bdd1d1bd49959995c9c985b606a1b60448201526001600160a01b0390911690633581777390606401602060405180830381865afa158015612543573d5f803e3d5ffd5b505050506040513d601f19601f820116820180604052508101906125679190612d22565b60405163da46bdad60e01b81526001600160a01b0383811660048301525f6024830181905292169163da46bdad9160440160206040518083038185885af1935050505080156125d3575060408051601f3d908101601f191682019092526125d091810190612c6d565b60015b15610ee0575050565b5f546001600160a01b031615610ee0575f54604051633581777360e01b815260206004820152600f60248201526e2a3932b0b9bab93ca6b0b730b3b2b960891b60448201526001600160a01b0390911690633581777390606401602060405180830381865afa158015612651573d5f803e3d5ffd5b505050506040513d601f19601f820116820180604052508101906126759190612d22565b6001600160a01b031663f077022a600133846040518463ffffffff1660e01b81526004016126a593929190612d73565b5f604051808303815f87803b1580156126bc575f80fd5b505af19250505080156126cd575060015b61273c576126d9612da0565b806308c379a00361271a57506126ed612db8565b806126f8575061271c565b5f80516020612f14833981519152308383426040516108659493929190612e41565b505b5f80516020612f14833981519152308242604051610cb093929190612e78565b6040805182815242602082015233917f495c3002bc7d0caa928355d3d9493820bf3dd5b333363c341a09948e12a1db0e9101610e6c565b80511561278257805160208201fd5b60405163d6bda27560e01b815260040160405180910390fd5b5f602082840312156127ab575f80fd5b81358015158114611a30575f80fd5b6001600160a01b0381168114610ee0575f80fd5b5f602082840312156127de575f80fd5b8135611a30816127ba565b634e487b7160e01b5f52604160045260245ffd5b601f8201601f1916810167ffffffffffffffff81118282101715612823576128236127e9565b6040525050565b5f67ffffffffffffffff831115612843576128436127e9565b60405161285a601f8501601f1916602001826127fd565b80915083815284848401111561286e575f80fd5b838360208301375f60208583010152509392505050565b5f8060408385031215612896575f80fd5b82356128a1816127ba565b9150602083013567ffffffffffffffff8111156128bc575f80fd5b8301601f810185136128cc575f80fd5b6128db8582356020840161282a565b9150509250929050565b5f5b838110156128ff5781810151838201526020016128e7565b50505f910152565b5f815180845261291e8160208601602086016128e5565b601f01601f19169290920160200192915050565b602081525f611a306020830184612907565b5f82601f830112612953575f80fd5b611a308383356020850161282a565b5f805f805f8060c08789031215612977575f80fd5b8635612982816127ba565b95506020870135612992816127ba565b945060408701356129a2816127ba565b935060608701356129b2816127ba565b925060808701356129c2816127ba565b915060a087013567ffffffffffffffff8111156129dd575f80fd5b6129e989828a01612944565b9150509295509295509295565b5f8060408385031215612a07575f80fd5b8235612a12816127ba565b946020939093013593505050565b5f60208284031215612a30575f80fd5b813567ffffffffffffffff811115612a46575f80fd5b612a5284828501612944565b949350505050565b5f60208284031215612a6a575f80fd5b5035919050565b634e487b7160e01b5f52602160045260245ffd5b60038110612aa157634e487b7160e01b5f52602160045260245ffd5b9052565b602081016110dc8284612a85565b600181811c90821680612ac757607f821691505b602082108103612ae557634e487b7160e01b5f52602260045260245ffd5b50919050565b634e487b7160e01b5f52601160045260245ffd5b818103818111156110dc576110dc612aeb565b601f82111561079757805f5260205f20601f840160051c81016020851015612b375750805b601f840160051c820191505b81811015612b56575f8155600101612b43565b5050505050565b815167ffffffffffffffff811115612b7757612b776127e9565b612b8b81612b858454612ab3565b84612b12565b602080601f831160018114612bbe575f8415612ba75750858301515b5f19600386901b1c1916600185901b178555612c15565b5f85815260208120601f198616915b82811015612bec57888601518255948401946001909101908401612bcd565b5085821015612c0957878501515f19600388901b60f8161c191681555b505060018460011b0185555b505050505050565b604081525f612c2f6040830185612907565b90508260208301529392505050565b80820281158282048414176110dc576110dc612aeb565b5f60018201612c6657612c66612aeb565b5060010190565b5f60208284031215612c7d575f80fd5b5051919050565b808201808211156110dc576110dc612aeb565b5f8154612ca381612ab3565b808552602060018381168015612cc05760018114612cda57612d05565b60ff1985168884015283151560051b880183019550612d05565b865f52825f205f5b85811015612cfd5781548a8201860152908301908401612ce2565b890184019650505b505050505092915050565b602081525f611a306020830184612c97565b5f60208284031215612d32575f80fd5b8151611a30816127ba565b634e487b7160e01b5f52603260045260245ffd5b83815260608101612d656020830185612a85565b826040830152949350505050565b606081525f612d856060830186612c97565b6001600160a01b039490941660208301525060400152919050565b5f60033d11156109045760045f803e505f5160e01c90565b5f60443d1015612dc55790565b6040516003193d81016004833e81513d67ffffffffffffffff8160248401118184111715612df557505050505090565b8285019150815181811115612e0d5750505050505090565b843d8701016020828501011115612e275750505050505090565b612e36602082860101876127fd565b509095945050505050565b60018060a01b0385168152836020820152608060408201525f612e676080830185612907565b905082606083015295945050505050565b6001600160a01b039390931683526020830191909152608060408301819052600d908301526c2ab735b737bbb71032b93937b960991b60a0830152606082015260c00190565b634e487b7160e01b5f52601260045260245ffd5b5f82612ee057612ee0612ebe565b500490565b5f82612ef357612ef3612ebe565b500690565b5f8251612f098184602087016128e5565b919091019291505056fe419f1e3e5b764ed411bdfb5b2bcb8cd5c4c11e630da8354d290eb2ce1534bc15360894a13ba1a3210667c828492db98dca3e2076cc3735a920a3ca505d382bbca2646970667358221220c082f7d8d956293c166dd3d0f54a6295dce7efe5782f03addcaab1c7a6b2746064736f6c63430008160033","linkReferences":{}},"methodIdentifiers":{"AD_LOTTERY_FEE_PERCENT()":"4bc2178f","DEVELOPER_FEE_PERCENT()":"14dd2cd1","MAX_TICKETS_PER_TRANSACTION()":"c61c66dd","PURCHASE_COOLDOWN()":"c3da0cf3","REFERRAL_FEE_PERCENT()":"3fead80d","TOTAL_FEE_PERCENT()":"a9f77684","UPGRADE_INTERFACE_VERSION()":"ad3cb1cc","autoEndGame()":"0dac1437","buyTicket(address,uint256)":"66a5ef2f","checkAndEndGame()":"8b235f19","emergencyPause(string)":"cf5b4fd5","emergencyResume()":"93c87f03","getContractBalance()":"6f9fb98a","getCurrentGameEndTime()":"5e3caf61","getCurrentGameJackpot()":"a8336aa2","getCurrentGameNumber()":"3358ab5a","getCurrentGamePlayerCount()":"ca1052c3","getCurrentGameState()":"f83fd805","getGameConfig()":"22f19172","getGameInfo()":"1746bd1b","getPlayerInfo(address)":"59328401","getRemainingGameTime()":"62444801","initialize(address,address,address,address,address,string)":"5d130ec6","isGameTimeExpired()":"bf77e7c8","lastPurchaseTime(address)":"227a14c1","ownable()":"b38854be","owner()":"8da5cb5b","proxiableUUID()":"52d1902d","registry()":"7b103999","renounceOwnership()":"715018a6","resetPlayerCooldown(address)":"67898fdd","setPurchaseCooldown(uint256)":"74baa131","setRegistry(address)":"a91ee0dc","setTestMode(bool)":"1ff1292f","setTreasuryName(string)":"6b8cd144","testMode()":"cd9ea342","transferOwnership(address)":"f2fde38b","treasuryName()":"53b7acdf","upgradeToAndCall(address,bytes)":"4f1ef286"},"storageLayout":{"storage":[{"astId":3941,"contract":"contracts/modules/lottery/Cryptolotto7Days.sol:Cryptolotto7Days","label":"registry","offset":0,"slot":"0","type":"t_contract(ContractRegistry)20530"},{"astId":3944,"contract":"contracts/modules/lottery/Cryptolotto7Days.sol:Cryptolotto7Days","label":"treasuryName","offset":0,"slot":"1","type":"t_string_storage"},{"astId":3948,"contract":"contracts/modules/lottery/Cryptolotto7Days.sol:Cryptolotto7Days","label":"ownable","offset":0,"slot":"2","type":"t_contract(IOwnable)15681"},{"astId":7459,"contract":"contracts/modules/lottery/Cryptolotto7Days.sol:Cryptolotto7Days","label":"lastPurchaseTime","offset":0,"slot":"3","type":"t_mapping(t_address,t_uint256)"},{"astId":7462,"contract":"contracts/modules/lottery/Cryptolotto7Days.sol:Cryptolotto7Days","label":"testMode","offset":0,"slot":"4","type":"t_bool"}],"types":{"t_address":{"encoding":"inplace","label":"address","numberOfBytes":"20"},"t_bool":{"encoding":"inplace","label":"bool","numberOfBytes":"1"},"t_contract(ContractRegistry)20530":{"encoding":"inplace","label":"contract ContractRegistry","numberOfBytes":"20"},"t_contract(IOwnable)15681":{"encoding":"inplace","label":"contract IOwnable","numberOfBytes":"20"},"t_mapping(t_address,t_uint256)":{"encoding":"mapping","key":"t_address","label":"mapping(address => uint256)","numberOfBytes":"32","value":"t_uint256"},"t_string_storage":{"encoding":"bytes","label":"string","numberOfBytes":"32"},"t_uint256":{"encoding":"inplace","label":"uint256","numberOfBytes":"32"}}},"id":8}