{"abi":[{"type":"fallback","stateMutability":"payable"},{"type":"function","name":"Cryptolotto10Minutes","inputs":[{"name":"ownableContract","type":"address"},{"name":"distributor","type":"address"},{"name":"statsA","type":"address"},{"name":"referralSystem","type":"address"}],"outputs":[],"stateMutability":"nonpayable"},{"type":"function","name":"allTimeJackpot","inputs":[],"outputs":[{"name":"","type":"uint256"}],"stateMutability":"view"},{"type":"function","name":"allTimePlayers","inputs":[],"outputs":[{"name":"","type":"uint256"}],"stateMutability":"view"},{"type":"function","name":"buyTicket","inputs":[{"name":"partner","type":"address"}],"outputs":[],"stateMutability":"payable"},{"type":"function","name":"changeTicketPrice","inputs":[{"name":"price","type":"uint256"}],"outputs":[],"stateMutability":"nonpayable"},{"type":"function","name":"fee","inputs":[],"outputs":[{"name":"","type":"uint8"}],"stateMutability":"view"},{"type":"function","name":"fundsDistributor","inputs":[],"outputs":[{"name":"","type":"address"}],"stateMutability":"view"},{"type":"function","name":"gType","inputs":[],"outputs":[{"name":"","type":"uint8"}],"stateMutability":"view"},{"type":"function","name":"game","inputs":[],"outputs":[{"name":"","type":"uint256"}],"stateMutability":"view"},{"type":"function","name":"games","inputs":[{"name":"","type":"uint256"}],"outputs":[{"name":"","type":"uint256"}],"stateMutability":"view"},{"type":"function","name":"getGameJackpot","inputs":[{"name":"playedGame","type":"uint256"}],"outputs":[{"name":"","type":"uint256"}],"stateMutability":"view"},{"type":"function","name":"getPlayedGameJackpot","inputs":[],"outputs":[{"name":"","type":"uint256"}],"stateMutability":"view"},{"type":"function","name":"getPlayedGamePlayers","inputs":[],"outputs":[{"name":"","type":"uint256"}],"stateMutability":"view"},{"type":"function","name":"getPlayersInGame","inputs":[{"name":"playedGame","type":"uint256"}],"outputs":[{"name":"","type":"uint256"}],"stateMutability":"view"},{"type":"function","name":"isActive","inputs":[],"outputs":[{"name":"","type":"bool"}],"stateMutability":"view"},{"type":"function","name":"newPrice","inputs":[],"outputs":[{"name":"","type":"uint256"}],"stateMutability":"view"},{"type":"function","name":"ownable","inputs":[],"outputs":[{"name":"","type":"address"}],"stateMutability":"view"},{"type":"function","name":"paidToPartners","inputs":[],"outputs":[{"name":"","type":"uint256"}],"stateMutability":"view"},{"type":"function","name":"randomNumber","inputs":[{"name":"min","type":"uint256"},{"name":"max","type":"uint256"},{"name":"time","type":"uint256"},{"name":"difficulty","type":"uint256"},{"name":"number","type":"uint256"},{"name":"bHash","type":"bytes32"}],"outputs":[{"name":"","type":"uint256"}],"stateMutability":"pure"},{"type":"function","name":"referralInstance","inputs":[],"outputs":[{"name":"","type":"address"}],"stateMutability":"view"},{"type":"function","name":"start","inputs":[],"outputs":[],"stateMutability":"nonpayable"},{"type":"function","name":"stats","inputs":[],"outputs":[{"name":"","type":"address"}],"stateMutability":"view"},{"type":"function","name":"ticketPrice","inputs":[],"outputs":[{"name":"","type":"uint256"}],"stateMutability":"view"},{"type":"function","name":"toogleActive","inputs":[],"outputs":[],"stateMutability":"nonpayable"},{"type":"function","name":"toogleStatus","inputs":[],"outputs":[{"name":"","type":"bool"}],"stateMutability":"view"},{"type":"event","name":"Game","inputs":[{"name":"_game","type":"uint256","indexed":false},{"name":"_time","type":"uint256","indexed":true}],"anonymous":false},{"type":"event","name":"Ticket","inputs":[{"name":"_address","type":"address","indexed":true},{"name":"_game","type":"uint256","indexed":true},{"name":"_number","type":"uint256","indexed":false},{"name":"_time","type":"uint256","indexed":false}],"anonymous":false},{"type":"event","name":"ToPartner","inputs":[{"name":"_partner","type":"address","indexed":true},{"name":"_referral","type":"address","indexed":false},{"name":"_amount","type":"uint256","indexed":false},{"name":"_time","type":"uint256","indexed":false}],"anonymous":false},{"type":"event","name":"ToSalesPartner","inputs":[{"name":"_salesPartner","type":"address","indexed":true},{"name":"_partner","type":"address","indexed":false},{"name":"_amount","type":"uint256","indexed":false},{"name":"_time","type":"uint256","indexed":false}],"anonymous":false}],"bytecode":{"object":"0x608060405260008054600460ff19918216811761ff0019908116610a0017845566470de4df82000060025590839055600583905560069290925560078054909116600117909116905534801561005457600080fd5b5061118e806100646000396000f30060806040526004361061012c5760003560e01c63ffffffff1680630d8c1a6214610138578063117a5b901461014d5780631209b1f61461017757806316521a2b1461018c57806322f3e2d4146101a45780632ef5c784146101cd5780634630a0ee146101e257806347ddf87e146101fa57806351df9db91461020f578063650b147d1461022457806371dfc1161461023957806374796cc21461026c57806374cb55fb1461028457806385b75b1e146102b55780638897c1f4146102ca578063a46d11dc146102f1578063a5f8cdbb1461031c578063b38854be14610330578063be9a655514610345578063c3a151de1461035a578063c3fe3e281461036f578063c6ab848a14610384578063cf4e593a14610399578063d80528ae146103ae578063ddca3f43146103c3575b61013660006103d8565b005b34801561014457600080fd5b50610136610498565b34801561015957600080fd5b50610165600435610571565b60408051918252519081900360200190f35b34801561018357600080fd5b50610165610590565b34801561019857600080fd5b50610165600435610596565b3480156101b057600080fd5b506101b96105a8565b604080519115158252519081900360200190f35b3480156101d957600080fd5b506101656105b1565b3480156101ee57600080fd5b506101366004356105b7565b34801561020657600080fd5b50610165610659565b34801561021b57600080fd5b5061016561065f565b34801561023057600080fd5b50610165610665565b34801561024557600080fd5b50610136600160a060020a036004358116906024358116906044358116906064351661066b565b34801561027857600080fd5b506101656004356106d0565b34801561029057600080fd5b506102996106e2565b60408051600160a060020a039092168252519081900360200190f35b3480156102c157600080fd5b506101b96106f1565b3480156102d657600080fd5b5061016560043560243560443560643560843560a4356106ff565b3480156102fd57600080fd5b50610306610781565b6040805160ff9092168252519081900360200190f35b610136600160a060020a03600435166103d8565b34801561033c57600080fd5b5061029961078a565b34801561035157600080fd5b50610136610799565b34801561036657600080fd5b5061016561085e565b34801561037b57600080fd5b50610165610870565b34801561039057600080fd5b50610299610876565b3480156103a557600080fd5b50610165610885565b3480156103ba57600080fd5b50610299610892565b3480156103cf57600080fd5b506103066108a1565b60075460009060ff1615156103ec57600080fd5b60025434146103fa57600080fd5b5060018054600090815260096020908152604080832080543401905583548352600a8252822080549384018155825290208101805473ffffffffffffffffffffffffffffffffffffffff1916339081179091556104589083906108af565b60015460408051838152426020820152815133927fcc0ff04ae3b71c72a35f6f90c97e68b82f9e63de7c7738ff9155e41a1bd874c1928290030190a35050565b600b54604080517fd63a8e110000000000000000000000000000000000000000000000000000000081523360048201529051600160a060020a039092169163d63a8e11916024808201926020929091908290030181600087803b1580156104fe57600080fd5b505af1158015610512573d6000803e3d6000fd5b505050506040513d602081101561052857600080fd5b5051151561053557600080fd5b60075460ff161515610553576007805460ff1916600117905561056f565b6007805461ff001981166101009182900460ff16159091021790555b565b600880548290811061057f57fe5b600091825260209091200154905081565b60025481565b60009081526009602052604090205490565b60075460ff1681565b60055481565b600b54604080517fd63a8e110000000000000000000000000000000000000000000000000000000081523360048201529051600160a060020a039092169163d63a8e11916024808201926020929091908290030181600087803b15801561061d57600080fd5b505af1158015610631573d6000803e3d6000fd5b505050506040513d602081101561064757600080fd5b5051151561065457600080fd5b600355565b60045481565b60035481565b60065481565b600b8054600160a060020a0380871673ffffffffffffffffffffffffffffffffffffffff1992831617909255600c8054858416908316179055600d8054848416908316179055600e8054928616929091169190911790556106ca610a2e565b50505050565b6000908152600a602052604090205490565b600e54600160a060020a031681565b600754610100900460ff1681565b60408051600083811c8688028602028252825160209281900383018120600a90831c0660019081018083529451918290039093019020898301999289019891939284928b926002919092010190831c81151561075757fe5b06039050878111156107665750865b888110156107715750875b6000190198975050505050505050565b60005460ff1681565b600b54600160a060020a031681565b600b54604080517fd63a8e110000000000000000000000000000000000000000000000000000000081523360048201529051600160a060020a039092169163d63a8e11916024808201926020929091908290030181600087803b1580156107ff57600080fd5b505af1158015610813573d6000803e3d6000fd5b505050506040513d602081101561082957600080fd5b5051151561083657600080fd5b6001546000908152600a6020526040812054111561085657610856610ab9565b61056f610a2e565b600061086b6001546106d0565b905090565b60015481565b600d54600160a060020a031681565b600061086b600154610596565b600c54600160a060020a031681565b600054610100900460ff1681565b600d54604080517fafb26159000000000000000000000000000000000000000000000000000000008152600160a060020a0384811660048301529151600093929092169163afb261599160248082019260209290919082900301818787803b15801561091a57600080fd5b505af115801561092e573d6000803e3d6000fd5b505050506040513d602081101561094457600080fd5b50519050600160a060020a0383161515806109675750600160a060020a03811615155b15610a2957600160a060020a0381161515610a0757600d54604080517f0b5c3f87000000000000000000000000000000000000000000000000000000008152600160a060020a038681166004830152858116602483015291519190921691630b5c3f8791604480830192600092919082900301818387803b1580156109eb57600080fd5b505af11580156109ff573d6000803e3d6000fd5b505050508290505b600180546000908152600a60205260409020541115610a2957610a2982610d89565b505050565b60075460ff161515610a3f57600080fd5b4360015560035415610a575760038054600255600090555b600754610100900460ff1615610a7f576007805460ff81161560ff199091161761ff00191690555b600154604080519182525142917fc1e01725071603d5872b301174fe013f7471bd2a95a627a777cf5ad0df4df720919081900360200190a2565b600180546000908152600a602052604081205490918291829182911415610b6057600154600090815260096020908152604080832054600a9092528220805491955091908110610b0557fe5b6000918252602080832090910154600154835260099091526040808320549051600160a060020a039092169281156108fc029290818181858888f19350505050158015610b56573d6000803e3d6000fd5b5060009350610c8d565b610b8e60006001600a60006001548152602001908152602001600020805490500342444360014303406106ff565b60008054600154825260096020908152604080842054600a9092529092208054939750606461010090920460ff168302919091049182900395509093509085908110610bd657fe5b6000918252602082200154604051600160a060020a039091169185156108fc02918691818181858888f19350505050158015610c16573d6000803e3d6000fd5b506001546000908152600a602052604090208054610c53919086908110610c3957fe5b600091825260209091200154600160a060020a0316610d89565b600654600e546040519190930392600160a060020a0316906175309084906000818181858888f193505050509050801515610c8d57600080fd5b60006006819055600c546001548252600a60205260409091208054600160a060020a03909216916306525fa9919087908110610cc557fe5b6000918252602080832090910154600154808452600a9092526040808420548454825163ffffffff881660e01b8152600160a060020a039094166004850152602484019490945260448301526064820189905260ff909216608482015260a48101899052905160c4808301939282900301818387803b158015610d4757600080fd5b505af1158015610d5b573d6000803e3d6000fd5b50506004805490950190945550506001546000908152600a6020526040902054600580549091019055505050565b600d54604080517fafb26159000000000000000000000000000000000000000000000000000000008152600160a060020a03848116600483015291516000938493169163afb2615991602480830192602092919082900301818787803b158015610df257600080fd5b505af1158015610e06573d6000803e3d6000fd5b505050506040513d6020811015610e1c57600080fd5b50519150600160a060020a03821615610a2957610e3882610ed5565b90508015610a2957604051600160a060020a0383169082156108fc029083906000818181858888f19350505050158015610e76573d6000803e3d6000fd5b50600680548201905560408051600160a060020a0385811682526020820184905242828401529151918416917f7267ae1f9f5417f846b1b070c0cdaad8e81251b46cd11a63bb352d7d03c954899181900360600190a2610a2982610f91565b600d54604080517fe09f4559000000000000000000000000000000000000000000000000000000008152600160a060020a03848116600483015291516000938493169163e09f455991602480830192602092919082900301818787803b158015610f3e57600080fd5b505af1158015610f52573d6000803e3d6000fd5b505050506040513d6020811015610f6857600080fd5b5051905060ff81161515610f7f5760009150610f8b565b610f88816110d9565b91505b50919050565b600d54604080517f3622cc76000000000000000000000000000000000000000000000000000000008152600160a060020a038481166004830152915160009384931691633622cc7691602480830192602092919082900301818787803b158015610ffa57600080fd5b505af115801561100e573d6000803e3d6000fd5b505050506040513d602081101561102457600080fd5b50519150600160a060020a03821615610a2957611040836110f9565b90508015610a2957604051600160a060020a0383169082156108fc029083906000818181858888f1935050505015801561107e573d6000803e3d6000fd5b50600680548201905560408051600160a060020a0385811682526020820184905242828401529151918416917f3fa7b2cc7530a0fcf1d72b5550ba8a6213a976c256cb4d4858502fa4e95735949181900360600190a2505050565b600054600254606460ff9384166101009093049390931602829004020490565b600d54604080517f068593cc000000000000000000000000000000000000000000000000000000008152600160a060020a03848116600483015291516000938493169163068593cc91602480830192602092919082900301818787803b158015610f3e57600080fd00a165627a7a72305820611c2757bcad90bf110a790e9ca2fee6e436b19f0c194d1f93e2b7ce627e27150029","linkReferences":{}},"methodIdentifiers":{"Cryptolotto10Minutes(address,address,address,address)":"71dfc116","allTimeJackpot()":"47ddf87e","allTimePlayers()":"2ef5c784","buyTicket(address)":"a5f8cdbb","changeTicketPrice(uint256)":"4630a0ee","fee()":"ddca3f43","fundsDistributor()":"74cb55fb","gType()":"a46d11dc","game()":"c3fe3e28","games(uint256)":"117a5b90","getGameJackpot(uint256)":"16521a2b","getPlayedGameJackpot()":"cf4e593a","getPlayedGamePlayers()":"c3a151de","getPlayersInGame(uint256)":"74796cc2","isActive()":"22f3e2d4","newPrice()":"51df9db9","ownable()":"b38854be","paidToPartners()":"650b147d","randomNumber(uint256,uint256,uint256,uint256,uint256,bytes32)":"8897c1f4","referralInstance()":"c6ab848a","start()":"be9a6555","stats()":"d80528ae","ticketPrice()":"1209b1f6","toogleActive()":"0d8c1a62","toogleStatus()":"85b75b1e"},"id":7}