{"abi":[{"type":"constructor","inputs":[{"name":"owner","type":"address"}],"stateMutability":"nonpayable"},{"type":"function","name":"addGame","inputs":[{"name":"game","type":"address"}],"outputs":[],"stateMutability":"nonpayable"},{"type":"function","name":"addPartner","inputs":[{"name":"partner","type":"address"},{"name":"percent","type":"uint8"}],"outputs":[],"stateMutability":"nonpayable"},{"type":"function","name":"addReferral","inputs":[{"name":"partner","type":"address"},{"name":"referral","type":"address"}],"outputs":[],"stateMutability":"nonpayable"},{"type":"function","name":"addSalesPartner","inputs":[{"name":"partner","type":"address"},{"name":"salesAddress","type":"address"},{"name":"percent","type":"uint8"}],"outputs":[],"stateMutability":"nonpayable"},{"type":"function","name":"getPartnerByReferral","inputs":[{"name":"player","type":"address"}],"outputs":[{"name":"","type":"address"}],"stateMutability":"view"},{"type":"function","name":"getPartnerPercent","inputs":[{"name":"partner","type":"address"}],"outputs":[{"name":"","type":"uint8"}],"stateMutability":"view"},{"type":"function","name":"getPartnerPercentByReferral","inputs":[{"name":"referral","type":"address"}],"outputs":[{"name":"","type":"uint8"}],"stateMutability":"view"},{"type":"function","name":"getSalesPartner","inputs":[{"name":"partner","type":"address"}],"outputs":[{"name":"","type":"address"}],"stateMutability":"view"},{"type":"function","name":"getSalesPartnerPercent","inputs":[{"name":"partner","type":"address"}],"outputs":[{"name":"","type":"uint8"}],"stateMutability":"view"},{"type":"event","name":"NewGame","inputs":[{"name":"_game","type":"address","indexed":false},{"name":"_time","type":"uint256","indexed":false}],"anonymous":false},{"type":"event","name":"NewPartner","inputs":[{"name":"_address","type":"address","indexed":true},{"name":"_percent","type":"uint256","indexed":false},{"name":"_time","type":"uint256","indexed":false}],"anonymous":false},{"type":"event","name":"NewReferral","inputs":[{"name":"_partner","type":"address","indexed":true},{"name":"_referral","type":"address","indexed":true},{"name":"_time","type":"uint256","indexed":false}],"anonymous":false},{"type":"event","name":"NewSalesPartner","inputs":[{"name":"_partnerAddress","type":"address","indexed":true},{"name":"_salesPartnerAddress","type":"address","indexed":true},{"name":"_percent","type":"uint256","indexed":false},{"name":"_time","type":"uint256","indexed":false}],"anonymous":false}],"bytecode":{"object":"0x608060405234801561001057600080fd5b50604051602080610807833981016040525160008054600160a060020a03909216600160a060020a03199092169190911790556107b5806100526000396000f30060806040526004361061007c5760003560e01c63ffffffff168063068593cc146100815780630b5c3f87146100b85780633622cc76146100e157806339b661281461011e5780634357f51514610145578063afb2615914610172578063b6b6691e14610193578063d72d04db146101b4578063e09f4559146101d5575b600080fd5b34801561008d57600080fd5b506100a2600160a060020a03600435166101f6565b6040805160ff9092168252519081900360200190f35b3480156100c457600080fd5b506100df600160a060020a036004358116906024351661022e565b005b3480156100ed57600080fd5b50610102600160a060020a03600435166102ed565b60408051600160a060020a039092168252519081900360200190f35b34801561012a57600080fd5b506100df600160a060020a036004351660ff6024351661030b565b34801561015157600080fd5b506100df600160a060020a036004358116906024351660ff6044351661045e565b34801561017e57600080fd5b50610102600160a060020a036004351661061c565b34801561019f57600080fd5b506100a2600160a060020a036004351661063a565b3480156101c057600080fd5b506100df600160a060020a0360043516610658565b3480156101e157600080fd5b506100a2600160a060020a036004351661076b565b600160a060020a0390811660008181526004602090815260408083205490941682526005815283822092825291909152205460ff1690565b3360009081526003602052604090205460ff16151561024c57600080fd5b600160a060020a0382161580159061026c5750600160a060020a03811615155b151561027757600080fd5b600160a060020a03818116600081815260016020908152604091829020805473ffffffffffffffffffffffffffffffffffffffff19169487169485179055815142815291519293927f2badb93d2d97580c2ec4837fe6e58d4b60635d482a410c898f374a96eb6aa81e9281900390910190a35050565b600160a060020a039081166000908152600460205260409020541690565b60008054604080517fd63a8e110000000000000000000000000000000000000000000000000000000081523360048201529051600160a060020a039092169263d63a8e11926024808401936020939083900390910190829087803b15801561037257600080fd5b505af1158015610386573d6000803e3d6000fd5b505050506040513d602081101561039c57600080fd5b505115156103a957600080fd5b60ff8116158015906103c35750600160a060020a03821615155b15156103ce57600080fd5b600160a060020a03821660009081526002602052604090205460ff16156103f457600080fd5b600160a060020a038216600081815260026020908152604091829020805460ff191660ff86169081179091558251908152429181019190915281517f0ae0b2bb6002511474117d7446d14f4728e677c08a6166bb3bddfc1ad0aa39a3929181900390910190a25050565b60008054604080517fd63a8e110000000000000000000000000000000000000000000000000000000081523360048201529051600160a060020a039092169263d63a8e11926024808401936020939083900390910190829087803b1580156104c557600080fd5b505af11580156104d9573d6000803e3d6000fd5b505050506040513d60208110156104ef57600080fd5b505115156104fc57600080fd5b60ff8116158015906105165750600160a060020a03831615155b801561052a5750600160a060020a03821615155b151561053557600080fd5b600160a060020a0380831660009081526005602090815260408083209387168352929052205460ff161561056857600080fd5b610571836101f6565b60ff161561057e57600080fd5b600160a060020a038281166000818152600560209081526040808320948816808452948252808320805460ff191660ff88169081179091556004835292819020805473ffffffffffffffffffffffffffffffffffffffff1916851790558051928352429183019190915280519293927f343f3a944c0041fb63bc26442ae08cda50bbcb21f3dd9dc0d586858fdf2641579281900390910190a3505050565b600160a060020a039081166000908152600160205260409020541690565b6000806106468361061c565b90506106518161076b565b9392505050565b60008054604080517fd63a8e110000000000000000000000000000000000000000000000000000000081523360048201529051600160a060020a039092169263d63a8e11926024808401936020939083900390910190829087803b1580156106bf57600080fd5b505af11580156106d3573d6000803e3d6000fd5b505050506040513d60208110156106e957600080fd5b505115156106f657600080fd5b600160a060020a038116151561070b57600080fd5b600160a060020a038116600081815260036020908152604091829020805460ff191660011790558151928352429083015280517f0988a2b4a2d4dab5e137b0af44eed4118da87a6117a6753902e827e5291c3b929281900390910190a150565b600160a060020a031660009081526002602052604090205460ff16905600a165627a7a72305820304c1f3975ae40f7cfbdcbe5b1a2d1947b69bb7abec615e6c16e299a910b076f0029","linkReferences":{}},"methodIdentifiers":{"addGame(address)":"d72d04db","addPartner(address,uint8)":"39b66128","addReferral(address,address)":"0b5c3f87","addSalesPartner(address,address,uint8)":"4357f515","getPartnerByReferral(address)":"afb26159","getPartnerPercent(address)":"e09f4559","getPartnerPercentByReferral(address)":"b6b6691e","getSalesPartner(address)":"3622cc76","getSalesPartnerPercent(address)":"068593cc"},"id":0}