{"abi":[{"type":"constructor","inputs":[],"stateMutability":"nonpayable"},{"type":"fallback","stateMutability":"payable"},{"type":"function","name":"changeOwner","inputs":[{"name":"newOwner","type":"address"}],"outputs":[],"stateMutability":"nonpayable"},{"type":"function","name":"getBalance","inputs":[],"outputs":[{"name":"","type":"uint256"}],"stateMutability":"view"},{"type":"function","name":"owner","inputs":[],"outputs":[{"name":"","type":"address"}],"stateMutability":"view"},{"type":"function","name":"withdrawAmount","inputs":[{"name":"amount","type":"uint256"}],"outputs":[],"stateMutability":"nonpayable"},{"type":"function","name":"withdrawFunds","inputs":[],"outputs":[],"stateMutability":"nonpayable"},{"type":"event","name":"CommissionReceived","inputs":[{"name":"amount","type":"uint256","indexed":false},{"name":"timestamp","type":"uint256","indexed":false}],"anonymous":false},{"type":"event","name":"FundsWithdrawn","inputs":[{"name":"to","type":"address","indexed":false},{"name":"amount","type":"uint256","indexed":false},{"name":"timestamp","type":"uint256","indexed":false}],"anonymous":false}],"bytecode":{"object":"0x608060405234801561001057600080fd5b5060008054600160a060020a031916331790556102ba806100326000396000f3006080604052600436106100505760003560e01c63ffffffff1680630562b9f71461009657806312065fe0146100ae57806324600fc3146100d55780638da5cb5b146100ea578063a6f9dae11461011b575b6000341115610094576040805134815242602082015281517fb109ee7310ed99dd4798608081f858dfb1ff5dcc4cc82072cfa90a7b49543f15929181900390910190a15b005b3480156100a257600080fd5b5061009460043561013c565b3480156100ba57600080fd5b506100c36101f7565b60408051918252519081900360200190f35b3480156100e157600080fd5b506100946101fc565b3480156100f657600080fd5b506100ff610224565b60408051600160a060020a039092168252519081900360200190f35b34801561012757600080fd5b50610094600160a060020a0360043516610233565b600054600160a060020a0316331461015357600080fd5b600081118015610164575030318111155b151561016f57600080fd5b60008054604051600160a060020a039091169183156108fc02918491818181858888f193505050501580156101a8573d6000803e3d6000fd5b5060005460408051600160a060020a039092168252602082018390524282820152517ffbc3a599b784fe88772fc5abcc07223f64ca0b13acc341f4fb1e46bef0510eb49181900360600190a150565b303190565b60008054600160a060020a0316331461021457600080fd5b5030316000811161016f57600080fd5b600054600160a060020a031681565b600054600160a060020a0316331461024a57600080fd5b600160a060020a038116151561025f57600080fd5b6000805473ffffffffffffffffffffffffffffffffffffffff1916600160a060020a03929092169190911790555600a165627a7a7230582046408517fdd7c1ec95bfb1595fccdd219a22c237ebc3cb222ae099f3bee08c930029","linkReferences":{}},"methodIdentifiers":{"changeOwner(address)":"a6f9dae1","getBalance()":"12065fe0","owner()":"8da5cb5b","withdrawAmount(uint256)":"0562b9f7","withdrawFunds()":"24600fc3"},"id":2}