{"abi":[{"type":"constructor","inputs":[],"stateMutability":"nonpayable"},{"type":"function","name":"allGames","inputs":[{"name":"","type":"uint256","internalType":"uint256"}],"outputs":[{"name":"","type":"address","internalType":"address"}],"stateMutability":"view"},{"type":"function","name":"createGame","inputs":[{"name":"gameType","type":"uint8","internalType":"enum GameFactory.GameType"}],"outputs":[{"name":"","type":"address","internalType":"address"}],"stateMutability":"nonpayable"},{"type":"function","name":"deactivateGame","inputs":[{"name":"gameAddress","type":"address","internalType":"address"}],"outputs":[],"stateMutability":"nonpayable"},{"type":"function","name":"fundsDistributor","inputs":[],"outputs":[{"name":"","type":"address","internalType":"address"}],"stateMutability":"view"},{"type":"function","name":"games","inputs":[{"name":"","type":"address","internalType":"address"}],"outputs":[{"name":"gameAddress","type":"address","internalType":"address"},{"name":"isActive","type":"bool","internalType":"bool"},{"name":"gameType","type":"uint8","internalType":"enum GameFactory.GameType"},{"name":"createdAt","type":"uint256","internalType":"uint256"}],"stateMutability":"view"},{"type":"function","name":"getActiveGames","inputs":[],"outputs":[{"name":"","type":"address[]","internalType":"address[]"}],"stateMutability":"view"},{"type":"function","name":"getAllGames","inputs":[],"outputs":[{"name":"","type":"address[]","internalType":"address[]"}],"stateMutability":"view"},{"type":"function","name":"getGameCount","inputs":[],"outputs":[{"name":"","type":"uint256","internalType":"uint256"}],"stateMutability":"view"},{"type":"function","name":"getGameInfo","inputs":[{"name":"gameAddress","type":"address","internalType":"address"}],"outputs":[{"name":"","type":"tuple","internalType":"struct GameFactory.GameInfo","components":[{"name":"gameAddress","type":"address","internalType":"address"},{"name":"isActive","type":"bool","internalType":"bool"},{"name":"gameType","type":"uint8","internalType":"enum GameFactory.GameType"},{"name":"createdAt","type":"uint256","internalType":"uint256"}]}],"stateMutability":"view"},{"type":"function","name":"getGamesByType","inputs":[{"name":"gameType","type":"uint8","internalType":"enum GameFactory.GameType"}],"outputs":[{"name":"","type":"address[]","internalType":"address[]"}],"stateMutability":"view"},{"type":"function","name":"initialize","inputs":[{"name":"owner","type":"address","internalType":"address"},{"name":"ownableContract","type":"address","internalType":"address"},{"name":"statsContract","type":"address","internalType":"address"},{"name":"referralContract","type":"address","internalType":"address"},{"name":"distributor","type":"address","internalType":"address"},{"name":"_oneDayImplementation","type":"address","internalType":"address"},{"name":"_sevenDaysImplementation","type":"address","internalType":"address"},{"name":"_registryContract","type":"address","internalType":"address"}],"outputs":[],"stateMutability":"nonpayable"},{"type":"function","name":"oneDayImplementation","inputs":[],"outputs":[{"name":"","type":"address","internalType":"address"}],"stateMutability":"view"},{"type":"function","name":"ownable","inputs":[],"outputs":[{"name":"","type":"address","internalType":"contract IOwnable"}],"stateMutability":"view"},{"type":"function","name":"owner","inputs":[],"outputs":[{"name":"","type":"address","internalType":"address"}],"stateMutability":"view"},{"type":"function","name":"referralSystem","inputs":[],"outputs":[{"name":"","type":"address","internalType":"contract ICryptolottoReferral"}],"stateMutability":"view"},{"type":"function","name":"registry","inputs":[],"outputs":[{"name":"","type":"address","internalType":"contract ContractRegistry"}],"stateMutability":"view"},{"type":"function","name":"renounceOwnership","inputs":[],"outputs":[],"stateMutability":"nonpayable"},{"type":"function","name":"setImplementations","inputs":[{"name":"_oneDayImplementation","type":"address","internalType":"address"},{"name":"_sevenDaysImplementation","type":"address","internalType":"address"}],"outputs":[],"stateMutability":"nonpayable"},{"type":"function","name":"sevenDaysImplementation","inputs":[],"outputs":[{"name":"","type":"address","internalType":"address"}],"stateMutability":"view"},{"type":"function","name":"statsAggregator","inputs":[],"outputs":[{"name":"","type":"address","internalType":"contract ICryptolottoStatsAggregator"}],"stateMutability":"view"},{"type":"function","name":"transferOwnership","inputs":[{"name":"newOwner","type":"address","internalType":"address"}],"outputs":[],"stateMutability":"nonpayable"},{"type":"event","name":"GameCreated","inputs":[{"name":"gameAddress","type":"address","indexed":true,"internalType":"address"},{"name":"gameType","type":"uint8","indexed":true,"internalType":"enum GameFactory.GameType"},{"name":"timestamp","type":"uint256","indexed":false,"internalType":"uint256"}],"anonymous":false},{"type":"event","name":"GameDeactivated","inputs":[{"name":"gameAddress","type":"address","indexed":true,"internalType":"address"},{"name":"timestamp","type":"uint256","indexed":true,"internalType":"uint256"}],"anonymous":false},{"type":"event","name":"Initialized","inputs":[{"name":"version","type":"uint64","indexed":false,"internalType":"uint64"}],"anonymous":false},{"type":"event","name":"OwnershipTransferred","inputs":[{"name":"previousOwner","type":"address","indexed":true,"internalType":"address"},{"name":"newOwner","type":"address","indexed":true,"internalType":"address"}],"anonymous":false},{"type":"error","name":"GameAlreadyExists","inputs":[]},{"type":"error","name":"GameNotFound","inputs":[]},{"type":"error","name":"InvalidGameType","inputs":[]},{"type":"error","name":"InvalidInitialization","inputs":[]},{"type":"error","name":"NotInitializing","inputs":[]},{"type":"error","name":"OwnableInvalidOwner","inputs":[{"name":"owner","type":"address","internalType":"address"}]},{"type":"error","name":"OwnableUnauthorizedAccount","inputs":[{"name":"account","type":"address","internalType":"address"}]}],"bytecode":{"object":"0x608060405234801561000f575f80fd5b5061001861001d565b6100cf565b7ff0c57e16840df040f15088dc2f81fe391c3923bec73e23a9662efc9c229c6a00805468010000000000000000900460ff161561006d5760405163f92ee8a960e01b815260040160405180910390fd5b80546001600160401b03908116146100cc5780546001600160401b0319166001600160401b0390811782556040519081527fc7f505b2f371ae2175ee4913f4499e1f2633a7b5936321eed1cdaeb6115181d29060200160405180910390a15b50565b611985806100dc5f395ff3fe608060405234801562000010575f80fd5b50600436106200014c575f3560e01c80638da5cb5b11620000c3578063be14462b1162000083578063be14462b146200031e578063db1c45f91462000332578063e580f6ab146200033c578063e87c0ee61462000353578063f27e73411462000365578063f2fde38b146200037c575f80fd5b80638da5cb5b146200029a578063a04e876c14620002cb578063a0b5509514620002df578063b38854be14620002f6578063bcfc40e7146200030a575f80fd5b806374cb55fb116200010f57806374cb55fb14620001e857806379131a1914620001fc5780637b103999146200025857806385bff341146200026c5780638a29e2de1462000283575f80fd5b80630ea901d214620001505780631b76929c146200017f5780634b01a9571462000198578063715018a614620001c5578063749a1ab714620001d1575b5f80fd5b6200016762000161366004620011ac565b62000393565b60405162000176919062001204565b60405180910390f35b620001896200043a565b6040516200017691906200128a565b600754620001ac906001600160a01b031681565b6040516001600160a01b03909116815260200162000176565b620001cf620005d2565b005b620001cf620001e2366004620011ac565b620005e9565b600554620001ac906001600160a01b031681565b620002466200020d366004620011ac565b5f60208190529081526040902080546001909101546001600160a01b0382169160ff600160a01b8204811692600160a81b909204169084565b6040516200017694939291906200129e565b600654620001ac906001600160a01b031681565b620001cf6200027d366004620012d4565b62000678565b620001cf620002943660046200130a565b620006b0565b7f9016d09d72d40fdae2fd8ceac6b6234c7706214fd39c1cd1e609a0528c199300546001600160a01b0316620001ac565b600454620001ac906001600160a01b031681565b620001ac620002f0366004620013ad565b62000a5b565b600254620001ac906001600160a01b031681565b600854620001ac906001600160a01b031681565b600354620001ac906001600160a01b031681565b6200018962000a84565b620001ac6200034d366004620013c5565b62000ae6565b60015460405190815260200162000176565b6200018962000376366004620013c5565b62000cc3565b620001cf6200038d366004620011ac565b62000eae565b60408051608080820183525f8083526020808401829052838501829052606084018290526001600160a01b03868116835282825291859020855193840186528054928316845260ff600160a01b840481161515928501929092529394929392840191600160a81b9004166001811115620004115762000411620011cf565b6001811115620004255762000425620011cf565b81526020016001820154815250509050919050565b60605f805b600154811015620004ae575f8060018381548110620004625762000462620013e5565b5f9182526020808320909101546001600160a01b0316835282019290925260400190205460ff600160a01b9091041615620004a557620004a282620013f9565b91505b6001016200043f565b505f8167ffffffffffffffff811115620004cc57620004cc6200141e565b604051908082528060200260200182016040528015620004f6578160200160208202803683370190505b5090505f805b600154811015620005c9575f80600183815481106200051f576200051f620013e5565b5f9182526020808320909101546001600160a01b0316835282019290925260400190205460ff600160a01b9091041615620005c057600181815481106200056a576200056a620013e5565b905f5260205f20015f9054906101000a90046001600160a01b03168383815181106200059a576200059a620013e5565b6001600160a01b0390921660209283029190910190910152620005bd82620013f9565b91505b600101620004fc565b50909392505050565b620005dc62000ef5565b620005e75f62000f53565b565b620005f362000ef5565b6001600160a01b038181165f90815260208190526040902054166200062b576040516309b3c62760e21b815260040160405180910390fd5b6001600160a01b0381165f81815260208190526040808220805460ff60a01b19169055514292917f5275fcb28483877f4844b7854fc49b95a572f43730c5cb369bff46517e84653891a350565b6200068262000ef5565b600780546001600160a01b039384166001600160a01b03199182161790915560088054929093169116179055565b7ff0c57e16840df040f15088dc2f81fe391c3923bec73e23a9662efc9c229c6a008054600160401b810460ff16159067ffffffffffffffff165f81158015620006f65750825b90505f8267ffffffffffffffff166001148015620007135750303b155b90508115801562000722575080155b15620007415760405163f92ee8a960e01b815260040160405180910390fd5b845467ffffffffffffffff1916600117855583156200076c57845460ff60401b1916600160401b1785555b620007778d62000fc3565b600280546001600160a01b03199081166001600160a01b038f8116919091179092556003805482168e84161781556004805483168e85161790556005805483168d85161790556007805483168c85161790556008805483168b85161790556006805490921692891692909217905560408051828152608081019091525f91602082015b6060815260200190600190039081620007fa5790505090506040518060400160405280600f81526020016e2a3932b0b9bab93ca6b0b730b3b2b960891b815250815f815181106200084f576200084f620013e5565b60200260200101819052506040518060400160405280600e81526020016d526566657272616c53797374656d60901b81525081600181518110620008975762000897620013e5565b60200260200101819052506040518060400160405280600f81526020016e29ba30ba39a0b3b3b932b3b0ba37b960891b81525081600281518110620008e057620008e0620013e5565b6020908102919091010152604080516003808252608082019092525f918160200160208202803683370190505090508a815f81518110620009255762000925620013e5565b60200260200101906001600160a01b031690816001600160a01b0316815250508b816001815181106200095c576200095c620013e5565b60200260200101906001600160a01b031690816001600160a01b0316815250508c81600281518110620009935762000993620013e5565b6001600160a01b0392831660209182029290920101526006546040516308316c3f60e11b8152911690631062d87e90620009d4908590859060040162001477565b5f604051808303815f87803b158015620009ec575f80fd5b505af1158015620009ff573d5f803e3d5ffd5b505050505050831562000a4c57845460ff60401b19168555604051600181527fc7f505b2f371ae2175ee4913f4499e1f2633a7b5936321eed1cdaeb6115181d29060200160405180910390a15b50505050505050505050505050565b6001818154811062000a6b575f80fd5b5f918252602090912001546001600160a01b0316905081565b6060600180548060200260200160405190810160405280929190818152602001828054801562000adc57602002820191905f5260205f20905b81546001600160a01b0316815260019091019060200180831162000abd575b5050505050905090565b5f62000af162000ef5565b5f8083600181111562000b085762000b08620011cf565b0362000b205762000b1862000fd8565b905062000b60565b600183600181111562000b375762000b37620011cf565b0362000b475762000b186200109d565b6040516313d0866160e11b815260040160405180910390fd5b6040518060800160405280826001600160a01b0316815260200160011515815260200184600181111562000b985762000b98620011cf565b8152426020918201526001600160a01b038084165f90815280835260409081902084518154948601511515600160a01b026001600160a81b031990951693169290921792909217808255918301519091829060ff60a81b1916600160a81b83600181111562000c0b5762000c0b620011cf565b021790555060609190910151600191820155805480820182555f8290527fb10e2d527612073b26eecdfd717e6a320cf44b4afac2b0732d9fcbe2b7fa0cf60180546001600160a01b0319166001600160a01b038416179055839081111562000c775762000c77620011cf565b816001600160a01b03167f2318708b46ac4b580059f063544ac9a9b0d23a88d31fc726fbcc0d65e49a4bb24260405162000cb391815260200190565b60405180910390a390505b919050565b60605f805b60015481101562000d605783600181111562000ce85762000ce8620011cf565b5f806001848154811062000d005762000d00620013e5565b5f9182526020808320909101546001600160a01b0316835282019290925260400190205460ff600160a81b90910416600181111562000d435762000d43620011cf565b0362000d575762000d5482620013f9565b91505b60010162000cc8565b505f8167ffffffffffffffff81111562000d7e5762000d7e6200141e565b60405190808252806020026020018201604052801562000da8578160200160208202803683370190505b5090505f805b60015481101562000ea45785600181111562000dce5762000dce620011cf565b5f806001848154811062000de65762000de6620013e5565b5f9182526020808320909101546001600160a01b0316835282019290925260400190205460ff600160a81b90910416600181111562000e295762000e29620011cf565b0362000e9b576001818154811062000e455762000e45620013e5565b905f5260205f20015f9054906101000a90046001600160a01b031683838151811062000e755762000e75620013e5565b6001600160a01b039092166020928302919091019091015262000e9882620013f9565b91505b60010162000dae565b5090949350505050565b62000eb862000ef5565b6001600160a01b03811662000ee757604051631e4fbdf760e01b81525f60048201526024015b60405180910390fd5b62000ef28162000f53565b50565b3362000f287f9016d09d72d40fdae2fd8ceac6b6234c7706214fd39c1cd1e609a0528c199300546001600160a01b031690565b6001600160a01b031614620005e75760405163118cdaa760e01b815233600482015260240162000ede565b7f9016d09d72d40fdae2fd8ceac6b6234c7706214fd39c1cd1e609a0528c19930080546001600160a01b031981166001600160a01b03848116918217845560405192169182907f8be0079c531659141344cd1fd0a4f28419497f9722a3daafe3b4186f6b6457e0905f90a3505050565b62000fcd62001133565b62000ef2816200117d565b6002546005546003546004546006546040515f95869563485cc95595620010219533956001600160a01b03948516959385169492831693918316928a92911690602401620014f2565b60408051601f198184030181529181526020820180516001600160e01b031660e09490941b9390931790925260075491519092505f916001600160a01b03169083906200106e9062001187565b6200107b92919062001533565b604051809103905ff08015801562001095573d5f803e3d5ffd5b509392505050565b6002546005546003546004546006546040515f95869563485cc95595620010e69533956001600160a01b03948516959385169492831693918316928a92911690602401620014f2565b60408051601f198184030181529181526020820180516001600160e01b031660e09490941b9390931790925260085491519092505f916001600160a01b03169083906200106e9062001187565b7ff0c57e16840df040f15088dc2f81fe391c3923bec73e23a9662efc9c229c6a0054600160401b900460ff16620005e757604051631afcd79f60e31b815260040160405180910390fd5b62000eb862001133565b6103ef806200156183390190565b80356001600160a01b038116811462000cbe575f80fd5b5f60208284031215620011bd575f80fd5b620011c88262001195565b9392505050565b634e487b7160e01b5f52602160045260245ffd5b600281106200120057634e487b7160e01b5f52602160045260245ffd5b9052565b81516001600160a01b0316815260208083015115159082015260408083015160808301916200123690840182620011e3565b50606092830151919092015290565b5f815180845260208085019450602084015f5b838110156200127f5781516001600160a01b03168752958201959082019060010162001258565b509495945050505050565b602081525f620011c8602083018462001245565b6001600160a01b0385168152831515602082015260808101620012c56040830185620011e3565b82606083015295945050505050565b5f8060408385031215620012e6575f80fd5b620012f18362001195565b9150620013016020840162001195565b90509250929050565b5f805f805f805f80610100898b03121562001323575f80fd5b6200132e8962001195565b97506200133e60208a0162001195565b96506200134e60408a0162001195565b95506200135e60608a0162001195565b94506200136e60808a0162001195565b93506200137e60a08a0162001195565b92506200138e60c08a0162001195565b91506200139e60e08a0162001195565b90509295985092959890939650565b5f60208284031215620013be575f80fd5b5035919050565b5f60208284031215620013d6575f80fd5b813560028110620011c8575f80fd5b634e487b7160e01b5f52603260045260245ffd5b5f600182016200141757634e487b7160e01b5f52601160045260245ffd5b5060010190565b634e487b7160e01b5f52604160045260245ffd5b5f81518084525f5b8181101562001458576020818501810151868301820152016200143a565b505f602082860101526020601f19601f83011685010191505092915050565b5f604082016040835280855180835260608501915060608160051b860101925060208088015f5b83811015620014d057605f19888703018552620014bd86835162001432565b955093820193908201906001016200149e565b50505050508281036020840152620014e9818562001245565b95945050505050565b6001600160a01b03978816815295871660208701529386166040860152918516606085015284166080840152831660a083015290911660c082015260e00190565b6001600160a01b03831681526040602082018190525f90620015589083018462001432565b94935050505056fe60806040526040516103ef3803806103ef8339810160408190526100229161025d565b61002c8282610033565b5050610340565b61003c82610091565b6040516001600160a01b038316907fbc7cd75a20ee27fd9adebab32041f755214dbc6bffa90cc0225b39da2e5c2d3b905f90a280511561008557610080828261010c565b505050565b61008d61017f565b5050565b806001600160a01b03163b5f036100cb57604051634c9c8ce360e01b81526001600160a01b03821660048201526024015b60405180910390fd5b7f360894a13ba1a3210667c828492db98dca3e2076cc3735a920a3ca505d382bbc80546001600160a01b0319166001600160a01b0392909216919091179055565b60605f80846001600160a01b0316846040516101289190610325565b5f60405180830381855af49150503d805f8114610160576040519150601f19603f3d011682016040523d82523d5f602084013e610165565b606091505b5090925090506101768583836101a0565b95945050505050565b341561019e5760405163b398979f60e01b815260040160405180910390fd5b565b6060826101b5576101b0826101ff565b6101f8565b81511580156101cc57506001600160a01b0384163b155b156101f557604051639996b31560e01b81526001600160a01b03851660048201526024016100c2565b50805b9392505050565b80511561020e57805160208201fd5b60405163d6bda27560e01b815260040160405180910390fd5b634e487b7160e01b5f52604160045260245ffd5b5f5b8381101561025557818101518382015260200161023d565b50505f910152565b5f806040838503121561026e575f80fd5b82516001600160a01b0381168114610284575f80fd5b60208401519092506001600160401b03808211156102a0575f80fd5b818501915085601f8301126102b3575f80fd5b8151818111156102c5576102c5610227565b604051601f8201601f19908116603f011681019083821181831017156102ed576102ed610227565b81604052828152886020848701011115610305575f80fd5b61031683602083016020880161023b565b80955050505050509250929050565b5f825161033681846020870161023b565b9190910192915050565b60a38061034c5f395ff3fe6080604052600a600c565b005b60186014601a565b6050565b565b5f604b7f360894a13ba1a3210667c828492db98dca3e2076cc3735a920a3ca505d382bbc546001600160a01b031690565b905090565b365f80375f80365f845af43d5f803e8080156069573d5ff35b3d5ffdfea2646970667358221220563340d9c35b7c605c78c3e429bd7dc3eb2d72247279106f3d98be76fff39a2e64736f6c63430008160033a26469706673582212206347dd04dc1767505e185b6b7c8d4023ec3d2f85a36334ff0a68a30ff0e0480564736f6c63430008160033","linkReferences":{}},"methodIdentifiers":{"allGames(uint256)":"a0b55095","createGame(uint8)":"e580f6ab","deactivateGame(address)":"749a1ab7","fundsDistributor()":"74cb55fb","games(address)":"79131a19","getActiveGames()":"1b76929c","getAllGames()":"db1c45f9","getGameCount()":"e87c0ee6","getGameInfo(address)":"0ea901d2","getGamesByType(uint8)":"f27e7341","initialize(address,address,address,address,address,address,address,address)":"8a29e2de","oneDayImplementation()":"4b01a957","ownable()":"b38854be","owner()":"8da5cb5b","referralSystem()":"a04e876c","registry()":"7b103999","renounceOwnership()":"715018a6","setImplementations(address,address)":"85bff341","sevenDaysImplementation()":"bcfc40e7","statsAggregator()":"be14462b","transferOwnership(address)":"f2fde38b"},"storageLayout":{"storage":[{"astId":291,"contract":"contracts/deployment/factories/GameFactory.sol:GameFactory","label":"games","offset":0,"slot":"0","type":"t_mapping(t_address,t_struct(GameInfo)264_storage)"},{"astId":295,"contract":"contracts/deployment/factories/GameFactory.sol:GameFactory","label":"allGames","offset":0,"slot":"1","type":"t_array(t_address)dyn_storage"},{"astId":299,"contract":"contracts/deployment/factories/GameFactory.sol:GameFactory","label":"ownable","offset":0,"slot":"2","type":"t_contract(IOwnable)15681"},{"astId":303,"contract":"contracts/deployment/factories/GameFactory.sol:GameFactory","label":"statsAggregator","offset":0,"slot":"3","type":"t_contract(ICryptolottoStatsAggregator)15311"},{"astId":307,"contract":"contracts/deployment/factories/GameFactory.sol:GameFactory","label":"referralSystem","offset":0,"slot":"4","type":"t_contract(ICryptolottoReferral)15252"},{"astId":310,"contract":"contracts/deployment/factories/GameFactory.sol:GameFactory","label":"fundsDistributor","offset":0,"slot":"5","type":"t_address"},{"astId":314,"contract":"contracts/deployment/factories/GameFactory.sol:GameFactory","label":"registry","offset":0,"slot":"6","type":"t_contract(ContractRegistry)20530"},{"astId":317,"contract":"contracts/deployment/factories/GameFactory.sol:GameFactory","label":"oneDayImplementation","offset":0,"slot":"7","type":"t_address"},{"astId":320,"contract":"contracts/deployment/factories/GameFactory.sol:GameFactory","label":"sevenDaysImplementation","offset":0,"slot":"8","type":"t_address"}],"types":{"t_address":{"encoding":"inplace","label":"address","numberOfBytes":"20"},"t_array(t_address)dyn_storage":{"encoding":"dynamic_array","label":"address[]","numberOfBytes":"32","base":"t_address"},"t_bool":{"encoding":"inplace","label":"bool","numberOfBytes":"1"},"t_contract(ContractRegistry)20530":{"encoding":"inplace","label":"contract ContractRegistry","numberOfBytes":"20"},"t_contract(ICryptolottoReferral)15252":{"encoding":"inplace","label":"contract ICryptolottoReferral","numberOfBytes":"20"},"t_contract(ICryptolottoStatsAggregator)15311":{"encoding":"inplace","label":"contract ICryptolottoStatsAggregator","numberOfBytes":"20"},"t_contract(IOwnable)15681":{"encoding":"inplace","label":"contract IOwnable","numberOfBytes":"20"},"t_enum(GameType)268":{"encoding":"inplace","label":"enum GameFactory.GameType","numberOfBytes":"1"},"t_mapping(t_address,t_struct(GameInfo)264_storage)":{"encoding":"mapping","key":"t_address","label":"mapping(address => struct GameFactory.GameInfo)","numberOfBytes":"32","value":"t_struct(GameInfo)264_storage"},"t_struct(GameInfo)264_storage":{"encoding":"inplace","label":"struct GameFactory.GameInfo","numberOfBytes":"64","members":[{"astId":256,"contract":"contracts/deployment/factories/GameFactory.sol:GameFactory","label":"gameAddress","offset":0,"slot":"0","type":"t_address"},{"astId":258,"contract":"contracts/deployment/factories/GameFactory.sol:GameFactory","label":"isActive","offset":20,"slot":"0","type":"t_bool"},{"astId":261,"contract":"contracts/deployment/factories/GameFactory.sol:GameFactory","label":"gameType","offset":21,"slot":"0","type":"t_enum(GameType)268"},{"astId":263,"contract":"contracts/deployment/factories/GameFactory.sol:GameFactory","label":"createdAt","offset":0,"slot":"1","type":"t_uint256"}]},"t_uint256":{"encoding":"inplace","label":"uint256","numberOfBytes":"32"}}},"id":1}