{"abi":[{"type":"constructor","inputs":[],"stateMutability":"nonpayable"},{"type":"function","name":"clearLogs","inputs":[],"outputs":[],"stateMutability":"nonpayable"},{"type":"function","name":"eventLogs","inputs":[{"name":"","type":"uint256","internalType":"uint256"}],"outputs":[{"name":"eventType","type":"string","internalType":"string"},{"name":"message","type":"string","internalType":"string"},{"name":"indexedAddress","type":"address","internalType":"address"},{"name":"data","type":"bytes","internalType":"bytes"},{"name":"timestamp","type":"uint256","internalType":"uint256"},{"name":"blockNumber","type":"uint256","internalType":"uint256"}],"stateMutability":"view"},{"type":"function","name":"eventTypeCounters","inputs":[{"name":"","type":"string","internalType":"string"}],"outputs":[{"name":"","type":"uint256","internalType":"uint256"}],"stateMutability":"view"},{"type":"function","name":"getEventLogCount","inputs":[],"outputs":[{"name":"","type":"uint256","internalType":"uint256"}],"stateMutability":"view"},{"type":"function","name":"getEventTypeCount","inputs":[{"name":"eventType","type":"string","internalType":"string"}],"outputs":[{"name":"","type":"uint256","internalType":"uint256"}],"stateMutability":"view"},{"type":"function","name":"getRecentLogs","inputs":[{"name":"count","type":"uint256","internalType":"uint256"}],"outputs":[{"name":"","type":"tuple[]","internalType":"struct EventLogger.EventLog[]","components":[{"name":"eventType","type":"string","internalType":"string"},{"name":"message","type":"string","internalType":"string"},{"name":"indexedAddress","type":"address","internalType":"address"},{"name":"data","type":"bytes","internalType":"bytes"},{"name":"timestamp","type":"uint256","internalType":"uint256"},{"name":"blockNumber","type":"uint256","internalType":"uint256"}]}],"stateMutability":"view"},{"type":"function","name":"isLoggingEnabled","inputs":[],"outputs":[{"name":"","type":"bool","internalType":"bool"}],"stateMutability":"view"},{"type":"function","name":"logEvent","inputs":[{"name":"eventType","type":"string","internalType":"string"},{"name":"message","type":"string","internalType":"string"},{"name":"indexedAddress","type":"address","internalType":"address"},{"name":"data","type":"bytes","internalType":"bytes"}],"outputs":[],"stateMutability":"nonpayable"},{"type":"function","name":"loggingEnabled","inputs":[],"outputs":[{"name":"","type":"bool","internalType":"bool"}],"stateMutability":"view"},{"type":"function","name":"owner","inputs":[],"outputs":[{"name":"","type":"address","internalType":"address"}],"stateMutability":"view"},{"type":"function","name":"renounceOwnership","inputs":[],"outputs":[],"stateMutability":"nonpayable"},{"type":"function","name":"toggleLogging","inputs":[],"outputs":[],"stateMutability":"nonpayable"},{"type":"function","name":"transferOwnership","inputs":[{"name":"newOwner","type":"address","internalType":"address"}],"outputs":[],"stateMutability":"nonpayable"},{"type":"event","name":"EventLogged","inputs":[{"name":"eventType","type":"string","indexed":true,"internalType":"string"},{"name":"message","type":"string","indexed":false,"internalType":"string"},{"name":"indexedAddress","type":"address","indexed":false,"internalType":"address"},{"name":"timestamp","type":"uint256","indexed":false,"internalType":"uint256"}],"anonymous":false},{"type":"event","name":"LoggingToggled","inputs":[{"name":"enabled","type":"bool","indexed":false,"internalType":"bool"},{"name":"timestamp","type":"uint256","indexed":false,"internalType":"uint256"}],"anonymous":false},{"type":"event","name":"LogsCleared","inputs":[{"name":"timestamp","type":"uint256","indexed":false,"internalType":"uint256"}],"anonymous":false},{"type":"event","name":"OwnershipTransferred","inputs":[{"name":"previousOwner","type":"address","indexed":true,"internalType":"address"},{"name":"newOwner","type":"address","indexed":true,"internalType":"address"}],"anonymous":false},{"type":"error","name":"OwnableInvalidOwner","inputs":[{"name":"owner","type":"address","internalType":"address"}]},{"type":"error","name":"OwnableUnauthorizedAccount","inputs":[{"name":"account","type":"address","internalType":"address"}]}],"bytecode":{"object":"0x6080806040523461008457331561006f575f80546040519133906001600160a01b038316907f8be0079c531659141344cd1fd0a4f28419497f9722a3daafe3b4186f6b6457e09080a36001600160a81b0319163360ff60a01b191617600160a01b175f55610ed390816100898239f35b631e4fbdf760e01b81525f6004820152602490fd5b5f80fdfe60806040526004361015610011575f80fd5b5f3560e01c80631869b90414610ad4578063295802161461062057806339da8bd1146105b0578063532bdeaa146105535780636ce73bd714610553578063715018a6146104fc5780638da5cb5b146104d557806391849f56146103945780639486baae146103b8578063c44e370214610394578063cf03d44914610377578063e52e64f9146101385763f2fde38b146100a8575f80fd5b34610134576020366003190112610134576004356001600160a01b0381811691829003610134576100d7610e72565b811561011c575f54826bffffffffffffffffffffffff60a01b8216175f55167f8be0079c531659141344cd1fd0a4f28419497f9722a3daafe3b4186f6b6457e05f80a3005b604051631e4fbdf760e01b81525f6004820152602490fd5b5f80fd5b3461013457602080600319360112610134576001805490600435828111156103715750815b61016683610e46565b926101746040519485610cd7565b80845261018081610e46565b601f1901855f5b828110610337575091925f19808201935091508083115f5b85811061026b57888789604051928392818401828552835180915260408501928060408360051b8801019501935f905b8382106101dc5787870388f35b918496819592949698508190603f198b820301855289519061024561021d61020d60c0855190808652850190610d1a565b8585015184820387860152610d1a565b6040848101516001600160a01b03169084015260608085015184830391850191909152610d1a565b916080808201519083015260a080910151910152980192019201879695939194926101cf565b8161032357838184030190858211610323576102878892610ba5565b5060056040519161029783610cbb565b6040516102af816102a88185610c2a565b0382610cd7565b83526040516102c4816102a881898601610c2a565b838e015260028101546001600160a01b0316604080850191909152516102f1816102a88160038601610c2a565b606084015260048101546080840152015460a0820152610311828b610e5e565b5261031c818a610e5e565b500161019f565b634e487b7160e01b5f52601160045260245ffd5b60405161034381610cbb565b606080825280848301525f6040830152808201525f60808201525f60a0820152828289010152018690610187565b9161015d565b34610134575f366003190112610134576020600154604051908152f35b34610134575f36600319011261013457602060ff5f5460a01c166040519015158152f35b34610134575f366003190112610134576103d0610e72565b600180545f6001558061040a575b7f33556c359615cf33bdee927e907941d8d51ed49cbb20de4d9575e5756743b9c56020604051428152a1005b600691816006029160068304036103235760015f527fb10e2d527612073b26eecdfd717e6a320cf44b4afac2b0732d9fcbe2b7fa0cf6918201915b8281106104535750506103de565b8061045e8592610dfe565b610469838201610dfe565b5f60028201556003810161047d8154610bf2565b9081610498575b50505f60048201555f600582015501610445565b5f91601f8082116001146104b1575050555b8580610484565b916104ce84929382845260208420940160051c8401888501610da3565b55556104aa565b34610134575f366003190112610134575f546040516001600160a01b039091168152602090f35b34610134575f36600319011261013457610514610e72565b5f80546001600160a01b0319811682556001600160a01b03167f8be0079c531659141344cd1fd0a4f28419497f9722a3daafe3b4186f6b6457e08280a3005b346101345760203660031901126101345760043567ffffffffffffffff81116101345761059d602061058a81933690600401610d85565b8160405193828580945193849201610cf9565b8101600281520301902054604051908152f35b34610134575f366003190112610134576105c8610e72565b7f7e72be08c5d7fedb8b8edc38134beede4d894e7a9f9dbc05c2a03787ca67b1ae60405f5460ff60a01b60ff8260a01c161560a01b169060ff60a01b191617805f5560ff82519160a01c1615158152426020820152a1005b346101345760803660031901126101345760043567ffffffffffffffff811161013457610651903690600401610d85565b60243567ffffffffffffffff811161013457610671903690600401610d85565b6044356001600160a01b0381169291908390036101345760643567ffffffffffffffff81116101345736602382011215610134576106b9903690602481600401359101610d3f565b60ff5f5460a01c1615610a99576040516106d281610cbb565b838152602081019183835285604083015260608201524260808201524360a082015260015468010000000000000000811015610986578060016107189201600155610ba5565b929092610a8657815180519067ffffffffffffffff821161098657610747826107418754610bf2565b87610db9565b602090601f8311600114610a1e5761077692915f9183610a13575b50508160011b915f199060031b1c19161790565b83555b5180519067ffffffffffffffff8211610986576107a68261079d6001870154610bf2565b60018701610db9565b602090601f83116001146109a5576107d492915f918361099a5750508160011b915f199060031b1c19161790565b60018301555b6002820160018060a01b036040830151166bffffffffffffffffffffffff60a01b82541617905560038201606082015180519067ffffffffffffffff8211610986576108308261082a8554610bf2565b85610db9565b602090601f831160011461091c57826005959360a09593610865935f926109115750508160011b915f199060031b1c19161790565b90555b6080810151600485015501519101556040519082519160208181860194610890818388610cf9565b81016002815203019020918254905f198214610323577f961cadbec37b66d865fdb778cee321f651c4faf369ef3016aaf703989997bd8c946109009460016108e694019055604051928392839251928391610cf9565b810103902093604051928392606084526060840190610d1a565b9060208301524260408301520390a2005b015190508b80610762565b90601f19831691845f5260205f20925f5b81811061096e57509260019285926005989660a0989610610956575b505050811b019055610868565b01515f1960f88460031b161c191690558a8080610949565b9293602060018192878601518155019501930161092d565b634e487b7160e01b5f52604160045260245ffd5b015190508880610762565b9190600185015f5260205f20905f935b601f19841685106109f8576001945083601f198116106109e0575b505050811b0160018301556107da565b01515f1960f88460031b161c191690558780806109d0565b818101518355602094850194600190930192909101906109b5565b015190508980610762565b9190855f5260205f20905f935b601f1984168510610a6b576001945083601f19811610610a53575b505050811b018355610779565b01515f1960f88460031b161c19169055888080610a46565b81810151835560209485019460019093019290910190610a2b565b634e487b7160e01b5f525f60045260245ffd5b60405162461bcd60e51b8152602060048201526013602482015272131bd9d9da5b99c81a5cc8191a5cd8589b1959606a1b6044820152606490fd5b346101345760203660031901126101345760043560015481101561013457610afe610b7591610ba5565b5060405190610b1882610b118184610c2a565b0383610cd7565b604051610b2c816102a88160018601610c2a565b6002820154604051610b96916001600160a01b031690610b53816102a88160038901610c2a565b610b83600560048701549601549460405198899860c08a5260c08a0190610d1a565b9088820360208a0152610d1a565b9160408701528582036060870152610d1a565b91608084015260a08301520390f35b600154811015610bde5760069060015f52027fb10e2d527612073b26eecdfd717e6a320cf44b4afac2b0732d9fcbe2b7fa0cf601905f90565b634e487b7160e01b5f52603260045260245ffd5b90600182811c92168015610c20575b6020831014610c0c57565b634e487b7160e01b5f52602260045260245ffd5b91607f1691610c01565b80545f9392610c3882610bf2565b918282526020936001916001811690815f14610c9c5750600114610c5e575b5050505050565b90939495505f92919252835f2092845f945b838610610c8857505050500101905f80808080610c57565b805485870183015294019385908201610c70565b60ff19168685015250505090151560051b010191505f80808080610c57565b60c0810190811067ffffffffffffffff82111761098657604052565b90601f8019910116810190811067ffffffffffffffff82111761098657604052565b5f5b838110610d0a5750505f910152565b8181015183820152602001610cfb565b90602091610d3381518092818552858086019101610cf9565b601f01601f1916010190565b92919267ffffffffffffffff82116109865760405191610d69601f8201601f191660200184610cd7565b829481845281830111610134578281602093845f960137010152565b9080601f8301121561013457816020610da093359101610d3f565b90565b818110610dae575050565b5f8155600101610da3565b9190601f8111610dc857505050565b610df2925f5260205f20906020601f840160051c83019310610df4575b601f0160051c0190610da3565b565b9091508190610de5565b610e088154610bf2565b9081610e12575050565b81601f5f9311600114610e23575055565b908083918252610e42601f60208420940160051c840160018501610da3565b5555565b67ffffffffffffffff81116109865760051b60200190565b8051821015610bde5760209160051b010190565b5f546001600160a01b03163303610e8557565b60405163118cdaa760e01b8152336004820152602490fdfea2646970667358221220787d611b6b04682d464be7c8552f959129a3a04b9b72d1991c35d9f0733dddd264736f6c63430008160033","linkReferences":{}},"methodIdentifiers":{"clearLogs()":"9486baae","eventLogs(uint256)":"1869b904","eventTypeCounters(string)":"6ce73bd7","getEventLogCount()":"cf03d449","getEventTypeCount(string)":"532bdeaa","getRecentLogs(uint256)":"e52e64f9","isLoggingEnabled()":"91849f56","logEvent(string,string,address,bytes)":"29580216","loggingEnabled()":"c44e3702","owner()":"8da5cb5b","renounceOwnership()":"715018a6","toggleLogging()":"39da8bd1","transferOwnership(address)":"f2fde38b"},"id":46}