{"abi":[{"type":"constructor","inputs":[],"stateMutability":"nonpayable"},{"type":"function","name":"addressLogs","inputs":[{"name":"","type":"address","internalType":"address"},{"name":"","type":"uint256","internalType":"uint256"}],"outputs":[{"name":"eventType","type":"string","internalType":"string"},{"name":"message","type":"string","internalType":"string"},{"name":"indexedAddress","type":"address","internalType":"address"},{"name":"timestamp","type":"uint256","internalType":"uint256"},{"name":"blockNumber","type":"uint256","internalType":"uint256"},{"name":"data","type":"bytes","internalType":"bytes"}],"stateMutability":"view"},{"type":"function","name":"eventLogs","inputs":[{"name":"","type":"string","internalType":"string"},{"name":"","type":"uint256","internalType":"uint256"}],"outputs":[{"name":"eventType","type":"string","internalType":"string"},{"name":"message","type":"string","internalType":"string"},{"name":"indexedAddress","type":"address","internalType":"address"},{"name":"timestamp","type":"uint256","internalType":"uint256"},{"name":"blockNumber","type":"uint256","internalType":"uint256"},{"name":"data","type":"bytes","internalType":"bytes"}],"stateMutability":"view"},{"type":"function","name":"getAddressLogs","inputs":[{"name":"targetAddress","type":"address","internalType":"address"}],"outputs":[{"name":"","type":"tuple[]","internalType":"struct EventLogger.LogEntry[]","components":[{"name":"eventType","type":"string","internalType":"string"},{"name":"message","type":"string","internalType":"string"},{"name":"indexedAddress","type":"address","internalType":"address"},{"name":"timestamp","type":"uint256","internalType":"uint256"},{"name":"blockNumber","type":"uint256","internalType":"uint256"},{"name":"data","type":"bytes","internalType":"bytes"}]}],"stateMutability":"view"},{"type":"function","name":"getEventLogs","inputs":[{"name":"eventType","type":"string","internalType":"string"}],"outputs":[{"name":"","type":"tuple[]","internalType":"struct EventLogger.LogEntry[]","components":[{"name":"eventType","type":"string","internalType":"string"},{"name":"message","type":"string","internalType":"string"},{"name":"indexedAddress","type":"address","internalType":"address"},{"name":"timestamp","type":"uint256","internalType":"uint256"},{"name":"blockNumber","type":"uint256","internalType":"uint256"},{"name":"data","type":"bytes","internalType":"bytes"}]}],"stateMutability":"view"},{"type":"function","name":"getLogStats","inputs":[],"outputs":[{"name":"totalLogs","type":"uint256","internalType":"uint256"},{"name":"loggingEnabled","type":"bool","internalType":"bool"},{"name":"maxLogsPerEvent","type":"uint256","internalType":"uint256"},{"name":"maxLogsPerAddress","type":"uint256","internalType":"uint256"},{"name":"eventTypesCount","type":"uint256","internalType":"uint256"}],"stateMutability":"view"},{"type":"function","name":"getRecentLogs","inputs":[{"name":"count","type":"uint256","internalType":"uint256"}],"outputs":[{"name":"","type":"tuple[]","internalType":"struct EventLogger.LogEntry[]","components":[{"name":"eventType","type":"string","internalType":"string"},{"name":"message","type":"string","internalType":"string"},{"name":"indexedAddress","type":"address","internalType":"address"},{"name":"timestamp","type":"uint256","internalType":"uint256"},{"name":"blockNumber","type":"uint256","internalType":"uint256"},{"name":"data","type":"bytes","internalType":"bytes"}]}],"stateMutability":"view"},{"type":"function","name":"initialize","inputs":[{"name":"owner","type":"address","internalType":"address"}],"outputs":[],"stateMutability":"nonpayable"},{"type":"function","name":"logEvent","inputs":[{"name":"eventType","type":"string","internalType":"string"},{"name":"message","type":"string","internalType":"string"},{"name":"indexedAddress","type":"address","internalType":"address"},{"name":"data","type":"bytes","internalType":"bytes"}],"outputs":[],"stateMutability":"nonpayable"},{"type":"function","name":"loggingEnabled","inputs":[],"outputs":[{"name":"","type":"bool","internalType":"bool"}],"stateMutability":"view"},{"type":"function","name":"maxLogsPerAddress","inputs":[],"outputs":[{"name":"","type":"uint256","internalType":"uint256"}],"stateMutability":"view"},{"type":"function","name":"maxLogsPerEvent","inputs":[],"outputs":[{"name":"","type":"uint256","internalType":"uint256"}],"stateMutability":"view"},{"type":"function","name":"owner","inputs":[],"outputs":[{"name":"","type":"address","internalType":"address"}],"stateMutability":"view"},{"type":"function","name":"renounceOwnership","inputs":[],"outputs":[],"stateMutability":"nonpayable"},{"type":"function","name":"searchLogs","inputs":[{"name":"eventType","type":"string","internalType":"string"},{"name":"targetAddress","type":"address","internalType":"address"},{"name":"startTime","type":"uint256","internalType":"uint256"},{"name":"endTime","type":"uint256","internalType":"uint256"}],"outputs":[{"name":"","type":"tuple[]","internalType":"struct EventLogger.LogEntry[]","components":[{"name":"eventType","type":"string","internalType":"string"},{"name":"message","type":"string","internalType":"string"},{"name":"indexedAddress","type":"address","internalType":"address"},{"name":"timestamp","type":"uint256","internalType":"uint256"},{"name":"blockNumber","type":"uint256","internalType":"uint256"},{"name":"data","type":"bytes","internalType":"bytes"}]}],"stateMutability":"view"},{"type":"function","name":"toggleLogging","inputs":[],"outputs":[],"stateMutability":"nonpayable"},{"type":"function","name":"totalLogs","inputs":[],"outputs":[{"name":"","type":"uint256","internalType":"uint256"}],"stateMutability":"view"},{"type":"function","name":"transferOwnership","inputs":[{"name":"newOwner","type":"address","internalType":"address"}],"outputs":[],"stateMutability":"nonpayable"},{"type":"function","name":"updateMaxLogs","inputs":[{"name":"newMaxLogsPerEvent","type":"uint256","internalType":"uint256"},{"name":"newMaxLogsPerAddress","type":"uint256","internalType":"uint256"}],"outputs":[],"stateMutability":"nonpayable"},{"type":"event","name":"Initialized","inputs":[{"name":"version","type":"uint64","indexed":false,"internalType":"uint64"}],"anonymous":false},{"type":"event","name":"LogEntryCreated","inputs":[{"name":"eventType","type":"string","indexed":true,"internalType":"string"},{"name":"indexedAddress","type":"address","indexed":true,"internalType":"address"},{"name":"message","type":"string","indexed":false,"internalType":"string"},{"name":"timestamp","type":"uint256","indexed":false,"internalType":"uint256"},{"name":"logId","type":"uint256","indexed":false,"internalType":"uint256"}],"anonymous":false},{"type":"event","name":"LoggingToggled","inputs":[{"name":"enabled","type":"bool","indexed":false,"internalType":"bool"},{"name":"timestamp","type":"uint256","indexed":false,"internalType":"uint256"}],"anonymous":false},{"type":"event","name":"MaxLogsUpdated","inputs":[{"name":"oldMax","type":"uint256","indexed":false,"internalType":"uint256"},{"name":"newMax","type":"uint256","indexed":false,"internalType":"uint256"},{"name":"timestamp","type":"uint256","indexed":false,"internalType":"uint256"}],"anonymous":false},{"type":"event","name":"OwnershipTransferred","inputs":[{"name":"previousOwner","type":"address","indexed":true,"internalType":"address"},{"name":"newOwner","type":"address","indexed":true,"internalType":"address"}],"anonymous":false},{"type":"error","name":"InvalidInitialization","inputs":[]},{"type":"error","name":"NotInitializing","inputs":[]},{"type":"error","name":"OwnableInvalidOwner","inputs":[{"name":"owner","type":"address","internalType":"address"}]},{"type":"error","name":"OwnableUnauthorizedAccount","inputs":[{"name":"account","type":"address","internalType":"address"}]}],"bytecode":{"object":"0x608080604052346100c2576103e8806004556005557ff0c57e16840df040f15088dc2f81fe391c3923bec73e23a9662efc9c229c6a009081549060ff8260401c166100b357506001600160401b036002600160401b03198282160161006e575b60405161170790816100c78239f35b6001600160401b031990911681179091556040519081527fc7f505b2f371ae2175ee4913f4499e1f2633a7b5936321eed1cdaeb6115181d290602090a15f808061005f565b63f92ee8a960e01b8152600490fd5b5f80fdfe60406080815260049081361015610014575f80fd5b5f3560e01c80631bf38e8e14610bd75780631da7dd7914610bb9578063295802161461082457806339da8bd1146107c557806339f8bf41146106ad57806360d479df1461067b578063715018a6146106145780638da5cb5b146105e0578063a12cfd2e146104ec578063a50515e914610417578063bc1484cd146103c7578063c44e3702146103a4578063c4d66de81461026b578063d67d3acd1461024f578063e4ce066214610231578063e52e64f91461015b578063f2fde38b146101305763f600e18e146100e2575f80fd5b3461012c57602036600319011261012c5781359167ffffffffffffffff831161012c5761011861011d9161012894369101610ebb565b6114e9565b905191829182610ed6565b0390f35b5f80fd5b3461012c57602036600319011261012c5761015961014c610c79565b610154611638565b6115c7565b005b50903461012c57602091602060031936011261012c5781359182156101ef5750610184826114d1565b9161019182519384610db5565b8083526101a0601f19916114d1565b015f5b8181106101b7578251806101288682610ed6565b849083516101c481610d85565b606080825280848301525f868301525f818301525f608083015260a0820152828287010152016101a3565b6020606492519162461bcd60e51b8352820152601c60248201527f436f756e74206d7573742062652067726561746572207468616e2030000000006044820152fd5b503461012c575f36600319011261012c576020906002549051908152f35b503461012c575f36600319011261012c57602091549051908152f35b50903461012c57602036600319011261012c57610286610c79565b907ff0c57e16840df040f15088dc2f81fe391c3923bec73e23a9662efc9c229c6a0091825460ff81861c16159267ffffffffffffffff82168015908161039c575b6001149081610392575b159081610389575b5061037b575067ffffffffffffffff198116600117845561030c91908361035c575b50610304611670565b610154611670565b600160ff19600354161760035561031f57005b805468ff00000000000000001916905551600181527fc7f505b2f371ae2175ee4913f4499e1f2633a7b5936321eed1cdaeb6115181d290602090a1005b68ffffffffffffffffff1916680100000000000000011784555f6102fb565b855163f92ee8a960e01b8152fd5b9050155f6102d9565b303b1591506102d1565b8591506102c7565b503461012c575f36600319011261012c5760209060ff6003541690519015158152f35b50903461012c57608036600319011261012c5780359067ffffffffffffffff821161012c576103f891369101610ebb565b906024356001600160a01b0381160361012c5761011d610128926114e9565b50903461012c578160031936011261012c57803567ffffffffffffffff811161012c576104479036908301610ebb565b61046260206024359281865193828580945193849201610dd7565b81015f81520301902090815481101561012c5761048460059161012893610c8f565b5084519361049d856104968185610cf4565b0386610db5565b8551956104b8876104b18160018701610cf4565b0388610db5565b60018060a01b03600284015416906104e26003850154938501549461049683518098819301610cf4565b5196879687610e1d565b503461012c576020908160031936011261012c576001600160a01b03908382610513610c79565b165f5260019360018152825f209081549261052d846114d1565b9561053a86519788610db5565b8487525f938452828420918388015b86861061055d578751806101288b82610ed6565b6006858b928a5161056d81610d85565b8b516105848161057d818c610cf4565b0382610db5565b81528b516105988161057d81898d01610cf4565b83820152866002890154168c820152600388015460608201528588015460808201528b516105cd8161057d8160058d01610cf4565b60a0820152815201940195019492610549565b503461012c575f36600319011261012c575f805160206116b28339815191525490516001600160a01b039091168152602090f35b3461012c575f36600319011261012c5761062c611638565b5f805160206116b283398151915280546001600160a01b031981169091555f906001600160a01b03167f8be0079c531659141344cd1fd0a4f28419497f9722a3daafe3b4186f6b6457e08280a3005b503461012c575f36600319011261012c57805f60a09251918183528160208401528201525f60608201525f6080820152f35b50903461012c578160031936011261012c5780356024356106cc611638565b81156107705780156107195792817f07bfffbff6ed90b0d5d8d99fc049144b62a26e984a732e01778744712d836b61948493606095549455600555815192835260208301524290820152a1005b835162461bcd60e51b8152602081850152602b60248201527f4d6178206c6f6773207065722061646472657373206d7573742062652067726560448201526a061746572207468616e20360ac1b6064820152608490fd5b835162461bcd60e51b8152602081850152602960248201527f4d6178206c6f677320706572206576656e74206d75737420626520677265617460448201526806572207468616e20360bc1b6064820152608490fd5b503461012c575f36600319011261012c577f7e72be08c5d7fedb8b8edc38134beede4d894e7a9f9dbc05c2a03787ca67b1ae90610800611638565b60035460ff8082161516809160ff19161760035581519015158152426020820152a1005b503461012c57608036600319011261012c5767ffffffffffffffff91803583811161012c576108569036908301610ebb565b90602491823585811161012c576108709036908401610ebb565b926044359560018060a01b03871680970361012c5760643590811161012c573660238201121561012c576108ac90369083818701359101610e75565b926108b5611638565b60ff6003541615610b82578551906108cc82610d85565b8382526020948686840152888884015242606084015243608084015260a0830152865192610916838651958881818a019861090881838c610dd7565b81015f815203019020610fee565b87518681875161092781838a610dd7565b81015f81520301902054825410610a93575b885f5261094d600193848852895f20610fee565b885f52828652875f2054600554106109e9575b600254915f1983146109d85750506109ca94927f4ebad9077c23181924b69cdda53c62b990758bfdc018d0a880a50dbe1043f4709694926109b1920192836002558851928392839251928391610dd7565b8101039020958051948594606086526060860190610df8565b9242908501528301520390a3005b601190634e487b7160e01b5f52525ffd5b5f835b610a08575b50885f52828652610a03885f2061142d565b610960565b895f52838752885f20545f198101908111610a8157811015610a7c57895f52838752885f2084820190818311610a6a5791610a638c610a5d838e8a8e610a51829a99839a610c8f565b50955f52525f20610c8f565b90611371565b01906109ec565b83601186634e487b7160e01b5f52525ffd5b6109f1565b82601185634e487b7160e01b5f52525ffd5b919697909294955f5b895188818851610aad81838d610dd7565b81015f815203019020545f198101908111610b7057811015610b4157895188818851610ada81838d610dd7565b81015f8152030190206001820190818311610b2f578b610a5d84610b1b8d8d8d610b0a60019a99610b2999610c8f565b509651938492839251928391610dd7565b81015f815203019020610c8f565b01610a9c565b85601188634e487b7160e01b5f52525ffd5b5095949290979691610b6b885187818851610b5d81838b610dd7565b81015f81520301902061142d565b610939565b84601187634e487b7160e01b5f52525ffd5b6013606492602088519362461bcd60e51b855284015282015272131bd9d9da5b99c81a5cc8191a5cd8589b1959606a1b6044820152fd5b503461012c575f36600319011261012c576020906005549051908152f35b503461012c578060031936011261012c57610bf0610c79565b9160243560018060a01b038094165f526001602052825f2091825482101561012c57610c2160059261012894610c8f565b5090845194610c3b86610c348186610cf4565b0387610db5565b805196610c5688610c4f8160018801610cf4565b0389610db5565b600284015416906104e26003850154938501549461049683518098819301610cf4565b600435906001600160a01b038216820361012c57565b8054821015610ca8575f52600660205f20910201905f90565b634e487b7160e01b5f52603260045260245ffd5b90600182811c92168015610cea575b6020831014610cd657565b634e487b7160e01b5f52602260045260245ffd5b91607f1691610ccb565b80545f9392610d0282610cbc565b918282526020936001916001811690815f14610d665750600114610d28575b5050505050565b90939495505f92919252835f2092845f945b838610610d5257505050500101905f80808080610d21565b805485870183015294019385908201610d3a565b60ff19168685015250505090151560051b010191505f80808080610d21565b60c0810190811067ffffffffffffffff821117610da157604052565b634e487b7160e01b5f52604160045260245ffd5b90601f8019910116810190811067ffffffffffffffff821117610da157604052565b5f5b838110610de85750505f910152565b8181015183820152602001610dd9565b90602091610e1181518092818552858086019101610dd7565b601f01601f1916010190565b929491610e4990610e3b610e7298969360c0875260c0870190610df8565b908582036020870152610df8565b6001600160a01b0390951660408401526060830152608082015280830360a09190910152610df8565b90565b92919267ffffffffffffffff8211610da15760405191610e9f601f8201601f191660200184610db5565b82948184528183011161012c578281602093845f960137010152565b9080601f8301121561012c57816020610e7293359101610e75565b6020808201908083528351809252604092604081018260408560051b8401019601945f925b858410610f0c575050505050505090565b909192939495968580610f82600193603f198682030188528b51610f4c610f3c60c0835190808652850190610df8565b8583015184820387860152610df8565b91868060a01b03898301511689820152606080830151908201526080808301519082015260a08092015191818403910152610df8565b990194019401929594939190610efb565b818110610f9e575050565b5f8155600101610f93565b9190601f8111610fb857505050565b610fe2925f5260205f20906020601f840160051c83019310610fe4575b601f0160051c0190610f93565b565b9091508190610fd5565b805468010000000000000000811015610da157611012906001928382018155610c8f565b61128557825190815167ffffffffffffffff92838211610da1576110408261103a8554610cbc565b85610fa9565b602090601f83116001146112275761106f92915f9183611156575b50508160011b915f199060031b1c19161790565b81555b8281016020850151805190848211610da1576110928261103a8554610cbc565b602090601f83116001146111bd578260a09593600595936110c7935f926111565750508160011b915f199060031b1c19161790565b90555b60028101600180851b036040880151166bffffffffffffffffffffffff851b8254161790556060860151600382015560808601516004820155019301518051918211610da1576111248261111e8654610cbc565b86610fa9565b602092601f83116001146111615750611152925f91836111565750508160011b915f199060031b1c19161790565b9055565b015190505f8061105b565b92601f19831691855f5283825f20935f5b878282106111a45750501061118c575b505050811b019055565b01515f1960f88460031b161c191690555f8080611182565b8486015187559095019460209485019487935001611172565b869291601f19831691855f52815f20925f5b81811061120f57509160a097959391856005989694106111f7575b505050811b0190556110ca565b01515f1960f88460031b161c191690555f80806111ea565b8284015185558a9690940193602093840193016111cf565b859291601f19831691855f52815f20925f5b81811061126d57508411611255575b505050811b018155611072565b01515f1960f88460031b161c191690555f8080611248565b82840151855589969094019360209384019301611239565b634e487b7160e01b5f525f60045260245ffd5b9080821461136d576112aa8154610cbc565b9067ffffffffffffffff8211610da1576112c88261103a8554610cbc565b5f90601f83116001146113005761115292915f91836112f55750508160011b915f199060031b1c19161790565b015490505f8061105b565b90601f198316915f5260209160205f2090855f5260205f20935f905b82821061135457505090846001959493921061133c57505050811b019055565b01545f1960f88460031b161c191690555f8080611182565b849581929585015481556001809101960194019061131c565b5050565b9061128557818103611381575050565b60058083611392610fe29585611298565b6113a26001820160018601611298565b6002840160018060a01b036002830154166bffffffffffffffffffffffff60a01b8254161790556003810154600385015560048101546004850155019101611298565b6113ef8154610cbc565b90816113f9575050565b81601f5f931160011461140a575055565b908083918252611429601f60208420940160051c840160018501610f93565b5555565b805480156114bd575f1901906114438282610c8f565b61128557806114536005926113e5565b61145f600182016113e5565b5f60028201555f60038201555f60048201550161147c8154610cbc565b908161148757505055565b81601f5f931160011461149957505555565b9080839182526114b8601f60208420940160051c840160018501610f93565b555555565b634e487b7160e01b5f52603160045260245ffd5b67ffffffffffffffff8111610da15760051b60200190565b604090815181818093516115038160209687809601610dd7565b81015f815203019020805491611518836114d1565b9361152581519586610db5565b8385525f928352818320908286015b8585106115445750505050505090565b600684600192845161155581610d85565b85516115658161057d818b610cf4565b815285516115798161057d81898c01610cf4565b83820152848060a01b0360028801541686820152600387015460608201526004870154608082015285516115b48161057d8160058c01610cf4565b60a0820152815201930194019391611534565b6001600160a01b03908116908115611620575f805160206116b283398151915280546001600160a01b031981168417909155167f8be0079c531659141344cd1fd0a4f28419497f9722a3daafe3b4186f6b6457e05f80a3565b604051631e4fbdf760e01b81525f6004820152602490fd5b5f805160206116b2833981519152546001600160a01b0316330361165857565b60405163118cdaa760e01b8152336004820152602490fd5b60ff7ff0c57e16840df040f15088dc2f81fe391c3923bec73e23a9662efc9c229c6a005460401c161561169f57565b604051631afcd79f60e31b8152600490fdfe9016d09d72d40fdae2fd8ceac6b6234c7706214fd39c1cd1e609a0528c199300a2646970667358221220f5a71ae8ff6e3c087905adfc9f34894200ba18ce8c1d7108adfedd39d7d2f5da64736f6c63430008160033","linkReferences":{}},"methodIdentifiers":{"addressLogs(address,uint256)":"1bf38e8e","eventLogs(string,uint256)":"a50515e9","getAddressLogs(address)":"a12cfd2e","getEventLogs(string)":"f600e18e","getLogStats()":"60d479df","getRecentLogs(uint256)":"e52e64f9","initialize(address)":"c4d66de8","logEvent(string,string,address,bytes)":"29580216","loggingEnabled()":"c44e3702","maxLogsPerAddress()":"1da7dd79","maxLogsPerEvent()":"d67d3acd","owner()":"8da5cb5b","renounceOwnership()":"715018a6","searchLogs(string,address,uint256,uint256)":"bc1484cd","toggleLogging()":"39da8bd1","totalLogs()":"e4ce0662","transferOwnership(address)":"f2fde38b","updateMaxLogs(uint256,uint256)":"39f8bf41"},"id":45}