{"abi":[{"type":"constructor","inputs":[],"stateMutability":"nonpayable"},{"type":"function","name":"addAuthorizedContract","inputs":[{"name":"contractAddress","type":"address","internalType":"address"}],"outputs":[],"stateMutability":"nonpayable"},{"type":"function","name":"authorizedContracts","inputs":[{"name":"","type":"address","internalType":"address"}],"outputs":[{"name":"","type":"bool","internalType":"bool"}],"stateMutability":"view"},{"type":"function","name":"checkTreasuryBalance","inputs":[{"name":"treasuryName","type":"string","internalType":"string"}],"outputs":[],"stateMutability":"view"},{"type":"function","name":"createTreasury","inputs":[{"name":"treasuryName","type":"string","internalType":"string"},{"name":"initialBalance","type":"uint256","internalType":"uint256"}],"outputs":[],"stateMutability":"nonpayable"},{"type":"function","name":"depositFunds","inputs":[{"name":"treasuryName","type":"string","internalType":"string"},{"name":"user","type":"address","internalType":"address"},{"name":"amount","type":"uint256","internalType":"uint256"}],"outputs":[],"stateMutability":"payable"},{"type":"function","name":"emergencyWithdraw","inputs":[{"name":"treasuryName","type":"string","internalType":"string"},{"name":"amount","type":"uint256","internalType":"uint256"},{"name":"reason","type":"string","internalType":"string"}],"outputs":[],"stateMutability":"nonpayable"},{"type":"function","name":"getTreasuryInfo","inputs":[{"name":"treasuryName","type":"string","internalType":"string"}],"outputs":[{"name":"totalBalance","type":"uint256","internalType":"uint256"},{"name":"reservedBalance","type":"uint256","internalType":"uint256"},{"name":"availableBalance","type":"uint256","internalType":"uint256"},{"name":"lastUpdate","type":"uint256","internalType":"uint256"},{"name":"isActive","type":"bool","internalType":"bool"}],"stateMutability":"view"},{"type":"function","name":"getUserBalance","inputs":[{"name":"user","type":"address","internalType":"address"}],"outputs":[{"name":"","type":"uint256","internalType":"uint256"}],"stateMutability":"view"},{"type":"function","name":"getUserTreasuryBalance","inputs":[{"name":"treasuryName","type":"string","internalType":"string"},{"name":"user","type":"address","internalType":"address"}],"outputs":[{"name":"","type":"uint256","internalType":"uint256"}],"stateMutability":"view"},{"type":"function","name":"maxWithdrawalAmount","inputs":[],"outputs":[{"name":"","type":"uint256","internalType":"uint256"}],"stateMutability":"view"},{"type":"function","name":"minReserveRatio","inputs":[],"outputs":[{"name":"","type":"uint256","internalType":"uint256"}],"stateMutability":"view"},{"type":"function","name":"owner","inputs":[],"outputs":[{"name":"","type":"address","internalType":"address"}],"stateMutability":"view"},{"type":"function","name":"removeAuthorizedContract","inputs":[{"name":"contractAddress","type":"address","internalType":"address"}],"outputs":[],"stateMutability":"nonpayable"},{"type":"function","name":"renounceOwnership","inputs":[],"outputs":[],"stateMutability":"nonpayable"},{"type":"function","name":"setReserve","inputs":[{"name":"treasuryName","type":"string","internalType":"string"},{"name":"reserveAmount","type":"uint256","internalType":"uint256"}],"outputs":[],"stateMutability":"nonpayable"},{"type":"function","name":"toggleTreasury","inputs":[{"name":"treasuryName","type":"string","internalType":"string"}],"outputs":[],"stateMutability":"nonpayable"},{"type":"function","name":"toggleTreasurySystem","inputs":[],"outputs":[],"stateMutability":"nonpayable"},{"type":"function","name":"transferOwnership","inputs":[{"name":"newOwner","type":"address","internalType":"address"}],"outputs":[],"stateMutability":"nonpayable"},{"type":"function","name":"treasuries","inputs":[{"name":"","type":"string","internalType":"string"}],"outputs":[{"name":"totalBalance","type":"uint256","internalType":"uint256"},{"name":"reservedBalance","type":"uint256","internalType":"uint256"},{"name":"availableBalance","type":"uint256","internalType":"uint256"},{"name":"lastUpdate","type":"uint256","internalType":"uint256"},{"name":"isActive","type":"bool","internalType":"bool"}],"stateMutability":"view"},{"type":"function","name":"treasuryEnabled","inputs":[],"outputs":[{"name":"","type":"bool","internalType":"bool"}],"stateMutability":"view"},{"type":"function","name":"updateMaxWithdrawalAmount","inputs":[{"name":"newAmount","type":"uint256","internalType":"uint256"}],"outputs":[],"stateMutability":"nonpayable"},{"type":"function","name":"updateMinReserveRatio","inputs":[{"name":"newRatio","type":"uint256","internalType":"uint256"}],"outputs":[],"stateMutability":"nonpayable"},{"type":"function","name":"userBalances","inputs":[{"name":"","type":"address","internalType":"address"}],"outputs":[{"name":"","type":"uint256","internalType":"uint256"}],"stateMutability":"view"},{"type":"function","name":"userTreasuryBalances","inputs":[{"name":"","type":"string","internalType":"string"},{"name":"","type":"address","internalType":"address"}],"outputs":[{"name":"","type":"uint256","internalType":"uint256"}],"stateMutability":"view"},{"type":"function","name":"withdrawFunds","inputs":[{"name":"treasuryName","type":"string","internalType":"string"},{"name":"user","type":"address","internalType":"address"},{"name":"amount","type":"uint256","internalType":"uint256"}],"outputs":[],"stateMutability":"nonpayable"},{"type":"event","name":"FundsDeposited","inputs":[{"name":"treasuryName","type":"string","indexed":true,"internalType":"string"},{"name":"user","type":"address","indexed":true,"internalType":"address"},{"name":"amount","type":"uint256","indexed":false,"internalType":"uint256"},{"name":"timestamp","type":"uint256","indexed":false,"internalType":"uint256"}],"anonymous":false},{"type":"event","name":"FundsWithdrawn","inputs":[{"name":"treasuryName","type":"string","indexed":true,"internalType":"string"},{"name":"user","type":"address","indexed":true,"internalType":"address"},{"name":"amount","type":"uint256","indexed":false,"internalType":"uint256"},{"name":"timestamp","type":"uint256","indexed":false,"internalType":"uint256"}],"anonymous":false},{"type":"event","name":"OwnershipTransferred","inputs":[{"name":"previousOwner","type":"address","indexed":true,"internalType":"address"},{"name":"newOwner","type":"address","indexed":true,"internalType":"address"}],"anonymous":false},{"type":"event","name":"ReserveRatioUpdated","inputs":[{"name":"oldRatio","type":"uint256","indexed":false,"internalType":"uint256"},{"name":"newRatio","type":"uint256","indexed":false,"internalType":"uint256"},{"name":"timestamp","type":"uint256","indexed":false,"internalType":"uint256"}],"anonymous":false},{"type":"event","name":"ReserveUpdated","inputs":[{"name":"treasuryName","type":"string","indexed":true,"internalType":"string"},{"name":"oldReserve","type":"uint256","indexed":false,"internalType":"uint256"},{"name":"newReserve","type":"uint256","indexed":false,"internalType":"uint256"},{"name":"timestamp","type":"uint256","indexed":false,"internalType":"uint256"}],"anonymous":false},{"type":"event","name":"TreasuryBalanceHigh","inputs":[{"name":"treasuryName","type":"string","indexed":true,"internalType":"string"},{"name":"currentBalance","type":"uint256","indexed":false,"internalType":"uint256"},{"name":"threshold","type":"uint256","indexed":false,"internalType":"uint256"},{"name":"timestamp","type":"uint256","indexed":false,"internalType":"uint256"}],"anonymous":false},{"type":"event","name":"TreasuryBalanceLow","inputs":[{"name":"treasuryName","type":"string","indexed":true,"internalType":"string"},{"name":"currentBalance","type":"uint256","indexed":false,"internalType":"uint256"},{"name":"threshold","type":"uint256","indexed":false,"internalType":"uint256"},{"name":"timestamp","type":"uint256","indexed":false,"internalType":"uint256"}],"anonymous":false},{"type":"event","name":"TreasuryCreated","inputs":[{"name":"treasuryName","type":"string","indexed":true,"internalType":"string"},{"name":"initialBalance","type":"uint256","indexed":false,"internalType":"uint256"},{"name":"timestamp","type":"uint256","indexed":false,"internalType":"uint256"}],"anonymous":false},{"type":"event","name":"TreasuryEmergencyWithdraw","inputs":[{"name":"by","type":"address","indexed":true,"internalType":"address"},{"name":"amount","type":"uint256","indexed":false,"internalType":"uint256"},{"name":"reason","type":"string","indexed":false,"internalType":"string"},{"name":"timestamp","type":"uint256","indexed":false,"internalType":"uint256"}],"anonymous":false},{"type":"event","name":"TreasuryToggled","inputs":[{"name":"enabled","type":"bool","indexed":false,"internalType":"bool"},{"name":"timestamp","type":"uint256","indexed":false,"internalType":"uint256"}],"anonymous":false},{"type":"event","name":"TreasuryUpdated","inputs":[{"name":"treasuryName","type":"string","indexed":true,"internalType":"string"},{"name":"oldBalance","type":"uint256","indexed":false,"internalType":"uint256"},{"name":"newBalance","type":"uint256","indexed":false,"internalType":"uint256"},{"name":"timestamp","type":"uint256","indexed":false,"internalType":"uint256"}],"anonymous":false},{"type":"event","name":"WithdrawalLimitExceeded","inputs":[{"name":"user","type":"address","indexed":true,"internalType":"address"},{"name":"requestedAmount","type":"uint256","indexed":false,"internalType":"uint256"},{"name":"maxAllowed","type":"uint256","indexed":false,"internalType":"uint256"},{"name":"timestamp","type":"uint256","indexed":false,"internalType":"uint256"}],"anonymous":false},{"type":"error","name":"OwnableInvalidOwner","inputs":[{"name":"owner","type":"address","internalType":"address"}]},{"type":"error","name":"OwnableUnauthorizedAccount","inputs":[{"name":"account","type":"address","internalType":"address"}]},{"type":"error","name":"ReentrancyGuardReentrantCall","inputs":[]}],"bytecode":{"object":"0x60806040526006805460ff1916600117905569021e19e0c9bab2400000600755600a60085534801561002f575f80fd5b50338061005557604051631e4fbdf760e01b81525f600482015260240160405180910390fd5b61005e81610076565b5060018080556006805460ff191690911790556100c5565b5f80546001600160a01b038381166001600160a01b0319831681178455604051919092169283917f8be0079c531659141344cd1fd0a4f28419497f9722a3daafe3b4186f6b6457e09190a35050565b611c5b806100d25f395ff3fe608060405260043610610161575f3560e01c8063715018a6116100cd578063c36b32de11610087578063e976d43111610062578063e976d431146104a4578063f077022a146104b9578063f2fde38b146104d8578063ff0965c9146104f7575f80fd5b8063c36b32de14610438578063d5b9221b14610457578063e6b165ed14610485575f80fd5b8063715018a6146103225780638da5cb5b1461033657806398eaa4a71461035c578063aa1dff8c1461037b578063b89dad4f146103c1578063bdb0d27b14610419575f80fd5b80632e19bfda1161011e5780632e19bfda14610253578063377d55551461027257806338dfd5f51461029157806347734892146102ba5780634dc36e2e146102ee5780635a596d1c1461030d575f80fd5b8063080409871461016557806308638fd1146101975780630a0a4ac5146101ac57806326224c64146101cb5780632c55c53e146101f65780632c68594d1461023f575b5f80fd5b348015610170575f80fd5b5061018461017f3660046118f7565b610516565b6040519081526020015b60405180910390f35b6101aa6101a5366004611942565b610554565b005b3480156101b7575f80fd5b506101aa6101c6366004611995565b610941565b3480156101d6575f80fd5b506101846101e53660046119ac565b60036020525f908152604090205481565b348015610201575f80fd5b506102156102103660046119cc565b6109aa565b6040805195865260208601949094529284019190915260608301521515608082015260a00161018e565b34801561024a575f80fd5b506101aa6109fb565b34801561025e575f80fd5b506101aa61026d3660046119cc565b610a57565b34801561027d575f80fd5b506101aa61028c366004611a06565b610abb565b34801561029c575f80fd5b506006546102aa9060ff1681565b604051901515815260200161018e565b3480156102c5575f80fd5b506101846102d43660046119ac565b6001600160a01b03165f9081526003602052604090205490565b3480156102f9575f80fd5b506101aa6103083660046119cc565b610c25565b348015610318575f80fd5b5061018460085481565b34801561032d575f80fd5b506101aa610c69565b348015610341575f80fd5b505f546040516001600160a01b03909116815260200161018e565b348015610367575f80fd5b506101aa6103763660046119ac565b610c7c565b348015610386575f80fd5b506101846103953660046118f7565b81516020818401810180516004825292820194820194909420919093529091525f908152604090205481565b3480156103cc575f80fd5b506102156103db3660046119cc565b805160208183018101805160028083529383019290940191909120929052815460018301549183015460038401546004909401549193909160ff1685565b348015610424575f80fd5b506101aa610433366004611995565b610cfd565b348015610443575f80fd5b506101aa610452366004611a06565b610da1565b348015610462575f80fd5b506102aa6104713660046119ac565b60056020525f908152604090205460ff1681565b348015610490575f80fd5b506101aa61049f3660046119ac565b610f3b565b3480156104af575f80fd5b5061018460075481565b3480156104c4575f80fd5b506101aa6104d3366004611942565b610f63565b3480156104e3575f80fd5b506101aa6104f23660046119ac565b61153a565b348015610502575f80fd5b506101aa610511366004611a48565b611577565b5f6004836040516105279190611ad2565b90815260408051602092819003830190206001600160a01b0385165f908152925290205490505b92915050565b5f546001600160a01b031633148061057a5750335f9081526005602052604090205460ff165b6105bc5760405162461bcd60e51b815260206004820152600e60248201526d139bdd08185d5d1a1bdc9a5e995960921b60448201526064015b60405180910390fd5b6105c461179a565b60065460ff1661060d5760405162461bcd60e51b8152602060048201526014602482015273151c99585cdd5c9e481a5cc8191a5cd8589b195960621b60448201526064016105b3565b825f81511161062e5760405162461bcd60e51b81526004016105b390611aed565b6032815111156106795760405162461bcd60e51b81526020600482015260166024820152755472656173757279206e616d6520746f6f206c6f6e6760501b60448201526064016105b3565b826001600160a01b0381166106c75760405162461bcd60e51b8152602060048201526014602482015273496e76616c69642075736572206164647265737360601b60448201526064016105b3565b825f81116107175760405162461bcd60e51b815260206004820152601d60248201527f416d6f756e74206d7573742062652067726561746572207468616e203000000060448201526064016105b3565b69021e19e0c9bab24000008111156107715760405162461bcd60e51b815260206004820152601c60248201527f416d6f756e742065786365656473206d6178696d756d206c696d69740000000060448201526064016105b3565b856002816040516107829190611ad2565b9081526040519081900360200190206004015460ff166107b45760405162461bcd60e51b81526004016105b390611b24565b5f6002886040516107c59190611ad2565b90815260405190819003602001902080549091504287835f6107e78386611b68565b9250508190555087836002015f8282546108019190611b68565b909155505060038084018290556001600160a01b038a165f9081526020919091526040812080548a9290610836908490611b68565b925050819055508760048b60405161084e9190611ad2565b90815260200160405180910390205f8b6001600160a01b03166001600160a01b031681526020019081526020015f205f82825461088b9190611b68565b90915550506040516001600160a01b038a16906108a9908c90611ad2565b604080519182900382208b835260208301859052917fdf891f5410135263075ea37fdff545d69408e487f2cac5ef532f801aecfaf19e910160405180910390a3896040516108f79190611ad2565b6040805191829003822085548584526020840152908201839052905f80516020611c068339815191529060600160405180910390a25050505050505061093c60018055565b505050565b6109496117c4565b6007805490829055604080517213585e15da5d1a191c985dd85b105b5bdd5b9d606a1b815281519081900360130181208382526020820185905242928201929092525f80516020611c06833981519152906060015b60405180910390a25050565b5f805f805f806002876040516109c09190611ad2565b9081526040519081900360200190208054600182015460028301546003840154600490940154929b919a50985091965060ff16945092505050565b610a036117c4565b6006805460ff8082161560ff1990921682179092556040805191909216151581524260208201527f059ca7fad8532afadd0f505a17901b43301de3dc5fd0ab9b076e7b102ea0249c910160405180910390a1565b610a5f6117c4565b600281604051610a6f9190611ad2565b9081526040519081900360200181206004015460ff161590600290610a95908490611ad2565b908152604051908190036020019020600401805491151560ff1990921691909117905550565b610ac36117c4565b600282604051610ad39190611ad2565b9081526040519081900360200190206004015460ff16610b055760405162461bcd60e51b81526004016105b390611b24565b600282604051610b159190611ad2565b90815260405190819003602001902054811115610b805760405162461bcd60e51b815260206004820152602360248201527f526573657276652063616e6e6f742065786365656420746f74616c2062616c616044820152626e636560e81b60648201526084016105b3565b5f600283604051610b919190611ad2565b90815260405190819003602001902060018101805490849055815491925090610bbb908490611b7b565b6002830155426003830155604051610bd4908590611ad2565b60408051918290038220600185015484845260208401524283830152905190917febc3cf740e6289113022180c2076aa99c978b3322ec42bb5571da7e2929cb30c919081900360600190a250505050565b5f600282604051610c369190611ad2565b908152602001604051809103902090505f6064825f0154600a610c599190611b8e565b610c639190611ba5565b50505050565b610c716117c4565b610c7a5f6117f0565b565b610c846117c4565b6001600160a01b038116610cda5760405162461bcd60e51b815260206004820152601860248201527f496e76616c696420636f6e74726163742061646472657373000000000000000060448201526064016105b3565b6001600160a01b03165f908152600560205260409020805460ff19166001179055565b610d056117c4565b6032811115610d565760405162461bcd60e51b815260206004820152601f60248201527f5265736572766520726174696f2063616e6e6f7420657863656564203530250060448201526064016105b3565b60088054908290556040805182815260208101849052428183015290517f6650a6afc06108930f3b0fcc99280c5dbef425925191e4aba13d44f69413ebc69181900360600190a15050565b610da96117c4565b5f825111610dc95760405162461bcd60e51b81526004016105b390611aed565b600282604051610dd99190611ad2565b9081526040519081900360200190205415610e365760405162461bcd60e51b815260206004820152601760248201527f547265617375727920616c72656164792065786973747300000000000000000060448201526064016105b3565b6040518060a00160405280828152602001606460085484610e579190611b8e565b610e619190611ba5565b8152602001606460085484610e769190611b8e565b610e809190611ba5565b610e8a9084611b7b565b8152426020820152600160409182015251600290610ea9908590611ad2565b908152604080516020928190038301812084518155928401516001840155908301516002830155606083015160038301556080909201516004909101805460ff1916911515919091179055610eff908390611ad2565b60408051918290038220838352426020840152917f4f610fed047b9d7dda737836e7d087ff894d50387ff0c3c4b42f47bf8519b30e910161099e565b610f436117c4565b6001600160a01b03165f908152600560205260409020805460ff19169055565b5f546001600160a01b0316331480610f895750335f9081526005602052604090205460ff165b610fc65760405162461bcd60e51b815260206004820152600e60248201526d139bdd08185d5d1a1bdc9a5e995960921b60448201526064016105b3565b610fce61179a565b60065460ff166110175760405162461bcd60e51b8152602060048201526014602482015273151c99585cdd5c9e481a5cc8191a5cd8589b195960621b60448201526064016105b3565b825f8151116110385760405162461bcd60e51b81526004016105b390611aed565b6032815111156110835760405162461bcd60e51b81526020600482015260166024820152755472656173757279206e616d6520746f6f206c6f6e6760501b60448201526064016105b3565b826001600160a01b0381166110d15760405162461bcd60e51b8152602060048201526014602482015273496e76616c69642075736572206164647265737360601b60448201526064016105b3565b825f81116111215760405162461bcd60e51b815260206004820152601d60248201527f416d6f756e74206d7573742062652067726561746572207468616e203000000060448201526064016105b3565b69021e19e0c9bab240000081111561117b5760405162461bcd60e51b815260206004820152601c60248201527f416d6f756e742065786365656473206d6178696d756d206c696d69740000000060448201526064016105b3565b8560028160405161118c9190611ad2565b9081526040519081900360200190206004015460ff166111be5760405162461bcd60e51b81526004016105b390611b24565b60075485111561121a5760405162461bcd60e51b815260206004820152602160248201527f416d6f756e742065786365656473206d6178696d756d207769746864726177616044820152601b60fa1b60648201526084016105b3565b8460048860405161122b9190611ad2565b90815260408051602092819003830190206001600160a01b038a165f908152925290205410156112945760405162461bcd60e51b8152602060048201526014602482015273496e73756666696369656e742062616c616e636560601b60448201526064016105b3565b5f6002886040516112a59190611ad2565b9081526020016040518091039020905085816002015410156113095760405162461bcd60e51b815260206004820152601e60248201527f496e73756666696369656e7420617661696c61626c652062616c616e6365000060448201526064016105b3565b805460018201544288845f61131e8387611b7b565b9250508190555088846002015f8282546113389190611b7b565b90915550506003840181905560085484545f916064916113589190611b8e565b6113629190611ba5565b905080856001015411156113a6575f8186600101546113819190611b7b565b905081866001018190555080866002015f82825461139f9190611b68565b9091555050505b6001600160a01b038b165f90815260036020526040812080548c92906113cd908490611b7b565b925050819055508960048d6040516113e59190611ad2565b90815260200160405180910390205f8d6001600160a01b03166001600160a01b031681526020019081526020015f205f8282546114229190611b7b565b90915550506040516001600160a01b038c1690611440908e90611ad2565b604080519182900382208d835260208301869052917fcb985c61e2fa2ce83c87409f2eb97e92bb425481019f0b82786d9fbc691953f9910160405180910390a38b60405161148e9190611ad2565b6040805191829003822087548784526020840152908201849052905f80516020611c068339815191529060600160405180910390a284600101548314611528578b6040516114dc9190611ad2565b6040805191829003822060018801548684526020840152908201849052907febc3cf740e6289113022180c2076aa99c978b3322ec42bb5571da7e2929cb30c9060600160405180910390a25b50505050505050505061093c60018055565b6115426117c4565b6001600160a01b03811661156b57604051631e4fbdf760e01b81525f60048201526024016105b3565b611574816117f0565b50565b61157f6117c4565b60028360405161158f9190611ad2565b9081526040519081900360200190206004015460ff166115c15760405162461bcd60e51b81526004016105b390611b24565b816002846040516115d29190611ad2565b90815260200160405180910390206002015410156116325760405162461bcd60e51b815260206004820152601e60248201527f496e73756666696369656e7420617661696c61626c652062616c616e6365000060448201526064016105b3565b816002846040516116439190611ad2565b90815260200160405180910390206002015f8282546116629190611b7b565b925050819055508160028460405161167a9190611ad2565b90815260200160405180910390205f015f8282546116989190611b7b565b92505081905550426002846040516116b09190611ad2565b9081526040519081900360200181206003019190915533907f28985383302cf87a03f1edbd035e6c5030137ddb81953c0b8bcd905581f16a17906116f990859085904290611bc4565b60405180910390a28260405161170f9190611ad2565b60405180910390205f80516020611c06833981519152836002866040516117369190611ad2565b908152604051908190036020019020546117509190611b68565b6002866040516117609190611ad2565b9081526040519081900360200181205461178d929142909283526020830191909152604082015260600190565b60405180910390a2505050565b6002600154036117bd57604051633ee5aeb560e01b815260040160405180910390fd5b6002600155565b5f546001600160a01b03163314610c7a5760405163118cdaa760e01b81523360048201526024016105b3565b5f80546001600160a01b038381166001600160a01b0319831681178455604051919092169283917f8be0079c531659141344cd1fd0a4f28419497f9722a3daafe3b4186f6b6457e09190a35050565b634e487b7160e01b5f52604160045260245ffd5b5f82601f830112611862575f80fd5b813567ffffffffffffffff8082111561187d5761187d61183f565b604051601f8301601f19908116603f011681019082821181831017156118a5576118a561183f565b816040528381528660208588010111156118bd575f80fd5b836020870160208301375f602085830101528094505050505092915050565b80356001600160a01b03811681146118f2575f80fd5b919050565b5f8060408385031215611908575f80fd5b823567ffffffffffffffff81111561191e575f80fd5b61192a85828601611853565b925050611939602084016118dc565b90509250929050565b5f805f60608486031215611954575f80fd5b833567ffffffffffffffff81111561196a575f80fd5b61197686828701611853565b935050611985602085016118dc565b9150604084013590509250925092565b5f602082840312156119a5575f80fd5b5035919050565b5f602082840312156119bc575f80fd5b6119c5826118dc565b9392505050565b5f602082840312156119dc575f80fd5b813567ffffffffffffffff8111156119f2575f80fd5b6119fe84828501611853565b949350505050565b5f8060408385031215611a17575f80fd5b823567ffffffffffffffff811115611a2d575f80fd5b611a3985828601611853565b95602094909401359450505050565b5f805f60608486031215611a5a575f80fd5b833567ffffffffffffffff80821115611a71575f80fd5b611a7d87838801611853565b9450602086013593506040860135915080821115611a99575f80fd5b50611aa686828701611853565b9150509250925092565b5f5b83811015611aca578181015183820152602001611ab2565b50505f910152565b5f8251611ae3818460208701611ab0565b9190910192915050565b6020808252601d908201527f5472656173757279206e616d652063616e6e6f7420626520656d707479000000604082015260600190565b6020808252601690820152755472656173757279206973206e6f742061637469766560501b604082015260600190565b634e487b7160e01b5f52601160045260245ffd5b8082018082111561054e5761054e611b54565b8181038181111561054e5761054e611b54565b808202811582820484141761054e5761054e611b54565b5f82611bbf57634e487b7160e01b5f52601260045260245ffd5b500490565b838152606060208201525f8351806060840152611be8816080850160208801611ab0565b604083019390935250601f91909101601f1916016080019291505056fe677cddaa64b2c9b1512bf77cc3ee402b56f5bfc23c0993112006f818310dfae6a2646970667358221220c53284245f8d3195a15a6c97f86eefe9ac009ded14142d9d7028e70b1bda81f464736f6c63430008160033","linkReferences":{}},"methodIdentifiers":{"addAuthorizedContract(address)":"98eaa4a7","authorizedContracts(address)":"d5b9221b","checkTreasuryBalance(string)":"4dc36e2e","createTreasury(string,uint256)":"c36b32de","depositFunds(string,address,uint256)":"08638fd1","emergencyWithdraw(string,uint256,string)":"ff0965c9","getTreasuryInfo(string)":"2c55c53e","getUserBalance(address)":"47734892","getUserTreasuryBalance(string,address)":"08040987","maxWithdrawalAmount()":"e976d431","minReserveRatio()":"5a596d1c","owner()":"8da5cb5b","removeAuthorizedContract(address)":"e6b165ed","renounceOwnership()":"715018a6","setReserve(string,uint256)":"377d5555","toggleTreasury(string)":"2e19bfda","toggleTreasurySystem()":"2c68594d","transferOwnership(address)":"f2fde38b","treasuries(string)":"b89dad4f","treasuryEnabled()":"38dfd5f5","updateMaxWithdrawalAmount(uint256)":"0a0a4ac5","updateMinReserveRatio(uint256)":"bdb0d27b","userBalances(address)":"26224c64","userTreasuryBalances(string,address)":"aa1dff8c","withdrawFunds(string,address,uint256)":"f077022a"},"storageLayout":{"storage":[{"astId":63803,"contract":"contracts/modules/treasury/TreasuryManager.sol:TreasuryManager","label":"_owner","offset":0,"slot":"0","type":"t_address"},{"astId":65584,"contract":"contracts/modules/treasury/TreasuryManager.sol:TreasuryManager","label":"_status","offset":0,"slot":"1","type":"t_uint256"},{"astId":13301,"contract":"contracts/modules/treasury/TreasuryManager.sol:TreasuryManager","label":"treasuries","offset":0,"slot":"2","type":"t_mapping(t_string_memory_ptr,t_struct(Treasury)13296_storage)"},{"astId":13305,"contract":"contracts/modules/treasury/TreasuryManager.sol:TreasuryManager","label":"userBalances","offset":0,"slot":"3","type":"t_mapping(t_address,t_uint256)"},{"astId":13311,"contract":"contracts/modules/treasury/TreasuryManager.sol:TreasuryManager","label":"userTreasuryBalances","offset":0,"slot":"4","type":"t_mapping(t_string_memory_ptr,t_mapping(t_address,t_uint256))"},{"astId":13315,"contract":"contracts/modules/treasury/TreasuryManager.sol:TreasuryManager","label":"authorizedContracts","offset":0,"slot":"5","type":"t_mapping(t_address,t_bool)"},{"astId":13318,"contract":"contracts/modules/treasury/TreasuryManager.sol:TreasuryManager","label":"treasuryEnabled","offset":0,"slot":"6","type":"t_bool"},{"astId":13321,"contract":"contracts/modules/treasury/TreasuryManager.sol:TreasuryManager","label":"maxWithdrawalAmount","offset":0,"slot":"7","type":"t_uint256"},{"astId":13324,"contract":"contracts/modules/treasury/TreasuryManager.sol:TreasuryManager","label":"minReserveRatio","offset":0,"slot":"8","type":"t_uint256"}],"types":{"t_address":{"encoding":"inplace","label":"address","numberOfBytes":"20"},"t_bool":{"encoding":"inplace","label":"bool","numberOfBytes":"1"},"t_mapping(t_address,t_bool)":{"encoding":"mapping","key":"t_address","label":"mapping(address => bool)","numberOfBytes":"32","value":"t_bool"},"t_mapping(t_address,t_uint256)":{"encoding":"mapping","key":"t_address","label":"mapping(address => uint256)","numberOfBytes":"32","value":"t_uint256"},"t_mapping(t_string_memory_ptr,t_mapping(t_address,t_uint256))":{"encoding":"mapping","key":"t_string_memory_ptr","label":"mapping(string => mapping(address => uint256))","numberOfBytes":"32","value":"t_mapping(t_address,t_uint256)"},"t_mapping(t_string_memory_ptr,t_struct(Treasury)13296_storage)":{"encoding":"mapping","key":"t_string_memory_ptr","label":"mapping(string => struct TreasuryManager.Treasury)","numberOfBytes":"32","value":"t_struct(Treasury)13296_storage"},"t_string_memory_ptr":{"encoding":"bytes","label":"string","numberOfBytes":"32"},"t_struct(Treasury)13296_storage":{"encoding":"inplace","label":"struct TreasuryManager.Treasury","numberOfBytes":"160","members":[{"astId":13287,"contract":"contracts/modules/treasury/TreasuryManager.sol:TreasuryManager","label":"totalBalance","offset":0,"slot":"0","type":"t_uint256"},{"astId":13289,"contract":"contracts/modules/treasury/TreasuryManager.sol:TreasuryManager","label":"reservedBalance","offset":0,"slot":"1","type":"t_uint256"},{"astId":13291,"contract":"contracts/modules/treasury/TreasuryManager.sol:TreasuryManager","label":"availableBalance","offset":0,"slot":"2","type":"t_uint256"},{"astId":13293,"contract":"contracts/modules/treasury/TreasuryManager.sol:TreasuryManager","label":"lastUpdate","offset":0,"slot":"3","type":"t_uint256"},{"astId":13295,"contract":"contracts/modules/treasury/TreasuryManager.sol:TreasuryManager","label":"isActive","offset":0,"slot":"4","type":"t_bool"}]},"t_uint256":{"encoding":"inplace","label":"uint256","numberOfBytes":"32"}}},"id":16}