{"abi":[{"type":"function","name":"gameWinners","inputs":[{"name":"","type":"uint256"}],"outputs":[{"name":"","type":"address"}],"stateMutability":"view"},{"type":"function","name":"getGameWinner","inputs":[{"name":"game","type":"uint256"}],"outputs":[{"name":"","type":"address"}],"stateMutability":"view"},{"type":"function","name":"getTotalWinnings","inputs":[{"name":"player","type":"address"}],"outputs":[{"name":"","type":"uint256"}],"stateMutability":"view"},{"type":"function","name":"getWinnerCount","inputs":[{"name":"player","type":"address"}],"outputs":[{"name":"","type":"uint256"}],"stateMutability":"view"},{"type":"function","name":"newWinner","inputs":[{"name":"winner","type":"address"},{"name":"game","type":"uint256"},{"name":"players","type":"uint256"},{"name":"amount","type":"uint256"},{"name":"gameType","type":"uint8"},{"name":"winnerIndex","type":"uint256"}],"outputs":[],"stateMutability":"nonpayable"},{"type":"function","name":"totalWinnings","inputs":[{"name":"","type":"address"}],"outputs":[{"name":"","type":"uint256"}],"stateMutability":"view"},{"type":"function","name":"winnerCount","inputs":[{"name":"","type":"address"}],"outputs":[{"name":"","type":"uint256"}],"stateMutability":"view"},{"type":"event","name":"Winner","inputs":[{"name":"winner","type":"address","indexed":true},{"name":"game","type":"uint256","indexed":false},{"name":"players","type":"uint256","indexed":false},{"name":"amount","type":"uint256","indexed":false},{"name":"gameType","type":"uint8","indexed":false},{"name":"winnerIndex","type":"uint256","indexed":false},{"name":"timestamp","type":"uint256","indexed":false}],"anonymous":false}],"bytecode":{"object":"0x608060405234801561001057600080fd5b506102f2806100206000396000f3006080604052600436106100665760003560e01c63ffffffff16806306525fa91461006b5780637bdd449c146100a05780637eb4892b146100d45780638b8840e014610107578063b963b29214610128578063cacc0efb14610149578063fac20ab81461016a575b600080fd5b34801561007757600080fd5b5061009e600160a060020a036004351660243560443560643560ff6084351660a435610182565b005b3480156100ac57600080fd5b506100b8600435610236565b60408051600160a060020a039092168252519081900360200190f35b3480156100e057600080fd5b506100f5600160a060020a0360043516610251565b60408051918252519081900360200190f35b34801561011357600080fd5b506100f5600160a060020a0360043516610263565b34801561013457600080fd5b506100f5600160a060020a0360043516610275565b34801561015557600080fd5b506100f5600160a060020a0360043516610290565b34801561017657600080fd5b506100b86004356102ab565b600160a060020a038616600081815260208181526040808320805460019081019091558984528252808320805473ffffffffffffffffffffffffffffffffffffffff1916851790558383526002825291829020805487019055815188815290810187905280820186905260ff85166060820152608081018490524260a082015290517f51effcd7e36ccc5d3b80d9870636d68981a8dd166ce30508ea679452c55716c39181900360c00190a2505050505050565b600160205260009081526040902054600160a060020a031681565b60006020819052908152604090205481565b60026020526000908152604090205481565b600160a060020a031660009081526020819052604090205490565b600160a060020a031660009081526002602052604090205490565b600090815260016020526040902054600160a060020a0316905600a165627a7a7230582086db252e9a1963fcab55bb3a52c13b73f18e26dc09feffe7c7e1e5fb781183770029","linkReferences":{}},"methodIdentifiers":{"gameWinners(uint256)":"7bdd449c","getGameWinner(uint256)":"fac20ab8","getTotalWinnings(address)":"cacc0efb","getWinnerCount(address)":"b963b292","newWinner(address,uint256,uint256,uint256,uint8,uint256)":"06525fa9","totalWinnings(address)":"8b8840e0","winnerCount(address)":"7eb4892b"},"id":5}