{"abi":[{"type":"constructor","inputs":[],"stateMutability":"nonpayable"},{"type":"function","name":"blacklistAddress","inputs":[{"name":"target","type":"address","internalType":"address"}],"outputs":[],"stateMutability":"nonpayable"},{"type":"function","name":"blacklistedAddresses","inputs":[{"name":"","type":"address","internalType":"address"}],"outputs":[{"name":"","type":"bool","internalType":"bool"}],"stateMutability":"view"},{"type":"function","name":"detectSuspiciousActivity","inputs":[{"name":"user","type":"address","internalType":"address"},{"name":"reason","type":"string","internalType":"string"}],"outputs":[],"stateMutability":"nonpayable"},{"type":"function","name":"getUserStats","inputs":[{"name":"user","type":"address","internalType":"address"}],"outputs":[{"name":"isBlacklisted","type":"bool","internalType":"bool"},{"name":"lastInteraction","type":"uint256","internalType":"uint256"},{"name":"userInteractionCount","type":"uint256","internalType":"uint256"},{"name":"canInteract","type":"bool","internalType":"bool"}],"stateMutability":"view"},{"type":"function","name":"initialize","inputs":[{"name":"owner","type":"address","internalType":"address"}],"outputs":[],"stateMutability":"nonpayable"},{"type":"function","name":"interactionCount","inputs":[{"name":"","type":"address","internalType":"address"}],"outputs":[{"name":"","type":"uint256","internalType":"uint256"}],"stateMutability":"view"},{"type":"function","name":"isBlacklisted","inputs":[{"name":"target","type":"address","internalType":"address"}],"outputs":[{"name":"","type":"bool","internalType":"bool"}],"stateMutability":"view"},{"type":"function","name":"lastInteractionTime","inputs":[{"name":"","type":"address","internalType":"address"}],"outputs":[{"name":"","type":"uint256","internalType":"uint256"}],"stateMutability":"view"},{"type":"function","name":"maxInteractionsPerHour","inputs":[],"outputs":[{"name":"","type":"uint256","internalType":"uint256"}],"stateMutability":"view"},{"type":"function","name":"minInteractionInterval","inputs":[],"outputs":[{"name":"","type":"uint256","internalType":"uint256"}],"stateMutability":"view"},{"type":"function","name":"owner","inputs":[],"outputs":[{"name":"","type":"address","internalType":"address"}],"stateMutability":"view"},{"type":"function","name":"recordInteraction","inputs":[{"name":"user","type":"address","internalType":"address"}],"outputs":[{"name":"","type":"bool","internalType":"bool"}],"stateMutability":"nonpayable"},{"type":"function","name":"renounceOwnership","inputs":[],"outputs":[],"stateMutability":"nonpayable"},{"type":"function","name":"transferOwnership","inputs":[{"name":"newOwner","type":"address","internalType":"address"}],"outputs":[],"stateMutability":"nonpayable"},{"type":"function","name":"updateRateLimits","inputs":[{"name":"newMinInterval","type":"uint256","internalType":"uint256"},{"name":"newMaxInteractions","type":"uint256","internalType":"uint256"}],"outputs":[],"stateMutability":"nonpayable"},{"type":"function","name":"whitelistAddress","inputs":[{"name":"target","type":"address","internalType":"address"}],"outputs":[],"stateMutability":"nonpayable"},{"type":"event","name":"AddressBlacklisted","inputs":[{"name":"target","type":"address","indexed":true,"internalType":"address"},{"name":"timestamp","type":"uint256","indexed":false,"internalType":"uint256"}],"anonymous":false},{"type":"event","name":"AddressWhitelisted","inputs":[{"name":"target","type":"address","indexed":true,"internalType":"address"},{"name":"timestamp","type":"uint256","indexed":false,"internalType":"uint256"}],"anonymous":false},{"type":"event","name":"Initialized","inputs":[{"name":"version","type":"uint64","indexed":false,"internalType":"uint64"}],"anonymous":false},{"type":"event","name":"OwnershipTransferred","inputs":[{"name":"previousOwner","type":"address","indexed":true,"internalType":"address"},{"name":"newOwner","type":"address","indexed":true,"internalType":"address"}],"anonymous":false},{"type":"event","name":"RateLimitUpdated","inputs":[{"name":"oldMinInterval","type":"uint256","indexed":false,"internalType":"uint256"},{"name":"newMinInterval","type":"uint256","indexed":false,"internalType":"uint256"},{"name":"oldMaxInteractions","type":"uint256","indexed":false,"internalType":"uint256"},{"name":"newMaxInteractions","type":"uint256","indexed":false,"internalType":"uint256"}],"anonymous":false},{"type":"event","name":"SuspiciousActivityDetected","inputs":[{"name":"account","type":"address","indexed":true,"internalType":"address"},{"name":"reason","type":"string","indexed":false,"internalType":"string"},{"name":"timestamp","type":"uint256","indexed":false,"internalType":"uint256"}],"anonymous":false},{"type":"error","name":"InvalidInitialization","inputs":[]},{"type":"error","name":"NotInitializing","inputs":[]},{"type":"error","name":"OwnableInvalidOwner","inputs":[{"name":"owner","type":"address","internalType":"address"}]},{"type":"error","name":"OwnableUnauthorizedAccount","inputs":[{"name":"account","type":"address","internalType":"address"}]}],"bytecode":{"object":"0x608080604052346100c257600160035560646004557ff0c57e16840df040f15088dc2f81fe391c3923bec73e23a9662efc9c229c6a009081549060ff8260401c166100b357506001600160401b036002600160401b03198282160161006e575b604051610b4690816100c78239f35b6001600160401b031990911681179091556040519081527fc7f505b2f371ae2175ee4913f4499e1f2633a7b5936321eed1cdaeb6115181d290602090a15f808061005f565b63f92ee8a960e01b8152600490fd5b5f80fdfe6080604090808252600480361015610015575f80fd5b5f3560e01c9182631044af1514610832575081631d27db84146107065781631d423b63146106ea578163415665851461062d5781634e43603a1461057d5781636b89552c1461055f578163715018a6146104f857816378946ae7146104c15781638da5cb5b1461048d5781638f0591d314610375578163c4d66de814610249578163d5749d4214610224578163f2fde38b146101f9578163f3290d751461014557508063f36d5fb41461010e5763fe575a87146100d0575f80fd5b3461010a57602036600319011261010a576020906001600160a01b036100f46109cf565b165f525f825260ff815f20541690519015158152f35b5f80fd5b503461010a57602036600319011261010a576020906001600160a01b036101336109cf565b165f5260028252805f20549051908152f35b823461010a57602036600319011261010a5761015f6109cf565b610167610a77565b6001600160a01b03169182156101b7575060207f1d2c7e6b911a4ad6c07d780ccd7e533749bff42c2b1d161c21f3fc7c830eb2cc91835f525f8252805f20600160ff1982541617905551428152a2005b6020606492519162461bcd60e51b8352820152601d60248201527f43616e6e6f7420626c61636b6c697374207a65726f20616464726573730000006044820152fd5b3461010a57602036600319011261010a576102226102156109cf565b61021d610a77565b610a06565b005b823461010a57602036600319011261010a576020906001600160a01b036100f46109cf565b90503461010a57602036600319011261010a576102646109cf565b907ff0c57e16840df040f15088dc2f81fe391c3923bec73e23a9662efc9c229c6a0091825460ff81861c16159267ffffffffffffffff82168015908161036d575b6001149081610363575b15908161035a575b5061034c575067ffffffffffffffff19811660011784556102ea91908361032d575b506102e2610aaf565b61021d610aaf565b6102f057005b805468ff00000000000000001916905551600181527fc7f505b2f371ae2175ee4913f4499e1f2633a7b5936321eed1cdaeb6115181d290602090a1005b68ffffffffffffffffff1916680100000000000000011784555f6102d9565b855163f92ee8a960e01b8152fd5b9050155f6102b7565b303b1591506102af565b8591506102a5565b90503461010a578160031936011261010a5780359060243590610396610a77565b821561043e5781156103eb5790608092917fec48fc0f3bc64460835f83ce9c7600af2cd997a7ce7350429a8304cf6116cf289460035493838354938260035555815194855260208501528301526060820152a1005b608490602085519162461bcd60e51b8352820152602760248201527f4d617820696e746572616374696f6e73206d75737420626520677265617465726044820152660207468616e20360cc1b6064820152fd5b608490602085519162461bcd60e51b8352820152602360248201527f4d696e20696e74657276616c206d75737420626520677265617465722074686160448201526206e20360ec1b6064820152fd5b823461010a575f36600319011261010a575f80516020610af18339815191525490516001600160a01b039091168152602090f35b823461010a57602036600319011261010a576020906001600160a01b036104e66109cf565b165f5260018252805f20549051908152f35b3461010a575f36600319011261010a57610510610a77565b5f80516020610af183398151915280546001600160a01b031981169091555f906001600160a01b03167f8be0079c531659141344cd1fd0a4f28419497f9722a3daafe3b4186f6b6457e08280a3005b823461010a575f36600319011261010a576020906003549051908152f35b823461010a576020908160031936011261010a576080926001600160a01b036105a46109cf565b1691825f525f845260ff815f2054169360018152815f20549060028152825f2054935f825260ff845f20541615958661060e575b866105f6575b50508251951515865285015283015215156060820152f35b5f9081526002835284902054905411945087806105de565b955060018252610624845f2054600354906109e5565b421015956105d8565b823461010a57602036600319011261010a576106476109cf565b61064f610a77565b60018060a01b031691825f525f60205260ff825f205416156106a8575060207fa11cc21b0ad957c5712c33442823fc681b65eff6b567cd247273afd1fe2e647891835f525f8252805f2060ff19815416905551428152a2005b6020606492519162461bcd60e51b8352820152601760248201527f41646472657373206e6f7420626c61636b6c69737465640000000000000000006044820152fd5b823461010a575f36600319011261010a57602091549051908152f35b823461010a578060031936011261010a5761071f6109cf565b6024359067ffffffffffffffff9081831161010a573660238401121561010a578285013582811161081f57845195601f1993601f83018516603f0185168801919082118883101761080c57508552808652602093366024838301011161010a57815f92602460209301838a013787010152610798610a77565b835192848452855180958501525f5b8581106107f857857f10be6d28e3be81f22dca98ef8b8af634156562a64c81fe9050c73a2a0d7f64918660608188601f895f85898601015242602085015260018060a01b03169601168101030190a2005b8681018201518582016060015281016107a7565b604190634e487b7160e01b5f525260245ffd5b604186634e487b7160e01b5f525260245ffd5b83903461010a576020928360031936011261010a576001600160a01b036108576109cf565b1691825f525f855260ff845f2054166109975750815f5260018452825f2054610882600354826109e5565b421061095457420342811161094157610e10116108ba5750805f52600283526001825f20555b5f526001825242815f20555160018152f35b815f5260028452825f2080545f19811461092e576001019055815f5260028452825f20548154106108eb57506108a8565b825162461bcd60e51b8152908101849052601e60248201527f546f6f206d616e7920696e746572616374696f6e732070657220686f757200006044820152606490fd5b601183634e487b7160e01b5f525260245ffd5b601182634e487b7160e01b5f525260245ffd5b835162461bcd60e51b8152808301869052601860248201527f496e746572616374696f6e20746f6f206672657175656e7400000000000000006044820152606490fd5b8460649262461bcd60e51b835282015260166024820152751059191c995cdcc81a5cc8189b1858dadb1a5cdd195960521b6044820152fd5b600435906001600160a01b038216820361010a57565b919082018092116109f257565b634e487b7160e01b5f52601160045260245ffd5b6001600160a01b03908116908115610a5f575f80516020610af183398151915280546001600160a01b031981168417909155167f8be0079c531659141344cd1fd0a4f28419497f9722a3daafe3b4186f6b6457e05f80a3565b604051631e4fbdf760e01b81525f6004820152602490fd5b5f80516020610af1833981519152546001600160a01b03163303610a9757565b60405163118cdaa760e01b8152336004820152602490fd5b60ff7ff0c57e16840df040f15088dc2f81fe391c3923bec73e23a9662efc9c229c6a005460401c1615610ade57565b604051631afcd79f60e31b8152600490fdfe9016d09d72d40fdae2fd8ceac6b6234c7706214fd39c1cd1e609a0528c199300a2646970667358221220af3759e3dd6934b575d772e6c6040216114cf8a2179d611c0a2e9b617ec36f5f64736f6c63430008160033","linkReferences":{}},"methodIdentifiers":{"blacklistAddress(address)":"f3290d75","blacklistedAddresses(address)":"d5749d42","detectSuspiciousActivity(address,string)":"1d27db84","getUserStats(address)":"4e43603a","initialize(address)":"c4d66de8","interactionCount(address)":"f36d5fb4","isBlacklisted(address)":"fe575a87","lastInteractionTime(address)":"78946ae7","maxInteractionsPerHour()":"1d423b63","minInteractionInterval()":"6b89552c","owner()":"8da5cb5b","recordInteraction(address)":"1044af15","renounceOwnership()":"715018a6","transferOwnership(address)":"f2fde38b","updateRateLimits(uint256,uint256)":"8f0591d3","whitelistAddress(address)":"41566585"},"id":54}