{"abi":[{"type":"constructor","inputs":[],"stateMutability":"nonpayable"},{"type":"fallback","stateMutability":"payable"},{"type":"receive","stateMutability":"payable"},{"type":"function","name":"UPGRADE_INTERFACE_VERSION","inputs":[],"outputs":[{"name":"","type":"string","internalType":"string"}],"stateMutability":"view"},{"type":"function","name":"autoEndGame","inputs":[],"outputs":[],"stateMutability":"nonpayable"},{"type":"function","name":"buyTicket","inputs":[{"name":"partner","type":"address","internalType":"address"},{"name":"ticketCount","type":"uint256","internalType":"uint256"}],"outputs":[],"stateMutability":"payable"},{"type":"function","name":"changeGameDuration","inputs":[{"name":"duration","type":"uint256","internalType":"uint256"}],"outputs":[],"stateMutability":"nonpayable"},{"type":"function","name":"changeMaxTicketsPerPlayer","inputs":[{"name":"maxTickets","type":"uint256","internalType":"uint256"}],"outputs":[],"stateMutability":"nonpayable"},{"type":"function","name":"changeTicketPrice","inputs":[{"name":"price","type":"uint256","internalType":"uint256"}],"outputs":[],"stateMutability":"nonpayable"},{"type":"function","name":"checkAndEndGame","inputs":[],"outputs":[],"stateMutability":"nonpayable"},{"type":"function","name":"emergencyPause","inputs":[{"name":"reason","type":"string","internalType":"string"}],"outputs":[],"stateMutability":"nonpayable"},{"type":"function","name":"emergencyResume","inputs":[],"outputs":[],"stateMutability":"nonpayable"},{"type":"function","name":"getContractBalance","inputs":[],"outputs":[{"name":"","type":"uint256","internalType":"uint256"}],"stateMutability":"view"},{"type":"function","name":"getCurrentGameInfo","inputs":[],"outputs":[{"name":"","type":"tuple","internalType":"struct StorageLayout.Game","components":[{"name":"gameNumber","type":"uint256","internalType":"uint256"},{"name":"startTime","type":"uint256","internalType":"uint256"},{"name":"endTime","type":"uint256","internalType":"uint256"},{"name":"jackpot","type":"uint256","internalType":"uint256"},{"name":"playerCount","type":"uint256","internalType":"uint256"},{"name":"players","type":"address[]","internalType":"address[]"},{"name":"state","type":"uint8","internalType":"enum StorageLayout.GameState"}]}],"stateMutability":"view"},{"type":"function","name":"getGameConfig","inputs":[],"outputs":[{"name":"ticketPrice","type":"uint256","internalType":"uint256"},{"name":"gameDuration","type":"uint256","internalType":"uint256"},{"name":"maxTicketsPerPlayer","type":"uint256","internalType":"uint256"},{"name":"isActive","type":"bool","internalType":"bool"}],"stateMutability":"view"},{"type":"function","name":"getGameInfo","inputs":[],"outputs":[{"name":"currentGameNumber","type":"uint256","internalType":"uint256"},{"name":"startTime","type":"uint256","internalType":"uint256"},{"name":"duration","type":"uint256","internalType":"uint256"},{"name":"remainingTime","type":"uint256","internalType":"uint256"},{"name":"timeExpired","type":"bool","internalType":"bool"},{"name":"playerCount","type":"uint256","internalType":"uint256"},{"name":"currentJackpot","type":"uint256","internalType":"uint256"}],"stateMutability":"view"},{"type":"function","name":"getPlayerInfo","inputs":[{"name":"player","type":"address","internalType":"address"}],"outputs":[{"name":"ticketsInCurrentGame","type":"uint256","internalType":"uint256"},{"name":"isInCurrentGame","type":"bool","internalType":"bool"}],"stateMutability":"view"},{"type":"function","name":"getRemainingGameTime","inputs":[],"outputs":[{"name":"","type":"uint256","internalType":"uint256"}],"stateMutability":"view"},{"type":"function","name":"initialize","inputs":[{"name":"owner","type":"address","internalType":"address"},{"name":"ownableContract","type":"address","internalType":"address"},{"name":"distributor","type":"address","internalType":"address"},{"name":"statsA","type":"address","internalType":"address"},{"name":"referralSystem","type":"address","internalType":"address"},{"name":"_treasuryManager","type":"address","internalType":"address"},{"name":"_registry","type":"address","internalType":"address"}],"outputs":[],"stateMutability":"nonpayable"},{"type":"function","name":"isGameTimeExpired","inputs":[],"outputs":[{"name":"","type":"bool","internalType":"bool"}],"stateMutability":"view"},{"type":"function","name":"ownable","inputs":[],"outputs":[{"name":"","type":"address","internalType":"contract IOwnable"}],"stateMutability":"view"},{"type":"function","name":"owner","inputs":[],"outputs":[{"name":"","type":"address","internalType":"address"}],"stateMutability":"view"},{"type":"function","name":"proxiableUUID","inputs":[],"outputs":[{"name":"","type":"bytes32","internalType":"bytes32"}],"stateMutability":"view"},{"type":"function","name":"randomNumber","inputs":[{"name":"min","type":"uint256","internalType":"uint256"},{"name":"max","type":"uint256","internalType":"uint256"},{"name":"time","type":"uint256","internalType":"uint256"},{"name":"difficulty","type":"uint256","internalType":"uint256"},{"name":"number","type":"uint256","internalType":"uint256"},{"name":"bHash","type":"bytes32","internalType":"bytes32"}],"outputs":[{"name":"","type":"uint256","internalType":"uint256"}],"stateMutability":"pure"},{"type":"function","name":"registry","inputs":[],"outputs":[{"name":"","type":"address","internalType":"contract ContractRegistry"}],"stateMutability":"view"},{"type":"function","name":"renounceOwnership","inputs":[],"outputs":[],"stateMutability":"nonpayable"},{"type":"function","name":"transferOwnership","inputs":[{"name":"newOwner","type":"address","internalType":"address"}],"outputs":[],"stateMutability":"nonpayable"},{"type":"function","name":"treasuryName","inputs":[],"outputs":[{"name":"","type":"string","internalType":"string"}],"stateMutability":"view"},{"type":"function","name":"upgradeToAndCall","inputs":[{"name":"newImplementation","type":"address","internalType":"address"},{"name":"data","type":"bytes","internalType":"bytes"}],"outputs":[],"stateMutability":"payable"},{"type":"event","name":"ContractNotFound","inputs":[{"name":"contractName","type":"string","indexed":false,"internalType":"string"},{"name":"timestamp","type":"uint256","indexed":false,"internalType":"uint256"}],"anonymous":false},{"type":"event","name":"DistributorError","inputs":[{"name":"operation","type":"string","indexed":false,"internalType":"string"},{"name":"reason","type":"string","indexed":false,"internalType":"string"},{"name":"timestamp","type":"uint256","indexed":false,"internalType":"uint256"}],"anonymous":false},{"type":"event","name":"EmergencyPaused","inputs":[{"name":"by","type":"address","indexed":true,"internalType":"address"},{"name":"reason","type":"string","indexed":false,"internalType":"string"},{"name":"timestamp","type":"uint256","indexed":false,"internalType":"uint256"}],"anonymous":false},{"type":"event","name":"EmergencyResumed","inputs":[{"name":"by","type":"address","indexed":true,"internalType":"address"},{"name":"timestamp","type":"uint256","indexed":false,"internalType":"uint256"}],"anonymous":false},{"type":"event","name":"GameDurationUpdated","inputs":[{"name":"oldValue","type":"uint256","indexed":false,"internalType":"uint256"},{"name":"newValue","type":"uint256","indexed":false,"internalType":"uint256"},{"name":"timestamp","type":"uint256","indexed":false,"internalType":"uint256"}],"anonymous":false},{"type":"event","name":"GameEnded","inputs":[{"name":"gameNumber","type":"uint256","indexed":true,"internalType":"uint256"},{"name":"totalPlayers","type":"uint256","indexed":false,"internalType":"uint256"},{"name":"totalJackpot","type":"uint256","indexed":false,"internalType":"uint256"},{"name":"timestamp","type":"uint256","indexed":false,"internalType":"uint256"}],"anonymous":false},{"type":"event","name":"GameStateChanged","inputs":[{"name":"gameNumber","type":"uint256","indexed":false,"internalType":"uint256"},{"name":"state","type":"uint8","indexed":false,"internalType":"enum StorageLayout.GameState"},{"name":"timestamp","type":"uint256","indexed":false,"internalType":"uint256"}],"anonymous":false},{"type":"event","name":"Initialized","inputs":[{"name":"version","type":"uint64","indexed":false,"internalType":"uint64"}],"anonymous":false},{"type":"event","name":"JackpotDistributed","inputs":[{"name":"winner","type":"address","indexed":true,"internalType":"address"},{"name":"amount","type":"uint256","indexed":false,"internalType":"uint256"},{"name":"gameNumber","type":"uint256","indexed":true,"internalType":"uint256"},{"name":"timestamp","type":"uint256","indexed":false,"internalType":"uint256"}],"anonymous":false},{"type":"event","name":"MaxTicketsPerPlayerUpdated","inputs":[{"name":"oldValue","type":"uint256","indexed":false,"internalType":"uint256"},{"name":"newValue","type":"uint256","indexed":false,"internalType":"uint256"},{"name":"timestamp","type":"uint256","indexed":false,"internalType":"uint256"}],"anonymous":false},{"type":"event","name":"OwnershipTransferred","inputs":[{"name":"previousOwner","type":"address","indexed":true,"internalType":"address"},{"name":"newOwner","type":"address","indexed":true,"internalType":"address"}],"anonymous":false},{"type":"event","name":"ReferralError","inputs":[{"name":"operation","type":"string","indexed":false,"internalType":"string"},{"name":"reason","type":"string","indexed":false,"internalType":"string"},{"name":"timestamp","type":"uint256","indexed":false,"internalType":"uint256"}],"anonymous":false},{"type":"event","name":"RegistryError","inputs":[{"name":"operation","type":"string","indexed":false,"internalType":"string"},{"name":"contractName","type":"string","indexed":false,"internalType":"string"},{"name":"timestamp","type":"uint256","indexed":false,"internalType":"uint256"}],"anonymous":false},{"type":"event","name":"StatsError","inputs":[{"name":"operation","type":"string","indexed":false,"internalType":"string"},{"name":"reason","type":"string","indexed":false,"internalType":"string"},{"name":"timestamp","type":"uint256","indexed":false,"internalType":"uint256"}],"anonymous":false},{"type":"event","name":"TicketPriceChanged","inputs":[{"name":"oldPrice","type":"uint256","indexed":false,"internalType":"uint256"},{"name":"newPrice","type":"uint256","indexed":false,"internalType":"uint256"},{"name":"timestamp","type":"uint256","indexed":false,"internalType":"uint256"}],"anonymous":false},{"type":"event","name":"TicketPurchased","inputs":[{"name":"player","type":"address","indexed":true,"internalType":"address"},{"name":"gameNumber","type":"uint256","indexed":true,"internalType":"uint256"},{"name":"ticketCount","type":"uint256","indexed":false,"internalType":"uint256"},{"name":"totalAmount","type":"uint256","indexed":false,"internalType":"uint256"}],"anonymous":false},{"type":"event","name":"TreasuryFundsDeposited","inputs":[{"name":"amount","type":"uint256","indexed":false,"internalType":"uint256"},{"name":"timestamp","type":"uint256","indexed":false,"internalType":"uint256"}],"anonymous":false},{"type":"event","name":"TreasuryFundsWithdrawn","inputs":[{"name":"winner","type":"address","indexed":false,"internalType":"address"},{"name":"amount","type":"uint256","indexed":false,"internalType":"uint256"},{"name":"timestamp","type":"uint256","indexed":false,"internalType":"uint256"}],"anonymous":false},{"type":"event","name":"TreasuryOperationFailed","inputs":[{"name":"operation","type":"string","indexed":false,"internalType":"string"},{"name":"timestamp","type":"uint256","indexed":false,"internalType":"uint256"}],"anonymous":false},{"type":"event","name":"TreasuryTransferFailed","inputs":[{"name":"from","type":"address","indexed":false,"internalType":"address"},{"name":"amount","type":"uint256","indexed":false,"internalType":"uint256"},{"name":"reason","type":"string","indexed":false,"internalType":"string"},{"name":"timestamp","type":"uint256","indexed":false,"internalType":"uint256"}],"anonymous":false},{"type":"event","name":"Upgraded","inputs":[{"name":"implementation","type":"address","indexed":true,"internalType":"address"}],"anonymous":false},{"type":"event","name":"WinnerSelected","inputs":[{"name":"winner","type":"address","indexed":true,"internalType":"address"},{"name":"gameNumber","type":"uint256","indexed":true,"internalType":"uint256"},{"name":"jackpot","type":"uint256","indexed":false,"internalType":"uint256"},{"name":"playerCount","type":"uint256","indexed":false,"internalType":"uint256"},{"name":"timestamp","type":"uint256","indexed":false,"internalType":"uint256"}],"anonymous":false},{"type":"error","name":"AddressEmptyCode","inputs":[{"name":"target","type":"address","internalType":"address"}]},{"type":"error","name":"ERC1967InvalidImplementation","inputs":[{"name":"implementation","type":"address","internalType":"address"}]},{"type":"error","name":"ERC1967NonPayable","inputs":[]},{"type":"error","name":"FailedCall","inputs":[]},{"type":"error","name":"InvalidInitialization","inputs":[]},{"type":"error","name":"NotInitializing","inputs":[]},{"type":"error","name":"OwnableInvalidOwner","inputs":[{"name":"owner","type":"address","internalType":"address"}]},{"type":"error","name":"OwnableUnauthorizedAccount","inputs":[{"name":"account","type":"address","internalType":"address"}]},{"type":"error","name":"ReentrancyGuardReentrantCall","inputs":[]},{"type":"error","name":"UUPSUnauthorizedCallContext","inputs":[]},{"type":"error","name":"UUPSUnsupportedProxiableUUID","inputs":[{"name":"slot","type":"bytes32","internalType":"bytes32"}]}],"bytecode":{"object":"0x60a08060405234620000d157306080527ff0c57e16840df040f15088dc2f81fe391c3923bec73e23a9662efc9c229c6a009081549060ff8260401c16620000c257506001600160401b036002600160401b0319828216016200007c575b6040516137419081620000d68239608051818181610e0e0152610ec10152f35b6001600160401b031990911681179091556040519081527fc7f505b2f371ae2175ee4913f4499e1f2633a7b5936321eed1cdaeb6115181d290602090a15f80806200005c565b63f92ee8a960e01b8152600490fd5b5f80fdfe6040608081526004908136101561002b575b5050361561002357610021611bd7565b005b610021611bd7565b5f3560e01c9182630dac14371461164a5782631746bd1b146115b657826322f1917214611549578263358764761461120d5782633deeac70146111685782634630a0ee146110c35782634f1ef28614610e7257826352d1902d14610dfb57826353b7acdf14610d185782635932840114610c655782636244480114610c4957826365dbb77e14610b8457826366a5ef2f146107705782636f9fb98a14610756578263715018a6146106ef5782637b103999146106c85782638897c1f4146105c95782638b235f19146105195782638da5cb5b146104e557826393c87f031461041d578263a645e8401461035a578263ad3cb1cc146102ee578263b38854be146102c6578263bf77e7c8146102a1578263cf5b4fd51461018457505063f2fde38b14610157575f80610011565b34610180576020366003190112610180576100216101736116dc565b61017b612b06565b611b66565b5f80fd5b3461018057602036600319011261018057803567ffffffffffffffff81116101805736602382011215610180576101c49036906024818501359101611790565b6101cc612b06565b600254835163babcc53960e01b81523393810193909352602090839060249082906001600160a01b03165afa90811561029757610235610259927fcc1b3dd39eb52913e9d184dde2ed4916801bdc2f5d6a119f2a946416893481d1945f91610268575b50611875565b5f8051602061364c833981519152805460ff191690558351848152938401906117fe565b914260208201528033930390a2005b61028a915060203d602011610290575b6102828183611752565b81019061185d565b8661022f565b503d610278565b83513d5f823e3d90fd5b5034610180575f366003190112610180576020906102bd611b36565b90519015158152f35b5034610180575f3660031901126101805760025490516001600160a01b039091168152602090f35b9034610180575f3660031901126101805780519080820182811067ffffffffffffffff821117610347576103439350815260058252640352e302e360dc1b6020830152519182916020835260208301906117fe565b0390f35b604184634e487b7160e01b5f525260245ffd5b9034610180575f36600319011261018057610373611965565b9080519160208084526101008401928251828601528183015181860152820151606085015260608201516080850152608082015160a085015260a08201519260e060c086015283518091528161012086019401915f5b828110610400575050505060c0015160038110156103ed5782935060e08301520390f35b602184634e487b7160e01b5f525260245ffd5b83516001600160a01b0316865294810194928101926001016103c9565b34610180575f36600319011261018057610435612b06565b600254825163babcc53960e01b81523392810192909252602090829060249082906001600160a01b03165afa80156104db57610477915f916104bc5750611875565b5f8051602061364c833981519152600160ff19825416179055514281527fe0dc8967738d1ca725802874d41e2ab2405df0e2eb3c61069d26d2782660d59460203392a2005b6104d5915060203d602011610290576102828183611752565b8361022f565b82513d5f823e3d90fd5b5034610180575f366003190112610180575f805160206135cc8339815191525490516001600160a01b039091168152602090f35b9034610180575f366003190112610180575f805160206136ac8339815191525480156105c2575f1981019081116105af575b5f525f8051602061360c8339815191526020525f209060ff60068301541690600382101561059c5750600114908161058d575b5061058557005b610021611f02565b6002915001544210158161057e565b602190634e487b7160e01b5f525260245ffd5b601183634e487b7160e01b5f525260245ffd5b505f61054b565b90346101805760c036600319011261018057813591602435838110610674576106258484516020810190604435825260643587820152608435606082015260a43560808201526080815261061c81611736565b5190209261183c565b916001830180931161066157821561064e575092610647916020940690611958565b9051908152f35b601290634e487b7160e01b5f525260245ffd5b601190634e487b7160e01b5f525260245ffd5b506020608492519162461bcd60e51b8352820152602860248201527f4d6178206d7573742062652067726561746572207468616e206f72206571756160448201526736103a379036b4b760c11b6064820152fd5b5034610180575f366003190112610180575f5490516001600160a01b039091168152602090f35b34610180575f36600319011261018057610707612b06565b5f805160206135cc83398151915280546001600160a01b031981169091555f906001600160a01b03167f8be0079c531659141344cd1fd0a4f28419497f9722a3daafe3b4186f6b6457e08280a3005b5034610180575f3660031901126101805751478152602090f35b81600319360112610180576107836116dc565b916024908135917f9b779b17422d0df92223018b32b4d1fa46e071723d6817e2486d003becc55f00936002855414610b76576002855560ff5f8051602061364c833981519152541615610b40578315610af3575f805160206135ac8339815191525484810290808204861490151715610ae1573403610aa8575f805160206136ac83398151915280549096908015610aa1575f198101908111610a8f575b5f525f8051602061360c83398151915291602093838552855f209360ff6006860154166003811015610a455715610a57575b60ff6006860154169960038b1015610a45576001809b1480610a37575b610a0a575b60ff60068701541660038110156109f8578b036109c4575480156109bd575f1981019081116109ab575b5f528552855f206108af336118db565b6108ba898254611958565b9055600381016108cb348254611958565b90556108da3360058301612d25565b610951575b5050506108eb34612361565b865f5b86811061093f575090505f5b85811061090657508555005b8254855182815242868201527f96541f70da731142b18e96f1def4d2a7733deb7d784723106d52c1d906d4c67a873392a30186906108fa565b61094933846129b8565b0187906108ee565b82907f54a93883e668f845121f9ed2904459121a66c9b3035aae515f9eb649cbd75b2561097e8154612024565b905501908154928a840180941161099a575050558780806108df565b601190634e487b7160e01b5f52525ffd5b82601185634e487b7160e01b5f52525ffd5b505f61089f565b875162461bcd60e51b8152808501889052600f818501526e47616d65206e6f742061637469766560881b6044820152606490fd5b83602186634e487b7160e01b5f52525ffd5b9450610a14611f02565b610a1c612032565b84545f1981019081116109ab575f52808652865f2094610875565b506002860154421015610870565b82602185634e487b7160e01b5f52525ffd5b9350610a61612032565b88545f198101908111610a7c575f52838552855f2093610853565b50634e487b7160e01b5f90815260118352fd5b83601184634e487b7160e01b5f52525ffd5b505f610821565b6015606492602085519362461bcd60e51b855284015282015274125b98dbdc9c9958dd08185b5bdd5b9d081cd95b9d605a1b6044820152fd5b50601190634e487b7160e01b5f52525ffd5b6023608492602085519362461bcd60e51b85528401528201527f5469636b657420636f756e74206d75737420626520677265617465722074686160448201526206e20360ec1b6064820152fd5b6012606492602085519362461bcd60e51b85528401528201527147616d65206973206e6f742061637469766560701b6044820152fd5b8251633ee5aeb560e01b8152fd5b903461018057602036600319011261018057600254815163babcc53960e01b81523381850152923590602090849060249082906001600160a01b03165afa9283156104db577fa1ee125423b04152b9dd94722cb954282038d2a7eedd7d25614dde62761f9bfd93610bfb915f91610c2a5750611875565b5f8051602061368c8339815191528054908290559151918252602082015242604082015280606081015b0390a1005b610c43915060203d602011610290576102828183611752565b8561022f565b5034610180575f36600319011261018057602090610647611913565b503461018057602036600319011261018057610c7f6116dc565b5f805160206136ac833981519152545f9081525f8051602061360c8339815191526020528281206005018054919291906001600160a01b0380841691855b848110610ce0575b8787610cd0886118db565b5490825191825215156020820152f35b8383610cec83856118b2565b90549060031b1c1614610d0157600101610cbd565b50505050509050610cd06001919084808080610cc5565b5034610180575f366003190112610180578051905f908260019260015493610d3f856117c6565b90818452602095866001821691825f14610dd9575050600114610d7e575b50506103439291610d6f910385611752565b519282849384528301906117fe565b9085925060015f527fb10e2d527612073b26eecdfd717e6a320cf44b4afac2b0732d9fcbe2b7fa0cf6915f925b828410610dc15750505082010181610d6f610d5d565b8054848a018601528895508794909301928101610dab565b60ff19168682015292151560051b85019092019250839150610d6f9050610d5d565b9034610180575f366003190112610180577f00000000000000000000000000000000000000000000000000000000000000006001600160a01b03163003610e6557602090517f360894a13ba1a3210667c828492db98dca3e2076cc3735a920a3ca505d382bbc8152f35b5163703e46dd60e11b8152fd5b8160031936011261018057610e856116dc565b9160243567ffffffffffffffff8111610180573660238201121561018057610eb69036906024818601359101611790565b906001600160a01b037f00000000000000000000000000000000000000000000000000000000000000008116308114908115611095575b5061108557610efa612b06565b8416918151946352d1902d60e01b865260209081878781885afa5f9781611056575b50610f38578351634c9c8ce360e01b8152808701869052602490fd5b919490937f360894a13ba1a3210667c828492db98dca3e2076cc3735a920a3ca505d382bbc877fc9f76b5ec45e5cdef99837d7b6d2467235c1df8933c8ca56df5c35afa2c7d44481016110405750833b156110295780546001600160a01b031916821790558351907fbc7cd75a20ee27fd9adebab32041f755214dbc6bffa90cc0225b39da2e5c2d3b5f80a28551156110105750505f80858561002197519101845af4913d15611006573d610ff8610fef82611774565b92519283611752565b81525f81943d92013e613548565b5060609250613548565b9350935050503461101d57005b63b398979f60e01b8152fd5b8451634c9c8ce360e01b8152808401839052602490fd5b83602491875191632a87526960e21b8352820152fd5b9097508281813d831161107e575b61106e8183611752565b8101031261018057519688610f1c565b503d611064565b815163703e46dd60e11b81528490fd5b9050817f360894a13ba1a3210667c828492db98dca3e2076cc3735a920a3ca505d382bbc5416141586610eed565b903461018057602036600319011261018057600254815163babcc53960e01b81523381850152923590602090849060249082906001600160a01b03165afa9283156104db577fdcefbf936a5a84ea694d7c34335e03240bee5f52df414c3b11bc2d6cfd9f32459361113a915f91610c2a5750611875565b5f805160206135ac833981519152805490829055915191825260208201524260408201528060608101610c25565b903461018057602036600319011261018057600254815163babcc53960e01b81523381850152923590602090849060249082906001600160a01b03165afa9283156104db577f3d7512e44b1904130b04bae66810a9802a47b92035f7277362af508d6463cd28936111df915f91610c2a5750611875565b5f805160206136cc833981519152805490829055915191825260208201524260408201528060608101610c25565b346101805760e0366003190112610180576112266116dc565b6001600160a01b039190602435838116908190036101805760443584811603610180576064358481160361018057608435848116036101805760a435848116036101805760c435938416809403610180577ff0c57e16840df040f15088dc2f81fe391c3923bec73e23a9662efc9c229c6a009384549360ff85881c16159367ffffffffffffffff861695861580611542575b60018098149081611538575b15908161152f575b5061151f5767ffffffffffffffff19811687178855662386f26fc10000929161130e9187611500575b506112fe612ce4565b611306612ce4565b61017b612ce4565b611316612ce4565b61131e612ce4565b611326612ce4565b857f9b779b17422d0df92223018b32b4d1fa46e071723d6817e2486d003becc55f00556bffffffffffffffffffffffff60a01b92835f5416175f555f805160206135ac83398151915290815415611480575b5055620151805f8051602061368c8339815191525560645f805160206136cc833981519152555f8051602061364c8339815191528460ff1982541617905560025416176002556113c882546117c6565b601f8111611437575b507f43727970746f6c6f74746f31446179000000000000000000000000000000001e82556113fb57005b7fc7f505b2f371ae2175ee4913f4499e1f2633a7b5936321eed1cdaeb6115181d29260209268ff000000000000000019815416905551908152a1005b825f5282601f7fb10e2d527612073b26eecdfd717e6a320cf44b4afac2b0732d9fcbe2b7fa0cf6920160051c8201915b8281106114755750506113d1565b5f8155018390611467565b828255620151805f8051602061368c8339815191525560645f805160206136cc83398151915255600660ff19915f8051602061364c83398151915289848254161790555f80525f8051602061360c8339815191526020525f8b812091818355818b8401558160028401558160038401558201550190815416905588611378565b68ffffffffffffffffff1916680100000000000000011789558a6112f5565b885163f92ee8a960e01b81528390fd5b9050158a6112cc565b303b1591506112c4565b50856112b8565b5034610180575f366003190112610180576080905f805160206135ac83398151915254905f8051602061368c83398151915254905f805160206136cc833981519152549060ff5f8051602061364c8339815191525416928151948552602085015283015215156060820152f35b5034610180575f3660031901126101805760e0905f805160206136ac833981519152545f525f8051602061360c833981519152602052805f20908154916001810154915f8051602061368c83398151915254611610611913565b90611619611b36565b9260036005860154950154958151978852602088015286015260608501521515608084015260a083015260c0820152f35b9034610180575f366003190112610180575f805160206136ac8339815191525480156116d5575f1981019081116105af575b5f525f8051602061360c8339815191526020525f209060ff60068301541690600382101561059c575060011490816116c6575b506116b657005b6116be611f02565b610021612032565b600291500154421015816116af565b505f61167c565b600435906001600160a01b038216820361018057565b60e0810190811067ffffffffffffffff82111761170e57604052565b634e487b7160e01b5f52604160045260245ffd5b67ffffffffffffffff811161170e57604052565b60a0810190811067ffffffffffffffff82111761170e57604052565b90601f8019910116810190811067ffffffffffffffff82111761170e57604052565b67ffffffffffffffff811161170e57601f01601f191660200190565b92919261179c82611774565b916117aa6040519384611752565b829481845281830111610180578281602093845f960137010152565b90600182811c921680156117f4575b60208310146117e057565b634e487b7160e01b5f52602260045260245ffd5b91607f16916117d5565b91908251928382525f5b848110611828575050825f602080949584010152601f8019910116010190565b602081830181015184830182015201611808565b9190820391821161184957565b634e487b7160e01b5f52601160045260245ffd5b90816020910312610180575180151581036101805790565b1561187c57565b60405162461bcd60e51b815260206004820152600e60248201526d139bdd08185d5d1a1bdc9a5e995960921b6044820152606490fd5b80548210156118c7575f5260205f2001905f90565b634e487b7160e01b5f52603260045260245ffd5b6001600160a01b03165f9081527f54a93883e668f845121f9ed2904459121a66c9b3035aae515f9eb649cbd75b1d6020526040902090565b5f805160206136ac833981519152545f525f8051602061360c833981519152602052600260405f200154804210156119535761195090429061183c565b90565b505f90565b9190820180921161184957565b60408051611972816116f2565b5f81525f60c060209282848201528285820152826060820152826080820152606060a082015201525f805160206136ac833981519152548015155f14611a8f575f198101908111611849575f525f8051602061360c8339815191528152815f20908251926119df846116f2565b82548452600191600184015481860152600284015482860152600384015460608601526004840154608086015260058401915192838284549182815201935f52825f20925f905b828210611a715750505050509181611a4460069360ff950382611752565b60a08501520154166003811015611a5d5760c082015290565b634e487b7160e01b5f52602160045260245ffd5b84546001600160a01b03168652948501949383019390830190611a26565b505f80525f8051602061360c8339815191528152815f2090825192611ab3846116f2565b82548452600191600184015481860152600284015482860152600384015460608601526004840154608086015260058401915192838284549182815201935f52825f20925f905b828210611b185750505050509181611a4460069360ff950382611752565b84546001600160a01b03168652948501949383019390830190611afa565b5f805160206136ac833981519152545f525f8051602061360c833981519152602052600260405f20015442101590565b6001600160a01b03908116908115611bbf575f805160206135cc83398151915280546001600160a01b031981168417909155167f8be0079c531659141344cd1fd0a4f28419497f9722a3daafe3b4186f6b6457e05f80a3565b604051631e4fbdf760e01b81525f6004820152602490fd5b7f9b779b17422d0df92223018b32b4d1fa46e071723d6817e2486d003becc55f006002815414611ef0576002815560ff5f8051602061364c833981519152541615611eb6575f805160206135ac8339815191525490600191808004831481151715611849573403611e79575f805160206136ac83398151915280548015611e72575f198101908111611849575b5f525f8051602061360c8339815191526020818152604091825f209360ff6006860154166003811015611a5d5715611e4d575b60ff6006860154166003811015611a5d57871480611e3f575b611e12575b60ff6006860154166003811015611a5d578703611ddc57548015611dd5575f198101908111611849575b5f528152815f20611cef336118db565b805490878201809211611849575560038101611d0c348254611958565b9055611d1b3360058301612d25565b611d90575b50611d2a34612361565b845f5b818110611d7f57505f5b818110611d4657505050505055565b8454845182815242858201527f96541f70da731142b18e96f1def4d2a7733deb7d784723106d52c1d906d4c67a863392a3018590611d37565b611d88336126e0565b018590611d2d565b6004907f54a93883e668f845121f9ed2904459121a66c9b3035aae515f9eb649cbd75b25611dbe8154612024565b90550180549086820180921161184957555f611d20565b505f611cdf565b835162461bcd60e51b815260048101849052600f60248201526e47616d65206e6f742061637469766560881b6044820152606490fd5b9350611e1c611f02565b611e24612032565b83545f198101908111611849575f52808252825f2093611cb5565b506002850154421015611cb0565b9350611e57612032565b83545f198101908111611849575f52808252825f2093611c97565b505f611c64565b60405162461bcd60e51b8152602060048201526015602482015274125b98dbdc9c9958dd08185b5bdd5b9d081cd95b9d605a1b6044820152606490fd5b60405162461bcd60e51b815260206004820152601260248201527147616d65206973206e6f742061637469766560701b6044820152606490fd5b604051633ee5aeb560e01b8152600490fd5b5f805160206136ac83398151915254801561201d575f198101908111611849575b5f525f8051602061360c8339815191526020527f46e59b25850fb5875ea16cb7de4c6866327eef1a3f4ff23c27b3c5ad811979dd606060405f2060068101600260ff19825416179055611f74612b3e565b8154600383015460049093015460408051858152602081018390524291810191909152919384937fbc90215e53e674c730aaa25f931a3d27c8fb234665be39704719b8accdde9c4c9385916001600160a01b0316907fe1e1092ba644510bf260dc4a6aafc7d680596ffe47d321cdfd3e0540b21ec5a690606090a36040805192835260208301919091524290820152606090a260405190815260026020820152426040820152a1565b505f611f23565b5f1981146118495760010190565b5f805160206136ac833981519152805490815f525f8051602061360c833981519152602052600660405f2083815542600182015561207e5f8051602061368c8339815191525442611958565b600282015501600160ff198254161790556120998154612024565b90557f46e59b25850fb5875ea16cb7de4c6866327eef1a3f4ff23c27b3c5ad811979dd606060405183815260016020820152426040820152a15f7f96541f70da731142b18e96f1def4d2a7733deb7d784723106d52c1d906d4c67a604080516103e78152426020820152a3565b600f81526e2a3932b0b9bab93ca6b0b730b3b2b960891b602082015260400190565b9081602091031261018057516001600160a01b03811681036101805790565b92919092606081525f9060019160015492612161846117c6565b908160608501526080946001811690815f146121fa575060011461219c575b50506001600160a01b0390951660208201526040019190915250565b60015f9081529394919250907fb10e2d527612073b26eecdfd717e6a320cf44b4afac2b0732d9fcbe2b7fa0cf65b8385106121e557505050509060806040928201015f80612180565b805485870183015260209094019382016121ca565b915050604094506080925060ff191682840152151560051b8201015f80612180565b5f9060033d1161222857565b905060045f803e5f5160e01c90565b5f60443d1061195057604051600319913d83016004833e815167ffffffffffffffff918282113d6024840111176122945781840194855193841161229c573d85010160208487010111612294575061195092910160200190611752565b949350505050565b50949350505050565b9493926060926122cf9260018060a01b0316875260208701526080604087015260808601906117fe565b930152565b9392919060018060a01b0316845260208401526080604084015260166080840152752ab735b737bbb7103a3932b0b9bab93c9032b93937b960511b60a0840152606060c08401930152565b600b81526a19d95d10dbdb9d1c9858dd60aa1b602082015260400190565b91906060835260406122cf6123546060860161231f565b8581036020870152612106565b5f80546001600160a01b039190821680156125c35760409283518092633581777360e01b8252602093849182600483015281806123a060248201612106565b03915afa5f9181612594575b5061244e575050509091506001906123c261221c565b6308c379a014612408575b506123d55750565b7f70fc00f840113c148a9df69b957f66381d1c8ed745183843a17723ccc8cb6608905180612403428261233d565b0390a1565b612410612237565b156123cd5790507f70fc00f840113c148a9df69b957f66381d1c8ed745183843a17723ccc8cb6608825180612445428261233d565b0390a15f6123cd565b16801561255157803b15610180575f845180926308638fd160e01b825281838161247c8b3360048401612147565b03925af1908161253e575b5061250e575060019061249861221c565b6308c379a0146124cb575b506124ac575050565b515f8051602061362c83398151915291819061240390429033846122d4565b6124d3612237565b90816124e0575b506124a3565b83519092505f8051602061362c8339815191529181906125049042908833856122a5565b0390a15f806124da565b82519384524290840152507fbec1a08e6dcd95f4cbb560bf9010af9efaf4b5b424d78d43652646cdc7726ec891a1565b612549919350611722565b5f915f612487565b5082518381527fee1f6c4efcafbaf263525aca58d90621abebc4c83995ad2194b2aefd9fc94421945092839250612589908301612106565b9042908301520390a1565b6125b5919250843d86116125bc575b6125ad8183611752565b810190612128565b905f6123ac565b503d6125a3565b505050507f70fc00f840113c148a9df69b957f66381d1c8ed745183843a17723ccc8cb66086040516060815260086060820152673a3930b739b332b960c11b608082015260a060208201528061261b60a08201612106565b4260408301520390a1565b91906060835260408061263b6060860161231f565b8581036020870152601881527f5265676973747279206e6f7420696e697469616c697a65640000000000000000602082015201930152565b9291906122cf6040916060865261268c6060870161231f565b9086820360208801526117fe565b9190606083526040806126af6060860161231f565b858103602087015260168152752ab735b737bbb7103932b3b4b9ba393c9032b93937b960511b602082015201930152565b5f80546001600160a01b0390811692919083156129985760409283518095633581777360e01b82528160646020988993846004830152601360248301527210dc9e5c1d1bdb1bdd1d1bd49959995c9c985b606a1b60448301525afa5f9181612979575b506127c85750505090915060019061275961221c565b6308c379a014612787575b5061276c5750565b5f8051602061366c833981519152905180612403428261269a565b61278f612237565b908161279c575b50612764565b83519092505f8051602061366c8339815191529181906127be90429083612673565b0390a15f80612796565b821691821561291757823b156101805760445f928387519586948593630b5c3f8760e01b85528360048601521660248401525af19081612904575b506128ff5760019061281361221c565b6308c379a014612890575b50612827575050565b5f8051602061366c833981519152918161258992519283926060845261286860608501600b81526a185919149959995c9c985b60aa1b602082015260400190565b9084820390850152600d81526c2ab735b737bbb71032b93937b960991b602082015260400190565b612898612237565b90816128a5575b5061281e565b83516060808252600b908201526a185919149959995c9c985b60aa1b60808201529092505f8051602061366c8339815191529181906128f09060a083015b90838203898501526117fe565b42868301520390a15f8061289f565b505050565b61290f919250611722565b5f905f612803565b5050505090815f8051602061366c833981519152925191606083527f526566657272616c20636f6e7472616374206e6f7420666f756e64000000000061295f6060850161231f565b91848303928382870152601b8152015242828401520190a1565b612991919250873d89116125bc576125ad8183611752565b905f612743565b505050505f8051602061366c833981519152604051806124034282612626565b5f80546001600160a01b039081169390928415612ae55760409384518096633581777360e01b82528160646020998a93846004830152601360248301527210dc9e5c1d1bdb1bdd1d1bd49959995c9c985b606a1b60448301525afa5f9181612ac6575b50612a32575050505090915060019061275961221c565b81168015612a7d57803b15610180575f92836044928489519788968795630b5c3f8760e01b87521660048601521660248401525af1908161290457506128ff5760019061281361221c565b505050505090815f8051602061366c833981519152925191606083527f526566657272616c20636f6e7472616374206e6f7420666f756e64000000000061295f6060850161231f565b612ade919250883d8a116125bc576125ad8183611752565b905f612a1b565b50505050505f8051602061366c833981519152604051806124034282612626565b5f805160206135cc833981519152546001600160a01b03163303612b2657565b60405163118cdaa760e01b8152336004820152602490fd5b5f805160206136ac833981519152548015612cdd575f198101908111611849575b5f525f8051602061360c83398151915260205260405f20600581018054916003810154918315612cd55760018403612c3657828154156118c7575f8281526020902054612c2b94612bb8916001600160a01b0316612da0565b5f925b612be18483612bca82876118b2565b90546001600160a01b039a9160031b1c8a1661327f565b7f87a24b8075c0e9109e30d503eebaae5b450953b8e7f06e7555da70687120f454604087612c0f87876118b2565b90549060031b1c169254938151908152426020820152a36118b2565b90549060031b1c1690565b5f929192198481810111611849574301438111611849578490604051602081019142835244604083015243606083015240608082015260808152612c7981611736565b5190200691600a810293818504600a148215171561184957612cd0612ca56064612c2b9704809461183c565b92612ccb84612cb488886118b2565b905460039190911b1c6001600160a01b0316612da0565b612fe0565b612bbb565b505050505f90565b505f612b5f565b60ff7ff0c57e16840df040f15088dc2f81fe391c3923bec73e23a9662efc9c229c6a005460401c1615612d1357565b604051631afcd79f60e31b8152600490fd5b80545f5b818110612d7257506801000000000000000081101561170e57612d51916001820181556118b2565b60018060a09493941b038084549260031b9316831b921b1916179055600190565b612d7c81846118b2565b905460039190911b1c6001600160a01b0390811690851614612cd557600101612d29565b5f80546001600160a01b0390811693919291908415612f8a57604094602086518092633581777360e01b82528260048301528180612de060248201612106565b03915afa5f9181612f69575b50612e0057505050506001906123c261221c565b9293919281168015612f1457803b15610180575f8651809263783b811560e11b8252818381612e338a8c60048401612147565b03925af19081612f01575b50612ec55750600190612e4f61221c565b6308c379a014612e82575b50612e6457505050565b6124035f8051602061362c83398151915293519283924291846122d4565b612e8a612237565b9081612e97575b50612e5a565b85519092505f8051602061362c833981519152918190612ebb9042908789856122a5565b0390a15f80612e91565b84915091606093927f5cb16b96eae9e7321a2374725d21b09b310eac87d65cbdc13555123ecc31b49b95519316835260208301524290820152a1565b612f0c919350611722565b5f915f612e3e565b50505050507fee7558104fc91c08ddc1c5542d355a8e69109a88ffe98c7d3c35e0e9f14bc238905180612403428291906040835260066040840152651c185e5bdd5d60d21b6060840152602060808401930152565b612f8391925060203d6020116125bc576125ad8183611752565b905f612dec565b50505050507fee7558104fc91c08ddc1c5542d355a8e69109a88ffe98c7d3c35e0e9f14bc23860405180612403428291906040835260066040840152651c185e5bdd5d60d21b6060840152602060808401930152565b5f80546001600160a01b0390811692909190831561325f5760409283518095633581777360e01b82528160646020988993846004830152601060248301526f233ab73239a234b9ba3934b13aba37b960811b60448301525afa5f9181613240575b506130c65750505090915060019061305761221c565b6308c379a014613085575b5061306a5750565b5f805160206136ec833981519152905180612403428261269a565b61308d612237565b908161309a575b50613062565b83519092505f805160206136ec8339815191529181906130bc90429083612673565b0390a15f80613094565b169081156131df57813b15610180575f916024839286519485938492630562b9f760e01b845260048401525af190816131cc575b506128ff5760019061310a61221c565b6308c379a014613163575b5061311e575050565b5f805160206136ec833981519152918161258992519283926060845261286860608501604090600e81526d1dda5d1a191c985dd05b5bdd5b9d60921b60208201520190565b61316b612237565b9081613178575b50613115565b83516060808252600e908201526d1dda5d1a191c985dd05b5bdd5b9d60921b60808201529092505f805160206136ec8339815191529181906131bd9060a083016128e3565b42868301520390a15f80613172565b6131d7919250611722565b5f905f6130fa565b50505090815f805160206136ec833981519152925191606083527f4469737472696275746f7220636f6e7472616374206e6f7420666f756e6400006132266060850161231f565b91848303928382870152601e8152015242828401520190a1565b613258919250873d89116125bc576125ad8183611752565b905f613041565b505050505f805160206136ec833981519152604051806124034282612626565b5f80546001600160a01b039081169592949193929186156135255760409586518098633581777360e01b825281606460209b8c93846004830152600f60248301526e29ba30ba39a0b3b3b932b3b0ba37b960891b60448301525afa5f9181613506575b5061336a575050505050509091506001906132fb61221c565b6308c379a014613329575b5061330e5750565b5f805160206135ec833981519152905180612403428261269a565b613331612237565b908161333e575b50613306565b83519092505f805160206135ec83398151915291819061336090429083612673565b0390a15f80613338565b83169485156134a15761337b611965565b5195803b15610180575f9560c49487938b51998a9889976306525fa960e01b89521660048801526024870152604486015260648501526001608485015260a48401525af1908161348e575b506128ff576001906133d661221c565b6308c379a01461342a575b506133ea575050565b5f805160206135ec83398151915291816125899251928392606084526128686060850160409060098152683732bbabb4b73732b960b91b60208201520190565b613432612237565b908161343f575b506133e1565b83516060808252600990820152683732bbabb4b73732b960b91b60808201529092505f805160206135ec83398151915291819061347f9060a083016128e3565b42868301520390a15f80613439565b613499919250611722565b5f905f6133c6565b5050505050505090815f805160206135ec833981519152925191606083527f537461747320636f6e7472616374206e6f7420666f756e6400000000000000006134ec6060850161231f565b9184830392838287015260188152015242828401520190a1565b61351e9192508a3d8c116125bc576125ad8183611752565b905f6132e2565b505050505050505f805160206135ec833981519152604051806124034282612626565b9061356f575080511561355d57602081519101fd5b60405163d6bda27560e01b8152600490fd5b815115806135a2575b613580575090565b604051639996b31560e01b81526001600160a01b039091166004820152602490fd5b50803b1561357856fe54a93883e668f845121f9ed2904459121a66c9b3035aae515f9eb649cbd75b1f9016d09d72d40fdae2fd8ceac6b6234c7706214fd39c1cd1e609a0528c199300b1f93caa9ab511849d148ed587eed947b576528353bb0a308e5c05f0b944741e54a93883e668f845121f9ed2904459121a66c9b3035aae515f9eb649cbd75b1c419f1e3e5b764ed411bdfb5b2bcb8cd5c4c11e630da8354d290eb2ce1534bc1554a93883e668f845121f9ed2904459121a66c9b3035aae515f9eb649cbd75b22fb661a8b24ce05cad0df98d6cec3f38c5c509bcfb6091780cbffef1ba04955c954a93883e668f845121f9ed2904459121a66c9b3035aae515f9eb649cbd75b2054a93883e668f845121f9ed2904459121a66c9b3035aae515f9eb649cbd75b2354a93883e668f845121f9ed2904459121a66c9b3035aae515f9eb649cbd75b216fa080ab4152fa20bbc030356eecad943491a83181d58499f3bafa0ad167beb0a264697066735822122016d99167b51def088edaebc591a13dbb3bdc8f2c7e69bf57f3ec205b53b25fe664736f6c63430008160033","linkReferences":{}},"methodIdentifiers":{"UPGRADE_INTERFACE_VERSION()":"ad3cb1cc","autoEndGame()":"0dac1437","buyTicket(address,uint256)":"66a5ef2f","changeGameDuration(uint256)":"65dbb77e","changeMaxTicketsPerPlayer(uint256)":"3deeac70","changeTicketPrice(uint256)":"4630a0ee","checkAndEndGame()":"8b235f19","emergencyPause(string)":"cf5b4fd5","emergencyResume()":"93c87f03","getContractBalance()":"6f9fb98a","getCurrentGameInfo()":"a645e840","getGameConfig()":"22f19172","getGameInfo()":"1746bd1b","getPlayerInfo(address)":"59328401","getRemainingGameTime()":"62444801","initialize(address,address,address,address,address,address,address)":"35876476","isGameTimeExpired()":"bf77e7c8","ownable()":"b38854be","owner()":"8da5cb5b","proxiableUUID()":"52d1902d","randomNumber(uint256,uint256,uint256,uint256,uint256,bytes32)":"8897c1f4","registry()":"7b103999","renounceOwnership()":"715018a6","transferOwnership(address)":"f2fde38b","treasuryName()":"53b7acdf","upgradeToAndCall(address,bytes)":"4f1ef286"},"id":2}