{"abi":[{"type":"constructor","inputs":[],"stateMutability":"nonpayable"},{"type":"fallback","stateMutability":"payable"},{"type":"receive","stateMutability":"payable"},{"type":"function","name":"AD_LOTTERY_FEE_PERCENT","inputs":[],"outputs":[{"name":"","type":"uint256","internalType":"uint256"}],"stateMutability":"view"},{"type":"function","name":"DEVELOPER_FEE_PERCENT","inputs":[],"outputs":[{"name":"","type":"uint256","internalType":"uint256"}],"stateMutability":"view"},{"type":"function","name":"MAX_BLOCK_DELAY","inputs":[],"outputs":[{"name":"","type":"uint256","internalType":"uint256"}],"stateMutability":"view"},{"type":"function","name":"MAX_TICKETS_PER_TRANSACTION","inputs":[],"outputs":[{"name":"","type":"uint256","internalType":"uint256"}],"stateMutability":"view"},{"type":"function","name":"MIN_BLOCK_DELAY","inputs":[],"outputs":[{"name":"","type":"uint256","internalType":"uint256"}],"stateMutability":"view"},{"type":"function","name":"PURCHASE_COOLDOWN","inputs":[],"outputs":[{"name":"","type":"uint256","internalType":"uint256"}],"stateMutability":"view"},{"type":"function","name":"REFERRAL_FEE_PERCENT","inputs":[],"outputs":[{"name":"","type":"uint256","internalType":"uint256"}],"stateMutability":"view"},{"type":"function","name":"TOTAL_FEE_PERCENT","inputs":[],"outputs":[{"name":"","type":"uint256","internalType":"uint256"}],"stateMutability":"view"},{"type":"function","name":"UPGRADE_INTERFACE_VERSION","inputs":[],"outputs":[{"name":"","type":"string","internalType":"string"}],"stateMutability":"view"},{"type":"function","name":"autoEndGame","inputs":[],"outputs":[],"stateMutability":"nonpayable"},{"type":"function","name":"buyTicket","inputs":[{"name":"referrer","type":"address","internalType":"address"},{"name":"ticketCount","type":"uint256","internalType":"uint256"}],"outputs":[],"stateMutability":"payable"},{"type":"function","name":"changeGameDuration","inputs":[{"name":"duration","type":"uint256","internalType":"uint256"}],"outputs":[],"stateMutability":"nonpayable"},{"type":"function","name":"changeMaxTicketsPerPlayer","inputs":[{"name":"maxTickets","type":"uint256","internalType":"uint256"}],"outputs":[],"stateMutability":"nonpayable"},{"type":"function","name":"changeTicketPrice","inputs":[{"name":"price","type":"uint256","internalType":"uint256"}],"outputs":[],"stateMutability":"nonpayable"},{"type":"function","name":"checkAndEndGame","inputs":[],"outputs":[],"stateMutability":"nonpayable"},{"type":"function","name":"emergencyPause","inputs":[{"name":"reason","type":"string","internalType":"string"}],"outputs":[],"stateMutability":"nonpayable"},{"type":"function","name":"emergencyResume","inputs":[],"outputs":[],"stateMutability":"nonpayable"},{"type":"function","name":"getCompleteGameStatus","inputs":[],"outputs":[{"name":"isActive","type":"bool","internalType":"bool"},{"name":"currentGameId","type":"uint256","internalType":"uint256"},{"name":"playerCount","type":"uint256","internalType":"uint256"},{"name":"jackpot","type":"uint256","internalType":"uint256"},{"name":"remainingTime","type":"uint256","internalType":"uint256"},{"name":"gameState","type":"uint8","internalType":"enum StorageLayout.GameState"}],"stateMutability":"view"},{"type":"function","name":"getContractBalance","inputs":[],"outputs":[{"name":"","type":"uint256","internalType":"uint256"}],"stateMutability":"view"},{"type":"function","name":"getContractHealth","inputs":[],"outputs":[{"name":"isInitialized","type":"bool","internalType":"bool"},{"name":"contractBalance","type":"uint256","internalType":"uint256"},{"name":"totalGames","type":"uint256","internalType":"uint256"},{"name":"totalPlayers","type":"uint256","internalType":"uint256"},{"name":"totalJackpot","type":"uint256","internalType":"uint256"}],"stateMutability":"view"},{"type":"function","name":"getCurrentGameInfo","inputs":[],"outputs":[{"name":"gameNumber","type":"uint256","internalType":"uint256"},{"name":"startTime","type":"uint256","internalType":"uint256"},{"name":"endTime","type":"uint256","internalType":"uint256"},{"name":"jackpot","type":"uint256","internalType":"uint256"},{"name":"playerCount","type":"uint256","internalType":"uint256"},{"name":"state","type":"uint8","internalType":"enum StorageLayout.GameState"}],"stateMutability":"view"},{"type":"function","name":"getDetailedGameStats","inputs":[],"outputs":[{"name":"totalGames","type":"uint256","internalType":"uint256"},{"name":"totalPlayers","type":"uint256","internalType":"uint256"},{"name":"totalJackpot","type":"uint256","internalType":"uint256"},{"name":"averageTicketsPerGame","type":"uint256","internalType":"uint256"},{"name":"successRate","type":"uint256","internalType":"uint256"}],"stateMutability":"view"},{"type":"function","name":"getGameConfig","inputs":[],"outputs":[{"name":"ticketPrice","type":"uint256","internalType":"uint256"},{"name":"gameDuration","type":"uint256","internalType":"uint256"},{"name":"maxTicketsPerPlayer","type":"uint256","internalType":"uint256"},{"name":"isActive","type":"bool","internalType":"bool"}],"stateMutability":"view"},{"type":"function","name":"getGameInfo","inputs":[],"outputs":[{"name":"currentGameNumber","type":"uint256","internalType":"uint256"},{"name":"startTime","type":"uint256","internalType":"uint256"},{"name":"duration","type":"uint256","internalType":"uint256"},{"name":"remainingTime","type":"uint256","internalType":"uint256"},{"name":"timeExpired","type":"bool","internalType":"bool"},{"name":"playerCount","type":"uint256","internalType":"uint256"},{"name":"currentJackpot","type":"uint256","internalType":"uint256"}],"stateMutability":"view"},{"type":"function","name":"getPlayerAnalytics","inputs":[{"name":"player","type":"address","internalType":"address"}],"outputs":[{"name":"totalTicketsPurchased","type":"uint256","internalType":"uint256"},{"name":"gamesParticipated","type":"uint256","internalType":"uint256"},{"name":"lastActivityTime","type":"uint256","internalType":"uint256"},{"name":"averageTicketsPerGame","type":"uint256","internalType":"uint256"}],"stateMutability":"view"},{"type":"function","name":"getPlayerInfo","inputs":[{"name":"player","type":"address","internalType":"address"}],"outputs":[{"name":"ticketsInCurrentGame","type":"uint256","internalType":"uint256"},{"name":"isInCurrentGame","type":"bool","internalType":"bool"}],"stateMutability":"view"},{"type":"function","name":"getRemainingGameTime","inputs":[],"outputs":[{"name":"","type":"uint256","internalType":"uint256"}],"stateMutability":"view"},{"type":"function","name":"initialize","inputs":[{"name":"owner","type":"address","internalType":"address"},{"name":"","type":"address","internalType":"address"},{"name":"","type":"address","internalType":"address"},{"name":"","type":"address","internalType":"address"},{"name":"","type":"address","internalType":"address"},{"name":"","type":"string","internalType":"string"}],"outputs":[],"stateMutability":"nonpayable"},{"type":"function","name":"isGameTimeExpired","inputs":[],"outputs":[{"name":"","type":"bool","internalType":"bool"}],"stateMutability":"view"},{"type":"function","name":"lastPurchaseTime","inputs":[{"name":"","type":"address","internalType":"address"}],"outputs":[{"name":"","type":"uint256","internalType":"uint256"}],"stateMutability":"view"},{"type":"function","name":"ownable","inputs":[],"outputs":[{"name":"","type":"address","internalType":"contract IOwnable"}],"stateMutability":"view"},{"type":"function","name":"owner","inputs":[],"outputs":[{"name":"","type":"address","internalType":"address"}],"stateMutability":"view"},{"type":"function","name":"proxiableUUID","inputs":[],"outputs":[{"name":"","type":"bytes32","internalType":"bytes32"}],"stateMutability":"view"},{"type":"function","name":"registry","inputs":[],"outputs":[{"name":"","type":"address","internalType":"contract ContractRegistry"}],"stateMutability":"view"},{"type":"function","name":"renounceOwnership","inputs":[],"outputs":[],"stateMutability":"nonpayable"},{"type":"function","name":"resetPlayerCooldown","inputs":[{"name":"player","type":"address","internalType":"address"}],"outputs":[],"stateMutability":"nonpayable"},{"type":"function","name":"setPurchaseCooldown","inputs":[{"name":"newCooldown","type":"uint256","internalType":"uint256"}],"outputs":[],"stateMutability":"nonpayable"},{"type":"function","name":"setRegistry","inputs":[{"name":"_registry","type":"address","internalType":"address"}],"outputs":[],"stateMutability":"nonpayable"},{"type":"function","name":"setTestMode","inputs":[{"name":"enabled","type":"bool","internalType":"bool"}],"outputs":[],"stateMutability":"nonpayable"},{"type":"function","name":"setTreasuryName","inputs":[{"name":"_treasuryName","type":"string","internalType":"string"}],"outputs":[],"stateMutability":"nonpayable"},{"type":"function","name":"testMode","inputs":[],"outputs":[{"name":"","type":"bool","internalType":"bool"}],"stateMutability":"view"},{"type":"function","name":"transferOwnership","inputs":[{"name":"newOwner","type":"address","internalType":"address"}],"outputs":[],"stateMutability":"nonpayable"},{"type":"function","name":"treasuryName","inputs":[],"outputs":[{"name":"","type":"string","internalType":"string"}],"stateMutability":"view"},{"type":"function","name":"upgradeToAndCall","inputs":[{"name":"newImplementation","type":"address","internalType":"address"},{"name":"data","type":"bytes","internalType":"bytes"}],"outputs":[],"stateMutability":"payable"},{"type":"event","name":"AdLotteryFeeCollected","inputs":[{"name":"amount","type":"uint256","indexed":false,"internalType":"uint256"},{"name":"timestamp","type":"uint256","indexed":false,"internalType":"uint256"}],"anonymous":false},{"type":"event","name":"ContractNotFound","inputs":[{"name":"contractName","type":"string","indexed":false,"internalType":"string"},{"name":"timestamp","type":"uint256","indexed":false,"internalType":"uint256"}],"anonymous":false},{"type":"event","name":"DeveloperFeeSent","inputs":[{"name":"distributor","type":"address","indexed":true,"internalType":"address"},{"name":"amount","type":"uint256","indexed":false,"internalType":"uint256"},{"name":"timestamp","type":"uint256","indexed":false,"internalType":"uint256"}],"anonymous":false},{"type":"event","name":"DistributorError","inputs":[{"name":"operation","type":"string","indexed":false,"internalType":"string"},{"name":"reason","type":"string","indexed":false,"internalType":"string"},{"name":"timestamp","type":"uint256","indexed":false,"internalType":"uint256"}],"anonymous":false},{"type":"event","name":"EmergencyPaused","inputs":[{"name":"by","type":"address","indexed":true,"internalType":"address"},{"name":"reason","type":"string","indexed":false,"internalType":"string"},{"name":"timestamp","type":"uint256","indexed":false,"internalType":"uint256"}],"anonymous":false},{"type":"event","name":"EmergencyResumed","inputs":[{"name":"by","type":"address","indexed":true,"internalType":"address"},{"name":"timestamp","type":"uint256","indexed":false,"internalType":"uint256"}],"anonymous":false},{"type":"event","name":"FeeDistributed","inputs":[{"name":"referralFee","type":"uint256","indexed":false,"internalType":"uint256"},{"name":"adLotteryFee","type":"uint256","indexed":false,"internalType":"uint256"},{"name":"developerFee","type":"uint256","indexed":false,"internalType":"uint256"},{"name":"timestamp","type":"uint256","indexed":false,"internalType":"uint256"}],"anonymous":false},{"type":"event","name":"GameDurationUpdated","inputs":[{"name":"oldValue","type":"uint256","indexed":false,"internalType":"uint256"},{"name":"newValue","type":"uint256","indexed":false,"internalType":"uint256"},{"name":"timestamp","type":"uint256","indexed":false,"internalType":"uint256"}],"anonymous":false},{"type":"event","name":"GameEnded","inputs":[{"name":"gameNumber","type":"uint256","indexed":true,"internalType":"uint256"},{"name":"totalPlayers","type":"uint256","indexed":false,"internalType":"uint256"},{"name":"totalJackpot","type":"uint256","indexed":false,"internalType":"uint256"},{"name":"timestamp","type":"uint256","indexed":false,"internalType":"uint256"}],"anonymous":false},{"type":"event","name":"GamePerformanceMetrics","inputs":[{"name":"gameNumber","type":"uint256","indexed":true,"internalType":"uint256"},{"name":"gasUsed","type":"uint256","indexed":false,"internalType":"uint256"},{"name":"playerCount","type":"uint256","indexed":false,"internalType":"uint256"},{"name":"jackpot","type":"uint256","indexed":false,"internalType":"uint256"},{"name":"timestamp","type":"uint256","indexed":false,"internalType":"uint256"}],"anonymous":false},{"type":"event","name":"GameSecurityEvent","inputs":[{"name":"player","type":"address","indexed":true,"internalType":"address"},{"name":"eventType","type":"string","indexed":false,"internalType":"string"},{"name":"timestamp","type":"uint256","indexed":false,"internalType":"uint256"}],"anonymous":false},{"type":"event","name":"GameStateChanged","inputs":[{"name":"gameNumber","type":"uint256","indexed":false,"internalType":"uint256"},{"name":"state","type":"uint8","indexed":false,"internalType":"enum StorageLayout.GameState"},{"name":"timestamp","type":"uint256","indexed":false,"internalType":"uint256"}],"anonymous":false},{"type":"event","name":"Initialized","inputs":[{"name":"version","type":"uint64","indexed":false,"internalType":"uint64"}],"anonymous":false},{"type":"event","name":"JackpotDistributed","inputs":[{"name":"winner","type":"address","indexed":true,"internalType":"address"},{"name":"amount","type":"uint256","indexed":false,"internalType":"uint256"},{"name":"gameNumber","type":"uint256","indexed":true,"internalType":"uint256"},{"name":"timestamp","type":"uint256","indexed":false,"internalType":"uint256"}],"anonymous":false},{"type":"event","name":"MaxTicketsPerPlayerUpdated","inputs":[{"name":"oldValue","type":"uint256","indexed":false,"internalType":"uint256"},{"name":"newValue","type":"uint256","indexed":false,"internalType":"uint256"},{"name":"timestamp","type":"uint256","indexed":false,"internalType":"uint256"}],"anonymous":false},{"type":"event","name":"OwnershipTransferred","inputs":[{"name":"previousOwner","type":"address","indexed":true,"internalType":"address"},{"name":"newOwner","type":"address","indexed":true,"internalType":"address"}],"anonymous":false},{"type":"event","name":"PurchaseCooldownUpdated","inputs":[{"name":"newCooldown","type":"uint256","indexed":false,"internalType":"uint256"},{"name":"timestamp","type":"uint256","indexed":false,"internalType":"uint256"}],"anonymous":false},{"type":"event","name":"ReferralError","inputs":[{"name":"operation","type":"string","indexed":false,"internalType":"string"},{"name":"reason","type":"string","indexed":false,"internalType":"string"},{"name":"timestamp","type":"uint256","indexed":false,"internalType":"uint256"}],"anonymous":false},{"type":"event","name":"RegistryError","inputs":[{"name":"operation","type":"string","indexed":false,"internalType":"string"},{"name":"contractName","type":"string","indexed":false,"internalType":"string"},{"name":"timestamp","type":"uint256","indexed":false,"internalType":"uint256"}],"anonymous":false},{"type":"event","name":"StatsError","inputs":[{"name":"operation","type":"string","indexed":false,"internalType":"string"},{"name":"reason","type":"string","indexed":false,"internalType":"string"},{"name":"timestamp","type":"uint256","indexed":false,"internalType":"uint256"}],"anonymous":false},{"type":"event","name":"TicketPriceChanged","inputs":[{"name":"oldPrice","type":"uint256","indexed":false,"internalType":"uint256"},{"name":"newPrice","type":"uint256","indexed":false,"internalType":"uint256"},{"name":"timestamp","type":"uint256","indexed":false,"internalType":"uint256"}],"anonymous":false},{"type":"event","name":"TicketPurchased","inputs":[{"name":"player","type":"address","indexed":true,"internalType":"address"},{"name":"gameNumber","type":"uint256","indexed":true,"internalType":"uint256"},{"name":"ticketIndex","type":"uint256","indexed":false,"internalType":"uint256"},{"name":"timestamp","type":"uint256","indexed":false,"internalType":"uint256"}],"anonymous":false},{"type":"event","name":"TreasuryFundsDeposited","inputs":[{"name":"amount","type":"uint256","indexed":false,"internalType":"uint256"},{"name":"timestamp","type":"uint256","indexed":false,"internalType":"uint256"}],"anonymous":false},{"type":"event","name":"TreasuryFundsWithdrawn","inputs":[{"name":"winner","type":"address","indexed":false,"internalType":"address"},{"name":"amount","type":"uint256","indexed":false,"internalType":"uint256"},{"name":"timestamp","type":"uint256","indexed":false,"internalType":"uint256"}],"anonymous":false},{"type":"event","name":"TreasuryOperationFailed","inputs":[{"name":"operation","type":"string","indexed":false,"internalType":"string"},{"name":"timestamp","type":"uint256","indexed":false,"internalType":"uint256"}],"anonymous":false},{"type":"event","name":"TreasuryTransferFailed","inputs":[{"name":"from","type":"address","indexed":false,"internalType":"address"},{"name":"amount","type":"uint256","indexed":false,"internalType":"uint256"},{"name":"reason","type":"string","indexed":false,"internalType":"string"},{"name":"timestamp","type":"uint256","indexed":false,"internalType":"uint256"}],"anonymous":false},{"type":"event","name":"Upgraded","inputs":[{"name":"implementation","type":"address","indexed":true,"internalType":"address"}],"anonymous":false},{"type":"event","name":"WinnerSelected","inputs":[{"name":"winner","type":"address","indexed":true,"internalType":"address"},{"name":"gameNumber","type":"uint256","indexed":true,"internalType":"uint256"},{"name":"jackpot","type":"uint256","indexed":false,"internalType":"uint256"},{"name":"playerCount","type":"uint256","indexed":false,"internalType":"uint256"},{"name":"timestamp","type":"uint256","indexed":false,"internalType":"uint256"}],"anonymous":false},{"type":"error","name":"AddressEmptyCode","inputs":[{"name":"target","type":"address","internalType":"address"}]},{"type":"error","name":"ERC1967InvalidImplementation","inputs":[{"name":"implementation","type":"address","internalType":"address"}]},{"type":"error","name":"ERC1967NonPayable","inputs":[]},{"type":"error","name":"ExceedsMaxTickets","inputs":[]},{"type":"error","name":"FailedCall","inputs":[]},{"type":"error","name":"GameNotActive","inputs":[]},{"type":"error","name":"GameNotInActiveState","inputs":[]},{"type":"error","name":"IncorrectAmount","inputs":[]},{"type":"error","name":"InvalidInitialization","inputs":[]},{"type":"error","name":"InvalidRange","inputs":[]},{"type":"error","name":"InvalidTicketCount","inputs":[]},{"type":"error","name":"NoPlayersInGame","inputs":[]},{"type":"error","name":"NotInitializing","inputs":[]},{"type":"error","name":"OwnableInvalidOwner","inputs":[{"name":"owner","type":"address","internalType":"address"}]},{"type":"error","name":"OwnableUnauthorizedAccount","inputs":[{"name":"account","type":"address","internalType":"address"}]},{"type":"error","name":"ReentrancyGuardReentrantCall","inputs":[]},{"type":"error","name":"ReferralProcessingFailed","inputs":[]},{"type":"error","name":"StatsUpdateFailed","inputs":[]},{"type":"error","name":"UUPSUnauthorizedCallContext","inputs":[]},{"type":"error","name":"UUPSUnsupportedProxiableUUID","inputs":[{"name":"slot","type":"bytes32","internalType":"bytes32"}]}],"bytecode":{"object":"0x60a080604052346100d7573060805260ff19600454166004557ff0c57e16840df040f15088dc2f81fe391c3923bec73e23a9662efc9c229c6a009081549060ff8260401c166100c857506001600160401b036002600160401b031982821601610083575b6040516132b99081620000dc823960805181818161173601526117e80152f35b6001600160401b031990911681179091556040519081527fc7f505b2f371ae2175ee4913f4499e1f2633a7b5936321eed1cdaeb6115181d290602090a15f8080610063565b63f92ee8a960e01b8152600490fd5b5f80fdfe6040608081526004908136101561002b575b50503615610023576100216123b5565b005b6100216123b5565b5f3560e01c918263074fbe7614611dd95782630dac143714611d47578263117559e714611d2c57826314dd2cd114611d115782631746bd1b14611c7d5782631ff1292f14611be3578263227a14c114611bac57826322f1917214611b3f5782633deeac7014611a9a5782633fead80d14611a7f578263447b572714611a635782634630a0ee146119be5782634bc2178f146119a35782634f1ef2861461179a57826352d1902d1461172357826353b7acdf1461165357826359328401146115a05782635d130ec6146112ef57826362444801146112cc57826365dbb77e146111ec57826366a5ef2f14610b7d57826367898fdd14610ad15782636b8cd144146109315782636f9fb98a14610917578263715018a6146108b057826374baa131146108655782637b1039991461083e5782638b235f191461078e5782638da5cb5b1461075a57826393c87f03146106db578263a05a11501461066d578263a645e84014610624578263a91ee0dc1461059d578263a9f77684146104e8578263ad3cb1cc14610555578263b38854be1461052d578263bf77e7c814610508578263c3da0cf3146104ed578263c61c66dd146104e8578263cd9ea342146104c7578263cf5b4fd514610417578263d5a83a4e1461039a578263e7178dce1461024a57505063f2fde38b1461021d575f80610011565b3461024657602036600319011261024657610021610239611eab565b610241612be5565b612344565b5f80fd5b34610246575f366003190112610246575f8051602061324483398151915254905f8051602061322483398151915254907f54a93883e668f845121f9ed2904459121a66c9b3035aae515f9eb649cbd75b245483151594855f14610393576102c86102c25f80516020613164833981519152548761217f565b83612192565b925b5f965f5b8781106103355750156103295760648702968088046064149015171561031657506102fb8560a097612192565b935b8151958652602086015284015260608301526080820152f35b601190634e487b7160e01b5f525260245ffd5b5060a095505f936102fd565b805f525f805160206131a483398151915260205260ff6007855f2001541660038110156103805760021461036c575b6001016102ce565b97610378600191612336565b989050610364565b602184634e487b7160e01b5f525260245ffd5b5f926102ca565b5034610246575f3660031901126102465760a090600180831b035f541615159047905f80516020613244833981519152545f8051602061322483398151915254917f54a93883e668f845121f9ed2904459121a66c9b3035aae515f9eb649cbd75b2454938151958652602086015284015260608301526080820152f35b346102465760203660031901126102465780359067ffffffffffffffff82116102465761046b6104b8917fcc1b3dd39eb52913e9d184dde2ed4916801bdc2f5d6a119f2a946416893481d193369101612013565b610473612be5565b61049460018060a01b035f8051602061318483398151915254163314612064565b5f805160206131c4833981519152805460ff19169055835184815293840190611fd5565b914260208201528033930390a2005b9034610246575f3660031901126102465760ff602092541690519015158152f35b612031565b5034610246575f3660031901126102465760209051601e8152f35b5034610246575f36600319011261024657602090610524612306565b90519015158152f35b5034610246575f3660031901126102465760025490516001600160a01b039091168152602090f35b5034610246575f3660031901126102465780516105999161057582611ef9565b60058252640352e302e360dc1b602083015251918291602083526020830190611fd5565b0390f35b34610246576020366003190112610246576105b6611eab565b6105be612be5565b6001600160a01b03169182156105e1575f80546001600160a01b03191684179055005b906020606492519162461bcd60e51b8352820152601860248201527f496e76616c6964207265676973747279206164647265737300000000000000006044820152fd5b5034610246575f3660031901126102465760c09061066b6106436121b0565b94969093819392935197885260208801528601526060850152608084015260a0830190611e8a565bf35b50346102465760203660031901126102465760809061069261068d611eab565b611ec1565b549081156106d2575f60ff60015b169182151582146106cb576106b58385612192565b925b815194855260208501528301526060820152f35b81926106b7565b5f60ff816106a0565b5034610246575f366003190112610246576106f4612be5565b61071560018060a01b035f8051602061318483398151915254163314612064565b5f805160206131c4833981519152600160ff19825416179055514281527fe0dc8967738d1ca725802874d41e2ab2405df0e2eb3c61069d26d2782660d59460203392a2005b5034610246575f366003190112610246575f805160206131848339815191525490516001600160a01b039091168152602090f35b9034610246575f366003190112610246575f80516020613244833981519152548015610837575f198101908111610824575b5f525f805160206131a48339815191526020525f209060ff60078301541690600382101561081157506001149081610802575b506107fa57005b6100216128ba565b600291500154421015816107f3565b602190634e487b7160e01b5f525260245ffd5b601183634e487b7160e01b5f525260245ffd5b505f6107c0565b5034610246575f366003190112610246575f5490516001600160a01b039091168152602090f35b9034610246576020366003190112610246577f5230e177737051558c2fe276d241ca77d1d51404a14fe1a336ea71d0b306dbb0916108a1612be5565b815190358152426020820152a1005b34610246575f366003190112610246576108c8612be5565b5f8051602061318483398151915280546001600160a01b031981169091555f906001600160a01b03167f8be0079c531659141344cd1fd0a4f28419497f9722a3daafe3b4186f6b6457e08280a3005b5034610246575f3660031901126102465751478152602090f35b3461024657602090816003193601126102465767ffffffffffffffff908035828111610246576109649036908301612013565b9361096d612be5565b845115610a9757508351918211610a84575060019161098c8354611f9d565b601f8111610a33575b5080601f83116001146109cc57508192935f926109c1575b50505f19600383901b1c191690821b179055005b0151905083806109ad565b90601f19831694845f525f80516020613204833981519152925f905b878210610a1c57505083859610610a04575b505050811b019055005b01515f1960f88460031b161c191690558380806109fa565b8087859682949686015181550195019301906109e8565b835f525f80516020613204833981519152601f840160051c810191838510610a7a575b601f0160051c019084905b828110610a6f575050610995565b5f8155018490610a61565b9091508190610a56565b604190634e487b7160e01b5f525260245ffd5b5162461bcd60e51b81529081018390526015602482015274496e76616c6964207472656173757279206e616d6560581b6044820152606490fd5b3461024657602036600319011261024657610aea611eab565b90610af3612be5565b6001600160a01b038216908115610b41575091610021925f5260036020525f818120555190610b2182611ef9565b600e82526d10dbdbdb191bdddb8814995cd95d60921b6020830152612c1d565b606490602085519162461bcd60e51b83528201526016602482015275496e76616c696420706c61796572206164647265737360501b6044820152fd5b908060031936011261024657610b91611eab565b906024908135917f9b779b17422d0df92223018b32b4d1fa46e071723d6817e2486d003becc55f009360028554146111dc576002855560ff5f805160206131c48339815191525416156111a5578315611157575f8051602061316483398151915290610bfe85835461217f565b340361111d575f8051602061324483398151915280549097908015611116575f198101908111611104575b5f525f805160206131a4833981519152602094818652865f209460ff60078701541692600393848110156110bb57156110cd575b60ff6007880154169b848d10156110bb576001809d14806110ad575b611080575b60ff6007890154168581101561106e578d0361103a57548015611033575f198101908111611021575b5f528752875f2090610cb833611ec1565b5480610cc48c82612b04565b10610fe7578a610cd391612b04565b610cdc33611ec1565b5583610cef336006850160058601612e5a565b610ee3575b610d02610d0c92548c61217f565b9201918254612b04565b9055610d1734612d2c565b600a340290341591348104600a14831715610ed05760649004610d82575b5050505050855f5b858110610d4957508555005b8254855182815242868201527f96541f70da731142b18e96f1def4d2a7733deb7d784723106d52c1d906d4c67a873392a3018690610d3d565b348b1b348104600214831715610ed05760649004928034029034820414831715610ed057606490049360053402923484046005141715610ebf57507f5b3735d487e9342fbcf11df79c2146f60ffabadb4d2e31ced107fe4346cd21ef9460649092049392610e42929091506001600160a01b0381168015159081610eb4575b5080610eab575b610e9a575b5082151580610e5d575b5083610e4f575b87519384934292859094939260609260808301968352602083015260408201520152565b0390a18680808080610d35565b610e5884613015565b610e1e565b610e68575b8b610e17565b7f6eac9fa4c5b54637971e9ed2cb39933d7d2d10c9438ff8ccf4e61a4e6c5cfa1b888051858152428a820152a1610e62565b610ea5903390612ed0565b8b610e0d565b50811515610e08565b90503314158d610e01565b601190634e487b7160e01b5f52525ffd5b50634e487b7160e01b5f90815260118552fd5b505f8051602061322483398151915280548d8101808211610fd5578111610f9a57908d91878501928354908101808211610f885710610f4d57610f2590612336565b90558054908d8201809211610f3b575583610cf4565b84601188634e487b7160e01b5f52525ffd5b508a5162461bcd60e51b81528088018b905260158187015274506c6179657220636f756e74206f766572666c6f7760581b6044820152606490fd5b8760118b634e487b7160e01b5f52525ffd5b8a5162461bcd60e51b81528088018b905260168187015275546f74616c20706c6179657273206f766572666c6f7760501b6044820152606490fd5b85601189634e487b7160e01b5f52525ffd5b895162461bcd60e51b81528087018a9052601581860152745469636b657420636f756e74206f766572666c6f7760581b6044820152606490fd5b83601187634e487b7160e01b5f52525ffd5b505f610ca7565b895162461bcd60e51b81528087018a9052600f818601526e47616d65206e6f742061637469766560881b6044820152606490fd5b84602188634e487b7160e01b5f52525ffd5b965061108a6128ba565b611092612b11565b86545f198101908111611021575f52808852885f2096610c7e565b506002880154421015610c79565b83602187634e487b7160e01b5f52525ffd5b95506110d7612b11565b8a545f1981019081116110f2575f52858752875f2095610c5d565b82601186634e487b7160e01b5f52525ffd5b84601183634e487b7160e01b5f52525ffd5b505f610c29565b835162461bcd60e51b815260208189015260158185015274125b98dbdc9c9958dd08185b5bdd5b9d081cd95b9d605a1b6044820152606490fd5b825162461bcd60e51b81526020818801526023818401527f5469636b657420636f756e74206d75737420626520677265617465722074686160448201526206e20360ec1b6064820152608490fd5b825162461bcd60e51b81526020818801526012818401527147616d65206973206e6f742061637469766560701b6044820152606490fd5b8251633ee5aeb560e01b81528690fd5b903461024657602036600319011261024657600254815163babcc53960e01b81523381850152923590602090849060249082906001600160a01b03165afa9283156112c2577fa1ee125423b04152b9dd94722cb954282038d2a7eedd7d25614dde62761f9bfd93611264915f91611293575b50612064565b5f805160206131e48339815191528054908290559151918252602082015242604082015280606081015b0390a1005b6112b5915060203d6020116112bb575b6112ad8183611f29565b81019061204c565b8561125e565b503d6112a3565b82513d5f823e3d90fd5b5034610246575f366003190112610246576020906112e861210e565b9051908152f35b346102465760c036600319011261024657611308611eab565b906001600160a01b0390602435828116036102465760443582811603610246576064358281160361024657608435828116036102465767ffffffffffffffff9060a4358281116102465761135f9036908301612013565b507ff0c57e16840df040f15088dc2f81fe391c3923bec73e23a9662efc9c229c6a009384549360ff85881c161593851694851580611599575b6001809714908161158f575b159081611586575b5061157657916113f461140492662386f26fc100009594878967ffffffffffffffff198316178b55611557575b50821615156113e7816120ca565b6113ef612e19565b6120ca565b6113fc612e19565b610241612e19565b61140c612e19565b611414612e19565b61141c612e19565b837f9b779b17422d0df92223018b32b4d1fa46e071723d6817e2486d003becc55f0055306bffffffffffffffffffffffff60a01b60025416176002555f80516020613164833981519152908154156114d7575b5055620151805f805160206131e48339815191525560645f805160206132648339815191525561149b57005b7fc7f505b2f371ae2175ee4913f4499e1f2633a7b5936321eed1cdaeb6115181d29260209268ff000000000000000019815416905551908152a1005b828255620151805f805160206131e48339815191525560645f8051602061326483398151915255600760ff19915f805160206131c483398151915287848254161790555f80525f805160206131a48339815191526020525f898120918183558189840155816002840155816003840155820155019081541690558661146f565b68ffffffffffffffffff1916680100000000000000011789558a6113d9565b875163f92ee8a960e01b81528490fd5b905015896113ac565b303b1591506113a4565b5084611398565b5034610246576020366003190112610246576115ba611eab565b5f80516020613244833981519152545f9081525f805160206131a48339815191526020528281206005018054919291906001600160a01b0380841691855b84811061161b575b878761160b88611ec1565b5490825191825215156020820152f35b838361162783856120a1565b90549060031b1c161461163c576001016115f8565b5050505050905061160b6001919084808080611600565b5034610246575f366003190112610246578051905f90826001926001549361167a85611f9d565b90818452602095866001821691825f146117015750506001146116b9575b505061059992916116aa910385611f29565b51928284938452830190611fd5565b9085925060015f525f80516020613204833981519152915f925b8284106116e957505050820101816116aa611698565b8054848a0186015288955087949093019281016116d3565b60ff19168682015292151560051b850190920192508391506116aa9050611698565b9034610246575f366003190112610246577f00000000000000000000000000000000000000000000000000000000000000006001600160a01b0316300361178d57602090517f360894a13ba1a3210667c828492db98dca3e2076cc3735a920a3ca505d382bbc8152f35b5163703e46dd60e11b8152fd5b81600319360112610246576117ad611eab565b60243567ffffffffffffffff81116102465736602382011215610246576117dd9036906024818601359101611f67565b926001600160a01b037f00000000000000000000000000000000000000000000000000000000000000008116308114908115611975575b5061196557611821612be5565b82169181516352d1902d60e01b81526020818681875afa5f9181611931575b5061185c57505051634c9c8ce360e01b81529182015260249150fd5b7f360894a13ba1a3210667c828492db98dca3e2076cc3735a920a3ca505d382bbc94939291949081810361191b5750843b156119055780546001600160a01b0319168317905551907fbc7cd75a20ee27fd9adebab32041f755214dbc6bffa90cc0225b39da2e5c2d3b5f80a28351156118ee5750505f8083602061002195519101845af46118e8612fe6565b91613100565b91509150346118f957005b63b398979f60e01b8152fd5b5051634c9c8ce360e01b81529182015260249150fd5b84602491845191632a87526960e21b8352820152fd5b9091506020813d60201161195d575b8161194d60209383611f29565b8101031261024657519087611840565b3d9150611940565b815163703e46dd60e11b81528490fd5b9050817f360894a13ba1a3210667c828492db98dca3e2076cc3735a920a3ca505d382bbc5416141586611814565b5034610246575f366003190112610246576020905160038152f35b903461024657602036600319011261024657600254815163babcc53960e01b81523381850152923590602090849060249082906001600160a01b03165afa9283156112c2577fdcefbf936a5a84ea694d7c34335e03240bee5f52df414c3b11bc2d6cfd9f324593611a35915f916112935750612064565b5f8051602061316483398151915280549082905591519182526020820152426040820152806060810161128e565b5034610246575f36600319011261024657602090516101008152f35b5034610246575f366003190112610246576020905160028152f35b903461024657602036600319011261024657600254815163babcc53960e01b81523381850152923590602090849060249082906001600160a01b03165afa9283156112c2577f3d7512e44b1904130b04bae66810a9802a47b92035f7277362af508d6463cd2893611b11915f916112935750612064565b5f8051602061326483398151915280549082905591519182526020820152426040820152806060810161128e565b5034610246575f366003190112610246576080905f8051602061316483398151915254905f805160206131e483398151915254905f80516020613264833981519152549060ff5f805160206131c48339815191525416928151948552602085015283015215156060820152f35b5034610246576020366003190112610246576020906001600160a01b03611bd1611eab565b165f5260038252805f20549051908152f35b9034610246576020366003190112610246578135801515928382036102465761002193611c0e612be5565b60ff801983541691161790555f14611c4f5751611c2a81611ef9565b601181527015195cdd08135bd91948115b98589b1959607a1b60208201525b33612c1d565b51611c5981611ef9565b601281527115195cdd08135bd91948111a5cd8589b195960721b6020820152611c49565b5034610246575f3660031901126102465760e0905f80516020613244833981519152545f525f805160206131a4833981519152602052805f20908154916001810154915f805160206131e483398151915254611cd761210e565b90611ce0612306565b9260036005860154950154958151978852602088015286015260608501521515608084015260a083015260c0820152f35b5034610246575f366003190112610246576020905160058152f35b5034610246575f366003190112610246576020905160018152f35b9034610246575f366003190112610246575f80516020613244833981519152548015611dd2575f198101908111610824575b5f525f805160206131a48339815191526020525f209060ff60078301541690600382101561081157506001149081611dc3575b50611db357005b611dbb6128ba565b610021612b11565b60029150015442101581611dac565b505f611d79565b9034610246575f366003190112610246575f8051602061324483398151915254918215611e7c575f198301928311610316575061066b60c0925b805f525f805160206131a4833981519152602052825f2060ff5f805160206131c4833981519152541693600582015460038301549160ff6007611e5461210e565b95015416948151971515885260208801528601526060850152608084015260a0830190611e8a565b5060c0915061066b5f611e13565b906003821015611e975752565b634e487b7160e01b5f52602160045260245ffd5b600435906001600160a01b038216820361024657565b6001600160a01b03165f9081527f54a93883e668f845121f9ed2904459121a66c9b3035aae515f9eb649cbd75b1d6020526040902090565b6040810190811067ffffffffffffffff821117611f1557604052565b634e487b7160e01b5f52604160045260245ffd5b90601f8019910116810190811067ffffffffffffffff821117611f1557604052565b67ffffffffffffffff8111611f1557601f01601f191660200190565b929192611f7382611f4b565b91611f816040519384611f29565b829481845281830111610246578281602093845f960137010152565b90600182811c92168015611fcb575b6020831014611fb757565b634e487b7160e01b5f52602260045260245ffd5b91607f1691611fac565b91908251928382525f5b848110611fff575050825f602080949584010152601f8019910116010190565b602081830181015184830182015201611fdf565b9080601f830112156102465781602061202e93359101611f67565b90565b34610246575f366003190112610246576020604051600a8152f35b90816020910312610246575180151581036102465790565b1561206b57565b60405162461bcd60e51b815260206004820152600e60248201526d139bdd08185d5d1a1bdc9a5e995960921b6044820152606490fd5b80548210156120b6575f5260205f2001905f90565b634e487b7160e01b5f52603260045260245ffd5b156120d157565b60405162461bcd60e51b8152602060048201526015602482015274496e76616c6964206f776e6572206164647265737360581b6044820152606490fd5b5f80516020613244833981519152548015612178575f19810190811161215f575b5f525f805160206131a4833981519152602052600260405f200154804210156121735742810390811161215f5790565b634e487b7160e01b5f52601160045260245ffd5b505f90565b505f61212f565b8181029291811591840414171561215f57565b811561219c570490565b634e487b7160e01b5f52601260045260245ffd5b5f80516020613244833981519152548015612213575f19810190811161215f575f525f805160206131a483398151915260205260405f209081549060018301549260028101549260038201549260ff600760048501549401541691959493929190565b505f80525f805160206131a48339815191526020527f6b812a2f19fa550147a484020a12e3d9b790ae31d5224636c0e516e2a539e68b547f6b812a2f19fa550147a484020a12e3d9b790ae31d5224636c0e516e2a539e68c547f6b812a2f19fa550147a484020a12e3d9b790ae31d5224636c0e516e2a539e68d547f6b812a2f19fa550147a484020a12e3d9b790ae31d5224636c0e516e2a539e68e547f6b812a2f19fa550147a484020a12e3d9b790ae31d5224636c0e516e2a539e68f547f6b812a2f19fa550147a484020a12e3d9b790ae31d5224636c0e516e2a539e692549495939492939192909160ff90911690565b5f80516020613244833981519152545f525f805160206131a4833981519152602052600260405f20015442101590565b5f19811461215f5760010190565b6001600160a01b0390811690811561239d575f8051602061318483398151915280546001600160a01b031981168417909155167f8be0079c531659141344cd1fd0a4f28419497f9722a3daafe3b4186f6b6457e05f80a3565b604051631e4fbdf760e01b81525f6004820152602490fd5b7f9b779b17422d0df92223018b32b4d1fa46e071723d6817e2486d003becc55f0060028154146128a8576002815560ff5f805160206131c483398151915254161561286e575f805160206131648339815191529081549160019280800484148115171561215f573403612831575f805160206132448339815191528054909190801561282a575f19810190811161215f575b5f525f805160206131a483398151915291602090838252604092835f209460ff6007870154169260039384811015611e975715612805575b60ff60078801541684811015611e97578914806127f7575b6127ca575b60ff60078801541684811015611e975789036127945754801561278d575f19810190811161215f575b5f528352835f20906124d633611ec1565b54806124e181612af6565b10612751576124ef90612af6565b6124f833611ec1565b558261250b336006850160058601612e5a565b61267f575b61251f91549201918254612b04565b905561252a34612d2c565b600a340290341591348104600a1483171561215f5760649004612595575b5050845f5b81811061255c57505050505055565b8454845182815242858201527f96541f70da731142b18e96f1def4d2a7733deb7d784723106d52c1d906d4c67a863392a301859061254d565b34871b9034820460021483171561215f57803402903482041483171561215f57606490046005340292348404600514171561215f5761262a60647f5b3735d487e9342fbcf11df79c2146f60ffabadb4d2e31ced107fe4346cd21ef94049282151580612642575b5083612634575b86519384936064429304859094939260609260808301968352602083015260408201520152565b0390a15f80612548565b61263d84613015565b612603565b61264d575b5f6125fc565b7f6eac9fa4c5b54637971e9ed2cb39933d7d2d10c9438ff8ccf4e61a4e6c5cfa1b8780518581524289820152a1612647565b505f8051602061322483398151915280549089820180831161215f57821161271457600484019182548b810180821161215f57106126d8576126c090612336565b905580549189830180931161215f5791905582612510565b875162461bcd60e51b8152600481018890526015602482015274506c6179657220636f756e74206f766572666c6f7760581b6044820152606490fd5b865162461bcd60e51b8152600481018790526016602482015275546f74616c20706c6179657273206f766572666c6f7760501b6044820152606490fd5b855162461bcd60e51b81526004810186905260156024820152745469636b657420636f756e74206f766572666c6f7760581b6044820152606490fd5b505f6124c5565b855162461bcd60e51b815260048101869052600f60248201526e47616d65206e6f742061637469766560881b6044820152606490fd5b95506127d46128ba565b6127dc612b11565b85545f19810190811161215f575f52808452845f209561249c565b506002870154421015612497565b955061280f612b11565b85545f19810190811161215f575f52808452845f209561247f565b505f612447565b60405162461bcd60e51b8152602060048201526015602482015274125b98dbdc9c9958dd08185b5bdd5b9d081cd95b9d605a1b6044820152606490fd5b60405162461bcd60e51b815260206004820152601260248201527147616d65206973206e6f742061637469766560701b6044820152606490fd5b604051633ee5aeb560e01b8152600490fd5b5f8051602061324483398151915280548015612aef575f19810190811161215f575b5f525f805160206131a483398151915290602090828252604092835f209160078301600260ff19825416179055548015155f14612ae8575f19810190811161215f575b5f5282526005835f2001928354928315612ab1575f1984810185811161215f5715612a7e5743019043821161215f575a8351908282019342855244868401524360608401524060808301523360601b60a08301524260b483015260d482015260d48152610100810181811067ffffffffffffffff821117611f15577f46e59b25850fb5875ea16cb7de4c6866327eef1a3f4ff23c27b3c5ad811979dd976060976002957fbc90215e53e674c730aaa25f931a3d27c8fb234665be39704719b8accdde9c4c946129f494895251902006906120a1565b9054865460038089015460049099015488518a81526020810182905242604082015292998a96959194909387939290921b1c6001600160a01b0316907fe1e1092ba644510bf260dc4a6aafc7d680596ffe47d321cdfd3e0540b21ec5a69080606081010390a386519182526020820152426040820152606090a282519384528301524290820152a1565b50606491519062461bcd60e51b82526004820152600d60248201526c496e76616c69642072616e676560981b6044820152fd5b606491519062461bcd60e51b8252600482015260126024820152714e6f20706c617965727320696e2067616d6560701b6044820152fd5b505f61291f565b505f6128dc565b906001820180921161215f57565b9190820180921161215f57565b5f80516020613244833981519152805490815f525f805160206131a4833981519152602052600760405f20838155426001820155612b5d5f805160206131e48339815191525442612b04565b600282015501600160ff19825416179055612b788154612336565b90557f46e59b25850fb5875ea16cb7de4c6866327eef1a3f4ff23c27b3c5ad811979dd606060405183815260016020820152426040820152a15f7f96541f70da731142b18e96f1def4d2a7733deb7d784723106d52c1d906d4c67a604080516103e78152426020820152a3565b5f80516020613184833981519152546001600160a01b03163303612c0557565b60405163118cdaa760e01b8152336004820152602490fd5b90612c577f9dddcc3fcaf43f45f0f0e803aecfbbb4a00d4e572795e63624e60863f229b44e91604051918291604083526040830190611fd5565b4260208301526001600160a01b03909416930390a2565b9081602091031261024657516001600160a01b03811681036102465790565b905f91600190600154612c9f81611f9d565b8083529260209160018116908115612d075750600114612cc0575b50505050565b9293945060015f525f80516020613204833981519152925f935b858510612cf457505050602092500101905f808080612cba565b8054858501840152938201938101612cda565b92505050602093945060ff929192191683830152151560051b0101905f808080612cba565b80612d345750565b5f546001600160a01b039081168015612d7e5760206040518092633581777360e01b82528260048301528180612d6c60248201612c8d565b03915afa5f9181612de8575b50612d83575b505050565b1680612d8d575050565b803b15610246575f91829160405180948180946308638fd160e01b825260606004830152612dbd60648301612c8d565b90336024840152604483015203925af1612dd45750565b67ffffffffffffffff8111611f1557604052565b612e0b91925060203d602011612e12575b612e038183611f29565b810190612c6e565b905f612d78565b503d612df9565b60ff7ff0c57e16840df040f15088dc2f81fe391c3923bec73e23a9662efc9c229c6a005460401c1615612e4857565b604051631afcd79f60e31b8152600490fd5b909160018060a01b0380911691825f528360205260ff60405f205416612ec857805468010000000000000000811015611f1557612e9c916001820181556120a1565b819291549060031b9184831b921b19161790555f5260205260405f20600160ff19825416179055600190565b505050505f90565b6001600160a01b03919082169081151590839082612fd9575b5050612ef3575050565b815f5416918215612d7e576040518093633581777360e01b82528160646020968793846004830152601360248301527210dc9e5c1d1bdb1bdd1d1bd49959995c9c985b606a1b60448301525afa5f9181612fba575b50612f535750505050565b169081612f61575b80612cba565b5f9160448492604051948593849263da46bdad60e01b845260048401528160248401525af1612f91575b80612f5b565b813d8311612fb3575b612fa48183611f29565b81010312610246575f80612f8b565b503d612f9a565b612fd2919250853d8711612e1257612e038183611f29565b905f612f48565b168214159050825f612ee9565b3d15613010573d90612ff782611f4b565b916130056040519384611f29565b82523d5f602084013e565b606090565b8061301d5750565b5f546001600160a01b039081168015612d7e57602060649160405192838092633581777360e01b8252846004830152601060248301526f233ab73239a234b9ba3934b13aba37b960811b60448301525afa5f91816130df575b5061308057505050565b16908161308b575050565b5f80808084865af161309b612fe6565b50156130d35760407f495c3002bc7d0caa928355d3d9493820bf3dd5b333363c341a09948e12a1db0e918151908152426020820152a2565b6130dd9150612d2c565b565b6130f991925060203d602011612e1257612e038183611f29565b905f613076565b90613127575080511561311557602081519101fd5b60405163d6bda27560e01b8152600490fd5b8151158061315a575b613138575090565b604051639996b31560e01b81526001600160a01b039091166004820152602490fd5b50803b1561313056fe54a93883e668f845121f9ed2904459121a66c9b3035aae515f9eb649cbd75b1f9016d09d72d40fdae2fd8ceac6b6234c7706214fd39c1cd1e609a0528c19930054a93883e668f845121f9ed2904459121a66c9b3035aae515f9eb649cbd75b1c54a93883e668f845121f9ed2904459121a66c9b3035aae515f9eb649cbd75b2254a93883e668f845121f9ed2904459121a66c9b3035aae515f9eb649cbd75b20b10e2d527612073b26eecdfd717e6a320cf44b4afac2b0732d9fcbe2b7fa0cf654a93883e668f845121f9ed2904459121a66c9b3035aae515f9eb649cbd75b2554a93883e668f845121f9ed2904459121a66c9b3035aae515f9eb649cbd75b2354a93883e668f845121f9ed2904459121a66c9b3035aae515f9eb649cbd75b21a264697066735822122018e881f160a3a63f747be40756f44a61084a351d5837bf6823da67d6bf18543a64736f6c63430008160033","linkReferences":{}},"methodIdentifiers":{"AD_LOTTERY_FEE_PERCENT()":"4bc2178f","DEVELOPER_FEE_PERCENT()":"14dd2cd1","MAX_BLOCK_DELAY()":"447b5727","MAX_TICKETS_PER_TRANSACTION()":"c61c66dd","MIN_BLOCK_DELAY()":"117559e7","PURCHASE_COOLDOWN()":"c3da0cf3","REFERRAL_FEE_PERCENT()":"3fead80d","TOTAL_FEE_PERCENT()":"a9f77684","UPGRADE_INTERFACE_VERSION()":"ad3cb1cc","autoEndGame()":"0dac1437","buyTicket(address,uint256)":"66a5ef2f","changeGameDuration(uint256)":"65dbb77e","changeMaxTicketsPerPlayer(uint256)":"3deeac70","changeTicketPrice(uint256)":"4630a0ee","checkAndEndGame()":"8b235f19","emergencyPause(string)":"cf5b4fd5","emergencyResume()":"93c87f03","getCompleteGameStatus()":"074fbe76","getContractBalance()":"6f9fb98a","getContractHealth()":"d5a83a4e","getCurrentGameInfo()":"a645e840","getDetailedGameStats()":"e7178dce","getGameConfig()":"22f19172","getGameInfo()":"1746bd1b","getPlayerAnalytics(address)":"a05a1150","getPlayerInfo(address)":"59328401","getRemainingGameTime()":"62444801","initialize(address,address,address,address,address,string)":"5d130ec6","isGameTimeExpired()":"bf77e7c8","lastPurchaseTime(address)":"227a14c1","ownable()":"b38854be","owner()":"8da5cb5b","proxiableUUID()":"52d1902d","registry()":"7b103999","renounceOwnership()":"715018a6","resetPlayerCooldown(address)":"67898fdd","setPurchaseCooldown(uint256)":"74baa131","setRegistry(address)":"a91ee0dc","setTestMode(bool)":"1ff1292f","setTreasuryName(string)":"6b8cd144","testMode()":"cd9ea342","transferOwnership(address)":"f2fde38b","treasuryName()":"53b7acdf","upgradeToAndCall(address,bytes)":"4f1ef286"},"id":5}