{"abi":[{"type":"constructor","inputs":[],"stateMutability":"nonpayable"},{"type":"fallback","stateMutability":"payable"},{"type":"receive","stateMutability":"payable"},{"type":"function","name":"TREASURY_NAME","inputs":[],"outputs":[{"name":"","type":"string","internalType":"string"}],"stateMutability":"view"},{"type":"function","name":"UPGRADE_INTERFACE_VERSION","inputs":[],"outputs":[{"name":"","type":"string","internalType":"string"}],"stateMutability":"view"},{"type":"function","name":"allTimeJackpot","inputs":[],"outputs":[{"name":"","type":"uint256","internalType":"uint256"}],"stateMutability":"view"},{"type":"function","name":"allTimePlayers","inputs":[],"outputs":[{"name":"","type":"uint256","internalType":"uint256"}],"stateMutability":"view"},{"type":"function","name":"buyTicket","inputs":[{"name":"partner","type":"address","internalType":"address"},{"name":"ticketCount","type":"uint256","internalType":"uint256"}],"outputs":[],"stateMutability":"payable"},{"type":"function","name":"buyTicket","inputs":[{"name":"partner","type":"address","internalType":"address"}],"outputs":[],"stateMutability":"payable"},{"type":"function","name":"canStartNewGame","inputs":[],"outputs":[{"name":"","type":"bool","internalType":"bool"}],"stateMutability":"view"},{"type":"function","name":"changeTicketPrice","inputs":[{"name":"price","type":"uint256","internalType":"uint256"}],"outputs":[],"stateMutability":"nonpayable"},{"type":"function","name":"checkAndEndGame","inputs":[],"outputs":[],"stateMutability":"nonpayable"},{"type":"function","name":"currentGame","inputs":[],"outputs":[{"name":"gameNumber","type":"uint256","internalType":"uint256"},{"name":"startTime","type":"uint256","internalType":"uint256"},{"name":"endTime","type":"uint256","internalType":"uint256"},{"name":"jackpot","type":"uint256","internalType":"uint256"},{"name":"playerCount","type":"uint256","internalType":"uint256"},{"name":"state","type":"uint8","internalType":"enum BaseGame.GameState"}],"stateMutability":"view"},{"type":"function","name":"emergencyPause","inputs":[],"outputs":[],"stateMutability":"nonpayable"},{"type":"function","name":"emergencyResume","inputs":[],"outputs":[],"stateMutability":"nonpayable"},{"type":"function","name":"emergencyWithdraw","inputs":[],"outputs":[],"stateMutability":"nonpayable"},{"type":"function","name":"fee","inputs":[],"outputs":[{"name":"","type":"uint8","internalType":"uint8"}],"stateMutability":"view"},{"type":"function","name":"fundsDistributor","inputs":[],"outputs":[{"name":"","type":"address","internalType":"address"}],"stateMutability":"view"},{"type":"function","name":"gType","inputs":[],"outputs":[{"name":"","type":"uint8","internalType":"uint8"}],"stateMutability":"view"},{"type":"function","name":"gameDuration","inputs":[],"outputs":[{"name":"","type":"uint256","internalType":"uint256"}],"stateMutability":"view"},{"type":"function","name":"getContractBalance","inputs":[],"outputs":[{"name":"","type":"uint256","internalType":"uint256"}],"stateMutability":"view"},{"type":"function","name":"getCurrentGameInfo","inputs":[],"outputs":[{"name":"gameNumber","type":"uint256","internalType":"uint256"},{"name":"startTime","type":"uint256","internalType":"uint256"},{"name":"endTime","type":"uint256","internalType":"uint256"},{"name":"jackpot","type":"uint256","internalType":"uint256"},{"name":"playerCount","type":"uint256","internalType":"uint256"},{"name":"state","type":"uint8","internalType":"enum BaseGame.GameState"}],"stateMutability":"view"},{"type":"function","name":"getCurrentGamePlayerInfo","inputs":[{"name":"player","type":"address","internalType":"address"}],"outputs":[{"name":"ticketsInCurrentGame","type":"uint256","internalType":"uint256"},{"name":"isInCurrentGame","type":"bool","internalType":"bool"}],"stateMutability":"view"},{"type":"function","name":"getCurrentGamePlayers","inputs":[],"outputs":[{"name":"","type":"address[]","internalType":"address[]"}],"stateMutability":"view"},{"type":"function","name":"getCurrentGameState","inputs":[],"outputs":[{"name":"","type":"uint8","internalType":"enum BaseGame.GameState"}],"stateMutability":"view"},{"type":"function","name":"getCurrentGameTicketCount","inputs":[],"outputs":[{"name":"","type":"uint256","internalType":"uint256"}],"stateMutability":"view"},{"type":"function","name":"getGameInfo","inputs":[],"outputs":[{"name":"currentGameNumber","type":"uint256","internalType":"uint256"},{"name":"startTime","type":"uint256","internalType":"uint256"},{"name":"duration","type":"uint256","internalType":"uint256"},{"name":"remainingTime","type":"uint256","internalType":"uint256"},{"name":"timeExpired","type":"bool","internalType":"bool"},{"name":"playerCount","type":"uint256","internalType":"uint256"},{"name":"currentJackpot","type":"uint256","internalType":"uint256"}],"stateMutability":"view"},{"type":"function","name":"getGameJackpot","inputs":[{"name":"playedGame","type":"uint256","internalType":"uint256"}],"outputs":[{"name":"","type":"uint256","internalType":"uint256"}],"stateMutability":"view"},{"type":"function","name":"getPlayedGameJackpot","inputs":[],"outputs":[{"name":"","type":"uint256","internalType":"uint256"}],"stateMutability":"view"},{"type":"function","name":"getPlayedGamePlayers","inputs":[],"outputs":[{"name":"","type":"uint256","internalType":"uint256"}],"stateMutability":"view"},{"type":"function","name":"getPlayerTicketCount","inputs":[{"name":"player","type":"address","internalType":"address"}],"outputs":[{"name":"","type":"uint256","internalType":"uint256"}],"stateMutability":"view"},{"type":"function","name":"getPlayersInGame","inputs":[{"name":"playedGame","type":"uint256","internalType":"uint256"}],"outputs":[{"name":"","type":"uint256","internalType":"uint256"}],"stateMutability":"view"},{"type":"function","name":"getRemainingGameTime","inputs":[],"outputs":[{"name":"","type":"uint256","internalType":"uint256"}],"stateMutability":"view"},{"type":"function","name":"getTreasuryBalanceInfo","inputs":[],"outputs":[{"name":"totalBalance","type":"uint256","internalType":"uint256"},{"name":"reservedBalance","type":"uint256","internalType":"uint256"},{"name":"availableBalance","type":"uint256","internalType":"uint256"},{"name":"lastUpdate","type":"uint256","internalType":"uint256"},{"name":"isActive","type":"bool","internalType":"bool"}],"stateMutability":"view"},{"type":"function","name":"getTreasuryInfo","inputs":[],"outputs":[{"name":"treasuryManagerAddress","type":"address","internalType":"address"},{"name":"treasuryName","type":"string","internalType":"string"}],"stateMutability":"view"},{"type":"function","name":"initialize","inputs":[{"name":"owner","type":"address","internalType":"address"},{"name":"ownableContract","type":"address","internalType":"address"},{"name":"distributor","type":"address","internalType":"address"},{"name":"statsA","type":"address","internalType":"address"},{"name":"referralSystem","type":"address","internalType":"address"},{"name":"_treasuryManager","type":"address","internalType":"address"}],"outputs":[],"stateMutability":"nonpayable"},{"type":"function","name":"isActive","inputs":[],"outputs":[{"name":"","type":"bool","internalType":"bool"}],"stateMutability":"view"},{"type":"function","name":"isGameTimeExpired","inputs":[],"outputs":[{"name":"","type":"bool","internalType":"bool"}],"stateMutability":"view"},{"type":"function","name":"maxTicketsPerPlayer","inputs":[],"outputs":[{"name":"","type":"uint256","internalType":"uint256"}],"stateMutability":"view"},{"type":"function","name":"newPrice","inputs":[],"outputs":[{"name":"","type":"uint256","internalType":"uint256"}],"stateMutability":"view"},{"type":"function","name":"nextGameStartTime","inputs":[],"outputs":[{"name":"","type":"uint256","internalType":"uint256"}],"stateMutability":"view"},{"type":"function","name":"ownable","inputs":[],"outputs":[{"name":"","type":"address","internalType":"contract IOwnable"}],"stateMutability":"view"},{"type":"function","name":"owner","inputs":[],"outputs":[{"name":"","type":"address","internalType":"address"}],"stateMutability":"view"},{"type":"function","name":"paidToPartners","inputs":[],"outputs":[{"name":"","type":"uint256","internalType":"uint256"}],"stateMutability":"view"},{"type":"function","name":"playerTicketCount","inputs":[{"name":"","type":"address","internalType":"address"}],"outputs":[{"name":"","type":"uint256","internalType":"uint256"}],"stateMutability":"view"},{"type":"function","name":"proxiableUUID","inputs":[],"outputs":[{"name":"","type":"bytes32","internalType":"bytes32"}],"stateMutability":"view"},{"type":"function","name":"randomNumber","inputs":[{"name":"min","type":"uint256","internalType":"uint256"},{"name":"max","type":"uint256","internalType":"uint256"},{"name":"time","type":"uint256","internalType":"uint256"},{"name":"difficulty","type":"uint256","internalType":"uint256"},{"name":"number","type":"uint256","internalType":"uint256"},{"name":"bHash","type":"bytes32","internalType":"bytes32"}],"outputs":[{"name":"","type":"uint256","internalType":"uint256"}],"stateMutability":"pure"},{"type":"function","name":"referralInstance","inputs":[],"outputs":[{"name":"","type":"address","internalType":"contract ICryptolottoReferral"}],"stateMutability":"view"},{"type":"function","name":"renounceOwnership","inputs":[],"outputs":[],"stateMutability":"nonpayable"},{"type":"function","name":"setFee","inputs":[{"name":"newFee","type":"uint8","internalType":"uint8"}],"outputs":[],"stateMutability":"nonpayable"},{"type":"function","name":"setMaxTicketsPerPlayer","inputs":[{"name":"maxTickets","type":"uint256","internalType":"uint256"}],"outputs":[],"stateMutability":"nonpayable"},{"type":"function","name":"setReferralInstance","inputs":[{"name":"newReferralInstance","type":"address","internalType":"address"}],"outputs":[],"stateMutability":"nonpayable"},{"type":"function","name":"setTicketPrice","inputs":[{"name":"newTicketPrice","type":"uint256","internalType":"uint256"}],"outputs":[],"stateMutability":"nonpayable"},{"type":"function","name":"setTreasuryManager","inputs":[{"name":"newTreasuryManager","type":"address","internalType":"address"}],"outputs":[],"stateMutability":"nonpayable"},{"type":"function","name":"stats","inputs":[],"outputs":[{"name":"","type":"address","internalType":"contract ICryptolottoStatsAggregator"}],"stateMutability":"view"},{"type":"function","name":"ticketPrice","inputs":[],"outputs":[{"name":"","type":"uint256","internalType":"uint256"}],"stateMutability":"view"},{"type":"function","name":"toggleGame","inputs":[],"outputs":[],"stateMutability":"nonpayable"},{"type":"function","name":"toogleActive","inputs":[],"outputs":[],"stateMutability":"nonpayable"},{"type":"function","name":"toogleStatus","inputs":[],"outputs":[{"name":"","type":"bool","internalType":"bool"}],"stateMutability":"view"},{"type":"function","name":"transferOwnership","inputs":[{"name":"newOwner","type":"address","internalType":"address"}],"outputs":[],"stateMutability":"nonpayable"},{"type":"function","name":"treasuryManager","inputs":[],"outputs":[{"name":"","type":"address","internalType":"contract ITreasuryManager"}],"stateMutability":"view"},{"type":"function","name":"treasuryName","inputs":[],"outputs":[{"name":"","type":"string","internalType":"string"}],"stateMutability":"view"},{"type":"function","name":"upgradeToAndCall","inputs":[{"name":"newImplementation","type":"address","internalType":"address"},{"name":"data","type":"bytes","internalType":"bytes"}],"outputs":[],"stateMutability":"payable"},{"type":"event","name":"GameEnded","inputs":[{"name":"gameNumber","type":"uint256","indexed":true,"internalType":"uint256"},{"name":"timestamp","type":"uint256","indexed":false,"internalType":"uint256"}],"anonymous":false},{"type":"event","name":"GameStarted","inputs":[{"name":"gameNumber","type":"uint256","indexed":true,"internalType":"uint256"},{"name":"timestamp","type":"uint256","indexed":false,"internalType":"uint256"}],"anonymous":false},{"type":"event","name":"GameStateChanged","inputs":[{"name":"gameNumber","type":"uint256","indexed":true,"internalType":"uint256"},{"name":"state","type":"uint8","indexed":false,"internalType":"enum BaseGame.GameState"},{"name":"timestamp","type":"uint256","indexed":false,"internalType":"uint256"}],"anonymous":false},{"type":"event","name":"GameStatusChanged","inputs":[{"name":"_isActive","type":"bool","indexed":false,"internalType":"bool"},{"name":"_time","type":"uint256","indexed":false,"internalType":"uint256"}],"anonymous":false},{"type":"event","name":"Initialized","inputs":[{"name":"version","type":"uint64","indexed":false,"internalType":"uint64"}],"anonymous":false},{"type":"event","name":"OwnershipTransferred","inputs":[{"name":"previousOwner","type":"address","indexed":true,"internalType":"address"},{"name":"newOwner","type":"address","indexed":true,"internalType":"address"}],"anonymous":false},{"type":"event","name":"PartnerPaid","inputs":[{"name":"_partner","type":"address","indexed":true,"internalType":"address"},{"name":"_referral","type":"address","indexed":false,"internalType":"address"},{"name":"_amount","type":"uint256","indexed":false,"internalType":"uint256"},{"name":"_time","type":"uint256","indexed":false,"internalType":"uint256"}],"anonymous":false},{"type":"event","name":"SalesPartnerPaid","inputs":[{"name":"_salesPartner","type":"address","indexed":true,"internalType":"address"},{"name":"_partner","type":"address","indexed":false,"internalType":"address"},{"name":"_amount","type":"uint256","indexed":false,"internalType":"uint256"},{"name":"_time","type":"uint256","indexed":false,"internalType":"uint256"}],"anonymous":false},{"type":"event","name":"TicketPriceChanged","inputs":[{"name":"oldPrice","type":"uint256","indexed":false,"internalType":"uint256"},{"name":"newPrice","type":"uint256","indexed":false,"internalType":"uint256"},{"name":"timestamp","type":"uint256","indexed":false,"internalType":"uint256"}],"anonymous":false},{"type":"event","name":"TicketPurchased","inputs":[{"name":"player","type":"address","indexed":true,"internalType":"address"},{"name":"gameNumber","type":"uint256","indexed":true,"internalType":"uint256"},{"name":"ticketCount","type":"uint256","indexed":false,"internalType":"uint256"},{"name":"totalAmount","type":"uint256","indexed":false,"internalType":"uint256"}],"anonymous":false},{"type":"event","name":"TreasuryFundsDeposited","inputs":[{"name":"amount","type":"uint256","indexed":false,"internalType":"uint256"},{"name":"timestamp","type":"uint256","indexed":false,"internalType":"uint256"}],"anonymous":false},{"type":"event","name":"TreasuryFundsWithdrawn","inputs":[{"name":"recipient","type":"address","indexed":true,"internalType":"address"},{"name":"amount","type":"uint256","indexed":false,"internalType":"uint256"},{"name":"timestamp","type":"uint256","indexed":false,"internalType":"uint256"}],"anonymous":false},{"type":"event","name":"TreasuryManagerUpdated","inputs":[{"name":"oldManager","type":"address","indexed":true,"internalType":"address"},{"name":"newManager","type":"address","indexed":true,"internalType":"address"},{"name":"_time","type":"uint256","indexed":false,"internalType":"uint256"}],"anonymous":false},{"type":"event","name":"TreasuryOperationFailed","inputs":[{"name":"operation","type":"string","indexed":false,"internalType":"string"},{"name":"timestamp","type":"uint256","indexed":false,"internalType":"uint256"}],"anonymous":false},{"type":"event","name":"Upgraded","inputs":[{"name":"implementation","type":"address","indexed":true,"internalType":"address"}],"anonymous":false},{"type":"event","name":"WinnerSelected","inputs":[{"name":"winner","type":"address","indexed":true,"internalType":"address"},{"name":"gameNumber","type":"uint256","indexed":true,"internalType":"uint256"},{"name":"jackpot","type":"uint256","indexed":false,"internalType":"uint256"},{"name":"timestamp","type":"uint256","indexed":false,"internalType":"uint256"}],"anonymous":false},{"type":"error","name":"AddressEmptyCode","inputs":[{"name":"target","type":"address","internalType":"address"}]},{"type":"error","name":"ERC1967InvalidImplementation","inputs":[{"name":"implementation","type":"address","internalType":"address"}]},{"type":"error","name":"ERC1967NonPayable","inputs":[]},{"type":"error","name":"FailedCall","inputs":[]},{"type":"error","name":"InvalidInitialization","inputs":[]},{"type":"error","name":"NotInitializing","inputs":[]},{"type":"error","name":"OwnableInvalidOwner","inputs":[{"name":"owner","type":"address","internalType":"address"}]},{"type":"error","name":"OwnableUnauthorizedAccount","inputs":[{"name":"account","type":"address","internalType":"address"}]},{"type":"error","name":"ReentrancyGuardReentrantCall","inputs":[]},{"type":"error","name":"UUPSUnauthorizedCallContext","inputs":[]},{"type":"error","name":"UUPSUnsupportedProxiableUUID","inputs":[{"name":"slot","type":"bytes32","internalType":"bytes32"}]}],"bytecode":{"object":"0x60a08060405234620000d157306080527ff0c57e16840df040f15088dc2f81fe391c3923bec73e23a9662efc9c229c6a009081549060ff8260401c16620000c257506001600160401b036002600160401b0319828216016200007c575b604051613adb9081620000d68239608051818181611e660152611fea0152f35b6001600160401b031990911681179091556040519081527fc7f505b2f371ae2175ee4913f4499e1f2633a7b5936321eed1cdaeb6115181d290602090a15f80806200005c565b63f92ee8a960e01b8152600490fd5b5f80fdfe6080806040526004361015610028575b5036156100205761001e612a43565b005b61001e612a43565b5f905f3560e01c908163077e829d1461264b575080630d8c1a621461258b5780631209b1f61461256e57806315981650146124af57806316521a2b146124915780631746bd1b146124395780631a89a43b1461240157806322f3e2d4146123df5780632ef5c784146123c257806337a78361146122de5780633cea70d9146122b65780634630a0ee146121b357806347ddf87e146121965780634f1ef28614611f6f57806350e1a19b14611f4057806351858e2714611eed57806351df9db914611ed057806352d1902d14611e5457806353b7acdf14611d7657806360b663bb14611d3f5780636244480114611d1d578063650b147d14611d0057806366a5ef2f146117f05780636f9fb98a146117d4578063715018a61461176b57806374796cc21461174c57806374cb55fb146117235780637d96ea96146117055780637fd60e42146116da57806385b75b1e146116b45780638897c1f4146115c65780638b235f191461158f5780638da5cb5b1461155a57806393c87f0314611501578063a46d11dc146114e1578063a5f8cdbb14610ece578063a645e84014610e96578063a7ea9a6014610e71578063ad3cb1cc14610e2b578063b38854be14610e02578063bf77e7c814610de1578063bfebf53014610d5a578063c293947114610d14578063c3a151de14610cf6578063c6ab848a14610ccd578063c758f2f214610c54578063cb122a0914610bcd578063cc2a9a5b14610696578063cee3b9b91461065d578063cf4e593a1461063f578063d0b2dab514610621578063d1c45f381461058b578063d80528ae14610562578063db2e21bc1461049a578063ddca3f4314610477578063e1f0c37614610459578063ea135ad7146103a6578063f2fde38b14610379578063f83fd805146103515763fe47a9f20361000f573461034e57602036600319011261034e576102dd612665565b6102e5612f24565b6001600160a01b0316801561030a576001600160601b0360a01b601654161760165580f35b606460405162461bcd60e51b815260206004820152602060248201527f496e76616c6964207472656173757279206d616e6167657220616464726573736044820152fd5b80fd5b503461034e578060031936011261034e57602060ff600e54166103776040518092612800565bf35b503461034e57602036600319011261034e576103a3610396612665565b61039e612f24565b6129d2565b80f35b503461034e578060031936011261034e576040518091600f549081835260208093018092600f83525f80516020613a8683398151915290835b81811061043c57505050846103f5910385612713565b60405193838594850191818652518092526040850193925b82811061041c57505050500390f35b83516001600160a01b03168552869550938101939281019260010161040d565b82546001600160a01b0316845292860192600192830192016103df565b503461034e578060031936011261034e576020600154604051908152f35b503461034e578060031936011261034e5760ff6020915460081c16604051908152f35b503461034e578060031936011261034e576104b3612f24565b478015610526575f80516020613a468339815191525482918291829182916001600160a01b03165af16104e46129a3565b50156104ed5780f35b60405162461bcd60e51b815260206004820152601160248201527015da5d1a191c985dd85b0819985a5b1959607a1b6044820152606490fd5b60405162461bcd60e51b81526020600482015260146024820152734e6f2066756e647320746f20776974686472617760601b6044820152606490fd5b503461034e578060031936011261034e576013546040516001600160a01b039091168152602090f35b503461034e57602036600319011261034e576105a5612665565b6105ad612f24565b6001600160a01b031680156105d2576001600160601b0360a01b601454161760145580f35b60405162461bcd60e51b815260206004820152602160248201527f496e76616c696420726566657272616c20696e7374616e6365206164647265736044820152607360f81b6064820152608490fd5b503461034e578060031936011261034e576020601054604051908152f35b503461034e578060031936011261034e576020600c54604051908152f35b503461034e57602036600319011261034e576020906040906001600160a01b03610685612665565b168152601183522054604051908152f35b503461034e5760c036600319011261034e576106b0612665565b906001600160a01b0360248035828116939290849003610bc95760443591818316809303610bc95760643593828516809503610bc95760843593838516809503610bc95760a435848116809103610bc9577ff0c57e16840df040f15088dc2f81fe391c3923bec73e23a9662efc9c229c6a009788549660ff8860401c16159867ffffffffffffffff988981169c8d1580610bc2575b60019e8f149081610bb8575b159081610baf575b50610b9d5767ffffffffffffffff1982168e178d55610791918c610b7e575b506107816135a5565b6107896135a5565b61039e6135a5565b6107996135a5565b6107a16135a5565b6107a96135a5565b8b5f80516020613a6683398151915255610a0461ffff19875416178655620151808c5566470de4df820000600255606460045560ff19948c8660085416176008556001600160601b0360a01b93846012541617601255836015541617601555826013541617601355816014541617601455610822612751565b805190888211610b6b5781906108396017546127c8565b601f8111610b12575b50602090601f8311600114610a8a578792610a7f575b50505f19600383901b1c1916908b1b176017555b8115610a3b5760165416176016556108858854426128ed565b9160405192610893846126f7565b81845260c06040516108a4816126a3565b8b81524260208201528260408201528360608201528360808201528b60a0820152019384528960095542600a55600b5580600c558080600d55610a2857508790600e541617600e5551908151938411610a1557600160401b8411610a155750602090600f5484600f558085106109f2575b500190600f5f52855f5b8481106109d057508585600b54601055600954807fa2dfaa3573b86004ec9d4d4abe5068d942579c59da4da8cd0d9e45e71a393bc16020604051428152a27f46e59b25850fb5875ea16cb7de4c6866327eef1a3f4ff23c27b3c5ad811979dd60408051868152426020820152a261099257005b805468ff0000000000000000191690556040519081527fc7f505b2f371ae2175ee4913f4499e1f2633a7b5936321eed1cdaeb6115181d290602090a1005b602083855116940193815f80516020613a86833981519152015501869061091f565b610a0f90855f80516020613a868339815191529182019101612969565b5f610915565b634e487b7160e01b5f9081526041600452fd5b634e487b7160e01b815260216004528390fd5b60405162461bcd60e51b815260206004820152601c818701527f5472656173757279206d616e61676572206973207265717569726564000000006044820152606490fd5b015190505f80610858565b601788528d93507fc624b66cc0138b8fabc209247f72d758e1cf3343756d543badbf24212bed8c159190601f198416895b818110610af057508411610ad8575b505050811b0160175561086c565b01515f1960f88460031b161c191690555f8080610aca565b93839596602092939491839286015181550195019301908f9594939291610abb565b610b5b90601789527fc624b66cc0138b8fabc209247f72d758e1cf3343756d543badbf24212bed8c15601f850160051c81019160208610610b61575b601f0160051c0190612969565b5f610842565b9091508190610b4e565b634e487b7160e01b865260416004528686fd5b68ffffffffffffffffff191668010000000000000001178d555f610778565b60405163f92ee8a960e01b8152600490fd5b9050155f610759565b303b159150610751565b508b610745565b5f80fd5b503461034e57602036600319011261034e5760043560ff8116808203610c5057601490610bf8612f24565b11610c135761ff0082549160081b169061ff00191617815580f35b60405162461bcd60e51b81526020600482015260156024820152744665652063616e6e6f74206578636565642032302560581b6044820152606490fd5b8280fd5b503461034e57602036600319011261034e57600435610c71612f24565b8015610c7d5760045580f35b60405162461bcd60e51b815260206004820152602260248201527f4d6178207469636b657473206d7573742062652067726561746572207468616e604482015261020360f41b6064820152608490fd5b503461034e578060031936011261034e576014546040516001600160a01b039091168152602090f35b503461034e578060031936011261034e576020600f54604051908152f35b503461034e578060031936011261034e576016546001600160a01b0316610d39612751565b90610d56604051928392835260406020840152604083019061278a565b0390f35b503461034e57602036600319011261034e57610d74612665565b600f54919081906001600160a01b0390811690825b858110610daf575b60408581868681526011602052205490825191825215156020820152f35b8282610dba8361291e565b90549060031b1c1614610dcf57600101610d89565b5060409450600193508490505f610d91565b503461034e578060031936011261034e576020600b54421015604051908152f35b503461034e578060031936011261034e576012546040516001600160a01b039091168152602090f35b503461034e578060031936011261034e57610d56604051610e4b816126db565b60058152640352e302e360dc1b602082015260405191829160208352602083019061278a565b503461034e578060031936011261034e576020610e8c6128fa565b6040519015158152f35b503461034e578060031936011261034e57600954600a5490610d56600b54600c54600d549060ff600e5416926040519687968761280d565b50602036600319011261034e57610ee3612665565b60025f80516020613a6683398151915254146114cf5760025f80516020613a668339815191525560ff6008541615611495573382526011906011602052610f2d60408420546128df565b60045410611445573315611407576001600160a01b03811633146113b657600990600b54421015806113ab575b61139c575b60ff60058301541660039060038110156113765760010361138a575b60ff60058401541660038110156113765760010361133f57610f9e60025461297f565b34036113015760165485906001600160a01b0316610fba612751565b90803b15610c50576040516308638fd160e01b81529183918391829084908290610feb903490339060048501612f5c565b03925af18015611205576112ed575b50506003830161100b3482546128ed565b90557fbec1a08e6dcd95f4cbb560bf9010af9efaf4b5b424d78d43652646cdc7726ec860408051348152426020820152a16004830161104a81546128df565b905533855260116020526040852061106281546128df565b90556001600684015491865b8381106112b8575b5050611260575b50835b600181106111185750508054600684920154925f198401938411925b600181106110b9578560015f80516020613a668339815191525580f35b836111045780836110cc600193886128ed565b6040519081524260208201527f96541f70da731142b18e96f1def4d2a7733deb7d784723106d52c1d906d4c67a60403392a30161109c565b634e487b7160e01b86526004829052602486fd5b60145460405163afb2615960e01b815233600482015286916001600160a01b031690602081602481855afa908115611255578391611226575b506001600160a01b03851615801590611214575b611175575b505050600101611080565b6001600160a01b0316156111ab575b505060019081600f541161119d575b9050845f8061116a565b6111a6336135e6565b611193565b803b1561121057604051630b5c3f8760e01b81526001600160a01b03851660048201523360248201529082908290604490829084905af180156112055715611184576111f69061267b565b61120157845f611184565b8480fd5b6040513d84823e3d90fd5b5080fd5b506001600160a01b0381161515611165565b611248915060203d60201161124e575b6112408183612713565b8101906132da565b5f611151565b503d611236565b6040513d85823e3d90fd5b600160401b8110156112a4578060016112829201600685015560068401612954565b81546001600160a01b0360039290921b91821b19163390911b1790555f61107d565b634e487b7160e01b85526041600452602485fd5b6112c58160068801612954565b905490831b1c6001600160a01b031633146112e25760010161106e565b505050845f80611076565b6112f69061267b565b61120157845f610ffa565b60405162461bcd60e51b8152602060048201526016602482015275496e636f7272656374207469636b657420707269636560501b6044820152606490fd5b60405162461bcd60e51b815260206004820152600f60248201526e47616d65206e6f742061637469766560881b6044820152606490fd5b634e487b7160e01b86526021600452602486fd5b915061139461302b565b600991610f7b565b906113a5612f88565b90610f5f565b50600f541515610f5a565b60405162461bcd60e51b8152602060048201526024808201527f506172746e65722063616e6e6f74206265207468652073616d65206173207365604482015263373232b960e11b6064820152608490fd5b60405162461bcd60e51b8152602060048201526016602482015275496e76616c69642073656e646572206164647265737360501b6044820152606490fd5b60405162461bcd60e51b815260206004820152602260248201527f45786365656473206d6178696d756d207469636b6574732070657220706c617960448201526132b960f11b6064820152608490fd5b60405162461bcd60e51b815260206004820152601260248201527147616d65206973206e6f742061637469766560701b6044820152606490fd5b604051633ee5aeb560e01b8152600490fd5b503461034e578060031936011261034e5760ff6020915416604051908152f35b503461034e578060031936011261034e5761151a612f24565b600160ff1960085416176008557fab902d5e35692da6951814ae9cd62a7d029bf24a75023ad2a3cc2e83f6437b116040805160018152426020820152a180f35b503461034e578060031936011261034e575f80516020613a46833981519152546040516001600160a01b039091168152602090f35b503461034e578060031936011261034e57600b54421015806115bb575b6115b35780f35b6103a3612f88565b50600f5415156115ac565b503461034e5760c036600319011261034e576115e36004356128b3565b6115ee6024356128b3565b90600a604051602081019060443582526064356040820152608435606082015260a435608082015260808152611623816126bf565b51902006600181018091116116905781611664611669926040516020810191825260208152611651816126db565b51902061165e86846128ed565b906128c1565b612888565b918083116116ac575b508082106116a4575b50801561169057602090604051905f19018152f35b634e487b7160e01b5f52601160045260245ffd5b90508161167b565b915082611672565b503461034e578060031936011261034e57602060ff60085460081c166040519015158152f35b503461034e578060031936011261034e576116f3612f24565b61010061ff0019600854161760085580f35b503461034e578060031936011261034e576020600454604051908152f35b503461034e578060031936011261034e576015546040516001600160a01b039091168152602090f35b503461034e57602036600319011261034e576020600f54604051908152f35b503461034e578060031936011261034e57611784612f24565b5f80516020613a4683398151915280546001600160a01b031981169091555f906001600160a01b03167f8be0079c531659141344cd1fd0a4f28419497f9722a3daafe3b4186f6b6457e08280a380f35b503461034e578060031936011261034e57602047604051908152f35b506040366003190112610bc957611805612665565b60025f80516020613a6683398151915254146114cf5760025f80516020613a668339815191525560ff60085416156114955760243515611caf576103e860243511611c5f57335f52601160205261186260243560405f20546128ed565b60045410611445573315611407576001600160a01b03811633146113b657600990600b5442101580611c54575b611c45575b60ff6005830154166003906003811015611c1f57600103611c33575b60ff6005840154166003811015611c1f5760010361133f576118d6602435600254612990565b3403611301576016546001600160a01b03166118f0612751565b90803b15610bc9576040516308638fd160e01b8152915f918391829084908290611921903490339060048501612f5c565b03925af18015611c1457611c01575b50600383016119403482546128ed565b90557fbec1a08e6dcd95f4cbb560bf9010af9efaf4b5b424d78d43652646cdc7726ec860408051348152426020820152a16004830161198260243582546128ed565b905533845260116020526040842061199d60243582546128ed565b90556001600684015491855b838110611bcc575b5050611b74575b50825b6024358110611a5657505080546006909101545f1981019190821190835b60243581106119f7578460015f80516020613a668339815191525580f35b82611a42578082611a0a600193876128ed565b6040519081524260208201527f96541f70da731142b18e96f1def4d2a7733deb7d784723106d52c1d906d4c67a60403392a3016119d9565b634e487b7160e01b85526011600452602485fd5b60145460405163afb2615960e01b815233600482015285916001600160a01b031690602081602481855afa908115611255578391611b55575b506001600160a01b03851615801590611b43575b611ab3575b5050506001016119bb565b6001600160a01b031615611ae9575b505060019081600f5411611adb575b9050835f80611aa8565b611ae4336135e6565b611ad1565b803b1561121057604051630b5c3f8760e01b81526001600160a01b03851660048201523360248201529082908290604490829084905af180156112055715611ac257611b349061267b565b611b3f57835f611ac2565b8380fd5b506001600160a01b0381161515611aa3565b611b6e915060203d60201161124e576112408183612713565b5f611a8f565b600160401b811015611bb857806001611b969201600685015560068401612954565b81546001600160a01b0360039290921b91821b19163390911b1790555f6119b8565b634e487b7160e01b84526041600452602484fd5b611bd98160068801612954565b905490831b1c6001600160a01b03163314611bf6576001016119a9565b505050835f806119b1565b611c0c91945061267b565b5f925f611930565b6040513d5f823e3d90fd5b634e487b7160e01b5f52602160045260245ffd5b9150611c3d61302b565b6009916118b0565b90611c4e612f88565b90611894565b50600f54151561188f565b60405162461bcd60e51b815260206004820152602260248201527f5469636b657420636f756e742065786365656473206d6178696d756d206c696d6044820152611a5d60f21b6064820152608490fd5b60405162461bcd60e51b815260206004820152602360248201527f5469636b657420636f756e74206d75737420626520677265617465722074686160448201526206e20360ec1b6064820152608490fd5b34610bc9575f366003190112610bc9576020600754604051908152f35b34610bc9575f366003190112610bc9576020611d37612895565b604051908152f35b34610bc9575f366003190112610bc957600954600a5490610d56600b54600c54600d549060ff600e5416926040519687968761280d565b34610bc9575f366003190112610bc9576040516017545f82611d97836127c8565b91828252602093600190856001821691825f14611e34575050600114611dd9575b50611dc592500383612713565b610d5660405192828493845283019061278a565b84915060175f527fc624b66cc0138b8fabc209247f72d758e1cf3343756d543badbf24212bed8c15905f915b858310611e1c575050611dc5935082010185611db8565b80548389018501528794508693909201918101611e05565b60ff191685820152611dc595151560051b8501019250879150611db89050565b34610bc9575f366003190112610bc9577f00000000000000000000000000000000000000000000000000000000000000006001600160a01b03163003611ebe5760206040517f360894a13ba1a3210667c828492db98dca3e2076cc3735a920a3ca505d382bbc8152f35b60405163703e46dd60e11b8152600490fd5b34610bc9575f366003190112610bc9576020600354604051908152f35b34610bc9575f366003190112610bc957611f05612f24565b60ff19600854166008557fab902d5e35692da6951814ae9cd62a7d029bf24a75023ad2a3cc2e83f6437b11604080515f8152426020820152a1005b34610bc9575f366003190112610bc957610d56611f5b612751565b60405191829160208352602083019061278a565b6040366003190112610bc957611f83612665565b602490813567ffffffffffffffff8111610bc95736602382011215610bc957806004013591611fb183612735565b611fbe6040519182612713565b8381526020938482019336878383010111610bc957815f92888893018737830101526001600160a01b037f00000000000000000000000000000000000000000000000000000000000000008116308114908115612168575b50611ebe57612023612f24565b6040516352d1902d60e01b8152908316948082600481895afa9182915f93612138575b505061206457604051634c9c8ce360e01b8152600481018690528690fd5b8490867f360894a13ba1a3210667c828492db98dca3e2076cc3735a920a3ca505d382bbc918281036121235750843b1561210d575080546001600160a01b03191682179055604051907fbc7cd75a20ee27fd9adebab32041f755214dbc6bffa90cc0225b39da2e5c2d3b5f80a28151156120f357505f61001e9381925190845af46120ed6129a3565b916138ea565b92505050346120fe57005b63b398979f60e01b8152600490fd5b604051634c9c8ce360e01b815260048101849052fd5b60405190632a87526960e21b82526004820152fd5b9080929350813d8311612161575b6121508183612713565b81010312610bc95751908780612046565b503d612146565b9050817f360894a13ba1a3210667c828492db98dca3e2076cc3735a920a3ca505d382bbc5416141587612016565b34610bc9575f366003190112610bc9576020600554604051908152f35b34610bc9576020366003190112610bc9576024600435602060018060a01b03601254166040519384809263babcc53960e01b82523360048301525afa918215611c14575f92612257575b506122287fdcefbf936a5a84ea694d7c34335e03240bee5f52df414c3b11bc2d6cfd9f32459261284b565b60025490806003556122526040519283924291846040919493926060820195825260208201520152565b0390a1005b91506020823d6020116122ae575b8161227260209383612713565b81010312610bc9576122286122a77fdcefbf936a5a84ea694d7c34335e03240bee5f52df414c3b11bc2d6cfd9f32459361283e565b92506121fd565b3d9150612265565b34610bc9575f366003190112610bc9576016546040516001600160a01b039091168152602090f35b34610bc9575f366003190112610bc95760165461232d9060a0906001600160a01b0316612309612751565b90604051808095819463162ae29f60e11b835260206004840152602483019061278a565b03915afa8015611c14575f905f805f915f93612366575b60a0955060405194855260208501526040840152606083015215156080820152f35b505050505060a0813d60a0116123ba575b8161238460a09383612713565b81010312610bc9578060a09151906020810151916040820151916123af60806060830151920161283e565b919392909192612344565b3d9150612377565b34610bc9575f366003190112610bc9576020600654604051908152f35b34610bc9575f366003190112610bc957602060ff600854166040519015158152f35b34610bc9576020366003190112610bc9576001600160a01b03612422612665565b165f526011602052602060405f2054604051908152f35b34610bc9575f366003190112610bc95760e0600954600a5460015461245c612895565b600b5442101590600f5492600c5494604051968752602087015260408601526060850152608084015260a083015260c0820152f35b34610bc9576020366003190112610bc9576020600c54604051908152f35b34610bc9576020366003190112610bc9576004356124cb612f24565b801561251d577fdcefbf936a5a84ea694d7c34335e03240bee5f52df414c3b11bc2d6cfd9f32459060025490806003556122526040519283924291846040919493926060820195825260208201520152565b60405162461bcd60e51b815260206004820152602360248201527f5469636b6574207072696365206d75737420626520677265617465722074686160448201526206e20360ec1b6064820152608490fd5b34610bc9575f366003190112610bc9576020600254604051908152f35b34610bc9575f366003190112610bc95760125460405163babcc53960e01b815233600482015290602090829060249082906001600160a01b03165afa8015611c14575f90612610575b6125de915061284b565b6008805460ff81166125f85750805460ff19166001179055005b61ff0019811690821c60ff1615821b61ff0016179055005b506020813d602011612643575b8161262a60209383612713565b81010312610bc95761263e6125de9161283e565b6125d4565b3d915061261d565b34610bc9575f366003190112610bc957602090600d548152f35b600435906001600160a01b0382168203610bc957565b67ffffffffffffffff811161268f57604052565b634e487b7160e01b5f52604160045260245ffd5b60e0810190811067ffffffffffffffff82111761268f57604052565b60a0810190811067ffffffffffffffff82111761268f57604052565b6040810190811067ffffffffffffffff82111761268f57604052565b6020810190811067ffffffffffffffff82111761268f57604052565b90601f8019910116810190811067ffffffffffffffff82111761268f57604052565b67ffffffffffffffff811161268f57601f01601f191660200190565b6040519061275e826126db565b601882527f756e697175655f746573745f6c6f74746572795f3164617900000000000000006020830152565b91908251928382525f5b8481106127b4575050825f602080949584010152601f8019910116010190565b602081830181015184830182015201612794565b90600182811c921680156127f6575b60208310146127e257565b634e487b7160e01b5f52602260045260245ffd5b91607f16916127d7565b906003821015611c1f5752565b919360a09361283c969298979560c0850199855260208501526040840152606083015260808201520190612800565b565b51908115158203610bc957565b1561285257565b60405162461bcd60e51b815260206004820152600e60248201526d139bdd08185d5d1a1bdc9a5e995960921b6044820152606490fd5b9190820391821161169057565b600b54804210156128ae576128ab904290612888565b90565b505f90565b5f1981146116905760010190565b81156128cb570690565b634e487b7160e01b5f52601260045260245ffd5b906001820180921161169057565b9190820180921161169057565b601054421015806129085790565b5060ff600e54166003811015611c1f5760021490565b600f5481101561294057600f5f525f80516020613a8683398151915201905f90565b634e487b7160e01b5f52603260045260245ffd5b8054821015612940575f5260205f2001905f90565b818110612974575050565b5f8155600101612969565b908115600183800414171561169057565b8181029291811591840414171561169057565b3d156129cd573d906129b482612735565b916129c26040519384612713565b82523d5f602084013e565b606090565b6001600160a01b03908116908115612a2b575f80516020613a4683398151915280546001600160a01b031981168417909155167f8be0079c531659141344cd1fd0a4f28419497f9722a3daafe3b4186f6b6457e05f80a3565b604051631e4fbdf760e01b81525f6004820152602490fd5b5f5f80516020613a6683398151915260028154146114cf576002815560ff600854161561149557335f52601160209060118252604091612a85835f20546128df565b92600493845410612ed8573315612e9e57600993600b5442101580612e93575b612e84575b60ff600586015416966003956003891015612e71576001809903612e61575b60ff6005820154166003811015612e4e578903612e1957612aeb60025461297f565b3403612ddd576016546001600160a01b03908116612b07612751565b90803b15610bc95786516308638fd160e01b8152915f918391829084908290612b3690349033908e8501612f5c565b03925af18015612dd357612dc0575b5060038201612b553482546128ed565b90557fbec1a08e6dcd95f4cbb560bf9010af9efaf4b5b424d78d43652646cdc7726ec88580513481524289820152a1838201612b9181546128df565b905533835260118652848320612ba781546128df565b9055899760068301988954918c865b858d868310612d92575b5050505050612d4c575b50825b8a8110612c515750505494819654925f198401938411975b8a8110612bf85750505050505050505055565b88612c3f578088612c0a8d93886128ed565b8851908152428a8201527f96541f70da731142b18e96f1def4d2a7733deb7d784723106d52c1d906d4c67a893392a301612be5565b50634e487b7160e01b83525260249150fd5b8160145416865163afb2615960e01b8152338782015260249089818381865afa908115612d42578e9493929186918991612d25575b5016158015612c99575b50505001612bcd565b612cc0575b505081600f5411612cb2575b5f8080612c90565b612cbb336135e6565b612caa565b90809293503b15612d21578591604483928a519485938492630b5c3f8760e01b8452828d85015233908401525af18015612d17578c9291869115612c9e57612d0a9192935061267b565b611b3f578a90845f612c9e565b87513d87823e3d90fd5b8580fd5b612d3c91508c8d3d1061124e576112408183612713565b5f612c86565b89513d89823e3d90fd5b600160401b811015612d7f57808b612d6792018a5589612954565b81549060031b908333831b921b19161790555f612bca565b634e487b7160e01b845260418552602484fd5b82612d9c91612954565b905490851b1c163314612db157018d90612bb6565b50505050835f8c81858d612bc0565b612dcb91935061267b565b5f915f612b45565b86513d5f823e3d90fd5b835162461bcd60e51b81528084018690526016602482015275496e636f7272656374207469636b657420707269636560501b6044820152606490fd5b835162461bcd60e51b8152808401869052600f60248201526e47616d65206e6f742061637469766560881b6044820152606490fd5b602184634e487b7160e01b5f525260245ffd5b50612e6a61302b565b6009612ac9565b602183634e487b7160e01b5f525260245ffd5b93612e8d612f88565b93612aaa565b50600f541515612aa5565b5162461bcd60e51b815292830152506016602482015275496e76616c69642073656e646572206164647265737360501b6044820152606490fd5b5162461bcd60e51b81529283015250602260248201527f45786365656473206d6178696d756d207469636b6574732070657220706c617960448201526132b960f11b6064820152608490fd5b5f80516020613a46833981519152546001600160a01b03163303612f4457565b60405163118cdaa760e01b8152336004820152602490fd5b612f746040929594939560608352606083019061278a565b6001600160a01b0390951660208201520152565b600b544210612fee57600260ff19600e541617600e556009547f46e59b25850fb5875ea16cb7de4c6866327eef1a3f4ff23c27b3c5ad811979dd6040805160028152426020820152a2600d54612fe1575b61283c61302b565b612fe96132f9565b612fd9565b60405162461bcd60e51b815260206004820152601560248201527411d85b59481d1a5b59481b9bdd08195e1c1a5c9959605a1b6044820152606490fd5b6130336128fa565b80156132c4575b80156132ac575b80156132a2575b1561325d57600d54613250575b60039060035480613243575b5060085460ff8160081c1661322c575b5060095460018082018092116116905761308c8154426128ed565b9060409182519061309c826126f7565b5f82526020948260c086516130b0816126a3565b838152428982015284888201525f60608201525f60808201528660a0820152015260095542600a55600b555f600c555f600d558160ff19600e541617600e55805167ffffffffffffffff811161268f57600160401b811161268f5784600f92600f5483600f55808410613209575b5001600f5f52835f5b8381106131e157509150505f905b6131a1575b50507f46e59b25850fb5875ea16cb7de4c6866327eef1a3f4ff23c27b3c5ad811979dd92939450600b5460105560095493847fa2dfaa3573b86004ec9d4d4abe5068d942579c59da4da8cd0d9e45e71a393bc1828551428152a282519182524290820152a2565b81548110156131dc579082826131b7829461291e565b9054908a1b1c6001600160a01b03165f90815260118852868120559192910190613135565b61313a565b82516001600160a01b03165f80516020613a8683398151915282015591870191859101613127565b61322690845f80516020613a868339815191529182019101612969565b5f61311e565b60ff80821615169061ffff1916176008555f613071565b6002555f6003555f613061565b6132586132f9565b613055565b60405162461bcd60e51b815260206004820152601960248201527f43616e6e6f74207374617274206e65772067616d6520796574000000000000006044820152606490fd5b5060095415613048565b5060ff600e54166003811015611c1f57600214613041565b5060ff600e54166003811015611c1f571561303a565b90816020910312610bc957516001600160a01b0381168103610bc95790565b600f54600c5490600180820361341c575081600f541561294057600f5f525f80516020613a868339815191525461333991906001600160a01b031661384f565b5f915b6133458361291e565b919060018060a01b03928391549060031b1c16915f600755601354166009549060ff5f541690803b15610bc9575f928360c492604051998a9586946306525fa960e01b86528a600487015260248601528a6044860152886064860152608485015260a48401525af1918215611c1457613408946133fd9361340d575b50600954907f6e8dc1353ef256756a04b2d5c32fe12fa8d3a9633f52056cda478393a1b8c76560408051858152426020820152a36005546128ed565b6005556006546128ed565b600655565b6134169061267b565b5f6133c1565b5f198281019183831161169057814301924384116116905761343f600a916128b3565b9360405160208101914283524460408301524360608301524060808201526080815261346a816126bf565b5190200681810180911161169057604051602081019182526020815261348f816126db565b519020838201808311611690576134a5916128c1565b928284019384116116905780841161359d575b50808310613595575b508115611690575f8080809361353a9501966134f160646134e960ff855460081c1684612990565b048092612888565b9586916135176135008b61291e565b90546001600160a01b03959160031b1c851661384f565b613531836135248c61291e565b90549060031b1c166135e6565b60075490612888565b9060155416617530f161354b6129a3565b5061333c5760405162461bcd60e51b815260206004820152601960248201527f46756e647320646973747269627574696f6e206661696c6564000000000000006044820152606490fd5b91505f6134c1565b92505f6134b8565b60ff7ff0c57e16840df040f15088dc2f81fe391c3923bec73e23a9662efc9c229c6a005460401c16156135d457565b604051631afcd79f60e31b8152600490fd5b9060018060a01b038060145416604093845192839263afb2615960e01b8452818316600485015283602460209687935afa928315612dd3575f93613830575b508083169182613639575b50505050509050565b6136428461394d565b8061364e575b50613630565b5f80808084895af161365e6129a3565b50156137ec578391816136947f20e787dfda3ac1418c7882f60c18b94d602d3dd46995ea36ede0ae9938ae0975936007546128ed565b60075589516001600160a01b039290921682526020820152426040820152606090a283816014541692602488518095819362e9096960e11b835260048301525afa918215612dd3575f926137cd575b50811692836136f4575b8080613648565b6136fd836139f7565b918261370a575b506136ed565b5f80808581945af161371a6129a3565b501561378a575061377c7f74997e3673bd75508ed1fc7dbeb55d4888716d846e7f0b3fde9fd85824b0f6e2939495613754836007546128ed565b600755516001600160a01b039093168352602083019190915242604083015281906060820190565b0390a2805f80808080613704565b60649086519062461bcd60e51b82526004820152601d60248201527f53616c657320706172746e6572207472616e73666572206661696c65640000006044820152fd5b6137e5919250843d861161124e576112408183612713565b905f6136e3565b875162461bcd60e51b815260048101879052601760248201527f506172746e6572207472616e73666572206661696c65640000000000000000006044820152606490fd5b613848919350843d861161124e576112408183612713565b915f613625565b6016546001600160a01b039081169190613867612751565b92803b15610bc957845f918483613895976040519889958694859363783b811560e11b855260048501612f5c565b03925af1918215611c14577f5cb16b96eae9e7321a2374725d21b09b310eac87d65cbdc13555123ecc31b49b936040936138db575b5082519485524260208601521692a2565b6138e49061267b565b5f6138ca565b9061391157508051156138ff57602081519101fd5b60405163d6bda27560e01b8152600490fd5b81511580613944575b613922575090565b604051639996b31560e01b81526001600160a01b039091166004820152602490fd5b50803b1561391a565b60145460405163e09f455960e01b81526001600160a01b0392831660048201529160209183916024918391165afa908115611c14575f9161399c575b5080156128ae5760ff6128ab91166139ce565b90506020813d6020116139c6575b816139b760209383612713565b81010312610bc957515f613989565b3d91506139aa565b6139f360649160ff836139ea600254835f5460081c1690612990565b04911690612990565b0490565b6014546040516301a164f360e21b81526001600160a01b0392831660048201529160209183916024918391165afa908115611c14575f9161399c575080156128ae5760ff6128ab91166139ce56fe9016d09d72d40fdae2fd8ceac6b6234c7706214fd39c1cd1e609a0528c1993009b779b17422d0df92223018b32b4d1fa46e071723d6817e2486d003becc55f008d1108e10bcb7c27dddfc02ed9d693a074039d026cf4ea4240b40f7d581ac802a2646970667358221220a450aac3b9a56d6986928ee866e98c113455b5580d83bfc514eb48c0dc006df064736f6c63430008160033","linkReferences":{}},"methodIdentifiers":{"TREASURY_NAME()":"50e1a19b","UPGRADE_INTERFACE_VERSION()":"ad3cb1cc","allTimeJackpot()":"47ddf87e","allTimePlayers()":"2ef5c784","buyTicket(address)":"a5f8cdbb","buyTicket(address,uint256)":"66a5ef2f","canStartNewGame()":"a7ea9a60","changeTicketPrice(uint256)":"4630a0ee","checkAndEndGame()":"8b235f19","currentGame()":"60b663bb","emergencyPause()":"51858e27","emergencyResume()":"93c87f03","emergencyWithdraw()":"db2e21bc","fee()":"ddca3f43","fundsDistributor()":"74cb55fb","gType()":"a46d11dc","gameDuration()":"e1f0c376","getContractBalance()":"6f9fb98a","getCurrentGameInfo()":"a645e840","getCurrentGamePlayerInfo(address)":"bfebf530","getCurrentGamePlayers()":"ea135ad7","getCurrentGameState()":"f83fd805","getCurrentGameTicketCount()":"077e829d","getGameInfo()":"1746bd1b","getGameJackpot(uint256)":"16521a2b","getPlayedGameJackpot()":"cf4e593a","getPlayedGamePlayers()":"c3a151de","getPlayerTicketCount(address)":"1a89a43b","getPlayersInGame(uint256)":"74796cc2","getRemainingGameTime()":"62444801","getTreasuryBalanceInfo()":"37a78361","getTreasuryInfo()":"c2939471","initialize(address,address,address,address,address,address)":"cc2a9a5b","isActive()":"22f3e2d4","isGameTimeExpired()":"bf77e7c8","maxTicketsPerPlayer()":"7d96ea96","newPrice()":"51df9db9","nextGameStartTime()":"d0b2dab5","ownable()":"b38854be","owner()":"8da5cb5b","paidToPartners()":"650b147d","playerTicketCount(address)":"cee3b9b9","proxiableUUID()":"52d1902d","randomNumber(uint256,uint256,uint256,uint256,uint256,bytes32)":"8897c1f4","referralInstance()":"c6ab848a","renounceOwnership()":"715018a6","setFee(uint8)":"cb122a09","setMaxTicketsPerPlayer(uint256)":"c758f2f2","setReferralInstance(address)":"d1c45f38","setTicketPrice(uint256)":"15981650","setTreasuryManager(address)":"fe47a9f2","stats()":"d80528ae","ticketPrice()":"1209b1f6","toggleGame()":"7fd60e42","toogleActive()":"0d8c1a62","toogleStatus()":"85b75b1e","transferOwnership(address)":"f2fde38b","treasuryManager()":"3cea70d9","treasuryName()":"53b7acdf","upgradeToAndCall(address,bytes)":"4f1ef286"},"id":6}