{"abi":[{"type":"constructor","inputs":[],"stateMutability":"nonpayable"},{"type":"function","name":"activateSystem","inputs":[],"outputs":[],"stateMutability":"nonpayable"},{"type":"function","name":"analyticsEngine","inputs":[],"outputs":[{"name":"","type":"address","internalType":"contract IAnalyticsEngine"}],"stateMutability":"view"},{"type":"function","name":"blacklistAddress","inputs":[{"name":"target","type":"address","internalType":"address"}],"outputs":[],"stateMutability":"nonpayable"},{"type":"function","name":"circuitBreaker","inputs":[],"outputs":[{"name":"","type":"address","internalType":"contract ICircuitBreaker"}],"stateMutability":"view"},{"type":"function","name":"configManager","inputs":[],"outputs":[{"name":"","type":"address","internalType":"contract IConfigManager"}],"stateMutability":"view"},{"type":"function","name":"createAlert","inputs":[{"name":"message","type":"string","internalType":"string"},{"name":"severity","type":"uint256","internalType":"uint256"}],"outputs":[],"stateMutability":"nonpayable"},{"type":"function","name":"createCircuit","inputs":[{"name":"circuitName","type":"string","internalType":"string"},{"name":"threshold","type":"uint256","internalType":"uint256"},{"name":"timeout","type":"uint256","internalType":"uint256"}],"outputs":[],"stateMutability":"nonpayable"},{"type":"function","name":"deactivateSystem","inputs":[],"outputs":[],"stateMutability":"nonpayable"},{"type":"function","name":"emergencyManager","inputs":[],"outputs":[{"name":"","type":"address","internalType":"contract IEmergencyManager"}],"stateMutability":"view"},{"type":"function","name":"emergencyPause","inputs":[],"outputs":[],"stateMutability":"nonpayable"},{"type":"function","name":"emergencyResume","inputs":[],"outputs":[],"stateMutability":"nonpayable"},{"type":"function","name":"eventLogger","inputs":[],"outputs":[{"name":"","type":"address","internalType":"contract IEventLogger"}],"stateMutability":"view"},{"type":"function","name":"getSystemStats","inputs":[],"outputs":[{"name":"isSystemActive","type":"bool","internalType":"bool"},{"name":"isEmergencyPaused","type":"bool","internalType":"bool"},{"name":"lastCheck","type":"uint256","internalType":"uint256"},{"name":"activeTokenCount","type":"uint256","internalType":"uint256"},{"name":"totalContracts","type":"uint256","internalType":"uint256"},{"name":"isSecurityHealthy","type":"bool","internalType":"bool"},{"name":"isMonitoringHealthy","type":"bool","internalType":"bool"},{"name":"isAnalyticsHealthy","type":"bool","internalType":"bool"},{"name":"isRateLimiterHealthy","type":"bool","internalType":"bool"},{"name":"isCircuitBreakerHealthy","type":"bool","internalType":"bool"}],"stateMutability":"view"},{"type":"function","name":"governanceManager","inputs":[],"outputs":[{"name":"","type":"address","internalType":"contract IGovernanceManager"}],"stateMutability":"view"},{"type":"function","name":"initialize","inputs":[{"name":"owner","type":"address","internalType":"address"},{"name":"_emergencyManager","type":"address","internalType":"address"},{"name":"_configManager","type":"address","internalType":"address"},{"name":"_tokenRegistry","type":"address","internalType":"address"},{"name":"_securityUtils","type":"address","internalType":"address"},{"name":"_monitoringSystem","type":"address","internalType":"address"},{"name":"_eventLogger","type":"address","internalType":"address"},{"name":"_analyticsEngine","type":"address","internalType":"address"},{"name":"_rateLimiter","type":"address","internalType":"address"},{"name":"_circuitBreaker","type":"address","internalType":"address"},{"name":"_treasuryManager","type":"address","internalType":"address"},{"name":"_governanceManager","type":"address","internalType":"address"}],"outputs":[],"stateMutability":"nonpayable"},{"type":"function","name":"lastSystemCheck","inputs":[],"outputs":[{"name":"","type":"uint256","internalType":"uint256"}],"stateMutability":"view"},{"type":"function","name":"logEvent","inputs":[{"name":"eventType","type":"string","internalType":"string"},{"name":"message","type":"string","internalType":"string"},{"name":"indexedAddress","type":"address","internalType":"address"},{"name":"data","type":"bytes","internalType":"bytes"}],"outputs":[],"stateMutability":"nonpayable"},{"type":"function","name":"monitoringSystem","inputs":[],"outputs":[{"name":"","type":"address","internalType":"contract IMonitoringSystem"}],"stateMutability":"view"},{"type":"function","name":"owner","inputs":[],"outputs":[{"name":"","type":"address","internalType":"address"}],"stateMutability":"view"},{"type":"function","name":"performSystemCheck","inputs":[],"outputs":[{"name":"","type":"bool","internalType":"bool"}],"stateMutability":"nonpayable"},{"type":"function","name":"rateLimiter","inputs":[],"outputs":[{"name":"","type":"address","internalType":"contract IRateLimiter"}],"stateMutability":"view"},{"type":"function","name":"recordCircuitFailure","inputs":[{"name":"circuitName","type":"string","internalType":"string"}],"outputs":[],"stateMutability":"nonpayable"},{"type":"function","name":"recordCircuitSuccess","inputs":[{"name":"circuitName","type":"string","internalType":"string"}],"outputs":[],"stateMutability":"nonpayable"},{"type":"function","name":"registerToken","inputs":[{"name":"tokenAddress","type":"address","internalType":"address"},{"name":"name","type":"string","internalType":"string"},{"name":"symbol","type":"string","internalType":"string"},{"name":"decimals","type":"uint8","internalType":"uint8"},{"name":"totalSupply","type":"uint256","internalType":"uint256"}],"outputs":[],"stateMutability":"nonpayable"},{"type":"function","name":"renounceOwnership","inputs":[],"outputs":[],"stateMutability":"nonpayable"},{"type":"function","name":"resolveAlert","inputs":[{"name":"alertId","type":"uint256","internalType":"uint256"}],"outputs":[],"stateMutability":"nonpayable"},{"type":"function","name":"securityUtils","inputs":[],"outputs":[{"name":"","type":"address","internalType":"contract ISecurityUtils"}],"stateMutability":"view"},{"type":"function","name":"setFunctionRateLimit","inputs":[{"name":"functionName","type":"string","internalType":"string"},{"name":"maxRequests","type":"uint256","internalType":"uint256"},{"name":"timeWindow","type":"uint256","internalType":"uint256"}],"outputs":[],"stateMutability":"nonpayable"},{"type":"function","name":"setUserRateLimit","inputs":[{"name":"user","type":"address","internalType":"address"},{"name":"maxRequests","type":"uint256","internalType":"uint256"},{"name":"timeWindow","type":"uint256","internalType":"uint256"}],"outputs":[],"stateMutability":"nonpayable"},{"type":"function","name":"systemActive","inputs":[],"outputs":[{"name":"","type":"bool","internalType":"bool"}],"stateMutability":"view"},{"type":"function","name":"toggleLogging","inputs":[],"outputs":[],"stateMutability":"nonpayable"},{"type":"function","name":"tokenRegistry","inputs":[],"outputs":[{"name":"","type":"address","internalType":"contract ITokenRegistry"}],"stateMutability":"view"},{"type":"function","name":"transferOwnership","inputs":[{"name":"newOwner","type":"address","internalType":"address"}],"outputs":[],"stateMutability":"nonpayable"},{"type":"function","name":"treasuryManager","inputs":[],"outputs":[{"name":"","type":"address","internalType":"contract ITreasuryManager"}],"stateMutability":"view"},{"type":"function","name":"triggerSecurityAlert","inputs":[{"name":"user","type":"address","internalType":"address"},{"name":"reason","type":"string","internalType":"string"}],"outputs":[],"stateMutability":"nonpayable"},{"type":"function","name":"updateGameAnalytics","inputs":[{"name":"gameType","type":"uint8","internalType":"uint8"},{"name":"totalGames","type":"uint256","internalType":"uint256"},{"name":"totalPlayers","type":"uint256","internalType":"uint256"},{"name":"totalVolume","type":"uint256","internalType":"uint256"},{"name":"averageTicketPrice","type":"uint256","internalType":"uint256"},{"name":"totalWinnings","type":"uint256","internalType":"uint256"}],"outputs":[],"stateMutability":"nonpayable"},{"type":"function","name":"updateGameConfig","inputs":[{"name":"gameType","type":"uint8","internalType":"uint8"},{"name":"ticketPrice","type":"uint256","internalType":"uint256"},{"name":"gameDuration","type":"uint256","internalType":"uint256"},{"name":"fee","type":"uint8","internalType":"uint8"},{"name":"maxTicketsPerPlayer","type":"uint256","internalType":"uint256"}],"outputs":[],"stateMutability":"nonpayable"},{"type":"function","name":"updateRateLimits","inputs":[{"name":"newMinInterval","type":"uint256","internalType":"uint256"},{"name":"newMaxInteractions","type":"uint256","internalType":"uint256"}],"outputs":[],"stateMutability":"nonpayable"},{"type":"function","name":"updateSystemAnalytics","inputs":[{"name":"totalUsers","type":"uint256","internalType":"uint256"},{"name":"totalVolume","type":"uint256","internalType":"uint256"},{"name":"totalTransactions","type":"uint256","internalType":"uint256"},{"name":"activeGames","type":"uint256","internalType":"uint256"},{"name":"totalWinnings","type":"uint256","internalType":"uint256"},{"name":"systemFees","type":"uint256","internalType":"uint256"}],"outputs":[],"stateMutability":"nonpayable"},{"type":"function","name":"updateSystemMetrics","inputs":[{"name":"transactions","type":"uint256","internalType":"uint256"},{"name":"volume","type":"uint256","internalType":"uint256"},{"name":"users","type":"uint256","internalType":"uint256"}],"outputs":[],"stateMutability":"nonpayable"},{"type":"function","name":"updateUserAnalytics","inputs":[{"name":"user","type":"address","internalType":"address"},{"name":"transactions","type":"uint256","internalType":"uint256"},{"name":"volume","type":"uint256","internalType":"uint256"},{"name":"gamesPlayed","type":"uint256","internalType":"uint256"},{"name":"winnings","type":"uint256","internalType":"uint256"},{"name":"referralEarnings","type":"uint256","internalType":"uint256"}],"outputs":[],"stateMutability":"nonpayable"},{"type":"function","name":"whitelistAddress","inputs":[{"name":"target","type":"address","internalType":"address"}],"outputs":[],"stateMutability":"nonpayable"},{"type":"event","name":"AnalyticsUpdated","inputs":[{"name":"user","type":"address","indexed":true,"internalType":"address"},{"name":"volume","type":"uint256","indexed":false,"internalType":"uint256"},{"name":"timestamp","type":"uint256","indexed":false,"internalType":"uint256"}],"anonymous":false},{"type":"event","name":"CircuitBreakerTriggered","inputs":[{"name":"circuitName","type":"string","indexed":true,"internalType":"string"},{"name":"timestamp","type":"uint256","indexed":false,"internalType":"uint256"}],"anonymous":false},{"type":"event","name":"ContractAddressUpdated","inputs":[{"name":"contractName","type":"string","indexed":false,"internalType":"string"},{"name":"oldAddress","type":"address","indexed":false,"internalType":"address"},{"name":"newAddress","type":"address","indexed":false,"internalType":"address"}],"anonymous":false},{"type":"event","name":"Initialized","inputs":[{"name":"version","type":"uint64","indexed":false,"internalType":"uint64"}],"anonymous":false},{"type":"event","name":"OwnershipTransferred","inputs":[{"name":"previousOwner","type":"address","indexed":true,"internalType":"address"},{"name":"newOwner","type":"address","indexed":true,"internalType":"address"}],"anonymous":false},{"type":"event","name":"RateLimitExceeded","inputs":[{"name":"user","type":"address","indexed":true,"internalType":"address"},{"name":"functionName","type":"string","indexed":true,"internalType":"string"},{"name":"timestamp","type":"uint256","indexed":false,"internalType":"uint256"}],"anonymous":false},{"type":"event","name":"SecurityAlertTriggered","inputs":[{"name":"user","type":"address","indexed":true,"internalType":"address"},{"name":"reason","type":"string","indexed":false,"internalType":"string"},{"name":"timestamp","type":"uint256","indexed":false,"internalType":"uint256"}],"anonymous":false},{"type":"event","name":"SystemActivated","inputs":[{"name":"timestamp","type":"uint256","indexed":false,"internalType":"uint256"}],"anonymous":false},{"type":"event","name":"SystemCheckPerformed","inputs":[{"name":"timestamp","type":"uint256","indexed":false,"internalType":"uint256"},{"name":"isHealthy","type":"bool","indexed":false,"internalType":"bool"}],"anonymous":false},{"type":"event","name":"SystemDeactivated","inputs":[{"name":"timestamp","type":"uint256","indexed":false,"internalType":"uint256"}],"anonymous":false},{"type":"event","name":"SystemInitialized","inputs":[{"name":"emergencyManager","type":"address","indexed":true,"internalType":"address"},{"name":"configManager","type":"address","indexed":true,"internalType":"address"},{"name":"tokenRegistry","type":"address","indexed":true,"internalType":"address"},{"name":"securityUtils","type":"address","indexed":false,"internalType":"address"},{"name":"monitoringSystem","type":"address","indexed":false,"internalType":"address"},{"name":"eventLogger","type":"address","indexed":false,"internalType":"address"},{"name":"analyticsEngine","type":"address","indexed":false,"internalType":"address"},{"name":"rateLimiter","type":"address","indexed":false,"internalType":"address"},{"name":"circuitBreaker","type":"address","indexed":false,"internalType":"address"},{"name":"treasuryManager","type":"address","indexed":false,"internalType":"address"},{"name":"governanceManager","type":"address","indexed":false,"internalType":"address"},{"name":"timestamp","type":"uint256","indexed":false,"internalType":"uint256"}],"anonymous":false},{"type":"error","name":"InvalidInitialization","inputs":[]},{"type":"error","name":"NotInitializing","inputs":[]},{"type":"error","name":"OwnableInvalidOwner","inputs":[{"name":"owner","type":"address","internalType":"address"}]},{"type":"error","name":"OwnableUnauthorizedAccount","inputs":[{"name":"account","type":"address","internalType":"address"}]}],"bytecode":{"object":"0x608080604052346100b8577ff0c57e16840df040f15088dc2f81fe391c3923bec73e23a9662efc9c229c6a009081549060ff8260401c166100a957506001600160401b036002600160401b031982821601610064575b60405161248b90816100bd8239f35b6001600160401b031990911681179091556040519081527fc7f505b2f371ae2175ee4913f4499e1f2633a7b5936321eed1cdaeb6115181d290602090a15f8080610055565b63f92ee8a960e01b8152600490fd5b5f80fdfe60a0806040526004361015610012575f80fd5b5f905f3560e01c908163016b0415146120b95750806307d64b861461203f5780630b800f48146119225780630decca1a146115d657806316efd941146115ad5780631b7bd2b814611537578063295802161461143c57806329991184146114135780632c92d2db146113a75780632e0e053f1461134b5780633431d5c91461132557806339da8bd1146112d25780633cea70d9146112a957806341566585146112435780634c4129101461115f57806351858e271461110d57806353d4fe33146110e45780636ea02725146110c6578063715018a61461105d57806379b9d40a14610fcf5780637f60bcb014610fa65780638232d01914610f535780638da5cb5b14610f1e5780638f0591d314610eba57806393c87f0314610e685780639d23c4c714610e3f5780639e608c5a14610de4578063abce6f8e14610dbb578063aca78bc814610d69578063c144f3fc14610c74578063ca0ab07514610c4b578063d1ce59a7146106f4578063d2c18f59146106cd578063d2e6d1c3146106a4578063d417013914610620578063d8649dfd1461058e578063e24dc40914610503578063e37c983c14610472578063e3eba07314610394578063f2fde38b14610367578063f3290d75146102fc5763f7134fe9146101ec575f80fd5b346102e3578060031960a0368201126102f9576102076121a8565b906001600160401b036024358181116102f557610228903690600401612155565b906044359081116102f557610241903690600401612155565b9261024a6121e4565b936102536123af565b6002546001600160a01b0390811692909190833b156102f1576102a49660ff6102b38a9889956040519b8c9a8b998a9863f7134fe960e01b8a5216600489015260a0602489015260a4880190612215565b91868303016044870152612215565b91166064830152608435608483015203925af180156102e6576102d35750f35b6102dc906120dc565b6102e35780f35b80fd5b6040513d84823e3d90fd5b8780fd5b8480fd5b50fd5b50346102e35760203660031901126102e357806103176121a8565b61031f6123af565b6003546001600160a01b039081169190823b15610362576024849283604051958694859363f3290d7560e01b85521660048401525af180156102e6576102d35750f35b505050fd5b50346102e35760203660031901126102e3576103916103846121a8565b61038c6123af565b61233e565b80f35b50346102e35760c03660031901126102e3576103ae6121a8565b6044356103b96123af565b6006546001600160a01b0390811692849190843b1561046e57829160c48392604051948593849263e3eba07360e01b8452169889600484015260243560248401528860448401526064356064840152608435608484015260a43560a48401525af180156102e65761045a575b505060407f80141e7674a4ea3634db4298d3cd9a66cc27a817058095a988b8ebbb2f938c93918151908152426020820152a280f35b610463906120dc565b61046e57825f610425565b8280fd5b50346102e35760c03660031901126102e3578061048d6121d4565b6104956123af565b6006546001600160a01b031690813b156104ff5760ff60c484928360405195869485936338df260f60e21b8552166004840152602435602484015260443560448401526064356064840152608435608484015260a43560a48401525af180156102e6576102d35750f35b5050fd5b50346102e35760203660031901126102e357806004356001600160401b0381116102f957610535903690600401612155565b61053d6123af565b6008546001600160a01b0316803b156104ff57604051634f52315f60e11b815260206004820152918391839182908490829061057d906024830190612215565b03925af180156102e6576102d35750f35b50346102e35760403660031901126102e357806004356001600160401b0381116102f9576105c0903690600401612155565b6105c86123af565b6004546001600160a01b0316803b156104ff57610607839291839260405194858094819363d8649dfd60e01b8352604060048401526044830190612215565b602435602483015203925af180156102e6576102d35750f35b50346102e35760c03660031901126102e35761063a6123af565b60065481906001600160a01b0316803b156102f95781809160c46040518094819363d417013960e01b83526004356004840152602435602484015260443560448401526064356064840152608435608484015260a43560a48401525af180156102e6576102d35750f35b50346102e357806003193601126102e357600a546040516001600160a01b039091168152602090f35b50346102e357806003193601126102e357546040516001600160a01b039091168152602090f35b50346102e357806003193601126102e3576001808080816024608060018060a01b036003541660405192838092632721b01d60e11b82528b60048301525afa9081610c05575b50610bff575084935b6004805460405163d1ce59a760e01b8152916101009183919082906001600160a01b03165afa9081610b62575b50610b5c575084925b60065460405163652e68b160e11b81529060a090829060049082906001600160a01b03165afa9081610b2b575b50610b25575084905b60018060a01b03600754166040518091639f427bd960e01b825261018091829181806107ef600482016060905f8152604060208201525f60408201520190565b03915afa9182610af0575b5050610aea575084915b60085460405163ad00229560e01b8152602060048201525f60248201529060c090829060449082906001600160a01b03165afa9081610ab8575b50610ab2575084925b600a548654604051630a43443160e21b815260a09290921c60ff169691906001600160a01b0316602082600481845afa918215610aa7578992610a65575b50600b546002546040516393d8572760e01b8152928b91602090859060049082906001600160a01b03165afa9384156102e6578294610a29575b50604051630c69e74b60e11b81529190829060049082905afa908115610a1e578b91610933575b506101409a5051926040519915158a52151560208a0152604089015260608801526080870152151560a0860152151560c0850152151560e084015215156101008301521515610120820152f35b3d9150818c823e61094482826120ef565b6020818381010312610a1a5780516001600160401b0392838211610a0257808301601f838501011215610a025781830151938411610a06578360051b906040519461099260208401876120ef565b856080528552602085016080528301602082848601010111610a0257602082840101915b602082828601010183106109d357505050506101409a505f6108e6565b82516001600160a01b03811681036109fe5760209384916080515281608051016080520192506109b6565b8f80fd5b8d80fd5b634e487b7160e01b8e52604160045260248efd5b8b80fd5b6040513d8d823e3d90fd5b915092506020813d602011610a5d575b81610a46602093836120ef565b81010312610a595751918a9060046108bf565b5f80fd5b3d9150610a39565b9091506020813d602011610a9f575b81610a81602093836120ef565b81010312610a9b57610a9460049161225c565b9190610885565b8880fd5b3d9150610a74565b6040513d8b823e3d90fd5b92610847565b610ad99060c03d60c011610ae3575b610ad181836120ef565b810190612303565b505050505061083e565b503d610ac7565b91610804565b81610b0f92903d10610b1e575b610b0781836120ef565b810190612297565b505050505050505050506107fa565b503d610afd565b906107af565b610b4c9060a03d60a011610b55575b610b4481836120ef565b810190612269565b505050506107a6565b503d610b3a565b92610779565b806101003d61010011610bf8575b610b7a81836120ef565b8101036101008112610a9b5760a0136102f1576040519060a08201908282106001600160401b03831117610be4576080610bdb918193604052805185526020810151602086015260408101516040860152606081015160608601520161225c565b9101525f610770565b634e487b7160e01b5f52604160045260245ffd5b503d610b70565b93610743565b6080813d608011610c43575b81610c1e608093836120ef565b810103126102f157606081610c35610c3c9361225c565b500161225c565b505f61073a565b3d9150610c11565b50346102e357806003193601126102e3576001546040516001600160a01b039091168152602090f35b50346102e35760403660031901126102e357610c8e6121a8565b6024356001600160401b03811161046e57610cad903690600401612155565b610cb56123af565b6003546001600160a01b0390811692849190843b1561046e578290604051928391630749f6e160e21b8352169586600483015260406024830152818381610cff604482018a612215565b03925af180156102e657610d55575b5050610d497f737371d2e1651f7fd9c9d28d6dee5d4f43cb53472bf025f25fbce725e50bc51a91604051918291604083526040830190612215565b4260208301520390a280f35b610d5e906120dc565b61046e57825f610d0e565b50346102e35780610d7936612173565b610d849291926123af565b6008546001600160a01b0316803b156102f55761057d9385809460405196879586948593631594f17960e31b85526004850161223a565b50346102e357806003193601126102e3576004546040516001600160a01b039091168152602090f35b50346102e357806003193601126102e357610dfd6123af565b600a805460ff60a01b1916600160a01b1790556040514281527f92cda91bf19e66302d312b84686994308bea9ec8a3dc14597a913fec2cc7eba990602090a180f35b50346102e357806003193601126102e3576002546040516001600160a01b039091168152602090f35b50346102e357806003193601126102e357610e816123af565b805481906001600160a01b0316803b156102f9578180916004604051809481936393c87f0360e01b83525af180156102e6576102d35750f35b50346102e35760403660031901126102e357610ed46123af565b60035481906001600160a01b0316803b156102f957818091604460405180948193638f0591d360e01b8352600435600484015260243560248401525af180156102e6576102d35750f35b50346102e357806003193601126102e3575f80516020612416833981519152546040516001600160a01b039091168152602090f35b50346102e357806003193601126102e357610f6c6123af565b60ff60a01b19600a5416600a557fe6dc88d2eb2083a6abc7af46ab65aefee04707bc7c523c8e0e069db83e1ef3576020604051428152a180f35b50346102e357806003193601126102e3576006546040516001600160a01b039091168152602090f35b50346102e35760a03660031901126102e35780610fea6121d4565b610ff26121e4565b90610ffb6123af565b6001546001600160a01b031690813b156103625760a460ff91858094846040519788968795633cdcea0560e11b87521660048601526024356024860152604435604486015216606484015260843560848401525af180156102e6576102d35750f35b50346102e357806003193601126102e3576110766123af565b5f8051602061241683398151915280546001600160a01b031981169091555f906001600160a01b03167f8be0079c531659141344cd1fd0a4f28419497f9722a3daafe3b4186f6b6457e08280a380f35b50346102e357806003193601126102e3576020600b54604051908152f35b50346102e357806003193601126102e3576007546040516001600160a01b039091168152602090f35b50346102e357806003193601126102e3576111266123af565b805481906001600160a01b0316803b156102f9578180916004604051809481936351858e2760e01b83525af180156102e6576102d35750f35b50346102e35760203660031901126102e3576004356001600160401b03811161123f57611190903690600401612155565b6111986123af565b60085482906001600160a01b0316803b1561123f5781604051809263eb4f879560e01b8252602060048301528183816111d4602482018a612215565b03925af180156102e65761122b575b50604051825181906111f98183602088016121f4565b81010390207f9a67283e259b60ad992613fe36fe808ce9a65fc69b7893a856fbe5f926f251846020604051428152a280f35b611234906120dc565b61123f57815f6111e3565b5080fd5b50346102e35760203660031901126102e3578061125e6121a8565b6112666123af565b6003546001600160a01b039081169190823b156103625760248492836040519586948593634156658560e01b85521660048401525af180156102e6576102d35750f35b50346102e357806003193601126102e3576009546040516001600160a01b039091168152602090f35b50346102e357806003193601126102e3576112eb6123af565b60055481906001600160a01b0316803b156102f9578180916004604051809481936339da8bd160e01b83525af180156102e6576102d35750f35b50346102e357806003193601126102e357602060ff600a5460a01c166040519015158152f35b50346102e35760203660031901126102e3576113656123af565b60045481906001600160a01b0316803b156102f957818091602460405180948193632e0e053f60e01b835260043560048401525af180156102e6576102d35750f35b50346102e35760603660031901126102e3576113c16123af565b60045481906001600160a01b0316803b156102f957818091606460405180948193633c047e1360e01b83526004356004840152602435602484015260443560448401525af180156102e6576102d35750f35b50346102e357806003193601126102e3576005546040516001600160a01b039091168152602090f35b50346102e357806003196080368201126102f9576001600160401b0360043581811161036257611470903690600401612155565b6024358281116102f557611488903690600401612155565b906114916121be565b926064359081116115335736602382011215611533576114bb903690602481600401359101612110565b6114c36123af565b6005546001600160a01b039590861692833b156102f15761057d889661150e94889461151e9a6040519b8c9a8b998a986314ac010b60e11b8a52608060048b015260848a0190612215565b90848983030160248a0152612215565b93166044860152848303016064850152612215565b8580fd5b50346102e35760603660031901126102e357806115526121a8565b61155a6123af565b6007546001600160a01b039081169190823b15610362576064849283604051958694859363036f7a5760e31b8552166004840152602435602484015260443560448401525af180156102e6576102d35750f35b50346102e357806003193601126102e3576008546040516001600160a01b039091168152602090f35b50346102e357806003193601126102e3576115ef6123af565b8054604051630a43443160e21b8152602092916001600160a01b039160019185908290600490829087165afa8491816118eb575b506118df575050815b60648480846001541660405193848092637888b66560e11b8252846004830152600e60248301526d6d696e5469636b6574507269636560901b60448301525afa91826118b6575b50506118b15750815b600484808460025416604051938480926393d8572760e01b82525afa9182611888575b50506118835750815b828483600454166004604051809481936365ff1ccd60e11b83525af184918161184c575b50611841575050815b600460a083600654166040519283809263652e68b160e11b82525afa9081611820575b5061181b5750815b81600754166040518091639f427bd960e01b8252610180918291818061173a600482016060905f8152604060208201525f60408201520190565b03915afa91826117f6575b50506117eb5750604460c083925b600854166040519283809263ad00229560e01b82528860048301525f60248301525afa90816117c9575b506117c257505b42600b557f65e598f4174b3dfc487b841b4ccc91f4943bb2c4be074eb7ae5084fcdeb64fcb60408051924284521515928385820152a1604051908152f35b9050611784565b6117e19060c03d60c011610ae357610ad181836120ef565b505050505061177d565b9060c0604491611753565b8161180c92903d10610b1e57610b0781836120ef565b50505050505050505050611745565b611700565b6118389060a03d60a011610b5557610b4481836120ef565b505050506116f8565b6116d55750816116d5565b9091508581813d831161187c575b61186481836120ef565b810103126102f5576118759061225c565b905f6116cc565b503d61185a565b6116a8565b813d83116118aa575b61189b81836120ef565b81010312610a5957845f61169f565b503d611891565b61167c565b813d83116118d8575b6118c981836120ef565b81010312610a5957845f611673565b503d6118bf565b1561162c57508161162c565b9091508581813d831161191b575b61190381836120ef565b810103126102f5576119149061225c565b905f611623565b503d6118f9565b50346102e3576101803660031901126102e35761193d6121a8565b602435906001600160a01b0382168203610a59576119596121be565b60643592906001600160a01b0384168403610a59576084356001600160a01b0381168103610a595760a4356001600160a01b0381168103610a595760c435906001600160a01b0382168203610a595760e435966001600160a01b0388168803610a595761010435946001600160a01b0386168603610a5957610124356001600160a01b0381168103610a595761014435906001600160a01b0382168203610a595761016435926001600160a01b0384168403610a59575f80516020612436833981519152549a6001600160401b038c16158c8161202f575b6001600160401b03166001149081612025575b15908161201c575b5061200a57611a8f9060018d6001600160401b031916175f805160206124368339815191525560ff8d60401c1615611fde575b611a876123e7565b61038c6123e7565b6001600160a01b038a1615611f8f576001600160a01b0316978815611f4a576001600160a01b03851615611f05576001600160a01b03881615611ec0576001600160a01b03861615611e71576001600160a01b03871615611e2c576001600160a01b038c1615611de8576001600160a01b03811615611da3576001600160a01b03821615611d5e576001600160a01b03831615611d1a576001600160a01b03841615611cca578c546001600160a01b03199081166001600160a01b039b8c169081178f556001805483168c179055600280548316978d1697881790556003805483169a8d169a8b179055600480548316988d169889179055600580548316998d16998a1790556006805483169e8d169e8f179055600780548316938d169384179055600880548316948d16948517905560098054909216948c16948517909155600a80546001600160a81b03191695909b16948517600160a01b17909a5542600b81905560408051998a5260208a019790975295880196909652606087019a909a52608086019490945260a085019890985260c084019290925260e083019690965261010082019590955260ff9492907f823f951be8ba6b8367a05f8f8e74ca26db9dcbf5d4645567bfc95f98a3eaacef9061012090a460401c1615611c725780f35b68ff0000000000000000195f8051602061243683398151915254165f80516020612436833981519152557fc7f505b2f371ae2175ee4913f4499e1f2633a7b5936321eed1cdaeb6115181d2602060405160018152a180f35b60405162461bcd60e51b815260206004820152602260248201527f496e76616c696420676f7665726e616e6365206d616e61676572206164647265604482015261737360f01b6064820152608490fd5b606460405162461bcd60e51b815260206004820152602060248201527f496e76616c6964207472656173757279206d616e6167657220616464726573736044820152fd5b60405162461bcd60e51b815260206004820152601f60248201527f496e76616c6964206369726375697420627265616b65722061646472657373006044820152606490fd5b60405162461bcd60e51b815260206004820152601c60248201527f496e76616c69642072617465206c696d697465722061646472657373000000006044820152606490fd5b606460405162461bcd60e51b815260206004820152602060248201527f496e76616c696420616e616c797469637320656e67696e6520616464726573736044820152fd5b60405162461bcd60e51b815260206004820152601c60248201527f496e76616c6964206576656e74206c6f676765722061646472657373000000006044820152606490fd5b60405162461bcd60e51b815260206004820152602160248201527f496e76616c6964206d6f6e69746f72696e672073797374656d206164647265736044820152607360f81b6064820152608490fd5b60405162461bcd60e51b815260206004820152601e60248201527f496e76616c6964207365637572697479207574696c73206164647265737300006044820152606490fd5b60405162461bcd60e51b815260206004820152601e60248201527f496e76616c696420746f6b656e207265676973747279206164647265737300006044820152606490fd5b60405162461bcd60e51b815260206004820152601e60248201527f496e76616c696420636f6e666967206d616e61676572206164647265737300006044820152606490fd5b60405162461bcd60e51b815260206004820152602160248201527f496e76616c696420656d657267656e6379206d616e61676572206164647265736044820152607360f81b6064820152608490fd5b68ffffffffffffffffff198d1668010000000000000001175f8051602061243683398151915255611a7f565b60405163f92ee8a960e01b8152600490fd5b9050155f611a4c565b303b159150611a44565b604081901c60ff16159150611a31565b5034610a595761204e36612173565b6120599291926123af565b6007546001600160a01b0316803b15610a5957612090935f8094604051968795869485936303eb25c360e11b85526004850161223a565b03925af180156120ae576120a2575080f35b6120ac91506120dc565b005b6040513d5f823e3d90fd5b34610a59575f366003190112610a59576003546001600160a01b03168152602090f35b6001600160401b038111610be457604052565b90601f801991011681019081106001600160401b03821117610be457604052565b9291926001600160401b038211610be45760405191612139601f8201601f1916602001846120ef565b829481845281830111610a59578281602093845f960137010152565b9080601f83011215610a595781602061217093359101612110565b90565b6060600319820112610a5957600435906001600160401b038211610a595761219d91600401612155565b906024359060443590565b600435906001600160a01b0382168203610a5957565b604435906001600160a01b0382168203610a5957565b6004359060ff82168203610a5957565b6064359060ff82168203610a5957565b5f5b8381106122055750505f910152565b81810151838201526020016121f6565b9060209161222e815180928185528580860191016121f4565b601f01601f1916010190565b61225260409295949395606083526060830190612215565b9460208201520152565b51908115158203610a5957565b908160a0910312610a595761227d8161225c565b916020820151916040810151916080606083015192015190565b919082610180910312610a59576122ad8261225c565b916020810151916040820151916060810151916122cc6080830161225c565b9160a08101519160c08201519160e0810151916122ec610100830161225c565b916101208101519161016061014083015192015190565b91908260c0910312610a595781516003811015610a59579160208101519160408201519160608101519161217060a06080840151930161225c565b6001600160a01b03908116908115612397575f8051602061241683398151915280546001600160a01b031981168417909155167f8be0079c531659141344cd1fd0a4f28419497f9722a3daafe3b4186f6b6457e05f80a3565b604051631e4fbdf760e01b81525f6004820152602490fd5b5f80516020612416833981519152546001600160a01b031633036123cf57565b60405163118cdaa760e01b8152336004820152602490fd5b60ff5f805160206124368339815191525460401c161561240357565b604051631afcd79f60e31b8152600490fdfe9016d09d72d40fdae2fd8ceac6b6234c7706214fd39c1cd1e609a0528c199300f0c57e16840df040f15088dc2f81fe391c3923bec73e23a9662efc9c229c6a00a26469706673582212207a519066c542d6bbf7f7588ad1bd188f4a64be06862ed1e71aa1eb0ca4f5ddca64736f6c63430008160033","linkReferences":{}},"methodIdentifiers":{"activateSystem()":"9e608c5a","analyticsEngine()":"7f60bcb0","blacklistAddress(address)":"f3290d75","circuitBreaker()":"16efd941","configManager()":"ca0ab075","createAlert(string,uint256)":"d8649dfd","createCircuit(string,uint256,uint256)":"aca78bc8","deactivateSystem()":"8232d019","emergencyManager()":"d2c18f59","emergencyPause()":"51858e27","emergencyResume()":"93c87f03","eventLogger()":"29991184","getSystemStats()":"d1ce59a7","governanceManager()":"d2e6d1c3","initialize(address,address,address,address,address,address,address,address,address,address,address,address)":"0b800f48","lastSystemCheck()":"6ea02725","logEvent(string,string,address,bytes)":"29580216","monitoringSystem()":"abce6f8e","owner()":"8da5cb5b","performSystemCheck()":"0decca1a","rateLimiter()":"53d4fe33","recordCircuitFailure(string)":"4c412910","recordCircuitSuccess(string)":"e24dc409","registerToken(address,string,string,uint8,uint256)":"f7134fe9","renounceOwnership()":"715018a6","resolveAlert(uint256)":"2e0e053f","securityUtils()":"016b0415","setFunctionRateLimit(string,uint256,uint256)":"07d64b86","setUserRateLimit(address,uint256,uint256)":"1b7bd2b8","systemActive()":"3431d5c9","toggleLogging()":"39da8bd1","tokenRegistry()":"9d23c4c7","transferOwnership(address)":"f2fde38b","treasuryManager()":"3cea70d9","triggerSecurityAlert(address,string)":"c144f3fc","updateGameAnalytics(uint8,uint256,uint256,uint256,uint256,uint256)":"e37c983c","updateGameConfig(uint8,uint256,uint256,uint8,uint256)":"79b9d40a","updateRateLimits(uint256,uint256)":"8f0591d3","updateSystemAnalytics(uint256,uint256,uint256,uint256,uint256,uint256)":"d4170139","updateSystemMetrics(uint256,uint256,uint256)":"2c92d2db","updateUserAnalytics(address,uint256,uint256,uint256,uint256,uint256)":"e3eba073","whitelistAddress(address)":"41566585"},"id":9}