{"abi":[{"type":"constructor","inputs":[],"stateMutability":"nonpayable"},{"type":"function","name":"activateSystem","inputs":[],"outputs":[],"stateMutability":"nonpayable"},{"type":"function","name":"analyticsEngine","inputs":[],"outputs":[{"name":"","type":"address","internalType":"contract IAnalyticsEngine"}],"stateMutability":"view"},{"type":"function","name":"blacklistAddress","inputs":[{"name":"target","type":"address","internalType":"address"}],"outputs":[],"stateMutability":"nonpayable"},{"type":"function","name":"circuitBreaker","inputs":[],"outputs":[{"name":"","type":"address","internalType":"contract ICircuitBreaker"}],"stateMutability":"view"},{"type":"function","name":"configManager","inputs":[],"outputs":[{"name":"","type":"address","internalType":"contract IConfigManager"}],"stateMutability":"view"},{"type":"function","name":"createAlert","inputs":[{"name":"message","type":"string","internalType":"string"},{"name":"severity","type":"uint256","internalType":"uint256"}],"outputs":[],"stateMutability":"nonpayable"},{"type":"function","name":"createCircuit","inputs":[{"name":"circuitName","type":"string","internalType":"string"},{"name":"threshold","type":"uint256","internalType":"uint256"},{"name":"timeout","type":"uint256","internalType":"uint256"}],"outputs":[],"stateMutability":"nonpayable"},{"type":"function","name":"deactivateSystem","inputs":[],"outputs":[],"stateMutability":"nonpayable"},{"type":"function","name":"emergencyManager","inputs":[],"outputs":[{"name":"","type":"address","internalType":"contract IEmergencyManager"}],"stateMutability":"view"},{"type":"function","name":"emergencyPause","inputs":[],"outputs":[],"stateMutability":"nonpayable"},{"type":"function","name":"emergencyResume","inputs":[],"outputs":[],"stateMutability":"nonpayable"},{"type":"function","name":"eventLogger","inputs":[],"outputs":[{"name":"","type":"address","internalType":"contract IEventLogger"}],"stateMutability":"view"},{"type":"function","name":"getSystemStats","inputs":[],"outputs":[{"name":"isSystemActive","type":"bool","internalType":"bool"},{"name":"isEmergencyPaused","type":"bool","internalType":"bool"},{"name":"lastCheck","type":"uint256","internalType":"uint256"},{"name":"totalContracts","type":"uint256","internalType":"uint256"},{"name":"isSecurityHealthy","type":"bool","internalType":"bool"},{"name":"isMonitoringHealthy","type":"bool","internalType":"bool"},{"name":"isAnalyticsHealthy","type":"bool","internalType":"bool"},{"name":"isRateLimiterHealthy","type":"bool","internalType":"bool"},{"name":"isCircuitBreakerHealthy","type":"bool","internalType":"bool"}],"stateMutability":"view"},{"type":"function","name":"initialize","inputs":[{"name":"owner","type":"address","internalType":"address"},{"name":"_emergencyManager","type":"address","internalType":"address"},{"name":"_configManager","type":"address","internalType":"address"},{"name":"_securityUtils","type":"address","internalType":"address"},{"name":"_monitoringSystem","type":"address","internalType":"address"},{"name":"_eventLogger","type":"address","internalType":"address"},{"name":"_analyticsEngine","type":"address","internalType":"address"},{"name":"_rateLimiter","type":"address","internalType":"address"},{"name":"_circuitBreaker","type":"address","internalType":"address"},{"name":"_treasuryManager","type":"address","internalType":"address"}],"outputs":[],"stateMutability":"nonpayable"},{"type":"function","name":"lastSystemCheck","inputs":[],"outputs":[{"name":"","type":"uint256","internalType":"uint256"}],"stateMutability":"view"},{"type":"function","name":"logEvent","inputs":[{"name":"eventType","type":"string","internalType":"string"},{"name":"message","type":"string","internalType":"string"},{"name":"indexedAddress","type":"address","internalType":"address"},{"name":"data","type":"bytes","internalType":"bytes"}],"outputs":[],"stateMutability":"nonpayable"},{"type":"function","name":"monitoringSystem","inputs":[],"outputs":[{"name":"","type":"address","internalType":"contract IMonitoringSystem"}],"stateMutability":"view"},{"type":"function","name":"owner","inputs":[],"outputs":[{"name":"","type":"address","internalType":"address"}],"stateMutability":"view"},{"type":"function","name":"performSystemCheck","inputs":[],"outputs":[{"name":"","type":"bool","internalType":"bool"}],"stateMutability":"nonpayable"},{"type":"function","name":"rateLimiter","inputs":[],"outputs":[{"name":"","type":"address","internalType":"contract IRateLimiter"}],"stateMutability":"view"},{"type":"function","name":"recordCircuitFailure","inputs":[{"name":"circuitName","type":"string","internalType":"string"}],"outputs":[],"stateMutability":"nonpayable"},{"type":"function","name":"recordCircuitSuccess","inputs":[{"name":"circuitName","type":"string","internalType":"string"}],"outputs":[],"stateMutability":"nonpayable"},{"type":"function","name":"renounceOwnership","inputs":[],"outputs":[],"stateMutability":"nonpayable"},{"type":"function","name":"resolveAlert","inputs":[{"name":"alertId","type":"uint256","internalType":"uint256"}],"outputs":[],"stateMutability":"nonpayable"},{"type":"function","name":"securityUtils","inputs":[],"outputs":[{"name":"","type":"address","internalType":"contract ISecurityUtils"}],"stateMutability":"view"},{"type":"function","name":"setFunctionRateLimit","inputs":[{"name":"functionName","type":"string","internalType":"string"},{"name":"maxRequests","type":"uint256","internalType":"uint256"},{"name":"timeWindow","type":"uint256","internalType":"uint256"}],"outputs":[],"stateMutability":"nonpayable"},{"type":"function","name":"setUserRateLimit","inputs":[{"name":"user","type":"address","internalType":"address"},{"name":"maxRequests","type":"uint256","internalType":"uint256"},{"name":"timeWindow","type":"uint256","internalType":"uint256"}],"outputs":[],"stateMutability":"nonpayable"},{"type":"function","name":"systemActive","inputs":[],"outputs":[{"name":"","type":"bool","internalType":"bool"}],"stateMutability":"view"},{"type":"function","name":"toggleLogging","inputs":[],"outputs":[],"stateMutability":"nonpayable"},{"type":"function","name":"transferOwnership","inputs":[{"name":"newOwner","type":"address","internalType":"address"}],"outputs":[],"stateMutability":"nonpayable"},{"type":"function","name":"treasuryManager","inputs":[],"outputs":[{"name":"","type":"address","internalType":"contract ITreasuryManager"}],"stateMutability":"view"},{"type":"function","name":"triggerSecurityAlert","inputs":[{"name":"user","type":"address","internalType":"address"},{"name":"reason","type":"string","internalType":"string"}],"outputs":[],"stateMutability":"nonpayable"},{"type":"function","name":"updateGameAnalytics","inputs":[{"name":"gameType","type":"uint8","internalType":"uint8"},{"name":"totalGames","type":"uint256","internalType":"uint256"},{"name":"totalPlayers","type":"uint256","internalType":"uint256"},{"name":"totalVolume","type":"uint256","internalType":"uint256"},{"name":"averageTicketPrice","type":"uint256","internalType":"uint256"},{"name":"totalWinnings","type":"uint256","internalType":"uint256"}],"outputs":[],"stateMutability":"nonpayable"},{"type":"function","name":"updateGameConfig","inputs":[{"name":"gameType","type":"uint8","internalType":"uint8"},{"name":"ticketPrice","type":"uint256","internalType":"uint256"},{"name":"gameDuration","type":"uint256","internalType":"uint256"},{"name":"fee","type":"uint8","internalType":"uint8"},{"name":"maxTicketsPerPlayer","type":"uint256","internalType":"uint256"}],"outputs":[],"stateMutability":"nonpayable"},{"type":"function","name":"updateRateLimits","inputs":[{"name":"newMinInterval","type":"uint256","internalType":"uint256"},{"name":"newMaxInteractions","type":"uint256","internalType":"uint256"}],"outputs":[],"stateMutability":"nonpayable"},{"type":"function","name":"updateSystemAnalytics","inputs":[{"name":"totalUsers","type":"uint256","internalType":"uint256"},{"name":"totalVolume","type":"uint256","internalType":"uint256"},{"name":"totalTransactions","type":"uint256","internalType":"uint256"},{"name":"activeGames","type":"uint256","internalType":"uint256"},{"name":"totalWinnings","type":"uint256","internalType":"uint256"},{"name":"systemFees","type":"uint256","internalType":"uint256"}],"outputs":[],"stateMutability":"nonpayable"},{"type":"function","name":"updateSystemMetrics","inputs":[{"name":"transactions","type":"uint256","internalType":"uint256"},{"name":"volume","type":"uint256","internalType":"uint256"},{"name":"users","type":"uint256","internalType":"uint256"}],"outputs":[],"stateMutability":"nonpayable"},{"type":"function","name":"updateUserAnalytics","inputs":[{"name":"user","type":"address","internalType":"address"},{"name":"transactions","type":"uint256","internalType":"uint256"},{"name":"volume","type":"uint256","internalType":"uint256"},{"name":"gamesPlayed","type":"uint256","internalType":"uint256"},{"name":"winnings","type":"uint256","internalType":"uint256"},{"name":"referralEarnings","type":"uint256","internalType":"uint256"}],"outputs":[],"stateMutability":"nonpayable"},{"type":"function","name":"whitelistAddress","inputs":[{"name":"target","type":"address","internalType":"address"}],"outputs":[],"stateMutability":"nonpayable"},{"type":"event","name":"AnalyticsUpdated","inputs":[{"name":"user","type":"address","indexed":true,"internalType":"address"},{"name":"volume","type":"uint256","indexed":false,"internalType":"uint256"},{"name":"timestamp","type":"uint256","indexed":false,"internalType":"uint256"}],"anonymous":false},{"type":"event","name":"CircuitBreakerTriggered","inputs":[{"name":"circuitName","type":"string","indexed":true,"internalType":"string"},{"name":"timestamp","type":"uint256","indexed":false,"internalType":"uint256"}],"anonymous":false},{"type":"event","name":"ContractAddressUpdated","inputs":[{"name":"contractName","type":"string","indexed":false,"internalType":"string"},{"name":"oldAddress","type":"address","indexed":false,"internalType":"address"},{"name":"newAddress","type":"address","indexed":false,"internalType":"address"}],"anonymous":false},{"type":"event","name":"Initialized","inputs":[{"name":"version","type":"uint64","indexed":false,"internalType":"uint64"}],"anonymous":false},{"type":"event","name":"OwnershipTransferred","inputs":[{"name":"previousOwner","type":"address","indexed":true,"internalType":"address"},{"name":"newOwner","type":"address","indexed":true,"internalType":"address"}],"anonymous":false},{"type":"event","name":"RateLimitExceeded","inputs":[{"name":"user","type":"address","indexed":true,"internalType":"address"},{"name":"functionName","type":"string","indexed":true,"internalType":"string"},{"name":"timestamp","type":"uint256","indexed":false,"internalType":"uint256"}],"anonymous":false},{"type":"event","name":"SecurityAlertTriggered","inputs":[{"name":"user","type":"address","indexed":true,"internalType":"address"},{"name":"reason","type":"string","indexed":false,"internalType":"string"},{"name":"timestamp","type":"uint256","indexed":false,"internalType":"uint256"}],"anonymous":false},{"type":"event","name":"SystemActivated","inputs":[{"name":"timestamp","type":"uint256","indexed":false,"internalType":"uint256"}],"anonymous":false},{"type":"event","name":"SystemCheckPerformed","inputs":[{"name":"timestamp","type":"uint256","indexed":false,"internalType":"uint256"},{"name":"isHealthy","type":"bool","indexed":false,"internalType":"bool"}],"anonymous":false},{"type":"event","name":"SystemDeactivated","inputs":[{"name":"timestamp","type":"uint256","indexed":false,"internalType":"uint256"}],"anonymous":false},{"type":"event","name":"SystemInitialized","inputs":[{"name":"emergencyManager","type":"address","indexed":true,"internalType":"address"},{"name":"configManager","type":"address","indexed":true,"internalType":"address"},{"name":"securityUtils","type":"address","indexed":false,"internalType":"address"},{"name":"monitoringSystem","type":"address","indexed":false,"internalType":"address"},{"name":"eventLogger","type":"address","indexed":false,"internalType":"address"},{"name":"analyticsEngine","type":"address","indexed":false,"internalType":"address"},{"name":"rateLimiter","type":"address","indexed":false,"internalType":"address"},{"name":"circuitBreaker","type":"address","indexed":false,"internalType":"address"},{"name":"treasuryManager","type":"address","indexed":false,"internalType":"address"},{"name":"timestamp","type":"uint256","indexed":false,"internalType":"uint256"}],"anonymous":false},{"type":"error","name":"InvalidInitialization","inputs":[]},{"type":"error","name":"NotInitializing","inputs":[]},{"type":"error","name":"OwnableInvalidOwner","inputs":[{"name":"owner","type":"address","internalType":"address"}]},{"type":"error","name":"OwnableUnauthorizedAccount","inputs":[{"name":"account","type":"address","internalType":"address"}]}],"bytecode":{"object":"0x608080604052346100b8577ff0c57e16840df040f15088dc2f81fe391c3923bec73e23a9662efc9c229c6a009081549060ff8260401c166100a957506001600160401b036002600160401b031982821601610064575b60405161212790816100bd8239f35b6001600160401b031990911681179091556040519081527fc7f505b2f371ae2175ee4913f4499e1f2633a7b5936321eed1cdaeb6115181d290602090a15f8080610055565b63f92ee8a960e01b8152600490fd5b5f80fdfe6080806040526004361015610012575f80fd5b5f905f3560e01c908163016b041514611d655750806307d64b8614611ceb5780630decca1a146119f557806316efd941146119cc5780631b7bd2b814611956578063295802161461185b57806329991184146118325780632c92d2db146117c65780632e0e053f1461176a5780633431d5c91461174457806339da8bd1146116f15780633cea70d9146116c857806341566585146116625780634c4129101461158257806351858e271461153057806353d4fe33146115075780636ea02725146114e9578063715018a61461148057806379b9d40a146113ee5780637f60bcb0146113c55780638232d019146113725780638da5cb5b1461133d5780638f0591d3146112d957806393c87f03146112875780639e608c5a1461122c578063abce6f8e14611203578063aca78bc8146111b1578063c144f3fc146110bc578063c306b37814610aaa578063ca0ab07514610a81578063d1ce59a7146105ba578063d2c18f5914610593578063d41701391461050f578063d8649dfd1461047d578063e24dc409146103ef578063e37c983c1461035e578063e3eba07314610280578063f2fde38b146102535763f3290d75146101cb575f80fd5b3461024057602036600319011261024057806101e5611e54565b6101ed61204b565b6002546001600160a01b039081169190823b1561024e576024849283604051958694859363f3290d7560e01b85521660048401525af18015610243576102305750f35b61023990611d88565b6102405780f35b80fd5b6040513d84823e3d90fd5b505050fd5b50346102405760203660031901126102405761027d610270611e54565b61027861204b565b611fda565b80f35b50346102405760c03660031901126102405761029a611e54565b6044356102a561204b565b6005546001600160a01b0390811692849190843b1561035a57829160c48392604051948593849263e3eba07360e01b8452169889600484015260243560248401528860448401526064356064840152608435608484015260a43560a48401525af1801561024357610346575b505060407f80141e7674a4ea3634db4298d3cd9a66cc27a817058095a988b8ebbb2f938c93918151908152426020820152a280f35b61034f90611d88565b61035a57825f610311565b8280fd5b50346102405760c03660031901126102405780610379611e80565b61038161204b565b6005546001600160a01b031690813b156103eb5760ff60c484928360405195869485936338df260f60e21b8552166004840152602435602484015260443560448401526064356064840152608435608484015260a43560a48401525af18015610243576102305750f35b5050fd5b503461024057602036600319011261024057806004356001600160401b03811161047a57610421903690600401611e01565b61042961204b565b6007546001600160a01b0316803b156103eb57604051634f52315f60e11b8152602060048201529183918391829084908290610469906024830190611eb1565b03925af18015610243576102305750f35b50fd5b503461024057604036600319011261024057806004356001600160401b03811161047a576104af903690600401611e01565b6104b761204b565b6003546001600160a01b0316803b156103eb576104f6839291839260405194858094819363d8649dfd60e01b8352604060048401526044830190611eb1565b602435602483015203925af18015610243576102305750f35b50346102405760c03660031901126102405761052961204b565b60055481906001600160a01b0316803b1561047a5781809160c46040518094819363d417013960e01b83526004356004840152602435602484015260443560448401526064356064840152608435608484015260a43560a48401525af18015610243576102305750f35b5034610240578060031936011261024057546040516001600160a01b039091168152602090f35b50346102405780600319360112610240576001808080816024608060018060a01b036002541660405192838092632721b01d60e11b82528b60048301525afa9081610a3b575b50610a35575084935b60035460405163d1ce59a760e01b81529061010090829060049082906001600160a01b03165afa9081610990575b5061098a575084925b60055460405163652e68b160e11b81529060a090829060049082906001600160a01b03165afa9081610959575b50610953575084905b60018060a01b03600654166040518091639f427bd960e01b825261018091829181806106b6600482016060905f8152604060208201525f60408201520190565b03915afa918261091e575b5050610918575084915b60075460405163ad00229560e01b8152602060048201525f60248201529060c090829060449082906001600160a01b03165afa90816108e6575b506108e0575084925b6008548654604051630a43443160e21b81529760a09290921c60ff169691906001600160a01b0316602089600481845afa9182156108985780926108a4575b6004995080600954926040519b8c8092630c69e74b60e11b82525afa9081156108985780916107be575b50610120995051916040519815158952151560208901526040880152606087015215156080860152151560a0850152151560c0840152151560e08301521515610100820152f35b90503d998a82823e6107d08b82611d9b565b6020818c81010312610894578051916001600160401b0392838111610894578c8301601f8285010112156108945780830151938411610880578360051b906040519461081f6020840187611d9b565b8552602085019d840160208383870101011161035a576020818501019d8e5b60208484880101011161085b57505050505061012099505f610777565b8e516001600160a01b038116810361087c57815260209e8f019e018e61083e565b8480fd5b634e487b7160e01b82526041600452602482fd5b5080fd5b604051903d90823e3d90fd5b91506020893d6020116108d8575b816108bf60209383611d9b565b81010312610894576108d2600499611ef8565b9161074d565b3d91506108b2565b9261070e565b6109079060c03d60c011610911575b6108ff8183611d9b565b810190611f9f565b5050505050610705565b503d6108f5565b916106cb565b8161093d92903d1061094c575b6109358183611d9b565b810190611f33565b505050505050505050506106c1565b503d61092b565b90610676565b61097a9060a03d60a011610983575b6109728183611d9b565b810190611f05565b5050505061066d565b503d610968565b92610640565b806101003d61010011610a2e575b6109a88183611d9b565b8101036101008112610a2a5760a013610a26576040519060a08201908282106001600160401b03831117610a12576080610a099181936040528051855260208101516020860152604081015160408601526060810151606086015201611ef8565b9101525f610637565b634e487b7160e01b5f52604160045260245ffd5b8780fd5b8880fd5b503d61099e565b93610609565b6080813d608011610a79575b81610a5460809383611d9b565b81010312610a2657606081610a6b610a7293611ef8565b5001611ef8565b505f610600565b3d9150610a47565b50346102405780600319360112610240576001546040516001600160a01b039091168152602090f35b50346102405761014036600319011261024057610ac5611e54565b602435906001600160a01b03821682036110b857610ae1611e6a565b6064356001600160a01b03811681036110b8576084356001600160a01b03811681036110b85760a435906001600160a01b03821682036110b85760c435956001600160a01b03871687036110b85760e435946001600160a01b03861686036110b857610104356001600160a01b03811681036110b85761012435916001600160a01b03831683036110b8575f805160206120d283398151915254986001600160401b038a16801590816110a8575b600114908161109e575b159081611095575b5061108357610be49060016001600160401b03198c16175f805160206120d28339815191525560ff8b60401c1615611057575b610bdc612083565b610278612083565b6001600160a01b03841615611008576001600160a01b0316968715610fc3576001600160a01b03871615610f7e576001600160a01b03851615610f2f576001600160a01b03861615610eea576001600160a01b038a1615610ea6576001600160a01b03811615610e61576001600160a01b03821615610e1c576001600160a01b03831615610dd8578a546001600160a01b03199081166001600160a01b039586169081178d556001805483168b179055600280548316998716998a179055600380548316978716978817905560048054831698871698891790556005805483169c87169c8d179055600680548316938716938417905560078054909216938616938417909155600880546001600160a81b03191694909516938417600160a01b17909455426009819055604080519889526020890196909652948701959095526060860198909852608085019390935260a084019690965260c083019190915260e082015260ff93907f37e430d5c9b7c78ce4e3b6ce70516cc14677812974e21c91df4714b3d8b9d63a9061010090a360401c1615610d805780f35b68ff0000000000000000195f805160206120d283398151915254165f805160206120d2833981519152557fc7f505b2f371ae2175ee4913f4499e1f2633a7b5936321eed1cdaeb6115181d2602060405160018152a180f35b606460405162461bcd60e51b815260206004820152602060248201527f496e76616c6964207472656173757279206d616e6167657220616464726573736044820152fd5b60405162461bcd60e51b815260206004820152601f60248201527f496e76616c6964206369726375697420627265616b65722061646472657373006044820152606490fd5b60405162461bcd60e51b815260206004820152601c60248201527f496e76616c69642072617465206c696d697465722061646472657373000000006044820152606490fd5b606460405162461bcd60e51b815260206004820152602060248201527f496e76616c696420616e616c797469637320656e67696e6520616464726573736044820152fd5b60405162461bcd60e51b815260206004820152601c60248201527f496e76616c6964206576656e74206c6f676765722061646472657373000000006044820152606490fd5b60405162461bcd60e51b815260206004820152602160248201527f496e76616c6964206d6f6e69746f72696e672073797374656d206164647265736044820152607360f81b6064820152608490fd5b60405162461bcd60e51b815260206004820152601e60248201527f496e76616c6964207365637572697479207574696c73206164647265737300006044820152606490fd5b60405162461bcd60e51b815260206004820152601e60248201527f496e76616c696420636f6e666967206d616e61676572206164647265737300006044820152606490fd5b60405162461bcd60e51b815260206004820152602160248201527f496e76616c696420656d657267656e6379206d616e61676572206164647265736044820152607360f81b6064820152608490fd5b68ffffffffffffffffff198b1668010000000000000001175f805160206120d283398151915255610bd4565b60405163f92ee8a960e01b8152600490fd5b9050155f610ba1565b303b159150610b99565b60408c901c60ff16159150610b8f565b5f80fd5b5034610240576040366003190112610240576110d6611e54565b6024356001600160401b03811161035a576110f5903690600401611e01565b6110fd61204b565b6002546001600160a01b0390811692849190843b1561035a578290604051928391630749f6e160e21b8352169586600483015260406024830152818381611147604482018a611eb1565b03925af180156102435761119d575b50506111917f737371d2e1651f7fd9c9d28d6dee5d4f43cb53472bf025f25fbce725e50bc51a91604051918291604083526040830190611eb1565b4260208301520390a280f35b6111a690611d88565b61035a57825f611156565b503461024057806111c136611e1f565b6111cc92919261204b565b6007546001600160a01b0316803b1561087c576104699385809460405196879586948593631594f17960e31b855260048501611ed6565b50346102405780600319360112610240576003546040516001600160a01b039091168152602090f35b503461024057806003193601126102405761124561204b565b6008805460ff60a01b1916600160a01b1790556040514281527f92cda91bf19e66302d312b84686994308bea9ec8a3dc14597a913fec2cc7eba990602090a180f35b50346102405780600319360112610240576112a061204b565b805481906001600160a01b0316803b1561047a578180916004604051809481936393c87f0360e01b83525af18015610243576102305750f35b5034610240576040366003190112610240576112f361204b565b60025481906001600160a01b0316803b1561047a57818091604460405180948193638f0591d360e01b8352600435600484015260243560248401525af18015610243576102305750f35b50346102405780600319360112610240575f805160206120b2833981519152546040516001600160a01b039091168152602090f35b503461024057806003193601126102405761138b61204b565b60ff60a01b19600854166008557fe6dc88d2eb2083a6abc7af46ab65aefee04707bc7c523c8e0e069db83e1ef3576020604051428152a180f35b50346102405780600319360112610240576005546040516001600160a01b039091168152602090f35b50346102405760a036600319011261024057611408611e80565b60643560ff81168091036110b857829161142061204b565b6001546001600160a01b031690813b1561024e5760a460ff918580946040519687958694633cdcea0560e11b865216600485015260243560248501526044356044850152606484015260843560848401525af18015610243576102305750f35b503461024057806003193601126102405761149961204b565b5f805160206120b283398151915280546001600160a01b031981169091555f906001600160a01b03167f8be0079c531659141344cd1fd0a4f28419497f9722a3daafe3b4186f6b6457e08280a380f35b50346102405780600319360112610240576020600954604051908152f35b50346102405780600319360112610240576006546040516001600160a01b039091168152602090f35b503461024057806003193601126102405761154961204b565b805481906001600160a01b0316803b1561047a578180916004604051809481936351858e2760e01b83525af18015610243576102305750f35b5034610240576020366003190112610240576004356001600160401b038111610894576115b3903690600401611e01565b6115bb61204b565b60075482906001600160a01b0316803b156108945781604051809263eb4f879560e01b8252602060048301528183816115f7602482018a611eb1565b03925af180156102435761164e575b506040518251819061161c818360208801611e90565b81010390207f9a67283e259b60ad992613fe36fe808ce9a65fc69b7893a856fbe5f926f251846020604051428152a280f35b61165790611d88565b61089457815f611606565b5034610240576020366003190112610240578061167d611e54565b61168561204b565b6002546001600160a01b039081169190823b1561024e5760248492836040519586948593634156658560e01b85521660048401525af18015610243576102305750f35b50346102405780600319360112610240576008546040516001600160a01b039091168152602090f35b503461024057806003193601126102405761170a61204b565b60045481906001600160a01b0316803b1561047a578180916004604051809481936339da8bd160e01b83525af18015610243576102305750f35b5034610240578060031936011261024057602060ff60085460a01c166040519015158152f35b50346102405760203660031901126102405761178461204b565b60035481906001600160a01b0316803b1561047a57818091602460405180948193632e0e053f60e01b835260043560048401525af18015610243576102305750f35b5034610240576060366003190112610240576117e061204b565b60035481906001600160a01b0316803b1561047a57818091606460405180948193633c047e1360e01b83526004356004840152602435602484015260443560448401525af18015610243576102305750f35b50346102405780600319360112610240576004546040516001600160a01b039091168152602090f35b5034610240578060031960803682011261047a576001600160401b0360043581811161024e5761188f903690600401611e01565b60243582811161087c576118a7903690600401611e01565b906118b0611e6a565b926064359081116119525736602382011215611952576118da903690602481600401359101611dbc565b6118e261204b565b6004546001600160a01b039590861692833b15610a2657610469889661192d94889461193d9a6040519b8c9a8b998a986314ac010b60e11b8a52608060048b015260848a0190611eb1565b90848983030160248a0152611eb1565b93166044860152848303016064850152611eb1565b8580fd5b50346102405760603660031901126102405780611971611e54565b61197961204b565b6006546001600160a01b039081169190823b1561024e576064849283604051958694859363036f7a5760e31b8552166004840152602435602484015260443560448401525af18015610243576102305750f35b50346102405780600319360112610240576007546040516001600160a01b039091168152602090f35b5034610240578060031936011261024057611a0e61204b565b8054604051630a43443160e21b8152602092916001600160a01b039160019185908290600490829087165afa849181611cb4575b50611ca8575050815b60648480846001541660405193848092637888b66560e11b8252846004830152600e60248301526d6d696e5469636b6574507269636560901b60448301525afa9182611c7b575b5050611c765750815b828483600354166004604051809481936365ff1ccd60e11b83525af1849181611c3f575b50611c34575050815b600460a083600554166040519283809263652e68b160e11b82525afa9081611c13575b50611c0e5750815b81600654166040518091639f427bd960e01b82526101809182918180611b2d600482016060905f8152604060208201525f60408201520190565b03915afa9182611be9575b5050611bde5750604460c083925b600754166040519283809263ad00229560e01b82528860048301525f60248301525afa9081611bbc575b50611bb557505b426009557f65e598f4174b3dfc487b841b4ccc91f4943bb2c4be074eb7ae5084fcdeb64fcb60408051924284521515928385820152a1604051908152f35b9050611b77565b611bd49060c03d60c011610911576108ff8183611d9b565b5050505050611b70565b9060c0604491611b46565b81611bff92903d1061094c576109358183611d9b565b50505050505050505050611b38565b611af3565b611c2b9060a03d60a011610983576109728183611d9b565b50505050611aeb565b611ac8575081611ac8565b9091508581813d8311611c6f575b611c578183611d9b565b8101031261087c57611c6890611ef8565b905f611abf565b503d611c4d565b611a9b565b813d8311611ca1575b611c8e8183611d9b565b81010312611c9d57845f611a92565b8380fd5b503d611c84565b15611a4b575081611a4b565b9091508581813d8311611ce4575b611ccc8183611d9b565b8101031261087c57611cdd90611ef8565b905f611a42565b503d611cc2565b50346110b857611cfa36611e1f565b611d0592919261204b565b6006546001600160a01b0316803b156110b857611d3c935f8094604051968795869485936303eb25c360e11b855260048501611ed6565b03925af18015611d5a57611d4e575080f35b611d589150611d88565b005b6040513d5f823e3d90fd5b346110b8575f3660031901126110b8576002546001600160a01b03168152602090f35b6001600160401b038111610a1257604052565b90601f801991011681019081106001600160401b03821117610a1257604052565b9291926001600160401b038211610a125760405191611de5601f8201601f191660200184611d9b565b8294818452818301116110b8578281602093845f960137010152565b9080601f830112156110b857816020611e1c93359101611dbc565b90565b60606003198201126110b857600435906001600160401b0382116110b857611e4991600401611e01565b906024359060443590565b600435906001600160a01b03821682036110b857565b604435906001600160a01b03821682036110b857565b6004359060ff821682036110b857565b5f5b838110611ea15750505f910152565b8181015183820152602001611e92565b90602091611eca81518092818552858086019101611e90565b601f01601f1916010190565b611eee60409295949395606083526060830190611eb1565b9460208201520152565b519081151582036110b857565b908160a09103126110b857611f1981611ef8565b916020820151916040810151916080606083015192015190565b9190826101809103126110b857611f4982611ef8565b91602081015191604082015191606081015191611f6860808301611ef8565b9160a08101519160c08201519160e081015191611f886101008301611ef8565b916101208101519161016061014083015192015190565b91908260c09103126110b857815160038110156110b85791602081015191604082015191606081015191611e1c60a060808401519301611ef8565b6001600160a01b03908116908115612033575f805160206120b283398151915280546001600160a01b031981168417909155167f8be0079c531659141344cd1fd0a4f28419497f9722a3daafe3b4186f6b6457e05f80a3565b604051631e4fbdf760e01b81525f6004820152602490fd5b5f805160206120b2833981519152546001600160a01b0316330361206b57565b60405163118cdaa760e01b8152336004820152602490fd5b60ff5f805160206120d28339815191525460401c161561209f57565b604051631afcd79f60e31b8152600490fdfe9016d09d72d40fdae2fd8ceac6b6234c7706214fd39c1cd1e609a0528c199300f0c57e16840df040f15088dc2f81fe391c3923bec73e23a9662efc9c229c6a00a26469706673582212208cab60b0ed15a0c3efcae4e158dcf2d9d193eca6a3f94fce1d9abb5ce034448864736f6c63430008160033","linkReferences":{}},"methodIdentifiers":{"activateSystem()":"9e608c5a","analyticsEngine()":"7f60bcb0","blacklistAddress(address)":"f3290d75","circuitBreaker()":"16efd941","configManager()":"ca0ab075","createAlert(string,uint256)":"d8649dfd","createCircuit(string,uint256,uint256)":"aca78bc8","deactivateSystem()":"8232d019","emergencyManager()":"d2c18f59","emergencyPause()":"51858e27","emergencyResume()":"93c87f03","eventLogger()":"29991184","getSystemStats()":"d1ce59a7","initialize(address,address,address,address,address,address,address,address,address,address)":"c306b378","lastSystemCheck()":"6ea02725","logEvent(string,string,address,bytes)":"29580216","monitoringSystem()":"abce6f8e","owner()":"8da5cb5b","performSystemCheck()":"0decca1a","rateLimiter()":"53d4fe33","recordCircuitFailure(string)":"4c412910","recordCircuitSuccess(string)":"e24dc409","renounceOwnership()":"715018a6","resolveAlert(uint256)":"2e0e053f","securityUtils()":"016b0415","setFunctionRateLimit(string,uint256,uint256)":"07d64b86","setUserRateLimit(address,uint256,uint256)":"1b7bd2b8","systemActive()":"3431d5c9","toggleLogging()":"39da8bd1","transferOwnership(address)":"f2fde38b","treasuryManager()":"3cea70d9","triggerSecurityAlert(address,string)":"c144f3fc","updateGameAnalytics(uint8,uint256,uint256,uint256,uint256,uint256)":"e37c983c","updateGameConfig(uint8,uint256,uint256,uint8,uint256)":"79b9d40a","updateRateLimits(uint256,uint256)":"8f0591d3","updateSystemAnalytics(uint256,uint256,uint256,uint256,uint256,uint256)":"d4170139","updateSystemMetrics(uint256,uint256,uint256)":"2c92d2db","updateUserAnalytics(address,uint256,uint256,uint256,uint256,uint256)":"e3eba073","whitelistAddress(address)":"41566585"},"id":15}