{"abi":[{"type":"constructor","inputs":[],"stateMutability":"nonpayable"},{"type":"function","name":"addGovernor","inputs":[{"name":"governor","type":"address","internalType":"address"}],"outputs":[],"stateMutability":"nonpayable"},{"type":"function","name":"cancelProposal","inputs":[{"name":"proposalId","type":"uint256","internalType":"uint256"}],"outputs":[],"stateMutability":"nonpayable"},{"type":"function","name":"createProposal","inputs":[{"name":"title","type":"string","internalType":"string"},{"name":"description","type":"string","internalType":"string"}],"outputs":[{"name":"","type":"uint256","internalType":"uint256"}],"stateMutability":"nonpayable"},{"type":"function","name":"executeProposal","inputs":[{"name":"proposalId","type":"uint256","internalType":"uint256"}],"outputs":[],"stateMutability":"nonpayable"},{"type":"function","name":"getProposalInfo","inputs":[{"name":"proposalId","type":"uint256","internalType":"uint256"}],"outputs":[{"name":"id","type":"uint256","internalType":"uint256"},{"name":"title","type":"string","internalType":"string"},{"name":"description","type":"string","internalType":"string"},{"name":"forVotes","type":"uint256","internalType":"uint256"},{"name":"againstVotes","type":"uint256","internalType":"uint256"},{"name":"startTime","type":"uint256","internalType":"uint256"},{"name":"endTime","type":"uint256","internalType":"uint256"},{"name":"executed","type":"bool","internalType":"bool"},{"name":"canceled","type":"bool","internalType":"bool"},{"name":"proposer","type":"address","internalType":"address"}],"stateMutability":"view"},{"type":"function","name":"getVoteInfo","inputs":[{"name":"proposalId","type":"uint256","internalType":"uint256"},{"name":"voter","type":"address","internalType":"address"}],"outputs":[{"name":"hasVoted","type":"bool","internalType":"bool"},{"name":"votedFor","type":"bool","internalType":"bool"},{"name":"userVotingPower","type":"uint256","internalType":"uint256"}],"stateMutability":"view"},{"type":"function","name":"initialize","inputs":[{"name":"owner","type":"address","internalType":"address"}],"outputs":[],"stateMutability":"nonpayable"},{"type":"function","name":"isGovernor","inputs":[{"name":"","type":"address","internalType":"address"}],"outputs":[{"name":"","type":"bool","internalType":"bool"}],"stateMutability":"view"},{"type":"function","name":"owner","inputs":[],"outputs":[{"name":"","type":"address","internalType":"address"}],"stateMutability":"view"},{"type":"function","name":"proposalCount","inputs":[],"outputs":[{"name":"","type":"uint256","internalType":"uint256"}],"stateMutability":"view"},{"type":"function","name":"proposalThreshold","inputs":[],"outputs":[{"name":"","type":"uint256","internalType":"uint256"}],"stateMutability":"view"},{"type":"function","name":"proposals","inputs":[{"name":"","type":"uint256","internalType":"uint256"}],"outputs":[{"name":"id","type":"uint256","internalType":"uint256"},{"name":"title","type":"string","internalType":"string"},{"name":"description","type":"string","internalType":"string"},{"name":"forVotes","type":"uint256","internalType":"uint256"},{"name":"againstVotes","type":"uint256","internalType":"uint256"},{"name":"startTime","type":"uint256","internalType":"uint256"},{"name":"endTime","type":"uint256","internalType":"uint256"},{"name":"executed","type":"bool","internalType":"bool"},{"name":"canceled","type":"bool","internalType":"bool"},{"name":"proposer","type":"address","internalType":"address"}],"stateMutability":"view"},{"type":"function","name":"quorum","inputs":[],"outputs":[{"name":"","type":"uint256","internalType":"uint256"}],"stateMutability":"view"},{"type":"function","name":"removeGovernor","inputs":[{"name":"governor","type":"address","internalType":"address"}],"outputs":[],"stateMutability":"nonpayable"},{"type":"function","name":"renounceOwnership","inputs":[],"outputs":[],"stateMutability":"nonpayable"},{"type":"function","name":"transferOwnership","inputs":[{"name":"newOwner","type":"address","internalType":"address"}],"outputs":[],"stateMutability":"nonpayable"},{"type":"function","name":"updateGovernanceSettings","inputs":[{"name":"newVotingPeriod","type":"uint256","internalType":"uint256"},{"name":"newQuorum","type":"uint256","internalType":"uint256"},{"name":"newProposalThreshold","type":"uint256","internalType":"uint256"}],"outputs":[],"stateMutability":"nonpayable"},{"type":"function","name":"updateVotingPower","inputs":[{"name":"user","type":"address","internalType":"address"},{"name":"newPower","type":"uint256","internalType":"uint256"}],"outputs":[],"stateMutability":"nonpayable"},{"type":"function","name":"vote","inputs":[{"name":"proposalId","type":"uint256","internalType":"uint256"},{"name":"support","type":"bool","internalType":"bool"}],"outputs":[],"stateMutability":"nonpayable"},{"type":"function","name":"votingPeriod","inputs":[],"outputs":[{"name":"","type":"uint256","internalType":"uint256"}],"stateMutability":"view"},{"type":"function","name":"votingPower","inputs":[{"name":"","type":"address","internalType":"address"}],"outputs":[{"name":"","type":"uint256","internalType":"uint256"}],"stateMutability":"view"},{"type":"event","name":"GovernorAdded","inputs":[{"name":"governor","type":"address","indexed":true,"internalType":"address"},{"name":"timestamp","type":"uint256","indexed":false,"internalType":"uint256"}],"anonymous":false},{"type":"event","name":"GovernorRemoved","inputs":[{"name":"governor","type":"address","indexed":true,"internalType":"address"},{"name":"timestamp","type":"uint256","indexed":false,"internalType":"uint256"}],"anonymous":false},{"type":"event","name":"Initialized","inputs":[{"name":"version","type":"uint64","indexed":false,"internalType":"uint64"}],"anonymous":false},{"type":"event","name":"OwnershipTransferred","inputs":[{"name":"previousOwner","type":"address","indexed":true,"internalType":"address"},{"name":"newOwner","type":"address","indexed":true,"internalType":"address"}],"anonymous":false},{"type":"event","name":"ProposalCanceled","inputs":[{"name":"proposalId","type":"uint256","indexed":true,"internalType":"uint256"},{"name":"canceler","type":"address","indexed":true,"internalType":"address"},{"name":"timestamp","type":"uint256","indexed":false,"internalType":"uint256"}],"anonymous":false},{"type":"event","name":"ProposalCreated","inputs":[{"name":"proposalId","type":"uint256","indexed":true,"internalType":"uint256"},{"name":"proposer","type":"address","indexed":true,"internalType":"address"},{"name":"title","type":"string","indexed":false,"internalType":"string"},{"name":"timestamp","type":"uint256","indexed":false,"internalType":"uint256"}],"anonymous":false},{"type":"event","name":"ProposalExecuted","inputs":[{"name":"proposalId","type":"uint256","indexed":true,"internalType":"uint256"},{"name":"executor","type":"address","indexed":true,"internalType":"address"},{"name":"timestamp","type":"uint256","indexed":false,"internalType":"uint256"}],"anonymous":false},{"type":"event","name":"VoteCast","inputs":[{"name":"proposalId","type":"uint256","indexed":true,"internalType":"uint256"},{"name":"voter","type":"address","indexed":true,"internalType":"address"},{"name":"support","type":"bool","indexed":false,"internalType":"bool"},{"name":"timestamp","type":"uint256","indexed":false,"internalType":"uint256"}],"anonymous":false},{"type":"event","name":"VotingPowerUpdated","inputs":[{"name":"user","type":"address","indexed":true,"internalType":"address"},{"name":"oldPower","type":"uint256","indexed":false,"internalType":"uint256"},{"name":"newPower","type":"uint256","indexed":false,"internalType":"uint256"},{"name":"timestamp","type":"uint256","indexed":false,"internalType":"uint256"}],"anonymous":false},{"type":"error","name":"InvalidInitialization","inputs":[]},{"type":"error","name":"NotInitializing","inputs":[]},{"type":"error","name":"OwnableInvalidOwner","inputs":[{"name":"owner","type":"address","internalType":"address"}]},{"type":"error","name":"OwnableUnauthorizedAccount","inputs":[{"name":"account","type":"address","internalType":"address"}]}],"bytecode":{"object":"0x608080604052346100ca5762093a806001556103e860025560646003557ff0c57e16840df040f15088dc2f81fe391c3923bec73e23a9662efc9c229c6a009081549060ff8260401c166100bb57506001600160401b036002600160401b031982821601610076575b60405161178e90816100cf8239f35b6001600160401b031990911681179091556040519081527fc7f505b2f371ae2175ee4913f4499e1f2633a7b5936321eed1cdaeb6115181d290602090a15f8080610067565b63f92ee8a960e01b8152600490fd5b5f80fdfe60806040526004361015610011575f80fd5b5f3560e01c8063013cf08b1461126157806302a251a3146112445780630d524bc6146111cb5780630d61b519146110515780631703a018146110345780633c4a25d014610f265780633ffe88ec14610dba57806365e481e214610977578063715018a6146109105780638da5cb5b146108dc578063b58131b0146108bf578063bc903cb81461083d578063c07473f614610805578063c4d66de8146106a8578063c9d27afe146104aa578063da35c6641461048e578063e0a8f6f514610352578063e43581b814610315578063eadc29c714610246578063eecdac881461012f5763f2fde38b14610100575f80fd5b3461012b57602036600319011261012b5761012961011c611485565b6101246116bf565b61164e565b005b5f80fd5b3461012b5760208060031936011261012b57610149611485565b906101526116bf565b60018060a01b0380921691825f526006825261017460ff60405f2054166114f1565b5f805160206117398339815191525416821461020c5760607facaa2fb2ca5c02ca71a652c29ea8b1ad9c5a6ee6d1afabf6fbc92064ee8e606691835f526006815260405f2060ff198154169055600581525f60408120918183549355857f7a35773985d75c7e8eef0958f35dd01b4898e1b08cdbc290da5906679eb138fa82604051428152a2604051928352820152426040820152a2005b6064906040519062461bcd60e51b82526004820152601360248201527221b0b73737ba103932b6b7bb329037bbb732b960691b6044820152fd5b3461012b57604036600319011261012b5761025f611485565b6024359061026b6116bf565b6001600160a01b03165f8181526006602052604090205490919060ff16156102d75760607facaa2fb2ca5c02ca71a652c29ea8b1ad9c5a6ee6d1afabf6fbc92064ee8e606691835f52600560205260405f209080825492556040519182526020820152426040820152a2005b60405162461bcd60e51b81526020600482015260166024820152752ab9b2b91034b9903737ba10309033b7bb32b93737b960511b6044820152606490fd5b3461012b57602036600319011261012b576001600160a01b03610336611485565b165f526006602052602060ff60405f2054166040519015158152f35b3461012b5760208060031936011261012b57600435335f526006825261037e60ff60405f2054166114f1565b805f526004825260405f206103958154151561152e565b600781018054909133601083901c6001600160a01b031603610456576103be60ff83161561157a565b60ff8260081c1661041157906103dc60066101009301544210611613565b61ff00191617905560405142815233927f138b18a07b49643bc6ce0d2ec0e0734e0c7fdf5ef4a81e9b58789b45c16eb58391a3005b60405162461bcd60e51b815260048101869052601960248201527f50726f706f73616c20616c72656164792063616e63656c6564000000000000006044820152606490fd5b60405162461bcd60e51b815260048101869052601060248201526f2737ba103a343290383937b837b9b2b960811b6044820152606490fd5b3461012b575f36600319011261012b5760205f54604051908152f35b3461012b57604036600319011261012b57600435602435908115159182810361012b57335f52602090600682526104e760ff60405f2054166114f1565b335f526005825260405f20541561067157825f526004825260405f20906105108254151561152e565b600582015442106106375761052b6006830154421115611613565b60088201335f5280845260ff60405f2054166106025761056160ff60078501546105578282161561157a565b60081c16156115c6565b335f52835260405f2060ff199060018282541617905560098301845260405f209081541660ff87161790555f146105e357335f52600582526105ad600360405f20549201918254611606565b90555b60405192835242908301527fcbdf6214089cba887ecbf35a0b6a734589959c9763342c756bb2a80ca2bc9f6e60403393a3005b600582526105fb600460405f20549201918254611606565b90556105b0565b60405162461bcd60e51b815260048101859052600d60248201526c105b1c9958591e481d9bdd1959609a1b6044820152606490fd5b60405162461bcd60e51b8152600481018490526012602482015271159bdd1a5b99c81b9bdd081cdd185c9d195960721b6044820152606490fd5b60405162461bcd60e51b815260048101839052600f60248201526e2737903b37ba34b733903837bbb2b960891b6044820152606490fd5b3461012b57602036600319011261012b576106c1611485565b7ff0c57e16840df040f15088dc2f81fe391c3923bec73e23a9662efc9c229c6a009081549060ff8260401c16159167ffffffffffffffff8116801590816107fd575b60011490816107f3575b1590816107ea575b506107d85767ffffffffffffffff1981166001178455826107b9575b5061073a6116f7565b6107426116f7565b61074b8161164e565b60018060a01b03165f52600660205260405f20600160ff1982541617905560056020526103e860405f205561077c57005b68ff00000000000000001981541690557fc7f505b2f371ae2175ee4913f4499e1f2633a7b5936321eed1cdaeb6115181d2602060405160018152a1005b68ffffffffffffffffff19166801000000000000000117835583610731565b60405163f92ee8a960e01b8152600490fd5b90501585610715565b303b15915061070d565b849150610703565b3461012b57602036600319011261012b576001600160a01b03610826611485565b165f526005602052602060405f2054604051908152f35b3461012b57602036600319011261012b576004355f52600460205260405f2080546108bb6003830154926004810154926005820154906006830154600784015492610896600261088f60018801611339565b9601611339565b9660405198899860018060a01b038760101c169760ff808960081c169816968b611419565b0390f35b3461012b575f36600319011261012b576020600354604051908152f35b3461012b575f36600319011261012b575f80516020611739833981519152546040516001600160a01b039091168152602090f35b3461012b575f36600319011261012b576109286116bf565b5f8051602061173983398151915280546001600160a01b031981169091555f906001600160a01b03167f8be0079c531659141344cd1fd0a4f28419497f9722a3daafe3b4186f6b6457e08280a3005b3461012b57604036600319011261012b5760043567ffffffffffffffff811161012b576109a890369060040161149b565b60243567ffffffffffffffff811161012b576109c890369060040161149b565b90335f5260066020526109e160ff60405f2054166114f1565b335f52600560205260405f205460035411610d7557805115610d3857815115610cf3575f54905f198214610cdf57600182015f818155818152600460205260409020908155815167ffffffffffffffff8111610c1357610a4460018301546112df565b601f8111610c9b575b50806020601f8211600114610c32575f91610c27575b508160011b915f199060031b1c19161760018201555b60028101845167ffffffffffffffff8111610c1357610a9882546112df565b95601f8711610bce575b602096508690601f8311600114610b68576007949392915f9183610b5d575b50508160011b915f199060031b1c19161790555b426005820155610ae760015442611606565b600682015501805462010000600160b01b0319163360101b62010000600160b01b03161790556040805181815291610b21918301906113db565b42848301527f98120a6aaa04295520ab4e01c6c1235dd316e822cc9ff31db7b3f197366d18bd33928060018601930390a3600160405191018152f35b015190508880610ac1565b90601f19831691845f52885f20925f5b818110610bb7575091600193918560079897969410610b9f575b505050811b019055610ad5565b01515f1960f88460031b161c19169055888080610b92565b92938a600181928786015181550195019301610b78565b825f5260205f20601f830160051c81019760208410610c09575b601f0160051c01965b878110610bfe5750610aa2565b5f8155600101610bf1565b9097508790610be8565b634e487b7160e01b5f52604160045260245ffd5b905083015186610a63565b9150600183015f5260205f205f925b601f1983168410610c83576001935082601f19811610610c6b575b5050811b016001820155610a79565b8501515f1960f88460031b161c191690558680610c5c565b85810151825560209384019360019092019101610c41565b600183015f5260205f20601f830160051c810160208410610cd8575b601f830160051c82018110610ccd575050610a4d565b5f8155600101610cb7565b5080610cb7565b634e487b7160e01b5f52601160045260245ffd5b60405162461bcd60e51b815260206004820152601b60248201527f4465736372697074696f6e2063616e6e6f7420626520656d70747900000000006044820152606490fd5b60405162461bcd60e51b81526020600482015260156024820152745469746c652063616e6e6f7420626520656d70747960581b6044820152606490fd5b60405162461bcd60e51b815260206004820152601960248201527f496e73756666696369656e7420766f74696e6720706f776572000000000000006044820152606490fd5b3461012b57606036600319011261012b57604435602435600435610ddc6116bf565b620151808110610ee15762278d008111610ea3578115610e5e578215610e0757600155600255600355005b60405162461bcd60e51b815260206004820152602960248201527f50726f706f73616c207468726573686f6c64206d75737420626520677265617460448201526806572207468616e20360bc1b6064820152608490fd5b60405162461bcd60e51b815260206004820152601d60248201527f51756f72756d206d7573742062652067726561746572207468616e20300000006044820152606490fd5b60405162461bcd60e51b8152602060048201526016602482015275566f74696e6720706572696f6420746f6f206c6f6e6760501b6044820152606490fd5b60405162461bcd60e51b815260206004820152601760248201527f566f74696e6720706572696f6420746f6f2073686f72740000000000000000006044820152606490fd5b3461012b5760208060031936011261012b57610f40611485565b610f486116bf565b6001600160a01b0316908115610ff057815f526006815260ff60405f205416610fb7577f83ac20e2637247e58a2d9b27c934067aa1e542c270876c557f5b8e64cf3c88a790825f526006815260405f20600160ff1982541617905560058152606460405f2055604051428152a2005b6064906040519062461bcd60e51b82526004820152601260248201527120b63932b0b23c90309033b7bb32b93737b960711b6044820152fd5b6064906040519062461bcd60e51b82526004820152601860248201527f496e76616c696420676f7665726e6f72206164647265737300000000000000006044820152fd5b3461012b575f36600319011261012b576020600254604051908152f35b3461012b5760208060031936011261012b57600435335f526006825261107d60ff60405f2054166114f1565b805f526004825260405f206110948154151561152e565b60068101544211156111935760078101908154906110b560ff83161561157a565b6110c560ff8360081c16156115c6565b60046003820154910154906110da8282611606565b6002541161115957111561111e5760ff1916600117905560405142815233927f3b7c90df35b419337cff0919fe91849006607bb66c4373623f06f9d48c1ebb9891a3005b60405162461bcd60e51b8152600481018590526013602482015272141c9bdc1bdcd85b081b9bdd081c185cdcd959606a1b6044820152606490fd5b60405162461bcd60e51b8152600481018790526012602482015271145d5bdc9d5b481b9bdd081c995858da195960721b6044820152606490fd5b60405162461bcd60e51b815260048101849052601060248201526f159bdd1a5b99c81b9bdd08195b99195960821b6044820152606490fd5b3461012b57604036600319011261012b576024356001600160a01b0381169081900361012b576060906004355f52600460205260405f20905f5260088101602052600960ff60405f205416910160205260ff60405f205416600560205260405f2054906040519215158352151560208301526040820152f35b3461012b575f36600319011261012b576020600154604051908152f35b3461012b57602036600319011261012b576004355f52600460205260405f208054906108bb61129260018301611339565b61129e60028401611339565b926003810154946004820154916005810154600760068301549201549360405198899860018060a01b038760101c169760ff808960081c169816968b611419565b90600182811c9216801561130d575b60208310146112f957565b634e487b7160e01b5f52602260045260245ffd5b91607f16916112ee565b90601f8019910116810190811067ffffffffffffffff821117610c1357604052565b9060405191825f825461134b816112df565b908184526020946001916001811690815f146113b9575060011461137b575b50505061137992500383611317565b565b5f90815285812095935091905b8183106113a157505061137993508201015f808061136a565b85548884018501529485019487945091830191611388565b9250505061137994925060ff191682840152151560051b8201015f808061136a565b91908251928382525f5b848110611405575050825f602080949584010152601f8019910116010190565b6020818301810151848301820152016113e5565b9895926114436101209996938b611451949e9d9a979e6020610140928392815201528c01906113db565b908a820360408c01526113db565b606089019a909a52608088015260a087015260c0860152151560e085015215156101008401526001600160a01b0316910152565b600435906001600160a01b038216820361012b57565b81601f8201121561012b5780359067ffffffffffffffff8211610c1357604051926114d0601f8401601f191660200185611317565b8284526020838301011161012b57815f926020809301838601378301015290565b156114f857565b60405162461bcd60e51b815260206004820152600e60248201526d2737ba10309033b7bb32b93737b960911b6044820152606490fd5b1561153557565b60405162461bcd60e51b815260206004820152601760248201527f50726f706f73616c20646f6573206e6f742065786973740000000000000000006044820152606490fd5b1561158157565b60405162461bcd60e51b815260206004820152601960248201527f50726f706f73616c20616c7265616479206578656375746564000000000000006044820152606490fd5b156115cd57565b60405162461bcd60e51b8152602060048201526011602482015270141c9bdc1bdcd85b0818d85b98d95b1959607a1b6044820152606490fd5b91908201809211610cdf57565b1561161a57565b60405162461bcd60e51b815260206004820152600c60248201526b159bdd1a5b99c8195b99195960a21b6044820152606490fd5b6001600160a01b039081169081156116a7575f8051602061173983398151915280546001600160a01b031981168417909155167f8be0079c531659141344cd1fd0a4f28419497f9722a3daafe3b4186f6b6457e05f80a3565b604051631e4fbdf760e01b81525f6004820152602490fd5b5f80516020611739833981519152546001600160a01b031633036116df57565b60405163118cdaa760e01b8152336004820152602490fd5b60ff7ff0c57e16840df040f15088dc2f81fe391c3923bec73e23a9662efc9c229c6a005460401c161561172657565b604051631afcd79f60e31b8152600490fdfe9016d09d72d40fdae2fd8ceac6b6234c7706214fd39c1cd1e609a0528c199300a26469706673582212208cbf2370935dc171ff946ef7050e78f15e1e0da2ba599460e20bac153fc16ac264736f6c63430008160033","linkReferences":{}},"methodIdentifiers":{"addGovernor(address)":"3c4a25d0","cancelProposal(uint256)":"e0a8f6f5","createProposal(string,string)":"65e481e2","executeProposal(uint256)":"0d61b519","getProposalInfo(uint256)":"bc903cb8","getVoteInfo(uint256,address)":"0d524bc6","initialize(address)":"c4d66de8","isGovernor(address)":"e43581b8","owner()":"8da5cb5b","proposalCount()":"da35c664","proposalThreshold()":"b58131b0","proposals(uint256)":"013cf08b","quorum()":"1703a018","removeGovernor(address)":"eecdac88","renounceOwnership()":"715018a6","transferOwnership(address)":"f2fde38b","updateGovernanceSettings(uint256,uint256,uint256)":"3ffe88ec","updateVotingPower(address,uint256)":"eadc29c7","vote(uint256,bool)":"c9d27afe","votingPeriod()":"02a251a3","votingPower(address)":"c07473f6"},"id":16}